{
  "_format": "hh-sol-artifact-1",
  "contractName": "NAMELESS",
  "sourceName": "contracts/ff-mp/MP.sol",
  "abi": [
    {
      "inputs": [
        {
          "internalType": "address",
          "name": "contractAddress",
          "type": "address"
        },
        {
          "internalType": "uint256",
          "name": "tokenId",
          "type": "uint256"
        }
      ],
      "name": "AlreadyListed",
      "type": "error"
    },
    {
      "inputs": [],
      "name": "NotApprovedForMarketplace",
      "type": "error"
    },
    {
      "inputs": [
        {
          "internalType": "address",
          "name": "contractAddress",
          "type": "address"
        },
        {
          "internalType": "uint256",
          "name": "tokenId",
          "type": "uint256"
        }
      ],
      "name": "NotListed",
      "type": "error"
    },
    {
      "inputs": [],
      "name": "NotOwner",
      "type": "error"
    },
    {
      "inputs": [],
      "name": "PriceMustBeAboveZero",
      "type": "error"
    },
    {
      "inputs": [
        {
          "internalType": "address",
          "name": "contractAddress",
          "type": "address"
        },
        {
          "internalType": "uint256",
          "name": "tokenId",
          "type": "uint256"
        },
        {
          "internalType": "uint256",
          "name": "price",
          "type": "uint256"
        }
      ],
      "name": "PriceNotMet",
      "type": "error"
    },
    {
      "anonymous": false,
      "inputs": [
        {
          "indexed": true,
          "internalType": "address",
          "name": "account",
          "type": "address"
        },
        {
          "indexed": true,
          "internalType": "address",
          "name": "sender",
          "type": "address"
        }
      ],
      "name": "AdminApproved",
      "type": "event"
    },
    {
      "anonymous": false,
      "inputs": [
        {
          "indexed": true,
          "internalType": "address",
          "name": "account",
          "type": "address"
        },
        {
          "indexed": true,
          "internalType": "address",
          "name": "sender",
          "type": "address"
        }
      ],
      "name": "AdminRevoked",
      "type": "event"
    },
    {
      "anonymous": false,
      "inputs": [
        {
          "indexed": false,
          "internalType": "uint8",
          "name": "version",
          "type": "uint8"
        }
      ],
      "name": "Initialized",
      "type": "event"
    },
    {
      "anonymous": false,
      "inputs": [
        {
          "indexed": true,
          "internalType": "address",
          "name": "buyer",
          "type": "address"
        },
        {
          "indexed": true,
          "internalType": "address",
          "name": "contractAddress",
          "type": "address"
        },
        {
          "indexed": true,
          "internalType": "uint256",
          "name": "tokenId",
          "type": "uint256"
        },
        {
          "indexed": false,
          "internalType": "uint256",
          "name": "price",
          "type": "uint256"
        }
      ],
      "name": "ItemBought",
      "type": "event"
    },
    {
      "anonymous": false,
      "inputs": [
        {
          "indexed": true,
          "internalType": "address",
          "name": "seller",
          "type": "address"
        },
        {
          "indexed": true,
          "internalType": "address",
          "name": "contractAddress",
          "type": "address"
        },
        {
          "indexed": true,
          "internalType": "uint256",
          "name": "tokenId",
          "type": "uint256"
        }
      ],
      "name": "ItemCanceled",
      "type": "event"
    },
    {
      "anonymous": false,
      "inputs": [
        {
          "indexed": false,
          "internalType": "uint256",
          "name": "listingId",
          "type": "uint256"
        },
        {
          "indexed": true,
          "internalType": "address",
          "name": "seller",
          "type": "address"
        },
        {
          "indexed": true,
          "internalType": "address",
          "name": "contractAddress",
          "type": "address"
        },
        {
          "indexed": true,
          "internalType": "uint256",
          "name": "tokenId",
          "type": "uint256"
        },
        {
          "indexed": false,
          "internalType": "uint256",
          "name": "price",
          "type": "uint256"
        }
      ],
      "name": "ItemListed",
      "type": "event"
    },
    {
      "anonymous": false,
      "inputs": [
        {
          "indexed": true,
          "internalType": "address",
          "name": "previousOwner",
          "type": "address"
        },
        {
          "indexed": true,
          "internalType": "address",
          "name": "newOwner",
          "type": "address"
        }
      ],
      "name": "OwnershipTransferred",
      "type": "event"
    },
    {
      "inputs": [
        {
          "internalType": "address",
          "name": "admin",
          "type": "address"
        }
      ],
      "name": "approveAdmin",
      "outputs": [],
      "stateMutability": "nonpayable",
      "type": "function"
    },
    {
      "inputs": [
        {
          "internalType": "address",
          "name": "contractAddress",
          "type": "address"
        },
        {
          "internalType": "uint256",
          "name": "tokenId",
          "type": "uint256"
        }
      ],
      "name": "buyItem",
      "outputs": [],
      "stateMutability": "payable",
      "type": "function"
    },
    {
      "inputs": [
        {
          "internalType": "address",
          "name": "contractAddress",
          "type": "address"
        },
        {
          "internalType": "uint256",
          "name": "tokenId",
          "type": "uint256"
        }
      ],
      "name": "cancelListing",
      "outputs": [],
      "stateMutability": "nonpayable",
      "type": "function"
    },
    {
      "inputs": [],
      "name": "fetchListedMarketItems",
      "outputs": [
        {
          "components": [
            {
              "internalType": "address",
              "name": "contractAddress",
              "type": "address"
            },
            {
              "internalType": "uint256",
              "name": "tokenId",
              "type": "uint256"
            },
            {
              "components": [
                {
                  "internalType": "uint256",
                  "name": "price",
                  "type": "uint256"
                },
                {
                  "internalType": "address",
                  "name": "seller",
                  "type": "address"
                },
                {
                  "internalType": "uint256",
                  "name": "listingId",
                  "type": "uint256"
                }
              ],
              "internalType": "struct NAMELESSTransactionMgr.Listing",
              "name": "listing",
              "type": "tuple"
            },
            {
              "internalType": "bool",
              "name": "active",
              "type": "bool"
            }
          ],
          "internalType": "struct NAMELESSTransactionMgr.ListedItem[]",
          "name": "",
          "type": "tuple[]"
        }
      ],
      "stateMutability": "view",
      "type": "function"
    },
    {
      "inputs": [],
      "name": "fetchMyListings",
      "outputs": [
        {
          "components": [
            {
              "internalType": "address",
              "name": "contractAddress",
              "type": "address"
            },
            {
              "internalType": "uint256",
              "name": "tokenId",
              "type": "uint256"
            },
            {
              "components": [
                {
                  "internalType": "uint256",
                  "name": "price",
                  "type": "uint256"
                },
                {
                  "internalType": "address",
                  "name": "seller",
                  "type": "address"
                },
                {
                  "internalType": "uint256",
                  "name": "listingId",
                  "type": "uint256"
                }
              ],
              "internalType": "struct NAMELESSTransactionMgr.Listing",
              "name": "listing",
              "type": "tuple"
            },
            {
              "internalType": "bool",
              "name": "active",
              "type": "bool"
            }
          ],
          "internalType": "struct NAMELESSTransactionMgr.ListedItem[]",
          "name": "",
          "type": "tuple[]"
        }
      ],
      "stateMutability": "view",
      "type": "function"
    },
    {
      "inputs": [],
      "name": "getAdmins",
      "outputs": [
        {
          "internalType": "address[]",
          "name": "admins",
          "type": "address[]"
        }
      ],
      "stateMutability": "view",
      "type": "function"
    },
    {
      "inputs": [
        {
          "internalType": "address",
          "name": "contractAddress",
          "type": "address"
        },
        {
          "internalType": "uint256",
          "name": "tokenId",
          "type": "uint256"
        }
      ],
      "name": "getListing",
      "outputs": [
        {
          "components": [
            {
              "internalType": "uint256",
              "name": "price",
              "type": "uint256"
            },
            {
              "internalType": "address",
              "name": "seller",
              "type": "address"
            },
            {
              "internalType": "uint256",
              "name": "listingId",
              "type": "uint256"
            }
          ],
          "internalType": "struct NAMELESSTransactionMgr.Listing",
          "name": "",
          "type": "tuple"
        }
      ],
      "stateMutability": "view",
      "type": "function"
    },
    {
      "inputs": [
        {
          "internalType": "uint256",
          "name": "listingId",
          "type": "uint256"
        }
      ],
      "name": "getListingById",
      "outputs": [
        {
          "components": [
            {
              "internalType": "address",
              "name": "contractAddress",
              "type": "address"
            },
            {
              "internalType": "uint256",
              "name": "tokenId",
              "type": "uint256"
            },
            {
              "components": [
                {
                  "internalType": "uint256",
                  "name": "price",
                  "type": "uint256"
                },
                {
                  "internalType": "address",
                  "name": "seller",
                  "type": "address"
                },
                {
                  "internalType": "uint256",
                  "name": "listingId",
                  "type": "uint256"
                }
              ],
              "internalType": "struct NAMELESSTransactionMgr.Listing",
              "name": "listing",
              "type": "tuple"
            },
            {
              "internalType": "bool",
              "name": "active",
              "type": "bool"
            }
          ],
          "internalType": "struct NAMELESSTransactionMgr.ListedItem",
          "name": "",
          "type": "tuple"
        }
      ],
      "stateMutability": "view",
      "type": "function"
    },
    {
      "inputs": [
        {
          "internalType": "address",
          "name": "dw",
          "type": "address"
        }
      ],
      "name": "initialize",
      "outputs": [],
      "stateMutability": "nonpayable",
      "type": "function"
    },
    {
      "inputs": [
        {
          "internalType": "address",
          "name": "admin",
          "type": "address"
        }
      ],
      "name": "isAdmin",
      "outputs": [
        {
          "internalType": "bool",
          "name": "",
          "type": "bool"
        }
      ],
      "stateMutability": "view",
      "type": "function"
    },
    {
      "inputs": [
        {
          "internalType": "address",
          "name": "contractAddress",
          "type": "address"
        },
        {
          "internalType": "uint256",
          "name": "tokenId",
          "type": "uint256"
        },
        {
          "internalType": "uint256",
          "name": "price",
          "type": "uint256"
        }
      ],
      "name": "listItem",
      "outputs": [],
      "stateMutability": "nonpayable",
      "type": "function"
    },
    {
      "inputs": [],
      "name": "owner",
      "outputs": [
        {
          "internalType": "address",
          "name": "",
          "type": "address"
        }
      ],
      "stateMutability": "view",
      "type": "function"
    },
    {
      "inputs": [],
      "name": "renounceOwnership",
      "outputs": [],
      "stateMutability": "nonpayable",
      "type": "function"
    },
    {
      "inputs": [
        {
          "internalType": "address",
          "name": "admin",
          "type": "address"
        }
      ],
      "name": "revokeAdmin",
      "outputs": [],
      "stateMutability": "nonpayable",
      "type": "function"
    },
    {
      "inputs": [
        {
          "internalType": "bytes4",
          "name": "interfaceId",
          "type": "bytes4"
        }
      ],
      "name": "supportsInterface",
      "outputs": [
        {
          "internalType": "bool",
          "name": "",
          "type": "bool"
        }
      ],
      "stateMutability": "view",
      "type": "function"
    },
    {
      "inputs": [
        {
          "internalType": "address",
          "name": "newOwner",
          "type": "address"
        }
      ],
      "name": "transferOwnership",
      "outputs": [],
      "stateMutability": "nonpayable",
      "type": "function"
    },
    {
      "inputs": [
        {
          "internalType": "address",
          "name": "newDev",
          "type": "address"
        }
      ],
      "name": "updateDevWallet",
      "outputs": [],
      "stateMutability": "nonpayable",
      "type": "function"
    },
    {
      "inputs": [
        {
          "internalType": "address",
          "name": "contractAddress",
          "type": "address"
        },
        {
          "internalType": "uint256",
          "name": "tokenId",
          "type": "uint256"
        },
        {
          "internalType": "uint256",
          "name": "newPrice",
          "type": "uint256"
        }
      ],
      "name": "updateListing",
      "outputs": [],
      "stateMutability": "nonpayable",
      "type": "function"
    },
    {
      "inputs": [
        {
          "internalType": "address",
          "name": "to",
          "type": "address"
        }
      ],
      "name": "withdrawAll",
      "outputs": [],
      "stateMutability": "nonpayable",
      "type": "function"
    },
    {
      "inputs": [
        {
          "internalType": "address",
          "name": "_tokenContract",
          "type": "address"
        },
        {
          "internalType": "uint256",
          "name": "_amount",
          "type": "uint256"
        }
      ],
      "name": "withdrawToken",
      "outputs": [],
      "stateMutability": "nonpayable",
      "type": "function"
    }
  ],
  "bytecode": "0x608060405234801561001057600080fd5b50611d77806100206000396000f3fe60806040526004361061011f5760003560e01c806388700d1c116100a0578063b2ddee0611610064578063b2ddee061461031e578063c4d66de81461033e578063f2fde38b1461035e578063f772adf11461037e578063fa09e6301461039e57600080fd5b806388700d1c1461027657806389bfd38f146102a35780638da5cb5b146102c35780639e281a98146102eb5780639f37092a1461030b57600080fd5b80632d345670116100e75780632d345670146101d257806331ae450b146101f25780634f85310f146102145780636d73e66914610241578063715018a61461026157600080fd5b806301ffc9a71461012457806315a70d8d146101595780631816467f1461017b5780631fb0080e1461019d57806324d7806c146101b2575b600080fd5b34801561013057600080fd5b5061014461013f366004611a19565b6103be565b60405190151581526020015b60405180910390f35b34801561016557600080fd5b5061016e6103f5565b6040516101509190611a8d565b34801561018757600080fd5b5061019b610196366004611af0565b610555565b005b3480156101a957600080fd5b5061016e61057f565b3480156101be57600080fd5b506101446101cd366004611af0565b6106cf565b3480156101de57600080fd5b5061019b6101ed366004611af0565b610708565b3480156101fe57600080fd5b50610207610766565b6040516101509190611b0d565b34801561022057600080fd5b5061023461022f366004611b4e565b61080b565b6040516101509190611b67565b34801561024d57600080fd5b5061019b61025c366004611af0565b610888565b34801561026d57600080fd5b5061019b6108e0565b34801561028257600080fd5b50610296610291366004611b75565b6108f4565b6040516101509190611ba1565b3480156102af57600080fd5b5061019b6102be366004611bcb565b61096e565b3480156102cf57600080fd5b506033546040516001600160a01b039091168152602001610150565b3480156102f757600080fd5b5061019b610306366004611b75565b610cc4565b61019b610319366004611b75565b610d45565b34801561032a57600080fd5b5061019b610339366004611b75565b611022565b34801561034a57600080fd5b5061019b610359366004611af0565b6111f6565b34801561036a57600080fd5b5061019b610379366004611af0565b61132a565b34801561038a57600080fd5b5061019b610399366004611bcb565b6113a0565b3480156103aa57600080fd5b5061019b6103b9366004611af0565b611573565b60006001600160e01b03198216632a9f3abf60e11b14806103ef57506301ffc9a760e01b6001600160e01b03198316145b92915050565b60606000610402609d5490565b67ffffffffffffffff81111561041a5761041a611c00565b60405190808252806020026020018201604052801561045357816020015b6104406119bd565b8152602001906001900390816104385790505b5090506000805b609d5481101561054d576000818152609c6020526040902060030154336001600160a01b0390911603610545576000818152609c602052604090206005015460ff161515600103610545576000818152609c6020908152604091829020825160808101845281546001600160a01b0390811682526001830154828501528451606080820187526002850154825260038501549092169481019490945260048301548486015293810192909252600581015460ff16151592820192909252845185908590811061052b5761052b611c16565b6020908102919091010152610541600184611c42565b9250505b60010161045a565b509092915050565b61055d611590565b606780546001600160a01b0319166001600160a01b0392909216919091179055565b6060600061058c609e5490565b609d546105999190611c55565b905060008167ffffffffffffffff8111156105b6576105b6611c00565b6040519080825280602002602001820160405280156105ef57816020015b6105dc6119bd565b8152602001906001900390816105d45790505b5090506000805b609d548110156106c6576000818152609c602052604090206005015460ff1615156001036106be576000818152609c6020908152604091829020825160808101845281546001600160a01b0390811682526001830154828501528451606080820187526002850154825260038501549092169481019490945260048301548486015293810192909252600581015460ff1615159282019290925284518590859081106106a4576106a4611c16565b60209081029190910101526106ba600184611c42565b9250505b6001016105f6565b50909392505050565b6000816001600160a01b03166106ed6033546001600160a01b031690565b6001600160a01b031614806103ef57506103ef6065836115ea565b610710611590565b61071b6065826115ea565b156107635760405133906001600160a01b038316907f7c0c3c84c67c85fcac635147348bfe374c24a1a93d0366d1cfe9d8853cbf89d590600090a361076160658261160f565b505b50565b60606107726065611624565b67ffffffffffffffff81111561078a5761078a611c00565b6040519080825280602002602001820160405280156107b3578160200160208202803683370190505b50905060005b6107c36065611624565b811015610807576107d560658261162e565b8282815181106107e7576107e7611c16565b6001600160a01b03909216602092830291909101909101526001016107b9565b5090565b6108136119bd565b506000908152609c6020908152604091829020825160808101845281546001600160a01b03908116825260018301548285015284516060808201875260028501548252600385015490921694810194909452600483015484860152938101929092526005015460ff1615159181019190915290565b610890611590565b61089b6065826115ea565b6107635760405133906001600160a01b038316907f7e1a1a08d52e4ba0e21554733d66165fd5151f99460116223d9e3a608eec5cb190600090a361076160658261163a565b6108e8611590565b6108f2600061164f565b565b61092160405180606001604052806000815260200160006001600160a01b03168152602001600081525090565b506001600160a01b039182166000908152609a6020908152604080832093835292815290829020825160608101845281548152600182015490941691840191909152600201549082015290565b6001600160a01b038084166000908152609a602090815260408083208684528252918290208251606081018452815480825260018301549095169281019290925260020154918101919091528491849190156109f457604051634a5568d560e01b81526001600160a01b0384166004820152602481018390526044015b60405180910390fd5b6040516331a9108f60e11b81526004810186905286908690339083906000906001600160a01b03831690636352211e90602401602060405180830381865afa158015610a44573d6000803e3d6000fd5b505050506040513d601f19601f82011682018060405250810190610a689190611c68565b9050806001600160a01b0316836001600160a01b031614610a9c576040516330cd747160e01b815260040160405180910390fd5b60008911610abd5760405163e1abbfc560e01b815260040160405180910390fd5b60405163020604bf60e21b8152600481018b90528b908b90829030906001600160a01b0383169063081812fc90602401602060405180830381865afa158015610b0a573d6000803e3d6000fd5b505050506040513d601f19601f82011682018060405250810190610b2e9190611c68565b6001600160a01b031614610b5557604051634be3a2c560e01b815260040160405180910390fd5b604080516060810182528d81523360208201526000918101610b76609d5490565b90526001600160a01b038581166000818152609a6020908152604080832089845282528083208651815586830151600180830180549289166001600160a01b03199384161790558884015160029384015583516080810185529687528685018c81528785018a815260608901838152609d80548a52609c8952988790208a5181548716908d16178155925183850155905180519583019590955595840151600382018054909416991698909817909155910151600486015590516005909401805460ff19169415159490941790935580549092019091559091505050505050898b6001600160a01b0316336001600160a01b03167f424b3284a7958bb7965c27ca0b2a8b30ce2a56ba954533df15e6bded1b608ed76001610c96609d5490565b610ca09190611c55565b60408051918252602082018f90520160405180910390a45050505050505050505050565b610ccc611590565b60405163a9059cbb60e01b81523360048201526024810182905282906001600160a01b0382169063a9059cbb906044016020604051808303816000875af1158015610d1b573d6000803e3d6000fd5b505050506040513d601f19601f82011682018060405250810190610d3f9190611c85565b50505050565b6001600160a01b038083166000908152609a602090815260408083208584528252918290208251606081018452815480825260018301549095169281019290925260020154918101919091528391839190610dc557604051631a0c522360e21b81526001600160a01b0384166004820152602481018390526044016109eb565b610dcd6116a1565b6001600160a01b038086166000908152609a6020908152604080832088845282529182902082516060810184528154808252600183015490951692810192909252600201549181019190915290341015610e56578051604051637c93456560e01b81526001600160a01b03881660048201526024810187905260448101919091526064016109eb565b60675481516001600160a01b03909116906108fc90610e78906103e890611ca7565b610e8390600f611cc9565b6040518115909202916000818181858888f19350505050158015610eab573d6000803e3d6000fd5b5080602001516001600160a01b03166108fc60648360000151610ece9190611ca7565b610ed9906061611cc9565b6040518115909202916000818181858888f19350505050158015610f01573d6000803e3d6000fd5b506001600160a01b038681166000818152609a602090815260408083208a84528083528184206002810180548652609c8552838620600501805460ff191690558c865291845284815560010180546001600160a01b0319169055929092558401519051632142170760e11b81529216600483015233602483015260448201879052906342842e0e90606401600060405180830381600087803b158015610fa657600080fd5b505af1158015610fba573d6000803e3d6000fd5b50505050610fcc609e80546001019055565b805160405190815285906001600160a01b0388169033907f263223b1dd81e51054a4e6f791d45a4a1ddb4aadcd93a2dfd892615c3fdac1879060200160405180910390a45061101b6001606855565b5050505050565b6040516331a9108f60e11b81526004810182905282908290339083906000906001600160a01b03831690636352211e90602401602060405180830381865afa158015611072573d6000803e3d6000fd5b505050506040513d601f19601f820116820180604052508101906110969190611c68565b9050806001600160a01b0316836001600160a01b0316146110ca576040516330cd747160e01b815260040160405180910390fd5b6001600160a01b038088166000908152609a602090815260408083208a8452825291829020825160608101845281548082526001830154909516928101929092526002015491810191909152889188919061114a57604051631a0c522360e21b81526001600160a01b0384166004820152602481018390526044016109eb565b6001600160a01b038a166000908152609a602090815260408083208c84528083528184206002810180548652609c8552928520600501805460ff191690558d85529252828255600190910180546001600160a01b0319169055556111b2609e80546001019055565b60405189906001600160a01b038c169033907f9ba1a3cb55ce8d63d072a886f94d2a744f50cddf82128e897d0661f5ec62315890600090a450505050505050505050565b600054610100900460ff16158080156112165750600054600160ff909116105b806112305750303b158015611230575060005460ff166001145b6112935760405162461bcd60e51b815260206004820152602e60248201527f496e697469616c697a61626c653a20636f6e747261637420697320616c72656160448201526d191e481a5b9a5d1a585b1a5e995960921b60648201526084016109eb565b6000805460ff1916600117905580156112b6576000805461ff0019166101001790555b6112be611701565b6112c6611730565b606780546001600160a01b0319166001600160a01b0384161790558015610761576000805461ff0019169055604051600181527f7f26b83ff96e1f2b6a682f133852f6798a09c465da95921460cefb38474024989060200160405180910390a15050565b611332611590565b6001600160a01b0381166113975760405162461bcd60e51b815260206004820152602660248201527f4f776e61626c653a206e6577206f776e657220697320746865207a65726f206160448201526564647265737360d01b60648201526084016109eb565b6107638161164f565b6001600160a01b038084166000908152609a60209081526040808320868452825291829020825160608101845281548082526001830154909516928101929092526002015491810191909152849184919061142057604051631a0c522360e21b81526001600160a01b0384166004820152602481018390526044016109eb565b6114286116a1565b6040516331a9108f60e11b81526004810186905286908690339083906000906001600160a01b03831690636352211e90602401602060405180830381865afa158015611478573d6000803e3d6000fd5b505050506040513d601f19601f8201168201806040525081019061149c9190611c68565b9050806001600160a01b0316836001600160a01b0316146114d0576040516330cd747160e01b815260040160405180910390fd5b886000036114f15760405163e1abbfc560e01b815260040160405180910390fd5b6001600160a01b038b166000818152609a602090815260408083208e84528252918290208c81556002015482519081529081018c90528d928d92839233917f424b3284a7958bb7965c27ca0b2a8b30ce2a56ba954533df15e6bded1b608ed7910160405180910390a45050505050505061156b6001606855565b505050505050565b61157b611590565b478061158657600080fd5b610761824761175f565b6033546001600160a01b031633146108f25760405162461bcd60e51b815260206004820181905260248201527f4f776e61626c653a2063616c6c6572206973206e6f7420746865206f776e657260448201526064016109eb565b6001600160a01b038116600090815260018301602052604081205415155b9392505050565b6000611608836001600160a01b0384166117fa565b60006103ef825490565b600061160883836118ed565b6000611608836001600160a01b038416611917565b603380546001600160a01b038381166001600160a01b0319831681179093556040519116919082907f8be0079c531659141344cd1fd0a4f28419497f9722a3daafe3b4186f6b6457e090600090a35050565b6002606854036116f35760405162461bcd60e51b815260206004820152601f60248201527f5265656e7472616e637947756172643a207265656e7472616e742063616c6c0060448201526064016109eb565b6002606855565b6001606855565b600054610100900460ff166117285760405162461bcd60e51b81526004016109eb90611ce0565b6108f2611966565b600054610100900460ff166117575760405162461bcd60e51b81526004016109eb90611ce0565b6108f2611996565b6000826001600160a01b03168260405160006040518083038185875af1925050503d80600081146117ac576040519150601f19603f3d011682016040523d82523d6000602084013e6117b1565b606091505b50509050806117f55760405162461bcd60e51b815260206004820152601060248201526f2a3930b739b332b9103330b4b632b21760811b60448201526064016109eb565b505050565b600081815260018301602052604081205480156118e357600061181e600183611c55565b855490915060009061183290600190611c55565b905081811461189757600086600001828154811061185257611852611c16565b906000526020600020015490508087600001848154811061187557611875611c16565b6000918252602080832090910192909255918252600188019052604090208390555b85548690806118a8576118a8611d2b565b6001900381819060005260206000200160009055905585600101600086815260200190815260200160002060009055600193505050506103ef565b60009150506103ef565b600082600001828154811061190457611904611c16565b9060005260206000200154905092915050565b600081815260018301602052604081205461195e575081546001818101845560008481526020808220909301849055845484825282860190935260409020919091556103ef565b5060006103ef565b600054610100900460ff1661198d5760405162461bcd60e51b81526004016109eb90611ce0565b6108f23361164f565b600054610100900460ff166116fa5760405162461bcd60e51b81526004016109eb90611ce0565b604051806080016040528060006001600160a01b0316815260200160008152602001611a0c60405180606001604052806000815260200160006001600160a01b03168152602001600081525090565b8152600060209091015290565b600060208284031215611a2b57600080fd5b81356001600160e01b03198116811461160857600080fd5b80516001600160a01b039081168352602080830151818501526040808401518051828701529182015190921660608501529081015160808401525060600151151560a09190910152565b6020808252825182820181905260009190848201906040850190845b81811015611acf57611abc838551611a43565b9284019260c09290920191600101611aa9565b50909695505050505050565b6001600160a01b038116811461076357600080fd5b600060208284031215611b0257600080fd5b813561160881611adb565b6020808252825182820181905260009190848201906040850190845b81811015611acf5783516001600160a01b031683529284019291840191600101611b29565b600060208284031215611b6057600080fd5b5035919050565b60c081016103ef8284611a43565b60008060408385031215611b8857600080fd5b8235611b9381611adb565b946020939093013593505050565b815181526020808301516001600160a01b03169082015260408083015190820152606081016103ef565b600080600060608486031215611be057600080fd5b8335611beb81611adb565b95602085013595506040909401359392505050565b634e487b7160e01b600052604160045260246000fd5b634e487b7160e01b600052603260045260246000fd5b634e487b7160e01b600052601160045260246000fd5b808201808211156103ef576103ef611c2c565b818103818111156103ef576103ef611c2c565b600060208284031215611c7a57600080fd5b815161160881611adb565b600060208284031215611c9757600080fd5b8151801515811461160857600080fd5b600082611cc457634e487b7160e01b600052601260045260246000fd5b500490565b80820281158282048414176103ef576103ef611c2c565b6020808252602b908201527f496e697469616c697a61626c653a20636f6e7472616374206973206e6f74206960408201526a6e697469616c697a696e6760a81b606082015260800190565b634e487b7160e01b600052603160045260246000fdfea2646970667358221220c756948a09547252fca1d3b79006503dc6995e8e85984b127814f8868353be7c64736f6c63430008160033",
  "linkReferences": {},
  "deployedLinkReferences": {}
}