{
  "_format": "hh-sol-artifact-1",
  "contractName": "NAMELESS",
  "sourceName": "contracts/ff-mp/MP.sol",
  "abi": [
    {
      "inputs": [
        {
          "internalType": "address",
          "name": "contractAddress",
          "type": "address"
        },
        {
          "internalType": "uint256",
          "name": "tokenId",
          "type": "uint256"
        }
      ],
      "name": "AlreadyListed",
      "type": "error"
    },
    {
      "inputs": [],
      "name": "NotApprovedForMarketplace",
      "type": "error"
    },
    {
      "inputs": [
        {
          "internalType": "address",
          "name": "contractAddress",
          "type": "address"
        },
        {
          "internalType": "uint256",
          "name": "tokenId",
          "type": "uint256"
        }
      ],
      "name": "NotListed",
      "type": "error"
    },
    {
      "inputs": [],
      "name": "NotOwner",
      "type": "error"
    },
    {
      "inputs": [],
      "name": "PriceMustBeAboveZero",
      "type": "error"
    },
    {
      "inputs": [
        {
          "internalType": "address",
          "name": "contractAddress",
          "type": "address"
        },
        {
          "internalType": "uint256",
          "name": "tokenId",
          "type": "uint256"
        },
        {
          "internalType": "uint256",
          "name": "price",
          "type": "uint256"
        }
      ],
      "name": "PriceNotMet",
      "type": "error"
    },
    {
      "anonymous": false,
      "inputs": [
        {
          "indexed": true,
          "internalType": "address",
          "name": "account",
          "type": "address"
        },
        {
          "indexed": true,
          "internalType": "address",
          "name": "sender",
          "type": "address"
        }
      ],
      "name": "AdminApproved",
      "type": "event"
    },
    {
      "anonymous": false,
      "inputs": [
        {
          "indexed": true,
          "internalType": "address",
          "name": "account",
          "type": "address"
        },
        {
          "indexed": true,
          "internalType": "address",
          "name": "sender",
          "type": "address"
        }
      ],
      "name": "AdminRevoked",
      "type": "event"
    },
    {
      "anonymous": false,
      "inputs": [
        {
          "indexed": false,
          "internalType": "uint8",
          "name": "version",
          "type": "uint8"
        }
      ],
      "name": "Initialized",
      "type": "event"
    },
    {
      "anonymous": false,
      "inputs": [
        {
          "indexed": true,
          "internalType": "address",
          "name": "buyer",
          "type": "address"
        },
        {
          "indexed": true,
          "internalType": "address",
          "name": "contractAddress",
          "type": "address"
        },
        {
          "indexed": true,
          "internalType": "uint256",
          "name": "tokenId",
          "type": "uint256"
        },
        {
          "indexed": false,
          "internalType": "uint256",
          "name": "price",
          "type": "uint256"
        }
      ],
      "name": "ItemBought",
      "type": "event"
    },
    {
      "anonymous": false,
      "inputs": [
        {
          "indexed": true,
          "internalType": "address",
          "name": "seller",
          "type": "address"
        },
        {
          "indexed": true,
          "internalType": "address",
          "name": "contractAddress",
          "type": "address"
        },
        {
          "indexed": true,
          "internalType": "uint256",
          "name": "tokenId",
          "type": "uint256"
        }
      ],
      "name": "ItemCanceled",
      "type": "event"
    },
    {
      "anonymous": false,
      "inputs": [
        {
          "indexed": false,
          "internalType": "uint256",
          "name": "listingId",
          "type": "uint256"
        },
        {
          "indexed": true,
          "internalType": "address",
          "name": "seller",
          "type": "address"
        },
        {
          "indexed": true,
          "internalType": "address",
          "name": "contractAddress",
          "type": "address"
        },
        {
          "indexed": true,
          "internalType": "uint256",
          "name": "tokenId",
          "type": "uint256"
        },
        {
          "indexed": false,
          "internalType": "uint256",
          "name": "price",
          "type": "uint256"
        }
      ],
      "name": "ItemListed",
      "type": "event"
    },
    {
      "anonymous": false,
      "inputs": [
        {
          "indexed": true,
          "internalType": "address",
          "name": "previousOwner",
          "type": "address"
        },
        {
          "indexed": true,
          "internalType": "address",
          "name": "newOwner",
          "type": "address"
        }
      ],
      "name": "OwnershipTransferred",
      "type": "event"
    },
    {
      "inputs": [
        {
          "internalType": "address",
          "name": "admin",
          "type": "address"
        }
      ],
      "name": "approveAdmin",
      "outputs": [],
      "stateMutability": "nonpayable",
      "type": "function"
    },
    {
      "inputs": [
        {
          "internalType": "address",
          "name": "contractAddress",
          "type": "address"
        },
        {
          "internalType": "uint256",
          "name": "tokenId",
          "type": "uint256"
        }
      ],
      "name": "buyItem",
      "outputs": [],
      "stateMutability": "payable",
      "type": "function"
    },
    {
      "inputs": [
        {
          "internalType": "address",
          "name": "contractAddress",
          "type": "address"
        },
        {
          "internalType": "uint256",
          "name": "tokenId",
          "type": "uint256"
        }
      ],
      "name": "cancelListing",
      "outputs": [],
      "stateMutability": "nonpayable",
      "type": "function"
    },
    {
      "inputs": [],
      "name": "fetchListedMarketItems",
      "outputs": [
        {
          "components": [
            {
              "internalType": "address",
              "name": "contractAddress",
              "type": "address"
            },
            {
              "internalType": "uint256",
              "name": "tokenId",
              "type": "uint256"
            },
            {
              "components": [
                {
                  "internalType": "uint256",
                  "name": "price",
                  "type": "uint256"
                },
                {
                  "internalType": "address",
                  "name": "seller",
                  "type": "address"
                },
                {
                  "internalType": "uint256",
                  "name": "listingId",
                  "type": "uint256"
                }
              ],
              "internalType": "struct NAMELESSTransactionMgr.Listing",
              "name": "listing",
              "type": "tuple"
            },
            {
              "internalType": "bool",
              "name": "active",
              "type": "bool"
            }
          ],
          "internalType": "struct NAMELESSTransactionMgr.ListedItem[]",
          "name": "",
          "type": "tuple[]"
        }
      ],
      "stateMutability": "view",
      "type": "function"
    },
    {
      "inputs": [],
      "name": "fetchMyListings",
      "outputs": [
        {
          "components": [
            {
              "internalType": "address",
              "name": "contractAddress",
              "type": "address"
            },
            {
              "internalType": "uint256",
              "name": "tokenId",
              "type": "uint256"
            },
            {
              "components": [
                {
                  "internalType": "uint256",
                  "name": "price",
                  "type": "uint256"
                },
                {
                  "internalType": "address",
                  "name": "seller",
                  "type": "address"
                },
                {
                  "internalType": "uint256",
                  "name": "listingId",
                  "type": "uint256"
                }
              ],
              "internalType": "struct NAMELESSTransactionMgr.Listing",
              "name": "listing",
              "type": "tuple"
            },
            {
              "internalType": "bool",
              "name": "active",
              "type": "bool"
            }
          ],
          "internalType": "struct NAMELESSTransactionMgr.ListedItem[]",
          "name": "",
          "type": "tuple[]"
        }
      ],
      "stateMutability": "view",
      "type": "function"
    },
    {
      "inputs": [],
      "name": "getAdmins",
      "outputs": [
        {
          "internalType": "address[]",
          "name": "admins",
          "type": "address[]"
        }
      ],
      "stateMutability": "view",
      "type": "function"
    },
    {
      "inputs": [
        {
          "internalType": "address",
          "name": "contractAddress",
          "type": "address"
        },
        {
          "internalType": "uint256",
          "name": "tokenId",
          "type": "uint256"
        }
      ],
      "name": "getListing",
      "outputs": [
        {
          "components": [
            {
              "internalType": "uint256",
              "name": "price",
              "type": "uint256"
            },
            {
              "internalType": "address",
              "name": "seller",
              "type": "address"
            },
            {
              "internalType": "uint256",
              "name": "listingId",
              "type": "uint256"
            }
          ],
          "internalType": "struct NAMELESSTransactionMgr.Listing",
          "name": "",
          "type": "tuple"
        }
      ],
      "stateMutability": "view",
      "type": "function"
    },
    {
      "inputs": [
        {
          "internalType": "uint256",
          "name": "listingId",
          "type": "uint256"
        }
      ],
      "name": "getListingById",
      "outputs": [
        {
          "components": [
            {
              "internalType": "address",
              "name": "contractAddress",
              "type": "address"
            },
            {
              "internalType": "uint256",
              "name": "tokenId",
              "type": "uint256"
            },
            {
              "components": [
                {
                  "internalType": "uint256",
                  "name": "price",
                  "type": "uint256"
                },
                {
                  "internalType": "address",
                  "name": "seller",
                  "type": "address"
                },
                {
                  "internalType": "uint256",
                  "name": "listingId",
                  "type": "uint256"
                }
              ],
              "internalType": "struct NAMELESSTransactionMgr.Listing",
              "name": "listing",
              "type": "tuple"
            },
            {
              "internalType": "bool",
              "name": "active",
              "type": "bool"
            }
          ],
          "internalType": "struct NAMELESSTransactionMgr.ListedItem",
          "name": "",
          "type": "tuple"
        }
      ],
      "stateMutability": "view",
      "type": "function"
    },
    {
      "inputs": [
        {
          "internalType": "address",
          "name": "dw",
          "type": "address"
        }
      ],
      "name": "initialize",
      "outputs": [],
      "stateMutability": "nonpayable",
      "type": "function"
    },
    {
      "inputs": [
        {
          "internalType": "address",
          "name": "admin",
          "type": "address"
        }
      ],
      "name": "isAdmin",
      "outputs": [
        {
          "internalType": "bool",
          "name": "",
          "type": "bool"
        }
      ],
      "stateMutability": "view",
      "type": "function"
    },
    {
      "inputs": [
        {
          "internalType": "address",
          "name": "contractAddress",
          "type": "address"
        },
        {
          "internalType": "uint256",
          "name": "tokenId",
          "type": "uint256"
        },
        {
          "internalType": "uint256",
          "name": "price",
          "type": "uint256"
        }
      ],
      "name": "listItem",
      "outputs": [],
      "stateMutability": "nonpayable",
      "type": "function"
    },
    {
      "inputs": [],
      "name": "owner",
      "outputs": [
        {
          "internalType": "address",
          "name": "",
          "type": "address"
        }
      ],
      "stateMutability": "view",
      "type": "function"
    },
    {
      "inputs": [],
      "name": "renounceOwnership",
      "outputs": [],
      "stateMutability": "nonpayable",
      "type": "function"
    },
    {
      "inputs": [
        {
          "internalType": "address",
          "name": "admin",
          "type": "address"
        }
      ],
      "name": "revokeAdmin",
      "outputs": [],
      "stateMutability": "nonpayable",
      "type": "function"
    },
    {
      "inputs": [
        {
          "internalType": "bytes4",
          "name": "interfaceId",
          "type": "bytes4"
        }
      ],
      "name": "supportsInterface",
      "outputs": [
        {
          "internalType": "bool",
          "name": "",
          "type": "bool"
        }
      ],
      "stateMutability": "view",
      "type": "function"
    },
    {
      "inputs": [
        {
          "internalType": "address",
          "name": "newOwner",
          "type": "address"
        }
      ],
      "name": "transferOwnership",
      "outputs": [],
      "stateMutability": "nonpayable",
      "type": "function"
    },
    {
      "inputs": [
        {
          "internalType": "address",
          "name": "newDev",
          "type": "address"
        }
      ],
      "name": "updateDevWallet",
      "outputs": [],
      "stateMutability": "nonpayable",
      "type": "function"
    },
    {
      "inputs": [
        {
          "internalType": "address",
          "name": "contractAddress",
          "type": "address"
        },
        {
          "internalType": "uint256",
          "name": "tokenId",
          "type": "uint256"
        },
        {
          "internalType": "uint256",
          "name": "newPrice",
          "type": "uint256"
        }
      ],
      "name": "updateListing",
      "outputs": [],
      "stateMutability": "nonpayable",
      "type": "function"
    },
    {
      "inputs": [
        {
          "internalType": "address",
          "name": "to",
          "type": "address"
        }
      ],
      "name": "withdrawAll",
      "outputs": [],
      "stateMutability": "nonpayable",
      "type": "function"
    }
  ],
  "bytecode": "0x608060405234801561001057600080fd5b50611c9d806100206000396000f3fe6080604052600436106101145760003560e01c8063715018a6116100a0578063b2ddee0611610064578063b2ddee06146102f3578063c4d66de814610313578063f2fde38b14610333578063f772adf114610353578063fa09e6301461037357600080fd5b8063715018a61461025657806388700d1c1461026b57806389bfd38f146102985780638da5cb5b146102b85780639f37092a146102e057600080fd5b806324d7806c116100e757806324d7806c146101a75780632d345670146101c757806331ae450b146101e75780634f85310f146102095780636d73e6691461023657600080fd5b806301ffc9a71461011957806315a70d8d1461014e5780631816467f146101705780631fb0080e14610192575b600080fd5b34801561012557600080fd5b50610139610134366004611961565b610393565b60405190151581526020015b60405180910390f35b34801561015a57600080fd5b506101636103ca565b60405161014591906119d5565b34801561017c57600080fd5b5061019061018b366004611a38565b61052a565b005b34801561019e57600080fd5b50610163610554565b3480156101b357600080fd5b506101396101c2366004611a38565b6106a4565b3480156101d357600080fd5b506101906101e2366004611a38565b6106dd565b3480156101f357600080fd5b506101fc61073b565b6040516101459190611a55565b34801561021557600080fd5b50610229610224366004611a96565b6107e0565b6040516101459190611aaf565b34801561024257600080fd5b50610190610251366004611a38565b61085d565b34801561026257600080fd5b506101906108b5565b34801561027757600080fd5b5061028b610286366004611abd565b6108c9565b6040516101459190611ae9565b3480156102a457600080fd5b506101906102b3366004611b13565b610943565b3480156102c457600080fd5b506033546040516001600160a01b039091168152602001610145565b6101906102ee366004611abd565b610c99565b3480156102ff57600080fd5b5061019061030e366004611abd565b610f6a565b34801561031f57600080fd5b5061019061032e366004611a38565b61113e565b34801561033f57600080fd5b5061019061034e366004611a38565b611272565b34801561035f57600080fd5b5061019061036e366004611b13565b6112e8565b34801561037f57600080fd5b5061019061038e366004611a38565b6114bb565b60006001600160e01b03198216632a9f3abf60e11b14806103c457506301ffc9a760e01b6001600160e01b03198316145b92915050565b606060006103d7609d5490565b67ffffffffffffffff8111156103ef576103ef611b48565b60405190808252806020026020018201604052801561042857816020015b610415611905565b81526020019060019003908161040d5790505b5090506000805b609d54811015610522576000818152609c6020526040902060030154336001600160a01b039091160361051a576000818152609c602052604090206005015460ff16151560010361051a576000818152609c6020908152604091829020825160808101845281546001600160a01b0390811682526001830154828501528451606080820187526002850154825260038501549092169481019490945260048301548486015293810192909252600581015460ff16151592820192909252845185908590811061050057610500611b5e565b6020908102919091010152610516600184611b8a565b9250505b60010161042f565b509092915050565b6105326114d8565b606780546001600160a01b0319166001600160a01b0392909216919091179055565b60606000610561609e5490565b609d5461056e9190611b9d565b905060008167ffffffffffffffff81111561058b5761058b611b48565b6040519080825280602002602001820160405280156105c457816020015b6105b1611905565b8152602001906001900390816105a95790505b5090506000805b609d5481101561069b576000818152609c602052604090206005015460ff161515600103610693576000818152609c6020908152604091829020825160808101845281546001600160a01b0390811682526001830154828501528451606080820187526002850154825260038501549092169481019490945260048301548486015293810192909252600581015460ff16151592820192909252845185908590811061067957610679611b5e565b602090810291909101015261068f600184611b8a565b9250505b6001016105cb565b50909392505050565b6000816001600160a01b03166106c26033546001600160a01b031690565b6001600160a01b031614806103c457506103c4606583611532565b6106e56114d8565b6106f0606582611532565b156107385760405133906001600160a01b038316907f7c0c3c84c67c85fcac635147348bfe374c24a1a93d0366d1cfe9d8853cbf89d590600090a3610736606582611557565b505b50565b6060610747606561156c565b67ffffffffffffffff81111561075f5761075f611b48565b604051908082528060200260200182016040528015610788578160200160208202803683370190505b50905060005b610798606561156c565b8110156107dc576107aa606582611576565b8282815181106107bc576107bc611b5e565b6001600160a01b039092166020928302919091019091015260010161078e565b5090565b6107e8611905565b506000908152609c6020908152604091829020825160808101845281546001600160a01b03908116825260018301548285015284516060808201875260028501548252600385015490921694810194909452600483015484860152938101929092526005015460ff1615159181019190915290565b6108656114d8565b610870606582611532565b6107385760405133906001600160a01b038316907f7e1a1a08d52e4ba0e21554733d66165fd5151f99460116223d9e3a608eec5cb190600090a3610736606582611582565b6108bd6114d8565b6108c76000611597565b565b6108f660405180606001604052806000815260200160006001600160a01b03168152602001600081525090565b506001600160a01b039182166000908152609a6020908152604080832093835292815290829020825160608101845281548152600182015490941691840191909152600201549082015290565b6001600160a01b038084166000908152609a602090815260408083208684528252918290208251606081018452815480825260018301549095169281019290925260020154918101919091528491849190156109c957604051634a5568d560e01b81526001600160a01b0384166004820152602481018390526044015b60405180910390fd5b6040516331a9108f60e11b81526004810186905286908690339083906000906001600160a01b03831690636352211e90602401602060405180830381865afa158015610a19573d6000803e3d6000fd5b505050506040513d601f19601f82011682018060405250810190610a3d9190611bb0565b9050806001600160a01b0316836001600160a01b031614610a71576040516330cd747160e01b815260040160405180910390fd5b60008911610a925760405163e1abbfc560e01b815260040160405180910390fd5b60405163020604bf60e21b8152600481018b90528b908b90829030906001600160a01b0383169063081812fc90602401602060405180830381865afa158015610adf573d6000803e3d6000fd5b505050506040513d601f19601f82011682018060405250810190610b039190611bb0565b6001600160a01b031614610b2a57604051634be3a2c560e01b815260040160405180910390fd5b604080516060810182528d81523360208201526000918101610b4b609d5490565b90526001600160a01b038581166000818152609a6020908152604080832089845282528083208651815586830151600180830180549289166001600160a01b03199384161790558884015160029384015583516080810185529687528685018c81528785018a815260608901838152609d80548a52609c8952988790208a5181548716908d16178155925183850155905180519583019590955595840151600382018054909416991698909817909155910151600486015590516005909401805460ff19169415159490941790935580549092019091559091505050505050898b6001600160a01b0316336001600160a01b03167f424b3284a7958bb7965c27ca0b2a8b30ce2a56ba954533df15e6bded1b608ed76001610c6b609d5490565b610c759190611b9d565b60408051918252602082018f90520160405180910390a45050505050505050505050565b6001600160a01b038083166000908152609a602090815260408083208584528252918290208251606081018452815480825260018301549095169281019290925260020154918101919091528391839190610d1957604051631a0c522360e21b81526001600160a01b0384166004820152602481018390526044016109c0565b610d216115e9565b6001600160a01b038086166000908152609a6020908152604080832088845282529182902082516060810184528154808252600183015490951692810192909252600201549181019190915290341015610daa578051604051637c93456560e01b81526001600160a01b03881660048201526024810187905260448101919091526064016109c0565b60675481516001600160a01b03909116906108fc90610dcb90606490611bcd565b6040518115909202916000818181858888f19350505050158015610df3573d6000803e3d6000fd5b5080602001516001600160a01b03166108fc60648360000151610e169190611bcd565b610e21906061611bef565b6040518115909202916000818181858888f19350505050158015610e49573d6000803e3d6000fd5b506001600160a01b038681166000818152609a602090815260408083208a84528083528184206002810180548652609c8552838620600501805460ff191690558c865291845284815560010180546001600160a01b0319169055929092558401519051632142170760e11b81529216600483015233602483015260448201879052906342842e0e90606401600060405180830381600087803b158015610eee57600080fd5b505af1158015610f02573d6000803e3d6000fd5b50505050610f14609e80546001019055565b805160405190815285906001600160a01b0388169033907f263223b1dd81e51054a4e6f791d45a4a1ddb4aadcd93a2dfd892615c3fdac1879060200160405180910390a450610f636001606855565b5050505050565b6040516331a9108f60e11b81526004810182905282908290339083906000906001600160a01b03831690636352211e90602401602060405180830381865afa158015610fba573d6000803e3d6000fd5b505050506040513d601f19601f82011682018060405250810190610fde9190611bb0565b9050806001600160a01b0316836001600160a01b031614611012576040516330cd747160e01b815260040160405180910390fd5b6001600160a01b038088166000908152609a602090815260408083208a8452825291829020825160608101845281548082526001830154909516928101929092526002015491810191909152889188919061109257604051631a0c522360e21b81526001600160a01b0384166004820152602481018390526044016109c0565b6001600160a01b038a166000908152609a602090815260408083208c84528083528184206002810180548652609c8552928520600501805460ff191690558d85529252828255600190910180546001600160a01b0319169055556110fa609e80546001019055565b60405189906001600160a01b038c169033907f9ba1a3cb55ce8d63d072a886f94d2a744f50cddf82128e897d0661f5ec62315890600090a450505050505050505050565b600054610100900460ff161580801561115e5750600054600160ff909116105b806111785750303b158015611178575060005460ff166001145b6111db5760405162461bcd60e51b815260206004820152602e60248201527f496e697469616c697a61626c653a20636f6e747261637420697320616c72656160448201526d191e481a5b9a5d1a585b1a5e995960921b60648201526084016109c0565b6000805460ff1916600117905580156111fe576000805461ff0019166101001790555b611206611649565b61120e611678565b606780546001600160a01b0319166001600160a01b0384161790558015610736576000805461ff0019169055604051600181527f7f26b83ff96e1f2b6a682f133852f6798a09c465da95921460cefb38474024989060200160405180910390a15050565b61127a6114d8565b6001600160a01b0381166112df5760405162461bcd60e51b815260206004820152602660248201527f4f776e61626c653a206e6577206f776e657220697320746865207a65726f206160448201526564647265737360d01b60648201526084016109c0565b61073881611597565b6001600160a01b038084166000908152609a60209081526040808320868452825291829020825160608101845281548082526001830154909516928101929092526002015491810191909152849184919061136857604051631a0c522360e21b81526001600160a01b0384166004820152602481018390526044016109c0565b6113706115e9565b6040516331a9108f60e11b81526004810186905286908690339083906000906001600160a01b03831690636352211e90602401602060405180830381865afa1580156113c0573d6000803e3d6000fd5b505050506040513d601f19601f820116820180604052508101906113e49190611bb0565b9050806001600160a01b0316836001600160a01b031614611418576040516330cd747160e01b815260040160405180910390fd5b886000036114395760405163e1abbfc560e01b815260040160405180910390fd5b6001600160a01b038b166000818152609a602090815260408083208e84528252918290208c81556002015482519081529081018c90528d928d92839233917f424b3284a7958bb7965c27ca0b2a8b30ce2a56ba954533df15e6bded1b608ed7910160405180910390a4505050505050506114b36001606855565b505050505050565b6114c36114d8565b47806114ce57600080fd5b61073682476116a7565b6033546001600160a01b031633146108c75760405162461bcd60e51b815260206004820181905260248201527f4f776e61626c653a2063616c6c6572206973206e6f7420746865206f776e657260448201526064016109c0565b6001600160a01b038116600090815260018301602052604081205415155b9392505050565b6000611550836001600160a01b038416611742565b60006103c4825490565b60006115508383611835565b6000611550836001600160a01b03841661185f565b603380546001600160a01b038381166001600160a01b0319831681179093556040519116919082907f8be0079c531659141344cd1fd0a4f28419497f9722a3daafe3b4186f6b6457e090600090a35050565b60026068540361163b5760405162461bcd60e51b815260206004820152601f60248201527f5265656e7472616e637947756172643a207265656e7472616e742063616c6c0060448201526064016109c0565b6002606855565b6001606855565b600054610100900460ff166116705760405162461bcd60e51b81526004016109c090611c06565b6108c76118ae565b600054610100900460ff1661169f5760405162461bcd60e51b81526004016109c090611c06565b6108c76118de565b6000826001600160a01b03168260405160006040518083038185875af1925050503d80600081146116f4576040519150601f19603f3d011682016040523d82523d6000602084013e6116f9565b606091505b505090508061173d5760405162461bcd60e51b815260206004820152601060248201526f2a3930b739b332b9103330b4b632b21760811b60448201526064016109c0565b505050565b6000818152600183016020526040812054801561182b576000611766600183611b9d565b855490915060009061177a90600190611b9d565b90508181146117df57600086600001828154811061179a5761179a611b5e565b90600052602060002001549050808760000184815481106117bd576117bd611b5e565b6000918252602080832090910192909255918252600188019052604090208390555b85548690806117f0576117f0611c51565b6001900381819060005260206000200160009055905585600101600086815260200190815260200160002060009055600193505050506103c4565b60009150506103c4565b600082600001828154811061184c5761184c611b5e565b9060005260206000200154905092915050565b60008181526001830160205260408120546118a6575081546001818101845560008481526020808220909301849055845484825282860190935260409020919091556103c4565b5060006103c4565b600054610100900460ff166118d55760405162461bcd60e51b81526004016109c090611c06565b6108c733611597565b600054610100900460ff166116425760405162461bcd60e51b81526004016109c090611c06565b604051806080016040528060006001600160a01b031681526020016000815260200161195460405180606001604052806000815260200160006001600160a01b03168152602001600081525090565b8152600060209091015290565b60006020828403121561197357600080fd5b81356001600160e01b03198116811461155057600080fd5b80516001600160a01b039081168352602080830151818501526040808401518051828701529182015190921660608501529081015160808401525060600151151560a09190910152565b6020808252825182820181905260009190848201906040850190845b81811015611a1757611a0483855161198b565b9284019260c092909201916001016119f1565b50909695505050505050565b6001600160a01b038116811461073857600080fd5b600060208284031215611a4a57600080fd5b813561155081611a23565b6020808252825182820181905260009190848201906040850190845b81811015611a175783516001600160a01b031683529284019291840191600101611a71565b600060208284031215611aa857600080fd5b5035919050565b60c081016103c4828461198b565b60008060408385031215611ad057600080fd5b8235611adb81611a23565b946020939093013593505050565b815181526020808301516001600160a01b03169082015260408083015190820152606081016103c4565b600080600060608486031215611b2857600080fd5b8335611b3381611a23565b95602085013595506040909401359392505050565b634e487b7160e01b600052604160045260246000fd5b634e487b7160e01b600052603260045260246000fd5b634e487b7160e01b600052601160045260246000fd5b808201808211156103c4576103c4611b74565b818103818111156103c4576103c4611b74565b600060208284031215611bc257600080fd5b815161155081611a23565b600082611bea57634e487b7160e01b600052601260045260246000fd5b500490565b80820281158282048414176103c4576103c4611b74565b6020808252602b908201527f496e697469616c697a61626c653a20636f6e7472616374206973206e6f74206960408201526a6e697469616c697a696e6760a81b606082015260800190565b634e487b7160e01b600052603160045260246000fdfea2646970667358221220652a33ec008d98c886066c7a45c820822ad1114907de9d74770a99222295c7a564736f6c63430008160033",
  "linkReferences": {},
  "deployedLinkReferences": {}
}