{"contracts/ff-mp/MP.sol":{"FlowFrenzMarketplace":{"abi":[{"inputs":[],"stateMutability":"nonpayable","type":"constructor"},{"inputs":[{"internalType":"address","name":"contractAddress","type":"address"},{"internalType":"uint256","name":"tokenId","type":"uint256"}],"name":"AlreadyListed","type":"error"},{"inputs":[],"name":"NotApprovedForMarketplace","type":"error"},{"inputs":[{"internalType":"address","name":"contractAddress","type":"address"},{"internalType":"uint256","name":"tokenId","type":"uint256"}],"name":"NotListed","type":"error"},{"inputs":[],"name":"NotOwner","type":"error"},{"inputs":[],"name":"PriceMustBeAboveZero","type":"error"},{"inputs":[{"internalType":"address","name":"contractAddress","type":"address"},{"internalType":"uint256","name":"tokenId","type":"uint256"},{"internalType":"uint256","name":"price","type":"uint256"}],"name":"PriceNotMet","type":"error"},{"anonymous":false,"inputs":[{"indexed":true,"internalType":"address","name":"account","type":"address"},{"indexed":true,"internalType":"address","name":"sender","type":"address"}],"name":"AdminApproved","type":"event"},{"anonymous":false,"inputs":[{"indexed":true,"internalType":"address","name":"account","type":"address"},{"indexed":true,"internalType":"address","name":"sender","type":"address"}],"name":"AdminRevoked","type":"event"},{"anonymous":false,"inputs":[{"indexed":false,"internalType":"uint8","name":"version","type":"uint8"}],"name":"Initialized","type":"event"},{"anonymous":false,"inputs":[{"indexed":true,"internalType":"address","name":"buyer","type":"address"},{"indexed":true,"internalType":"address","name":"contractAddress","type":"address"},{"indexed":true,"internalType":"uint256","name":"tokenId","type":"uint256"},{"indexed":false,"internalType":"uint256","name":"price","type":"uint256"}],"name":"ItemBought","type":"event"},{"anonymous":false,"inputs":[{"indexed":true,"internalType":"address","name":"seller","type":"address"},{"indexed":true,"internalType":"address","name":"contractAddress","type":"address"},{"indexed":true,"internalType":"uint256","name":"tokenId","type":"uint256"}],"name":"ItemCanceled","type":"event"},{"anonymous":false,"inputs":[{"indexed":false,"internalType":"uint256","name":"listingId","type":"uint256"},{"indexed":true,"internalType":"address","name":"seller","type":"address"},{"indexed":true,"internalType":"address","name":"contractAddress","type":"address"},{"indexed":true,"internalType":"uint256","name":"tokenId","type":"uint256"},{"indexed":false,"internalType":"uint256","name":"price","type":"uint256"}],"name":"ItemListed","type":"event"},{"anonymous":false,"inputs":[{"indexed":true,"internalType":"address","name":"previousOwner","type":"address"},{"indexed":true,"internalType":"address","name":"newOwner","type":"address"}],"name":"OwnershipTransferred","type":"event"},{"inputs":[{"internalType":"address","name":"admin","type":"address"}],"name":"approveAdmin","outputs":[],"stateMutability":"nonpayable","type":"function"},{"inputs":[{"internalType":"address","name":"contractAddress","type":"address"},{"internalType":"uint256","name":"tokenId","type":"uint256"}],"name":"buyItem","outputs":[],"stateMutability":"payable","type":"function"},{"inputs":[{"internalType":"address","name":"contractAddress","type":"address"},{"internalType":"uint256","name":"tokenId","type":"uint256"}],"name":"cancelListing","outputs":[],"stateMutability":"nonpayable","type":"function"},{"inputs":[],"name":"fetchListedMarketItems","outputs":[{"components":[{"internalType":"address","name":"contractAddress","type":"address"},{"internalType":"uint256","name":"tokenId","type":"uint256"},{"components":[{"internalType":"uint256","name":"price","type":"uint256"},{"internalType":"address","name":"seller","type":"address"},{"internalType":"uint256","name":"listingId","type":"uint256"}],"internalType":"struct FlowFrenzTransactionMgr.Listing","name":"listing","type":"tuple"},{"internalType":"bool","name":"active","type":"bool"}],"internalType":"struct FlowFrenzTransactionMgr.ListedItem[]","name":"","type":"tuple[]"}],"stateMutability":"view","type":"function"},{"inputs":[],"name":"fetchMyListings","outputs":[{"components":[{"internalType":"address","name":"contractAddress","type":"address"},{"internalType":"uint256","name":"tokenId","type":"uint256"},{"components":[{"internalType":"uint256","name":"price","type":"uint256"},{"internalType":"address","name":"seller","type":"address"},{"internalType":"uint256","name":"listingId","type":"uint256"}],"internalType":"struct FlowFrenzTransactionMgr.Listing","name":"listing","type":"tuple"},{"internalType":"bool","name":"active","type":"bool"}],"internalType":"struct FlowFrenzTransactionMgr.ListedItem[]","name":"","type":"tuple[]"}],"stateMutability":"view","type":"function"},{"inputs":[],"name":"getAdmins","outputs":[{"internalType":"address[]","name":"admins","type":"address[]"}],"stateMutability":"view","type":"function"},{"inputs":[{"internalType":"address","name":"contractAddress","type":"address"},{"internalType":"uint256","name":"tokenId","type":"uint256"}],"name":"getListing","outputs":[{"components":[{"internalType":"uint256","name":"price","type":"uint256"},{"internalType":"address","name":"seller","type":"address"},{"internalType":"uint256","name":"listingId","type":"uint256"}],"internalType":"struct FlowFrenzTransactionMgr.Listing","name":"","type":"tuple"}],"stateMutability":"view","type":"function"},{"inputs":[{"internalType":"uint256","name":"listingId","type":"uint256"}],"name":"getListingById","outputs":[{"components":[{"internalType":"address","name":"contractAddress","type":"address"},{"internalType":"uint256","name":"tokenId","type":"uint256"},{"components":[{"internalType":"uint256","name":"price","type":"uint256"},{"internalType":"address","name":"seller","type":"address"},{"internalType":"uint256","name":"listingId","type":"uint256"}],"internalType":"struct FlowFrenzTransactionMgr.Listing","name":"listing","type":"tuple"},{"internalType":"bool","name":"active","type":"bool"}],"internalType":"struct FlowFrenzTransactionMgr.ListedItem","name":"","type":"tuple"}],"stateMutability":"view","type":"function"},{"inputs":[],"name":"initialize","outputs":[],"stateMutability":"nonpayable","type":"function"},{"inputs":[{"internalType":"address","name":"admin","type":"address"}],"name":"isAdmin","outputs":[{"internalType":"bool","name":"","type":"bool"}],"stateMutability":"view","type":"function"},{"inputs":[{"internalType":"address","name":"contractAddress","type":"address"},{"internalType":"uint256","name":"tokenId","type":"uint256"},{"internalType":"uint256","name":"price","type":"uint256"}],"name":"listItem","outputs":[],"stateMutability":"nonpayable","type":"function"},{"inputs":[],"name":"owner","outputs":[{"internalType":"address","name":"","type":"address"}],"stateMutability":"view","type":"function"},{"inputs":[],"name":"renounceOwnership","outputs":[],"stateMutability":"nonpayable","type":"function"},{"inputs":[{"internalType":"address","name":"admin","type":"address"}],"name":"revokeAdmin","outputs":[],"stateMutability":"nonpayable","type":"function"},{"inputs":[{"internalType":"bytes4","name":"interfaceId","type":"bytes4"}],"name":"supportsInterface","outputs":[{"internalType":"bool","name":"","type":"bool"}],"stateMutability":"view","type":"function"},{"inputs":[{"internalType":"address","name":"newOwner","type":"address"}],"name":"transferOwnership","outputs":[],"stateMutability":"nonpayable","type":"function"},{"inputs":[{"internalType":"address","name":"newDev","type":"address"}],"name":"updateDevWallet","outputs":[],"stateMutability":"nonpayable","type":"function"},{"inputs":[{"internalType":"address","name":"contractAddress","type":"address"},{"internalType":"uint256","name":"tokenId","type":"uint256"},{"internalType":"uint256","name":"newPrice","type":"uint256"}],"name":"updateListing","outputs":[],"stateMutability":"nonpayable","type":"function"},{"inputs":[{"internalType":"address","name":"to","type":"address"}],"name":"withdrawAll","outputs":[],"stateMutability":"nonpayable","type":"function"}],"evm":{"bytecode":{"linkReferences":{},"object":"6080604052606880546001600160a01b03191673d99ce3201d3caa7ed099d01947312dfe86daaa2317905534801561003657600080fd5b506001606555610044610049565b610108565b600054610100900460ff16156100b55760405162461bcd60e51b815260206004820152602760248201527f496e697469616c697a61626c653a20636f6e747261637420697320696e697469604482015266616c697a696e6760c81b606482015260840160405180910390fd5b60005460ff90811614610106576000805460ff191660ff9081179091556040519081527f7f26b83ff96e1f2b6a682f133852f6798a09c465da95921460cefb38474024989060200160405180910390a15b565b611c53806101176000396000f3fe6080604052600436106101145760003560e01c8063715018a6116100a05780639f37092a116100645780639f37092a146102f5578063b2ddee0614610308578063f2fde38b14610328578063f772adf114610348578063fa09e6301461036857600080fd5b8063715018a6146102565780638129fc1c1461026b57806388700d1c1461028057806389bfd38f146102ad5780638da5cb5b146102cd57600080fd5b806324d7806c116100e757806324d7806c146101a75780632d345670146101c757806331ae450b146101e75780634f85310f146102095780636d73e6691461023657600080fd5b806301ffc9a71461011957806315a70d8d1461014e5780631816467f146101705780631fb0080e14610192575b600080fd5b34801561012557600080fd5b506101396101343660046118fe565b610388565b60405190151581526020015b60405180910390f35b34801561015a57600080fd5b506101636103bf565b6040516101459190611972565b34801561017c57600080fd5b5061019061018b3660046119d5565b610529565b005b34801561019e57600080fd5b50610163610553565b3480156101b357600080fd5b506101396101c23660046119d5565b6106ad565b3480156101d357600080fd5b506101906101e23660046119d5565b6106e6565b3480156101f357600080fd5b506101fc610744565b60405161014591906119f2565b34801561021557600080fd5b50610229610224366004611a33565b6107f3565b6040516101459190611a4c565b34801561024257600080fd5b506101906102513660046119d5565b610870565b34801561026257600080fd5b506101906108c8565b34801561027757600080fd5b506101906108dc565b34801561028c57600080fd5b506102a061029b366004611a5a565b6109f1565b6040516101459190611a86565b3480156102b957600080fd5b506101906102c8366004611ab0565b610a6b565b3480156102d957600080fd5b506033546040516001600160a01b039091168152602001610145565b610190610303366004611a5a565b610dc7565b34801561031457600080fd5b50610190610323366004611a5a565b611098565b34801561033457600080fd5b506101906103433660046119d5565b61126c565b34801561035457600080fd5b50610190610363366004611ab0565b6112e2565b34801561037457600080fd5b506101906103833660046119d5565b6114b5565b60006001600160e01b03198216632a9f3abf60e11b14806103b957506301ffc9a760e01b6001600160e01b03198316145b92915050565b606060006103cc606c5490565b67ffffffffffffffff8111156103e4576103e4611ae5565b60405190808252806020026020018201604052801561041d57816020015b61040a6118a2565b8152602001906001900390816104025790505b5090506000805b606c54811015610521576000818152606b6020526040902060030154336001600160a01b039091160361050f576000818152606b602052604090206005015460ff16151560010361050f576000818152606b6020908152604091829020825160808101845281546001600160a01b0390811682526001830154828501528451606080820187526002850154825260038501549092169481019490945260048301548486015293810192909252600581015460ff1615159282019290925284518590859081106104f5576104f5611afb565b602090810291909101015261050b600184611b27565b9250505b8061051981611b3a565b915050610424565b509092915050565b6105316114d2565b606880546001600160a01b0319166001600160a01b0392909216919091179055565b60606000610560606d5490565b606c5461056d9190611b53565b905060008167ffffffffffffffff81111561058a5761058a611ae5565b6040519080825280602002602001820160405280156105c357816020015b6105b06118a2565b8152602001906001900390816105a85790505b5090506000805b606c548110156106a4576000818152606b602052604090206005015460ff161515600103610692576000818152606b6020908152604091829020825160808101845281546001600160a01b0390811682526001830154828501528451606080820187526002850154825260038501549092169481019490945260048301548486015293810192909252600581015460ff16151592820192909252845185908590811061067857610678611afb565b602090810291909101015261068e600184611b27565b9250505b8061069c81611b3a565b9150506105ca565b50909392505050565b6000816001600160a01b03166106cb6033546001600160a01b031690565b6001600160a01b031614806103b957506103b960668361152c565b6106ee6114d2565b6106f960668261152c565b156107415760405133906001600160a01b038316907f7c0c3c84c67c85fcac635147348bfe374c24a1a93d0366d1cfe9d8853cbf89d590600090a361073f606682611551565b505b50565b60606107506066611566565b67ffffffffffffffff81111561076857610768611ae5565b604051908082528060200260200182016040528015610791578160200160208202803683370190505b50905060005b6107a16066611566565b8110156107ef576107b3606682611570565b8282815181106107c5576107c5611afb565b6001600160a01b0390921660209283029190910190910152806107e781611b3a565b915050610797565b5090565b6107fb6118a2565b506000908152606b6020908152604091829020825160808101845281546001600160a01b03908116825260018301548285015284516060808201875260028501548252600385015490921694810194909452600483015484860152938101929092526005015460ff1615159181019190915290565b6108786114d2565b61088360668261152c565b6107415760405133906001600160a01b038316907f7e1a1a08d52e4ba0e21554733d66165fd5151f99460116223d9e3a608eec5cb190600090a361073f60668261157c565b6108d06114d2565b6108da6000611591565b565b600054610100900460ff16158080156108fc5750600054600160ff909116105b806109165750303b158015610916575060005460ff166001145b61097e5760405162461bcd60e51b815260206004820152602e60248201527f496e697469616c697a61626c653a20636f6e747261637420697320616c72656160448201526d191e481a5b9a5d1a585b1a5e995960921b60648201526084015b60405180910390fd5b6000805460ff1916600117905580156109a1576000805461ff0019166101001790555b6109a96115e3565b8015610741576000805461ff0019169055604051600181527f7f26b83ff96e1f2b6a682f133852f6798a09c465da95921460cefb38474024989060200160405180910390a150565b610a1e60405180606001604052806000815260200160006001600160a01b03168152602001600081525090565b506001600160a01b03918216600090815260696020908152604080832093835292815290829020825160608101845281548152600182015490941691840191909152600201549082015290565b6001600160a01b03808416600090815260696020908152604080832086845282529182902082516060810184528154808252600183015490951692810192909252600201549181019190915284918491339115610aed57604051634a5568d560e01b81526001600160a01b038516600482015260248101849052604401610975565b6040516331a9108f60e11b81526004810187905287908790339083906000906001600160a01b03831690636352211e90602401602060405180830381865afa158015610b3d573d6000803e3d6000fd5b505050506040513d601f19601f82011682018060405250810190610b619190611b66565b9050806001600160a01b0316836001600160a01b031614610b95576040516330cd747160e01b815260040160405180910390fd5b60008a11610bb65760405163e1abbfc560e01b815260040160405180910390fd5b60405163020604bf60e21b8152600481018c90528c908c90829030906001600160a01b0383169063081812fc90602401602060405180830381865afa158015610c03573d6000803e3d6000fd5b505050506040513d601f19601f82011682018060405250810190610c279190611b66565b6001600160a01b031614610c4e57604051634be3a2c560e01b815260040160405180910390fd5b604080516060810182528e81523360208201526000918101610c6f606c5490565b90526001600160a01b03858116600081815260696020908152604080832089845282528083208651815586830151600180830180549289166001600160a01b03199384161790558884015160029384015583516080810185529687528685018c81528785018a815260608901838152606c80548a52606b8952988790208a5181548716908d16178155925183850155905180519583019590955595840151600382018054909416991698909817909155910151600486015590516005909401805460ff191694151594909417909355805490920190915590915050505050508a8c6001600160a01b0316336001600160a01b03167f424b3284a7958bb7965c27ca0b2a8b30ce2a56ba954533df15e6bded1b608ed76001610d8f606c5490565b610d999190611b53565b8e604051610db1929190918252602082015260400190565b60405180910390a4505050505050505050505050565b6001600160a01b0380831660009081526069602090815260408083208584528252918290208251606081018452815480825260018301549095169281019290925260020154918101919091528391839190610e4757604051631a0c522360e21b81526001600160a01b038416600482015260248101839052604401610975565b610e4f611612565b6001600160a01b03808616600090815260696020908152604080832088845282529182902082516060810184528154808252600183015490951692810192909252600201549181019190915290341015610ed8578051604051637c93456560e01b81526001600160a01b0388166004820152602481018790526044810191909152606401610975565b60685481516001600160a01b03909116906108fc90610ef990606490611b83565b6040518115909202916000818181858888f19350505050158015610f21573d6000803e3d6000fd5b5080602001516001600160a01b03166108fc60648360000151610f449190611b83565b610f4f906061611ba5565b6040518115909202916000818181858888f19350505050158015610f77573d6000803e3d6000fd5b506001600160a01b0386811660008181526069602090815260408083208a84528083528184206002810180548652606b8552838620600501805460ff191690558c865291845284815560010180546001600160a01b0319169055929092558401519051632142170760e11b81529216600483015233602483015260448201879052906342842e0e90606401600060405180830381600087803b15801561101c57600080fd5b505af1158015611030573d6000803e3d6000fd5b50505050611042606d80546001019055565b805160405190815285906001600160a01b0388169033907f263223b1dd81e51054a4e6f791d45a4a1ddb4aadcd93a2dfd892615c3fdac1879060200160405180910390a4506110916001606555565b5050505050565b6040516331a9108f60e11b81526004810182905282908290339083906000906001600160a01b03831690636352211e90602401602060405180830381865afa1580156110e8573d6000803e3d6000fd5b505050506040513d601f19601f8201168201806040525081019061110c9190611b66565b9050806001600160a01b0316836001600160a01b031614611140576040516330cd747160e01b815260040160405180910390fd5b6001600160a01b0380881660009081526069602090815260408083208a845282529182902082516060810184528154808252600183015490951692810192909252600201549181019190915288918891906111c057604051631a0c522360e21b81526001600160a01b038416600482015260248101839052604401610975565b6001600160a01b038a1660009081526069602090815260408083208c84528083528184206002810180548652606b8552928520600501805460ff191690558d85529252828255600190910180546001600160a01b031916905555611228606d80546001019055565b60405189906001600160a01b038c169033907f9ba1a3cb55ce8d63d072a886f94d2a744f50cddf82128e897d0661f5ec62315890600090a450505050505050505050565b6112746114d2565b6001600160a01b0381166112d95760405162461bcd60e51b815260206004820152602660248201527f4f776e61626c653a206e6577206f776e657220697320746865207a65726f206160448201526564647265737360d01b6064820152608401610975565b61074181611591565b6001600160a01b038084166000908152606960209081526040808320868452825291829020825160608101845281548082526001830154909516928101929092526002015491810191909152849184919061136257604051631a0c522360e21b81526001600160a01b038416600482015260248101839052604401610975565b61136a611612565b6040516331a9108f60e11b81526004810186905286908690339083906000906001600160a01b03831690636352211e90602401602060405180830381865afa1580156113ba573d6000803e3d6000fd5b505050506040513d601f19601f820116820180604052508101906113de9190611b66565b9050806001600160a01b0316836001600160a01b031614611412576040516330cd747160e01b815260040160405180910390fd5b886000036114335760405163e1abbfc560e01b815260040160405180910390fd5b6001600160a01b038b1660008181526069602090815260408083208e84528252918290208c81556002015482519081529081018c90528d928d92839233917f424b3284a7958bb7965c27ca0b2a8b30ce2a56ba954533df15e6bded1b608ed7910160405180910390a4505050505050506114ad6001606555565b505050505050565b6114bd6114d2565b47806114c857600080fd5b61073f824761166b565b6033546001600160a01b031633146108da5760405162461bcd60e51b815260206004820181905260248201527f4f776e61626c653a2063616c6c6572206973206e6f7420746865206f776e65726044820152606401610975565b6001600160a01b038116600090815260018301602052604081205415155b9392505050565b600061154a836001600160a01b038416611706565b60006103b9825490565b600061154a83836117f9565b600061154a836001600160a01b038416611823565b603380546001600160a01b038381166001600160a01b0319831681179093556040519116919082907f8be0079c531659141344cd1fd0a4f28419497f9722a3daafe3b4186f6b6457e090600090a35050565b600054610100900460ff1661160a5760405162461bcd60e51b815260040161097590611bbc565b6108da611872565b6002606554036116645760405162461bcd60e51b815260206004820152601f60248201527f5265656e7472616e637947756172643a207265656e7472616e742063616c6c006044820152606401610975565b6002606555565b6000826001600160a01b03168260405160006040518083038185875af1925050503d80600081146116b8576040519150601f19603f3d011682016040523d82523d6000602084013e6116bd565b606091505b50509050806117015760405162461bcd60e51b815260206004820152601060248201526f2a3930b739b332b9103330b4b632b21760811b6044820152606401610975565b505050565b600081815260018301602052604081205480156117ef57600061172a600183611b53565b855490915060009061173e90600190611b53565b90508181146117a357600086600001828154811061175e5761175e611afb565b906000526020600020015490508087600001848154811061178157611781611afb565b6000918252602080832090910192909255918252600188019052604090208390555b85548690806117b4576117b4611c07565b6001900381819060005260206000200160009055905585600101600086815260200190815260200160002060009055600193505050506103b9565b60009150506103b9565b600082600001828154811061181057611810611afb565b9060005260206000200154905092915050565b600081815260018301602052604081205461186a575081546001818101845560008481526020808220909301849055845484825282860190935260409020919091556103b9565b5060006103b9565b600054610100900460ff166118995760405162461bcd60e51b815260040161097590611bbc565b6108da33611591565b604051806080016040528060006001600160a01b03168152602001600081526020016118f160405180606001604052806000815260200160006001600160a01b03168152602001600081525090565b8152600060209091015290565b60006020828403121561191057600080fd5b81356001600160e01b03198116811461154a57600080fd5b80516001600160a01b039081168352602080830151818501526040808401518051828701529182015190921660608501529081015160808401525060600151151560a09190910152565b6020808252825182820181905260009190848201906040850190845b818110156119b4576119a1838551611928565b9284019260c0929092019160010161198e565b50909695505050505050565b6001600160a01b038116811461074157600080fd5b6000602082840312156119e757600080fd5b813561154a816119c0565b6020808252825182820181905260009190848201906040850190845b818110156119b45783516001600160a01b031683529284019291840191600101611a0e565b600060208284031215611a4557600080fd5b5035919050565b60c081016103b98284611928565b60008060408385031215611a6d57600080fd5b8235611a78816119c0565b946020939093013593505050565b815181526020808301516001600160a01b03169082015260408083015190820152606081016103b9565b600080600060608486031215611ac557600080fd5b8335611ad0816119c0565b95602085013595506040909401359392505050565b634e487b7160e01b600052604160045260246000fd5b634e487b7160e01b600052603260045260246000fd5b634e487b7160e01b600052601160045260246000fd5b808201808211156103b9576103b9611b11565b600060018201611b4c57611b4c611b11565b5060010190565b818103818111156103b9576103b9611b11565b600060208284031215611b7857600080fd5b815161154a816119c0565b600082611ba057634e487b7160e01b600052601260045260246000fd5b500490565b80820281158282048414176103b9576103b9611b11565b6020808252602b908201527f496e697469616c697a61626c653a20636f6e7472616374206973206e6f74206960408201526a6e697469616c697a696e6760a81b606082015260800190565b634e487b7160e01b600052603160045260246000fdfea2646970667358221220edb0a335244dba04780772524c1b9d77a95423f0848c5970286534104e536c9964736f6c63430008110033","opcodes":"PUSH1 0x80 PUSH1 0x40 MSTORE PUSH1 0x68 DUP1 SLOAD PUSH1 0x1 PUSH1 0x1 PUSH1 0xA0 SHL SUB NOT AND PUSH20 0xD99CE3201D3CAA7ED099D01947312DFE86DAAA23 OR SWAP1 SSTORE CALLVALUE DUP1 ISZERO PUSH2 0x36 JUMPI PUSH1 0x0 DUP1 REVERT JUMPDEST POP PUSH1 0x1 PUSH1 0x65 SSTORE PUSH2 0x44 PUSH2 0x49 JUMP JUMPDEST PUSH2 0x108 JUMP JUMPDEST PUSH1 0x0 SLOAD PUSH2 0x100 SWAP1 DIV PUSH1 0xFF AND ISZERO PUSH2 0xB5 JUMPI PUSH1 0x40 MLOAD PUSH3 0x461BCD PUSH1 0xE5 SHL DUP2 MSTORE PUSH1 0x20 PUSH1 0x4 DUP3 ADD MSTORE PUSH1 0x27 PUSH1 0x24 DUP3 ADD MSTORE PUSH32 0x496E697469616C697A61626C653A20636F6E747261637420697320696E697469 PUSH1 0x44 DUP3 ADD MSTORE PUSH7 0x616C697A696E67 PUSH1 0xC8 SHL PUSH1 0x64 DUP3 ADD MSTORE PUSH1 0x84 ADD PUSH1 0x40 MLOAD DUP1 SWAP2 SUB SWAP1 REVERT JUMPDEST PUSH1 0x0 SLOAD PUSH1 0xFF SWAP1 DUP2 AND EQ PUSH2 0x106 JUMPI PUSH1 0x0 DUP1 SLOAD PUSH1 0xFF NOT AND PUSH1 0xFF SWAP1 DUP2 OR SWAP1 SWAP2 SSTORE PUSH1 0x40 MLOAD SWAP1 DUP2 MSTORE PUSH32 0x7F26B83FF96E1F2B6A682F133852F6798A09C465DA95921460CEFB3847402498 SWAP1 PUSH1 0x20 ADD PUSH1 0x40 MLOAD DUP1 SWAP2 SUB SWAP1 LOG1 JUMPDEST JUMP JUMPDEST PUSH2 0x1C53 DUP1 PUSH2 0x117 PUSH1 0x0 CODECOPY PUSH1 0x0 RETURN INVALID PUSH1 0x80 PUSH1 0x40 MSTORE PUSH1 0x4 CALLDATASIZE LT PUSH2 0x114 JUMPI PUSH1 0x0 CALLDATALOAD PUSH1 0xE0 SHR DUP1 PUSH4 0x715018A6 GT PUSH2 0xA0 JUMPI DUP1 PUSH4 0x9F37092A GT PUSH2 0x64 JUMPI DUP1 PUSH4 0x9F37092A EQ PUSH2 0x2F5 JUMPI DUP1 PUSH4 0xB2DDEE06 EQ PUSH2 0x308 JUMPI DUP1 PUSH4 0xF2FDE38B EQ PUSH2 0x328 JUMPI DUP1 PUSH4 0xF772ADF1 EQ PUSH2 0x348 JUMPI DUP1 PUSH4 0xFA09E630 EQ PUSH2 0x368 JUMPI PUSH1 0x0 DUP1 REVERT JUMPDEST DUP1 PUSH4 0x715018A6 EQ PUSH2 0x256 JUMPI DUP1 PUSH4 0x8129FC1C EQ PUSH2 0x26B JUMPI DUP1 PUSH4 0x88700D1C EQ PUSH2 0x280 JUMPI DUP1 PUSH4 0x89BFD38F EQ PUSH2 0x2AD JUMPI DUP1 PUSH4 0x8DA5CB5B EQ PUSH2 0x2CD JUMPI PUSH1 0x0 DUP1 REVERT JUMPDEST DUP1 PUSH4 0x24D7806C GT PUSH2 0xE7 JUMPI DUP1 PUSH4 0x24D7806C EQ PUSH2 0x1A7 JUMPI DUP1 PUSH4 0x2D345670 EQ PUSH2 0x1C7 JUMPI DUP1 PUSH4 0x31AE450B EQ PUSH2 0x1E7 JUMPI DUP1 PUSH4 0x4F85310F EQ PUSH2 0x209 JUMPI DUP1 PUSH4 0x6D73E669 EQ PUSH2 0x236 JUMPI PUSH1 0x0 DUP1 REVERT JUMPDEST DUP1 PUSH4 0x1FFC9A7 EQ PUSH2 0x119 JUMPI DUP1 PUSH4 0x15A70D8D EQ PUSH2 0x14E JUMPI DUP1 PUSH4 0x1816467F EQ PUSH2 0x170 JUMPI DUP1 PUSH4 0x1FB0080E EQ PUSH2 0x192 JUMPI JUMPDEST PUSH1 0x0 DUP1 REVERT JUMPDEST CALLVALUE DUP1 ISZERO PUSH2 0x125 JUMPI PUSH1 0x0 DUP1 REVERT JUMPDEST POP PUSH2 0x139 PUSH2 0x134 CALLDATASIZE PUSH1 0x4 PUSH2 0x18FE JUMP JUMPDEST PUSH2 0x388 JUMP JUMPDEST PUSH1 0x40 MLOAD SWAP1 ISZERO ISZERO DUP2 MSTORE PUSH1 0x20 ADD JUMPDEST PUSH1 0x40 MLOAD DUP1 SWAP2 SUB SWAP1 RETURN JUMPDEST CALLVALUE DUP1 ISZERO PUSH2 0x15A JUMPI PUSH1 0x0 DUP1 REVERT JUMPDEST POP PUSH2 0x163 PUSH2 0x3BF JUMP JUMPDEST PUSH1 0x40 MLOAD PUSH2 0x145 SWAP2 SWAP1 PUSH2 0x1972 JUMP JUMPDEST CALLVALUE DUP1 ISZERO PUSH2 0x17C JUMPI PUSH1 0x0 DUP1 REVERT JUMPDEST POP PUSH2 0x190 PUSH2 0x18B CALLDATASIZE PUSH1 0x4 PUSH2 0x19D5 JUMP JUMPDEST PUSH2 0x529 JUMP JUMPDEST STOP JUMPDEST CALLVALUE DUP1 ISZERO PUSH2 0x19E JUMPI PUSH1 0x0 DUP1 REVERT JUMPDEST POP PUSH2 0x163 PUSH2 0x553 JUMP JUMPDEST CALLVALUE DUP1 ISZERO PUSH2 0x1B3 JUMPI PUSH1 0x0 DUP1 REVERT JUMPDEST POP PUSH2 0x139 PUSH2 0x1C2 CALLDATASIZE PUSH1 0x4 PUSH2 0x19D5 JUMP JUMPDEST PUSH2 0x6AD JUMP JUMPDEST CALLVALUE DUP1 ISZERO PUSH2 0x1D3 JUMPI PUSH1 0x0 DUP1 REVERT JUMPDEST POP PUSH2 0x190 PUSH2 0x1E2 CALLDATASIZE PUSH1 0x4 PUSH2 0x19D5 JUMP JUMPDEST PUSH2 0x6E6 JUMP JUMPDEST CALLVALUE DUP1 ISZERO PUSH2 0x1F3 JUMPI PUSH1 0x0 DUP1 REVERT JUMPDEST POP PUSH2 0x1FC PUSH2 0x744 JUMP JUMPDEST PUSH1 0x40 MLOAD PUSH2 0x145 SWAP2 SWAP1 PUSH2 0x19F2 JUMP JUMPDEST CALLVALUE DUP1 ISZERO PUSH2 0x215 JUMPI PUSH1 0x0 DUP1 REVERT JUMPDEST POP PUSH2 0x229 PUSH2 0x224 CALLDATASIZE PUSH1 0x4 PUSH2 0x1A33 JUMP JUMPDEST PUSH2 0x7F3 JUMP JUMPDEST PUSH1 0x40 MLOAD PUSH2 0x145 SWAP2 SWAP1 PUSH2 0x1A4C JUMP JUMPDEST CALLVALUE DUP1 ISZERO PUSH2 0x242 JUMPI PUSH1 0x0 DUP1 REVERT JUMPDEST POP PUSH2 0x190 PUSH2 0x251 CALLDATASIZE PUSH1 0x4 PUSH2 0x19D5 JUMP JUMPDEST PUSH2 0x870 JUMP JUMPDEST CALLVALUE DUP1 ISZERO PUSH2 0x262 JUMPI PUSH1 0x0 DUP1 REVERT JUMPDEST POP PUSH2 0x190 PUSH2 0x8C8 JUMP JUMPDEST CALLVALUE DUP1 ISZERO PUSH2 0x277 JUMPI PUSH1 0x0 DUP1 REVERT JUMPDEST POP PUSH2 0x190 PUSH2 0x8DC JUMP JUMPDEST CALLVALUE DUP1 ISZERO PUSH2 0x28C JUMPI PUSH1 0x0 DUP1 REVERT JUMPDEST POP PUSH2 0x2A0 PUSH2 0x29B CALLDATASIZE PUSH1 0x4 PUSH2 0x1A5A JUMP JUMPDEST PUSH2 0x9F1 JUMP JUMPDEST PUSH1 0x40 MLOAD PUSH2 0x145 SWAP2 SWAP1 PUSH2 0x1A86 JUMP JUMPDEST CALLVALUE DUP1 ISZERO PUSH2 0x2B9 JUMPI PUSH1 0x0 DUP1 REVERT JUMPDEST POP PUSH2 0x190 PUSH2 0x2C8 CALLDATASIZE PUSH1 0x4 PUSH2 0x1AB0 JUMP JUMPDEST PUSH2 0xA6B JUMP JUMPDEST CALLVALUE DUP1 ISZERO PUSH2 0x2D9 JUMPI PUSH1 0x0 DUP1 REVERT JUMPDEST POP PUSH1 0x33 SLOAD PUSH1 0x40 MLOAD PUSH1 0x1 PUSH1 0x1 PUSH1 0xA0 SHL SUB SWAP1 SWAP2 AND DUP2 MSTORE PUSH1 0x20 ADD PUSH2 0x145 JUMP JUMPDEST PUSH2 0x190 PUSH2 0x303 CALLDATASIZE PUSH1 0x4 PUSH2 0x1A5A JUMP JUMPDEST PUSH2 0xDC7 JUMP JUMPDEST CALLVALUE DUP1 ISZERO PUSH2 0x314 JUMPI PUSH1 0x0 DUP1 REVERT JUMPDEST POP PUSH2 0x190 PUSH2 0x323 CALLDATASIZE PUSH1 0x4 PUSH2 0x1A5A JUMP JUMPDEST PUSH2 0x1098 JUMP JUMPDEST CALLVALUE DUP1 ISZERO PUSH2 0x334 JUMPI PUSH1 0x0 DUP1 REVERT JUMPDEST POP PUSH2 0x190 PUSH2 0x343 CALLDATASIZE PUSH1 0x4 PUSH2 0x19D5 JUMP JUMPDEST PUSH2 0x126C JUMP JUMPDEST CALLVALUE DUP1 ISZERO PUSH2 0x354 JUMPI PUSH1 0x0 DUP1 REVERT JUMPDEST POP PUSH2 0x190 PUSH2 0x363 CALLDATASIZE PUSH1 0x4 PUSH2 0x1AB0 JUMP JUMPDEST PUSH2 0x12E2 JUMP JUMPDEST CALLVALUE DUP1 ISZERO PUSH2 0x374 JUMPI PUSH1 0x0 DUP1 REVERT JUMPDEST POP PUSH2 0x190 PUSH2 0x383 CALLDATASIZE PUSH1 0x4 PUSH2 0x19D5 JUMP JUMPDEST PUSH2 0x14B5 JUMP JUMPDEST PUSH1 0x0 PUSH1 0x1 PUSH1 0x1 PUSH1 0xE0 SHL SUB NOT DUP3 AND PUSH4 0x2A9F3ABF PUSH1 0xE1 SHL EQ DUP1 PUSH2 0x3B9 JUMPI POP PUSH4 0x1FFC9A7 PUSH1 0xE0 SHL PUSH1 0x1 PUSH1 0x1 PUSH1 0xE0 SHL SUB NOT DUP4 AND EQ JUMPDEST SWAP3 SWAP2 POP POP JUMP JUMPDEST PUSH1 0x60 PUSH1 0x0 PUSH2 0x3CC PUSH1 0x6C SLOAD SWAP1 JUMP JUMPDEST PUSH8 0xFFFFFFFFFFFFFFFF DUP2 GT ISZERO PUSH2 0x3E4 JUMPI PUSH2 0x3E4 PUSH2 0x1AE5 JUMP JUMPDEST PUSH1 0x40 MLOAD SWAP1 DUP1 DUP3 MSTORE DUP1 PUSH1 0x20 MUL PUSH1 0x20 ADD DUP3 ADD PUSH1 0x40 MSTORE DUP1 ISZERO PUSH2 0x41D JUMPI DUP2 PUSH1 0x20 ADD JUMPDEST PUSH2 0x40A PUSH2 0x18A2 JUMP JUMPDEST DUP2 MSTORE PUSH1 0x20 ADD SWAP1 PUSH1 0x1 SWAP1 SUB SWAP1 DUP2 PUSH2 0x402 JUMPI SWAP1 POP JUMPDEST POP SWAP1 POP PUSH1 0x0 DUP1 JUMPDEST PUSH1 0x6C SLOAD DUP2 LT ISZERO PUSH2 0x521 JUMPI PUSH1 0x0 DUP2 DUP2 MSTORE PUSH1 0x6B PUSH1 0x20 MSTORE PUSH1 0x40 SWAP1 KECCAK256 PUSH1 0x3 ADD SLOAD CALLER PUSH1 0x1 PUSH1 0x1 PUSH1 0xA0 SHL SUB SWAP1 SWAP2 AND SUB PUSH2 0x50F JUMPI PUSH1 0x0 DUP2 DUP2 MSTORE PUSH1 0x6B PUSH1 0x20 MSTORE PUSH1 0x40 SWAP1 KECCAK256 PUSH1 0x5 ADD SLOAD PUSH1 0xFF AND ISZERO ISZERO PUSH1 0x1 SUB PUSH2 0x50F JUMPI PUSH1 0x0 DUP2 DUP2 MSTORE PUSH1 0x6B PUSH1 0x20 SWAP1 DUP2 MSTORE PUSH1 0x40 SWAP2 DUP3 SWAP1 KECCAK256 DUP3 MLOAD PUSH1 0x80 DUP2 ADD DUP5 MSTORE DUP2 SLOAD PUSH1 0x1 PUSH1 0x1 PUSH1 0xA0 SHL SUB SWAP1 DUP2 AND DUP3 MSTORE PUSH1 0x1 DUP4 ADD SLOAD DUP3 DUP6 ADD MSTORE DUP5 MLOAD PUSH1 0x60 DUP1 DUP3 ADD DUP8 MSTORE PUSH1 0x2 DUP6 ADD SLOAD DUP3 MSTORE PUSH1 0x3 DUP6 ADD SLOAD SWAP1 SWAP3 AND SWAP5 DUP2 ADD SWAP5 SWAP1 SWAP5 MSTORE PUSH1 0x4 DUP4 ADD SLOAD DUP5 DUP7 ADD MSTORE SWAP4 DUP2 ADD SWAP3 SWAP1 SWAP3 MSTORE PUSH1 0x5 DUP2 ADD SLOAD PUSH1 0xFF AND ISZERO ISZERO SWAP3 DUP3 ADD SWAP3 SWAP1 SWAP3 MSTORE DUP5 MLOAD DUP6 SWAP1 DUP6 SWAP1 DUP2 LT PUSH2 0x4F5 JUMPI PUSH2 0x4F5 PUSH2 0x1AFB JUMP JUMPDEST PUSH1 0x20 SWAP1 DUP2 MUL SWAP2 SWAP1 SWAP2 ADD ADD MSTORE PUSH2 0x50B PUSH1 0x1 DUP5 PUSH2 0x1B27 JUMP JUMPDEST SWAP3 POP POP JUMPDEST DUP1 PUSH2 0x519 DUP2 PUSH2 0x1B3A JUMP JUMPDEST SWAP2 POP POP PUSH2 0x424 JUMP JUMPDEST POP SWAP1 SWAP3 SWAP2 POP POP JUMP JUMPDEST PUSH2 0x531 PUSH2 0x14D2 JUMP JUMPDEST PUSH1 0x68 DUP1 SLOAD PUSH1 0x1 PUSH1 0x1 PUSH1 0xA0 SHL SUB NOT AND PUSH1 0x1 PUSH1 0x1 PUSH1 0xA0 SHL SUB SWAP3 SWAP1 SWAP3 AND SWAP2 SWAP1 SWAP2 OR SWAP1 SSTORE JUMP JUMPDEST PUSH1 0x60 PUSH1 0x0 PUSH2 0x560 PUSH1 0x6D SLOAD SWAP1 JUMP JUMPDEST PUSH1 0x6C SLOAD PUSH2 0x56D SWAP2 SWAP1 PUSH2 0x1B53 JUMP JUMPDEST SWAP1 POP PUSH1 0x0 DUP2 PUSH8 0xFFFFFFFFFFFFFFFF DUP2 GT ISZERO PUSH2 0x58A JUMPI PUSH2 0x58A PUSH2 0x1AE5 JUMP JUMPDEST PUSH1 0x40 MLOAD SWAP1 DUP1 DUP3 MSTORE DUP1 PUSH1 0x20 MUL PUSH1 0x20 ADD DUP3 ADD PUSH1 0x40 MSTORE DUP1 ISZERO PUSH2 0x5C3 JUMPI DUP2 PUSH1 0x20 ADD JUMPDEST PUSH2 0x5B0 PUSH2 0x18A2 JUMP JUMPDEST DUP2 MSTORE PUSH1 0x20 ADD SWAP1 PUSH1 0x1 SWAP1 SUB SWAP1 DUP2 PUSH2 0x5A8 JUMPI SWAP1 POP JUMPDEST POP SWAP1 POP PUSH1 0x0 DUP1 JUMPDEST PUSH1 0x6C SLOAD DUP2 LT ISZERO PUSH2 0x6A4 JUMPI PUSH1 0x0 DUP2 DUP2 MSTORE PUSH1 0x6B PUSH1 0x20 MSTORE PUSH1 0x40 SWAP1 KECCAK256 PUSH1 0x5 ADD SLOAD PUSH1 0xFF AND ISZERO ISZERO PUSH1 0x1 SUB PUSH2 0x692 JUMPI PUSH1 0x0 DUP2 DUP2 MSTORE PUSH1 0x6B PUSH1 0x20 SWAP1 DUP2 MSTORE PUSH1 0x40 SWAP2 DUP3 SWAP1 KECCAK256 DUP3 MLOAD PUSH1 0x80 DUP2 ADD DUP5 MSTORE DUP2 SLOAD PUSH1 0x1 PUSH1 0x1 PUSH1 0xA0 SHL SUB SWAP1 DUP2 AND DUP3 MSTORE PUSH1 0x1 DUP4 ADD SLOAD DUP3 DUP6 ADD MSTORE DUP5 MLOAD PUSH1 0x60 DUP1 DUP3 ADD DUP8 MSTORE PUSH1 0x2 DUP6 ADD SLOAD DUP3 MSTORE PUSH1 0x3 DUP6 ADD SLOAD SWAP1 SWAP3 AND SWAP5 DUP2 ADD SWAP5 SWAP1 SWAP5 MSTORE PUSH1 0x4 DUP4 ADD SLOAD DUP5 DUP7 ADD MSTORE SWAP4 DUP2 ADD SWAP3 SWAP1 SWAP3 MSTORE PUSH1 0x5 DUP2 ADD SLOAD PUSH1 0xFF AND ISZERO ISZERO SWAP3 DUP3 ADD SWAP3 SWAP1 SWAP3 MSTORE DUP5 MLOAD DUP6 SWAP1 DUP6 SWAP1 DUP2 LT PUSH2 0x678 JUMPI PUSH2 0x678 PUSH2 0x1AFB JUMP JUMPDEST PUSH1 0x20 SWAP1 DUP2 MUL SWAP2 SWAP1 SWAP2 ADD ADD MSTORE PUSH2 0x68E PUSH1 0x1 DUP5 PUSH2 0x1B27 JUMP JUMPDEST SWAP3 POP POP JUMPDEST DUP1 PUSH2 0x69C DUP2 PUSH2 0x1B3A JUMP JUMPDEST SWAP2 POP POP PUSH2 0x5CA JUMP JUMPDEST POP SWAP1 SWAP4 SWAP3 POP POP POP JUMP JUMPDEST PUSH1 0x0 DUP2 PUSH1 0x1 PUSH1 0x1 PUSH1 0xA0 SHL SUB AND PUSH2 0x6CB PUSH1 0x33 SLOAD PUSH1 0x1 PUSH1 0x1 PUSH1 0xA0 SHL SUB AND SWAP1 JUMP JUMPDEST PUSH1 0x1 PUSH1 0x1 PUSH1 0xA0 SHL SUB AND EQ DUP1 PUSH2 0x3B9 JUMPI POP PUSH2 0x3B9 PUSH1 0x66 DUP4 PUSH2 0x152C JUMP JUMPDEST PUSH2 0x6EE PUSH2 0x14D2 JUMP JUMPDEST PUSH2 0x6F9 PUSH1 0x66 DUP3 PUSH2 0x152C JUMP JUMPDEST ISZERO PUSH2 0x741 JUMPI PUSH1 0x40 MLOAD CALLER SWAP1 PUSH1 0x1 PUSH1 0x1 PUSH1 0xA0 SHL SUB DUP4 AND SWAP1 PUSH32 0x7C0C3C84C67C85FCAC635147348BFE374C24A1A93D0366D1CFE9D8853CBF89D5 SWAP1 PUSH1 0x0 SWAP1 LOG3 PUSH2 0x73F PUSH1 0x66 DUP3 PUSH2 0x1551 JUMP JUMPDEST POP JUMPDEST POP JUMP JUMPDEST PUSH1 0x60 PUSH2 0x750 PUSH1 0x66 PUSH2 0x1566 JUMP JUMPDEST PUSH8 0xFFFFFFFFFFFFFFFF DUP2 GT ISZERO PUSH2 0x768 JUMPI PUSH2 0x768 PUSH2 0x1AE5 JUMP JUMPDEST PUSH1 0x40 MLOAD SWAP1 DUP1 DUP3 MSTORE DUP1 PUSH1 0x20 MUL PUSH1 0x20 ADD DUP3 ADD PUSH1 0x40 MSTORE DUP1 ISZERO PUSH2 0x791 JUMPI DUP2 PUSH1 0x20 ADD PUSH1 0x20 DUP3 MUL DUP1 CALLDATASIZE DUP4 CALLDATACOPY ADD SWAP1 POP JUMPDEST POP SWAP1 POP PUSH1 0x0 JUMPDEST PUSH2 0x7A1 PUSH1 0x66 PUSH2 0x1566 JUMP JUMPDEST DUP2 LT ISZERO PUSH2 0x7EF JUMPI PUSH2 0x7B3 PUSH1 0x66 DUP3 PUSH2 0x1570 JUMP JUMPDEST DUP3 DUP3 DUP2 MLOAD DUP2 LT PUSH2 0x7C5 JUMPI PUSH2 0x7C5 PUSH2 0x1AFB JUMP JUMPDEST PUSH1 0x1 PUSH1 0x1 PUSH1 0xA0 SHL SUB SWAP1 SWAP3 AND PUSH1 0x20 SWAP3 DUP4 MUL SWAP2 SWAP1 SWAP2 ADD SWAP1 SWAP2 ADD MSTORE DUP1 PUSH2 0x7E7 DUP2 PUSH2 0x1B3A JUMP JUMPDEST SWAP2 POP POP PUSH2 0x797 JUMP JUMPDEST POP SWAP1 JUMP JUMPDEST PUSH2 0x7FB PUSH2 0x18A2 JUMP JUMPDEST POP PUSH1 0x0 SWAP1 DUP2 MSTORE PUSH1 0x6B PUSH1 0x20 SWAP1 DUP2 MSTORE PUSH1 0x40 SWAP2 DUP3 SWAP1 KECCAK256 DUP3 MLOAD PUSH1 0x80 DUP2 ADD DUP5 MSTORE DUP2 SLOAD PUSH1 0x1 PUSH1 0x1 PUSH1 0xA0 SHL SUB SWAP1 DUP2 AND DUP3 MSTORE PUSH1 0x1 DUP4 ADD SLOAD DUP3 DUP6 ADD MSTORE DUP5 MLOAD PUSH1 0x60 DUP1 DUP3 ADD DUP8 MSTORE PUSH1 0x2 DUP6 ADD SLOAD DUP3 MSTORE PUSH1 0x3 DUP6 ADD SLOAD SWAP1 SWAP3 AND SWAP5 DUP2 ADD SWAP5 SWAP1 SWAP5 MSTORE PUSH1 0x4 DUP4 ADD SLOAD DUP5 DUP7 ADD MSTORE SWAP4 DUP2 ADD SWAP3 SWAP1 SWAP3 MSTORE PUSH1 0x5 ADD SLOAD PUSH1 0xFF AND ISZERO ISZERO SWAP2 DUP2 ADD SWAP2 SWAP1 SWAP2 MSTORE SWAP1 JUMP JUMPDEST PUSH2 0x878 PUSH2 0x14D2 JUMP JUMPDEST PUSH2 0x883 PUSH1 0x66 DUP3 PUSH2 0x152C JUMP JUMPDEST PUSH2 0x741 JUMPI PUSH1 0x40 MLOAD CALLER SWAP1 PUSH1 0x1 PUSH1 0x1 PUSH1 0xA0 SHL SUB DUP4 AND SWAP1 PUSH32 0x7E1A1A08D52E4BA0E21554733D66165FD5151F99460116223D9E3A608EEC5CB1 SWAP1 PUSH1 0x0 SWAP1 LOG3 PUSH2 0x73F PUSH1 0x66 DUP3 PUSH2 0x157C JUMP JUMPDEST PUSH2 0x8D0 PUSH2 0x14D2 JUMP JUMPDEST PUSH2 0x8DA PUSH1 0x0 PUSH2 0x1591 JUMP JUMPDEST JUMP JUMPDEST PUSH1 0x0 SLOAD PUSH2 0x100 SWAP1 DIV PUSH1 0xFF AND ISZERO DUP1 DUP1 ISZERO PUSH2 0x8FC JUMPI POP PUSH1 0x0 SLOAD PUSH1 0x1 PUSH1 0xFF SWAP1 SWAP2 AND LT JUMPDEST DUP1 PUSH2 0x916 JUMPI POP ADDRESS EXTCODESIZE ISZERO DUP1 ISZERO PUSH2 0x916 JUMPI POP PUSH1 0x0 SLOAD PUSH1 0xFF AND PUSH1 0x1 EQ JUMPDEST PUSH2 0x97E JUMPI PUSH1 0x40 MLOAD PUSH3 0x461BCD PUSH1 0xE5 SHL DUP2 MSTORE PUSH1 0x20 PUSH1 0x4 DUP3 ADD MSTORE PUSH1 0x2E PUSH1 0x24 DUP3 ADD MSTORE PUSH32 0x496E697469616C697A61626C653A20636F6E747261637420697320616C726561 PUSH1 0x44 DUP3 ADD MSTORE PUSH14 0x191E481A5B9A5D1A585B1A5E9959 PUSH1 0x92 SHL PUSH1 0x64 DUP3 ADD MSTORE PUSH1 0x84 ADD JUMPDEST PUSH1 0x40 MLOAD DUP1 SWAP2 SUB SWAP1 REVERT JUMPDEST PUSH1 0x0 DUP1 SLOAD PUSH1 0xFF NOT AND PUSH1 0x1 OR SWAP1 SSTORE DUP1 ISZERO PUSH2 0x9A1 JUMPI PUSH1 0x0 DUP1 SLOAD PUSH2 0xFF00 NOT AND PUSH2 0x100 OR SWAP1 SSTORE JUMPDEST PUSH2 0x9A9 PUSH2 0x15E3 JUMP JUMPDEST DUP1 ISZERO PUSH2 0x741 JUMPI PUSH1 0x0 DUP1 SLOAD PUSH2 0xFF00 NOT AND SWAP1 SSTORE PUSH1 0x40 MLOAD PUSH1 0x1 DUP2 MSTORE PUSH32 0x7F26B83FF96E1F2B6A682F133852F6798A09C465DA95921460CEFB3847402498 SWAP1 PUSH1 0x20 ADD PUSH1 0x40 MLOAD DUP1 SWAP2 SUB SWAP1 LOG1 POP JUMP JUMPDEST PUSH2 0xA1E PUSH1 0x40 MLOAD DUP1 PUSH1 0x60 ADD PUSH1 0x40 MSTORE DUP1 PUSH1 0x0 DUP2 MSTORE PUSH1 0x20 ADD PUSH1 0x0 PUSH1 0x1 PUSH1 0x1 PUSH1 0xA0 SHL SUB AND DUP2 MSTORE PUSH1 0x20 ADD PUSH1 0x0 DUP2 MSTORE POP SWAP1 JUMP JUMPDEST POP PUSH1 0x1 PUSH1 0x1 PUSH1 0xA0 SHL SUB SWAP2 DUP3 AND PUSH1 0x0 SWAP1 DUP2 MSTORE PUSH1 0x69 PUSH1 0x20 SWAP1 DUP2 MSTORE PUSH1 0x40 DUP1 DUP4 KECCAK256 SWAP4 DUP4 MSTORE SWAP3 DUP2 MSTORE SWAP1 DUP3 SWAP1 KECCAK256 DUP3 MLOAD PUSH1 0x60 DUP2 ADD DUP5 MSTORE DUP2 SLOAD DUP2 MSTORE PUSH1 0x1 DUP3 ADD SLOAD SWAP1 SWAP5 AND SWAP2 DUP5 ADD SWAP2 SWAP1 SWAP2 MSTORE PUSH1 0x2 ADD SLOAD SWAP1 DUP3 ADD MSTORE SWAP1 JUMP JUMPDEST PUSH1 0x1 PUSH1 0x1 PUSH1 0xA0 SHL SUB DUP1 DUP5 AND PUSH1 0x0 SWAP1 DUP2 MSTORE PUSH1 0x69 PUSH1 0x20 SWAP1 DUP2 MSTORE PUSH1 0x40 DUP1 DUP4 KECCAK256 DUP7 DUP5 MSTORE DUP3 MSTORE SWAP2 DUP3 SWAP1 KECCAK256 DUP3 MLOAD PUSH1 0x60 DUP2 ADD DUP5 MSTORE DUP2 SLOAD DUP1 DUP3 MSTORE PUSH1 0x1 DUP4 ADD SLOAD SWAP1 SWAP6 AND SWAP3 DUP2 ADD SWAP3 SWAP1 SWAP3 MSTORE PUSH1 0x2 ADD SLOAD SWAP2 DUP2 ADD SWAP2 SWAP1 SWAP2 MSTORE DUP5 SWAP2 DUP5 SWAP2 CALLER SWAP2 ISZERO PUSH2 0xAED JUMPI PUSH1 0x40 MLOAD PUSH4 0x4A5568D5 PUSH1 0xE0 SHL DUP2 MSTORE PUSH1 0x1 PUSH1 0x1 PUSH1 0xA0 SHL SUB DUP6 AND PUSH1 0x4 DUP3 ADD MSTORE PUSH1 0x24 DUP2 ADD DUP5 SWAP1 MSTORE PUSH1 0x44 ADD PUSH2 0x975 JUMP JUMPDEST PUSH1 0x40 MLOAD PUSH4 0x31A9108F PUSH1 0xE1 SHL DUP2 MSTORE PUSH1 0x4 DUP2 ADD DUP8 SWAP1 MSTORE DUP8 SWAP1 DUP8 SWAP1 CALLER SWAP1 DUP4 SWAP1 PUSH1 0x0 SWAP1 PUSH1 0x1 PUSH1 0x1 PUSH1 0xA0 SHL SUB DUP4 AND SWAP1 PUSH4 0x6352211E SWAP1 PUSH1 0x24 ADD PUSH1 0x20 PUSH1 0x40 MLOAD DUP1 DUP4 SUB DUP2 DUP7 GAS STATICCALL ISZERO DUP1 ISZERO PUSH2 0xB3D JUMPI RETURNDATASIZE PUSH1 0x0 DUP1 RETURNDATACOPY RETURNDATASIZE PUSH1 0x0 REVERT JUMPDEST POP POP POP POP PUSH1 0x40 MLOAD RETURNDATASIZE PUSH1 0x1F NOT PUSH1 0x1F DUP3 ADD AND DUP3 ADD DUP1 PUSH1 0x40 MSTORE POP DUP2 ADD SWAP1 PUSH2 0xB61 SWAP2 SWAP1 PUSH2 0x1B66 JUMP JUMPDEST SWAP1 POP DUP1 PUSH1 0x1 PUSH1 0x1 PUSH1 0xA0 SHL SUB AND DUP4 PUSH1 0x1 PUSH1 0x1 PUSH1 0xA0 SHL SUB AND EQ PUSH2 0xB95 JUMPI PUSH1 0x40 MLOAD PUSH4 0x30CD7471 PUSH1 0xE0 SHL DUP2 MSTORE PUSH1 0x4 ADD PUSH1 0x40 MLOAD DUP1 SWAP2 SUB SWAP1 REVERT JUMPDEST PUSH1 0x0 DUP11 GT PUSH2 0xBB6 JUMPI PUSH1 0x40 MLOAD PUSH4 0xE1ABBFC5 PUSH1 0xE0 SHL DUP2 MSTORE PUSH1 0x4 ADD PUSH1 0x40 MLOAD DUP1 SWAP2 SUB SWAP1 REVERT JUMPDEST PUSH1 0x40 MLOAD PUSH4 0x20604BF PUSH1 0xE2 SHL DUP2 MSTORE PUSH1 0x4 DUP2 ADD DUP13 SWAP1 MSTORE DUP13 SWAP1 DUP13 SWAP1 DUP3 SWAP1 ADDRESS SWAP1 PUSH1 0x1 PUSH1 0x1 PUSH1 0xA0 SHL SUB DUP4 AND SWAP1 PUSH4 0x81812FC SWAP1 PUSH1 0x24 ADD PUSH1 0x20 PUSH1 0x40 MLOAD DUP1 DUP4 SUB DUP2 DUP7 GAS STATICCALL ISZERO DUP1 ISZERO PUSH2 0xC03 JUMPI RETURNDATASIZE PUSH1 0x0 DUP1 RETURNDATACOPY RETURNDATASIZE PUSH1 0x0 REVERT JUMPDEST POP POP POP POP PUSH1 0x40 MLOAD RETURNDATASIZE PUSH1 0x1F NOT PUSH1 0x1F DUP3 ADD AND DUP3 ADD DUP1 PUSH1 0x40 MSTORE POP DUP2 ADD SWAP1 PUSH2 0xC27 SWAP2 SWAP1 PUSH2 0x1B66 JUMP JUMPDEST PUSH1 0x1 PUSH1 0x1 PUSH1 0xA0 SHL SUB AND EQ PUSH2 0xC4E JUMPI PUSH1 0x40 MLOAD PUSH4 0x4BE3A2C5 PUSH1 0xE0 SHL DUP2 MSTORE PUSH1 0x4 ADD PUSH1 0x40 MLOAD DUP1 SWAP2 SUB SWAP1 REVERT JUMPDEST PUSH1 0x40 DUP1 MLOAD PUSH1 0x60 DUP2 ADD DUP3 MSTORE DUP15 DUP2 MSTORE CALLER PUSH1 0x20 DUP3 ADD MSTORE PUSH1 0x0 SWAP2 DUP2 ADD PUSH2 0xC6F PUSH1 0x6C SLOAD SWAP1 JUMP JUMPDEST SWAP1 MSTORE PUSH1 0x1 PUSH1 0x1 PUSH1 0xA0 SHL SUB DUP6 DUP2 AND PUSH1 0x0 DUP2 DUP2 MSTORE PUSH1 0x69 PUSH1 0x20 SWAP1 DUP2 MSTORE PUSH1 0x40 DUP1 DUP4 KECCAK256 DUP10 DUP5 MSTORE DUP3 MSTORE DUP1 DUP4 KECCAK256 DUP7 MLOAD DUP2 SSTORE DUP7 DUP4 ADD MLOAD PUSH1 0x1 DUP1 DUP4 ADD DUP1 SLOAD SWAP3 DUP10 AND PUSH1 0x1 PUSH1 0x1 PUSH1 0xA0 SHL SUB NOT SWAP4 DUP5 AND OR SWAP1 SSTORE DUP9 DUP5 ADD MLOAD PUSH1 0x2 SWAP4 DUP5 ADD SSTORE DUP4 MLOAD PUSH1 0x80 DUP2 ADD DUP6 MSTORE SWAP7 DUP8 MSTORE DUP7 DUP6 ADD DUP13 DUP2 MSTORE DUP8 DUP6 ADD DUP11 DUP2 MSTORE PUSH1 0x60 DUP10 ADD DUP4 DUP2 MSTORE PUSH1 0x6C DUP1 SLOAD DUP11 MSTORE PUSH1 0x6B DUP10 MSTORE SWAP9 DUP8 SWAP1 KECCAK256 DUP11 MLOAD DUP2 SLOAD DUP8 AND SWAP1 DUP14 AND OR DUP2 SSTORE SWAP3 MLOAD DUP4 DUP6 ADD SSTORE SWAP1 MLOAD DUP1 MLOAD SWAP6 DUP4 ADD SWAP6 SWAP1 SWAP6 SSTORE SWAP6 DUP5 ADD MLOAD PUSH1 0x3 DUP3 ADD DUP1 SLOAD SWAP1 SWAP5 AND SWAP10 AND SWAP9 SWAP1 SWAP9 OR SWAP1 SWAP2 SSTORE SWAP2 ADD MLOAD PUSH1 0x4 DUP7 ADD SSTORE SWAP1 MLOAD PUSH1 0x5 SWAP1 SWAP5 ADD DUP1 SLOAD PUSH1 0xFF NOT AND SWAP5 ISZERO ISZERO SWAP5 SWAP1 SWAP5 OR SWAP1 SWAP4 SSTORE DUP1 SLOAD SWAP1 SWAP3 ADD SWAP1 SWAP2 SSTORE SWAP1 SWAP2 POP POP POP POP POP POP DUP11 DUP13 PUSH1 0x1 PUSH1 0x1 PUSH1 0xA0 SHL SUB AND CALLER PUSH1 0x1 PUSH1 0x1 PUSH1 0xA0 SHL SUB AND PUSH32 0x424B3284A7958BB7965C27CA0B2A8B30CE2A56BA954533DF15E6BDED1B608ED7 PUSH1 0x1 PUSH2 0xD8F PUSH1 0x6C SLOAD SWAP1 JUMP JUMPDEST PUSH2 0xD99 SWAP2 SWAP1 PUSH2 0x1B53 JUMP JUMPDEST DUP15 PUSH1 0x40 MLOAD PUSH2 0xDB1 SWAP3 SWAP2 SWAP1 SWAP2 DUP3 MSTORE PUSH1 0x20 DUP3 ADD MSTORE PUSH1 0x40 ADD SWAP1 JUMP JUMPDEST PUSH1 0x40 MLOAD DUP1 SWAP2 SUB SWAP1 LOG4 POP POP POP POP POP POP POP POP POP POP POP POP JUMP JUMPDEST PUSH1 0x1 PUSH1 0x1 PUSH1 0xA0 SHL SUB DUP1 DUP4 AND PUSH1 0x0 SWAP1 DUP2 MSTORE PUSH1 0x69 PUSH1 0x20 SWAP1 DUP2 MSTORE PUSH1 0x40 DUP1 DUP4 KECCAK256 DUP6 DUP5 MSTORE DUP3 MSTORE SWAP2 DUP3 SWAP1 KECCAK256 DUP3 MLOAD PUSH1 0x60 DUP2 ADD DUP5 MSTORE DUP2 SLOAD DUP1 DUP3 MSTORE PUSH1 0x1 DUP4 ADD SLOAD SWAP1 SWAP6 AND SWAP3 DUP2 ADD SWAP3 SWAP1 SWAP3 MSTORE PUSH1 0x2 ADD SLOAD SWAP2 DUP2 ADD SWAP2 SWAP1 SWAP2 MSTORE DUP4 SWAP2 DUP4 SWAP2 SWAP1 PUSH2 0xE47 JUMPI PUSH1 0x40 MLOAD PUSH4 0x1A0C5223 PUSH1 0xE2 SHL DUP2 MSTORE PUSH1 0x1 PUSH1 0x1 PUSH1 0xA0 SHL SUB DUP5 AND PUSH1 0x4 DUP3 ADD MSTORE PUSH1 0x24 DUP2 ADD DUP4 SWAP1 MSTORE PUSH1 0x44 ADD PUSH2 0x975 JUMP JUMPDEST PUSH2 0xE4F PUSH2 0x1612 JUMP JUMPDEST PUSH1 0x1 PUSH1 0x1 PUSH1 0xA0 SHL SUB DUP1 DUP7 AND PUSH1 0x0 SWAP1 DUP2 MSTORE PUSH1 0x69 PUSH1 0x20 SWAP1 DUP2 MSTORE PUSH1 0x40 DUP1 DUP4 KECCAK256 DUP9 DUP5 MSTORE DUP3 MSTORE SWAP2 DUP3 SWAP1 KECCAK256 DUP3 MLOAD PUSH1 0x60 DUP2 ADD DUP5 MSTORE DUP2 SLOAD DUP1 DUP3 MSTORE PUSH1 0x1 DUP4 ADD SLOAD SWAP1 SWAP6 AND SWAP3 DUP2 ADD SWAP3 SWAP1 SWAP3 MSTORE PUSH1 0x2 ADD SLOAD SWAP2 DUP2 ADD SWAP2 SWAP1 SWAP2 MSTORE SWAP1 CALLVALUE LT ISZERO PUSH2 0xED8 JUMPI DUP1 MLOAD PUSH1 0x40 MLOAD PUSH4 0x7C934565 PUSH1 0xE0 SHL DUP2 MSTORE PUSH1 0x1 PUSH1 0x1 PUSH1 0xA0 SHL SUB DUP9 AND PUSH1 0x4 DUP3 ADD MSTORE PUSH1 0x24 DUP2 ADD DUP8 SWAP1 MSTORE PUSH1 0x44 DUP2 ADD SWAP2 SWAP1 SWAP2 MSTORE PUSH1 0x64 ADD PUSH2 0x975 JUMP JUMPDEST PUSH1 0x68 SLOAD DUP2 MLOAD PUSH1 0x1 PUSH1 0x1 PUSH1 0xA0 SHL SUB SWAP1 SWAP2 AND SWAP1 PUSH2 0x8FC SWAP1 PUSH2 0xEF9 SWAP1 PUSH1 0x64 SWAP1 PUSH2 0x1B83 JUMP JUMPDEST PUSH1 0x40 MLOAD DUP2 ISZERO SWAP1 SWAP3 MUL SWAP2 PUSH1 0x0 DUP2 DUP2 DUP2 DUP6 DUP9 DUP9 CALL SWAP4 POP POP POP POP ISZERO DUP1 ISZERO PUSH2 0xF21 JUMPI RETURNDATASIZE PUSH1 0x0 DUP1 RETURNDATACOPY RETURNDATASIZE PUSH1 0x0 REVERT JUMPDEST POP DUP1 PUSH1 0x20 ADD MLOAD PUSH1 0x1 PUSH1 0x1 PUSH1 0xA0 SHL SUB AND PUSH2 0x8FC PUSH1 0x64 DUP4 PUSH1 0x0 ADD MLOAD PUSH2 0xF44 SWAP2 SWAP1 PUSH2 0x1B83 JUMP JUMPDEST PUSH2 0xF4F SWAP1 PUSH1 0x61 PUSH2 0x1BA5 JUMP JUMPDEST PUSH1 0x40 MLOAD DUP2 ISZERO SWAP1 SWAP3 MUL SWAP2 PUSH1 0x0 DUP2 DUP2 DUP2 DUP6 DUP9 DUP9 CALL SWAP4 POP POP POP POP ISZERO DUP1 ISZERO PUSH2 0xF77 JUMPI RETURNDATASIZE PUSH1 0x0 DUP1 RETURNDATACOPY RETURNDATASIZE PUSH1 0x0 REVERT JUMPDEST POP PUSH1 0x1 PUSH1 0x1 PUSH1 0xA0 SHL SUB DUP7 DUP2 AND PUSH1 0x0 DUP2 DUP2 MSTORE PUSH1 0x69 PUSH1 0x20 SWAP1 DUP2 MSTORE PUSH1 0x40 DUP1 DUP4 KECCAK256 DUP11 DUP5 MSTORE DUP1 DUP4 MSTORE DUP2 DUP5 KECCAK256 PUSH1 0x2 DUP2 ADD DUP1 SLOAD DUP7 MSTORE PUSH1 0x6B DUP6 MSTORE DUP4 DUP7 KECCAK256 PUSH1 0x5 ADD DUP1 SLOAD PUSH1 0xFF NOT AND SWAP1 SSTORE DUP13 DUP7 MSTORE SWAP2 DUP5 MSTORE DUP5 DUP2 SSTORE PUSH1 0x1 ADD DUP1 SLOAD PUSH1 0x1 PUSH1 0x1 PUSH1 0xA0 SHL SUB NOT AND SWAP1 SSTORE SWAP3 SWAP1 SWAP3 SSTORE DUP5 ADD MLOAD SWAP1 MLOAD PUSH4 0x21421707 PUSH1 0xE1 SHL DUP2 MSTORE SWAP3 AND PUSH1 0x4 DUP4 ADD MSTORE CALLER PUSH1 0x24 DUP4 ADD MSTORE PUSH1 0x44 DUP3 ADD DUP8 SWAP1 MSTORE SWAP1 PUSH4 0x42842E0E SWAP1 PUSH1 0x64 ADD PUSH1 0x0 PUSH1 0x40 MLOAD DUP1 DUP4 SUB DUP2 PUSH1 0x0 DUP8 DUP1 EXTCODESIZE ISZERO DUP1 ISZERO PUSH2 0x101C JUMPI PUSH1 0x0 DUP1 REVERT JUMPDEST POP GAS CALL ISZERO DUP1 ISZERO PUSH2 0x1030 JUMPI RETURNDATASIZE PUSH1 0x0 DUP1 RETURNDATACOPY RETURNDATASIZE PUSH1 0x0 REVERT JUMPDEST POP POP POP POP PUSH2 0x1042 PUSH1 0x6D DUP1 SLOAD PUSH1 0x1 ADD SWAP1 SSTORE JUMP JUMPDEST DUP1 MLOAD PUSH1 0x40 MLOAD SWAP1 DUP2 MSTORE DUP6 SWAP1 PUSH1 0x1 PUSH1 0x1 PUSH1 0xA0 SHL SUB DUP9 AND SWAP1 CALLER SWAP1 PUSH32 0x263223B1DD81E51054A4E6F791D45A4A1DDB4AADCD93A2DFD892615C3FDAC187 SWAP1 PUSH1 0x20 ADD PUSH1 0x40 MLOAD DUP1 SWAP2 SUB SWAP1 LOG4 POP PUSH2 0x1091 PUSH1 0x1 PUSH1 0x65 SSTORE JUMP JUMPDEST POP POP POP POP POP JUMP JUMPDEST PUSH1 0x40 MLOAD PUSH4 0x31A9108F PUSH1 0xE1 SHL DUP2 MSTORE PUSH1 0x4 DUP2 ADD DUP3 SWAP1 MSTORE DUP3 SWAP1 DUP3 SWAP1 CALLER SWAP1 DUP4 SWAP1 PUSH1 0x0 SWAP1 PUSH1 0x1 PUSH1 0x1 PUSH1 0xA0 SHL SUB DUP4 AND SWAP1 PUSH4 0x6352211E SWAP1 PUSH1 0x24 ADD PUSH1 0x20 PUSH1 0x40 MLOAD DUP1 DUP4 SUB DUP2 DUP7 GAS STATICCALL ISZERO DUP1 ISZERO PUSH2 0x10E8 JUMPI RETURNDATASIZE PUSH1 0x0 DUP1 RETURNDATACOPY RETURNDATASIZE PUSH1 0x0 REVERT JUMPDEST POP POP POP POP PUSH1 0x40 MLOAD RETURNDATASIZE PUSH1 0x1F NOT PUSH1 0x1F DUP3 ADD AND DUP3 ADD DUP1 PUSH1 0x40 MSTORE POP DUP2 ADD SWAP1 PUSH2 0x110C SWAP2 SWAP1 PUSH2 0x1B66 JUMP JUMPDEST SWAP1 POP DUP1 PUSH1 0x1 PUSH1 0x1 PUSH1 0xA0 SHL SUB AND DUP4 PUSH1 0x1 PUSH1 0x1 PUSH1 0xA0 SHL SUB AND EQ PUSH2 0x1140 JUMPI PUSH1 0x40 MLOAD PUSH4 0x30CD7471 PUSH1 0xE0 SHL DUP2 MSTORE PUSH1 0x4 ADD PUSH1 0x40 MLOAD DUP1 SWAP2 SUB SWAP1 REVERT JUMPDEST PUSH1 0x1 PUSH1 0x1 PUSH1 0xA0 SHL SUB DUP1 DUP9 AND PUSH1 0x0 SWAP1 DUP2 MSTORE PUSH1 0x69 PUSH1 0x20 SWAP1 DUP2 MSTORE PUSH1 0x40 DUP1 DUP4 KECCAK256 DUP11 DUP5 MSTORE DUP3 MSTORE SWAP2 DUP3 SWAP1 KECCAK256 DUP3 MLOAD PUSH1 0x60 DUP2 ADD DUP5 MSTORE DUP2 SLOAD DUP1 DUP3 MSTORE PUSH1 0x1 DUP4 ADD SLOAD SWAP1 SWAP6 AND SWAP3 DUP2 ADD SWAP3 SWAP1 SWAP3 MSTORE PUSH1 0x2 ADD SLOAD SWAP2 DUP2 ADD SWAP2 SWAP1 SWAP2 MSTORE DUP9 SWAP2 DUP9 SWAP2 SWAP1 PUSH2 0x11C0 JUMPI PUSH1 0x40 MLOAD PUSH4 0x1A0C5223 PUSH1 0xE2 SHL DUP2 MSTORE PUSH1 0x1 PUSH1 0x1 PUSH1 0xA0 SHL SUB DUP5 AND PUSH1 0x4 DUP3 ADD MSTORE PUSH1 0x24 DUP2 ADD DUP4 SWAP1 MSTORE PUSH1 0x44 ADD PUSH2 0x975 JUMP JUMPDEST PUSH1 0x1 PUSH1 0x1 PUSH1 0xA0 SHL SUB DUP11 AND PUSH1 0x0 SWAP1 DUP2 MSTORE PUSH1 0x69 PUSH1 0x20 SWAP1 DUP2 MSTORE PUSH1 0x40 DUP1 DUP4 KECCAK256 DUP13 DUP5 MSTORE DUP1 DUP4 MSTORE DUP2 DUP5 KECCAK256 PUSH1 0x2 DUP2 ADD DUP1 SLOAD DUP7 MSTORE PUSH1 0x6B DUP6 MSTORE SWAP3 DUP6 KECCAK256 PUSH1 0x5 ADD DUP1 SLOAD PUSH1 0xFF NOT AND SWAP1 SSTORE DUP14 DUP6 MSTORE SWAP3 MSTORE DUP3 DUP3 SSTORE PUSH1 0x1 SWAP1 SWAP2 ADD DUP1 SLOAD PUSH1 0x1 PUSH1 0x1 PUSH1 0xA0 SHL SUB NOT AND SWAP1 SSTORE SSTORE PUSH2 0x1228 PUSH1 0x6D DUP1 SLOAD PUSH1 0x1 ADD SWAP1 SSTORE JUMP JUMPDEST PUSH1 0x40 MLOAD DUP10 SWAP1 PUSH1 0x1 PUSH1 0x1 PUSH1 0xA0 SHL SUB DUP13 AND SWAP1 CALLER SWAP1 PUSH32 0x9BA1A3CB55CE8D63D072A886F94D2A744F50CDDF82128E897D0661F5EC623158 SWAP1 PUSH1 0x0 SWAP1 LOG4 POP POP POP POP POP POP POP POP POP POP JUMP JUMPDEST PUSH2 0x1274 PUSH2 0x14D2 JUMP JUMPDEST PUSH1 0x1 PUSH1 0x1 PUSH1 0xA0 SHL SUB DUP2 AND PUSH2 0x12D9 JUMPI PUSH1 0x40 MLOAD PUSH3 0x461BCD PUSH1 0xE5 SHL DUP2 MSTORE PUSH1 0x20 PUSH1 0x4 DUP3 ADD MSTORE PUSH1 0x26 PUSH1 0x24 DUP3 ADD MSTORE PUSH32 0x4F776E61626C653A206E6577206F776E657220697320746865207A65726F2061 PUSH1 0x44 DUP3 ADD MSTORE PUSH6 0x646472657373 PUSH1 0xD0 SHL PUSH1 0x64 DUP3 ADD MSTORE PUSH1 0x84 ADD PUSH2 0x975 JUMP JUMPDEST PUSH2 0x741 DUP2 PUSH2 0x1591 JUMP JUMPDEST PUSH1 0x1 PUSH1 0x1 PUSH1 0xA0 SHL SUB DUP1 DUP5 AND PUSH1 0x0 SWAP1 DUP2 MSTORE PUSH1 0x69 PUSH1 0x20 SWAP1 DUP2 MSTORE PUSH1 0x40 DUP1 DUP4 KECCAK256 DUP7 DUP5 MSTORE DUP3 MSTORE SWAP2 DUP3 SWAP1 KECCAK256 DUP3 MLOAD PUSH1 0x60 DUP2 ADD DUP5 MSTORE DUP2 SLOAD DUP1 DUP3 MSTORE PUSH1 0x1 DUP4 ADD SLOAD SWAP1 SWAP6 AND SWAP3 DUP2 ADD SWAP3 SWAP1 SWAP3 MSTORE PUSH1 0x2 ADD SLOAD SWAP2 DUP2 ADD SWAP2 SWAP1 SWAP2 MSTORE DUP5 SWAP2 DUP5 SWAP2 SWAP1 PUSH2 0x1362 JUMPI PUSH1 0x40 MLOAD PUSH4 0x1A0C5223 PUSH1 0xE2 SHL DUP2 MSTORE PUSH1 0x1 PUSH1 0x1 PUSH1 0xA0 SHL SUB DUP5 AND PUSH1 0x4 DUP3 ADD MSTORE PUSH1 0x24 DUP2 ADD DUP4 SWAP1 MSTORE PUSH1 0x44 ADD PUSH2 0x975 JUMP JUMPDEST PUSH2 0x136A PUSH2 0x1612 JUMP JUMPDEST PUSH1 0x40 MLOAD PUSH4 0x31A9108F PUSH1 0xE1 SHL DUP2 MSTORE PUSH1 0x4 DUP2 ADD DUP7 SWAP1 MSTORE DUP7 SWAP1 DUP7 SWAP1 CALLER SWAP1 DUP4 SWAP1 PUSH1 0x0 SWAP1 PUSH1 0x1 PUSH1 0x1 PUSH1 0xA0 SHL SUB DUP4 AND SWAP1 PUSH4 0x6352211E SWAP1 PUSH1 0x24 ADD PUSH1 0x20 PUSH1 0x40 MLOAD DUP1 DUP4 SUB DUP2 DUP7 GAS STATICCALL ISZERO DUP1 ISZERO PUSH2 0x13BA JUMPI RETURNDATASIZE PUSH1 0x0 DUP1 RETURNDATACOPY RETURNDATASIZE PUSH1 0x0 REVERT JUMPDEST POP POP POP POP PUSH1 0x40 MLOAD RETURNDATASIZE PUSH1 0x1F NOT PUSH1 0x1F DUP3 ADD AND DUP3 ADD DUP1 PUSH1 0x40 MSTORE POP DUP2 ADD SWAP1 PUSH2 0x13DE SWAP2 SWAP1 PUSH2 0x1B66 JUMP JUMPDEST SWAP1 POP DUP1 PUSH1 0x1 PUSH1 0x1 PUSH1 0xA0 SHL SUB AND DUP4 PUSH1 0x1 PUSH1 0x1 PUSH1 0xA0 SHL SUB AND EQ PUSH2 0x1412 JUMPI PUSH1 0x40 MLOAD PUSH4 0x30CD7471 PUSH1 0xE0 SHL DUP2 MSTORE PUSH1 0x4 ADD PUSH1 0x40 MLOAD DUP1 SWAP2 SUB SWAP1 REVERT JUMPDEST DUP9 PUSH1 0x0 SUB PUSH2 0x1433 JUMPI PUSH1 0x40 MLOAD PUSH4 0xE1ABBFC5 PUSH1 0xE0 SHL DUP2 MSTORE PUSH1 0x4 ADD PUSH1 0x40 MLOAD DUP1 SWAP2 SUB SWAP1 REVERT JUMPDEST PUSH1 0x1 PUSH1 0x1 PUSH1 0xA0 SHL SUB DUP12 AND PUSH1 0x0 DUP2 DUP2 MSTORE PUSH1 0x69 PUSH1 0x20 SWAP1 DUP2 MSTORE PUSH1 0x40 DUP1 DUP4 KECCAK256 DUP15 DUP5 MSTORE DUP3 MSTORE SWAP2 DUP3 SWAP1 KECCAK256 DUP13 DUP2 SSTORE PUSH1 0x2 ADD SLOAD DUP3 MLOAD SWAP1 DUP2 MSTORE SWAP1 DUP2 ADD DUP13 SWAP1 MSTORE DUP14 SWAP3 DUP14 SWAP3 DUP4 SWAP3 CALLER SWAP2 PUSH32 0x424B3284A7958BB7965C27CA0B2A8B30CE2A56BA954533DF15E6BDED1B608ED7 SWAP2 ADD PUSH1 0x40 MLOAD DUP1 SWAP2 SUB SWAP1 LOG4 POP POP POP POP POP POP POP PUSH2 0x14AD PUSH1 0x1 PUSH1 0x65 SSTORE JUMP JUMPDEST POP POP POP POP POP POP JUMP JUMPDEST PUSH2 0x14BD PUSH2 0x14D2 JUMP JUMPDEST SELFBALANCE DUP1 PUSH2 0x14C8 JUMPI PUSH1 0x0 DUP1 REVERT JUMPDEST PUSH2 0x73F DUP3 SELFBALANCE PUSH2 0x166B JUMP JUMPDEST PUSH1 0x33 SLOAD PUSH1 0x1 PUSH1 0x1 PUSH1 0xA0 SHL SUB AND CALLER EQ PUSH2 0x8DA JUMPI PUSH1 0x40 MLOAD PUSH3 0x461BCD PUSH1 0xE5 SHL DUP2 MSTORE PUSH1 0x20 PUSH1 0x4 DUP3 ADD DUP2 SWAP1 MSTORE PUSH1 0x24 DUP3 ADD MSTORE PUSH32 0x4F776E61626C653A2063616C6C6572206973206E6F7420746865206F776E6572 PUSH1 0x44 DUP3 ADD MSTORE PUSH1 0x64 ADD PUSH2 0x975 JUMP JUMPDEST PUSH1 0x1 PUSH1 0x1 PUSH1 0xA0 SHL SUB DUP2 AND PUSH1 0x0 SWAP1 DUP2 MSTORE PUSH1 0x1 DUP4 ADD PUSH1 0x20 MSTORE PUSH1 0x40 DUP2 KECCAK256 SLOAD ISZERO ISZERO JUMPDEST SWAP4 SWAP3 POP POP POP JUMP JUMPDEST PUSH1 0x0 PUSH2 0x154A DUP4 PUSH1 0x1 PUSH1 0x1 PUSH1 0xA0 SHL SUB DUP5 AND PUSH2 0x1706 JUMP JUMPDEST PUSH1 0x0 PUSH2 0x3B9 DUP3 SLOAD SWAP1 JUMP JUMPDEST PUSH1 0x0 PUSH2 0x154A DUP4 DUP4 PUSH2 0x17F9 JUMP JUMPDEST PUSH1 0x0 PUSH2 0x154A DUP4 PUSH1 0x1 PUSH1 0x1 PUSH1 0xA0 SHL SUB DUP5 AND PUSH2 0x1823 JUMP JUMPDEST PUSH1 0x33 DUP1 SLOAD PUSH1 0x1 PUSH1 0x1 PUSH1 0xA0 SHL SUB DUP4 DUP2 AND PUSH1 0x1 PUSH1 0x1 PUSH1 0xA0 SHL SUB NOT DUP4 AND DUP2 OR SWAP1 SWAP4 SSTORE PUSH1 0x40 MLOAD SWAP2 AND SWAP2 SWAP1 DUP3 SWAP1 PUSH32 0x8BE0079C531659141344CD1FD0A4F28419497F9722A3DAAFE3B4186F6B6457E0 SWAP1 PUSH1 0x0 SWAP1 LOG3 POP POP JUMP JUMPDEST PUSH1 0x0 SLOAD PUSH2 0x100 SWAP1 DIV PUSH1 0xFF AND PUSH2 0x160A JUMPI PUSH1 0x40 MLOAD PUSH3 0x461BCD PUSH1 0xE5 SHL DUP2 MSTORE PUSH1 0x4 ADD PUSH2 0x975 SWAP1 PUSH2 0x1BBC JUMP JUMPDEST PUSH2 0x8DA PUSH2 0x1872 JUMP JUMPDEST PUSH1 0x2 PUSH1 0x65 SLOAD SUB PUSH2 0x1664 JUMPI PUSH1 0x40 MLOAD PUSH3 0x461BCD PUSH1 0xE5 SHL DUP2 MSTORE PUSH1 0x20 PUSH1 0x4 DUP3 ADD MSTORE PUSH1 0x1F PUSH1 0x24 DUP3 ADD MSTORE PUSH32 0x5265656E7472616E637947756172643A207265656E7472616E742063616C6C00 PUSH1 0x44 DUP3 ADD MSTORE PUSH1 0x64 ADD PUSH2 0x975 JUMP JUMPDEST PUSH1 0x2 PUSH1 0x65 SSTORE JUMP JUMPDEST PUSH1 0x0 DUP3 PUSH1 0x1 PUSH1 0x1 PUSH1 0xA0 SHL SUB AND DUP3 PUSH1 0x40 MLOAD PUSH1 0x0 PUSH1 0x40 MLOAD DUP1 DUP4 SUB DUP2 DUP6 DUP8 GAS CALL SWAP3 POP POP POP RETURNDATASIZE DUP1 PUSH1 0x0 DUP2 EQ PUSH2 0x16B8 JUMPI PUSH1 0x40 MLOAD SWAP2 POP PUSH1 0x1F NOT PUSH1 0x3F RETURNDATASIZE ADD AND DUP3 ADD PUSH1 0x40 MSTORE RETURNDATASIZE DUP3 MSTORE RETURNDATASIZE PUSH1 0x0 PUSH1 0x20 DUP5 ADD RETURNDATACOPY PUSH2 0x16BD JUMP JUMPDEST PUSH1 0x60 SWAP2 POP JUMPDEST POP POP SWAP1 POP DUP1 PUSH2 0x1701 JUMPI PUSH1 0x40 MLOAD PUSH3 0x461BCD PUSH1 0xE5 SHL DUP2 MSTORE PUSH1 0x20 PUSH1 0x4 DUP3 ADD MSTORE PUSH1 0x10 PUSH1 0x24 DUP3 ADD MSTORE PUSH16 0x2A3930B739B332B9103330B4B632B217 PUSH1 0x81 SHL PUSH1 0x44 DUP3 ADD MSTORE PUSH1 0x64 ADD PUSH2 0x975 JUMP JUMPDEST POP POP POP JUMP JUMPDEST PUSH1 0x0 DUP2 DUP2 MSTORE PUSH1 0x1 DUP4 ADD PUSH1 0x20 MSTORE PUSH1 0x40 DUP2 KECCAK256 SLOAD DUP1 ISZERO PUSH2 0x17EF JUMPI PUSH1 0x0 PUSH2 0x172A PUSH1 0x1 DUP4 PUSH2 0x1B53 JUMP JUMPDEST DUP6 SLOAD SWAP1 SWAP2 POP PUSH1 0x0 SWAP1 PUSH2 0x173E SWAP1 PUSH1 0x1 SWAP1 PUSH2 0x1B53 JUMP JUMPDEST SWAP1 POP DUP2 DUP2 EQ PUSH2 0x17A3 JUMPI PUSH1 0x0 DUP7 PUSH1 0x0 ADD DUP3 DUP2 SLOAD DUP2 LT PUSH2 0x175E JUMPI PUSH2 0x175E PUSH2 0x1AFB JUMP JUMPDEST SWAP1 PUSH1 0x0 MSTORE PUSH1 0x20 PUSH1 0x0 KECCAK256 ADD SLOAD SWAP1 POP DUP1 DUP8 PUSH1 0x0 ADD DUP5 DUP2 SLOAD DUP2 LT PUSH2 0x1781 JUMPI PUSH2 0x1781 PUSH2 0x1AFB JUMP JUMPDEST PUSH1 0x0 SWAP2 DUP3 MSTORE PUSH1 0x20 DUP1 DUP4 KECCAK256 SWAP1 SWAP2 ADD SWAP3 SWAP1 SWAP3 SSTORE SWAP2 DUP3 MSTORE PUSH1 0x1 DUP9 ADD SWAP1 MSTORE PUSH1 0x40 SWAP1 KECCAK256 DUP4 SWAP1 SSTORE JUMPDEST DUP6 SLOAD DUP7 SWAP1 DUP1 PUSH2 0x17B4 JUMPI PUSH2 0x17B4 PUSH2 0x1C07 JUMP JUMPDEST PUSH1 0x1 SWAP1 SUB DUP2 DUP2 SWAP1 PUSH1 0x0 MSTORE PUSH1 0x20 PUSH1 0x0 KECCAK256 ADD PUSH1 0x0 SWAP1 SSTORE SWAP1 SSTORE DUP6 PUSH1 0x1 ADD PUSH1 0x0 DUP7 DUP2 MSTORE PUSH1 0x20 ADD SWAP1 DUP2 MSTORE PUSH1 0x20 ADD PUSH1 0x0 KECCAK256 PUSH1 0x0 SWAP1 SSTORE PUSH1 0x1 SWAP4 POP POP POP POP PUSH2 0x3B9 JUMP JUMPDEST PUSH1 0x0 SWAP2 POP POP PUSH2 0x3B9 JUMP JUMPDEST PUSH1 0x0 DUP3 PUSH1 0x0 ADD DUP3 DUP2 SLOAD DUP2 LT PUSH2 0x1810 JUMPI PUSH2 0x1810 PUSH2 0x1AFB JUMP JUMPDEST SWAP1 PUSH1 0x0 MSTORE PUSH1 0x20 PUSH1 0x0 KECCAK256 ADD SLOAD SWAP1 POP SWAP3 SWAP2 POP POP JUMP JUMPDEST PUSH1 0x0 DUP2 DUP2 MSTORE PUSH1 0x1 DUP4 ADD PUSH1 0x20 MSTORE PUSH1 0x40 DUP2 KECCAK256 SLOAD PUSH2 0x186A JUMPI POP DUP2 SLOAD PUSH1 0x1 DUP2 DUP2 ADD DUP5 SSTORE PUSH1 0x0 DUP5 DUP2 MSTORE PUSH1 0x20 DUP1 DUP3 KECCAK256 SWAP1 SWAP4 ADD DUP5 SWAP1 SSTORE DUP5 SLOAD DUP5 DUP3 MSTORE DUP3 DUP7 ADD SWAP1 SWAP4 MSTORE PUSH1 0x40 SWAP1 KECCAK256 SWAP2 SWAP1 SWAP2 SSTORE PUSH2 0x3B9 JUMP JUMPDEST POP PUSH1 0x0 PUSH2 0x3B9 JUMP JUMPDEST PUSH1 0x0 SLOAD PUSH2 0x100 SWAP1 DIV PUSH1 0xFF AND PUSH2 0x1899 JUMPI PUSH1 0x40 MLOAD PUSH3 0x461BCD PUSH1 0xE5 SHL DUP2 MSTORE PUSH1 0x4 ADD PUSH2 0x975 SWAP1 PUSH2 0x1BBC JUMP JUMPDEST PUSH2 0x8DA CALLER PUSH2 0x1591 JUMP JUMPDEST PUSH1 0x40 MLOAD DUP1 PUSH1 0x80 ADD PUSH1 0x40 MSTORE DUP1 PUSH1 0x0 PUSH1 0x1 PUSH1 0x1 PUSH1 0xA0 SHL SUB AND DUP2 MSTORE PUSH1 0x20 ADD PUSH1 0x0 DUP2 MSTORE PUSH1 0x20 ADD PUSH2 0x18F1 PUSH1 0x40 MLOAD DUP1 PUSH1 0x60 ADD PUSH1 0x40 MSTORE DUP1 PUSH1 0x0 DUP2 MSTORE PUSH1 0x20 ADD PUSH1 0x0 PUSH1 0x1 PUSH1 0x1 PUSH1 0xA0 SHL SUB AND DUP2 MSTORE PUSH1 0x20 ADD PUSH1 0x0 DUP2 MSTORE POP SWAP1 JUMP JUMPDEST DUP2 MSTORE PUSH1 0x0 PUSH1 0x20 SWAP1 SWAP2 ADD MSTORE SWAP1 JUMP JUMPDEST PUSH1 0x0 PUSH1 0x20 DUP3 DUP5 SUB SLT ISZERO PUSH2 0x1910 JUMPI PUSH1 0x0 DUP1 REVERT JUMPDEST DUP2 CALLDATALOAD PUSH1 0x1 PUSH1 0x1 PUSH1 0xE0 SHL SUB NOT DUP2 AND DUP2 EQ PUSH2 0x154A JUMPI PUSH1 0x0 DUP1 REVERT JUMPDEST DUP1 MLOAD PUSH1 0x1 PUSH1 0x1 PUSH1 0xA0 SHL SUB SWAP1 DUP2 AND DUP4 MSTORE PUSH1 0x20 DUP1 DUP4 ADD MLOAD DUP2 DUP6 ADD MSTORE PUSH1 0x40 DUP1 DUP5 ADD MLOAD DUP1 MLOAD DUP3 DUP8 ADD MSTORE SWAP2 DUP3 ADD MLOAD SWAP1 SWAP3 AND PUSH1 0x60 DUP6 ADD MSTORE SWAP1 DUP2 ADD MLOAD PUSH1 0x80 DUP5 ADD MSTORE POP PUSH1 0x60 ADD MLOAD ISZERO ISZERO PUSH1 0xA0 SWAP2 SWAP1 SWAP2 ADD MSTORE JUMP JUMPDEST PUSH1 0x20 DUP1 DUP3 MSTORE DUP3 MLOAD DUP3 DUP3 ADD DUP2 SWAP1 MSTORE PUSH1 0x0 SWAP2 SWAP1 DUP5 DUP3 ADD SWAP1 PUSH1 0x40 DUP6 ADD SWAP1 DUP5 JUMPDEST DUP2 DUP2 LT ISZERO PUSH2 0x19B4 JUMPI PUSH2 0x19A1 DUP4 DUP6 MLOAD PUSH2 0x1928 JUMP JUMPDEST SWAP3 DUP5 ADD SWAP3 PUSH1 0xC0 SWAP3 SWAP1 SWAP3 ADD SWAP2 PUSH1 0x1 ADD PUSH2 0x198E JUMP JUMPDEST POP SWAP1 SWAP7 SWAP6 POP POP POP POP POP POP JUMP JUMPDEST PUSH1 0x1 PUSH1 0x1 PUSH1 0xA0 SHL SUB DUP2 AND DUP2 EQ PUSH2 0x741 JUMPI PUSH1 0x0 DUP1 REVERT JUMPDEST PUSH1 0x0 PUSH1 0x20 DUP3 DUP5 SUB SLT ISZERO PUSH2 0x19E7 JUMPI PUSH1 0x0 DUP1 REVERT JUMPDEST DUP2 CALLDATALOAD PUSH2 0x154A DUP2 PUSH2 0x19C0 JUMP JUMPDEST PUSH1 0x20 DUP1 DUP3 MSTORE DUP3 MLOAD DUP3 DUP3 ADD DUP2 SWAP1 MSTORE PUSH1 0x0 SWAP2 SWAP1 DUP5 DUP3 ADD SWAP1 PUSH1 0x40 DUP6 ADD SWAP1 DUP5 JUMPDEST DUP2 DUP2 LT ISZERO PUSH2 0x19B4 JUMPI DUP4 MLOAD PUSH1 0x1 PUSH1 0x1 PUSH1 0xA0 SHL SUB AND DUP4 MSTORE SWAP3 DUP5 ADD SWAP3 SWAP2 DUP5 ADD SWAP2 PUSH1 0x1 ADD PUSH2 0x1A0E JUMP JUMPDEST PUSH1 0x0 PUSH1 0x20 DUP3 DUP5 SUB SLT ISZERO PUSH2 0x1A45 JUMPI PUSH1 0x0 DUP1 REVERT JUMPDEST POP CALLDATALOAD SWAP2 SWAP1 POP JUMP JUMPDEST PUSH1 0xC0 DUP2 ADD PUSH2 0x3B9 DUP3 DUP5 PUSH2 0x1928 JUMP JUMPDEST PUSH1 0x0 DUP1 PUSH1 0x40 DUP4 DUP6 SUB SLT ISZERO PUSH2 0x1A6D JUMPI PUSH1 0x0 DUP1 REVERT JUMPDEST DUP3 CALLDATALOAD PUSH2 0x1A78 DUP2 PUSH2 0x19C0 JUMP JUMPDEST SWAP5 PUSH1 0x20 SWAP4 SWAP1 SWAP4 ADD CALLDATALOAD SWAP4 POP POP POP JUMP JUMPDEST DUP2 MLOAD DUP2 MSTORE PUSH1 0x20 DUP1 DUP4 ADD MLOAD PUSH1 0x1 PUSH1 0x1 PUSH1 0xA0 SHL SUB AND SWAP1 DUP3 ADD MSTORE PUSH1 0x40 DUP1 DUP4 ADD MLOAD SWAP1 DUP3 ADD MSTORE PUSH1 0x60 DUP2 ADD PUSH2 0x3B9 JUMP JUMPDEST PUSH1 0x0 DUP1 PUSH1 0x0 PUSH1 0x60 DUP5 DUP7 SUB SLT ISZERO PUSH2 0x1AC5 JUMPI PUSH1 0x0 DUP1 REVERT JUMPDEST DUP4 CALLDATALOAD PUSH2 0x1AD0 DUP2 PUSH2 0x19C0 JUMP JUMPDEST SWAP6 PUSH1 0x20 DUP6 ADD CALLDATALOAD SWAP6 POP PUSH1 0x40 SWAP1 SWAP5 ADD CALLDATALOAD SWAP4 SWAP3 POP POP POP JUMP JUMPDEST PUSH4 0x4E487B71 PUSH1 0xE0 SHL PUSH1 0x0 MSTORE PUSH1 0x41 PUSH1 0x4 MSTORE PUSH1 0x24 PUSH1 0x0 REVERT JUMPDEST PUSH4 0x4E487B71 PUSH1 0xE0 SHL PUSH1 0x0 MSTORE PUSH1 0x32 PUSH1 0x4 MSTORE PUSH1 0x24 PUSH1 0x0 REVERT JUMPDEST PUSH4 0x4E487B71 PUSH1 0xE0 SHL PUSH1 0x0 MSTORE PUSH1 0x11 PUSH1 0x4 MSTORE PUSH1 0x24 PUSH1 0x0 REVERT JUMPDEST DUP1 DUP3 ADD DUP1 DUP3 GT ISZERO PUSH2 0x3B9 JUMPI PUSH2 0x3B9 PUSH2 0x1B11 JUMP JUMPDEST PUSH1 0x0 PUSH1 0x1 DUP3 ADD PUSH2 0x1B4C JUMPI PUSH2 0x1B4C PUSH2 0x1B11 JUMP JUMPDEST POP PUSH1 0x1 ADD SWAP1 JUMP JUMPDEST DUP2 DUP2 SUB DUP2 DUP2 GT ISZERO PUSH2 0x3B9 JUMPI PUSH2 0x3B9 PUSH2 0x1B11 JUMP JUMPDEST PUSH1 0x0 PUSH1 0x20 DUP3 DUP5 SUB SLT ISZERO PUSH2 0x1B78 JUMPI PUSH1 0x0 DUP1 REVERT JUMPDEST DUP2 MLOAD PUSH2 0x154A DUP2 PUSH2 0x19C0 JUMP JUMPDEST PUSH1 0x0 DUP3 PUSH2 0x1BA0 JUMPI PUSH4 0x4E487B71 PUSH1 0xE0 SHL PUSH1 0x0 MSTORE PUSH1 0x12 PUSH1 0x4 MSTORE PUSH1 0x24 PUSH1 0x0 REVERT JUMPDEST POP DIV SWAP1 JUMP JUMPDEST DUP1 DUP3 MUL DUP2 ISZERO DUP3 DUP3 DIV DUP5 EQ OR PUSH2 0x3B9 JUMPI PUSH2 0x3B9 PUSH2 0x1B11 JUMP JUMPDEST PUSH1 0x20 DUP1 DUP3 MSTORE PUSH1 0x2B SWAP1 DUP3 ADD MSTORE PUSH32 0x496E697469616C697A61626C653A20636F6E7472616374206973206E6F742069 PUSH1 0x40 DUP3 ADD MSTORE PUSH11 0x6E697469616C697A696E67 PUSH1 0xA8 SHL PUSH1 0x60 DUP3 ADD MSTORE PUSH1 0x80 ADD SWAP1 JUMP JUMPDEST PUSH4 0x4E487B71 PUSH1 0xE0 SHL PUSH1 0x0 MSTORE PUSH1 0x31 PUSH1 0x4 MSTORE PUSH1 0x24 PUSH1 0x0 REVERT INVALID LOG2 PUSH5 0x6970667358 0x22 SLT KECCAK256 0xED 0xB0 LOG3 CALLDATALOAD 0x24 0x4D 0xBA DIV PUSH25 0x772524C1B9D77A95423F0848C5970286534104E536C996473 PUSH16 0x6C634300081100330000000000000000 "},"methodIdentifiers":{"approveAdmin(address)":"6d73e669","buyItem(address,uint256)":"9f37092a","cancelListing(address,uint256)":"b2ddee06","fetchListedMarketItems()":"1fb0080e","fetchMyListings()":"15a70d8d","getAdmins()":"31ae450b","getListing(address,uint256)":"88700d1c","getListingById(uint256)":"4f85310f","initialize()":"8129fc1c","isAdmin(address)":"24d7806c","listItem(address,uint256,uint256)":"89bfd38f","owner()":"8da5cb5b","renounceOwnership()":"715018a6","revokeAdmin(address)":"2d345670","supportsInterface(bytes4)":"01ffc9a7","transferOwnership(address)":"f2fde38b","updateDevWallet(address)":"1816467f","updateListing(address,uint256,uint256)":"f772adf1","withdrawAll(address)":"fa09e630"}},"storageLayout":{"storage":[{"astId":138,"contract":"contracts/ff-mp/MP.sol:FlowFrenzMarketplace","label":"_initialized","offset":0,"slot":"0","type":"t_uint8"},{"astId":141,"contract":"contracts/ff-mp/MP.sol:FlowFrenzMarketplace","label":"_initializing","offset":1,"slot":"0","type":"t_bool"},{"astId":671,"contract":"contracts/ff-mp/MP.sol:FlowFrenzMarketplace","label":"__gap","offset":0,"slot":"1","type":"t_array(t_uint256)50_storage"},{"astId":10,"contract":"contracts/ff-mp/MP.sol:FlowFrenzMarketplace","label":"_owner","offset":0,"slot":"51","type":"t_address"},{"astId":130,"contract":"contracts/ff-mp/MP.sol:FlowFrenzMarketplace","label":"__gap","offset":0,"slot":"52","type":"t_array(t_uint256)49_storage"},{"astId":1352,"contract":"contracts/ff-mp/MP.sol:FlowFrenzMarketplace","label":"_status","offset":0,"slot":"101","type":"t_uint256"},{"astId":5868,"contract":"contracts/ff-mp/MP.sol:FlowFrenzMarketplace","label":"_admins","offset":0,"slot":"102","type":"t_struct(AddressSet)1054_storage"},{"astId":5871,"contract":"contracts/ff-mp/MP.sol:FlowFrenzMarketplace","label":"_devWallet","offset":0,"slot":"104","type":"t_address"},{"astId":6204,"contract":"contracts/ff-mp/MP.sol:FlowFrenzMarketplace","label":"s_listings","offset":0,"slot":"105","type":"t_mapping(t_address,t_mapping(t_uint256,t_struct(Listing)6226_storage))"},{"astId":6208,"contract":"contracts/ff-mp/MP.sol:FlowFrenzMarketplace","label":"s_proceeds","offset":0,"slot":"106","type":"t_mapping(t_address,t_uint256)"},{"astId":6213,"contract":"contracts/ff-mp/MP.sol:FlowFrenzMarketplace","label":"_idToListing","offset":0,"slot":"107","type":"t_mapping(t_uint256,t_struct(ListedItem)6236_storage)"},{"astId":6216,"contract":"contracts/ff-mp/MP.sol:FlowFrenzMarketplace","label":"_totalMpListings","offset":0,"slot":"108","type":"t_struct(Counter)1903_storage"},{"astId":6219,"contract":"contracts/ff-mp/MP.sol:FlowFrenzMarketplace","label":"_totalComplete","offset":0,"slot":"109","type":"t_struct(Counter)1903_storage"}],"types":{"t_address":{"encoding":"inplace","label":"address","numberOfBytes":"20"},"t_array(t_bytes32)dyn_storage":{"base":"t_bytes32","encoding":"dynamic_array","label":"bytes32[]","numberOfBytes":"32"},"t_array(t_uint256)49_storage":{"base":"t_uint256","encoding":"inplace","label":"uint256[49]","numberOfBytes":"1568"},"t_array(t_uint256)50_storage":{"base":"t_uint256","encoding":"inplace","label":"uint256[50]","numberOfBytes":"1600"},"t_bool":{"encoding":"inplace","label":"bool","numberOfBytes":"1"},"t_bytes32":{"encoding":"inplace","label":"bytes32","numberOfBytes":"32"},"t_mapping(t_address,t_mapping(t_uint256,t_struct(Listing)6226_storage))":{"encoding":"mapping","key":"t_address","label":"mapping(address => mapping(uint256 => struct FlowFrenzTransactionMgr.Listing))","numberOfBytes":"32","value":"t_mapping(t_uint256,t_struct(Listing)6226_storage)"},"t_mapping(t_address,t_uint256)":{"encoding":"mapping","key":"t_address","label":"mapping(address => uint256)","numberOfBytes":"32","value":"t_uint256"},"t_mapping(t_bytes32,t_uint256)":{"encoding":"mapping","key":"t_bytes32","label":"mapping(bytes32 => uint256)","numberOfBytes":"32","value":"t_uint256"},"t_mapping(t_uint256,t_struct(ListedItem)6236_storage)":{"encoding":"mapping","key":"t_uint256","label":"mapping(uint256 => struct FlowFrenzTransactionMgr.ListedItem)","numberOfBytes":"32","value":"t_struct(ListedItem)6236_storage"},"t_mapping(t_uint256,t_struct(Listing)6226_storage)":{"encoding":"mapping","key":"t_uint256","label":"mapping(uint256 => struct FlowFrenzTransactionMgr.Listing)","numberOfBytes":"32","value":"t_struct(Listing)6226_storage"},"t_struct(AddressSet)1054_storage":{"encoding":"inplace","label":"struct EnumerableSetUpgradeable.AddressSet","members":[{"astId":1053,"contract":"contracts/ff-mp/MP.sol:FlowFrenzMarketplace","label":"_inner","offset":0,"slot":"0","type":"t_struct(Set)739_storage"}],"numberOfBytes":"64"},"t_struct(Counter)1903_storage":{"encoding":"inplace","label":"struct Counters.Counter","members":[{"astId":1902,"contract":"contracts/ff-mp/MP.sol:FlowFrenzMarketplace","label":"_value","offset":0,"slot":"0","type":"t_uint256"}],"numberOfBytes":"32"},"t_struct(ListedItem)6236_storage":{"encoding":"inplace","label":"struct FlowFrenzTransactionMgr.ListedItem","members":[{"astId":6228,"contract":"contracts/ff-mp/MP.sol:FlowFrenzMarketplace","label":"contractAddress","offset":0,"slot":"0","type":"t_address"},{"astId":6230,"contract":"contracts/ff-mp/MP.sol:FlowFrenzMarketplace","label":"tokenId","offset":0,"slot":"1","type":"t_uint256"},{"astId":6233,"contract":"contracts/ff-mp/MP.sol:FlowFrenzMarketplace","label":"listing","offset":0,"slot":"2","type":"t_struct(Listing)6226_storage"},{"astId":6235,"contract":"contracts/ff-mp/MP.sol:FlowFrenzMarketplace","label":"active","offset":0,"slot":"5","type":"t_bool"}],"numberOfBytes":"192"},"t_struct(Listing)6226_storage":{"encoding":"inplace","label":"struct FlowFrenzTransactionMgr.Listing","members":[{"astId":6221,"contract":"contracts/ff-mp/MP.sol:FlowFrenzMarketplace","label":"price","offset":0,"slot":"0","type":"t_uint256"},{"astId":6223,"contract":"contracts/ff-mp/MP.sol:FlowFrenzMarketplace","label":"seller","offset":0,"slot":"1","type":"t_address"},{"astId":6225,"contract":"contracts/ff-mp/MP.sol:FlowFrenzMarketplace","label":"listingId","offset":0,"slot":"2","type":"t_uint256"}],"numberOfBytes":"96"},"t_struct(Set)739_storage":{"encoding":"inplace","label":"struct EnumerableSetUpgradeable.Set","members":[{"astId":734,"contract":"contracts/ff-mp/MP.sol:FlowFrenzMarketplace","label":"_values","offset":0,"slot":"0","type":"t_array(t_bytes32)dyn_storage"},{"astId":738,"contract":"contracts/ff-mp/MP.sol:FlowFrenzMarketplace","label":"_indexes","offset":0,"slot":"1","type":"t_mapping(t_bytes32,t_uint256)"}],"numberOfBytes":"64"},"t_uint256":{"encoding":"inplace","label":"uint256","numberOfBytes":"32"},"t_uint8":{"encoding":"inplace","label":"uint8","numberOfBytes":"1"}}}}}}