{
  "_format": "hh-sol-artifact-1",
  "contractName": "StonkSock",
  "sourceName": "contracts/StonkSock/StonkSock.sol",
  "abi": [
    {
      "inputs": [],
      "stateMutability": "nonpayable",
      "type": "constructor"
    },
    {
      "anonymous": false,
      "inputs": [
        {
          "indexed": true,
          "internalType": "address",
          "name": "owner",
          "type": "address"
        },
        {
          "indexed": true,
          "internalType": "address",
          "name": "approved",
          "type": "address"
        },
        {
          "indexed": true,
          "internalType": "uint256",
          "name": "tokenId",
          "type": "uint256"
        }
      ],
      "name": "Approval",
      "type": "event"
    },
    {
      "anonymous": false,
      "inputs": [
        {
          "indexed": true,
          "internalType": "address",
          "name": "owner",
          "type": "address"
        },
        {
          "indexed": true,
          "internalType": "address",
          "name": "operator",
          "type": "address"
        },
        {
          "indexed": false,
          "internalType": "bool",
          "name": "approved",
          "type": "bool"
        }
      ],
      "name": "ApprovalForAll",
      "type": "event"
    },
    {
      "anonymous": false,
      "inputs": [
        {
          "indexed": false,
          "internalType": "uint256",
          "name": "_fromTokenId",
          "type": "uint256"
        },
        {
          "indexed": false,
          "internalType": "uint256",
          "name": "_toTokenId",
          "type": "uint256"
        }
      ],
      "name": "BatchMetadataUpdate",
      "type": "event"
    },
    {
      "anonymous": false,
      "inputs": [
        {
          "indexed": true,
          "internalType": "uint256",
          "name": "id",
          "type": "uint256"
        }
      ],
      "name": "CreateNft",
      "type": "event"
    },
    {
      "anonymous": false,
      "inputs": [
        {
          "indexed": false,
          "internalType": "uint256",
          "name": "_tokenId",
          "type": "uint256"
        }
      ],
      "name": "MetadataUpdate",
      "type": "event"
    },
    {
      "anonymous": false,
      "inputs": [
        {
          "indexed": true,
          "internalType": "address",
          "name": "previousOwner",
          "type": "address"
        },
        {
          "indexed": true,
          "internalType": "address",
          "name": "newOwner",
          "type": "address"
        }
      ],
      "name": "OwnershipTransferred",
      "type": "event"
    },
    {
      "anonymous": false,
      "inputs": [
        {
          "indexed": false,
          "internalType": "address",
          "name": "account",
          "type": "address"
        }
      ],
      "name": "Paused",
      "type": "event"
    },
    {
      "anonymous": false,
      "inputs": [
        {
          "indexed": true,
          "internalType": "address",
          "name": "from",
          "type": "address"
        },
        {
          "indexed": true,
          "internalType": "address",
          "name": "to",
          "type": "address"
        },
        {
          "indexed": true,
          "internalType": "uint256",
          "name": "tokenId",
          "type": "uint256"
        }
      ],
      "name": "Transfer",
      "type": "event"
    },
    {
      "anonymous": false,
      "inputs": [
        {
          "indexed": false,
          "internalType": "address",
          "name": "account",
          "type": "address"
        }
      ],
      "name": "Unpaused",
      "type": "event"
    },
    {
      "inputs": [],
      "name": "MAX_MINT_PRESALE",
      "outputs": [
        {
          "internalType": "uint256",
          "name": "",
          "type": "uint256"
        }
      ],
      "stateMutability": "view",
      "type": "function"
    },
    {
      "inputs": [],
      "name": "MAX_PER_WALLET",
      "outputs": [
        {
          "internalType": "uint256",
          "name": "",
          "type": "uint256"
        }
      ],
      "stateMutability": "view",
      "type": "function"
    },
    {
      "inputs": [],
      "name": "MINT_LIMIT",
      "outputs": [
        {
          "internalType": "uint256",
          "name": "",
          "type": "uint256"
        }
      ],
      "stateMutability": "view",
      "type": "function"
    },
    {
      "inputs": [],
      "name": "PRESALE_PRICE",
      "outputs": [
        {
          "internalType": "uint256",
          "name": "",
          "type": "uint256"
        }
      ],
      "stateMutability": "view",
      "type": "function"
    },
    {
      "inputs": [],
      "name": "PRESAL_LIMIT",
      "outputs": [
        {
          "internalType": "uint256",
          "name": "",
          "type": "uint256"
        }
      ],
      "stateMutability": "view",
      "type": "function"
    },
    {
      "inputs": [],
      "name": "PRICE",
      "outputs": [
        {
          "internalType": "uint256",
          "name": "",
          "type": "uint256"
        }
      ],
      "stateMutability": "view",
      "type": "function"
    },
    {
      "inputs": [
        {
          "internalType": "address",
          "name": "to",
          "type": "address"
        },
        {
          "internalType": "uint256",
          "name": "tokenId",
          "type": "uint256"
        }
      ],
      "name": "approve",
      "outputs": [],
      "stateMutability": "nonpayable",
      "type": "function"
    },
    {
      "inputs": [
        {
          "internalType": "address",
          "name": "owner",
          "type": "address"
        }
      ],
      "name": "balanceOf",
      "outputs": [
        {
          "internalType": "uint256",
          "name": "",
          "type": "uint256"
        }
      ],
      "stateMutability": "view",
      "type": "function"
    },
    {
      "inputs": [],
      "name": "baseTokenURI",
      "outputs": [
        {
          "internalType": "string",
          "name": "",
          "type": "string"
        }
      ],
      "stateMutability": "view",
      "type": "function"
    },
    {
      "inputs": [],
      "name": "contractURI",
      "outputs": [
        {
          "internalType": "string",
          "name": "",
          "type": "string"
        }
      ],
      "stateMutability": "pure",
      "type": "function"
    },
    {
      "inputs": [],
      "name": "devAddress",
      "outputs": [
        {
          "internalType": "address",
          "name": "",
          "type": "address"
        }
      ],
      "stateMutability": "view",
      "type": "function"
    },
    {
      "inputs": [
        {
          "internalType": "uint256",
          "name": "tokenId",
          "type": "uint256"
        }
      ],
      "name": "getApproved",
      "outputs": [
        {
          "internalType": "address",
          "name": "",
          "type": "address"
        }
      ],
      "stateMutability": "view",
      "type": "function"
    },
    {
      "inputs": [
        {
          "internalType": "address[]",
          "name": "addresses",
          "type": "address[]"
        }
      ],
      "name": "invalidatePresale",
      "outputs": [],
      "stateMutability": "nonpayable",
      "type": "function"
    },
    {
      "inputs": [
        {
          "internalType": "address",
          "name": "owner",
          "type": "address"
        },
        {
          "internalType": "address",
          "name": "operator",
          "type": "address"
        }
      ],
      "name": "isApprovedForAll",
      "outputs": [
        {
          "internalType": "bool",
          "name": "",
          "type": "bool"
        }
      ],
      "stateMutability": "view",
      "type": "function"
    },
    {
      "inputs": [
        {
          "internalType": "address",
          "name": "_to",
          "type": "address"
        },
        {
          "internalType": "uint256",
          "name": "startId",
          "type": "uint256"
        },
        {
          "internalType": "string[]",
          "name": "URIs",
          "type": "string[]"
        }
      ],
      "name": "mint",
      "outputs": [
        {
          "internalType": "uint256[]",
          "name": "ids",
          "type": "uint256[]"
        }
      ],
      "stateMutability": "payable",
      "type": "function"
    },
    {
      "inputs": [
        {
          "internalType": "address",
          "name": "_to",
          "type": "address"
        },
        {
          "internalType": "uint256",
          "name": "startId",
          "type": "uint256"
        },
        {
          "internalType": "string[]",
          "name": "URIs",
          "type": "string[]"
        }
      ],
      "name": "mintReserve",
      "outputs": [],
      "stateMutability": "nonpayable",
      "type": "function"
    },
    {
      "inputs": [],
      "name": "name",
      "outputs": [
        {
          "internalType": "string",
          "name": "",
          "type": "string"
        }
      ],
      "stateMutability": "view",
      "type": "function"
    },
    {
      "inputs": [],
      "name": "owner",
      "outputs": [
        {
          "internalType": "address",
          "name": "",
          "type": "address"
        }
      ],
      "stateMutability": "view",
      "type": "function"
    },
    {
      "inputs": [
        {
          "internalType": "uint256",
          "name": "tokenId",
          "type": "uint256"
        }
      ],
      "name": "ownerOf",
      "outputs": [
        {
          "internalType": "address",
          "name": "",
          "type": "address"
        }
      ],
      "stateMutability": "view",
      "type": "function"
    },
    {
      "inputs": [],
      "name": "paused",
      "outputs": [
        {
          "internalType": "bool",
          "name": "",
          "type": "bool"
        }
      ],
      "stateMutability": "view",
      "type": "function"
    },
    {
      "inputs": [
        {
          "internalType": "address",
          "name": "_to",
          "type": "address"
        },
        {
          "internalType": "uint256",
          "name": "startId",
          "type": "uint256"
        },
        {
          "internalType": "string[]",
          "name": "URIs",
          "type": "string[]"
        }
      ],
      "name": "presaleMint",
      "outputs": [
        {
          "internalType": "uint256[]",
          "name": "ids",
          "type": "uint256[]"
        }
      ],
      "stateMutability": "payable",
      "type": "function"
    },
    {
      "inputs": [
        {
          "internalType": "uint256",
          "name": "_count",
          "type": "uint256"
        }
      ],
      "name": "price",
      "outputs": [
        {
          "internalType": "uint256",
          "name": "",
          "type": "uint256"
        }
      ],
      "stateMutability": "view",
      "type": "function"
    },
    {
      "inputs": [],
      "name": "renounceOwnership",
      "outputs": [],
      "stateMutability": "nonpayable",
      "type": "function"
    },
    {
      "inputs": [
        {
          "internalType": "address",
          "name": "from",
          "type": "address"
        },
        {
          "internalType": "address",
          "name": "to",
          "type": "address"
        },
        {
          "internalType": "uint256",
          "name": "tokenId",
          "type": "uint256"
        }
      ],
      "name": "safeTransferFrom",
      "outputs": [],
      "stateMutability": "nonpayable",
      "type": "function"
    },
    {
      "inputs": [
        {
          "internalType": "address",
          "name": "from",
          "type": "address"
        },
        {
          "internalType": "address",
          "name": "to",
          "type": "address"
        },
        {
          "internalType": "uint256",
          "name": "tokenId",
          "type": "uint256"
        },
        {
          "internalType": "bytes",
          "name": "data",
          "type": "bytes"
        }
      ],
      "name": "safeTransferFrom",
      "outputs": [],
      "stateMutability": "nonpayable",
      "type": "function"
    },
    {
      "inputs": [
        {
          "internalType": "address",
          "name": "operator",
          "type": "address"
        },
        {
          "internalType": "bool",
          "name": "approved",
          "type": "bool"
        }
      ],
      "name": "setApprovalForAll",
      "outputs": [],
      "stateMutability": "nonpayable",
      "type": "function"
    },
    {
      "inputs": [
        {
          "internalType": "string",
          "name": "baseURI",
          "type": "string"
        }
      ],
      "name": "setBaseURI",
      "outputs": [],
      "stateMutability": "nonpayable",
      "type": "function"
    },
    {
      "inputs": [
        {
          "internalType": "address[]",
          "name": "addresses",
          "type": "address[]"
        }
      ],
      "name": "setPresaleAddress",
      "outputs": [],
      "stateMutability": "nonpayable",
      "type": "function"
    },
    {
      "inputs": [
        {
          "internalType": "bytes4",
          "name": "interfaceId",
          "type": "bytes4"
        }
      ],
      "name": "supportsInterface",
      "outputs": [
        {
          "internalType": "bool",
          "name": "",
          "type": "bool"
        }
      ],
      "stateMutability": "view",
      "type": "function"
    },
    {
      "inputs": [],
      "name": "symbol",
      "outputs": [
        {
          "internalType": "string",
          "name": "",
          "type": "string"
        }
      ],
      "stateMutability": "view",
      "type": "function"
    },
    {
      "inputs": [],
      "name": "togglePresale",
      "outputs": [],
      "stateMutability": "nonpayable",
      "type": "function"
    },
    {
      "inputs": [],
      "name": "toggleSale",
      "outputs": [],
      "stateMutability": "nonpayable",
      "type": "function"
    },
    {
      "inputs": [
        {
          "internalType": "uint256",
          "name": "index",
          "type": "uint256"
        }
      ],
      "name": "tokenByIndex",
      "outputs": [
        {
          "internalType": "uint256",
          "name": "",
          "type": "uint256"
        }
      ],
      "stateMutability": "view",
      "type": "function"
    },
    {
      "inputs": [
        {
          "internalType": "address",
          "name": "owner",
          "type": "address"
        },
        {
          "internalType": "uint256",
          "name": "index",
          "type": "uint256"
        }
      ],
      "name": "tokenOfOwnerByIndex",
      "outputs": [
        {
          "internalType": "uint256",
          "name": "",
          "type": "uint256"
        }
      ],
      "stateMutability": "view",
      "type": "function"
    },
    {
      "inputs": [
        {
          "internalType": "uint256",
          "name": "tokenId",
          "type": "uint256"
        }
      ],
      "name": "tokenURI",
      "outputs": [
        {
          "internalType": "string",
          "name": "",
          "type": "string"
        }
      ],
      "stateMutability": "view",
      "type": "function"
    },
    {
      "inputs": [],
      "name": "totalMint",
      "outputs": [
        {
          "internalType": "uint256",
          "name": "",
          "type": "uint256"
        }
      ],
      "stateMutability": "view",
      "type": "function"
    },
    {
      "inputs": [],
      "name": "totalSupply",
      "outputs": [
        {
          "internalType": "uint256",
          "name": "",
          "type": "uint256"
        }
      ],
      "stateMutability": "view",
      "type": "function"
    },
    {
      "inputs": [
        {
          "internalType": "address",
          "name": "from",
          "type": "address"
        },
        {
          "internalType": "address",
          "name": "to",
          "type": "address"
        },
        {
          "internalType": "uint256",
          "name": "tokenId",
          "type": "uint256"
        }
      ],
      "name": "transferFrom",
      "outputs": [],
      "stateMutability": "nonpayable",
      "type": "function"
    },
    {
      "inputs": [
        {
          "internalType": "address",
          "name": "newOwner",
          "type": "address"
        }
      ],
      "name": "transferOwnership",
      "outputs": [],
      "stateMutability": "nonpayable",
      "type": "function"
    },
    {
      "inputs": [],
      "name": "withdrawAll",
      "outputs": [],
      "stateMutability": "payable",
      "type": "function"
    }
  ],
  "bytecode": "0x60806040523480156200001157600080fd5b506040518060400160405280600981526020016853746f6e6b536f636b60b81b81525060405180604001604052806004815260200163534f434b60e01b81525081600090816200006291906200024f565b5060016200007182826200024f565b5050506200008e62000088620000d560201b60201c565b620000d9565b600a805460ff60a01b19169055604080518082019091526007815266697066733a2f2f60c81b6020820152620000c4906200012b565b600d805461ffff191690556200031b565b3390565b600a80546001600160a01b038381166001600160a01b0319831681179093556040519116919082907f8be0079c531659141344cd1fd0a4f28419497f9722a3daafe3b4186f6b6457e090600090a35050565b6200013562000147565b600e6200014382826200024f565b5050565b600a546001600160a01b03163314620001a65760405162461bcd60e51b815260206004820181905260248201527f4f776e61626c653a2063616c6c6572206973206e6f7420746865206f776e6572604482015260640160405180910390fd5b565b634e487b7160e01b600052604160045260246000fd5b600181811c90821680620001d357607f821691505b602082108103620001f457634e487b7160e01b600052602260045260246000fd5b50919050565b601f8211156200024a576000816000526020600020601f850160051c81016020861015620002255750805b601f850160051c820191505b81811015620002465782815560010162000231565b5050505b505050565b81516001600160401b038111156200026b576200026b620001a8565b62000283816200027c8454620001be565b84620001fa565b602080601f831160018114620002bb5760008415620002a25750858301515b600019600386901b1c1916600185901b17855562000246565b600085815260208120601f198616915b82811015620002ec57888601518255948401946001909101908401620002cb565b50858210156200030b5787850151600019600388901b60f8161c191681555b5050505050600190811b01905550565b612ead806200032b6000396000f3fe60806040526004361061023b5760003560e01c806362dc6e211161012e578063a22cb465116100ab578063d547cfb71161006f578063d547cfb714610648578063d833c1a11461065d578063e8a3d4851461067d578063e985e9c514610692578063f2fde38b146106db57600080fd5b8063a22cb465146105bf578063a9980870146105df578063b3b917c5146105f2578063b88d4fde14610608578063c87b56dd1461062857600080fd5b80637e95eac4116100f25780637e95eac414610555578063853828b61461056a5780638d859f3e146105725780638da5cb5b1461058c57806395d89b41146105aa57600080fd5b806362dc6e21146104d05780636352211e146104eb57806370a082311461050b578063715018a61461052b5780637d8966e41461054057600080fd5b80632f745c59116101bc5780634f6ccce7116101805780634f6ccce71461043c57806355f804b31461045c57806359a7715a1461047c5780635c975abb1461049157806362b3d944146104b057600080fd5b80632f745c591461039f57806332fe9b44146103bf57806334393743146103df5780633ad10ef6146103f457806342842e0e1461041c57600080fd5b80630f2cdd6c116102035780630f2cdd6c1461031557806318160ddd1461032a57806322df11d81461033f57806323b872dd1461035f57806326a49e371461037f57600080fd5b806301ffc9a714610240578063027752401461027557806306fdde0314610299578063081812fc146102bb578063095ea7b3146102f3575b600080fd5b34801561024c57600080fd5b5061026061025b36600461263b565b6106fb565b60405190151581526020015b60405180910390f35b34801561028157600080fd5b5061028b6107e681565b60405190815260200161026c565b3480156102a557600080fd5b506102ae61070c565b60405161026c91906126a8565b3480156102c757600080fd5b506102db6102d63660046126bb565b61079e565b6040516001600160a01b03909116815260200161026c565b3480156102ff57600080fd5b5061031361030e3660046126f0565b6107c5565b005b34801561032157600080fd5b5061028b601481565b34801561033657600080fd5b5060085461028b565b61035261034d3660046127d9565b6108df565b60405161026c91906128b8565b34801561036b57600080fd5b5061031361037a3660046128fc565b610b29565b34801561038b57600080fd5b5061028b61039a3660046126bb565b610b5a565b3480156103ab57600080fd5b5061028b6103ba3660046126f0565b610b9d565b3480156103cb57600080fd5b506103136103da366004612938565b610c33565b3480156103eb57600080fd5b50610313610d1b565b34801561040057600080fd5b506102db7328cc536e3c340c4d3a9ba751a3fb970d1867f4a481565b34801561042857600080fd5b506103136104373660046128fc565b610d37565b34801561044857600080fd5b5061028b6104573660046126bb565b610d52565b34801561046857600080fd5b506103136104773660046129ad565b610de5565b34801561048857600080fd5b5061028b610dfd565b34801561049d57600080fd5b50600a54600160a01b900460ff16610260565b3480156104bc57600080fd5b506103136104cb3660046127d9565b610e0c565b3480156104dc57600080fd5b5061028b666a94d74f43000081565b3480156104f757600080fd5b506102db6105063660046126bb565b610ed0565b34801561051757600080fd5b5061028b6105263660046129e2565b610f30565b34801561053757600080fd5b50610313610fb6565b34801561054c57600080fd5b50610313610fca565b34801561056157600080fd5b5061028b600581565b610313610ff3565b34801561057e57600080fd5b5061028b655af3107a400081565b34801561059857600080fd5b50600a546001600160a01b03166102db565b3480156105b657600080fd5b506102ae611027565b3480156105cb57600080fd5b506103136105da3660046129fd565b611036565b6103526105ed3660046127d9565b611041565b3480156105fe57600080fd5b5061028b6101f481565b34801561061457600080fd5b50610313610623366004612a39565b611340565b34801561063457600080fd5b506102ae6106433660046126bb565b611378565b34801561065457600080fd5b506102ae611383565b34801561066957600080fd5b50610313610678366004612938565b611411565b34801561068957600080fd5b506102ae6115a1565b34801561069e57600080fd5b506102606106ad366004612ab5565b6001600160a01b03918216600090815260056020908152604080832093909416825291909152205460ff1690565b3480156106e757600080fd5b506103136106f63660046129e2565b6115c1565b600061070682611637565b92915050565b60606000805461071b90612ae8565b80601f016020809104026020016040519081016040528092919081815260200182805461074790612ae8565b80156107945780601f1061076957610100808354040283529160200191610794565b820191906000526020600020905b81548152906001019060200180831161077757829003601f168201915b5050505050905090565b60006107a98261165c565b506000908152600460205260409020546001600160a01b031690565b60006107d082610ed0565b9050806001600160a01b0316836001600160a01b0316036108425760405162461bcd60e51b815260206004820152602160248201527f4552433732313a20617070726f76616c20746f2063757272656e74206f776e656044820152603960f91b60648201526084015b60405180910390fd5b336001600160a01b038216148061085e575061085e81336106ad565b6108d05760405162461bcd60e51b815260206004820152603d60248201527f4552433732313a20617070726f76652063616c6c6572206973206e6f7420746f60448201527f6b656e206f776e6572206f7220617070726f76656420666f7220616c6c0000006064820152608401610839565b6108da83836116bb565b505050565b60606107e66108ec611729565b106109265760405162461bcd60e51b815260206004820152600a60248201526914d85b1948195b99195960b21b6044820152606401610839565b600a546001600160a01b0316331461098557600d5460ff6101009091041615156001146109855760405162461bcd60e51b815260206004820152600d60248201526c53616c65204e6f74204c69766560981b6044820152606401610839565b81516107e681610993611729565b61099d9190612b38565b106109ff5760405162461bcd60e51b815260206004820152602c60248201527f4e6f7420656e6f75676820546f6b656e732072656d61696e696e6720666f722060448201526b1d1a1a5cc814995c5d595cdd60a21b6064820152608401610839565b6014610a0a86610f30565b610a149083612b38565b1115610a575760405162461bcd60e51b815260206004820152601260248201527122bc31b2b2b2399026b0bc10273ab6b132b960711b6044820152606401610839565b610a6081610b5a565b341015610aaf5760405162461bcd60e51b815260206004820152601b60248201527f496e73756666696369656e742046756e647320466f72204d696e7400000000006044820152606401610839565b60005b81811015610b2057610ac48186612b38565b610acc611729565b610ad7906001612b38565b14610af45760405162461bcd60e51b815260040161083990612b4b565b610b1786858381518110610b0a57610b0a612b6f565b6020026020010151611734565b50600101610ab2565b50509392505050565b610b33338261179a565b610b4f5760405162461bcd60e51b815260040161083990612b85565b6108da838383611819565b600d5460009060ff1615610b8d57600d54610100900460ff161515600003610b8d57610706666a94d74f4300008361198a565b610706655af3107a40008361198a565b6000610ba883610f30565b8210610c0a5760405162461bcd60e51b815260206004820152602b60248201527f455243373231456e756d657261626c653a206f776e657220696e646578206f7560448201526a74206f6620626f756e647360a81b6064820152608401610839565b506001600160a01b03919091166000908152600660209081526040808320938352929052205490565b610c3b61199d565b60005b818110156108da576000838383818110610c5a57610c5a612b6f565b9050602002016020810190610c6f91906129e2565b6001600160a01b031603610cbe5760405162461bcd60e51b8152602060048201526016602482015275496e76616c69642057616c6c6574204164647265737360501b6044820152606401610839565b6000600f6000858585818110610cd657610cd6612b6f565b9050602002016020810190610ceb91906129e2565b6001600160a01b031681526020810191909152604001600020805460ff1916911515919091179055600101610c3e565b610d2361199d565b600d805460ff19811660ff90911615179055565b6108da83838360405180602001604052806000815250611340565b6000610d5d60085490565b8210610dc05760405162461bcd60e51b815260206004820152602c60248201527f455243373231456e756d657261626c653a20676c6f62616c20696e646578206f60448201526b7574206f6620626f756e647360a01b6064820152608401610839565b60088281548110610dd357610dd3612b6f565b90600052602060002001549050919050565b610ded61199d565b600e610df98282612c22565b5050565b6000610e07611729565b905090565b610e1461199d565b80516107e681610e22611729565b610e2c9190612b38565b10610e655760405162461bcd60e51b815260206004820152600960248201526813585e081b1a5b5a5d60ba1b6044820152606401610839565b60005b81811015610ec957610e7a8185612b38565b610e82611729565b610e8d906001612b38565b14610eaa5760405162461bcd60e51b815260040161083990612b4b565b610ec085848381518110610b0a57610b0a612b6f565b50600101610e68565b5050505050565b6000818152600260205260408120546001600160a01b0316806107065760405162461bcd60e51b8152602060048201526018602482015277115490cdcc8c4e881a5b9d985b1a59081d1bdad95b88125160421b6044820152606401610839565b60006001600160a01b038216610f9a5760405162461bcd60e51b815260206004820152602960248201527f4552433732313a2061646472657373207a65726f206973206e6f7420612076616044820152683634b21037bbb732b960b91b6064820152608401610839565b506001600160a01b031660009081526003602052604090205490565b610fbe61199d565b610fc860006119f7565b565b610fd261199d565b600d805461ffff1981166101009182900460ff161590910260ff1916179055565b610ffb61199d565b478061100657600080fd5b6110247328cc536e3c340c4d3a9ba751a3fb970d1867f4a447611a49565b50565b60606001805461071b90612ae8565b610df9338383611adf565b60606107e661104e611729565b1061108b5760405162461bcd60e51b815260206004820152600d60248201526c141c995cd85b1948195b991959609a1b6044820152606401610839565b600a546001600160a01b031633146110e757600d5460ff1615156001146110e75760405162461bcd60e51b815260206004820152601060248201526f50726573616c65204e6f74204c69766560801b6044820152606401610839565b8151600d5460ff1615156001146111355760405162461bcd60e51b815260206004820152601260248201527153616c65206973206e6f742041637469766560701b6044820152606401610839565b6001600160a01b0385166000908152600f602052604090205460ff166111a95760405162461bcd60e51b815260206004820152602360248201527f41646472657373204e6f742057686974656c697374656420666f722050726573604482015262616c6560e81b6064820152608401610839565b6005816111b587610f30565b6111bf9190612b38565b11156111fd5760405162461bcd60e51b815260206004820152600d60248201526c4d617820352050726573616c6560981b6044820152606401610839565b6101f481611209611729565b6112139190612b38565b106112545760405162461bcd60e51b8152602060048201526011602482015270141c995cd85b194813585e08131a5b5a5d607a1b6044820152606401610839565b61125d81610b5a565b3410156112ac5760405162461bcd60e51b815260206004820152601b60248201527f496e73756666696369656e742046756e647320466f72204d696e7400000000006044820152606401610839565b60005b81811015610b20576112c18186612b38565b6112c9611729565b6112d4906001612b38565b146112f15760405162461bcd60e51b815260040161083990612b4b565b6001600160a01b038616600090815260106020526040812080546001929061131a908490612b38565b9250508190555061133786858381518110610b0a57610b0a612b6f565b506001016112af565b61134a338361179a565b6113665760405162461bcd60e51b815260040161083990612b85565b61137284848484611bad565b50505050565b606061070682611be0565b600e805461139090612ae8565b80601f01602080910402602001604051908101604052809291908181526020018280546113bc90612ae8565b80156114095780601f106113de57610100808354040283529160200191611409565b820191906000526020600020905b8154815290600101906020018083116113ec57829003601f168201915b505050505081565b61141961199d565b60005b818110156108da57600083838381811061143857611438612b6f565b905060200201602081019061144d91906129e2565b6001600160a01b03160361149c5760405162461bcd60e51b8152602060048201526016602482015275496e76616c69642057616c6c6574204164647265737360501b6044820152606401610839565b6001600f60008585858181106114b4576114b4612b6f565b90506020020160208101906114c991906129e2565b6001600160a01b0316815260208101919091526040016000908120805460ff19169215159290921790915560108185858581811061150957611509612b6f565b905060200201602081019061151e91906129e2565b6001600160a01b03166001600160a01b03168152602001908152602001600020541161154b576000611598565b6010600084848481811061156157611561612b6f565b905060200201602081019061157691906129e2565b6001600160a01b03166001600160a01b03168152602001908152602001600020545b5060010161141c565b6060604051806060016040528060358152602001612e4360359139905090565b6115c961199d565b6001600160a01b03811661162e5760405162461bcd60e51b815260206004820152602660248201527f4f776e61626c653a206e6577206f776e657220697320746865207a65726f206160448201526564647265737360d01b6064820152608401610839565b611024816119f7565b60006001600160e01b03198216632483248360e11b1480610706575061070682611cdb565b6000818152600260205260409020546001600160a01b03166110245760405162461bcd60e51b8152602060048201526018602482015277115490cdcc8c4e881a5b9d985b1a59081d1bdad95b88125160421b6044820152606401610839565b600081815260046020526040902080546001600160a01b0319166001600160a01b03841690811790915581906116f082610ed0565b6001600160a01b03167f8c5be1e5ebec7d5bd14f71427d1e84f3dd0314c0f7b2291e5b200ac8c7c3b92560405160405180910390a45050565b6000610e07600c5490565b6000611744600c80546001019055565b600061174f600c5490565b905061175b8482611d00565b6117658184611d1a565b604051819081907fae961ff6d5a7a370a260744cbe7a5673f66e447235958db5c213c33f4b08ca1490600090a2949350505050565b6000806117a683610ed0565b9050806001600160a01b0316846001600160a01b031614806117ed57506001600160a01b0380821660009081526005602090815260408083209388168352929052205460ff165b806118115750836001600160a01b03166118068461079e565b6001600160a01b0316145b949350505050565b826001600160a01b031661182c82610ed0565b6001600160a01b0316146118525760405162461bcd60e51b815260040161083990612ce2565b6001600160a01b0382166118b45760405162461bcd60e51b8152602060048201526024808201527f4552433732313a207472616e7366657220746f20746865207a65726f206164646044820152637265737360e01b6064820152608401610839565b6118c18383836001611de5565b826001600160a01b03166118d482610ed0565b6001600160a01b0316146118fa5760405162461bcd60e51b815260040161083990612ce2565b600081815260046020908152604080832080546001600160a01b03199081169091556001600160a01b0387811680865260038552838620805460001901905590871680865283862080546001019055868652600290945282852080549092168417909155905184937fddf252ad1be2c89b69c2b068fc378daa952ba7f163c4a11628f55a4df523b3ef91a4505050565b60006119968284612d27565b9392505050565b600a546001600160a01b03163314610fc85760405162461bcd60e51b815260206004820181905260248201527f4f776e61626c653a2063616c6c6572206973206e6f7420746865206f776e65726044820152606401610839565b600a80546001600160a01b038381166001600160a01b0319831681179093556040519116919082907f8be0079c531659141344cd1fd0a4f28419497f9722a3daafe3b4186f6b6457e090600090a35050565b6000826001600160a01b03168260405160006040518083038185875af1925050503d8060008114611a96576040519150601f19603f3d011682016040523d82523d6000602084013e611a9b565b606091505b50509050806108da5760405162461bcd60e51b815260206004820152601060248201526f2a3930b739b332b9103330b4b632b21760811b6044820152606401610839565b816001600160a01b0316836001600160a01b031603611b405760405162461bcd60e51b815260206004820152601960248201527f4552433732313a20617070726f766520746f2063616c6c6572000000000000006044820152606401610839565b6001600160a01b03838116600081815260056020908152604080832094871680845294825291829020805460ff191686151590811790915591519182527f17307eab39ab6107e8899845ad3d59bd9653f200f220920489ca2b5937696c31910160405180910390a3505050565b611bb8848484611819565b611bc484848484611df1565b6113725760405162461bcd60e51b815260040161083990612d3e565b6060611beb8261165c565b6000828152600b602052604081208054611c0490612ae8565b80601f0160208091040260200160405190810160405280929190818152602001828054611c3090612ae8565b8015611c7d5780601f10611c5257610100808354040283529160200191611c7d565b820191906000526020600020905b815481529060010190602001808311611c6057829003601f168201915b505050505090506000611c8e611ef2565b90508051600003611ca0575092915050565b815115611cd2578082604051602001611cba929190612d90565b60405160208183030381529060405292505050919050565b61181184611f01565b60006001600160e01b0319821663780e9d6360e01b1480610706575061070682611f67565b610df9828260405180602001604052806000815250611fb7565b6000828152600260205260409020546001600160a01b0316611d955760405162461bcd60e51b815260206004820152602e60248201527f45524337323155524953746f726167653a2055524920736574206f66206e6f6e60448201526d32bc34b9ba32b73a103a37b5b2b760911b6064820152608401610839565b6000828152600b60205260409020611dad8282612c22565b506040518281527ff8e1a15aba9398e019f0b49df1a4fde98ee17ae345cb5f6b5e2c27f5033e8ce79060200160405180910390a15050565b61137284848484611fea565b60006001600160a01b0384163b15611ee757604051630a85bd0160e11b81526001600160a01b0385169063150b7a0290611e35903390899088908890600401612dbf565b6020604051808303816000875af1925050508015611e70575060408051601f3d908101601f19168201909252611e6d91810190612dfc565b60015b611ecd573d808015611e9e576040519150601f19603f3d011682016040523d82523d6000602084013e611ea3565b606091505b508051600003611ec55760405162461bcd60e51b815260040161083990612d3e565b805181602001fd5b6001600160e01b031916630a85bd0160e11b149050611811565b506001949350505050565b6060600e805461071b90612ae8565b6060611f0c8261165c565b6000611f16611ef2565b90506000815111611f365760405180602001604052806000815250611996565b80611f4084612064565b604051602001611f51929190612d90565b6040516020818303038152906040529392505050565b60006001600160e01b031982166380ac58cd60e01b1480611f9857506001600160e01b03198216635b5e139f60e01b145b8061070657506301ffc9a760e01b6001600160e01b0319831614610706565b611fc183836120f7565b611fce6000848484611df1565b6108da5760405162461bcd60e51b815260040161083990612d3e565b611ff684848484612290565b600a54600160a01b900460ff16156113725760405162461bcd60e51b815260206004820152602b60248201527f4552433732315061757361626c653a20746f6b656e207472616e73666572207760448201526a1a1a5b19481c185d5cd95960aa1b6064820152608401610839565b60606000612071836123bd565b600101905060008167ffffffffffffffff8111156120915761209161271a565b6040519080825280601f01601f1916602001820160405280156120bb576020820181803683370190505b5090508181016020015b600019016f181899199a1a9b1b9c1cb0b131b232b360811b600a86061a8153600a85049450846120c557509392505050565b6001600160a01b03821661214d5760405162461bcd60e51b815260206004820181905260248201527f4552433732313a206d696e7420746f20746865207a65726f20616464726573736044820152606401610839565b6000818152600260205260409020546001600160a01b0316156121b25760405162461bcd60e51b815260206004820152601c60248201527f4552433732313a20746f6b656e20616c7265616479206d696e746564000000006044820152606401610839565b6121c0600083836001611de5565b6000818152600260205260409020546001600160a01b0316156122255760405162461bcd60e51b815260206004820152601c60248201527f4552433732313a20746f6b656e20616c7265616479206d696e746564000000006044820152606401610839565b6001600160a01b038216600081815260036020908152604080832080546001019055848352600290915280822080546001600160a01b0319168417905551839291907fddf252ad1be2c89b69c2b068fc378daa952ba7f163c4a11628f55a4df523b3ef908290a45050565b60018111156122ff5760405162461bcd60e51b815260206004820152603560248201527f455243373231456e756d657261626c653a20636f6e7365637574697665207472604482015274185b9cd9995c9cc81b9bdd081cdd5c1c1bdc9d1959605a1b6064820152608401610839565b816001600160a01b03851661235b5761235681600880546000838152600960205260408120829055600182018355919091527ff3f7a9fe364faab93b216da50a3214154f22a0a2b415b23a84c8169e8b636ee30155565b61237e565b836001600160a01b0316856001600160a01b03161461237e5761237e8582612495565b6001600160a01b03841661239a5761239581612532565b610ec9565b846001600160a01b0316846001600160a01b031614610ec957610ec984826125e1565b60008072184f03e93ff9f4daa797ed6e38ed64bf6a1f0160401b83106123fc5772184f03e93ff9f4daa797ed6e38ed64bf6a1f0160401b830492506040015b6d04ee2d6d415b85acef81000000008310612428576d04ee2d6d415b85acef8100000000830492506020015b662386f26fc10000831061244657662386f26fc10000830492506010015b6305f5e100831061245e576305f5e100830492506008015b612710831061247257612710830492506004015b60648310612484576064830492506002015b600a83106107065760010192915050565b600060016124a284610f30565b6124ac9190612e19565b6000838152600760205260409020549091508082146124ff576001600160a01b03841660009081526006602090815260408083208584528252808320548484528184208190558352600790915290208190555b5060009182526007602090815260408084208490556001600160a01b039094168352600681528383209183525290812055565b60085460009061254490600190612e19565b6000838152600960205260408120546008805493945090928490811061256c5761256c612b6f565b90600052602060002001549050806008838154811061258d5761258d612b6f565b60009182526020808320909101929092558281526009909152604080822084905585825281205560088054806125c5576125c5612e2c565b6001900381819060005260206000200160009055905550505050565b60006125ec83610f30565b6001600160a01b039093166000908152600660209081526040808320868452825280832085905593825260079052919091209190915550565b6001600160e01b03198116811461102457600080fd5b60006020828403121561264d57600080fd5b813561199681612625565b60005b8381101561267357818101518382015260200161265b565b50506000910152565b60008151808452612694816020860160208601612658565b601f01601f19169290920160200192915050565b602081526000611996602083018461267c565b6000602082840312156126cd57600080fd5b5035919050565b80356001600160a01b03811681146126eb57600080fd5b919050565b6000806040838503121561270357600080fd5b61270c836126d4565b946020939093013593505050565b634e487b7160e01b600052604160045260246000fd5b604051601f8201601f1916810167ffffffffffffffff811182821017156127595761275961271a565b604052919050565b600067ffffffffffffffff83111561277b5761277b61271a565b61278e601f8401601f1916602001612730565b90508281528383830111156127a257600080fd5b828260208301376000602084830101529392505050565b600082601f8301126127ca57600080fd5b61199683833560208501612761565b6000806000606084860312156127ee57600080fd5b6127f7846126d4565b92506020808501359250604085013567ffffffffffffffff8082111561281c57600080fd5b818701915087601f83011261283057600080fd5b8135818111156128425761284261271a565b8060051b612851858201612730565b918252838101850191858101908b84111561286b57600080fd5b86860192505b838310156128a7578235858111156128895760008081fd5b6128978d89838a01016127b9565b8352509186019190860190612871565b809750505050505050509250925092565b6020808252825182820181905260009190848201906040850190845b818110156128f0578351835292840192918401916001016128d4565b50909695505050505050565b60008060006060848603121561291157600080fd5b61291a846126d4565b9250612928602085016126d4565b9150604084013590509250925092565b6000806020838503121561294b57600080fd5b823567ffffffffffffffff8082111561296357600080fd5b818501915085601f83011261297757600080fd5b81358181111561298657600080fd5b8660208260051b850101111561299b57600080fd5b60209290920196919550909350505050565b6000602082840312156129bf57600080fd5b813567ffffffffffffffff8111156129d657600080fd5b611811848285016127b9565b6000602082840312156129f457600080fd5b611996826126d4565b60008060408385031215612a1057600080fd5b612a19836126d4565b915060208301358015158114612a2e57600080fd5b809150509250929050565b60008060008060808587031215612a4f57600080fd5b612a58856126d4565b9350612a66602086016126d4565b925060408501359150606085013567ffffffffffffffff811115612a8957600080fd5b8501601f81018713612a9a57600080fd5b612aa987823560208401612761565b91505092959194509250565b60008060408385031215612ac857600080fd5b612ad1836126d4565b9150612adf602084016126d4565b90509250929050565b600181811c90821680612afc57607f821691505b602082108103612b1c57634e487b7160e01b600052602260045260246000fd5b50919050565b634e487b7160e01b600052601160045260246000fd5b8082018082111561070657610706612b22565b6020808252600a9082015269125b9d985b1a5908125160b21b604082015260600190565b634e487b7160e01b600052603260045260246000fd5b6020808252602d908201527f4552433732313a2063616c6c6572206973206e6f7420746f6b656e206f776e6560408201526c1c881bdc88185c1c1c9bdd9959609a1b606082015260800190565b601f8211156108da576000816000526020600020601f850160051c81016020861015612bfb5750805b601f850160051c820191505b81811015612c1a57828155600101612c07565b505050505050565b815167ffffffffffffffff811115612c3c57612c3c61271a565b612c5081612c4a8454612ae8565b84612bd2565b602080601f831160018114612c855760008415612c6d5750858301515b600019600386901b1c1916600185901b178555612c1a565b600085815260208120601f198616915b82811015612cb457888601518255948401946001909101908401612c95565b5085821015612cd25787850151600019600388901b60f8161c191681555b5050505050600190811b01905550565b60208082526025908201527f4552433732313a207472616e736665722066726f6d20696e636f72726563742060408201526437bbb732b960d91b606082015260800190565b808202811582820484141761070657610706612b22565b60208082526032908201527f4552433732313a207472616e7366657220746f206e6f6e20455243373231526560408201527131b2b4bb32b91034b6b83632b6b2b73a32b960711b606082015260800190565b60008351612da2818460208801612658565b835190830190612db6818360208801612658565b01949350505050565b6001600160a01b0385811682528416602082015260408101839052608060608201819052600090612df29083018461267c565b9695505050505050565b600060208284031215612e0e57600080fd5b815161199681612625565b8181038181111561070657610706612b22565b634e487b7160e01b600052603160045260246000fdfe697066733a2f2f516d6142796e736e4e594d7350524d315531584561767736435566724767594a7268634634556e4b635837514667a2646970667358221220ce860cc6b7a4e19dd7016264bea108db0a6dff3068956b793dcfa0a465df2cc764736f6c63430008160033",
  "linkReferences": {},
  "deployedLinkReferences": {}
}