{
	"contracts/contracts/ff-mp/MP.sol": {
		"FlowFrenzMarketplace": {
			"abi": [
				{
					"inputs": [],
					"stateMutability": "nonpayable",
					"type": "constructor"
				},
				{
					"inputs": [
						{
							"internalType": "address",
							"name": "contractAddress",
							"type": "address"
						},
						{
							"internalType": "uint256",
							"name": "tokenId",
							"type": "uint256"
						}
					],
					"name": "AlreadyListed",
					"type": "error"
				},
				{
					"inputs": [],
					"name": "NotApprovedForMarketplace",
					"type": "error"
				},
				{
					"inputs": [
						{
							"internalType": "address",
							"name": "contractAddress",
							"type": "address"
						},
						{
							"internalType": "uint256",
							"name": "tokenId",
							"type": "uint256"
						}
					],
					"name": "NotListed",
					"type": "error"
				},
				{
					"inputs": [],
					"name": "NotOwner",
					"type": "error"
				},
				{
					"inputs": [],
					"name": "PriceMustBeAboveZero",
					"type": "error"
				},
				{
					"inputs": [
						{
							"internalType": "address",
							"name": "contractAddress",
							"type": "address"
						},
						{
							"internalType": "uint256",
							"name": "tokenId",
							"type": "uint256"
						},
						{
							"internalType": "uint256",
							"name": "price",
							"type": "uint256"
						}
					],
					"name": "PriceNotMet",
					"type": "error"
				},
				{
					"anonymous": false,
					"inputs": [
						{
							"indexed": true,
							"internalType": "address",
							"name": "account",
							"type": "address"
						},
						{
							"indexed": true,
							"internalType": "address",
							"name": "sender",
							"type": "address"
						}
					],
					"name": "AdminApproved",
					"type": "event"
				},
				{
					"anonymous": false,
					"inputs": [
						{
							"indexed": true,
							"internalType": "address",
							"name": "account",
							"type": "address"
						},
						{
							"indexed": true,
							"internalType": "address",
							"name": "sender",
							"type": "address"
						}
					],
					"name": "AdminRevoked",
					"type": "event"
				},
				{
					"anonymous": false,
					"inputs": [
						{
							"indexed": false,
							"internalType": "uint8",
							"name": "version",
							"type": "uint8"
						}
					],
					"name": "Initialized",
					"type": "event"
				},
				{
					"anonymous": false,
					"inputs": [
						{
							"indexed": true,
							"internalType": "address",
							"name": "buyer",
							"type": "address"
						},
						{
							"indexed": true,
							"internalType": "address",
							"name": "contractAddress",
							"type": "address"
						},
						{
							"indexed": true,
							"internalType": "uint256",
							"name": "tokenId",
							"type": "uint256"
						},
						{
							"indexed": false,
							"internalType": "uint256",
							"name": "price",
							"type": "uint256"
						}
					],
					"name": "ItemBought",
					"type": "event"
				},
				{
					"anonymous": false,
					"inputs": [
						{
							"indexed": true,
							"internalType": "address",
							"name": "seller",
							"type": "address"
						},
						{
							"indexed": true,
							"internalType": "address",
							"name": "contractAddress",
							"type": "address"
						},
						{
							"indexed": true,
							"internalType": "uint256",
							"name": "tokenId",
							"type": "uint256"
						}
					],
					"name": "ItemCanceled",
					"type": "event"
				},
				{
					"anonymous": false,
					"inputs": [
						{
							"indexed": false,
							"internalType": "uint256",
							"name": "listingId",
							"type": "uint256"
						},
						{
							"indexed": true,
							"internalType": "address",
							"name": "seller",
							"type": "address"
						},
						{
							"indexed": true,
							"internalType": "address",
							"name": "contractAddress",
							"type": "address"
						},
						{
							"indexed": true,
							"internalType": "uint256",
							"name": "tokenId",
							"type": "uint256"
						},
						{
							"indexed": false,
							"internalType": "uint256",
							"name": "price",
							"type": "uint256"
						}
					],
					"name": "ItemListed",
					"type": "event"
				},
				{
					"anonymous": false,
					"inputs": [
						{
							"indexed": true,
							"internalType": "address",
							"name": "previousOwner",
							"type": "address"
						},
						{
							"indexed": true,
							"internalType": "address",
							"name": "newOwner",
							"type": "address"
						}
					],
					"name": "OwnershipTransferred",
					"type": "event"
				},
				{
					"inputs": [
						{
							"internalType": "address",
							"name": "admin",
							"type": "address"
						}
					],
					"name": "approveAdmin",
					"outputs": [],
					"stateMutability": "nonpayable",
					"type": "function"
				},
				{
					"inputs": [
						{
							"internalType": "address",
							"name": "contractAddress",
							"type": "address"
						},
						{
							"internalType": "uint256",
							"name": "tokenId",
							"type": "uint256"
						}
					],
					"name": "buyItem",
					"outputs": [],
					"stateMutability": "payable",
					"type": "function"
				},
				{
					"inputs": [
						{
							"internalType": "address",
							"name": "contractAddress",
							"type": "address"
						},
						{
							"internalType": "uint256",
							"name": "tokenId",
							"type": "uint256"
						}
					],
					"name": "cancelListing",
					"outputs": [],
					"stateMutability": "nonpayable",
					"type": "function"
				},
				{
					"inputs": [],
					"name": "fetchListedMarketItems",
					"outputs": [
						{
							"components": [
								{
									"internalType": "address",
									"name": "contractAddress",
									"type": "address"
								},
								{
									"internalType": "uint256",
									"name": "tokenId",
									"type": "uint256"
								},
								{
									"components": [
										{
											"internalType": "uint256",
											"name": "price",
											"type": "uint256"
										},
										{
											"internalType": "address",
											"name": "seller",
											"type": "address"
										},
										{
											"internalType": "uint256",
											"name": "listingId",
											"type": "uint256"
										}
									],
									"internalType": "struct FlowFrenzTransactionMgr.Listing",
									"name": "listing",
									"type": "tuple"
								},
								{
									"internalType": "bool",
									"name": "active",
									"type": "bool"
								}
							],
							"internalType": "struct FlowFrenzTransactionMgr.ListedItem[]",
							"name": "",
							"type": "tuple[]"
						}
					],
					"stateMutability": "view",
					"type": "function"
				},
				{
					"inputs": [],
					"name": "fetchMyListings",
					"outputs": [
						{
							"components": [
								{
									"internalType": "address",
									"name": "contractAddress",
									"type": "address"
								},
								{
									"internalType": "uint256",
									"name": "tokenId",
									"type": "uint256"
								},
								{
									"components": [
										{
											"internalType": "uint256",
											"name": "price",
											"type": "uint256"
										},
										{
											"internalType": "address",
											"name": "seller",
											"type": "address"
										},
										{
											"internalType": "uint256",
											"name": "listingId",
											"type": "uint256"
										}
									],
									"internalType": "struct FlowFrenzTransactionMgr.Listing",
									"name": "listing",
									"type": "tuple"
								},
								{
									"internalType": "bool",
									"name": "active",
									"type": "bool"
								}
							],
							"internalType": "struct FlowFrenzTransactionMgr.ListedItem[]",
							"name": "",
							"type": "tuple[]"
						}
					],
					"stateMutability": "view",
					"type": "function"
				},
				{
					"inputs": [],
					"name": "getAdmins",
					"outputs": [
						{
							"internalType": "address[]",
							"name": "admins",
							"type": "address[]"
						}
					],
					"stateMutability": "view",
					"type": "function"
				},
				{
					"inputs": [
						{
							"internalType": "address",
							"name": "contractAddress",
							"type": "address"
						},
						{
							"internalType": "uint256",
							"name": "tokenId",
							"type": "uint256"
						}
					],
					"name": "getListing",
					"outputs": [
						{
							"components": [
								{
									"internalType": "uint256",
									"name": "price",
									"type": "uint256"
								},
								{
									"internalType": "address",
									"name": "seller",
									"type": "address"
								},
								{
									"internalType": "uint256",
									"name": "listingId",
									"type": "uint256"
								}
							],
							"internalType": "struct FlowFrenzTransactionMgr.Listing",
							"name": "",
							"type": "tuple"
						}
					],
					"stateMutability": "view",
					"type": "function"
				},
				{
					"inputs": [
						{
							"internalType": "uint256",
							"name": "listingId",
							"type": "uint256"
						}
					],
					"name": "getListingById",
					"outputs": [
						{
							"components": [
								{
									"internalType": "address",
									"name": "contractAddress",
									"type": "address"
								},
								{
									"internalType": "uint256",
									"name": "tokenId",
									"type": "uint256"
								},
								{
									"components": [
										{
											"internalType": "uint256",
											"name": "price",
											"type": "uint256"
										},
										{
											"internalType": "address",
											"name": "seller",
											"type": "address"
										},
										{
											"internalType": "uint256",
											"name": "listingId",
											"type": "uint256"
										}
									],
									"internalType": "struct FlowFrenzTransactionMgr.Listing",
									"name": "listing",
									"type": "tuple"
								},
								{
									"internalType": "bool",
									"name": "active",
									"type": "bool"
								}
							],
							"internalType": "struct FlowFrenzTransactionMgr.ListedItem",
							"name": "",
							"type": "tuple"
						}
					],
					"stateMutability": "view",
					"type": "function"
				},
				{
					"inputs": [
						{
							"internalType": "address",
							"name": "dw",
							"type": "address"
						}
					],
					"name": "initialize",
					"outputs": [],
					"stateMutability": "nonpayable",
					"type": "function"
				},
				{
					"inputs": [
						{
							"internalType": "address",
							"name": "admin",
							"type": "address"
						}
					],
					"name": "isAdmin",
					"outputs": [
						{
							"internalType": "bool",
							"name": "",
							"type": "bool"
						}
					],
					"stateMutability": "view",
					"type": "function"
				},
				{
					"inputs": [
						{
							"internalType": "address",
							"name": "contractAddress",
							"type": "address"
						},
						{
							"internalType": "uint256",
							"name": "tokenId",
							"type": "uint256"
						},
						{
							"internalType": "uint256",
							"name": "price",
							"type": "uint256"
						}
					],
					"name": "listItem",
					"outputs": [],
					"stateMutability": "nonpayable",
					"type": "function"
				},
				{
					"inputs": [],
					"name": "owner",
					"outputs": [
						{
							"internalType": "address",
							"name": "",
							"type": "address"
						}
					],
					"stateMutability": "view",
					"type": "function"
				},
				{
					"inputs": [],
					"name": "renounceOwnership",
					"outputs": [],
					"stateMutability": "nonpayable",
					"type": "function"
				},
				{
					"inputs": [
						{
							"internalType": "address",
							"name": "admin",
							"type": "address"
						}
					],
					"name": "revokeAdmin",
					"outputs": [],
					"stateMutability": "nonpayable",
					"type": "function"
				},
				{
					"inputs": [
						{
							"internalType": "bytes4",
							"name": "interfaceId",
							"type": "bytes4"
						}
					],
					"name": "supportsInterface",
					"outputs": [
						{
							"internalType": "bool",
							"name": "",
							"type": "bool"
						}
					],
					"stateMutability": "view",
					"type": "function"
				},
				{
					"inputs": [
						{
							"internalType": "address",
							"name": "newOwner",
							"type": "address"
						}
					],
					"name": "transferOwnership",
					"outputs": [],
					"stateMutability": "nonpayable",
					"type": "function"
				},
				{
					"inputs": [
						{
							"internalType": "address",
							"name": "newDev",
							"type": "address"
						}
					],
					"name": "updateDevWallet",
					"outputs": [],
					"stateMutability": "nonpayable",
					"type": "function"
				},
				{
					"inputs": [
						{
							"internalType": "address",
							"name": "contractAddress",
							"type": "address"
						},
						{
							"internalType": "uint256",
							"name": "tokenId",
							"type": "uint256"
						},
						{
							"internalType": "uint256",
							"name": "newPrice",
							"type": "uint256"
						}
					],
					"name": "updateListing",
					"outputs": [],
					"stateMutability": "nonpayable",
					"type": "function"
				},
				{
					"inputs": [
						{
							"internalType": "address",
							"name": "to",
							"type": "address"
						}
					],
					"name": "withdrawAll",
					"outputs": [],
					"stateMutability": "nonpayable",
					"type": "function"
				}
			],
			"devdoc": {
				"events": {
					"Initialized(uint8)": {
						"details": "Triggered when the contract has been initialized or reinitialized."
					}
				},
				"kind": "dev",
				"methods": {
					"owner()": {
						"details": "Returns the address of the current owner."
					},
					"renounceOwnership()": {
						"details": "Leaves the contract without owner. It will not be possible to call `onlyOwner` functions. Can only be called by the current owner. NOTE: Renouncing ownership will leave the contract without an owner, thereby disabling any functionality that is only available to the owner."
					},
					"supportsInterface(bytes4)": {
						"details": "See {IERC165-supportsInterface}."
					},
					"transferOwnership(address)": {
						"details": "Transfers ownership of the contract to a new account (`newOwner`). Can only be called by the current owner."
					}
				},
				"version": 1
			},
			"evm": {
				"assembly": "    /* \"contracts/contracts/ff-mp/MP.sol\":574:904  contract FlowFrenzMarketplace is... */\n  mstore(0x40, 0x80)\n    /* \"contracts/contracts/ff-mp/MP.sol\":681:730  constructor() {... */\n  callvalue\n  dup1\n  iszero\n  tag_1\n  jumpi\n  0x00\n  dup1\n  revert\ntag_1:\n  pop\n    /* \"contracts/contracts/ff-mp/MP.sol\":702:724  _disableInitializers() */\n  tag_4\n    /* \"contracts/contracts/ff-mp/MP.sol\":702:722  _disableInitializers */\n  shl(0x20, tag_5)\n    /* \"contracts/contracts/ff-mp/MP.sol\":702:724  _disableInitializers() */\n  0x20\n  shr\n  jump\t// in\ntag_4:\n    /* \"contracts/contracts/ff-mp/MP.sol\":574:904  contract FlowFrenzMarketplace is... */\n  jump(tag_6)\n    /* \"@openzeppelin/contracts-upgradeable/proxy/utils/Initializable.sol\":5939:6219  function _disableInitializers() internal virtual {... */\ntag_5:\n    /* \"@openzeppelin/contracts-upgradeable/proxy/utils/Initializable.sol\":6007:6020  _initializing */\n  0x00\n  0x01\n  swap1\n  sload\n  swap1\n  0x0100\n  exp\n  swap1\n  div\n  0xff\n  and\n    /* \"@openzeppelin/contracts-upgradeable/proxy/utils/Initializable.sol\":6006:6020  !_initializing */\n  iszero\n    /* \"@openzeppelin/contracts-upgradeable/proxy/utils/Initializable.sol\":5998:6064  require(!_initializing, \"Initializable: contract is initializing\") */\n  tag_8\n  jumpi\n  mload(0x40)\n  0x08c379a000000000000000000000000000000000000000000000000000000000\n  dup2\n  mstore\n  0x04\n  add\n  tag_9\n  swap1\n  tag_10\n  jump\t// in\ntag_9:\n  mload(0x40)\n  dup1\n  swap2\n  sub\n  swap1\n  revert\ntag_8:\n    /* \"@openzeppelin/contracts-upgradeable/proxy/utils/Initializable.sol\":6094:6109  type(uint8).max */\n  0xff\n    /* \"@openzeppelin/contracts-upgradeable/proxy/utils/Initializable.sol\":6078:6109  _initialized != type(uint8).max */\n  dup1\n  and\n    /* \"@openzeppelin/contracts-upgradeable/proxy/utils/Initializable.sol\":6078:6090  _initialized */\n  0x00\n  dup1\n  sload\n  swap1\n  0x0100\n  exp\n  swap1\n  div\n  0xff\n  and\n    /* \"@openzeppelin/contracts-upgradeable/proxy/utils/Initializable.sol\":6078:6109  _initialized != type(uint8).max */\n  0xff\n  and\n  eq\n    /* \"@openzeppelin/contracts-upgradeable/proxy/utils/Initializable.sol\":6074:6213  if (_initialized != type(uint8).max) {... */\n  tag_11\n  jumpi\n    /* \"@openzeppelin/contracts-upgradeable/proxy/utils/Initializable.sol\":6140:6155  type(uint8).max */\n  0xff\n    /* \"@openzeppelin/contracts-upgradeable/proxy/utils/Initializable.sol\":6125:6137  _initialized */\n  0x00\n  dup1\n    /* \"@openzeppelin/contracts-upgradeable/proxy/utils/Initializable.sol\":6125:6155  _initialized = type(uint8).max */\n  0x0100\n  exp\n  dup2\n  sload\n  dup2\n  0xff\n  mul\n  not\n  and\n  swap1\n  dup4\n  0xff\n  and\n  mul\n  or\n  swap1\n  sstore\n  pop\n    /* \"@openzeppelin/contracts-upgradeable/proxy/utils/Initializable.sol\":6174:6202  Initialized(type(uint8).max) */\n  0x7f26b83ff96e1f2b6a682f133852f6798a09c465da95921460cefb3847402498\n    /* \"@openzeppelin/contracts-upgradeable/proxy/utils/Initializable.sol\":6186:6201  type(uint8).max */\n  0xff\n    /* \"@openzeppelin/contracts-upgradeable/proxy/utils/Initializable.sol\":6174:6202  Initialized(type(uint8).max) */\n  mload(0x40)\n  tag_12\n  swap2\n  swap1\n  tag_13\n  jump\t// in\ntag_12:\n  mload(0x40)\n  dup1\n  swap2\n  sub\n  swap1\n  log1\n    /* \"@openzeppelin/contracts-upgradeable/proxy/utils/Initializable.sol\":6074:6213  if (_initialized != type(uint8).max) {... */\ntag_11:\n    /* \"@openzeppelin/contracts-upgradeable/proxy/utils/Initializable.sol\":5939:6219  function _disableInitializers() internal virtual {... */\n  jump\t// out\n    /* \"#utility.yul\":7:176   */\ntag_14:\n    /* \"#utility.yul\":91:102   */\n  0x00\n    /* \"#utility.yul\":125:131   */\n  dup3\n    /* \"#utility.yul\":120:123   */\n  dup3\n    /* \"#utility.yul\":113:132   */\n  mstore\n    /* \"#utility.yul\":165:169   */\n  0x20\n    /* \"#utility.yul\":160:163   */\n  dup3\n    /* \"#utility.yul\":156:170   */\n  add\n    /* \"#utility.yul\":141:170   */\n  swap1\n  pop\n    /* \"#utility.yul\":7:176   */\n  swap3\n  swap2\n  pop\n  pop\n  jump\t// out\n    /* \"#utility.yul\":182:408   */\ntag_15:\n    /* \"#utility.yul\":322:356   */\n  0x496e697469616c697a61626c653a20636f6e747261637420697320696e697469\n    /* \"#utility.yul\":318:319   */\n  0x00\n    /* \"#utility.yul\":310:316   */\n  dup3\n    /* \"#utility.yul\":306:320   */\n  add\n    /* \"#utility.yul\":299:357   */\n  mstore\n    /* \"#utility.yul\":391:400   */\n  0x616c697a696e6700000000000000000000000000000000000000000000000000\n    /* \"#utility.yul\":386:388   */\n  0x20\n    /* \"#utility.yul\":378:384   */\n  dup3\n    /* \"#utility.yul\":374:389   */\n  add\n    /* \"#utility.yul\":367:401   */\n  mstore\n    /* \"#utility.yul\":182:408   */\n  pop\n  jump\t// out\n    /* \"#utility.yul\":414:780   */\ntag_16:\n    /* \"#utility.yul\":556:559   */\n  0x00\n    /* \"#utility.yul\":577:644   */\n  tag_23\n    /* \"#utility.yul\":641:643   */\n  0x27\n    /* \"#utility.yul\":636:639   */\n  dup4\n    /* \"#utility.yul\":577:644   */\n  tag_14\n  jump\t// in\ntag_23:\n    /* \"#utility.yul\":570:644   */\n  swap2\n  pop\n    /* \"#utility.yul\":653:746   */\n  tag_24\n    /* \"#utility.yul\":742:745   */\n  dup3\n    /* \"#utility.yul\":653:746   */\n  tag_15\n  jump\t// in\ntag_24:\n    /* \"#utility.yul\":771:773   */\n  0x40\n    /* \"#utility.yul\":766:769   */\n  dup3\n    /* \"#utility.yul\":762:774   */\n  add\n    /* \"#utility.yul\":755:774   */\n  swap1\n  pop\n    /* \"#utility.yul\":414:780   */\n  swap2\n  swap1\n  pop\n  jump\t// out\n    /* \"#utility.yul\":786:1205   */\ntag_10:\n    /* \"#utility.yul\":952:956   */\n  0x00\n    /* \"#utility.yul\":990:992   */\n  0x20\n    /* \"#utility.yul\":979:988   */\n  dup3\n    /* \"#utility.yul\":975:993   */\n  add\n    /* \"#utility.yul\":967:993   */\n  swap1\n  pop\n    /* \"#utility.yul\":1039:1048   */\n  dup2\n    /* \"#utility.yul\":1033:1037   */\n  dup2\n    /* \"#utility.yul\":1029:1049   */\n  sub\n    /* \"#utility.yul\":1025:1026   */\n  0x00\n    /* \"#utility.yul\":1014:1023   */\n  dup4\n    /* \"#utility.yul\":1010:1027   */\n  add\n    /* \"#utility.yul\":1003:1050   */\n  mstore\n    /* \"#utility.yul\":1067:1198   */\n  tag_26\n    /* \"#utility.yul\":1193:1197   */\n  dup2\n    /* \"#utility.yul\":1067:1198   */\n  tag_16\n  jump\t// in\ntag_26:\n    /* \"#utility.yul\":1059:1198   */\n  swap1\n  pop\n    /* \"#utility.yul\":786:1205   */\n  swap2\n  swap1\n  pop\n  jump\t// out\n    /* \"#utility.yul\":1211:1297   */\ntag_17:\n    /* \"#utility.yul\":1246:1253   */\n  0x00\n    /* \"#utility.yul\":1286:1290   */\n  0xff\n    /* \"#utility.yul\":1279:1284   */\n  dup3\n    /* \"#utility.yul\":1275:1291   */\n  and\n    /* \"#utility.yul\":1264:1291   */\n  swap1\n  pop\n    /* \"#utility.yul\":1211:1297   */\n  swap2\n  swap1\n  pop\n  jump\t// out\n    /* \"#utility.yul\":1303:1415   */\ntag_18:\n    /* \"#utility.yul\":1386:1408   */\n  tag_29\n    /* \"#utility.yul\":1402:1407   */\n  dup2\n    /* \"#utility.yul\":1386:1408   */\n  tag_17\n  jump\t// in\ntag_29:\n    /* \"#utility.yul\":1381:1384   */\n  dup3\n    /* \"#utility.yul\":1374:1409   */\n  mstore\n    /* \"#utility.yul\":1303:1415   */\n  pop\n  pop\n  jump\t// out\n    /* \"#utility.yul\":1421:1635   */\ntag_13:\n    /* \"#utility.yul\":1510:1514   */\n  0x00\n    /* \"#utility.yul\":1548:1550   */\n  0x20\n    /* \"#utility.yul\":1537:1546   */\n  dup3\n    /* \"#utility.yul\":1533:1551   */\n  add\n    /* \"#utility.yul\":1525:1551   */\n  swap1\n  pop\n    /* \"#utility.yul\":1561:1628   */\n  tag_31\n    /* \"#utility.yul\":1625:1626   */\n  0x00\n    /* \"#utility.yul\":1614:1623   */\n  dup4\n    /* \"#utility.yul\":1610:1627   */\n  add\n    /* \"#utility.yul\":1601:1607   */\n  dup5\n    /* \"#utility.yul\":1561:1628   */\n  tag_18\n  jump\t// in\ntag_31:\n    /* \"#utility.yul\":1421:1635   */\n  swap3\n  swap2\n  pop\n  pop\n  jump\t// out\n    /* \"contracts/contracts/ff-mp/MP.sol\":574:904  contract FlowFrenzMarketplace is... */\ntag_6:\n  dataSize(sub_0)\n  dup1\n  dataOffset(sub_0)\n  0x00\n  codecopy\n  0x00\n  return\nstop\n\nsub_0: assembly {\n        /* \"contracts/contracts/ff-mp/MP.sol\":574:904  contract FlowFrenzMarketplace is... */\n      mstore(0x40, 0x80)\n      jumpi(tag_1, lt(calldatasize, 0x04))\n      shr(0xe0, calldataload(0x00))\n      dup1\n      0x715018a6\n      gt\n      tag_21\n      jumpi\n      dup1\n      0xb2ddee06\n      gt\n      tag_22\n      jumpi\n      dup1\n      0xb2ddee06\n      eq\n      tag_16\n      jumpi\n      dup1\n      0xc4d66de8\n      eq\n      tag_17\n      jumpi\n      dup1\n      0xf2fde38b\n      eq\n      tag_18\n      jumpi\n      dup1\n      0xf772adf1\n      eq\n      tag_19\n      jumpi\n      dup1\n      0xfa09e630\n      eq\n      tag_20\n      jumpi\n      jump(tag_1)\n    tag_22:\n      dup1\n      0x715018a6\n      eq\n      tag_11\n      jumpi\n      dup1\n      0x88700d1c\n      eq\n      tag_12\n      jumpi\n      dup1\n      0x89bfd38f\n      eq\n      tag_13\n      jumpi\n      dup1\n      0x8da5cb5b\n      eq\n      tag_14\n      jumpi\n      dup1\n      0x9f37092a\n      eq\n      tag_15\n      jumpi\n      jump(tag_1)\n    tag_21:\n      dup1\n      0x24d7806c\n      gt\n      tag_23\n      jumpi\n      dup1\n      0x24d7806c\n      eq\n      tag_6\n      jumpi\n      dup1\n      0x2d345670\n      eq\n      tag_7\n      jumpi\n      dup1\n      0x31ae450b\n      eq\n      tag_8\n      jumpi\n      dup1\n      0x4f85310f\n      eq\n      tag_9\n      jumpi\n      dup1\n      0x6d73e669\n      eq\n      tag_10\n      jumpi\n      jump(tag_1)\n    tag_23:\n      dup1\n      0x01ffc9a7\n      eq\n      tag_2\n      jumpi\n      dup1\n      0x15a70d8d\n      eq\n      tag_3\n      jumpi\n      dup1\n      0x1816467f\n      eq\n      tag_4\n      jumpi\n      dup1\n      0x1fb0080e\n      eq\n      tag_5\n      jumpi\n    tag_1:\n      0x00\n      dup1\n      revert\n        /* \"contracts/contracts/ff-mp/deps/AdminControl.sol\":658:896  function supportsInterface(... */\n    tag_2:\n      callvalue\n      dup1\n      iszero\n      tag_24\n      jumpi\n      0x00\n      dup1\n      revert\n    tag_24:\n      pop\n      tag_25\n      0x04\n      dup1\n      calldatasize\n      sub\n      dup2\n      add\n      swap1\n      tag_26\n      swap2\n      swap1\n      tag_27\n      jump\t// in\n    tag_26:\n      tag_28\n      jump\t// in\n    tag_25:\n      mload(0x40)\n      tag_29\n      swap2\n      swap1\n      tag_30\n      jump\t// in\n    tag_29:\n      mload(0x40)\n      dup1\n      swap2\n      sub\n      swap1\n      return\n        /* \"contracts/contracts/ff-mp/functionality/TransactionsMgr.sol\":6760:7276  function fetchMyListings() public view returns (ListedItem[] memory) {... */\n    tag_3:\n      callvalue\n      dup1\n      iszero\n      tag_31\n      jumpi\n      0x00\n      dup1\n      revert\n    tag_31:\n      pop\n      tag_32\n      tag_33\n      jump\t// in\n    tag_32:\n      mload(0x40)\n      tag_34\n      swap2\n      swap1\n      tag_35\n      jump\t// in\n    tag_34:\n      mload(0x40)\n      dup1\n      swap2\n      sub\n      swap1\n      return\n        /* \"contracts/contracts/ff-mp/deps/AdminControl.sol\":1876:1968  function updateDevWallet(address newDev) external onlyOwner {... */\n    tag_4:\n      callvalue\n      dup1\n      iszero\n      tag_36\n      jumpi\n      0x00\n      dup1\n      revert\n    tag_36:\n      pop\n      tag_37\n      0x04\n      dup1\n      calldatasize\n      sub\n      dup2\n      add\n      swap1\n      tag_38\n      swap2\n      swap1\n      tag_39\n      jump\t// in\n    tag_38:\n      tag_40\n      jump\t// in\n    tag_37:\n      stop\n        /* \"contracts/contracts/ff-mp/functionality/TransactionsMgr.sol\":6229:6754  function fetchListedMarketItems()... */\n    tag_5:\n      callvalue\n      dup1\n      iszero\n      tag_41\n      jumpi\n      0x00\n      dup1\n      revert\n    tag_41:\n      pop\n      tag_42\n      tag_43\n      jump\t// in\n    tag_42:\n      mload(0x40)\n      tag_44\n      swap2\n      swap1\n      tag_35\n      jump\t// in\n    tag_44:\n      mload(0x40)\n      dup1\n      swap2\n      sub\n      swap1\n      return\n        /* \"contracts/contracts/ff-mp/deps/AdminControl.sol\":1077:1210  function isAdmin(address admin) public view override returns (bool) {... */\n    tag_6:\n      callvalue\n      dup1\n      iszero\n      tag_45\n      jumpi\n      0x00\n      dup1\n      revert\n    tag_45:\n      pop\n      tag_46\n      0x04\n      dup1\n      calldatasize\n      sub\n      dup2\n      add\n      swap1\n      tag_47\n      swap2\n      swap1\n      tag_39\n      jump\t// in\n    tag_47:\n      tag_48\n      jump\t// in\n    tag_46:\n      mload(0x40)\n      tag_49\n      swap2\n      swap1\n      tag_30\n      jump\t// in\n    tag_49:\n      mload(0x40)\n      dup1\n      swap2\n      sub\n      swap1\n      return\n        /* \"contracts/contracts/ff-mp/deps/AdminControl.sol\":1682:1870  function revokeAdmin(address admin) external override onlyOwner {... */\n    tag_7:\n      callvalue\n      dup1\n      iszero\n      tag_50\n      jumpi\n      0x00\n      dup1\n      revert\n    tag_50:\n      pop\n      tag_51\n      0x04\n      dup1\n      calldatasize\n      sub\n      dup2\n      add\n      swap1\n      tag_52\n      swap2\n      swap1\n      tag_39\n      jump\t// in\n    tag_52:\n      tag_53\n      jump\t// in\n    tag_51:\n      stop\n        /* \"contracts/contracts/ff-mp/deps/AdminControl.sol\":1216:1482  function getAdmins()... */\n    tag_8:\n      callvalue\n      dup1\n      iszero\n      tag_54\n      jumpi\n      0x00\n      dup1\n      revert\n    tag_54:\n      pop\n      tag_55\n      tag_56\n      jump\t// in\n    tag_55:\n      mload(0x40)\n      tag_57\n      swap2\n      swap1\n      tag_58\n      jump\t// in\n    tag_57:\n      mload(0x40)\n      dup1\n      swap2\n      sub\n      swap1\n      return\n        /* \"contracts/contracts/ff-mp/functionality/TransactionsMgr.sol\":6085:6223  function getListingById(... */\n    tag_9:\n      callvalue\n      dup1\n      iszero\n      tag_59\n      jumpi\n      0x00\n      dup1\n      revert\n    tag_59:\n      pop\n      tag_60\n      0x04\n      dup1\n      calldatasize\n      sub\n      dup2\n      add\n      swap1\n      tag_61\n      swap2\n      swap1\n      tag_62\n      jump\t// in\n    tag_61:\n      tag_63\n      jump\t// in\n    tag_60:\n      mload(0x40)\n      tag_64\n      swap2\n      swap1\n      tag_65\n      jump\t// in\n    tag_64:\n      mload(0x40)\n      dup1\n      swap2\n      sub\n      swap1\n      return\n        /* \"contracts/contracts/ff-mp/deps/AdminControl.sol\":1488:1676  function approveAdmin(address admin) external override onlyOwner {... */\n    tag_10:\n      callvalue\n      dup1\n      iszero\n      tag_66\n      jumpi\n      0x00\n      dup1\n      revert\n    tag_66:\n      pop\n      tag_67\n      0x04\n      dup1\n      calldatasize\n      sub\n      dup2\n      add\n      swap1\n      tag_68\n      swap2\n      swap1\n      tag_39\n      jump\t// in\n    tag_68:\n      tag_69\n      jump\t// in\n    tag_67:\n      stop\n        /* \"@openzeppelin/contracts-upgradeable/access/OwnableUpgradeable.sol\":2064:2165  function renounceOwnership() public virtual onlyOwner {... */\n    tag_11:\n      callvalue\n      dup1\n      iszero\n      tag_70\n      jumpi\n      0x00\n      dup1\n      revert\n    tag_70:\n      pop\n      tag_71\n      tag_72\n      jump\t// in\n    tag_71:\n      stop\n        /* \"contracts/contracts/ff-mp/functionality/TransactionsMgr.sol\":5907:6079  function getListing(... */\n    tag_12:\n      callvalue\n      dup1\n      iszero\n      tag_73\n      jumpi\n      0x00\n      dup1\n      revert\n    tag_73:\n      pop\n      tag_74\n      0x04\n      dup1\n      calldatasize\n      sub\n      dup2\n      add\n      swap1\n      tag_75\n      swap2\n      swap1\n      tag_76\n      jump\t// in\n    tag_75:\n      tag_77\n      jump\t// in\n    tag_74:\n      mload(0x40)\n      tag_78\n      swap2\n      swap1\n      tag_79\n      jump\t// in\n    tag_78:\n      mload(0x40)\n      dup1\n      swap2\n      sub\n      swap1\n      return\n        /* \"contracts/contracts/ff-mp/functionality/TransactionsMgr.sol\":3509:4429  function listItem(... */\n    tag_13:\n      callvalue\n      dup1\n      iszero\n      tag_80\n      jumpi\n      0x00\n      dup1\n      revert\n    tag_80:\n      pop\n      tag_81\n      0x04\n      dup1\n      calldatasize\n      sub\n      dup2\n      add\n      swap1\n      tag_82\n      swap2\n      swap1\n      tag_83\n      jump\t// in\n    tag_82:\n      tag_84\n      jump\t// in\n    tag_81:\n      stop\n        /* \"@openzeppelin/contracts-upgradeable/access/OwnableUpgradeable.sol\":1441:1526  function owner() public view virtual returns (address) {... */\n    tag_14:\n      callvalue\n      dup1\n      iszero\n      tag_85\n      jumpi\n      0x00\n      dup1\n      revert\n    tag_85:\n      pop\n      tag_86\n      tag_87\n      jump\t// in\n    tag_86:\n      mload(0x40)\n      tag_88\n      swap2\n      swap1\n      tag_89\n      jump\t// in\n    tag_88:\n      mload(0x40)\n      dup1\n      swap2\n      sub\n      swap1\n      return\n        /* \"contracts/contracts/ff-mp/functionality/TransactionsMgr.sol\":4435:5269  function buyItem(... */\n    tag_15:\n      tag_90\n      0x04\n      dup1\n      calldatasize\n      sub\n      dup2\n      add\n      swap1\n      tag_91\n      swap2\n      swap1\n      tag_76\n      jump\t// in\n    tag_91:\n      tag_92\n      jump\t// in\n    tag_90:\n      stop\n        /* \"contracts/contracts/ff-mp/functionality/TransactionsMgr.sol\":3078:3503  function cancelListing(... */\n    tag_16:\n      callvalue\n      dup1\n      iszero\n      tag_93\n      jumpi\n      0x00\n      dup1\n      revert\n    tag_93:\n      pop\n      tag_94\n      0x04\n      dup1\n      calldatasize\n      sub\n      dup2\n      add\n      swap1\n      tag_95\n      swap2\n      swap1\n      tag_76\n      jump\t// in\n    tag_95:\n      tag_96\n      jump\t// in\n    tag_94:\n      stop\n        /* \"contracts/contracts/ff-mp/MP.sol\":768:901  function initialize(address dw) public initializer {... */\n    tag_17:\n      callvalue\n      dup1\n      iszero\n      tag_97\n      jumpi\n      0x00\n      dup1\n      revert\n    tag_97:\n      pop\n      tag_98\n      0x04\n      dup1\n      calldatasize\n      sub\n      dup2\n      add\n      swap1\n      tag_99\n      swap2\n      swap1\n      tag_39\n      jump\t// in\n    tag_99:\n      tag_100\n      jump\t// in\n    tag_98:\n      stop\n        /* \"@openzeppelin/contracts-upgradeable/access/OwnableUpgradeable.sol\":2314:2512  function transferOwnership(address newOwner) public virtual onlyOwner {... */\n    tag_18:\n      callvalue\n      dup1\n      iszero\n      tag_101\n      jumpi\n      0x00\n      dup1\n      revert\n    tag_101:\n      pop\n      tag_102\n      0x04\n      dup1\n      calldatasize\n      sub\n      dup2\n      add\n      swap1\n      tag_103\n      swap2\n      swap1\n      tag_39\n      jump\t// in\n    tag_103:\n      tag_104\n      jump\t// in\n    tag_102:\n      stop\n        /* \"contracts/contracts/ff-mp/functionality/TransactionsMgr.sol\":5275:5901  function updateListing(... */\n    tag_19:\n      callvalue\n      dup1\n      iszero\n      tag_105\n      jumpi\n      0x00\n      dup1\n      revert\n    tag_105:\n      pop\n      tag_106\n      0x04\n      dup1\n      calldatasize\n      sub\n      dup2\n      add\n      swap1\n      tag_107\n      swap2\n      swap1\n      tag_83\n      jump\t// in\n    tag_107:\n      tag_108\n      jump\t// in\n    tag_106:\n      stop\n        /* \"contracts/contracts/ff-mp/deps/AdminControl.sol\":1984:2157  function withdrawAll(address to) public onlyOwner {... */\n    tag_20:\n      callvalue\n      dup1\n      iszero\n      tag_109\n      jumpi\n      0x00\n      dup1\n      revert\n    tag_109:\n      pop\n      tag_110\n      0x04\n      dup1\n      calldatasize\n      sub\n      dup2\n      add\n      swap1\n      tag_111\n      swap2\n      swap1\n      tag_39\n      jump\t// in\n    tag_111:\n      tag_112\n      jump\t// in\n    tag_110:\n      stop\n        /* \"contracts/contracts/ff-mp/deps/AdminControl.sol\":658:896  function supportsInterface(... */\n    tag_28:\n        /* \"contracts/contracts/ff-mp/deps/AdminControl.sol\":770:774  bool */\n      0x00\n        /* \"contracts/contracts/ff-mp/deps/AdminControl.sol\":812:843  type(IAdminControl).interfaceId */\n      0x553e757e00000000000000000000000000000000000000000000000000000000\n        /* \"contracts/contracts/ff-mp/deps/AdminControl.sol\":797:843  interfaceId == type(IAdminControl).interfaceId */\n      not(0xffffffffffffffffffffffffffffffffffffffffffffffffffffffff)\n      and\n        /* \"contracts/contracts/ff-mp/deps/AdminControl.sol\":797:808  interfaceId */\n      dup3\n        /* \"contracts/contracts/ff-mp/deps/AdminControl.sol\":797:843  interfaceId == type(IAdminControl).interfaceId */\n      not(0xffffffffffffffffffffffffffffffffffffffffffffffffffffffff)\n      and\n      eq\n        /* \"contracts/contracts/ff-mp/deps/AdminControl.sol\":797:890  interfaceId == type(IAdminControl).interfaceId ||... */\n      dup1\n      tag_114\n      jumpi\n      pop\n        /* \"contracts/contracts/ff-mp/deps/AdminControl.sol\":854:890  super.supportsInterface(interfaceId) */\n      tag_115\n        /* \"contracts/contracts/ff-mp/deps/AdminControl.sol\":878:889  interfaceId */\n      dup3\n        /* \"contracts/contracts/ff-mp/deps/AdminControl.sol\":854:877  super.supportsInterface */\n      tag_116\n        /* \"contracts/contracts/ff-mp/deps/AdminControl.sol\":854:890  super.supportsInterface(interfaceId) */\n      jump\t// in\n    tag_115:\n        /* \"contracts/contracts/ff-mp/deps/AdminControl.sol\":797:890  interfaceId == type(IAdminControl).interfaceId ||... */\n    tag_114:\n        /* \"contracts/contracts/ff-mp/deps/AdminControl.sol\":783:890  return... */\n      swap1\n      pop\n        /* \"contracts/contracts/ff-mp/deps/AdminControl.sol\":658:896  function supportsInterface(... */\n      swap2\n      swap1\n      pop\n      jump\t// out\n        /* \"contracts/contracts/ff-mp/functionality/TransactionsMgr.sol\":6760:7276  function fetchMyListings() public view returns (ListedItem[] memory) {... */\n    tag_33:\n        /* \"contracts/contracts/ff-mp/functionality/TransactionsMgr.sol\":6808:6827  ListedItem[] memory */\n      0x60\n        /* \"contracts/contracts/ff-mp/functionality/TransactionsMgr.sol\":6836:6861  ListedItem[] memory items */\n      0x00\n        /* \"contracts/contracts/ff-mp/functionality/TransactionsMgr.sol\":6881:6907  _totalMpListings.current() */\n      tag_118\n        /* \"contracts/contracts/ff-mp/functionality/TransactionsMgr.sol\":6881:6897  _totalMpListings */\n      0x9d\n        /* \"contracts/contracts/ff-mp/functionality/TransactionsMgr.sol\":6881:6905  _totalMpListings.current */\n      tag_119\n        /* \"contracts/contracts/ff-mp/functionality/TransactionsMgr.sol\":6881:6907  _totalMpListings.current() */\n      jump\t// in\n    tag_118:\n        /* \"contracts/contracts/ff-mp/functionality/TransactionsMgr.sol\":6864:6908  new ListedItem[](_totalMpListings.current()) */\n      0xffffffffffffffff\n      dup2\n      gt\n      iszero\n      tag_120\n      jumpi\n      tag_121\n      tag_122\n      jump\t// in\n    tag_121:\n    tag_120:\n      mload(0x40)\n      swap1\n      dup1\n      dup3\n      mstore\n      dup1\n      0x20\n      mul\n      0x20\n      add\n      dup3\n      add\n      0x40\n      mstore\n      dup1\n      iszero\n      tag_123\n      jumpi\n      dup2\n      0x20\n      add\n    tag_124:\n      tag_125\n      tag_126\n      jump\t// in\n    tag_125:\n      dup2\n      mstore\n      0x20\n      add\n      swap1\n      0x01\n      swap1\n      sub\n      swap1\n      dup2\n      tag_124\n      jumpi\n      swap1\n      pop\n    tag_123:\n      pop\n        /* \"contracts/contracts/ff-mp/functionality/TransactionsMgr.sol\":6836:6908  ListedItem[] memory items = new ListedItem[](_totalMpListings.current()) */\n      swap1\n      pop\n        /* \"contracts/contracts/ff-mp/functionality/TransactionsMgr.sol\":6915:6932  uint currentIndex */\n      0x00\n        /* \"contracts/contracts/ff-mp/functionality/TransactionsMgr.sol\":6950:6956  uint i */\n      dup1\n        /* \"contracts/contracts/ff-mp/functionality/TransactionsMgr.sol\":6945:7250  for (uint i = 0; i < _totalMpListings.current(); i++) {... */\n    tag_127:\n        /* \"contracts/contracts/ff-mp/functionality/TransactionsMgr.sol\":6966:6992  _totalMpListings.current() */\n      tag_130\n        /* \"contracts/contracts/ff-mp/functionality/TransactionsMgr.sol\":6966:6982  _totalMpListings */\n      0x9d\n        /* \"contracts/contracts/ff-mp/functionality/TransactionsMgr.sol\":6966:6990  _totalMpListings.current */\n      tag_119\n        /* \"contracts/contracts/ff-mp/functionality/TransactionsMgr.sol\":6966:6992  _totalMpListings.current() */\n      jump\t// in\n    tag_130:\n        /* \"contracts/contracts/ff-mp/functionality/TransactionsMgr.sol\":6962:6963  i */\n      dup2\n        /* \"contracts/contracts/ff-mp/functionality/TransactionsMgr.sol\":6962:6992  i < _totalMpListings.current() */\n      lt\n        /* \"contracts/contracts/ff-mp/functionality/TransactionsMgr.sol\":6945:7250  for (uint i = 0; i < _totalMpListings.current(); i++) {... */\n      iszero\n      tag_128\n      jumpi\n        /* \"contracts/contracts/ff-mp/functionality/TransactionsMgr.sol\":7046:7056  msg.sender */\n      caller\n        /* \"contracts/contracts/ff-mp/functionality/TransactionsMgr.sol\":7012:7056  _idToListing[i].listing.seller == msg.sender */\n      0xffffffffffffffffffffffffffffffffffffffff\n      and\n        /* \"contracts/contracts/ff-mp/functionality/TransactionsMgr.sol\":7012:7024  _idToListing */\n      0x9c\n        /* \"contracts/contracts/ff-mp/functionality/TransactionsMgr.sol\":7012:7027  _idToListing[i] */\n      0x00\n        /* \"contracts/contracts/ff-mp/functionality/TransactionsMgr.sol\":7025:7026  i */\n      dup4\n        /* \"contracts/contracts/ff-mp/functionality/TransactionsMgr.sol\":7012:7027  _idToListing[i] */\n      dup2\n      mstore\n      0x20\n      add\n      swap1\n      dup2\n      mstore\n      0x20\n      add\n      0x00\n      keccak256\n        /* \"contracts/contracts/ff-mp/functionality/TransactionsMgr.sol\":7012:7035  _idToListing[i].listing */\n      0x02\n      add\n        /* \"contracts/contracts/ff-mp/functionality/TransactionsMgr.sol\":7012:7042  _idToListing[i].listing.seller */\n      0x01\n      add\n      0x00\n      swap1\n      sload\n      swap1\n      0x0100\n      exp\n      swap1\n      div\n      0xffffffffffffffffffffffffffffffffffffffff\n      and\n        /* \"contracts/contracts/ff-mp/functionality/TransactionsMgr.sol\":7012:7056  _idToListing[i].listing.seller == msg.sender */\n      0xffffffffffffffffffffffffffffffffffffffff\n      and\n      sub\n        /* \"contracts/contracts/ff-mp/functionality/TransactionsMgr.sol\":7008:7243  if (_idToListing[i].listing.seller == msg.sender) {... */\n      tag_131\n      jumpi\n        /* \"contracts/contracts/ff-mp/functionality/TransactionsMgr.sol\":7099:7103  true */\n      0x01\n        /* \"contracts/contracts/ff-mp/functionality/TransactionsMgr.sol\":7073:7103  _idToListing[i].active == true */\n      iszero\n      iszero\n        /* \"contracts/contracts/ff-mp/functionality/TransactionsMgr.sol\":7073:7085  _idToListing */\n      0x9c\n        /* \"contracts/contracts/ff-mp/functionality/TransactionsMgr.sol\":7073:7088  _idToListing[i] */\n      0x00\n        /* \"contracts/contracts/ff-mp/functionality/TransactionsMgr.sol\":7086:7087  i */\n      dup4\n        /* \"contracts/contracts/ff-mp/functionality/TransactionsMgr.sol\":7073:7088  _idToListing[i] */\n      dup2\n      mstore\n      0x20\n      add\n      swap1\n      dup2\n      mstore\n      0x20\n      add\n      0x00\n      keccak256\n        /* \"contracts/contracts/ff-mp/functionality/TransactionsMgr.sol\":7073:7095  _idToListing[i].active */\n      0x05\n      add\n      0x00\n      swap1\n      sload\n      swap1\n      0x0100\n      exp\n      swap1\n      div\n      0xff\n      and\n        /* \"contracts/contracts/ff-mp/functionality/TransactionsMgr.sol\":7073:7103  _idToListing[i].active == true */\n      iszero\n      iszero\n      sub\n        /* \"contracts/contracts/ff-mp/functionality/TransactionsMgr.sol\":7069:7234  if (_idToListing[i].active == true) {... */\n      tag_132\n      jumpi\n        /* \"contracts/contracts/ff-mp/functionality/TransactionsMgr.sol\":7118:7138  ListedItem storage l */\n      0x00\n        /* \"contracts/contracts/ff-mp/functionality/TransactionsMgr.sol\":7141:7153  _idToListing */\n      0x9c\n        /* \"contracts/contracts/ff-mp/functionality/TransactionsMgr.sol\":7141:7156  _idToListing[i] */\n      0x00\n        /* \"contracts/contracts/ff-mp/functionality/TransactionsMgr.sol\":7154:7155  i */\n      dup4\n        /* \"contracts/contracts/ff-mp/functionality/TransactionsMgr.sol\":7141:7156  _idToListing[i] */\n      dup2\n      mstore\n      0x20\n      add\n      swap1\n      dup2\n      mstore\n      0x20\n      add\n      0x00\n      keccak256\n        /* \"contracts/contracts/ff-mp/functionality/TransactionsMgr.sol\":7118:7156  ListedItem storage l = _idToListing[i] */\n      swap1\n      pop\n        /* \"contracts/contracts/ff-mp/functionality/TransactionsMgr.sol\":7191:7192  l */\n      dup1\n        /* \"contracts/contracts/ff-mp/functionality/TransactionsMgr.sol\":7169:7192  items[currentIndex] = l */\n      mload(0x40)\n      dup1\n      0x80\n      add\n      0x40\n      mstore\n      swap1\n      dup2\n      0x00\n      dup3\n      add\n      0x00\n      swap1\n      sload\n      swap1\n      0x0100\n      exp\n      swap1\n      div\n      0xffffffffffffffffffffffffffffffffffffffff\n      and\n      0xffffffffffffffffffffffffffffffffffffffff\n      and\n      0xffffffffffffffffffffffffffffffffffffffff\n      and\n      dup2\n      mstore\n      0x20\n      add\n      0x01\n      dup3\n      add\n      sload\n      dup2\n      mstore\n      0x20\n      add\n      0x02\n      dup3\n      add\n      mload(0x40)\n      dup1\n      0x60\n      add\n      0x40\n      mstore\n      swap1\n      dup2\n      0x00\n      dup3\n      add\n      sload\n      dup2\n      mstore\n      0x20\n      add\n      0x01\n      dup3\n      add\n      0x00\n      swap1\n      sload\n      swap1\n      0x0100\n      exp\n      swap1\n      div\n      0xffffffffffffffffffffffffffffffffffffffff\n      and\n      0xffffffffffffffffffffffffffffffffffffffff\n      and\n      0xffffffffffffffffffffffffffffffffffffffff\n      and\n      dup2\n      mstore\n      0x20\n      add\n      0x02\n      dup3\n      add\n      sload\n      dup2\n      mstore\n      pop\n      pop\n      dup2\n      mstore\n      0x20\n      add\n      0x05\n      dup3\n      add\n      0x00\n      swap1\n      sload\n      swap1\n      0x0100\n      exp\n      swap1\n      div\n      0xff\n      and\n      iszero\n      iszero\n      iszero\n      iszero\n      dup2\n      mstore\n      pop\n      pop\n        /* \"contracts/contracts/ff-mp/functionality/TransactionsMgr.sol\":7169:7174  items */\n      dup5\n        /* \"contracts/contracts/ff-mp/functionality/TransactionsMgr.sol\":7175:7187  currentIndex */\n      dup5\n        /* \"contracts/contracts/ff-mp/functionality/TransactionsMgr.sol\":7169:7188  items[currentIndex] */\n      dup2\n      mload\n      dup2\n      lt\n      tag_133\n      jumpi\n      tag_134\n      tag_135\n      jump\t// in\n    tag_134:\n    tag_133:\n      0x20\n      mul\n      0x20\n      add\n      add\n        /* \"contracts/contracts/ff-mp/functionality/TransactionsMgr.sol\":7169:7192  items[currentIndex] = l */\n      dup2\n      swap1\n      mstore\n      pop\n        /* \"contracts/contracts/ff-mp/functionality/TransactionsMgr.sol\":7221:7222  1 */\n      0x01\n        /* \"contracts/contracts/ff-mp/functionality/TransactionsMgr.sol\":7205:7222  currentIndex += 1 */\n      dup4\n      tag_136\n      swap2\n      swap1\n      tag_137\n      jump\t// in\n    tag_136:\n      swap3\n      pop\n        /* \"contracts/contracts/ff-mp/functionality/TransactionsMgr.sol\":7105:7234  {... */\n      pop\n        /* \"contracts/contracts/ff-mp/functionality/TransactionsMgr.sol\":7069:7234  if (_idToListing[i].active == true) {... */\n    tag_132:\n        /* \"contracts/contracts/ff-mp/functionality/TransactionsMgr.sol\":7008:7243  if (_idToListing[i].listing.seller == msg.sender) {... */\n    tag_131:\n        /* \"contracts/contracts/ff-mp/functionality/TransactionsMgr.sol\":6994:6997  i++ */\n      dup1\n      dup1\n      tag_138\n      swap1\n      tag_139\n      jump\t// in\n    tag_138:\n      swap2\n      pop\n      pop\n        /* \"contracts/contracts/ff-mp/functionality/TransactionsMgr.sol\":6945:7250  for (uint i = 0; i < _totalMpListings.current(); i++) {... */\n      jump(tag_127)\n    tag_128:\n      pop\n        /* \"contracts/contracts/ff-mp/functionality/TransactionsMgr.sol\":7265:7270  items */\n      dup2\n        /* \"contracts/contracts/ff-mp/functionality/TransactionsMgr.sol\":7258:7270  return items */\n      swap3\n      pop\n      pop\n      pop\n        /* \"contracts/contracts/ff-mp/functionality/TransactionsMgr.sol\":6760:7276  function fetchMyListings() public view returns (ListedItem[] memory) {... */\n      swap1\n      jump\t// out\n        /* \"contracts/contracts/ff-mp/deps/AdminControl.sol\":1876:1968  function updateDevWallet(address newDev) external onlyOwner {... */\n    tag_40:\n        /* \"@openzeppelin/contracts-upgradeable/access/OwnableUpgradeable.sol\":1334:1347  _checkOwner() */\n      tag_141\n        /* \"@openzeppelin/contracts-upgradeable/access/OwnableUpgradeable.sol\":1334:1345  _checkOwner */\n      tag_142\n        /* \"@openzeppelin/contracts-upgradeable/access/OwnableUpgradeable.sol\":1334:1347  _checkOwner() */\n      jump\t// in\n    tag_141:\n        /* \"contracts/contracts/ff-mp/deps/AdminControl.sol\":1956:1962  newDev */\n      dup1\n        /* \"contracts/contracts/ff-mp/deps/AdminControl.sol\":1943:1953  _devWallet */\n      0x67\n      0x00\n        /* \"contracts/contracts/ff-mp/deps/AdminControl.sol\":1943:1962  _devWallet = newDev */\n      0x0100\n      exp\n      dup2\n      sload\n      dup2\n      0xffffffffffffffffffffffffffffffffffffffff\n      mul\n      not\n      and\n      swap1\n      dup4\n      0xffffffffffffffffffffffffffffffffffffffff\n      and\n      mul\n      or\n      swap1\n      sstore\n      pop\n        /* \"contracts/contracts/ff-mp/deps/AdminControl.sol\":1876:1968  function updateDevWallet(address newDev) external onlyOwner {... */\n      pop\n      jump\t// out\n        /* \"contracts/contracts/ff-mp/functionality/TransactionsMgr.sol\":6229:6754  function fetchListedMarketItems()... */\n    tag_43:\n        /* \"contracts/contracts/ff-mp/functionality/TransactionsMgr.sol\":6301:6320  ListedItem[] memory */\n      0x60\n        /* \"contracts/contracts/ff-mp/functionality/TransactionsMgr.sol\":6332:6346  uint itemCount */\n      0x00\n        /* \"contracts/contracts/ff-mp/functionality/TransactionsMgr.sol\":6378:6402  _totalComplete.current() */\n      tag_145\n        /* \"contracts/contracts/ff-mp/functionality/TransactionsMgr.sol\":6378:6392  _totalComplete */\n      0x9e\n        /* \"contracts/contracts/ff-mp/functionality/TransactionsMgr.sol\":6378:6400  _totalComplete.current */\n      tag_119\n        /* \"contracts/contracts/ff-mp/functionality/TransactionsMgr.sol\":6378:6402  _totalComplete.current() */\n      jump\t// in\n    tag_145:\n        /* \"contracts/contracts/ff-mp/functionality/TransactionsMgr.sol\":6349:6375  _totalMpListings.current() */\n      tag_146\n        /* \"contracts/contracts/ff-mp/functionality/TransactionsMgr.sol\":6349:6365  _totalMpListings */\n      0x9d\n        /* \"contracts/contracts/ff-mp/functionality/TransactionsMgr.sol\":6349:6373  _totalMpListings.current */\n      tag_119\n        /* \"contracts/contracts/ff-mp/functionality/TransactionsMgr.sol\":6349:6375  _totalMpListings.current() */\n      jump\t// in\n    tag_146:\n        /* \"contracts/contracts/ff-mp/functionality/TransactionsMgr.sol\":6349:6402  _totalMpListings.current() - _totalComplete.current() */\n      tag_147\n      swap2\n      swap1\n      tag_148\n      jump\t// in\n    tag_147:\n        /* \"contracts/contracts/ff-mp/functionality/TransactionsMgr.sol\":6332:6402  uint itemCount = _totalMpListings.current() - _totalComplete.current() */\n      swap1\n      pop\n        /* \"contracts/contracts/ff-mp/functionality/TransactionsMgr.sol\":6409:6434  ListedItem[] memory items */\n      0x00\n        /* \"contracts/contracts/ff-mp/functionality/TransactionsMgr.sol\":6454:6463  itemCount */\n      dup2\n        /* \"contracts/contracts/ff-mp/functionality/TransactionsMgr.sol\":6437:6464  new ListedItem[](itemCount) */\n      0xffffffffffffffff\n      dup2\n      gt\n      iszero\n      tag_149\n      jumpi\n      tag_150\n      tag_122\n      jump\t// in\n    tag_150:\n    tag_149:\n      mload(0x40)\n      swap1\n      dup1\n      dup3\n      mstore\n      dup1\n      0x20\n      mul\n      0x20\n      add\n      dup3\n      add\n      0x40\n      mstore\n      dup1\n      iszero\n      tag_151\n      jumpi\n      dup2\n      0x20\n      add\n    tag_152:\n      tag_153\n      tag_126\n      jump\t// in\n    tag_153:\n      dup2\n      mstore\n      0x20\n      add\n      swap1\n      0x01\n      swap1\n      sub\n      swap1\n      dup2\n      tag_152\n      jumpi\n      swap1\n      pop\n    tag_151:\n      pop\n        /* \"contracts/contracts/ff-mp/functionality/TransactionsMgr.sol\":6409:6464  ListedItem[] memory items = new ListedItem[](itemCount) */\n      swap1\n      pop\n        /* \"contracts/contracts/ff-mp/functionality/TransactionsMgr.sol\":6471:6488  uint currentIndex */\n      0x00\n        /* \"contracts/contracts/ff-mp/functionality/TransactionsMgr.sol\":6506:6512  uint i */\n      dup1\n        /* \"contracts/contracts/ff-mp/functionality/TransactionsMgr.sol\":6501:6728  for (uint i = 0; i < _totalMpListings.current(); i++) {... */\n    tag_154:\n        /* \"contracts/contracts/ff-mp/functionality/TransactionsMgr.sol\":6522:6548  _totalMpListings.current() */\n      tag_157\n        /* \"contracts/contracts/ff-mp/functionality/TransactionsMgr.sol\":6522:6538  _totalMpListings */\n      0x9d\n        /* \"contracts/contracts/ff-mp/functionality/TransactionsMgr.sol\":6522:6546  _totalMpListings.current */\n      tag_119\n        /* \"contracts/contracts/ff-mp/functionality/TransactionsMgr.sol\":6522:6548  _totalMpListings.current() */\n      jump\t// in\n    tag_157:\n        /* \"contracts/contracts/ff-mp/functionality/TransactionsMgr.sol\":6518:6519  i */\n      dup2\n        /* \"contracts/contracts/ff-mp/functionality/TransactionsMgr.sol\":6518:6548  i < _totalMpListings.current() */\n      lt\n        /* \"contracts/contracts/ff-mp/functionality/TransactionsMgr.sol\":6501:6728  for (uint i = 0; i < _totalMpListings.current(); i++) {... */\n      iszero\n      tag_155\n      jumpi\n        /* \"contracts/contracts/ff-mp/functionality/TransactionsMgr.sol\":6594:6598  true */\n      0x01\n        /* \"contracts/contracts/ff-mp/functionality/TransactionsMgr.sol\":6568:6598  _idToListing[i].active == true */\n      iszero\n      iszero\n        /* \"contracts/contracts/ff-mp/functionality/TransactionsMgr.sol\":6568:6580  _idToListing */\n      0x9c\n        /* \"contracts/contracts/ff-mp/functionality/TransactionsMgr.sol\":6568:6583  _idToListing[i] */\n      0x00\n        /* \"contracts/contracts/ff-mp/functionality/TransactionsMgr.sol\":6581:6582  i */\n      dup4\n        /* \"contracts/contracts/ff-mp/functionality/TransactionsMgr.sol\":6568:6583  _idToListing[i] */\n      dup2\n      mstore\n      0x20\n      add\n      swap1\n      dup2\n      mstore\n      0x20\n      add\n      0x00\n      keccak256\n        /* \"contracts/contracts/ff-mp/functionality/TransactionsMgr.sol\":6568:6590  _idToListing[i].active */\n      0x05\n      add\n      0x00\n      swap1\n      sload\n      swap1\n      0x0100\n      exp\n      swap1\n      div\n      0xff\n      and\n        /* \"contracts/contracts/ff-mp/functionality/TransactionsMgr.sol\":6568:6598  _idToListing[i].active == true */\n      iszero\n      iszero\n      sub\n        /* \"contracts/contracts/ff-mp/functionality/TransactionsMgr.sol\":6564:6721  if (_idToListing[i].active == true) {... */\n      tag_158\n      jumpi\n        /* \"contracts/contracts/ff-mp/functionality/TransactionsMgr.sol\":6611:6631  ListedItem storage l */\n      0x00\n        /* \"contracts/contracts/ff-mp/functionality/TransactionsMgr.sol\":6634:6646  _idToListing */\n      0x9c\n        /* \"contracts/contracts/ff-mp/functionality/TransactionsMgr.sol\":6634:6649  _idToListing[i] */\n      0x00\n        /* \"contracts/contracts/ff-mp/functionality/TransactionsMgr.sol\":6647:6648  i */\n      dup4\n        /* \"contracts/contracts/ff-mp/functionality/TransactionsMgr.sol\":6634:6649  _idToListing[i] */\n      dup2\n      mstore\n      0x20\n      add\n      swap1\n      dup2\n      mstore\n      0x20\n      add\n      0x00\n      keccak256\n        /* \"contracts/contracts/ff-mp/functionality/TransactionsMgr.sol\":6611:6649  ListedItem storage l = _idToListing[i] */\n      swap1\n      pop\n        /* \"contracts/contracts/ff-mp/functionality/TransactionsMgr.sol\":6682:6683  l */\n      dup1\n        /* \"contracts/contracts/ff-mp/functionality/TransactionsMgr.sol\":6660:6683  items[currentIndex] = l */\n      mload(0x40)\n      dup1\n      0x80\n      add\n      0x40\n      mstore\n      swap1\n      dup2\n      0x00\n      dup3\n      add\n      0x00\n      swap1\n      sload\n      swap1\n      0x0100\n      exp\n      swap1\n      div\n      0xffffffffffffffffffffffffffffffffffffffff\n      and\n      0xffffffffffffffffffffffffffffffffffffffff\n      and\n      0xffffffffffffffffffffffffffffffffffffffff\n      and\n      dup2\n      mstore\n      0x20\n      add\n      0x01\n      dup3\n      add\n      sload\n      dup2\n      mstore\n      0x20\n      add\n      0x02\n      dup3\n      add\n      mload(0x40)\n      dup1\n      0x60\n      add\n      0x40\n      mstore\n      swap1\n      dup2\n      0x00\n      dup3\n      add\n      sload\n      dup2\n      mstore\n      0x20\n      add\n      0x01\n      dup3\n      add\n      0x00\n      swap1\n      sload\n      swap1\n      0x0100\n      exp\n      swap1\n      div\n      0xffffffffffffffffffffffffffffffffffffffff\n      and\n      0xffffffffffffffffffffffffffffffffffffffff\n      and\n      0xffffffffffffffffffffffffffffffffffffffff\n      and\n      dup2\n      mstore\n      0x20\n      add\n      0x02\n      dup3\n      add\n      sload\n      dup2\n      mstore\n      pop\n      pop\n      dup2\n      mstore\n      0x20\n      add\n      0x05\n      dup3\n      add\n      0x00\n      swap1\n      sload\n      swap1\n      0x0100\n      exp\n      swap1\n      div\n      0xff\n      and\n      iszero\n      iszero\n      iszero\n      iszero\n      dup2\n      mstore\n      pop\n      pop\n        /* \"contracts/contracts/ff-mp/functionality/TransactionsMgr.sol\":6660:6665  items */\n      dup5\n        /* \"contracts/contracts/ff-mp/functionality/TransactionsMgr.sol\":6666:6678  currentIndex */\n      dup5\n        /* \"contracts/contracts/ff-mp/functionality/TransactionsMgr.sol\":6660:6679  items[currentIndex] */\n      dup2\n      mload\n      dup2\n      lt\n      tag_159\n      jumpi\n      tag_160\n      tag_135\n      jump\t// in\n    tag_160:\n    tag_159:\n      0x20\n      mul\n      0x20\n      add\n      add\n        /* \"contracts/contracts/ff-mp/functionality/TransactionsMgr.sol\":6660:6683  items[currentIndex] = l */\n      dup2\n      swap1\n      mstore\n      pop\n        /* \"contracts/contracts/ff-mp/functionality/TransactionsMgr.sol\":6710:6711  1 */\n      0x01\n        /* \"contracts/contracts/ff-mp/functionality/TransactionsMgr.sol\":6694:6711  currentIndex += 1 */\n      dup4\n      tag_161\n      swap2\n      swap1\n      tag_137\n      jump\t// in\n    tag_161:\n      swap3\n      pop\n        /* \"contracts/contracts/ff-mp/functionality/TransactionsMgr.sol\":6600:6721  {... */\n      pop\n        /* \"contracts/contracts/ff-mp/functionality/TransactionsMgr.sol\":6564:6721  if (_idToListing[i].active == true) {... */\n    tag_158:\n        /* \"contracts/contracts/ff-mp/functionality/TransactionsMgr.sol\":6550:6553  i++ */\n      dup1\n      dup1\n      tag_162\n      swap1\n      tag_139\n      jump\t// in\n    tag_162:\n      swap2\n      pop\n      pop\n        /* \"contracts/contracts/ff-mp/functionality/TransactionsMgr.sol\":6501:6728  for (uint i = 0; i < _totalMpListings.current(); i++) {... */\n      jump(tag_154)\n    tag_155:\n      pop\n        /* \"contracts/contracts/ff-mp/functionality/TransactionsMgr.sol\":6743:6748  items */\n      dup2\n        /* \"contracts/contracts/ff-mp/functionality/TransactionsMgr.sol\":6736:6748  return items */\n      swap4\n      pop\n      pop\n      pop\n      pop\n        /* \"contracts/contracts/ff-mp/functionality/TransactionsMgr.sol\":6229:6754  function fetchListedMarketItems()... */\n      swap1\n      jump\t// out\n        /* \"contracts/contracts/ff-mp/deps/AdminControl.sol\":1077:1210  function isAdmin(address admin) public view override returns (bool) {... */\n    tag_48:\n        /* \"contracts/contracts/ff-mp/deps/AdminControl.sol\":1139:1143  bool */\n      0x00\n        /* \"contracts/contracts/ff-mp/deps/AdminControl.sol\":1171:1176  admin */\n      dup2\n        /* \"contracts/contracts/ff-mp/deps/AdminControl.sol\":1160:1176  owner() == admin */\n      0xffffffffffffffffffffffffffffffffffffffff\n      and\n        /* \"contracts/contracts/ff-mp/deps/AdminControl.sol\":1160:1167  owner() */\n      tag_164\n        /* \"contracts/contracts/ff-mp/deps/AdminControl.sol\":1160:1165  owner */\n      tag_87\n        /* \"contracts/contracts/ff-mp/deps/AdminControl.sol\":1160:1167  owner() */\n      jump\t// in\n    tag_164:\n        /* \"contracts/contracts/ff-mp/deps/AdminControl.sol\":1160:1176  owner() == admin */\n      0xffffffffffffffffffffffffffffffffffffffff\n      and\n      eq\n        /* \"contracts/contracts/ff-mp/deps/AdminControl.sol\":1160:1203  owner() == admin || _admins.contains(admin) */\n      dup1\n      tag_165\n      jumpi\n      pop\n        /* \"contracts/contracts/ff-mp/deps/AdminControl.sol\":1180:1203  _admins.contains(admin) */\n      tag_166\n        /* \"contracts/contracts/ff-mp/deps/AdminControl.sol\":1197:1202  admin */\n      dup3\n        /* \"contracts/contracts/ff-mp/deps/AdminControl.sol\":1180:1187  _admins */\n      0x65\n        /* \"contracts/contracts/ff-mp/deps/AdminControl.sol\":1180:1196  _admins.contains */\n      tag_167\n      swap1\n        /* \"contracts/contracts/ff-mp/deps/AdminControl.sol\":1180:1203  _admins.contains(admin) */\n      swap2\n      swap1\n      0xffffffff\n      and\n      jump\t// in\n    tag_166:\n        /* \"contracts/contracts/ff-mp/deps/AdminControl.sol\":1160:1203  owner() == admin || _admins.contains(admin) */\n    tag_165:\n        /* \"contracts/contracts/ff-mp/deps/AdminControl.sol\":1152:1204  return (owner() == admin || _admins.contains(admin)) */\n      swap1\n      pop\n        /* \"contracts/contracts/ff-mp/deps/AdminControl.sol\":1077:1210  function isAdmin(address admin) public view override returns (bool) {... */\n      swap2\n      swap1\n      pop\n      jump\t// out\n        /* \"contracts/contracts/ff-mp/deps/AdminControl.sol\":1682:1870  function revokeAdmin(address admin) external override onlyOwner {... */\n    tag_53:\n        /* \"@openzeppelin/contracts-upgradeable/access/OwnableUpgradeable.sol\":1334:1347  _checkOwner() */\n      tag_169\n        /* \"@openzeppelin/contracts-upgradeable/access/OwnableUpgradeable.sol\":1334:1345  _checkOwner */\n      tag_142\n        /* \"@openzeppelin/contracts-upgradeable/access/OwnableUpgradeable.sol\":1334:1347  _checkOwner() */\n      jump\t// in\n    tag_169:\n        /* \"contracts/contracts/ff-mp/deps/AdminControl.sol\":1757:1780  _admins.contains(admin) */\n      tag_171\n        /* \"contracts/contracts/ff-mp/deps/AdminControl.sol\":1774:1779  admin */\n      dup2\n        /* \"contracts/contracts/ff-mp/deps/AdminControl.sol\":1757:1764  _admins */\n      0x65\n        /* \"contracts/contracts/ff-mp/deps/AdminControl.sol\":1757:1773  _admins.contains */\n      tag_167\n      swap1\n        /* \"contracts/contracts/ff-mp/deps/AdminControl.sol\":1757:1780  _admins.contains(admin) */\n      swap2\n      swap1\n      0xffffffff\n      and\n      jump\t// in\n    tag_171:\n        /* \"contracts/contracts/ff-mp/deps/AdminControl.sol\":1753:1865  if (_admins.contains(admin)) {... */\n      iszero\n      tag_172\n      jumpi\n        /* \"contracts/contracts/ff-mp/deps/AdminControl.sol\":1816:1826  msg.sender */\n      caller\n        /* \"contracts/contracts/ff-mp/deps/AdminControl.sol\":1796:1827  AdminRevoked(admin, msg.sender) */\n      0xffffffffffffffffffffffffffffffffffffffff\n      and\n        /* \"contracts/contracts/ff-mp/deps/AdminControl.sol\":1809:1814  admin */\n      dup2\n        /* \"contracts/contracts/ff-mp/deps/AdminControl.sol\":1796:1827  AdminRevoked(admin, msg.sender) */\n      0xffffffffffffffffffffffffffffffffffffffff\n      and\n      0x7c0c3c84c67c85fcac635147348bfe374c24a1a93d0366d1cfe9d8853cbf89d5\n      mload(0x40)\n      mload(0x40)\n      dup1\n      swap2\n      sub\n      swap1\n      log3\n        /* \"contracts/contracts/ff-mp/deps/AdminControl.sol\":1836:1857  _admins.remove(admin) */\n      tag_173\n        /* \"contracts/contracts/ff-mp/deps/AdminControl.sol\":1851:1856  admin */\n      dup2\n        /* \"contracts/contracts/ff-mp/deps/AdminControl.sol\":1836:1843  _admins */\n      0x65\n        /* \"contracts/contracts/ff-mp/deps/AdminControl.sol\":1836:1850  _admins.remove */\n      tag_174\n      swap1\n        /* \"contracts/contracts/ff-mp/deps/AdminControl.sol\":1836:1857  _admins.remove(admin) */\n      swap2\n      swap1\n      0xffffffff\n      and\n      jump\t// in\n    tag_173:\n      pop\n        /* \"contracts/contracts/ff-mp/deps/AdminControl.sol\":1753:1865  if (_admins.contains(admin)) {... */\n    tag_172:\n        /* \"contracts/contracts/ff-mp/deps/AdminControl.sol\":1682:1870  function revokeAdmin(address admin) external override onlyOwner {... */\n      pop\n      jump\t// out\n        /* \"contracts/contracts/ff-mp/deps/AdminControl.sol\":1216:1482  function getAdmins()... */\n    tag_56:\n        /* \"contracts/contracts/ff-mp/deps/AdminControl.sol\":1289:1312  address[] memory admins */\n      0x60\n        /* \"contracts/contracts/ff-mp/deps/AdminControl.sol\":1347:1363  _admins.length() */\n      tag_176\n        /* \"contracts/contracts/ff-mp/deps/AdminControl.sol\":1347:1354  _admins */\n      0x65\n        /* \"contracts/contracts/ff-mp/deps/AdminControl.sol\":1347:1361  _admins.length */\n      tag_177\n        /* \"contracts/contracts/ff-mp/deps/AdminControl.sol\":1347:1363  _admins.length() */\n      jump\t// in\n    tag_176:\n        /* \"contracts/contracts/ff-mp/deps/AdminControl.sol\":1333:1364  new address[](_admins.length()) */\n      0xffffffffffffffff\n      dup2\n      gt\n      iszero\n      tag_178\n      jumpi\n      tag_179\n      tag_122\n      jump\t// in\n    tag_179:\n    tag_178:\n      mload(0x40)\n      swap1\n      dup1\n      dup3\n      mstore\n      dup1\n      0x20\n      mul\n      0x20\n      add\n      dup3\n      add\n      0x40\n      mstore\n      dup1\n      iszero\n      tag_180\n      jumpi\n      dup2\n      0x20\n      add\n      0x20\n      dup3\n      mul\n      dup1\n      calldatasize\n      dup4\n      calldatacopy\n      dup1\n      dup3\n      add\n      swap2\n      pop\n      pop\n      swap1\n      pop\n    tag_180:\n      pop\n        /* \"contracts/contracts/ff-mp/deps/AdminControl.sol\":1324:1364  admins = new address[](_admins.length()) */\n      swap1\n      pop\n        /* \"contracts/contracts/ff-mp/deps/AdminControl.sol\":1376:1382  uint i */\n      0x00\n        /* \"contracts/contracts/ff-mp/deps/AdminControl.sol\":1371:1457  for (uint i = 0; i < _admins.length(); i++) {... */\n    tag_181:\n        /* \"contracts/contracts/ff-mp/deps/AdminControl.sol\":1392:1408  _admins.length() */\n      tag_184\n        /* \"contracts/contracts/ff-mp/deps/AdminControl.sol\":1392:1399  _admins */\n      0x65\n        /* \"contracts/contracts/ff-mp/deps/AdminControl.sol\":1392:1406  _admins.length */\n      tag_177\n        /* \"contracts/contracts/ff-mp/deps/AdminControl.sol\":1392:1408  _admins.length() */\n      jump\t// in\n    tag_184:\n        /* \"contracts/contracts/ff-mp/deps/AdminControl.sol\":1388:1389  i */\n      dup2\n        /* \"contracts/contracts/ff-mp/deps/AdminControl.sol\":1388:1408  i < _admins.length() */\n      lt\n        /* \"contracts/contracts/ff-mp/deps/AdminControl.sol\":1371:1457  for (uint i = 0; i < _admins.length(); i++) {... */\n      iszero\n      tag_182\n      jumpi\n        /* \"contracts/contracts/ff-mp/deps/AdminControl.sol\":1436:1449  _admins.at(i) */\n      tag_185\n        /* \"contracts/contracts/ff-mp/deps/AdminControl.sol\":1447:1448  i */\n      dup2\n        /* \"contracts/contracts/ff-mp/deps/AdminControl.sol\":1436:1443  _admins */\n      0x65\n        /* \"contracts/contracts/ff-mp/deps/AdminControl.sol\":1436:1446  _admins.at */\n      tag_186\n      swap1\n        /* \"contracts/contracts/ff-mp/deps/AdminControl.sol\":1436:1449  _admins.at(i) */\n      swap2\n      swap1\n      0xffffffff\n      and\n      jump\t// in\n    tag_185:\n        /* \"contracts/contracts/ff-mp/deps/AdminControl.sol\":1424:1430  admins */\n      dup3\n        /* \"contracts/contracts/ff-mp/deps/AdminControl.sol\":1431:1432  i */\n      dup3\n        /* \"contracts/contracts/ff-mp/deps/AdminControl.sol\":1424:1433  admins[i] */\n      dup2\n      mload\n      dup2\n      lt\n      tag_187\n      jumpi\n      tag_188\n      tag_135\n      jump\t// in\n    tag_188:\n    tag_187:\n      0x20\n      mul\n      0x20\n      add\n      add\n        /* \"contracts/contracts/ff-mp/deps/AdminControl.sol\":1424:1449  admins[i] = _admins.at(i) */\n      swap1\n      0xffffffffffffffffffffffffffffffffffffffff\n      and\n      swap1\n      dup2\n      0xffffffffffffffffffffffffffffffffffffffff\n      and\n      dup2\n      mstore\n      pop\n      pop\n        /* \"contracts/contracts/ff-mp/deps/AdminControl.sol\":1410:1413  i++ */\n      dup1\n      dup1\n      tag_189\n      swap1\n      tag_139\n      jump\t// in\n    tag_189:\n      swap2\n      pop\n      pop\n        /* \"contracts/contracts/ff-mp/deps/AdminControl.sol\":1371:1457  for (uint i = 0; i < _admins.length(); i++) {... */\n      jump(tag_181)\n    tag_182:\n      pop\n        /* \"contracts/contracts/ff-mp/deps/AdminControl.sol\":1216:1482  function getAdmins()... */\n      swap1\n      jump\t// out\n        /* \"contracts/contracts/ff-mp/functionality/TransactionsMgr.sol\":6085:6223  function getListingById(... */\n    tag_63:\n        /* \"contracts/contracts/ff-mp/functionality/TransactionsMgr.sol\":6161:6178  ListedItem memory */\n      tag_190\n      tag_126\n      jump\t// in\n    tag_190:\n        /* \"contracts/contracts/ff-mp/functionality/TransactionsMgr.sol\":6194:6206  _idToListing */\n      0x9c\n        /* \"contracts/contracts/ff-mp/functionality/TransactionsMgr.sol\":6194:6217  _idToListing[listingId] */\n      0x00\n        /* \"contracts/contracts/ff-mp/functionality/TransactionsMgr.sol\":6207:6216  listingId */\n      dup4\n        /* \"contracts/contracts/ff-mp/functionality/TransactionsMgr.sol\":6194:6217  _idToListing[listingId] */\n      dup2\n      mstore\n      0x20\n      add\n      swap1\n      dup2\n      mstore\n      0x20\n      add\n      0x00\n      keccak256\n        /* \"contracts/contracts/ff-mp/functionality/TransactionsMgr.sol\":6187:6217  return _idToListing[listingId] */\n      mload(0x40)\n      dup1\n      0x80\n      add\n      0x40\n      mstore\n      swap1\n      dup2\n      0x00\n      dup3\n      add\n      0x00\n      swap1\n      sload\n      swap1\n      0x0100\n      exp\n      swap1\n      div\n      0xffffffffffffffffffffffffffffffffffffffff\n      and\n      0xffffffffffffffffffffffffffffffffffffffff\n      and\n      0xffffffffffffffffffffffffffffffffffffffff\n      and\n      dup2\n      mstore\n      0x20\n      add\n      0x01\n      dup3\n      add\n      sload\n      dup2\n      mstore\n      0x20\n      add\n      0x02\n      dup3\n      add\n      mload(0x40)\n      dup1\n      0x60\n      add\n      0x40\n      mstore\n      swap1\n      dup2\n      0x00\n      dup3\n      add\n      sload\n      dup2\n      mstore\n      0x20\n      add\n      0x01\n      dup3\n      add\n      0x00\n      swap1\n      sload\n      swap1\n      0x0100\n      exp\n      swap1\n      div\n      0xffffffffffffffffffffffffffffffffffffffff\n      and\n      0xffffffffffffffffffffffffffffffffffffffff\n      and\n      0xffffffffffffffffffffffffffffffffffffffff\n      and\n      dup2\n      mstore\n      0x20\n      add\n      0x02\n      dup3\n      add\n      sload\n      dup2\n      mstore\n      pop\n      pop\n      dup2\n      mstore\n      0x20\n      add\n      0x05\n      dup3\n      add\n      0x00\n      swap1\n      sload\n      swap1\n      0x0100\n      exp\n      swap1\n      div\n      0xff\n      and\n      iszero\n      iszero\n      iszero\n      iszero\n      dup2\n      mstore\n      pop\n      pop\n      swap1\n      pop\n        /* \"contracts/contracts/ff-mp/functionality/TransactionsMgr.sol\":6085:6223  function getListingById(... */\n      swap2\n      swap1\n      pop\n      jump\t// out\n        /* \"contracts/contracts/ff-mp/deps/AdminControl.sol\":1488:1676  function approveAdmin(address admin) external override onlyOwner {... */\n    tag_69:\n        /* \"@openzeppelin/contracts-upgradeable/access/OwnableUpgradeable.sol\":1334:1347  _checkOwner() */\n      tag_193\n        /* \"@openzeppelin/contracts-upgradeable/access/OwnableUpgradeable.sol\":1334:1345  _checkOwner */\n      tag_142\n        /* \"@openzeppelin/contracts-upgradeable/access/OwnableUpgradeable.sol\":1334:1347  _checkOwner() */\n      jump\t// in\n    tag_193:\n        /* \"contracts/contracts/ff-mp/deps/AdminControl.sol\":1565:1588  _admins.contains(admin) */\n      tag_195\n        /* \"contracts/contracts/ff-mp/deps/AdminControl.sol\":1582:1587  admin */\n      dup2\n        /* \"contracts/contracts/ff-mp/deps/AdminControl.sol\":1565:1572  _admins */\n      0x65\n        /* \"contracts/contracts/ff-mp/deps/AdminControl.sol\":1565:1581  _admins.contains */\n      tag_167\n      swap1\n        /* \"contracts/contracts/ff-mp/deps/AdminControl.sol\":1565:1588  _admins.contains(admin) */\n      swap2\n      swap1\n      0xffffffff\n      and\n      jump\t// in\n    tag_195:\n        /* \"contracts/contracts/ff-mp/deps/AdminControl.sol\":1560:1671  if (!_admins.contains(admin)) {... */\n      tag_196\n      jumpi\n        /* \"contracts/contracts/ff-mp/deps/AdminControl.sol\":1625:1635  msg.sender */\n      caller\n        /* \"contracts/contracts/ff-mp/deps/AdminControl.sol\":1604:1636  AdminApproved(admin, msg.sender) */\n      0xffffffffffffffffffffffffffffffffffffffff\n      and\n        /* \"contracts/contracts/ff-mp/deps/AdminControl.sol\":1618:1623  admin */\n      dup2\n        /* \"contracts/contracts/ff-mp/deps/AdminControl.sol\":1604:1636  AdminApproved(admin, msg.sender) */\n      0xffffffffffffffffffffffffffffffffffffffff\n      and\n      0x7e1a1a08d52e4ba0e21554733d66165fd5151f99460116223d9e3a608eec5cb1\n      mload(0x40)\n      mload(0x40)\n      dup1\n      swap2\n      sub\n      swap1\n      log3\n        /* \"contracts/contracts/ff-mp/deps/AdminControl.sol\":1645:1663  _admins.add(admin) */\n      tag_197\n        /* \"contracts/contracts/ff-mp/deps/AdminControl.sol\":1657:1662  admin */\n      dup2\n        /* \"contracts/contracts/ff-mp/deps/AdminControl.sol\":1645:1652  _admins */\n      0x65\n        /* \"contracts/contracts/ff-mp/deps/AdminControl.sol\":1645:1656  _admins.add */\n      tag_198\n      swap1\n        /* \"contracts/contracts/ff-mp/deps/AdminControl.sol\":1645:1663  _admins.add(admin) */\n      swap2\n      swap1\n      0xffffffff\n      and\n      jump\t// in\n    tag_197:\n      pop\n        /* \"contracts/contracts/ff-mp/deps/AdminControl.sol\":1560:1671  if (!_admins.contains(admin)) {... */\n    tag_196:\n        /* \"contracts/contracts/ff-mp/deps/AdminControl.sol\":1488:1676  function approveAdmin(address admin) external override onlyOwner {... */\n      pop\n      jump\t// out\n        /* \"@openzeppelin/contracts-upgradeable/access/OwnableUpgradeable.sol\":2064:2165  function renounceOwnership() public virtual onlyOwner {... */\n    tag_72:\n        /* \"@openzeppelin/contracts-upgradeable/access/OwnableUpgradeable.sol\":1334:1347  _checkOwner() */\n      tag_200\n        /* \"@openzeppelin/contracts-upgradeable/access/OwnableUpgradeable.sol\":1334:1345  _checkOwner */\n      tag_142\n        /* \"@openzeppelin/contracts-upgradeable/access/OwnableUpgradeable.sol\":1334:1347  _checkOwner() */\n      jump\t// in\n    tag_200:\n        /* \"@openzeppelin/contracts-upgradeable/access/OwnableUpgradeable.sol\":2128:2158  _transferOwnership(address(0)) */\n      tag_202\n        /* \"@openzeppelin/contracts-upgradeable/access/OwnableUpgradeable.sol\":2155:2156  0 */\n      0x00\n        /* \"@openzeppelin/contracts-upgradeable/access/OwnableUpgradeable.sol\":2128:2146  _transferOwnership */\n      tag_203\n        /* \"@openzeppelin/contracts-upgradeable/access/OwnableUpgradeable.sol\":2128:2158  _transferOwnership(address(0)) */\n      jump\t// in\n    tag_202:\n        /* \"@openzeppelin/contracts-upgradeable/access/OwnableUpgradeable.sol\":2064:2165  function renounceOwnership() public virtual onlyOwner {... */\n      jump\t// out\n        /* \"contracts/contracts/ff-mp/functionality/TransactionsMgr.sol\":5907:6079  function getListing(... */\n    tag_77:\n        /* \"contracts/contracts/ff-mp/functionality/TransactionsMgr.sol\":6007:6021  Listing memory */\n      tag_204\n      tag_205\n      jump\t// in\n    tag_204:\n        /* \"contracts/contracts/ff-mp/functionality/TransactionsMgr.sol\":6037:6047  s_listings */\n      0x9a\n        /* \"contracts/contracts/ff-mp/functionality/TransactionsMgr.sol\":6037:6064  s_listings[contractAddress] */\n      0x00\n        /* \"contracts/contracts/ff-mp/functionality/TransactionsMgr.sol\":6048:6063  contractAddress */\n      dup5\n        /* \"contracts/contracts/ff-mp/functionality/TransactionsMgr.sol\":6037:6064  s_listings[contractAddress] */\n      0xffffffffffffffffffffffffffffffffffffffff\n      and\n      0xffffffffffffffffffffffffffffffffffffffff\n      and\n      dup2\n      mstore\n      0x20\n      add\n      swap1\n      dup2\n      mstore\n      0x20\n      add\n      0x00\n      keccak256\n        /* \"contracts/contracts/ff-mp/functionality/TransactionsMgr.sol\":6037:6073  s_listings[contractAddress][tokenId] */\n      0x00\n        /* \"contracts/contracts/ff-mp/functionality/TransactionsMgr.sol\":6065:6072  tokenId */\n      dup4\n        /* \"contracts/contracts/ff-mp/functionality/TransactionsMgr.sol\":6037:6073  s_listings[contractAddress][tokenId] */\n      dup2\n      mstore\n      0x20\n      add\n      swap1\n      dup2\n      mstore\n      0x20\n      add\n      0x00\n      keccak256\n        /* \"contracts/contracts/ff-mp/functionality/TransactionsMgr.sol\":6030:6073  return s_listings[contractAddress][tokenId] */\n      mload(0x40)\n      dup1\n      0x60\n      add\n      0x40\n      mstore\n      swap1\n      dup2\n      0x00\n      dup3\n      add\n      sload\n      dup2\n      mstore\n      0x20\n      add\n      0x01\n      dup3\n      add\n      0x00\n      swap1\n      sload\n      swap1\n      0x0100\n      exp\n      swap1\n      div\n      0xffffffffffffffffffffffffffffffffffffffff\n      and\n      0xffffffffffffffffffffffffffffffffffffffff\n      and\n      0xffffffffffffffffffffffffffffffffffffffff\n      and\n      dup2\n      mstore\n      0x20\n      add\n      0x02\n      dup3\n      add\n      sload\n      dup2\n      mstore\n      pop\n      pop\n      swap1\n      pop\n        /* \"contracts/contracts/ff-mp/functionality/TransactionsMgr.sol\":5907:6079  function getListing(... */\n      swap3\n      swap2\n      pop\n      pop\n      jump\t// out\n        /* \"contracts/contracts/ff-mp/functionality/TransactionsMgr.sol\":3509:4429  function listItem(... */\n    tag_84:\n        /* \"contracts/contracts/ff-mp/functionality/TransactionsMgr.sol\":3633:3648  contractAddress */\n      dup3\n        /* \"contracts/contracts/ff-mp/functionality/TransactionsMgr.sol\":3650:3657  tokenId */\n      dup3\n        /* \"contracts/contracts/ff-mp/functionality/TransactionsMgr.sol\":3659:3669  msg.sender */\n      caller\n        /* \"contracts/contracts/ff-mp/functionality/TransactionsMgr.sol\":2402:2424  Listing memory listing */\n      0x00\n        /* \"contracts/contracts/ff-mp/functionality/TransactionsMgr.sol\":2427:2437  s_listings */\n      0x9a\n        /* \"contracts/contracts/ff-mp/functionality/TransactionsMgr.sol\":2427:2454  s_listings[contractAddress] */\n      0x00\n        /* \"contracts/contracts/ff-mp/functionality/TransactionsMgr.sol\":2438:2453  contractAddress */\n      dup6\n        /* \"contracts/contracts/ff-mp/functionality/TransactionsMgr.sol\":2427:2454  s_listings[contractAddress] */\n      0xffffffffffffffffffffffffffffffffffffffff\n      and\n      0xffffffffffffffffffffffffffffffffffffffff\n      and\n      dup2\n      mstore\n      0x20\n      add\n      swap1\n      dup2\n      mstore\n      0x20\n      add\n      0x00\n      keccak256\n        /* \"contracts/contracts/ff-mp/functionality/TransactionsMgr.sol\":2427:2463  s_listings[contractAddress][tokenId] */\n      0x00\n        /* \"contracts/contracts/ff-mp/functionality/TransactionsMgr.sol\":2455:2462  tokenId */\n      dup5\n        /* \"contracts/contracts/ff-mp/functionality/TransactionsMgr.sol\":2427:2463  s_listings[contractAddress][tokenId] */\n      dup2\n      mstore\n      0x20\n      add\n      swap1\n      dup2\n      mstore\n      0x20\n      add\n      0x00\n      keccak256\n        /* \"contracts/contracts/ff-mp/functionality/TransactionsMgr.sol\":2402:2463  Listing memory listing = s_listings[contractAddress][tokenId] */\n      mload(0x40)\n      dup1\n      0x60\n      add\n      0x40\n      mstore\n      swap1\n      dup2\n      0x00\n      dup3\n      add\n      sload\n      dup2\n      mstore\n      0x20\n      add\n      0x01\n      dup3\n      add\n      0x00\n      swap1\n      sload\n      swap1\n      0x0100\n      exp\n      swap1\n      div\n      0xffffffffffffffffffffffffffffffffffffffff\n      and\n      0xffffffffffffffffffffffffffffffffffffffff\n      and\n      0xffffffffffffffffffffffffffffffffffffffff\n      and\n      dup2\n      mstore\n      0x20\n      add\n      0x02\n      dup3\n      add\n      sload\n      dup2\n      mstore\n      pop\n      pop\n      swap1\n      pop\n        /* \"contracts/contracts/ff-mp/functionality/TransactionsMgr.sol\":2490:2491  0 */\n      0x00\n        /* \"contracts/contracts/ff-mp/functionality/TransactionsMgr.sol\":2474:2481  listing */\n      dup2\n        /* \"contracts/contracts/ff-mp/functionality/TransactionsMgr.sol\":2474:2487  listing.price */\n      0x00\n      add\n      mload\n        /* \"contracts/contracts/ff-mp/functionality/TransactionsMgr.sol\":2474:2491  listing.price > 0 */\n      gt\n        /* \"contracts/contracts/ff-mp/functionality/TransactionsMgr.sol\":2470:2556  if (listing.price > 0) {... */\n      iszero\n      tag_208\n      jumpi\n        /* \"contracts/contracts/ff-mp/functionality/TransactionsMgr.sol\":2523:2538  contractAddress */\n      dup4\n        /* \"contracts/contracts/ff-mp/functionality/TransactionsMgr.sol\":2540:2547  tokenId */\n      dup4\n        /* \"contracts/contracts/ff-mp/functionality/TransactionsMgr.sol\":2509:2548  AlreadyListed(contractAddress, tokenId) */\n      mload(0x40)\n      0x4a5568d500000000000000000000000000000000000000000000000000000000\n      dup2\n      mstore\n      0x04\n      add\n      tag_209\n      swap3\n      swap2\n      swap1\n      tag_210\n      jump\t// in\n    tag_209:\n      mload(0x40)\n      dup1\n      swap2\n      sub\n      swap1\n      revert\n        /* \"contracts/contracts/ff-mp/functionality/TransactionsMgr.sol\":2470:2556  if (listing.price > 0) {... */\n    tag_208:\n        /* \"contracts/contracts/ff-mp/functionality/TransactionsMgr.sol\":3684:3699  contractAddress */\n      dup7\n        /* \"contracts/contracts/ff-mp/functionality/TransactionsMgr.sol\":3701:3708  tokenId */\n      dup7\n        /* \"contracts/contracts/ff-mp/functionality/TransactionsMgr.sol\":3710:3720  msg.sender */\n      caller\n        /* \"contracts/contracts/ff-mp/functionality/TransactionsMgr.sol\":2915:2926  IERC721 nft */\n      0x00\n        /* \"contracts/contracts/ff-mp/functionality/TransactionsMgr.sol\":2937:2952  contractAddress */\n      dup4\n        /* \"contracts/contracts/ff-mp/functionality/TransactionsMgr.sol\":2915:2953  IERC721 nft = IERC721(contractAddress) */\n      swap1\n      pop\n        /* \"contracts/contracts/ff-mp/functionality/TransactionsMgr.sol\":2960:2973  address owner */\n      0x00\n        /* \"contracts/contracts/ff-mp/functionality/TransactionsMgr.sol\":2976:2979  nft */\n      dup2\n        /* \"contracts/contracts/ff-mp/functionality/TransactionsMgr.sol\":2976:2987  nft.ownerOf */\n      0xffffffffffffffffffffffffffffffffffffffff\n      and\n      0x6352211e\n        /* \"contracts/contracts/ff-mp/functionality/TransactionsMgr.sol\":2988:2995  tokenId */\n      dup6\n        /* \"contracts/contracts/ff-mp/functionality/TransactionsMgr.sol\":2976:2996  nft.ownerOf(tokenId) */\n      mload(0x40)\n      dup3\n      0xffffffff\n      and\n      0xe0\n      shl\n      dup2\n      mstore\n      0x04\n      add\n      tag_212\n      swap2\n      swap1\n      tag_213\n      jump\t// in\n    tag_212:\n      0x20\n      mload(0x40)\n      dup1\n      dup4\n      sub\n      dup2\n      dup7\n      gas\n      staticcall\n      iszero\n      dup1\n      iszero\n      tag_215\n      jumpi\n      returndatasize\n      0x00\n      dup1\n      returndatacopy\n      revert(0x00, returndatasize)\n    tag_215:\n      pop\n      pop\n      pop\n      pop\n      mload(0x40)\n      returndatasize\n      not(0x1f)\n      0x1f\n      dup3\n      add\n      and\n      dup3\n      add\n      dup1\n      0x40\n      mstore\n      pop\n      dup2\n      add\n      swap1\n      tag_216\n      swap2\n      swap1\n      tag_217\n      jump\t// in\n    tag_216:\n        /* \"contracts/contracts/ff-mp/functionality/TransactionsMgr.sol\":2960:2996  address owner = nft.ownerOf(tokenId) */\n      swap1\n      pop\n        /* \"contracts/contracts/ff-mp/functionality/TransactionsMgr.sol\":3018:3023  owner */\n      dup1\n        /* \"contracts/contracts/ff-mp/functionality/TransactionsMgr.sol\":3007:3023  spender != owner */\n      0xffffffffffffffffffffffffffffffffffffffff\n      and\n        /* \"contracts/contracts/ff-mp/functionality/TransactionsMgr.sol\":3007:3014  spender */\n      dup4\n        /* \"contracts/contracts/ff-mp/functionality/TransactionsMgr.sol\":3007:3023  spender != owner */\n      0xffffffffffffffffffffffffffffffffffffffff\n      and\n      eq\n        /* \"contracts/contracts/ff-mp/functionality/TransactionsMgr.sol\":3003:3059  if (spender != owner) {... */\n      tag_218\n      jumpi\n        /* \"contracts/contracts/ff-mp/functionality/TransactionsMgr.sol\":3041:3051  NotOwner() */\n      mload(0x40)\n      0x30cd747100000000000000000000000000000000000000000000000000000000\n      dup2\n      mstore\n      0x04\n      add\n      mload(0x40)\n      dup1\n      swap2\n      sub\n      swap1\n      revert\n        /* \"contracts/contracts/ff-mp/functionality/TransactionsMgr.sol\":3003:3059  if (spender != owner) {... */\n    tag_218:\n        /* \"contracts/contracts/ff-mp/functionality/TransactionsMgr.sol\":3745:3746  0 */\n      0x00\n        /* \"contracts/contracts/ff-mp/functionality/TransactionsMgr.sol\":3736:3741  price */\n      dup11\n        /* \"contracts/contracts/ff-mp/functionality/TransactionsMgr.sol\":3736:3746  price <= 0 */\n      gt\n        /* \"contracts/contracts/ff-mp/functionality/TransactionsMgr.sol\":3732:3794  if (price <= 0) {... */\n      tag_220\n      jumpi\n        /* \"contracts/contracts/ff-mp/functionality/TransactionsMgr.sol\":3764:3786  PriceMustBeAboveZero() */\n      mload(0x40)\n      0xe1abbfc500000000000000000000000000000000000000000000000000000000\n      dup2\n      mstore\n      0x04\n      add\n      mload(0x40)\n      dup1\n      swap2\n      sub\n      swap1\n      revert\n        /* \"contracts/contracts/ff-mp/functionality/TransactionsMgr.sol\":3732:3794  if (price <= 0) {... */\n    tag_220:\n        /* \"contracts/contracts/ff-mp/functionality/TransactionsMgr.sol\":3809:3819  address ca */\n      0x00\n        /* \"contracts/contracts/ff-mp/functionality/TransactionsMgr.sol\":3822:3837  contractAddress */\n      dup13\n        /* \"contracts/contracts/ff-mp/functionality/TransactionsMgr.sol\":3809:3837  address ca = contractAddress */\n      swap1\n      pop\n        /* \"contracts/contracts/ff-mp/functionality/TransactionsMgr.sol\":3846:3854  uint tId */\n      0x00\n        /* \"contracts/contracts/ff-mp/functionality/TransactionsMgr.sol\":3857:3864  tokenId */\n      dup13\n        /* \"contracts/contracts/ff-mp/functionality/TransactionsMgr.sol\":3846:3864  uint tId = tokenId */\n      swap1\n      pop\n        /* \"contracts/contracts/ff-mp/functionality/TransactionsMgr.sol\":3875:3886  IERC721 nft */\n      0x00\n        /* \"contracts/contracts/ff-mp/functionality/TransactionsMgr.sol\":3897:3899  ca */\n      dup3\n        /* \"contracts/contracts/ff-mp/functionality/TransactionsMgr.sol\":3875:3900  IERC721 nft = IERC721(ca) */\n      swap1\n      pop\n        /* \"contracts/contracts/ff-mp/functionality/TransactionsMgr.sol\":3945:3949  this */\n      address\n        /* \"contracts/contracts/ff-mp/functionality/TransactionsMgr.sol\":3913:3950  nft.getApproved(tId) != address(this) */\n      0xffffffffffffffffffffffffffffffffffffffff\n      and\n        /* \"contracts/contracts/ff-mp/functionality/TransactionsMgr.sol\":3913:3916  nft */\n      dup2\n        /* \"contracts/contracts/ff-mp/functionality/TransactionsMgr.sol\":3913:3928  nft.getApproved */\n      0xffffffffffffffffffffffffffffffffffffffff\n      and\n      0x081812fc\n        /* \"contracts/contracts/ff-mp/functionality/TransactionsMgr.sol\":3929:3932  tId */\n      dup5\n        /* \"contracts/contracts/ff-mp/functionality/TransactionsMgr.sol\":3913:3933  nft.getApproved(tId) */\n      mload(0x40)\n      dup3\n      0xffffffff\n      and\n      0xe0\n      shl\n      dup2\n      mstore\n      0x04\n      add\n      tag_221\n      swap2\n      swap1\n      tag_213\n      jump\t// in\n    tag_221:\n      0x20\n      mload(0x40)\n      dup1\n      dup4\n      sub\n      dup2\n      dup7\n      gas\n      staticcall\n      iszero\n      dup1\n      iszero\n      tag_223\n      jumpi\n      returndatasize\n      0x00\n      dup1\n      returndatacopy\n      revert(0x00, returndatasize)\n    tag_223:\n      pop\n      pop\n      pop\n      pop\n      mload(0x40)\n      returndatasize\n      not(0x1f)\n      0x1f\n      dup3\n      add\n      and\n      dup3\n      add\n      dup1\n      0x40\n      mstore\n      pop\n      dup2\n      add\n      swap1\n      tag_224\n      swap2\n      swap1\n      tag_217\n      jump\t// in\n    tag_224:\n        /* \"contracts/contracts/ff-mp/functionality/TransactionsMgr.sol\":3913:3950  nft.getApproved(tId) != address(this) */\n      0xffffffffffffffffffffffffffffffffffffffff\n      and\n      eq\n        /* \"contracts/contracts/ff-mp/functionality/TransactionsMgr.sol\":3909:4007  if (nft.getApproved(tId) != address(this)) {... */\n      tag_225\n      jumpi\n        /* \"contracts/contracts/ff-mp/functionality/TransactionsMgr.sol\":3970:3997  NotApprovedForMarketplace() */\n      mload(0x40)\n      0x4be3a2c500000000000000000000000000000000000000000000000000000000\n      dup2\n      mstore\n      0x04\n      add\n      mload(0x40)\n      dup1\n      swap2\n      sub\n      swap1\n      revert\n        /* \"contracts/contracts/ff-mp/functionality/TransactionsMgr.sol\":3909:4007  if (nft.getApproved(tId) != address(this)) {... */\n    tag_225:\n        /* \"contracts/contracts/ff-mp/functionality/TransactionsMgr.sol\":4015:4031  Listing memory l */\n      0x00\n        /* \"contracts/contracts/ff-mp/functionality/TransactionsMgr.sol\":4034:4088  Listing(price, msg.sender, _totalMpListings.current()) */\n      mload(0x40)\n      dup1\n      0x60\n      add\n      0x40\n      mstore\n      dup1\n        /* \"contracts/contracts/ff-mp/functionality/TransactionsMgr.sol\":4042:4047  price */\n      dup16\n        /* \"contracts/contracts/ff-mp/functionality/TransactionsMgr.sol\":4034:4088  Listing(price, msg.sender, _totalMpListings.current()) */\n      dup2\n      mstore\n      0x20\n      add\n        /* \"contracts/contracts/ff-mp/functionality/TransactionsMgr.sol\":4049:4059  msg.sender */\n      caller\n        /* \"contracts/contracts/ff-mp/functionality/TransactionsMgr.sol\":4034:4088  Listing(price, msg.sender, _totalMpListings.current()) */\n      0xffffffffffffffffffffffffffffffffffffffff\n      and\n      dup2\n      mstore\n      0x20\n      add\n        /* \"contracts/contracts/ff-mp/functionality/TransactionsMgr.sol\":4061:4087  _totalMpListings.current() */\n      tag_226\n        /* \"contracts/contracts/ff-mp/functionality/TransactionsMgr.sol\":4061:4077  _totalMpListings */\n      0x9d\n        /* \"contracts/contracts/ff-mp/functionality/TransactionsMgr.sol\":4061:4085  _totalMpListings.current */\n      tag_119\n        /* \"contracts/contracts/ff-mp/functionality/TransactionsMgr.sol\":4061:4087  _totalMpListings.current() */\n      jump\t// in\n    tag_226:\n        /* \"contracts/contracts/ff-mp/functionality/TransactionsMgr.sol\":4034:4088  Listing(price, msg.sender, _totalMpListings.current()) */\n      dup2\n      mstore\n      pop\n        /* \"contracts/contracts/ff-mp/functionality/TransactionsMgr.sol\":4015:4088  Listing memory l = Listing(price, msg.sender, _totalMpListings.current()) */\n      swap1\n      pop\n        /* \"contracts/contracts/ff-mp/functionality/TransactionsMgr.sol\":4119:4120  l */\n      dup1\n        /* \"contracts/contracts/ff-mp/functionality/TransactionsMgr.sol\":4097:4107  s_listings */\n      0x9a\n        /* \"contracts/contracts/ff-mp/functionality/TransactionsMgr.sol\":4097:4111  s_listings[ca] */\n      0x00\n        /* \"contracts/contracts/ff-mp/functionality/TransactionsMgr.sol\":4108:4110  ca */\n      dup7\n        /* \"contracts/contracts/ff-mp/functionality/TransactionsMgr.sol\":4097:4111  s_listings[ca] */\n      0xffffffffffffffffffffffffffffffffffffffff\n      and\n      0xffffffffffffffffffffffffffffffffffffffff\n      and\n      dup2\n      mstore\n      0x20\n      add\n      swap1\n      dup2\n      mstore\n      0x20\n      add\n      0x00\n      keccak256\n        /* \"contracts/contracts/ff-mp/functionality/TransactionsMgr.sol\":4097:4116  s_listings[ca][tId] */\n      0x00\n        /* \"contracts/contracts/ff-mp/functionality/TransactionsMgr.sol\":4112:4115  tId */\n      dup6\n        /* \"contracts/contracts/ff-mp/functionality/TransactionsMgr.sol\":4097:4116  s_listings[ca][tId] */\n      dup2\n      mstore\n      0x20\n      add\n      swap1\n      dup2\n      mstore\n      0x20\n      add\n      0x00\n      keccak256\n        /* \"contracts/contracts/ff-mp/functionality/TransactionsMgr.sol\":4097:4120  s_listings[ca][tId] = l */\n      0x00\n      dup3\n      add\n      mload\n      dup2\n      0x00\n      add\n      sstore\n      0x20\n      dup3\n      add\n      mload\n      dup2\n      0x01\n      add\n      exp(0x0100, 0x00)\n      dup2\n      sload\n      dup2\n      0xffffffffffffffffffffffffffffffffffffffff\n      mul\n      not\n      and\n      swap1\n      dup4\n      0xffffffffffffffffffffffffffffffffffffffff\n      and\n      mul\n      or\n      swap1\n      sstore\n      pop\n      0x40\n      dup3\n      add\n      mload\n      dup2\n      0x02\n      add\n      sstore\n      swap1\n      pop\n      pop\n        /* \"contracts/contracts/ff-mp/functionality/TransactionsMgr.sol\":4131:4151  ListedItem memory li */\n      0x00\n        /* \"contracts/contracts/ff-mp/functionality/TransactionsMgr.sol\":4154:4182  ListedItem(ca, tId, l, true) */\n      mload(0x40)\n      dup1\n      0x80\n      add\n      0x40\n      mstore\n      dup1\n        /* \"contracts/contracts/ff-mp/functionality/TransactionsMgr.sol\":4165:4167  ca */\n      dup7\n        /* \"contracts/contracts/ff-mp/functionality/TransactionsMgr.sol\":4154:4182  ListedItem(ca, tId, l, true) */\n      0xffffffffffffffffffffffffffffffffffffffff\n      and\n      dup2\n      mstore\n      0x20\n      add\n        /* \"contracts/contracts/ff-mp/functionality/TransactionsMgr.sol\":4169:4172  tId */\n      dup6\n        /* \"contracts/contracts/ff-mp/functionality/TransactionsMgr.sol\":4154:4182  ListedItem(ca, tId, l, true) */\n      dup2\n      mstore\n      0x20\n      add\n        /* \"contracts/contracts/ff-mp/functionality/TransactionsMgr.sol\":4174:4175  l */\n      dup4\n        /* \"contracts/contracts/ff-mp/functionality/TransactionsMgr.sol\":4154:4182  ListedItem(ca, tId, l, true) */\n      dup2\n      mstore\n      0x20\n      add\n        /* \"contracts/contracts/ff-mp/functionality/TransactionsMgr.sol\":4177:4181  true */\n      0x01\n        /* \"contracts/contracts/ff-mp/functionality/TransactionsMgr.sol\":4154:4182  ListedItem(ca, tId, l, true) */\n      iszero\n      iszero\n      dup2\n      mstore\n      pop\n        /* \"contracts/contracts/ff-mp/functionality/TransactionsMgr.sol\":4131:4182  ListedItem memory li = ListedItem(ca, tId, l, true) */\n      swap1\n      pop\n        /* \"contracts/contracts/ff-mp/functionality/TransactionsMgr.sol\":4234:4236  li */\n      dup1\n        /* \"contracts/contracts/ff-mp/functionality/TransactionsMgr.sol\":4191:4203  _idToListing */\n      0x9c\n        /* \"contracts/contracts/ff-mp/functionality/TransactionsMgr.sol\":4191:4231  _idToListing[_totalMpListings.current()] */\n      0x00\n        /* \"contracts/contracts/ff-mp/functionality/TransactionsMgr.sol\":4204:4230  _totalMpListings.current() */\n      tag_227\n        /* \"contracts/contracts/ff-mp/functionality/TransactionsMgr.sol\":4204:4220  _totalMpListings */\n      0x9d\n        /* \"contracts/contracts/ff-mp/functionality/TransactionsMgr.sol\":4204:4228  _totalMpListings.current */\n      tag_119\n        /* \"contracts/contracts/ff-mp/functionality/TransactionsMgr.sol\":4204:4230  _totalMpListings.current() */\n      jump\t// in\n    tag_227:\n        /* \"contracts/contracts/ff-mp/functionality/TransactionsMgr.sol\":4191:4231  _idToListing[_totalMpListings.current()] */\n      dup2\n      mstore\n      0x20\n      add\n      swap1\n      dup2\n      mstore\n      0x20\n      add\n      0x00\n      keccak256\n        /* \"contracts/contracts/ff-mp/functionality/TransactionsMgr.sol\":4191:4236  _idToListing[_totalMpListings.current()] = li */\n      0x00\n      dup3\n      add\n      mload\n      dup2\n      0x00\n      add\n      exp(0x0100, 0x00)\n      dup2\n      sload\n      dup2\n      0xffffffffffffffffffffffffffffffffffffffff\n      mul\n      not\n      and\n      swap1\n      dup4\n      0xffffffffffffffffffffffffffffffffffffffff\n      and\n      mul\n      or\n      swap1\n      sstore\n      pop\n      0x20\n      dup3\n      add\n      mload\n      dup2\n      0x01\n      add\n      sstore\n      0x40\n      dup3\n      add\n      mload\n      dup2\n      0x02\n      add\n      0x00\n      dup3\n      add\n      mload\n      dup2\n      0x00\n      add\n      sstore\n      0x20\n      dup3\n      add\n      mload\n      dup2\n      0x01\n      add\n      exp(0x0100, 0x00)\n      dup2\n      sload\n      dup2\n      0xffffffffffffffffffffffffffffffffffffffff\n      mul\n      not\n      and\n      swap1\n      dup4\n      0xffffffffffffffffffffffffffffffffffffffff\n      and\n      mul\n      or\n      swap1\n      sstore\n      pop\n      0x40\n      dup3\n      add\n      mload\n      dup2\n      0x02\n      add\n      sstore\n      pop\n      pop\n      0x60\n      dup3\n      add\n      mload\n      dup2\n      0x05\n      add\n      exp(0x0100, 0x00)\n      dup2\n      sload\n      dup2\n      0xff\n      mul\n      not\n      and\n      swap1\n      dup4\n      iszero\n      iszero\n      mul\n      or\n      swap1\n      sstore\n      pop\n      swap1\n      pop\n      pop\n        /* \"contracts/contracts/ff-mp/functionality/TransactionsMgr.sol\":4245:4273  _totalMpListings.increment() */\n      tag_228\n        /* \"contracts/contracts/ff-mp/functionality/TransactionsMgr.sol\":4245:4261  _totalMpListings */\n      0x9d\n        /* \"contracts/contracts/ff-mp/functionality/TransactionsMgr.sol\":4245:4271  _totalMpListings.increment */\n      tag_229\n        /* \"contracts/contracts/ff-mp/functionality/TransactionsMgr.sol\":4245:4273  _totalMpListings.increment() */\n      jump\t// in\n    tag_228:\n        /* \"contracts/contracts/ff-mp/functionality/TransactionsMgr.sol\":3800:4281  {... */\n      pop\n      pop\n      pop\n      pop\n      pop\n        /* \"contracts/contracts/ff-mp/functionality/TransactionsMgr.sol\":4395:4402  tokenId */\n      dup11\n        /* \"contracts/contracts/ff-mp/functionality/TransactionsMgr.sol\":4371:4386  contractAddress */\n      dup13\n        /* \"contracts/contracts/ff-mp/functionality/TransactionsMgr.sol\":4294:4423  ItemListed(... */\n      0xffffffffffffffffffffffffffffffffffffffff\n      and\n        /* \"contracts/contracts/ff-mp/functionality/TransactionsMgr.sol\":4352:4362  msg.sender */\n      caller\n        /* \"contracts/contracts/ff-mp/functionality/TransactionsMgr.sol\":4294:4423  ItemListed(... */\n      0xffffffffffffffffffffffffffffffffffffffff\n      and\n      0x424b3284a7958bb7965c27ca0b2a8b30ce2a56ba954533df15e6bded1b608ed7\n        /* \"contracts/contracts/ff-mp/functionality/TransactionsMgr.sol\":4342:4343  1 */\n      0x01\n        /* \"contracts/contracts/ff-mp/functionality/TransactionsMgr.sol\":4313:4339  _totalMpListings.current() */\n      tag_230\n        /* \"contracts/contracts/ff-mp/functionality/TransactionsMgr.sol\":4313:4329  _totalMpListings */\n      0x9d\n        /* \"contracts/contracts/ff-mp/functionality/TransactionsMgr.sol\":4313:4337  _totalMpListings.current */\n      tag_119\n        /* \"contracts/contracts/ff-mp/functionality/TransactionsMgr.sol\":4313:4339  _totalMpListings.current() */\n      jump\t// in\n    tag_230:\n        /* \"contracts/contracts/ff-mp/functionality/TransactionsMgr.sol\":4313:4343  _totalMpListings.current() - 1 */\n      tag_231\n      swap2\n      swap1\n      tag_148\n      jump\t// in\n    tag_231:\n        /* \"contracts/contracts/ff-mp/functionality/TransactionsMgr.sol\":4411:4416  price */\n      dup15\n        /* \"contracts/contracts/ff-mp/functionality/TransactionsMgr.sol\":4294:4423  ItemListed(... */\n      mload(0x40)\n      tag_232\n      swap3\n      swap2\n      swap1\n      tag_233\n      jump\t// in\n    tag_232:\n      mload(0x40)\n      dup1\n      swap2\n      sub\n      swap1\n      log4\n        /* \"contracts/contracts/ff-mp/functionality/TransactionsMgr.sol\":2908:3072  {... */\n      pop\n      pop\n        /* \"contracts/contracts/ff-mp/functionality/TransactionsMgr.sol\":2562:2563  _ */\n      pop\n      pop\n      pop\n        /* \"contracts/contracts/ff-mp/functionality/TransactionsMgr.sol\":2395:2569  {... */\n      pop\n        /* \"contracts/contracts/ff-mp/functionality/TransactionsMgr.sol\":3509:4429  function listItem(... */\n      pop\n      pop\n      pop\n      pop\n      pop\n      pop\n      jump\t// out\n        /* \"@openzeppelin/contracts-upgradeable/access/OwnableUpgradeable.sol\":1441:1526  function owner() public view virtual returns (address) {... */\n    tag_87:\n        /* \"@openzeppelin/contracts-upgradeable/access/OwnableUpgradeable.sol\":1487:1494  address */\n      0x00\n        /* \"@openzeppelin/contracts-upgradeable/access/OwnableUpgradeable.sol\":1513:1519  _owner */\n      0x33\n      0x00\n      swap1\n      sload\n      swap1\n      0x0100\n      exp\n      swap1\n      div\n      0xffffffffffffffffffffffffffffffffffffffff\n      and\n        /* \"@openzeppelin/contracts-upgradeable/access/OwnableUpgradeable.sol\":1506:1519  return _owner */\n      swap1\n      pop\n        /* \"@openzeppelin/contracts-upgradeable/access/OwnableUpgradeable.sol\":1441:1526  function owner() public view virtual returns (address) {... */\n      swap1\n      jump\t// out\n        /* \"contracts/contracts/ff-mp/functionality/TransactionsMgr.sol\":4435:5269  function buyItem(... */\n    tag_92:\n        /* \"contracts/contracts/ff-mp/functionality/TransactionsMgr.sol\":4535:4550  contractAddress */\n      dup2\n        /* \"contracts/contracts/ff-mp/functionality/TransactionsMgr.sol\":4552:4559  tokenId */\n      dup2\n        /* \"contracts/contracts/ff-mp/functionality/TransactionsMgr.sol\":2642:2664  Listing memory listing */\n      0x00\n        /* \"contracts/contracts/ff-mp/functionality/TransactionsMgr.sol\":2667:2677  s_listings */\n      0x9a\n        /* \"contracts/contracts/ff-mp/functionality/TransactionsMgr.sol\":2667:2694  s_listings[contractAddress] */\n      0x00\n        /* \"contracts/contracts/ff-mp/functionality/TransactionsMgr.sol\":2678:2693  contractAddress */\n      dup5\n        /* \"contracts/contracts/ff-mp/functionality/TransactionsMgr.sol\":2667:2694  s_listings[contractAddress] */\n      0xffffffffffffffffffffffffffffffffffffffff\n      and\n      0xffffffffffffffffffffffffffffffffffffffff\n      and\n      dup2\n      mstore\n      0x20\n      add\n      swap1\n      dup2\n      mstore\n      0x20\n      add\n      0x00\n      keccak256\n        /* \"contracts/contracts/ff-mp/functionality/TransactionsMgr.sol\":2667:2703  s_listings[contractAddress][tokenId] */\n      0x00\n        /* \"contracts/contracts/ff-mp/functionality/TransactionsMgr.sol\":2695:2702  tokenId */\n      dup4\n        /* \"contracts/contracts/ff-mp/functionality/TransactionsMgr.sol\":2667:2703  s_listings[contractAddress][tokenId] */\n      dup2\n      mstore\n      0x20\n      add\n      swap1\n      dup2\n      mstore\n      0x20\n      add\n      0x00\n      keccak256\n        /* \"contracts/contracts/ff-mp/functionality/TransactionsMgr.sol\":2642:2703  Listing memory listing = s_listings[contractAddress][tokenId] */\n      mload(0x40)\n      dup1\n      0x60\n      add\n      0x40\n      mstore\n      swap1\n      dup2\n      0x00\n      dup3\n      add\n      sload\n      dup2\n      mstore\n      0x20\n      add\n      0x01\n      dup3\n      add\n      0x00\n      swap1\n      sload\n      swap1\n      0x0100\n      exp\n      swap1\n      div\n      0xffffffffffffffffffffffffffffffffffffffff\n      and\n      0xffffffffffffffffffffffffffffffffffffffff\n      and\n      0xffffffffffffffffffffffffffffffffffffffff\n      and\n      dup2\n      mstore\n      0x20\n      add\n      0x02\n      dup3\n      add\n      sload\n      dup2\n      mstore\n      pop\n      pop\n      swap1\n      pop\n        /* \"contracts/contracts/ff-mp/functionality/TransactionsMgr.sol\":2731:2732  0 */\n      0x00\n        /* \"contracts/contracts/ff-mp/functionality/TransactionsMgr.sol\":2714:2721  listing */\n      dup2\n        /* \"contracts/contracts/ff-mp/functionality/TransactionsMgr.sol\":2714:2727  listing.price */\n      0x00\n      add\n      mload\n        /* \"contracts/contracts/ff-mp/functionality/TransactionsMgr.sol\":2714:2732  listing.price <= 0 */\n      gt\n        /* \"contracts/contracts/ff-mp/functionality/TransactionsMgr.sol\":2710:2793  if (listing.price <= 0) {... */\n      tag_236\n      jumpi\n        /* \"contracts/contracts/ff-mp/functionality/TransactionsMgr.sol\":2760:2775  contractAddress */\n      dup3\n        /* \"contracts/contracts/ff-mp/functionality/TransactionsMgr.sol\":2777:2784  tokenId */\n      dup3\n        /* \"contracts/contracts/ff-mp/functionality/TransactionsMgr.sol\":2750:2785  NotListed(contractAddress, tokenId) */\n      mload(0x40)\n      0x6831488c00000000000000000000000000000000000000000000000000000000\n      dup2\n      mstore\n      0x04\n      add\n      tag_237\n      swap3\n      swap2\n      swap1\n      tag_210\n      jump\t// in\n    tag_237:\n      mload(0x40)\n      dup1\n      swap2\n      sub\n      swap1\n      revert\n        /* \"contracts/contracts/ff-mp/functionality/TransactionsMgr.sol\":2710:2793  if (listing.price <= 0) {... */\n    tag_236:\n        /* \"@openzeppelin/contracts-upgradeable/security/ReentrancyGuardUpgradeable.sol\":2505:2526  _nonReentrantBefore() */\n      tag_239\n        /* \"@openzeppelin/contracts-upgradeable/security/ReentrancyGuardUpgradeable.sol\":2505:2524  _nonReentrantBefore */\n      tag_240\n        /* \"@openzeppelin/contracts-upgradeable/security/ReentrancyGuardUpgradeable.sol\":2505:2526  _nonReentrantBefore() */\n      jump\t// in\n    tag_239:\n        /* \"contracts/contracts/ff-mp/functionality/TransactionsMgr.sol\":4581:4606  Listing memory listedItem */\n      0x00\n        /* \"contracts/contracts/ff-mp/functionality/TransactionsMgr.sol\":4609:4619  s_listings */\n      0x9a\n        /* \"contracts/contracts/ff-mp/functionality/TransactionsMgr.sol\":4609:4636  s_listings[contractAddress] */\n      0x00\n        /* \"contracts/contracts/ff-mp/functionality/TransactionsMgr.sol\":4620:4635  contractAddress */\n      dup8\n        /* \"contracts/contracts/ff-mp/functionality/TransactionsMgr.sol\":4609:4636  s_listings[contractAddress] */\n      0xffffffffffffffffffffffffffffffffffffffff\n      and\n      0xffffffffffffffffffffffffffffffffffffffff\n      and\n      dup2\n      mstore\n      0x20\n      add\n      swap1\n      dup2\n      mstore\n      0x20\n      add\n      0x00\n      keccak256\n        /* \"contracts/contracts/ff-mp/functionality/TransactionsMgr.sol\":4609:4645  s_listings[contractAddress][tokenId] */\n      0x00\n        /* \"contracts/contracts/ff-mp/functionality/TransactionsMgr.sol\":4637:4644  tokenId */\n      dup7\n        /* \"contracts/contracts/ff-mp/functionality/TransactionsMgr.sol\":4609:4645  s_listings[contractAddress][tokenId] */\n      dup2\n      mstore\n      0x20\n      add\n      swap1\n      dup2\n      mstore\n      0x20\n      add\n      0x00\n      keccak256\n        /* \"contracts/contracts/ff-mp/functionality/TransactionsMgr.sol\":4581:4645  Listing memory listedItem = s_listings[contractAddress][tokenId] */\n      mload(0x40)\n      dup1\n      0x60\n      add\n      0x40\n      mstore\n      swap1\n      dup2\n      0x00\n      dup3\n      add\n      sload\n      dup2\n      mstore\n      0x20\n      add\n      0x01\n      dup3\n      add\n      0x00\n      swap1\n      sload\n      swap1\n      0x0100\n      exp\n      swap1\n      div\n      0xffffffffffffffffffffffffffffffffffffffff\n      and\n      0xffffffffffffffffffffffffffffffffffffffff\n      and\n      0xffffffffffffffffffffffffffffffffffffffff\n      and\n      dup2\n      mstore\n      0x20\n      add\n      0x02\n      dup3\n      add\n      sload\n      dup2\n      mstore\n      pop\n      pop\n      swap1\n      pop\n        /* \"contracts/contracts/ff-mp/functionality/TransactionsMgr.sol\":4668:4678  listedItem */\n      dup1\n        /* \"contracts/contracts/ff-mp/functionality/TransactionsMgr.sol\":4668:4684  listedItem.price */\n      0x00\n      add\n      mload\n        /* \"contracts/contracts/ff-mp/functionality/TransactionsMgr.sol\":4656:4665  msg.value */\n      callvalue\n        /* \"contracts/contracts/ff-mp/functionality/TransactionsMgr.sol\":4656:4684  msg.value < listedItem.price */\n      lt\n        /* \"contracts/contracts/ff-mp/functionality/TransactionsMgr.sol\":4652:4765  if (msg.value < listedItem.price) {... */\n      iszero\n      tag_242\n      jumpi\n        /* \"contracts/contracts/ff-mp/functionality/TransactionsMgr.sol\":4714:4729  contractAddress */\n      dup6\n        /* \"contracts/contracts/ff-mp/functionality/TransactionsMgr.sol\":4731:4738  tokenId */\n      dup6\n        /* \"contracts/contracts/ff-mp/functionality/TransactionsMgr.sol\":4740:4750  listedItem */\n      dup3\n        /* \"contracts/contracts/ff-mp/functionality/TransactionsMgr.sol\":4740:4756  listedItem.price */\n      0x00\n      add\n      mload\n        /* \"contracts/contracts/ff-mp/functionality/TransactionsMgr.sol\":4702:4757  PriceNotMet(contractAddress, tokenId, listedItem.price) */\n      mload(0x40)\n      0x7c93456500000000000000000000000000000000000000000000000000000000\n      dup2\n      mstore\n      0x04\n      add\n      tag_243\n      swap4\n      swap3\n      swap2\n      swap1\n      tag_244\n      jump\t// in\n    tag_243:\n      mload(0x40)\n      dup1\n      swap2\n      sub\n      swap1\n      revert\n        /* \"contracts/contracts/ff-mp/functionality/TransactionsMgr.sol\":4652:4765  if (msg.value < listedItem.price) {... */\n    tag_242:\n        /* \"contracts/contracts/ff-mp/functionality/TransactionsMgr.sol\":4781:4791  _devWallet */\n      0x67\n      0x00\n      swap1\n      sload\n      swap1\n      0x0100\n      exp\n      swap1\n      div\n      0xffffffffffffffffffffffffffffffffffffffff\n      and\n        /* \"contracts/contracts/ff-mp/functionality/TransactionsMgr.sol\":4773:4801  payable(_devWallet).transfer */\n      0xffffffffffffffffffffffffffffffffffffffff\n      and\n        /* \"contracts/contracts/ff-mp/functionality/TransactionsMgr.sol\":4773:4825  payable(_devWallet).transfer(listedItem.price / 100) */\n      0x08fc\n        /* \"contracts/contracts/ff-mp/functionality/TransactionsMgr.sol\":4821:4824  100 */\n      0x64\n        /* \"contracts/contracts/ff-mp/functionality/TransactionsMgr.sol\":4802:4812  listedItem */\n      dup4\n        /* \"contracts/contracts/ff-mp/functionality/TransactionsMgr.sol\":4802:4818  listedItem.price */\n      0x00\n      add\n      mload\n        /* \"contracts/contracts/ff-mp/functionality/TransactionsMgr.sol\":4802:4824  listedItem.price / 100 */\n      tag_245\n      swap2\n      swap1\n      tag_246\n      jump\t// in\n    tag_245:\n        /* \"contracts/contracts/ff-mp/functionality/TransactionsMgr.sol\":4773:4825  payable(_devWallet).transfer(listedItem.price / 100) */\n      swap1\n      dup2\n      iszero\n      mul\n      swap1\n      mload(0x40)\n      0x00\n      mload(0x40)\n      dup1\n      dup4\n      sub\n      dup2\n      dup6\n      dup9\n      dup9\n      call\n      swap4\n      pop\n      pop\n      pop\n      pop\n      iszero\n      dup1\n      iszero\n      tag_248\n      jumpi\n      returndatasize\n      0x00\n      dup1\n      returndatacopy\n      revert(0x00, returndatasize)\n    tag_248:\n      pop\n        /* \"contracts/contracts/ff-mp/functionality/TransactionsMgr.sol\":4840:4850  listedItem */\n      dup1\n        /* \"contracts/contracts/ff-mp/functionality/TransactionsMgr.sol\":4840:4857  listedItem.seller */\n      0x20\n      add\n      mload\n        /* \"contracts/contracts/ff-mp/functionality/TransactionsMgr.sol\":4832:4867  payable(listedItem.seller).transfer */\n      0xffffffffffffffffffffffffffffffffffffffff\n      and\n        /* \"contracts/contracts/ff-mp/functionality/TransactionsMgr.sol\":4832:4898  payable(listedItem.seller).transfer((listedItem.price / 100) * 97) */\n      0x08fc\n        /* \"contracts/contracts/ff-mp/functionality/TransactionsMgr.sol\":4895:4897  97 */\n      0x61\n        /* \"contracts/contracts/ff-mp/functionality/TransactionsMgr.sol\":4888:4891  100 */\n      0x64\n        /* \"contracts/contracts/ff-mp/functionality/TransactionsMgr.sol\":4869:4879  listedItem */\n      dup5\n        /* \"contracts/contracts/ff-mp/functionality/TransactionsMgr.sol\":4869:4885  listedItem.price */\n      0x00\n      add\n      mload\n        /* \"contracts/contracts/ff-mp/functionality/TransactionsMgr.sol\":4869:4891  listedItem.price / 100 */\n      tag_249\n      swap2\n      swap1\n      tag_246\n      jump\t// in\n    tag_249:\n        /* \"contracts/contracts/ff-mp/functionality/TransactionsMgr.sol\":4868:4897  (listedItem.price / 100) * 97 */\n      tag_250\n      swap2\n      swap1\n      tag_251\n      jump\t// in\n    tag_250:\n        /* \"contracts/contracts/ff-mp/functionality/TransactionsMgr.sol\":4832:4898  payable(listedItem.seller).transfer((listedItem.price / 100) * 97) */\n      swap1\n      dup2\n      iszero\n      mul\n      swap1\n      mload(0x40)\n      0x00\n      mload(0x40)\n      dup1\n      dup4\n      sub\n      dup2\n      dup6\n      dup9\n      dup9\n      call\n      swap4\n      pop\n      pop\n      pop\n      pop\n      iszero\n      dup1\n      iszero\n      tag_253\n      jumpi\n      returndatasize\n      0x00\n      dup1\n      returndatacopy\n      revert(0x00, returndatasize)\n    tag_253:\n      pop\n        /* \"contracts/contracts/ff-mp/functionality/TransactionsMgr.sol\":4977:4982  false */\n      0x00\n        /* \"contracts/contracts/ff-mp/functionality/TransactionsMgr.sol\":4907:4919  _idToListing */\n      0x9c\n        /* \"contracts/contracts/ff-mp/functionality/TransactionsMgr.sol\":4907:4967  _idToListing[s_listings[contractAddress][tokenId].listingId] */\n      0x00\n        /* \"contracts/contracts/ff-mp/functionality/TransactionsMgr.sol\":4920:4930  s_listings */\n      0x9a\n        /* \"contracts/contracts/ff-mp/functionality/TransactionsMgr.sol\":4920:4947  s_listings[contractAddress] */\n      0x00\n        /* \"contracts/contracts/ff-mp/functionality/TransactionsMgr.sol\":4931:4946  contractAddress */\n      dup11\n        /* \"contracts/contracts/ff-mp/functionality/TransactionsMgr.sol\":4920:4947  s_listings[contractAddress] */\n      0xffffffffffffffffffffffffffffffffffffffff\n      and\n      0xffffffffffffffffffffffffffffffffffffffff\n      and\n      dup2\n      mstore\n      0x20\n      add\n      swap1\n      dup2\n      mstore\n      0x20\n      add\n      0x00\n      keccak256\n        /* \"contracts/contracts/ff-mp/functionality/TransactionsMgr.sol\":4920:4956  s_listings[contractAddress][tokenId] */\n      0x00\n        /* \"contracts/contracts/ff-mp/functionality/TransactionsMgr.sol\":4948:4955  tokenId */\n      dup10\n        /* \"contracts/contracts/ff-mp/functionality/TransactionsMgr.sol\":4920:4956  s_listings[contractAddress][tokenId] */\n      dup2\n      mstore\n      0x20\n      add\n      swap1\n      dup2\n      mstore\n      0x20\n      add\n      0x00\n      keccak256\n        /* \"contracts/contracts/ff-mp/functionality/TransactionsMgr.sol\":4920:4966  s_listings[contractAddress][tokenId].listingId */\n      0x02\n      add\n      sload\n        /* \"contracts/contracts/ff-mp/functionality/TransactionsMgr.sol\":4907:4967  _idToListing[s_listings[contractAddress][tokenId].listingId] */\n      dup2\n      mstore\n      0x20\n      add\n      swap1\n      dup2\n      mstore\n      0x20\n      add\n      0x00\n      keccak256\n        /* \"contracts/contracts/ff-mp/functionality/TransactionsMgr.sol\":4907:4974  _idToListing[s_listings[contractAddress][tokenId].listingId].active */\n      0x05\n      add\n      0x00\n        /* \"contracts/contracts/ff-mp/functionality/TransactionsMgr.sol\":4907:4982  _idToListing[s_listings[contractAddress][tokenId].listingId].active = false */\n      0x0100\n      exp\n      dup2\n      sload\n      dup2\n      0xff\n      mul\n      not\n      and\n      swap1\n      dup4\n      iszero\n      iszero\n      mul\n      or\n      swap1\n      sstore\n      pop\n        /* \"contracts/contracts/ff-mp/functionality/TransactionsMgr.sol\":4997:5007  s_listings */\n      0x9a\n        /* \"contracts/contracts/ff-mp/functionality/TransactionsMgr.sol\":4997:5024  s_listings[contractAddress] */\n      0x00\n        /* \"contracts/contracts/ff-mp/functionality/TransactionsMgr.sol\":5008:5023  contractAddress */\n      dup8\n        /* \"contracts/contracts/ff-mp/functionality/TransactionsMgr.sol\":4997:5024  s_listings[contractAddress] */\n      0xffffffffffffffffffffffffffffffffffffffff\n      and\n      0xffffffffffffffffffffffffffffffffffffffff\n      and\n      dup2\n      mstore\n      0x20\n      add\n      swap1\n      dup2\n      mstore\n      0x20\n      add\n      0x00\n      keccak256\n        /* \"contracts/contracts/ff-mp/functionality/TransactionsMgr.sol\":4997:5033  s_listings[contractAddress][tokenId] */\n      0x00\n        /* \"contracts/contracts/ff-mp/functionality/TransactionsMgr.sol\":5025:5032  tokenId */\n      dup7\n        /* \"contracts/contracts/ff-mp/functionality/TransactionsMgr.sol\":4997:5033  s_listings[contractAddress][tokenId] */\n      dup2\n      mstore\n      0x20\n      add\n      swap1\n      dup2\n      mstore\n      0x20\n      add\n      0x00\n      keccak256\n      0x00\n        /* \"contracts/contracts/ff-mp/functionality/TransactionsMgr.sol\":4989:5034  delete (s_listings[contractAddress][tokenId]) */\n      dup1\n      dup3\n      add\n      0x00\n      swap1\n      sstore\n      0x01\n      dup3\n      add\n      exp(0x0100, 0x00)\n      dup2\n      sload\n      swap1\n      0xffffffffffffffffffffffffffffffffffffffff\n      mul\n      not\n      and\n      swap1\n      sstore\n      0x02\n      dup3\n      add\n      0x00\n      swap1\n      sstore\n      pop\n      pop\n        /* \"contracts/contracts/ff-mp/functionality/TransactionsMgr.sol\":5049:5064  contractAddress */\n      dup6\n        /* \"contracts/contracts/ff-mp/functionality/TransactionsMgr.sol\":5041:5082  IERC721(contractAddress).safeTransferFrom */\n      0xffffffffffffffffffffffffffffffffffffffff\n      and\n      0x42842e0e\n        /* \"contracts/contracts/ff-mp/functionality/TransactionsMgr.sol\":5091:5101  listedItem */\n      dup3\n        /* \"contracts/contracts/ff-mp/functionality/TransactionsMgr.sol\":5091:5108  listedItem.seller */\n      0x20\n      add\n      mload\n        /* \"contracts/contracts/ff-mp/functionality/TransactionsMgr.sol\":5117:5127  msg.sender */\n      caller\n        /* \"contracts/contracts/ff-mp/functionality/TransactionsMgr.sol\":5136:5143  tokenId */\n      dup9\n        /* \"contracts/contracts/ff-mp/functionality/TransactionsMgr.sol\":5041:5150  IERC721(contractAddress).safeTransferFrom(... */\n      mload(0x40)\n      dup5\n      0xffffffff\n      and\n      0xe0\n      shl\n      dup2\n      mstore\n      0x04\n      add\n      tag_254\n      swap4\n      swap3\n      swap2\n      swap1\n      tag_255\n      jump\t// in\n    tag_254:\n      0x00\n      mload(0x40)\n      dup1\n      dup4\n      sub\n      dup2\n      0x00\n      dup8\n      dup1\n      extcodesize\n      iszero\n      dup1\n      iszero\n      tag_256\n      jumpi\n      0x00\n      dup1\n      revert\n    tag_256:\n      pop\n      gas\n      call\n      iszero\n      dup1\n      iszero\n      tag_258\n      jumpi\n      returndatasize\n      0x00\n      dup1\n      returndatacopy\n      revert(0x00, returndatasize)\n    tag_258:\n      pop\n      pop\n      pop\n      pop\n        /* \"contracts/contracts/ff-mp/functionality/TransactionsMgr.sol\":5157:5183  _totalComplete.increment() */\n      tag_259\n        /* \"contracts/contracts/ff-mp/functionality/TransactionsMgr.sol\":5157:5171  _totalComplete */\n      0x9e\n        /* \"contracts/contracts/ff-mp/functionality/TransactionsMgr.sol\":5157:5181  _totalComplete.increment */\n      tag_229\n        /* \"contracts/contracts/ff-mp/functionality/TransactionsMgr.sol\":5157:5183  _totalComplete.increment() */\n      jump\t// in\n    tag_259:\n        /* \"contracts/contracts/ff-mp/functionality/TransactionsMgr.sol\":5237:5244  tokenId */\n      dup5\n        /* \"contracts/contracts/ff-mp/functionality/TransactionsMgr.sol\":5220:5235  contractAddress */\n      dup7\n        /* \"contracts/contracts/ff-mp/functionality/TransactionsMgr.sol\":5197:5263  ItemBought(msg.sender, contractAddress, tokenId, listedItem.price) */\n      0xffffffffffffffffffffffffffffffffffffffff\n      and\n        /* \"contracts/contracts/ff-mp/functionality/TransactionsMgr.sol\":5208:5218  msg.sender */\n      caller\n        /* \"contracts/contracts/ff-mp/functionality/TransactionsMgr.sol\":5197:5263  ItemBought(msg.sender, contractAddress, tokenId, listedItem.price) */\n      0xffffffffffffffffffffffffffffffffffffffff\n      and\n      0x263223b1dd81e51054a4e6f791d45a4a1ddb4aadcd93a2dfd892615c3fdac187\n        /* \"contracts/contracts/ff-mp/functionality/TransactionsMgr.sol\":5246:5256  listedItem */\n      dup5\n        /* \"contracts/contracts/ff-mp/functionality/TransactionsMgr.sol\":5246:5262  listedItem.price */\n      0x00\n      add\n      mload\n        /* \"contracts/contracts/ff-mp/functionality/TransactionsMgr.sol\":5197:5263  ItemBought(msg.sender, contractAddress, tokenId, listedItem.price) */\n      mload(0x40)\n      tag_260\n      swap2\n      swap1\n      tag_213\n      jump\t// in\n    tag_260:\n      mload(0x40)\n      dup1\n      swap2\n      sub\n      swap1\n      log4\n        /* \"contracts/contracts/ff-mp/functionality/TransactionsMgr.sol\":4574:5269  {... */\n      pop\n        /* \"@openzeppelin/contracts-upgradeable/security/ReentrancyGuardUpgradeable.sol\":2547:2567  _nonReentrantAfter() */\n      tag_261\n        /* \"@openzeppelin/contracts-upgradeable/security/ReentrancyGuardUpgradeable.sol\":2547:2565  _nonReentrantAfter */\n      tag_262\n        /* \"@openzeppelin/contracts-upgradeable/security/ReentrancyGuardUpgradeable.sol\":2547:2567  _nonReentrantAfter() */\n      jump\t// in\n    tag_261:\n        /* \"contracts/contracts/ff-mp/functionality/TransactionsMgr.sol\":2635:2806  {... */\n      pop\n        /* \"contracts/contracts/ff-mp/functionality/TransactionsMgr.sol\":4435:5269  function buyItem(... */\n      pop\n      pop\n      pop\n      pop\n      jump\t// out\n        /* \"contracts/contracts/ff-mp/functionality/TransactionsMgr.sol\":3078:3503  function cancelListing(... */\n    tag_96:\n        /* \"contracts/contracts/ff-mp/functionality/TransactionsMgr.sol\":3185:3200  contractAddress */\n      dup2\n        /* \"contracts/contracts/ff-mp/functionality/TransactionsMgr.sol\":3202:3209  tokenId */\n      dup2\n        /* \"contracts/contracts/ff-mp/functionality/TransactionsMgr.sol\":3211:3221  msg.sender */\n      caller\n        /* \"contracts/contracts/ff-mp/functionality/TransactionsMgr.sol\":2915:2926  IERC721 nft */\n      0x00\n        /* \"contracts/contracts/ff-mp/functionality/TransactionsMgr.sol\":2937:2952  contractAddress */\n      dup4\n        /* \"contracts/contracts/ff-mp/functionality/TransactionsMgr.sol\":2915:2953  IERC721 nft = IERC721(contractAddress) */\n      swap1\n      pop\n        /* \"contracts/contracts/ff-mp/functionality/TransactionsMgr.sol\":2960:2973  address owner */\n      0x00\n        /* \"contracts/contracts/ff-mp/functionality/TransactionsMgr.sol\":2976:2979  nft */\n      dup2\n        /* \"contracts/contracts/ff-mp/functionality/TransactionsMgr.sol\":2976:2987  nft.ownerOf */\n      0xffffffffffffffffffffffffffffffffffffffff\n      and\n      0x6352211e\n        /* \"contracts/contracts/ff-mp/functionality/TransactionsMgr.sol\":2988:2995  tokenId */\n      dup6\n        /* \"contracts/contracts/ff-mp/functionality/TransactionsMgr.sol\":2976:2996  nft.ownerOf(tokenId) */\n      mload(0x40)\n      dup3\n      0xffffffff\n      and\n      0xe0\n      shl\n      dup2\n      mstore\n      0x04\n      add\n      tag_264\n      swap2\n      swap1\n      tag_213\n      jump\t// in\n    tag_264:\n      0x20\n      mload(0x40)\n      dup1\n      dup4\n      sub\n      dup2\n      dup7\n      gas\n      staticcall\n      iszero\n      dup1\n      iszero\n      tag_266\n      jumpi\n      returndatasize\n      0x00\n      dup1\n      returndatacopy\n      revert(0x00, returndatasize)\n    tag_266:\n      pop\n      pop\n      pop\n      pop\n      mload(0x40)\n      returndatasize\n      not(0x1f)\n      0x1f\n      dup3\n      add\n      and\n      dup3\n      add\n      dup1\n      0x40\n      mstore\n      pop\n      dup2\n      add\n      swap1\n      tag_267\n      swap2\n      swap1\n      tag_217\n      jump\t// in\n    tag_267:\n        /* \"contracts/contracts/ff-mp/functionality/TransactionsMgr.sol\":2960:2996  address owner = nft.ownerOf(tokenId) */\n      swap1\n      pop\n        /* \"contracts/contracts/ff-mp/functionality/TransactionsMgr.sol\":3018:3023  owner */\n      dup1\n        /* \"contracts/contracts/ff-mp/functionality/TransactionsMgr.sol\":3007:3023  spender != owner */\n      0xffffffffffffffffffffffffffffffffffffffff\n      and\n        /* \"contracts/contracts/ff-mp/functionality/TransactionsMgr.sol\":3007:3014  spender */\n      dup4\n        /* \"contracts/contracts/ff-mp/functionality/TransactionsMgr.sol\":3007:3023  spender != owner */\n      0xffffffffffffffffffffffffffffffffffffffff\n      and\n      eq\n        /* \"contracts/contracts/ff-mp/functionality/TransactionsMgr.sol\":3003:3059  if (spender != owner) {... */\n      tag_268\n      jumpi\n        /* \"contracts/contracts/ff-mp/functionality/TransactionsMgr.sol\":3041:3051  NotOwner() */\n      mload(0x40)\n      0x30cd747100000000000000000000000000000000000000000000000000000000\n      dup2\n      mstore\n      0x04\n      add\n      mload(0x40)\n      dup1\n      swap2\n      sub\n      swap1\n      revert\n        /* \"contracts/contracts/ff-mp/functionality/TransactionsMgr.sol\":3003:3059  if (spender != owner) {... */\n    tag_268:\n        /* \"contracts/contracts/ff-mp/functionality/TransactionsMgr.sol\":3237:3252  contractAddress */\n      dup7\n        /* \"contracts/contracts/ff-mp/functionality/TransactionsMgr.sol\":3254:3261  tokenId */\n      dup7\n        /* \"contracts/contracts/ff-mp/functionality/TransactionsMgr.sol\":2642:2664  Listing memory listing */\n      0x00\n        /* \"contracts/contracts/ff-mp/functionality/TransactionsMgr.sol\":2667:2677  s_listings */\n      0x9a\n        /* \"contracts/contracts/ff-mp/functionality/TransactionsMgr.sol\":2667:2694  s_listings[contractAddress] */\n      0x00\n        /* \"contracts/contracts/ff-mp/functionality/TransactionsMgr.sol\":2678:2693  contractAddress */\n      dup5\n        /* \"contracts/contracts/ff-mp/functionality/TransactionsMgr.sol\":2667:2694  s_listings[contractAddress] */\n      0xffffffffffffffffffffffffffffffffffffffff\n      and\n      0xffffffffffffffffffffffffffffffffffffffff\n      and\n      dup2\n      mstore\n      0x20\n      add\n      swap1\n      dup2\n      mstore\n      0x20\n      add\n      0x00\n      keccak256\n        /* \"contracts/contracts/ff-mp/functionality/TransactionsMgr.sol\":2667:2703  s_listings[contractAddress][tokenId] */\n      0x00\n        /* \"contracts/contracts/ff-mp/functionality/TransactionsMgr.sol\":2695:2702  tokenId */\n      dup4\n        /* \"contracts/contracts/ff-mp/functionality/TransactionsMgr.sol\":2667:2703  s_listings[contractAddress][tokenId] */\n      dup2\n      mstore\n      0x20\n      add\n      swap1\n      dup2\n      mstore\n      0x20\n      add\n      0x00\n      keccak256\n        /* \"contracts/contracts/ff-mp/functionality/TransactionsMgr.sol\":2642:2703  Listing memory listing = s_listings[contractAddress][tokenId] */\n      mload(0x40)\n      dup1\n      0x60\n      add\n      0x40\n      mstore\n      swap1\n      dup2\n      0x00\n      dup3\n      add\n      sload\n      dup2\n      mstore\n      0x20\n      add\n      0x01\n      dup3\n      add\n      0x00\n      swap1\n      sload\n      swap1\n      0x0100\n      exp\n      swap1\n      div\n      0xffffffffffffffffffffffffffffffffffffffff\n      and\n      0xffffffffffffffffffffffffffffffffffffffff\n      and\n      0xffffffffffffffffffffffffffffffffffffffff\n      and\n      dup2\n      mstore\n      0x20\n      add\n      0x02\n      dup3\n      add\n      sload\n      dup2\n      mstore\n      pop\n      pop\n      swap1\n      pop\n        /* \"contracts/contracts/ff-mp/functionality/TransactionsMgr.sol\":2731:2732  0 */\n      0x00\n        /* \"contracts/contracts/ff-mp/functionality/TransactionsMgr.sol\":2714:2721  listing */\n      dup2\n        /* \"contracts/contracts/ff-mp/functionality/TransactionsMgr.sol\":2714:2727  listing.price */\n      0x00\n      add\n      mload\n        /* \"contracts/contracts/ff-mp/functionality/TransactionsMgr.sol\":2714:2732  listing.price <= 0 */\n      gt\n        /* \"contracts/contracts/ff-mp/functionality/TransactionsMgr.sol\":2710:2793  if (listing.price <= 0) {... */\n      tag_270\n      jumpi\n        /* \"contracts/contracts/ff-mp/functionality/TransactionsMgr.sol\":2760:2775  contractAddress */\n      dup3\n        /* \"contracts/contracts/ff-mp/functionality/TransactionsMgr.sol\":2777:2784  tokenId */\n      dup3\n        /* \"contracts/contracts/ff-mp/functionality/TransactionsMgr.sol\":2750:2785  NotListed(contractAddress, tokenId) */\n      mload(0x40)\n      0x6831488c00000000000000000000000000000000000000000000000000000000\n      dup2\n      mstore\n      0x04\n      add\n      tag_271\n      swap3\n      swap2\n      swap1\n      tag_210\n      jump\t// in\n    tag_271:\n      mload(0x40)\n      dup1\n      swap2\n      sub\n      swap1\n      revert\n        /* \"contracts/contracts/ff-mp/functionality/TransactionsMgr.sol\":2710:2793  if (listing.price <= 0) {... */\n    tag_270:\n        /* \"contracts/contracts/ff-mp/functionality/TransactionsMgr.sol\":3343:3348  false */\n      0x00\n        /* \"contracts/contracts/ff-mp/functionality/TransactionsMgr.sol\":3273:3285  _idToListing */\n      0x9c\n        /* \"contracts/contracts/ff-mp/functionality/TransactionsMgr.sol\":3273:3333  _idToListing[s_listings[contractAddress][tokenId].listingId] */\n      0x00\n        /* \"contracts/contracts/ff-mp/functionality/TransactionsMgr.sol\":3286:3296  s_listings */\n      0x9a\n        /* \"contracts/contracts/ff-mp/functionality/TransactionsMgr.sol\":3286:3313  s_listings[contractAddress] */\n      0x00\n        /* \"contracts/contracts/ff-mp/functionality/TransactionsMgr.sol\":3297:3312  contractAddress */\n      dup15\n        /* \"contracts/contracts/ff-mp/functionality/TransactionsMgr.sol\":3286:3313  s_listings[contractAddress] */\n      0xffffffffffffffffffffffffffffffffffffffff\n      and\n      0xffffffffffffffffffffffffffffffffffffffff\n      and\n      dup2\n      mstore\n      0x20\n      add\n      swap1\n      dup2\n      mstore\n      0x20\n      add\n      0x00\n      keccak256\n        /* \"contracts/contracts/ff-mp/functionality/TransactionsMgr.sol\":3286:3322  s_listings[contractAddress][tokenId] */\n      0x00\n        /* \"contracts/contracts/ff-mp/functionality/TransactionsMgr.sol\":3314:3321  tokenId */\n      dup14\n        /* \"contracts/contracts/ff-mp/functionality/TransactionsMgr.sol\":3286:3322  s_listings[contractAddress][tokenId] */\n      dup2\n      mstore\n      0x20\n      add\n      swap1\n      dup2\n      mstore\n      0x20\n      add\n      0x00\n      keccak256\n        /* \"contracts/contracts/ff-mp/functionality/TransactionsMgr.sol\":3286:3332  s_listings[contractAddress][tokenId].listingId */\n      0x02\n      add\n      sload\n        /* \"contracts/contracts/ff-mp/functionality/TransactionsMgr.sol\":3273:3333  _idToListing[s_listings[contractAddress][tokenId].listingId] */\n      dup2\n      mstore\n      0x20\n      add\n      swap1\n      dup2\n      mstore\n      0x20\n      add\n      0x00\n      keccak256\n        /* \"contracts/contracts/ff-mp/functionality/TransactionsMgr.sol\":3273:3340  _idToListing[s_listings[contractAddress][tokenId].listingId].active */\n      0x05\n      add\n      0x00\n        /* \"contracts/contracts/ff-mp/functionality/TransactionsMgr.sol\":3273:3348  _idToListing[s_listings[contractAddress][tokenId].listingId].active = false */\n      0x0100\n      exp\n      dup2\n      sload\n      dup2\n      0xff\n      mul\n      not\n      and\n      swap1\n      dup4\n      iszero\n      iszero\n      mul\n      or\n      swap1\n      sstore\n      pop\n        /* \"contracts/contracts/ff-mp/functionality/TransactionsMgr.sol\":3363:3373  s_listings */\n      0x9a\n        /* \"contracts/contracts/ff-mp/functionality/TransactionsMgr.sol\":3363:3390  s_listings[contractAddress] */\n      0x00\n        /* \"contracts/contracts/ff-mp/functionality/TransactionsMgr.sol\":3374:3389  contractAddress */\n      dup12\n        /* \"contracts/contracts/ff-mp/functionality/TransactionsMgr.sol\":3363:3390  s_listings[contractAddress] */\n      0xffffffffffffffffffffffffffffffffffffffff\n      and\n      0xffffffffffffffffffffffffffffffffffffffff\n      and\n      dup2\n      mstore\n      0x20\n      add\n      swap1\n      dup2\n      mstore\n      0x20\n      add\n      0x00\n      keccak256\n        /* \"contracts/contracts/ff-mp/functionality/TransactionsMgr.sol\":3363:3399  s_listings[contractAddress][tokenId] */\n      0x00\n        /* \"contracts/contracts/ff-mp/functionality/TransactionsMgr.sol\":3391:3398  tokenId */\n      dup11\n        /* \"contracts/contracts/ff-mp/functionality/TransactionsMgr.sol\":3363:3399  s_listings[contractAddress][tokenId] */\n      dup2\n      mstore\n      0x20\n      add\n      swap1\n      dup2\n      mstore\n      0x20\n      add\n      0x00\n      keccak256\n      0x00\n        /* \"contracts/contracts/ff-mp/functionality/TransactionsMgr.sol\":3355:3400  delete (s_listings[contractAddress][tokenId]) */\n      dup1\n      dup3\n      add\n      0x00\n      swap1\n      sstore\n      0x01\n      dup3\n      add\n      exp(0x0100, 0x00)\n      dup2\n      sload\n      swap1\n      0xffffffffffffffffffffffffffffffffffffffff\n      mul\n      not\n      and\n      swap1\n      sstore\n      0x02\n      dup3\n      add\n      0x00\n      swap1\n      sstore\n      pop\n      pop\n        /* \"contracts/contracts/ff-mp/functionality/TransactionsMgr.sol\":3407:3433  _totalComplete.increment() */\n      tag_273\n        /* \"contracts/contracts/ff-mp/functionality/TransactionsMgr.sol\":3407:3421  _totalComplete */\n      0x9e\n        /* \"contracts/contracts/ff-mp/functionality/TransactionsMgr.sol\":3407:3431  _totalComplete.increment */\n      tag_229\n        /* \"contracts/contracts/ff-mp/functionality/TransactionsMgr.sol\":3407:3433  _totalComplete.increment() */\n      jump\t// in\n    tag_273:\n        /* \"contracts/contracts/ff-mp/functionality/TransactionsMgr.sol\":3489:3496  tokenId */\n      dup9\n        /* \"contracts/contracts/ff-mp/functionality/TransactionsMgr.sol\":3472:3487  contractAddress */\n      dup11\n        /* \"contracts/contracts/ff-mp/functionality/TransactionsMgr.sol\":3447:3497  ItemCanceled(msg.sender, contractAddress, tokenId) */\n      0xffffffffffffffffffffffffffffffffffffffff\n      and\n        /* \"contracts/contracts/ff-mp/functionality/TransactionsMgr.sol\":3460:3470  msg.sender */\n      caller\n        /* \"contracts/contracts/ff-mp/functionality/TransactionsMgr.sol\":3447:3497  ItemCanceled(msg.sender, contractAddress, tokenId) */\n      0xffffffffffffffffffffffffffffffffffffffff\n      and\n      0x9ba1a3cb55ce8d63d072a886f94d2a744f50cddf82128e897d0661f5ec623158\n      mload(0x40)\n      mload(0x40)\n      dup1\n      swap2\n      sub\n      swap1\n      log4\n        /* \"contracts/contracts/ff-mp/functionality/TransactionsMgr.sol\":2635:2806  {... */\n      pop\n        /* \"contracts/contracts/ff-mp/functionality/TransactionsMgr.sol\":3065:3066  _ */\n      pop\n      pop\n        /* \"contracts/contracts/ff-mp/functionality/TransactionsMgr.sol\":2908:3072  {... */\n      pop\n      pop\n        /* \"contracts/contracts/ff-mp/functionality/TransactionsMgr.sol\":3078:3503  function cancelListing(... */\n      pop\n      pop\n      pop\n      pop\n      pop\n      jump\t// out\n        /* \"contracts/contracts/ff-mp/MP.sol\":768:901  function initialize(address dw) public initializer {... */\n    tag_100:\n        /* \"@openzeppelin/contracts-upgradeable/proxy/utils/Initializable.sol\":3279:3298  bool isTopLevelCall */\n      0x00\n        /* \"@openzeppelin/contracts-upgradeable/proxy/utils/Initializable.sol\":3302:3315  _initializing */\n      dup1\n      0x01\n      swap1\n      sload\n      swap1\n      0x0100\n      exp\n      swap1\n      div\n      0xff\n      and\n        /* \"@openzeppelin/contracts-upgradeable/proxy/utils/Initializable.sol\":3301:3315  !_initializing */\n      iszero\n        /* \"@openzeppelin/contracts-upgradeable/proxy/utils/Initializable.sol\":3279:3315  bool isTopLevelCall = !_initializing */\n      swap1\n      pop\n        /* \"@openzeppelin/contracts-upgradeable/proxy/utils/Initializable.sol\":3347:3361  isTopLevelCall */\n      dup1\n        /* \"@openzeppelin/contracts-upgradeable/proxy/utils/Initializable.sol\":3347:3381  isTopLevelCall && _initialized < 1 */\n      dup1\n      iszero\n      tag_275\n      jumpi\n      pop\n        /* \"@openzeppelin/contracts-upgradeable/proxy/utils/Initializable.sol\":3380:3381  1 */\n      0x01\n        /* \"@openzeppelin/contracts-upgradeable/proxy/utils/Initializable.sol\":3365:3377  _initialized */\n      0x00\n      dup1\n      sload\n      swap1\n      0x0100\n      exp\n      swap1\n      div\n      0xff\n      and\n        /* \"@openzeppelin/contracts-upgradeable/proxy/utils/Initializable.sol\":3365:3381  _initialized < 1 */\n      0xff\n      and\n      lt\n        /* \"@openzeppelin/contracts-upgradeable/proxy/utils/Initializable.sol\":3347:3381  isTopLevelCall && _initialized < 1 */\n    tag_275:\n        /* \"@openzeppelin/contracts-upgradeable/proxy/utils/Initializable.sol\":3346:3454  (isTopLevelCall && _initialized < 1) || (!AddressUpgradeable.isContract(address(this)) && _initialized == 1) */\n      dup1\n      tag_276\n      jumpi\n      pop\n        /* \"@openzeppelin/contracts-upgradeable/proxy/utils/Initializable.sol\":3388:3432  AddressUpgradeable.isContract(address(this)) */\n      tag_277\n        /* \"@openzeppelin/contracts-upgradeable/proxy/utils/Initializable.sol\":3426:3430  this */\n      address\n        /* \"@openzeppelin/contracts-upgradeable/proxy/utils/Initializable.sol\":3388:3417  AddressUpgradeable.isContract */\n      tag_278\n        /* \"@openzeppelin/contracts-upgradeable/proxy/utils/Initializable.sol\":3388:3432  AddressUpgradeable.isContract(address(this)) */\n      jump\t// in\n    tag_277:\n        /* \"@openzeppelin/contracts-upgradeable/proxy/utils/Initializable.sol\":3387:3432  !AddressUpgradeable.isContract(address(this)) */\n      iszero\n        /* \"@openzeppelin/contracts-upgradeable/proxy/utils/Initializable.sol\":3387:3453  !AddressUpgradeable.isContract(address(this)) && _initialized == 1 */\n      dup1\n      iszero\n      tag_279\n      jumpi\n      pop\n        /* \"@openzeppelin/contracts-upgradeable/proxy/utils/Initializable.sol\":3452:3453  1 */\n      0x01\n        /* \"@openzeppelin/contracts-upgradeable/proxy/utils/Initializable.sol\":3436:3448  _initialized */\n      0x00\n      dup1\n      sload\n      swap1\n      0x0100\n      exp\n      swap1\n      div\n      0xff\n      and\n        /* \"@openzeppelin/contracts-upgradeable/proxy/utils/Initializable.sol\":3436:3453  _initialized == 1 */\n      0xff\n      and\n      eq\n        /* \"@openzeppelin/contracts-upgradeable/proxy/utils/Initializable.sol\":3387:3453  !AddressUpgradeable.isContract(address(this)) && _initialized == 1 */\n    tag_279:\n        /* \"@openzeppelin/contracts-upgradeable/proxy/utils/Initializable.sol\":3346:3454  (isTopLevelCall && _initialized < 1) || (!AddressUpgradeable.isContract(address(this)) && _initialized == 1) */\n    tag_276:\n        /* \"@openzeppelin/contracts-upgradeable/proxy/utils/Initializable.sol\":3325:3526  require(... */\n      tag_280\n      jumpi\n      mload(0x40)\n      0x08c379a000000000000000000000000000000000000000000000000000000000\n      dup2\n      mstore\n      0x04\n      add\n      tag_281\n      swap1\n      tag_282\n      jump\t// in\n    tag_281:\n      mload(0x40)\n      dup1\n      swap2\n      sub\n      swap1\n      revert\n    tag_280:\n        /* \"@openzeppelin/contracts-upgradeable/proxy/utils/Initializable.sol\":3551:3552  1 */\n      0x01\n        /* \"@openzeppelin/contracts-upgradeable/proxy/utils/Initializable.sol\":3536:3548  _initialized */\n      0x00\n      dup1\n        /* \"@openzeppelin/contracts-upgradeable/proxy/utils/Initializable.sol\":3536:3552  _initialized = 1 */\n      0x0100\n      exp\n      dup2\n      sload\n      dup2\n      0xff\n      mul\n      not\n      and\n      swap1\n      dup4\n      0xff\n      and\n      mul\n      or\n      swap1\n      sstore\n      pop\n        /* \"@openzeppelin/contracts-upgradeable/proxy/utils/Initializable.sol\":3566:3580  isTopLevelCall */\n      dup1\n        /* \"@openzeppelin/contracts-upgradeable/proxy/utils/Initializable.sol\":3562:3627  if (isTopLevelCall) {... */\n      iszero\n      tag_283\n      jumpi\n        /* \"@openzeppelin/contracts-upgradeable/proxy/utils/Initializable.sol\":3612:3616  true */\n      0x01\n        /* \"@openzeppelin/contracts-upgradeable/proxy/utils/Initializable.sol\":3596:3609  _initializing */\n      0x00\n      0x01\n        /* \"@openzeppelin/contracts-upgradeable/proxy/utils/Initializable.sol\":3596:3616  _initializing = true */\n      0x0100\n      exp\n      dup2\n      sload\n      dup2\n      0xff\n      mul\n      not\n      and\n      swap1\n      dup4\n      iszero\n      iszero\n      mul\n      or\n      swap1\n      sstore\n      pop\n        /* \"@openzeppelin/contracts-upgradeable/proxy/utils/Initializable.sol\":3562:3627  if (isTopLevelCall) {... */\n    tag_283:\n        /* \"contracts/contracts/ff-mp/MP.sol\":826:842  __Ownable_init() */\n      tag_285\n        /* \"contracts/contracts/ff-mp/MP.sol\":826:840  __Ownable_init */\n      tag_286\n        /* \"contracts/contracts/ff-mp/MP.sol\":826:842  __Ownable_init() */\n      jump\t// in\n    tag_285:\n        /* \"contracts/contracts/ff-mp/MP.sol\":849:873  __ReentrancyGuard_init() */\n      tag_287\n        /* \"contracts/contracts/ff-mp/MP.sol\":849:871  __ReentrancyGuard_init */\n      tag_288\n        /* \"contracts/contracts/ff-mp/MP.sol\":849:873  __ReentrancyGuard_init() */\n      jump\t// in\n    tag_287:\n        /* \"contracts/contracts/ff-mp/MP.sol\":893:895  dw */\n      dup2\n        /* \"contracts/contracts/ff-mp/MP.sol\":880:890  _devWallet */\n      0x67\n      0x00\n        /* \"contracts/contracts/ff-mp/MP.sol\":880:895  _devWallet = dw */\n      0x0100\n      exp\n      dup2\n      sload\n      dup2\n      0xffffffffffffffffffffffffffffffffffffffff\n      mul\n      not\n      and\n      swap1\n      dup4\n      0xffffffffffffffffffffffffffffffffffffffff\n      and\n      mul\n      or\n      swap1\n      sstore\n      pop\n        /* \"@openzeppelin/contracts-upgradeable/proxy/utils/Initializable.sol\":3651:3665  isTopLevelCall */\n      dup1\n        /* \"@openzeppelin/contracts-upgradeable/proxy/utils/Initializable.sol\":3647:3746  if (isTopLevelCall) {... */\n      iszero\n      tag_289\n      jumpi\n        /* \"@openzeppelin/contracts-upgradeable/proxy/utils/Initializable.sol\":3697:3702  false */\n      0x00\n        /* \"@openzeppelin/contracts-upgradeable/proxy/utils/Initializable.sol\":3681:3694  _initializing */\n      dup1\n      0x01\n        /* \"@openzeppelin/contracts-upgradeable/proxy/utils/Initializable.sol\":3681:3702  _initializing = false */\n      0x0100\n      exp\n      dup2\n      sload\n      dup2\n      0xff\n      mul\n      not\n      and\n      swap1\n      dup4\n      iszero\n      iszero\n      mul\n      or\n      swap1\n      sstore\n      pop\n        /* \"@openzeppelin/contracts-upgradeable/proxy/utils/Initializable.sol\":3721:3735  Initialized(1) */\n      0x7f26b83ff96e1f2b6a682f133852f6798a09c465da95921460cefb3847402498\n        /* \"@openzeppelin/contracts-upgradeable/proxy/utils/Initializable.sol\":3733:3734  1 */\n      0x01\n        /* \"@openzeppelin/contracts-upgradeable/proxy/utils/Initializable.sol\":3721:3735  Initialized(1) */\n      mload(0x40)\n      tag_290\n      swap2\n      swap1\n      tag_291\n      jump\t// in\n    tag_290:\n      mload(0x40)\n      dup1\n      swap2\n      sub\n      swap1\n      log1\n        /* \"@openzeppelin/contracts-upgradeable/proxy/utils/Initializable.sol\":3647:3746  if (isTopLevelCall) {... */\n    tag_289:\n        /* \"@openzeppelin/contracts-upgradeable/proxy/utils/Initializable.sol\":3269:3752  {... */\n      pop\n        /* \"contracts/contracts/ff-mp/MP.sol\":768:901  function initialize(address dw) public initializer {... */\n      pop\n      jump\t// out\n        /* \"@openzeppelin/contracts-upgradeable/access/OwnableUpgradeable.sol\":2314:2512  function transferOwnership(address newOwner) public virtual onlyOwner {... */\n    tag_104:\n        /* \"@openzeppelin/contracts-upgradeable/access/OwnableUpgradeable.sol\":1334:1347  _checkOwner() */\n      tag_293\n        /* \"@openzeppelin/contracts-upgradeable/access/OwnableUpgradeable.sol\":1334:1345  _checkOwner */\n      tag_142\n        /* \"@openzeppelin/contracts-upgradeable/access/OwnableUpgradeable.sol\":1334:1347  _checkOwner() */\n      jump\t// in\n    tag_293:\n        /* \"@openzeppelin/contracts-upgradeable/access/OwnableUpgradeable.sol\":2422:2423  0 */\n      0x00\n        /* \"@openzeppelin/contracts-upgradeable/access/OwnableUpgradeable.sol\":2402:2424  newOwner != address(0) */\n      0xffffffffffffffffffffffffffffffffffffffff\n      and\n        /* \"@openzeppelin/contracts-upgradeable/access/OwnableUpgradeable.sol\":2402:2410  newOwner */\n      dup2\n        /* \"@openzeppelin/contracts-upgradeable/access/OwnableUpgradeable.sol\":2402:2424  newOwner != address(0) */\n      0xffffffffffffffffffffffffffffffffffffffff\n      and\n      sub\n        /* \"@openzeppelin/contracts-upgradeable/access/OwnableUpgradeable.sol\":2394:2467  require(newOwner != address(0), \"Ownable: new owner is the zero address\") */\n      tag_295\n      jumpi\n      mload(0x40)\n      0x08c379a000000000000000000000000000000000000000000000000000000000\n      dup2\n      mstore\n      0x04\n      add\n      tag_296\n      swap1\n      tag_297\n      jump\t// in\n    tag_296:\n      mload(0x40)\n      dup1\n      swap2\n      sub\n      swap1\n      revert\n    tag_295:\n        /* \"@openzeppelin/contracts-upgradeable/access/OwnableUpgradeable.sol\":2477:2505  _transferOwnership(newOwner) */\n      tag_298\n        /* \"@openzeppelin/contracts-upgradeable/access/OwnableUpgradeable.sol\":2496:2504  newOwner */\n      dup2\n        /* \"@openzeppelin/contracts-upgradeable/access/OwnableUpgradeable.sol\":2477:2495  _transferOwnership */\n      tag_203\n        /* \"@openzeppelin/contracts-upgradeable/access/OwnableUpgradeable.sol\":2477:2505  _transferOwnership(newOwner) */\n      jump\t// in\n    tag_298:\n        /* \"@openzeppelin/contracts-upgradeable/access/OwnableUpgradeable.sol\":2314:2512  function transferOwnership(address newOwner) public virtual onlyOwner {... */\n      pop\n      jump\t// out\n        /* \"contracts/contracts/ff-mp/functionality/TransactionsMgr.sol\":5275:5901  function updateListing(... */\n    tag_108:\n        /* \"contracts/contracts/ff-mp/functionality/TransactionsMgr.sol\":5406:5421  contractAddress */\n      dup3\n        /* \"contracts/contracts/ff-mp/functionality/TransactionsMgr.sol\":5423:5430  tokenId */\n      dup3\n        /* \"contracts/contracts/ff-mp/functionality/TransactionsMgr.sol\":2642:2664  Listing memory listing */\n      0x00\n        /* \"contracts/contracts/ff-mp/functionality/TransactionsMgr.sol\":2667:2677  s_listings */\n      0x9a\n        /* \"contracts/contracts/ff-mp/functionality/TransactionsMgr.sol\":2667:2694  s_listings[contractAddress] */\n      0x00\n        /* \"contracts/contracts/ff-mp/functionality/TransactionsMgr.sol\":2678:2693  contractAddress */\n      dup5\n        /* \"contracts/contracts/ff-mp/functionality/TransactionsMgr.sol\":2667:2694  s_listings[contractAddress] */\n      0xffffffffffffffffffffffffffffffffffffffff\n      and\n      0xffffffffffffffffffffffffffffffffffffffff\n      and\n      dup2\n      mstore\n      0x20\n      add\n      swap1\n      dup2\n      mstore\n      0x20\n      add\n      0x00\n      keccak256\n        /* \"contracts/contracts/ff-mp/functionality/TransactionsMgr.sol\":2667:2703  s_listings[contractAddress][tokenId] */\n      0x00\n        /* \"contracts/contracts/ff-mp/functionality/TransactionsMgr.sol\":2695:2702  tokenId */\n      dup4\n        /* \"contracts/contracts/ff-mp/functionality/TransactionsMgr.sol\":2667:2703  s_listings[contractAddress][tokenId] */\n      dup2\n      mstore\n      0x20\n      add\n      swap1\n      dup2\n      mstore\n      0x20\n      add\n      0x00\n      keccak256\n        /* \"contracts/contracts/ff-mp/functionality/TransactionsMgr.sol\":2642:2703  Listing memory listing = s_listings[contractAddress][tokenId] */\n      mload(0x40)\n      dup1\n      0x60\n      add\n      0x40\n      mstore\n      swap1\n      dup2\n      0x00\n      dup3\n      add\n      sload\n      dup2\n      mstore\n      0x20\n      add\n      0x01\n      dup3\n      add\n      0x00\n      swap1\n      sload\n      swap1\n      0x0100\n      exp\n      swap1\n      div\n      0xffffffffffffffffffffffffffffffffffffffff\n      and\n      0xffffffffffffffffffffffffffffffffffffffff\n      and\n      0xffffffffffffffffffffffffffffffffffffffff\n      and\n      dup2\n      mstore\n      0x20\n      add\n      0x02\n      dup3\n      add\n      sload\n      dup2\n      mstore\n      pop\n      pop\n      swap1\n      pop\n        /* \"contracts/contracts/ff-mp/functionality/TransactionsMgr.sol\":2731:2732  0 */\n      0x00\n        /* \"contracts/contracts/ff-mp/functionality/TransactionsMgr.sol\":2714:2721  listing */\n      dup2\n        /* \"contracts/contracts/ff-mp/functionality/TransactionsMgr.sol\":2714:2727  listing.price */\n      0x00\n      add\n      mload\n        /* \"contracts/contracts/ff-mp/functionality/TransactionsMgr.sol\":2714:2732  listing.price <= 0 */\n      gt\n        /* \"contracts/contracts/ff-mp/functionality/TransactionsMgr.sol\":2710:2793  if (listing.price <= 0) {... */\n      tag_300\n      jumpi\n        /* \"contracts/contracts/ff-mp/functionality/TransactionsMgr.sol\":2760:2775  contractAddress */\n      dup3\n        /* \"contracts/contracts/ff-mp/functionality/TransactionsMgr.sol\":2777:2784  tokenId */\n      dup3\n        /* \"contracts/contracts/ff-mp/functionality/TransactionsMgr.sol\":2750:2785  NotListed(contractAddress, tokenId) */\n      mload(0x40)\n      0x6831488c00000000000000000000000000000000000000000000000000000000\n      dup2\n      mstore\n      0x04\n      add\n      tag_301\n      swap3\n      swap2\n      swap1\n      tag_210\n      jump\t// in\n    tag_301:\n      mload(0x40)\n      dup1\n      swap2\n      sub\n      swap1\n      revert\n        /* \"contracts/contracts/ff-mp/functionality/TransactionsMgr.sol\":2710:2793  if (listing.price <= 0) {... */\n    tag_300:\n        /* \"@openzeppelin/contracts-upgradeable/security/ReentrancyGuardUpgradeable.sol\":2505:2526  _nonReentrantBefore() */\n      tag_303\n        /* \"@openzeppelin/contracts-upgradeable/security/ReentrancyGuardUpgradeable.sol\":2505:2524  _nonReentrantBefore */\n      tag_240\n        /* \"@openzeppelin/contracts-upgradeable/security/ReentrancyGuardUpgradeable.sol\":2505:2526  _nonReentrantBefore() */\n      jump\t// in\n    tag_303:\n        /* \"contracts/contracts/ff-mp/functionality/TransactionsMgr.sol\":5463:5478  contractAddress */\n      dup6\n        /* \"contracts/contracts/ff-mp/functionality/TransactionsMgr.sol\":5480:5487  tokenId */\n      dup6\n        /* \"contracts/contracts/ff-mp/functionality/TransactionsMgr.sol\":5489:5499  msg.sender */\n      caller\n        /* \"contracts/contracts/ff-mp/functionality/TransactionsMgr.sol\":2915:2926  IERC721 nft */\n      0x00\n        /* \"contracts/contracts/ff-mp/functionality/TransactionsMgr.sol\":2937:2952  contractAddress */\n      dup4\n        /* \"contracts/contracts/ff-mp/functionality/TransactionsMgr.sol\":2915:2953  IERC721 nft = IERC721(contractAddress) */\n      swap1\n      pop\n        /* \"contracts/contracts/ff-mp/functionality/TransactionsMgr.sol\":2960:2973  address owner */\n      0x00\n        /* \"contracts/contracts/ff-mp/functionality/TransactionsMgr.sol\":2976:2979  nft */\n      dup2\n        /* \"contracts/contracts/ff-mp/functionality/TransactionsMgr.sol\":2976:2987  nft.ownerOf */\n      0xffffffffffffffffffffffffffffffffffffffff\n      and\n      0x6352211e\n        /* \"contracts/contracts/ff-mp/functionality/TransactionsMgr.sol\":2988:2995  tokenId */\n      dup6\n        /* \"contracts/contracts/ff-mp/functionality/TransactionsMgr.sol\":2976:2996  nft.ownerOf(tokenId) */\n      mload(0x40)\n      dup3\n      0xffffffff\n      and\n      0xe0\n      shl\n      dup2\n      mstore\n      0x04\n      add\n      tag_305\n      swap2\n      swap1\n      tag_213\n      jump\t// in\n    tag_305:\n      0x20\n      mload(0x40)\n      dup1\n      dup4\n      sub\n      dup2\n      dup7\n      gas\n      staticcall\n      iszero\n      dup1\n      iszero\n      tag_307\n      jumpi\n      returndatasize\n      0x00\n      dup1\n      returndatacopy\n      revert(0x00, returndatasize)\n    tag_307:\n      pop\n      pop\n      pop\n      pop\n      mload(0x40)\n      returndatasize\n      not(0x1f)\n      0x1f\n      dup3\n      add\n      and\n      dup3\n      add\n      dup1\n      0x40\n      mstore\n      pop\n      dup2\n      add\n      swap1\n      tag_308\n      swap2\n      swap1\n      tag_217\n      jump\t// in\n    tag_308:\n        /* \"contracts/contracts/ff-mp/functionality/TransactionsMgr.sol\":2960:2996  address owner = nft.ownerOf(tokenId) */\n      swap1\n      pop\n        /* \"contracts/contracts/ff-mp/functionality/TransactionsMgr.sol\":3018:3023  owner */\n      dup1\n        /* \"contracts/contracts/ff-mp/functionality/TransactionsMgr.sol\":3007:3023  spender != owner */\n      0xffffffffffffffffffffffffffffffffffffffff\n      and\n        /* \"contracts/contracts/ff-mp/functionality/TransactionsMgr.sol\":3007:3014  spender */\n      dup4\n        /* \"contracts/contracts/ff-mp/functionality/TransactionsMgr.sol\":3007:3023  spender != owner */\n      0xffffffffffffffffffffffffffffffffffffffff\n      and\n      eq\n        /* \"contracts/contracts/ff-mp/functionality/TransactionsMgr.sol\":3003:3059  if (spender != owner) {... */\n      tag_309\n      jumpi\n        /* \"contracts/contracts/ff-mp/functionality/TransactionsMgr.sol\":3041:3051  NotOwner() */\n      mload(0x40)\n      0x30cd747100000000000000000000000000000000000000000000000000000000\n      dup2\n      mstore\n      0x04\n      add\n      mload(0x40)\n      dup1\n      swap2\n      sub\n      swap1\n      revert\n        /* \"contracts/contracts/ff-mp/functionality/TransactionsMgr.sol\":3003:3059  if (spender != owner) {... */\n    tag_309:\n        /* \"contracts/contracts/ff-mp/functionality/TransactionsMgr.sol\":5527:5528  0 */\n      0x00\n        /* \"contracts/contracts/ff-mp/functionality/TransactionsMgr.sol\":5515:5523  newPrice */\n      dup10\n        /* \"contracts/contracts/ff-mp/functionality/TransactionsMgr.sol\":5515:5528  newPrice == 0 */\n      sub\n        /* \"contracts/contracts/ff-mp/functionality/TransactionsMgr.sol\":5511:5576  if (newPrice == 0) {... */\n      tag_311\n      jumpi\n        /* \"contracts/contracts/ff-mp/functionality/TransactionsMgr.sol\":5546:5568  PriceMustBeAboveZero() */\n      mload(0x40)\n      0xe1abbfc500000000000000000000000000000000000000000000000000000000\n      dup2\n      mstore\n      0x04\n      add\n      mload(0x40)\n      dup1\n      swap2\n      sub\n      swap1\n      revert\n        /* \"contracts/contracts/ff-mp/functionality/TransactionsMgr.sol\":5511:5576  if (newPrice == 0) {... */\n    tag_311:\n        /* \"contracts/contracts/ff-mp/functionality/TransactionsMgr.sol\":5629:5639  address ca */\n      0x00\n        /* \"contracts/contracts/ff-mp/functionality/TransactionsMgr.sol\":5642:5657  contractAddress */\n      dup12\n        /* \"contracts/contracts/ff-mp/functionality/TransactionsMgr.sol\":5629:5657  address ca = contractAddress */\n      swap1\n      pop\n        /* \"contracts/contracts/ff-mp/functionality/TransactionsMgr.sol\":5666:5674  uint tId */\n      0x00\n        /* \"contracts/contracts/ff-mp/functionality/TransactionsMgr.sol\":5677:5684  tokenId */\n      dup12\n        /* \"contracts/contracts/ff-mp/functionality/TransactionsMgr.sol\":5666:5684  uint tId = tokenId */\n      swap1\n      pop\n        /* \"contracts/contracts/ff-mp/functionality/TransactionsMgr.sol\":5723:5731  newPrice */\n      dup11\n        /* \"contracts/contracts/ff-mp/functionality/TransactionsMgr.sol\":5695:5705  s_listings */\n      0x9a\n        /* \"contracts/contracts/ff-mp/functionality/TransactionsMgr.sol\":5695:5709  s_listings[ca] */\n      0x00\n        /* \"contracts/contracts/ff-mp/functionality/TransactionsMgr.sol\":5706:5708  ca */\n      dup5\n        /* \"contracts/contracts/ff-mp/functionality/TransactionsMgr.sol\":5695:5709  s_listings[ca] */\n      0xffffffffffffffffffffffffffffffffffffffff\n      and\n      0xffffffffffffffffffffffffffffffffffffffff\n      and\n      dup2\n      mstore\n      0x20\n      add\n      swap1\n      dup2\n      mstore\n      0x20\n      add\n      0x00\n      keccak256\n        /* \"contracts/contracts/ff-mp/functionality/TransactionsMgr.sol\":5695:5714  s_listings[ca][tId] */\n      0x00\n        /* \"contracts/contracts/ff-mp/functionality/TransactionsMgr.sol\":5710:5713  tId */\n      dup4\n        /* \"contracts/contracts/ff-mp/functionality/TransactionsMgr.sol\":5695:5714  s_listings[ca][tId] */\n      dup2\n      mstore\n      0x20\n      add\n      swap1\n      dup2\n      mstore\n      0x20\n      add\n      0x00\n      keccak256\n        /* \"contracts/contracts/ff-mp/functionality/TransactionsMgr.sol\":5695:5720  s_listings[ca][tId].price */\n      0x00\n      add\n        /* \"contracts/contracts/ff-mp/functionality/TransactionsMgr.sol\":5695:5731  s_listings[ca][tId].price = newPrice */\n      dup2\n      swap1\n      sstore\n      pop\n        /* \"contracts/contracts/ff-mp/functionality/TransactionsMgr.sol\":5853:5860  tokenId */\n      dup12\n        /* \"contracts/contracts/ff-mp/functionality/TransactionsMgr.sol\":5827:5842  contractAddress */\n      dup14\n        /* \"contracts/contracts/ff-mp/functionality/TransactionsMgr.sol\":5745:5888  ItemListed(... */\n      0xffffffffffffffffffffffffffffffffffffffff\n      and\n        /* \"contracts/contracts/ff-mp/functionality/TransactionsMgr.sol\":5806:5816  msg.sender */\n      caller\n        /* \"contracts/contracts/ff-mp/functionality/TransactionsMgr.sol\":5745:5888  ItemListed(... */\n      0xffffffffffffffffffffffffffffffffffffffff\n      and\n      0x424b3284a7958bb7965c27ca0b2a8b30ce2a56ba954533df15e6bded1b608ed7\n        /* \"contracts/contracts/ff-mp/functionality/TransactionsMgr.sol\":5766:5776  s_listings */\n      0x9a\n        /* \"contracts/contracts/ff-mp/functionality/TransactionsMgr.sol\":5766:5780  s_listings[ca] */\n      0x00\n        /* \"contracts/contracts/ff-mp/functionality/TransactionsMgr.sol\":5777:5779  ca */\n      dup8\n        /* \"contracts/contracts/ff-mp/functionality/TransactionsMgr.sol\":5766:5780  s_listings[ca] */\n      0xffffffffffffffffffffffffffffffffffffffff\n      and\n      0xffffffffffffffffffffffffffffffffffffffff\n      and\n      dup2\n      mstore\n      0x20\n      add\n      swap1\n      dup2\n      mstore\n      0x20\n      add\n      0x00\n      keccak256\n        /* \"contracts/contracts/ff-mp/functionality/TransactionsMgr.sol\":5766:5785  s_listings[ca][tId] */\n      0x00\n        /* \"contracts/contracts/ff-mp/functionality/TransactionsMgr.sol\":5781:5784  tId */\n      dup7\n        /* \"contracts/contracts/ff-mp/functionality/TransactionsMgr.sol\":5766:5785  s_listings[ca][tId] */\n      dup2\n      mstore\n      0x20\n      add\n      swap1\n      dup2\n      mstore\n      0x20\n      add\n      0x00\n      keccak256\n        /* \"contracts/contracts/ff-mp/functionality/TransactionsMgr.sol\":5766:5795  s_listings[ca][tId].listingId */\n      0x02\n      add\n      sload\n        /* \"contracts/contracts/ff-mp/functionality/TransactionsMgr.sol\":5871:5879  newPrice */\n      dup16\n        /* \"contracts/contracts/ff-mp/functionality/TransactionsMgr.sol\":5745:5888  ItemListed(... */\n      mload(0x40)\n      tag_312\n      swap3\n      swap2\n      swap1\n      tag_233\n      jump\t// in\n    tag_312:\n      mload(0x40)\n      dup1\n      swap2\n      sub\n      swap1\n      log4\n        /* \"contracts/contracts/ff-mp/functionality/TransactionsMgr.sol\":5582:5896  {... */\n      pop\n      pop\n        /* \"contracts/contracts/ff-mp/functionality/TransactionsMgr.sol\":2908:3072  {... */\n      pop\n      pop\n        /* \"@openzeppelin/contracts-upgradeable/security/ReentrancyGuardUpgradeable.sol\":2536:2537  _ */\n      pop\n      pop\n      pop\n        /* \"@openzeppelin/contracts-upgradeable/security/ReentrancyGuardUpgradeable.sol\":2547:2567  _nonReentrantAfter() */\n      tag_313\n        /* \"@openzeppelin/contracts-upgradeable/security/ReentrancyGuardUpgradeable.sol\":2547:2565  _nonReentrantAfter */\n      tag_262\n        /* \"@openzeppelin/contracts-upgradeable/security/ReentrancyGuardUpgradeable.sol\":2547:2567  _nonReentrantAfter() */\n      jump\t// in\n    tag_313:\n        /* \"contracts/contracts/ff-mp/functionality/TransactionsMgr.sol\":2635:2806  {... */\n      pop\n        /* \"contracts/contracts/ff-mp/functionality/TransactionsMgr.sol\":5275:5901  function updateListing(... */\n      pop\n      pop\n      pop\n      pop\n      pop\n      jump\t// out\n        /* \"contracts/contracts/ff-mp/deps/AdminControl.sol\":1984:2157  function withdrawAll(address to) public onlyOwner {... */\n    tag_112:\n        /* \"@openzeppelin/contracts-upgradeable/access/OwnableUpgradeable.sol\":1334:1347  _checkOwner() */\n      tag_315\n        /* \"@openzeppelin/contracts-upgradeable/access/OwnableUpgradeable.sol\":1334:1345  _checkOwner */\n      tag_142\n        /* \"@openzeppelin/contracts-upgradeable/access/OwnableUpgradeable.sol\":1334:1347  _checkOwner() */\n      jump\t// in\n    tag_315:\n        /* \"contracts/contracts/ff-mp/deps/AdminControl.sol\":2041:2056  uint256 balance */\n      0x00\n        /* \"contracts/contracts/ff-mp/deps/AdminControl.sol\":2059:2080  address(this).balance */\n      selfbalance\n        /* \"contracts/contracts/ff-mp/deps/AdminControl.sol\":2041:2080  uint256 balance = address(this).balance */\n      swap1\n      pop\n        /* \"contracts/contracts/ff-mp/deps/AdminControl.sol\":2105:2106  0 */\n      0x00\n        /* \"contracts/contracts/ff-mp/deps/AdminControl.sol\":2095:2102  balance */\n      dup2\n        /* \"contracts/contracts/ff-mp/deps/AdminControl.sol\":2095:2106  balance > 0 */\n      gt\n        /* \"contracts/contracts/ff-mp/deps/AdminControl.sol\":2087:2107  require(balance > 0) */\n      tag_317\n      jumpi\n      0x00\n      dup1\n      revert\n    tag_317:\n        /* \"contracts/contracts/ff-mp/deps/AdminControl.sol\":2114:2151  _widthdraw(to, address(this).balance) */\n      tag_318\n        /* \"contracts/contracts/ff-mp/deps/AdminControl.sol\":2125:2127  to */\n      dup3\n        /* \"contracts/contracts/ff-mp/deps/AdminControl.sol\":2129:2150  address(this).balance */\n      selfbalance\n        /* \"contracts/contracts/ff-mp/deps/AdminControl.sol\":2114:2124  _widthdraw */\n      tag_319\n        /* \"contracts/contracts/ff-mp/deps/AdminControl.sol\":2114:2151  _widthdraw(to, address(this).balance) */\n      jump\t// in\n    tag_318:\n        /* \"contracts/contracts/ff-mp/deps/AdminControl.sol\":2034:2157  {... */\n      pop\n        /* \"contracts/contracts/ff-mp/deps/AdminControl.sol\":1984:2157  function withdrawAll(address to) public onlyOwner {... */\n      pop\n      jump\t// out\n        /* \"@openzeppelin/contracts/utils/introspection/ERC165.sol\":829:984  function supportsInterface(bytes4 interfaceId) public view virtual override returns (bool) {... */\n    tag_116:\n        /* \"@openzeppelin/contracts/utils/introspection/ERC165.sol\":914:918  bool */\n      0x00\n        /* \"@openzeppelin/contracts/utils/introspection/ERC165.sol\":952:977  type(IERC165).interfaceId */\n      0x01ffc9a700000000000000000000000000000000000000000000000000000000\n        /* \"@openzeppelin/contracts/utils/introspection/ERC165.sol\":937:977  interfaceId == type(IERC165).interfaceId */\n      not(0xffffffffffffffffffffffffffffffffffffffffffffffffffffffff)\n      and\n        /* \"@openzeppelin/contracts/utils/introspection/ERC165.sol\":937:948  interfaceId */\n      dup3\n        /* \"@openzeppelin/contracts/utils/introspection/ERC165.sol\":937:977  interfaceId == type(IERC165).interfaceId */\n      not(0xffffffffffffffffffffffffffffffffffffffffffffffffffffffff)\n      and\n      eq\n        /* \"@openzeppelin/contracts/utils/introspection/ERC165.sol\":930:977  return interfaceId == type(IERC165).interfaceId */\n      swap1\n      pop\n        /* \"@openzeppelin/contracts/utils/introspection/ERC165.sol\":829:984  function supportsInterface(bytes4 interfaceId) public view virtual override returns (bool) {... */\n      swap2\n      swap1\n      pop\n      jump\t// out\n        /* \"@openzeppelin/contracts/utils/Counters.sol\":827:939  function current(Counter storage counter) internal view returns (uint256) {... */\n    tag_119:\n        /* \"@openzeppelin/contracts/utils/Counters.sol\":892:899  uint256 */\n      0x00\n        /* \"@openzeppelin/contracts/utils/Counters.sol\":918:925  counter */\n      dup2\n        /* \"@openzeppelin/contracts/utils/Counters.sol\":918:932  counter._value */\n      0x00\n      add\n      sload\n        /* \"@openzeppelin/contracts/utils/Counters.sol\":911:932  return counter._value */\n      swap1\n      pop\n        /* \"@openzeppelin/contracts/utils/Counters.sol\":827:939  function current(Counter storage counter) internal view returns (uint256) {... */\n      swap2\n      swap1\n      pop\n      jump\t// out\n        /* \"@openzeppelin/contracts-upgradeable/access/OwnableUpgradeable.sol\":1599:1729  function _checkOwner() internal view virtual {... */\n    tag_142:\n        /* \"@openzeppelin/contracts-upgradeable/access/OwnableUpgradeable.sol\":1673:1685  _msgSender() */\n      tag_323\n        /* \"@openzeppelin/contracts-upgradeable/access/OwnableUpgradeable.sol\":1673:1683  _msgSender */\n      tag_324\n        /* \"@openzeppelin/contracts-upgradeable/access/OwnableUpgradeable.sol\":1673:1685  _msgSender() */\n      jump\t// in\n    tag_323:\n        /* \"@openzeppelin/contracts-upgradeable/access/OwnableUpgradeable.sol\":1662:1685  owner() == _msgSender() */\n      0xffffffffffffffffffffffffffffffffffffffff\n      and\n        /* \"@openzeppelin/contracts-upgradeable/access/OwnableUpgradeable.sol\":1662:1669  owner() */\n      tag_325\n        /* \"@openzeppelin/contracts-upgradeable/access/OwnableUpgradeable.sol\":1662:1667  owner */\n      tag_87\n        /* \"@openzeppelin/contracts-upgradeable/access/OwnableUpgradeable.sol\":1662:1669  owner() */\n      jump\t// in\n    tag_325:\n        /* \"@openzeppelin/contracts-upgradeable/access/OwnableUpgradeable.sol\":1662:1685  owner() == _msgSender() */\n      0xffffffffffffffffffffffffffffffffffffffff\n      and\n      eq\n        /* \"@openzeppelin/contracts-upgradeable/access/OwnableUpgradeable.sol\":1654:1722  require(owner() == _msgSender(), \"Ownable: caller is not the owner\") */\n      tag_326\n      jumpi\n      mload(0x40)\n      0x08c379a000000000000000000000000000000000000000000000000000000000\n      dup2\n      mstore\n      0x04\n      add\n      tag_327\n      swap1\n      tag_328\n      jump\t// in\n    tag_327:\n      mload(0x40)\n      dup1\n      swap2\n      sub\n      swap1\n      revert\n    tag_326:\n        /* \"@openzeppelin/contracts-upgradeable/access/OwnableUpgradeable.sol\":1599:1729  function _checkOwner() internal view virtual {... */\n      jump\t// out\n        /* \"@openzeppelin/contracts-upgradeable/utils/structs/EnumerableSetUpgradeable.sol\":8871:9036  function contains(AddressSet storage set, address value) internal view returns (bool) {... */\n    tag_167:\n        /* \"@openzeppelin/contracts-upgradeable/utils/structs/EnumerableSetUpgradeable.sol\":8951:8955  bool */\n      0x00\n        /* \"@openzeppelin/contracts-upgradeable/utils/structs/EnumerableSetUpgradeable.sol\":8974:9029  _contains(set._inner, bytes32(uint256(uint160(value)))) */\n      tag_330\n        /* \"@openzeppelin/contracts-upgradeable/utils/structs/EnumerableSetUpgradeable.sol\":8984:8987  set */\n      dup4\n        /* \"@openzeppelin/contracts-upgradeable/utils/structs/EnumerableSetUpgradeable.sol\":8984:8994  set._inner */\n      0x00\n      add\n        /* \"@openzeppelin/contracts-upgradeable/utils/structs/EnumerableSetUpgradeable.sol\":9020:9025  value */\n      dup4\n        /* \"@openzeppelin/contracts-upgradeable/utils/structs/EnumerableSetUpgradeable.sol\":9004:9027  uint256(uint160(value)) */\n      0xffffffffffffffffffffffffffffffffffffffff\n      and\n        /* \"@openzeppelin/contracts-upgradeable/utils/structs/EnumerableSetUpgradeable.sol\":8996:9028  bytes32(uint256(uint160(value))) */\n      0x00\n      shl\n        /* \"@openzeppelin/contracts-upgradeable/utils/structs/EnumerableSetUpgradeable.sol\":8974:8983  _contains */\n      tag_331\n        /* \"@openzeppelin/contracts-upgradeable/utils/structs/EnumerableSetUpgradeable.sol\":8974:9029  _contains(set._inner, bytes32(uint256(uint160(value)))) */\n      jump\t// in\n    tag_330:\n        /* \"@openzeppelin/contracts-upgradeable/utils/structs/EnumerableSetUpgradeable.sol\":8967:9029  return _contains(set._inner, bytes32(uint256(uint160(value)))) */\n      swap1\n      pop\n        /* \"@openzeppelin/contracts-upgradeable/utils/structs/EnumerableSetUpgradeable.sol\":8871:9036  function contains(AddressSet storage set, address value) internal view returns (bool) {... */\n      swap3\n      swap2\n      pop\n      pop\n      jump\t// out\n        /* \"@openzeppelin/contracts-upgradeable/utils/structs/EnumerableSetUpgradeable.sol\":8634:8790  function remove(AddressSet storage set, address value) internal returns (bool) {... */\n    tag_174:\n        /* \"@openzeppelin/contracts-upgradeable/utils/structs/EnumerableSetUpgradeable.sol\":8707:8711  bool */\n      0x00\n        /* \"@openzeppelin/contracts-upgradeable/utils/structs/EnumerableSetUpgradeable.sol\":8730:8783  _remove(set._inner, bytes32(uint256(uint160(value)))) */\n      tag_333\n        /* \"@openzeppelin/contracts-upgradeable/utils/structs/EnumerableSetUpgradeable.sol\":8738:8741  set */\n      dup4\n        /* \"@openzeppelin/contracts-upgradeable/utils/structs/EnumerableSetUpgradeable.sol\":8738:8748  set._inner */\n      0x00\n      add\n        /* \"@openzeppelin/contracts-upgradeable/utils/structs/EnumerableSetUpgradeable.sol\":8774:8779  value */\n      dup4\n        /* \"@openzeppelin/contracts-upgradeable/utils/structs/EnumerableSetUpgradeable.sol\":8758:8781  uint256(uint160(value)) */\n      0xffffffffffffffffffffffffffffffffffffffff\n      and\n        /* \"@openzeppelin/contracts-upgradeable/utils/structs/EnumerableSetUpgradeable.sol\":8750:8782  bytes32(uint256(uint160(value))) */\n      0x00\n      shl\n        /* \"@openzeppelin/contracts-upgradeable/utils/structs/EnumerableSetUpgradeable.sol\":8730:8737  _remove */\n      tag_334\n        /* \"@openzeppelin/contracts-upgradeable/utils/structs/EnumerableSetUpgradeable.sol\":8730:8783  _remove(set._inner, bytes32(uint256(uint160(value)))) */\n      jump\t// in\n    tag_333:\n        /* \"@openzeppelin/contracts-upgradeable/utils/structs/EnumerableSetUpgradeable.sol\":8723:8783  return _remove(set._inner, bytes32(uint256(uint160(value)))) */\n      swap1\n      pop\n        /* \"@openzeppelin/contracts-upgradeable/utils/structs/EnumerableSetUpgradeable.sol\":8634:8790  function remove(AddressSet storage set, address value) internal returns (bool) {... */\n      swap3\n      swap2\n      pop\n      pop\n      jump\t// out\n        /* \"@openzeppelin/contracts-upgradeable/utils/structs/EnumerableSetUpgradeable.sol\":9117:9232  function length(AddressSet storage set) internal view returns (uint256) {... */\n    tag_177:\n        /* \"@openzeppelin/contracts-upgradeable/utils/structs/EnumerableSetUpgradeable.sol\":9180:9187  uint256 */\n      0x00\n        /* \"@openzeppelin/contracts-upgradeable/utils/structs/EnumerableSetUpgradeable.sol\":9206:9225  _length(set._inner) */\n      tag_336\n        /* \"@openzeppelin/contracts-upgradeable/utils/structs/EnumerableSetUpgradeable.sol\":9214:9217  set */\n      dup3\n        /* \"@openzeppelin/contracts-upgradeable/utils/structs/EnumerableSetUpgradeable.sol\":9214:9224  set._inner */\n      0x00\n      add\n        /* \"@openzeppelin/contracts-upgradeable/utils/structs/EnumerableSetUpgradeable.sol\":9206:9213  _length */\n      tag_337\n        /* \"@openzeppelin/contracts-upgradeable/utils/structs/EnumerableSetUpgradeable.sol\":9206:9225  _length(set._inner) */\n      jump\t// in\n    tag_336:\n        /* \"@openzeppelin/contracts-upgradeable/utils/structs/EnumerableSetUpgradeable.sol\":9199:9225  return _length(set._inner) */\n      swap1\n      pop\n        /* \"@openzeppelin/contracts-upgradeable/utils/structs/EnumerableSetUpgradeable.sol\":9117:9232  function length(AddressSet storage set) internal view returns (uint256) {... */\n      swap2\n      swap1\n      pop\n      jump\t// out\n        /* \"@openzeppelin/contracts-upgradeable/utils/structs/EnumerableSetUpgradeable.sol\":9574:9730  function at(AddressSet storage set, uint256 index) internal view returns (address) {... */\n    tag_186:\n        /* \"@openzeppelin/contracts-upgradeable/utils/structs/EnumerableSetUpgradeable.sol\":9648:9655  address */\n      0x00\n        /* \"@openzeppelin/contracts-upgradeable/utils/structs/EnumerableSetUpgradeable.sol\":9698:9720  _at(set._inner, index) */\n      tag_339\n        /* \"@openzeppelin/contracts-upgradeable/utils/structs/EnumerableSetUpgradeable.sol\":9702:9705  set */\n      dup4\n        /* \"@openzeppelin/contracts-upgradeable/utils/structs/EnumerableSetUpgradeable.sol\":9702:9712  set._inner */\n      0x00\n      add\n        /* \"@openzeppelin/contracts-upgradeable/utils/structs/EnumerableSetUpgradeable.sol\":9714:9719  index */\n      dup4\n        /* \"@openzeppelin/contracts-upgradeable/utils/structs/EnumerableSetUpgradeable.sol\":9698:9701  _at */\n      tag_340\n        /* \"@openzeppelin/contracts-upgradeable/utils/structs/EnumerableSetUpgradeable.sol\":9698:9720  _at(set._inner, index) */\n      jump\t// in\n    tag_339:\n        /* \"@openzeppelin/contracts-upgradeable/utils/structs/EnumerableSetUpgradeable.sol\":9690:9721  uint256(_at(set._inner, index)) */\n      0x00\n      shr\n        /* \"@openzeppelin/contracts-upgradeable/utils/structs/EnumerableSetUpgradeable.sol\":9667:9723  return address(uint160(uint256(_at(set._inner, index)))) */\n      swap1\n      pop\n        /* \"@openzeppelin/contracts-upgradeable/utils/structs/EnumerableSetUpgradeable.sol\":9574:9730  function at(AddressSet storage set, uint256 index) internal view returns (address) {... */\n      swap3\n      swap2\n      pop\n      pop\n      jump\t// out\n        /* \"@openzeppelin/contracts-upgradeable/utils/structs/EnumerableSetUpgradeable.sol\":8316:8466  function add(AddressSet storage set, address value) internal returns (bool) {... */\n    tag_198:\n        /* \"@openzeppelin/contracts-upgradeable/utils/structs/EnumerableSetUpgradeable.sol\":8386:8390  bool */\n      0x00\n        /* \"@openzeppelin/contracts-upgradeable/utils/structs/EnumerableSetUpgradeable.sol\":8409:8459  _add(set._inner, bytes32(uint256(uint160(value)))) */\n      tag_342\n        /* \"@openzeppelin/contracts-upgradeable/utils/structs/EnumerableSetUpgradeable.sol\":8414:8417  set */\n      dup4\n        /* \"@openzeppelin/contracts-upgradeable/utils/structs/EnumerableSetUpgradeable.sol\":8414:8424  set._inner */\n      0x00\n      add\n        /* \"@openzeppelin/contracts-upgradeable/utils/structs/EnumerableSetUpgradeable.sol\":8450:8455  value */\n      dup4\n        /* \"@openzeppelin/contracts-upgradeable/utils/structs/EnumerableSetUpgradeable.sol\":8434:8457  uint256(uint160(value)) */\n      0xffffffffffffffffffffffffffffffffffffffff\n      and\n        /* \"@openzeppelin/contracts-upgradeable/utils/structs/EnumerableSetUpgradeable.sol\":8426:8458  bytes32(uint256(uint160(value))) */\n      0x00\n      shl\n        /* \"@openzeppelin/contracts-upgradeable/utils/structs/EnumerableSetUpgradeable.sol\":8409:8413  _add */\n      tag_343\n        /* \"@openzeppelin/contracts-upgradeable/utils/structs/EnumerableSetUpgradeable.sol\":8409:8459  _add(set._inner, bytes32(uint256(uint160(value)))) */\n      jump\t// in\n    tag_342:\n        /* \"@openzeppelin/contracts-upgradeable/utils/structs/EnumerableSetUpgradeable.sol\":8402:8459  return _add(set._inner, bytes32(uint256(uint160(value)))) */\n      swap1\n      pop\n        /* \"@openzeppelin/contracts-upgradeable/utils/structs/EnumerableSetUpgradeable.sol\":8316:8466  function add(AddressSet storage set, address value) internal returns (bool) {... */\n      swap3\n      swap2\n      pop\n      pop\n      jump\t// out\n        /* \"@openzeppelin/contracts-upgradeable/access/OwnableUpgradeable.sol\":2666:2853  function _transferOwnership(address newOwner) internal virtual {... */\n    tag_203:\n        /* \"@openzeppelin/contracts-upgradeable/access/OwnableUpgradeable.sol\":2739:2755  address oldOwner */\n      0x00\n        /* \"@openzeppelin/contracts-upgradeable/access/OwnableUpgradeable.sol\":2758:2764  _owner */\n      0x33\n      0x00\n      swap1\n      sload\n      swap1\n      0x0100\n      exp\n      swap1\n      div\n      0xffffffffffffffffffffffffffffffffffffffff\n      and\n        /* \"@openzeppelin/contracts-upgradeable/access/OwnableUpgradeable.sol\":2739:2764  address oldOwner = _owner */\n      swap1\n      pop\n        /* \"@openzeppelin/contracts-upgradeable/access/OwnableUpgradeable.sol\":2783:2791  newOwner */\n      dup2\n        /* \"@openzeppelin/contracts-upgradeable/access/OwnableUpgradeable.sol\":2774:2780  _owner */\n      0x33\n      0x00\n        /* \"@openzeppelin/contracts-upgradeable/access/OwnableUpgradeable.sol\":2774:2791  _owner = newOwner */\n      0x0100\n      exp\n      dup2\n      sload\n      dup2\n      0xffffffffffffffffffffffffffffffffffffffff\n      mul\n      not\n      and\n      swap1\n      dup4\n      0xffffffffffffffffffffffffffffffffffffffff\n      and\n      mul\n      or\n      swap1\n      sstore\n      pop\n        /* \"@openzeppelin/contracts-upgradeable/access/OwnableUpgradeable.sol\":2837:2845  newOwner */\n      dup2\n        /* \"@openzeppelin/contracts-upgradeable/access/OwnableUpgradeable.sol\":2806:2846  OwnershipTransferred(oldOwner, newOwner) */\n      0xffffffffffffffffffffffffffffffffffffffff\n      and\n        /* \"@openzeppelin/contracts-upgradeable/access/OwnableUpgradeable.sol\":2827:2835  oldOwner */\n      dup2\n        /* \"@openzeppelin/contracts-upgradeable/access/OwnableUpgradeable.sol\":2806:2846  OwnershipTransferred(oldOwner, newOwner) */\n      0xffffffffffffffffffffffffffffffffffffffff\n      and\n      0x8be0079c531659141344cd1fd0a4f28419497f9722a3daafe3b4186f6b6457e0\n      mload(0x40)\n      mload(0x40)\n      dup1\n      swap2\n      sub\n      swap1\n      log3\n        /* \"@openzeppelin/contracts-upgradeable/access/OwnableUpgradeable.sol\":2729:2853  {... */\n      pop\n        /* \"@openzeppelin/contracts-upgradeable/access/OwnableUpgradeable.sol\":2666:2853  function _transferOwnership(address newOwner) internal virtual {... */\n      pop\n      jump\t// out\n        /* \"@openzeppelin/contracts/utils/Counters.sol\":945:1068  function increment(Counter storage counter) internal {... */\n    tag_229:\n        /* \"@openzeppelin/contracts/utils/Counters.sol\":1050:1051  1 */\n      0x01\n        /* \"@openzeppelin/contracts/utils/Counters.sol\":1032:1039  counter */\n      dup2\n        /* \"@openzeppelin/contracts/utils/Counters.sol\":1032:1046  counter._value */\n      0x00\n      add\n      0x00\n        /* \"@openzeppelin/contracts/utils/Counters.sol\":1032:1051  counter._value += 1 */\n      dup3\n      dup3\n      sload\n      add\n      swap3\n      pop\n      pop\n      dup2\n      swap1\n      sstore\n      pop\n        /* \"@openzeppelin/contracts/utils/Counters.sol\":945:1068  function increment(Counter storage counter) internal {... */\n      pop\n      jump\t// out\n        /* \"@openzeppelin/contracts-upgradeable/security/ReentrancyGuardUpgradeable.sol\":2580:2867  function _nonReentrantBefore() private {... */\n    tag_240:\n        /* \"@openzeppelin/contracts-upgradeable/security/ReentrancyGuardUpgradeable.sol\":1830:1831  2 */\n      0x02\n        /* \"@openzeppelin/contracts-upgradeable/security/ReentrancyGuardUpgradeable.sol\":2712:2719  _status */\n      sload(0x68)\n        /* \"@openzeppelin/contracts-upgradeable/security/ReentrancyGuardUpgradeable.sol\":2712:2731  _status != _ENTERED */\n      sub\n        /* \"@openzeppelin/contracts-upgradeable/security/ReentrancyGuardUpgradeable.sol\":2704:2767  require(_status != _ENTERED, \"ReentrancyGuard: reentrant call\") */\n      tag_347\n      jumpi\n      mload(0x40)\n      0x08c379a000000000000000000000000000000000000000000000000000000000\n      dup2\n      mstore\n      0x04\n      add\n      tag_348\n      swap1\n      tag_349\n      jump\t// in\n    tag_348:\n      mload(0x40)\n      dup1\n      swap2\n      sub\n      swap1\n      revert\n    tag_347:\n        /* \"@openzeppelin/contracts-upgradeable/security/ReentrancyGuardUpgradeable.sol\":1830:1831  2 */\n      0x02\n        /* \"@openzeppelin/contracts-upgradeable/security/ReentrancyGuardUpgradeable.sol\":2842:2849  _status */\n      0x68\n        /* \"@openzeppelin/contracts-upgradeable/security/ReentrancyGuardUpgradeable.sol\":2842:2860  _status = _ENTERED */\n      dup2\n      swap1\n      sstore\n      pop\n        /* \"@openzeppelin/contracts-upgradeable/security/ReentrancyGuardUpgradeable.sol\":2580:2867  function _nonReentrantBefore() private {... */\n      jump\t// out\n        /* \"@openzeppelin/contracts-upgradeable/security/ReentrancyGuardUpgradeable.sol\":2873:3082  function _nonReentrantAfter() private {... */\n    tag_262:\n        /* \"@openzeppelin/contracts-upgradeable/security/ReentrancyGuardUpgradeable.sol\":1787:1788  1 */\n      0x01\n        /* \"@openzeppelin/contracts-upgradeable/security/ReentrancyGuardUpgradeable.sol\":3053:3060  _status */\n      0x68\n        /* \"@openzeppelin/contracts-upgradeable/security/ReentrancyGuardUpgradeable.sol\":3053:3075  _status = _NOT_ENTERED */\n      dup2\n      swap1\n      sstore\n      pop\n        /* \"@openzeppelin/contracts-upgradeable/security/ReentrancyGuardUpgradeable.sol\":2873:3082  function _nonReentrantAfter() private {... */\n      jump\t// out\n        /* \"@openzeppelin/contracts-upgradeable/utils/AddressUpgradeable.sol\":1423:1743  function isContract(address account) internal view returns (bool) {... */\n    tag_278:\n        /* \"@openzeppelin/contracts-upgradeable/utils/AddressUpgradeable.sol\":1483:1487  bool */\n      0x00\n        /* \"@openzeppelin/contracts-upgradeable/utils/AddressUpgradeable.sol\":1735:1736  0 */\n      dup1\n        /* \"@openzeppelin/contracts-upgradeable/utils/AddressUpgradeable.sol\":1713:1720  account */\n      dup3\n        /* \"@openzeppelin/contracts-upgradeable/utils/AddressUpgradeable.sol\":1713:1732  account.code.length */\n      0xffffffffffffffffffffffffffffffffffffffff\n      and\n      extcodesize\n        /* \"@openzeppelin/contracts-upgradeable/utils/AddressUpgradeable.sol\":1713:1736  account.code.length > 0 */\n      gt\n        /* \"@openzeppelin/contracts-upgradeable/utils/AddressUpgradeable.sol\":1706:1736  return account.code.length > 0 */\n      swap1\n      pop\n        /* \"@openzeppelin/contracts-upgradeable/utils/AddressUpgradeable.sol\":1423:1743  function isContract(address account) internal view returns (bool) {... */\n      swap2\n      swap1\n      pop\n      jump\t// out\n        /* \"@openzeppelin/contracts-upgradeable/access/OwnableUpgradeable.sol\":1003:1098  function __Ownable_init() internal onlyInitializing {... */\n    tag_286:\n        /* \"@openzeppelin/contracts-upgradeable/proxy/utils/Initializable.sol\":5374:5387  _initializing */\n      0x00\n      0x01\n      swap1\n      sload\n      swap1\n      0x0100\n      exp\n      swap1\n      div\n      0xff\n      and\n        /* \"@openzeppelin/contracts-upgradeable/proxy/utils/Initializable.sol\":5366:5435  require(_initializing, \"Initializable: contract is not initializing\") */\n      tag_353\n      jumpi\n      mload(0x40)\n      0x08c379a000000000000000000000000000000000000000000000000000000000\n      dup2\n      mstore\n      0x04\n      add\n      tag_354\n      swap1\n      tag_355\n      jump\t// in\n    tag_354:\n      mload(0x40)\n      dup1\n      swap2\n      sub\n      swap1\n      revert\n    tag_353:\n        /* \"@openzeppelin/contracts-upgradeable/access/OwnableUpgradeable.sol\":1065:1091  __Ownable_init_unchained() */\n      tag_357\n        /* \"@openzeppelin/contracts-upgradeable/access/OwnableUpgradeable.sol\":1065:1089  __Ownable_init_unchained */\n      tag_358\n        /* \"@openzeppelin/contracts-upgradeable/access/OwnableUpgradeable.sol\":1065:1091  __Ownable_init_unchained() */\n      jump\t// in\n    tag_357:\n        /* \"@openzeppelin/contracts-upgradeable/access/OwnableUpgradeable.sol\":1003:1098  function __Ownable_init() internal onlyInitializing {... */\n      jump\t// out\n        /* \"@openzeppelin/contracts-upgradeable/security/ReentrancyGuardUpgradeable.sol\":1868:1979  function __ReentrancyGuard_init() internal onlyInitializing {... */\n    tag_288:\n        /* \"@openzeppelin/contracts-upgradeable/proxy/utils/Initializable.sol\":5374:5387  _initializing */\n      0x00\n      0x01\n      swap1\n      sload\n      swap1\n      0x0100\n      exp\n      swap1\n      div\n      0xff\n      and\n        /* \"@openzeppelin/contracts-upgradeable/proxy/utils/Initializable.sol\":5366:5435  require(_initializing, \"Initializable: contract is not initializing\") */\n      tag_360\n      jumpi\n      mload(0x40)\n      0x08c379a000000000000000000000000000000000000000000000000000000000\n      dup2\n      mstore\n      0x04\n      add\n      tag_361\n      swap1\n      tag_355\n      jump\t// in\n    tag_361:\n      mload(0x40)\n      dup1\n      swap2\n      sub\n      swap1\n      revert\n    tag_360:\n        /* \"@openzeppelin/contracts-upgradeable/security/ReentrancyGuardUpgradeable.sol\":1938:1972  __ReentrancyGuard_init_unchained() */\n      tag_363\n        /* \"@openzeppelin/contracts-upgradeable/security/ReentrancyGuardUpgradeable.sol\":1938:1970  __ReentrancyGuard_init_unchained */\n      tag_364\n        /* \"@openzeppelin/contracts-upgradeable/security/ReentrancyGuardUpgradeable.sol\":1938:1972  __ReentrancyGuard_init_unchained() */\n      jump\t// in\n    tag_363:\n        /* \"@openzeppelin/contracts-upgradeable/security/ReentrancyGuardUpgradeable.sol\":1868:1979  function __ReentrancyGuard_init() internal onlyInitializing {... */\n      jump\t// out\n        /* \"contracts/contracts/ff-mp/deps/AdminControl.sol\":2163:2334  function _widthdraw(address _address, uint256 _amount) private {... */\n    tag_319:\n        /* \"contracts/contracts/ff-mp/deps/AdminControl.sol\":2234:2246  bool success */\n      0x00\n        /* \"contracts/contracts/ff-mp/deps/AdminControl.sol\":2252:2260  _address */\n      dup3\n        /* \"contracts/contracts/ff-mp/deps/AdminControl.sol\":2252:2265  _address.call */\n      0xffffffffffffffffffffffffffffffffffffffff\n      and\n        /* \"contracts/contracts/ff-mp/deps/AdminControl.sol\":2273:2280  _amount */\n      dup3\n        /* \"contracts/contracts/ff-mp/deps/AdminControl.sol\":2252:2285  _address.call{value: _amount}(\"\") */\n      mload(0x40)\n      tag_366\n      swap1\n      tag_367\n      jump\t// in\n    tag_366:\n      0x00\n      mload(0x40)\n      dup1\n      dup4\n      sub\n      dup2\n      dup6\n      dup8\n      gas\n      call\n      swap3\n      pop\n      pop\n      pop\n      returndatasize\n      dup1\n      0x00\n      dup2\n      eq\n      tag_370\n      jumpi\n      mload(0x40)\n      swap2\n      pop\n      and(add(returndatasize, 0x3f), not(0x1f))\n      dup3\n      add\n      0x40\n      mstore\n      returndatasize\n      dup3\n      mstore\n      returndatasize\n      0x00\n      0x20\n      dup5\n      add\n      returndatacopy\n      jump(tag_369)\n    tag_370:\n      0x60\n      swap2\n      pop\n    tag_369:\n      pop\n        /* \"contracts/contracts/ff-mp/deps/AdminControl.sol\":2233:2285  (bool success, ) = _address.call{value: _amount}(\"\") */\n      pop\n      swap1\n      pop\n        /* \"contracts/contracts/ff-mp/deps/AdminControl.sol\":2300:2307  success */\n      dup1\n        /* \"contracts/contracts/ff-mp/deps/AdminControl.sol\":2292:2328  require(success, \"Transfer failed.\") */\n      tag_371\n      jumpi\n      mload(0x40)\n      0x08c379a000000000000000000000000000000000000000000000000000000000\n      dup2\n      mstore\n      0x04\n      add\n      tag_372\n      swap1\n      tag_373\n      jump\t// in\n    tag_372:\n      mload(0x40)\n      dup1\n      swap2\n      sub\n      swap1\n      revert\n    tag_371:\n        /* \"contracts/contracts/ff-mp/deps/AdminControl.sol\":2226:2334  {... */\n      pop\n        /* \"contracts/contracts/ff-mp/deps/AdminControl.sol\":2163:2334  function _widthdraw(address _address, uint256 _amount) private {... */\n      pop\n      pop\n      jump\t// out\n        /* \"@openzeppelin/contracts-upgradeable/utils/ContextUpgradeable.sol\":850:946  function _msgSender() internal view virtual returns (address) {... */\n    tag_324:\n        /* \"@openzeppelin/contracts-upgradeable/utils/ContextUpgradeable.sol\":903:910  address */\n      0x00\n        /* \"@openzeppelin/contracts-upgradeable/utils/ContextUpgradeable.sol\":929:939  msg.sender */\n      caller\n        /* \"@openzeppelin/contracts-upgradeable/utils/ContextUpgradeable.sol\":922:939  return msg.sender */\n      swap1\n      pop\n        /* \"@openzeppelin/contracts-upgradeable/utils/ContextUpgradeable.sol\":850:946  function _msgSender() internal view virtual returns (address) {... */\n      swap1\n      jump\t// out\n        /* \"@openzeppelin/contracts-upgradeable/utils/structs/EnumerableSetUpgradeable.sol\":4266:4393  function _contains(Set storage set, bytes32 value) private view returns (bool) {... */\n    tag_331:\n        /* \"@openzeppelin/contracts-upgradeable/utils/structs/EnumerableSetUpgradeable.sol\":4339:4343  bool */\n      0x00\n        /* \"@openzeppelin/contracts-upgradeable/utils/structs/EnumerableSetUpgradeable.sol\":4385:4386  0 */\n      dup1\n        /* \"@openzeppelin/contracts-upgradeable/utils/structs/EnumerableSetUpgradeable.sol\":4362:4365  set */\n      dup4\n        /* \"@openzeppelin/contracts-upgradeable/utils/structs/EnumerableSetUpgradeable.sol\":4362:4374  set._indexes */\n      0x01\n      add\n        /* \"@openzeppelin/contracts-upgradeable/utils/structs/EnumerableSetUpgradeable.sol\":4362:4381  set._indexes[value] */\n      0x00\n        /* \"@openzeppelin/contracts-upgradeable/utils/structs/EnumerableSetUpgradeable.sol\":4375:4380  value */\n      dup5\n        /* \"@openzeppelin/contracts-upgradeable/utils/structs/EnumerableSetUpgradeable.sol\":4362:4381  set._indexes[value] */\n      dup2\n      mstore\n      0x20\n      add\n      swap1\n      dup2\n      mstore\n      0x20\n      add\n      0x00\n      keccak256\n      sload\n        /* \"@openzeppelin/contracts-upgradeable/utils/structs/EnumerableSetUpgradeable.sol\":4362:4386  set._indexes[value] != 0 */\n      eq\n      iszero\n        /* \"@openzeppelin/contracts-upgradeable/utils/structs/EnumerableSetUpgradeable.sol\":4355:4386  return set._indexes[value] != 0 */\n      swap1\n      pop\n        /* \"@openzeppelin/contracts-upgradeable/utils/structs/EnumerableSetUpgradeable.sol\":4266:4393  function _contains(Set storage set, bytes32 value) private view returns (bool) {... */\n      swap3\n      swap2\n      pop\n      pop\n      jump\t// out\n        /* \"@openzeppelin/contracts-upgradeable/utils/structs/EnumerableSetUpgradeable.sol\":2797:4185  function _remove(Set storage set, bytes32 value) private returns (bool) {... */\n    tag_334:\n        /* \"@openzeppelin/contracts-upgradeable/utils/structs/EnumerableSetUpgradeable.sol\":2863:2867  bool */\n      0x00\n        /* \"@openzeppelin/contracts-upgradeable/utils/structs/EnumerableSetUpgradeable.sol\":2979:2997  uint256 valueIndex */\n      dup1\n        /* \"@openzeppelin/contracts-upgradeable/utils/structs/EnumerableSetUpgradeable.sol\":3000:3003  set */\n      dup4\n        /* \"@openzeppelin/contracts-upgradeable/utils/structs/EnumerableSetUpgradeable.sol\":3000:3012  set._indexes */\n      0x01\n      add\n        /* \"@openzeppelin/contracts-upgradeable/utils/structs/EnumerableSetUpgradeable.sol\":3000:3019  set._indexes[value] */\n      0x00\n        /* \"@openzeppelin/contracts-upgradeable/utils/structs/EnumerableSetUpgradeable.sol\":3013:3018  value */\n      dup5\n        /* \"@openzeppelin/contracts-upgradeable/utils/structs/EnumerableSetUpgradeable.sol\":3000:3019  set._indexes[value] */\n      dup2\n      mstore\n      0x20\n      add\n      swap1\n      dup2\n      mstore\n      0x20\n      add\n      0x00\n      keccak256\n      sload\n        /* \"@openzeppelin/contracts-upgradeable/utils/structs/EnumerableSetUpgradeable.sol\":2979:3019  uint256 valueIndex = set._indexes[value] */\n      swap1\n      pop\n        /* \"@openzeppelin/contracts-upgradeable/utils/structs/EnumerableSetUpgradeable.sol\":3048:3049  0 */\n      0x00\n        /* \"@openzeppelin/contracts-upgradeable/utils/structs/EnumerableSetUpgradeable.sol\":3034:3044  valueIndex */\n      dup2\n        /* \"@openzeppelin/contracts-upgradeable/utils/structs/EnumerableSetUpgradeable.sol\":3034:3049  valueIndex != 0 */\n      eq\n        /* \"@openzeppelin/contracts-upgradeable/utils/structs/EnumerableSetUpgradeable.sol\":3030:4179  if (valueIndex != 0) {... */\n      tag_377\n      jumpi\n        /* \"@openzeppelin/contracts-upgradeable/utils/structs/EnumerableSetUpgradeable.sol\":3403:3424  uint256 toDeleteIndex */\n      0x00\n        /* \"@openzeppelin/contracts-upgradeable/utils/structs/EnumerableSetUpgradeable.sol\":3440:3441  1 */\n      0x01\n        /* \"@openzeppelin/contracts-upgradeable/utils/structs/EnumerableSetUpgradeable.sol\":3427:3437  valueIndex */\n      dup3\n        /* \"@openzeppelin/contracts-upgradeable/utils/structs/EnumerableSetUpgradeable.sol\":3427:3441  valueIndex - 1 */\n      tag_378\n      swap2\n      swap1\n      tag_148\n      jump\t// in\n    tag_378:\n        /* \"@openzeppelin/contracts-upgradeable/utils/structs/EnumerableSetUpgradeable.sol\":3403:3441  uint256 toDeleteIndex = valueIndex - 1 */\n      swap1\n      pop\n        /* \"@openzeppelin/contracts-upgradeable/utils/structs/EnumerableSetUpgradeable.sol\":3455:3472  uint256 lastIndex */\n      0x00\n        /* \"@openzeppelin/contracts-upgradeable/utils/structs/EnumerableSetUpgradeable.sol\":3496:3497  1 */\n      0x01\n        /* \"@openzeppelin/contracts-upgradeable/utils/structs/EnumerableSetUpgradeable.sol\":3475:3478  set */\n      dup7\n        /* \"@openzeppelin/contracts-upgradeable/utils/structs/EnumerableSetUpgradeable.sol\":3475:3486  set._values */\n      0x00\n      add\n        /* \"@openzeppelin/contracts-upgradeable/utils/structs/EnumerableSetUpgradeable.sol\":3475:3493  set._values.length */\n      dup1\n      sload\n      swap1\n      pop\n        /* \"@openzeppelin/contracts-upgradeable/utils/structs/EnumerableSetUpgradeable.sol\":3475:3497  set._values.length - 1 */\n      tag_379\n      swap2\n      swap1\n      tag_148\n      jump\t// in\n    tag_379:\n        /* \"@openzeppelin/contracts-upgradeable/utils/structs/EnumerableSetUpgradeable.sol\":3455:3497  uint256 lastIndex = set._values.length - 1 */\n      swap1\n      pop\n        /* \"@openzeppelin/contracts-upgradeable/utils/structs/EnumerableSetUpgradeable.sol\":3529:3542  toDeleteIndex */\n      dup2\n        /* \"@openzeppelin/contracts-upgradeable/utils/structs/EnumerableSetUpgradeable.sol\":3516:3525  lastIndex */\n      dup2\n        /* \"@openzeppelin/contracts-upgradeable/utils/structs/EnumerableSetUpgradeable.sol\":3516:3542  lastIndex != toDeleteIndex */\n      eq\n        /* \"@openzeppelin/contracts-upgradeable/utils/structs/EnumerableSetUpgradeable.sol\":3512:3910  if (lastIndex != toDeleteIndex) {... */\n      tag_380\n      jumpi\n        /* \"@openzeppelin/contracts-upgradeable/utils/structs/EnumerableSetUpgradeable.sol\":3562:3579  bytes32 lastValue */\n      0x00\n        /* \"@openzeppelin/contracts-upgradeable/utils/structs/EnumerableSetUpgradeable.sol\":3582:3585  set */\n      dup7\n        /* \"@openzeppelin/contracts-upgradeable/utils/structs/EnumerableSetUpgradeable.sol\":3582:3593  set._values */\n      0x00\n      add\n        /* \"@openzeppelin/contracts-upgradeable/utils/structs/EnumerableSetUpgradeable.sol\":3594:3603  lastIndex */\n      dup3\n        /* \"@openzeppelin/contracts-upgradeable/utils/structs/EnumerableSetUpgradeable.sol\":3582:3604  set._values[lastIndex] */\n      dup2\n      sload\n      dup2\n      lt\n      tag_381\n      jumpi\n      tag_382\n      tag_135\n      jump\t// in\n    tag_382:\n    tag_381:\n      swap1\n      0x00\n      mstore\n      keccak256(0x00, 0x20)\n      add\n      sload\n        /* \"@openzeppelin/contracts-upgradeable/utils/structs/EnumerableSetUpgradeable.sol\":3562:3604  bytes32 lastValue = set._values[lastIndex] */\n      swap1\n      pop\n        /* \"@openzeppelin/contracts-upgradeable/utils/structs/EnumerableSetUpgradeable.sol\":3733:3742  lastValue */\n      dup1\n        /* \"@openzeppelin/contracts-upgradeable/utils/structs/EnumerableSetUpgradeable.sol\":3704:3707  set */\n      dup8\n        /* \"@openzeppelin/contracts-upgradeable/utils/structs/EnumerableSetUpgradeable.sol\":3704:3715  set._values */\n      0x00\n      add\n        /* \"@openzeppelin/contracts-upgradeable/utils/structs/EnumerableSetUpgradeable.sol\":3716:3729  toDeleteIndex */\n      dup5\n        /* \"@openzeppelin/contracts-upgradeable/utils/structs/EnumerableSetUpgradeable.sol\":3704:3730  set._values[toDeleteIndex] */\n      dup2\n      sload\n      dup2\n      lt\n      tag_384\n      jumpi\n      tag_385\n      tag_135\n      jump\t// in\n    tag_385:\n    tag_384:\n      swap1\n      0x00\n      mstore\n      keccak256(0x00, 0x20)\n      add\n        /* \"@openzeppelin/contracts-upgradeable/utils/structs/EnumerableSetUpgradeable.sol\":3704:3742  set._values[toDeleteIndex] = lastValue */\n      dup2\n      swap1\n      sstore\n      pop\n        /* \"@openzeppelin/contracts-upgradeable/utils/structs/EnumerableSetUpgradeable.sol\":3842:3852  valueIndex */\n      dup4\n        /* \"@openzeppelin/contracts-upgradeable/utils/structs/EnumerableSetUpgradeable.sol\":3816:3819  set */\n      dup8\n        /* \"@openzeppelin/contracts-upgradeable/utils/structs/EnumerableSetUpgradeable.sol\":3816:3828  set._indexes */\n      0x01\n      add\n        /* \"@openzeppelin/contracts-upgradeable/utils/structs/EnumerableSetUpgradeable.sol\":3816:3839  set._indexes[lastValue] */\n      0x00\n        /* \"@openzeppelin/contracts-upgradeable/utils/structs/EnumerableSetUpgradeable.sol\":3829:3838  lastValue */\n      dup4\n        /* \"@openzeppelin/contracts-upgradeable/utils/structs/EnumerableSetUpgradeable.sol\":3816:3839  set._indexes[lastValue] */\n      dup2\n      mstore\n      0x20\n      add\n      swap1\n      dup2\n      mstore\n      0x20\n      add\n      0x00\n      keccak256\n        /* \"@openzeppelin/contracts-upgradeable/utils/structs/EnumerableSetUpgradeable.sol\":3816:3852  set._indexes[lastValue] = valueIndex */\n      dup2\n      swap1\n      sstore\n      pop\n        /* \"@openzeppelin/contracts-upgradeable/utils/structs/EnumerableSetUpgradeable.sol\":3544:3910  {... */\n      pop\n        /* \"@openzeppelin/contracts-upgradeable/utils/structs/EnumerableSetUpgradeable.sol\":3512:3910  if (lastIndex != toDeleteIndex) {... */\n    tag_380:\n        /* \"@openzeppelin/contracts-upgradeable/utils/structs/EnumerableSetUpgradeable.sol\":3988:3991  set */\n      dup6\n        /* \"@openzeppelin/contracts-upgradeable/utils/structs/EnumerableSetUpgradeable.sol\":3988:3999  set._values */\n      0x00\n      add\n        /* \"@openzeppelin/contracts-upgradeable/utils/structs/EnumerableSetUpgradeable.sol\":3988:4005  set._values.pop() */\n      dup1\n      sload\n      dup1\n      tag_387\n      jumpi\n      tag_388\n      tag_389\n      jump\t// in\n    tag_388:\n    tag_387:\n      0x01\n      swap1\n      sub\n      dup2\n      dup2\n      swap1\n      0x00\n      mstore\n      keccak256(0x00, 0x20)\n      add\n      0x00\n      swap1\n      sstore\n      swap1\n      sstore\n        /* \"@openzeppelin/contracts-upgradeable/utils/structs/EnumerableSetUpgradeable.sol\":4080:4083  set */\n      dup6\n        /* \"@openzeppelin/contracts-upgradeable/utils/structs/EnumerableSetUpgradeable.sol\":4080:4092  set._indexes */\n      0x01\n      add\n        /* \"@openzeppelin/contracts-upgradeable/utils/structs/EnumerableSetUpgradeable.sol\":4080:4099  set._indexes[value] */\n      0x00\n        /* \"@openzeppelin/contracts-upgradeable/utils/structs/EnumerableSetUpgradeable.sol\":4093:4098  value */\n      dup7\n        /* \"@openzeppelin/contracts-upgradeable/utils/structs/EnumerableSetUpgradeable.sol\":4080:4099  set._indexes[value] */\n      dup2\n      mstore\n      0x20\n      add\n      swap1\n      dup2\n      mstore\n      0x20\n      add\n      0x00\n      keccak256\n        /* \"@openzeppelin/contracts-upgradeable/utils/structs/EnumerableSetUpgradeable.sol\":4073:4099  delete set._indexes[value] */\n      0x00\n      swap1\n      sstore\n        /* \"@openzeppelin/contracts-upgradeable/utils/structs/EnumerableSetUpgradeable.sol\":4121:4125  true */\n      0x01\n        /* \"@openzeppelin/contracts-upgradeable/utils/structs/EnumerableSetUpgradeable.sol\":4114:4125  return true */\n      swap4\n      pop\n      pop\n      pop\n      pop\n      jump(tag_376)\n        /* \"@openzeppelin/contracts-upgradeable/utils/structs/EnumerableSetUpgradeable.sol\":3030:4179  if (valueIndex != 0) {... */\n    tag_377:\n        /* \"@openzeppelin/contracts-upgradeable/utils/structs/EnumerableSetUpgradeable.sol\":4163:4168  false */\n      0x00\n        /* \"@openzeppelin/contracts-upgradeable/utils/structs/EnumerableSetUpgradeable.sol\":4156:4168  return false */\n      swap2\n      pop\n      pop\n        /* \"@openzeppelin/contracts-upgradeable/utils/structs/EnumerableSetUpgradeable.sol\":2797:4185  function _remove(Set storage set, bytes32 value) private returns (bool) {... */\n    tag_376:\n      swap3\n      swap2\n      pop\n      pop\n      jump\t// out\n        /* \"@openzeppelin/contracts-upgradeable/utils/structs/EnumerableSetUpgradeable.sol\":4474:4581  function _length(Set storage set) private view returns (uint256) {... */\n    tag_337:\n        /* \"@openzeppelin/contracts-upgradeable/utils/structs/EnumerableSetUpgradeable.sol\":4530:4537  uint256 */\n      0x00\n        /* \"@openzeppelin/contracts-upgradeable/utils/structs/EnumerableSetUpgradeable.sol\":4556:4559  set */\n      dup2\n        /* \"@openzeppelin/contracts-upgradeable/utils/structs/EnumerableSetUpgradeable.sol\":4556:4567  set._values */\n      0x00\n      add\n        /* \"@openzeppelin/contracts-upgradeable/utils/structs/EnumerableSetUpgradeable.sol\":4556:4574  set._values.length */\n      dup1\n      sload\n      swap1\n      pop\n        /* \"@openzeppelin/contracts-upgradeable/utils/structs/EnumerableSetUpgradeable.sol\":4549:4574  return set._values.length */\n      swap1\n      pop\n        /* \"@openzeppelin/contracts-upgradeable/utils/structs/EnumerableSetUpgradeable.sol\":4474:4581  function _length(Set storage set) private view returns (uint256) {... */\n      swap2\n      swap1\n      pop\n      jump\t// out\n        /* \"@openzeppelin/contracts-upgradeable/utils/structs/EnumerableSetUpgradeable.sol\":4923:5041  function _at(Set storage set, uint256 index) private view returns (bytes32) {... */\n    tag_340:\n        /* \"@openzeppelin/contracts-upgradeable/utils/structs/EnumerableSetUpgradeable.sol\":4990:4997  bytes32 */\n      0x00\n        /* \"@openzeppelin/contracts-upgradeable/utils/structs/EnumerableSetUpgradeable.sol\":5016:5019  set */\n      dup3\n        /* \"@openzeppelin/contracts-upgradeable/utils/structs/EnumerableSetUpgradeable.sol\":5016:5027  set._values */\n      0x00\n      add\n        /* \"@openzeppelin/contracts-upgradeable/utils/structs/EnumerableSetUpgradeable.sol\":5028:5033  index */\n      dup3\n        /* \"@openzeppelin/contracts-upgradeable/utils/structs/EnumerableSetUpgradeable.sol\":5016:5034  set._values[index] */\n      dup2\n      sload\n      dup2\n      lt\n      tag_394\n      jumpi\n      tag_395\n      tag_135\n      jump\t// in\n    tag_395:\n    tag_394:\n      swap1\n      0x00\n      mstore\n      keccak256(0x00, 0x20)\n      add\n      sload\n        /* \"@openzeppelin/contracts-upgradeable/utils/structs/EnumerableSetUpgradeable.sol\":5009:5034  return set._values[index] */\n      swap1\n      pop\n        /* \"@openzeppelin/contracts-upgradeable/utils/structs/EnumerableSetUpgradeable.sol\":4923:5041  function _at(Set storage set, uint256 index) private view returns (bytes32) {... */\n      swap3\n      swap2\n      pop\n      pop\n      jump\t// out\n        /* \"@openzeppelin/contracts-upgradeable/utils/structs/EnumerableSetUpgradeable.sol\":2225:2629  function _add(Set storage set, bytes32 value) private returns (bool) {... */\n    tag_343:\n        /* \"@openzeppelin/contracts-upgradeable/utils/structs/EnumerableSetUpgradeable.sol\":2288:2292  bool */\n      0x00\n        /* \"@openzeppelin/contracts-upgradeable/utils/structs/EnumerableSetUpgradeable.sol\":2309:2330  _contains(set, value) */\n      tag_398\n        /* \"@openzeppelin/contracts-upgradeable/utils/structs/EnumerableSetUpgradeable.sol\":2319:2322  set */\n      dup4\n        /* \"@openzeppelin/contracts-upgradeable/utils/structs/EnumerableSetUpgradeable.sol\":2324:2329  value */\n      dup4\n        /* \"@openzeppelin/contracts-upgradeable/utils/structs/EnumerableSetUpgradeable.sol\":2309:2318  _contains */\n      tag_331\n        /* \"@openzeppelin/contracts-upgradeable/utils/structs/EnumerableSetUpgradeable.sol\":2309:2330  _contains(set, value) */\n      jump\t// in\n    tag_398:\n        /* \"@openzeppelin/contracts-upgradeable/utils/structs/EnumerableSetUpgradeable.sol\":2304:2623  if (!_contains(set, value)) {... */\n      tag_399\n      jumpi\n        /* \"@openzeppelin/contracts-upgradeable/utils/structs/EnumerableSetUpgradeable.sol\":2346:2349  set */\n      dup3\n        /* \"@openzeppelin/contracts-upgradeable/utils/structs/EnumerableSetUpgradeable.sol\":2346:2357  set._values */\n      0x00\n      add\n        /* \"@openzeppelin/contracts-upgradeable/utils/structs/EnumerableSetUpgradeable.sol\":2363:2368  value */\n      dup3\n        /* \"@openzeppelin/contracts-upgradeable/utils/structs/EnumerableSetUpgradeable.sol\":2346:2369  set._values.push(value) */\n      swap1\n      dup1\n      0x01\n      dup2\n      sload\n      add\n      dup1\n      dup3\n      sstore\n      dup1\n      swap2\n      pop\n      pop\n      0x01\n      swap1\n      sub\n      swap1\n      0x00\n      mstore\n      keccak256(0x00, 0x20)\n      add\n      0x00\n      swap1\n      swap2\n      swap1\n      swap2\n      swap1\n      swap2\n      pop\n      sstore\n        /* \"@openzeppelin/contracts-upgradeable/utils/structs/EnumerableSetUpgradeable.sol\":2526:2529  set */\n      dup3\n        /* \"@openzeppelin/contracts-upgradeable/utils/structs/EnumerableSetUpgradeable.sol\":2526:2537  set._values */\n      0x00\n      add\n        /* \"@openzeppelin/contracts-upgradeable/utils/structs/EnumerableSetUpgradeable.sol\":2526:2544  set._values.length */\n      dup1\n      sload\n      swap1\n      pop\n        /* \"@openzeppelin/contracts-upgradeable/utils/structs/EnumerableSetUpgradeable.sol\":2504:2507  set */\n      dup4\n        /* \"@openzeppelin/contracts-upgradeable/utils/structs/EnumerableSetUpgradeable.sol\":2504:2516  set._indexes */\n      0x01\n      add\n        /* \"@openzeppelin/contracts-upgradeable/utils/structs/EnumerableSetUpgradeable.sol\":2504:2523  set._indexes[value] */\n      0x00\n        /* \"@openzeppelin/contracts-upgradeable/utils/structs/EnumerableSetUpgradeable.sol\":2517:2522  value */\n      dup5\n        /* \"@openzeppelin/contracts-upgradeable/utils/structs/EnumerableSetUpgradeable.sol\":2504:2523  set._indexes[value] */\n      dup2\n      mstore\n      0x20\n      add\n      swap1\n      dup2\n      mstore\n      0x20\n      add\n      0x00\n      keccak256\n        /* \"@openzeppelin/contracts-upgradeable/utils/structs/EnumerableSetUpgradeable.sol\":2504:2544  set._indexes[value] = set._values.length */\n      dup2\n      swap1\n      sstore\n      pop\n        /* \"@openzeppelin/contracts-upgradeable/utils/structs/EnumerableSetUpgradeable.sol\":2565:2569  true */\n      0x01\n        /* \"@openzeppelin/contracts-upgradeable/utils/structs/EnumerableSetUpgradeable.sol\":2558:2569  return true */\n      swap1\n      pop\n      jump(tag_397)\n        /* \"@openzeppelin/contracts-upgradeable/utils/structs/EnumerableSetUpgradeable.sol\":2304:2623  if (!_contains(set, value)) {... */\n    tag_399:\n        /* \"@openzeppelin/contracts-upgradeable/utils/structs/EnumerableSetUpgradeable.sol\":2607:2612  false */\n      0x00\n        /* \"@openzeppelin/contracts-upgradeable/utils/structs/EnumerableSetUpgradeable.sol\":2600:2612  return false */\n      swap1\n      pop\n        /* \"@openzeppelin/contracts-upgradeable/utils/structs/EnumerableSetUpgradeable.sol\":2225:2629  function _add(Set storage set, bytes32 value) private returns (bool) {... */\n    tag_397:\n      swap3\n      swap2\n      pop\n      pop\n      jump\t// out\n        /* \"@openzeppelin/contracts-upgradeable/access/OwnableUpgradeable.sol\":1104:1215  function __Ownable_init_unchained() internal onlyInitializing {... */\n    tag_358:\n        /* \"@openzeppelin/contracts-upgradeable/proxy/utils/Initializable.sol\":5374:5387  _initializing */\n      0x00\n      0x01\n      swap1\n      sload\n      swap1\n      0x0100\n      exp\n      swap1\n      div\n      0xff\n      and\n        /* \"@openzeppelin/contracts-upgradeable/proxy/utils/Initializable.sol\":5366:5435  require(_initializing, \"Initializable: contract is not initializing\") */\n      tag_403\n      jumpi\n      mload(0x40)\n      0x08c379a000000000000000000000000000000000000000000000000000000000\n      dup2\n      mstore\n      0x04\n      add\n      tag_404\n      swap1\n      tag_355\n      jump\t// in\n    tag_404:\n      mload(0x40)\n      dup1\n      swap2\n      sub\n      swap1\n      revert\n    tag_403:\n        /* \"@openzeppelin/contracts-upgradeable/access/OwnableUpgradeable.sol\":1176:1208  _transferOwnership(_msgSender()) */\n      tag_406\n        /* \"@openzeppelin/contracts-upgradeable/access/OwnableUpgradeable.sol\":1195:1207  _msgSender() */\n      tag_407\n        /* \"@openzeppelin/contracts-upgradeable/access/OwnableUpgradeable.sol\":1195:1205  _msgSender */\n      tag_324\n        /* \"@openzeppelin/contracts-upgradeable/access/OwnableUpgradeable.sol\":1195:1207  _msgSender() */\n      jump\t// in\n    tag_407:\n        /* \"@openzeppelin/contracts-upgradeable/access/OwnableUpgradeable.sol\":1176:1194  _transferOwnership */\n      tag_203\n        /* \"@openzeppelin/contracts-upgradeable/access/OwnableUpgradeable.sol\":1176:1208  _transferOwnership(_msgSender()) */\n      jump\t// in\n    tag_406:\n        /* \"@openzeppelin/contracts-upgradeable/access/OwnableUpgradeable.sol\":1104:1215  function __Ownable_init_unchained() internal onlyInitializing {... */\n      jump\t// out\n        /* \"@openzeppelin/contracts-upgradeable/security/ReentrancyGuardUpgradeable.sol\":1985:2094  function __ReentrancyGuard_init_unchained() internal onlyInitializing {... */\n    tag_364:\n        /* \"@openzeppelin/contracts-upgradeable/proxy/utils/Initializable.sol\":5374:5387  _initializing */\n      0x00\n      0x01\n      swap1\n      sload\n      swap1\n      0x0100\n      exp\n      swap1\n      div\n      0xff\n      and\n        /* \"@openzeppelin/contracts-upgradeable/proxy/utils/Initializable.sol\":5366:5435  require(_initializing, \"Initializable: contract is not initializing\") */\n      tag_409\n      jumpi\n      mload(0x40)\n      0x08c379a000000000000000000000000000000000000000000000000000000000\n      dup2\n      mstore\n      0x04\n      add\n      tag_410\n      swap1\n      tag_355\n      jump\t// in\n    tag_410:\n      mload(0x40)\n      dup1\n      swap2\n      sub\n      swap1\n      revert\n    tag_409:\n        /* \"@openzeppelin/contracts-upgradeable/security/ReentrancyGuardUpgradeable.sol\":1787:1788  1 */\n      0x01\n        /* \"@openzeppelin/contracts-upgradeable/security/ReentrancyGuardUpgradeable.sol\":2065:2072  _status */\n      0x68\n        /* \"@openzeppelin/contracts-upgradeable/security/ReentrancyGuardUpgradeable.sol\":2065:2087  _status = _NOT_ENTERED */\n      dup2\n      swap1\n      sstore\n      pop\n        /* \"@openzeppelin/contracts-upgradeable/security/ReentrancyGuardUpgradeable.sol\":1985:2094  function __ReentrancyGuard_init_unchained() internal onlyInitializing {... */\n      jump\t// out\n    tag_126:\n      mload(0x40)\n      dup1\n      0x80\n      add\n      0x40\n      mstore\n      dup1\n      and(0xffffffffffffffffffffffffffffffffffffffff, 0x00)\n      dup2\n      mstore\n      0x20\n      add\n      0x00\n      dup2\n      mstore\n      0x20\n      add\n      tag_412\n      tag_205\n      jump\t// in\n    tag_412:\n      dup2\n      mstore\n      0x20\n      add\n      iszero(iszero(0x00))\n      dup2\n      mstore\n      pop\n      swap1\n      jump\t// out\n    tag_205:\n      mload(0x40)\n      dup1\n      0x60\n      add\n      0x40\n      mstore\n      dup1\n      0x00\n      dup2\n      mstore\n      0x20\n      add\n      and(0xffffffffffffffffffffffffffffffffffffffff, 0x00)\n      dup2\n      mstore\n      0x20\n      add\n      0x00\n      dup2\n      mstore\n      pop\n      swap1\n      jump\t// out\n        /* \"#utility.yul\":88:205   */\n    tag_414:\n        /* \"#utility.yul\":197:198   */\n      0x00\n        /* \"#utility.yul\":194:195   */\n      dup1\n        /* \"#utility.yul\":187:199   */\n      revert\n        /* \"#utility.yul\":334:483   */\n    tag_416:\n        /* \"#utility.yul\":370:377   */\n      0x00\n        /* \"#utility.yul\":410:476   */\n      0xffffffff00000000000000000000000000000000000000000000000000000000\n        /* \"#utility.yul\":403:408   */\n      dup3\n        /* \"#utility.yul\":399:477   */\n      and\n        /* \"#utility.yul\":388:477   */\n      swap1\n      pop\n        /* \"#utility.yul\":334:483   */\n      swap2\n      swap1\n      pop\n      jump\t// out\n        /* \"#utility.yul\":489:609   */\n    tag_417:\n        /* \"#utility.yul\":561:584   */\n      tag_479\n        /* \"#utility.yul\":578:583   */\n      dup2\n        /* \"#utility.yul\":561:584   */\n      tag_416\n      jump\t// in\n    tag_479:\n        /* \"#utility.yul\":554:559   */\n      dup2\n        /* \"#utility.yul\":551:585   */\n      eq\n        /* \"#utility.yul\":541:603   */\n      tag_480\n      jumpi\n        /* \"#utility.yul\":599:600   */\n      0x00\n        /* \"#utility.yul\":596:597   */\n      dup1\n        /* \"#utility.yul\":589:601   */\n      revert\n        /* \"#utility.yul\":541:603   */\n    tag_480:\n        /* \"#utility.yul\":489:609   */\n      pop\n      jump\t// out\n        /* \"#utility.yul\":615:752   */\n    tag_418:\n        /* \"#utility.yul\":660:665   */\n      0x00\n        /* \"#utility.yul\":698:704   */\n      dup2\n        /* \"#utility.yul\":685:705   */\n      calldataload\n        /* \"#utility.yul\":676:705   */\n      swap1\n      pop\n        /* \"#utility.yul\":714:746   */\n      tag_482\n        /* \"#utility.yul\":740:745   */\n      dup2\n        /* \"#utility.yul\":714:746   */\n      tag_417\n      jump\t// in\n    tag_482:\n        /* \"#utility.yul\":615:752   */\n      swap3\n      swap2\n      pop\n      pop\n      jump\t// out\n        /* \"#utility.yul\":758:1085   */\n    tag_27:\n        /* \"#utility.yul\":816:822   */\n      0x00\n        /* \"#utility.yul\":865:867   */\n      0x20\n        /* \"#utility.yul\":853:862   */\n      dup3\n        /* \"#utility.yul\":844:851   */\n      dup5\n        /* \"#utility.yul\":840:863   */\n      sub\n        /* \"#utility.yul\":836:868   */\n      slt\n        /* \"#utility.yul\":833:952   */\n      iszero\n      tag_484\n      jumpi\n        /* \"#utility.yul\":871:950   */\n      tag_485\n      tag_414\n      jump\t// in\n    tag_485:\n        /* \"#utility.yul\":833:952   */\n    tag_484:\n        /* \"#utility.yul\":991:992   */\n      0x00\n        /* \"#utility.yul\":1016:1068   */\n      tag_486\n        /* \"#utility.yul\":1060:1067   */\n      dup5\n        /* \"#utility.yul\":1051:1057   */\n      dup3\n        /* \"#utility.yul\":1040:1049   */\n      dup6\n        /* \"#utility.yul\":1036:1058   */\n      add\n        /* \"#utility.yul\":1016:1068   */\n      tag_418\n      jump\t// in\n    tag_486:\n        /* \"#utility.yul\":1006:1068   */\n      swap2\n      pop\n        /* \"#utility.yul\":962:1078   */\n      pop\n        /* \"#utility.yul\":758:1085   */\n      swap3\n      swap2\n      pop\n      pop\n      jump\t// out\n        /* \"#utility.yul\":1091:1181   */\n    tag_419:\n        /* \"#utility.yul\":1125:1132   */\n      0x00\n        /* \"#utility.yul\":1168:1173   */\n      dup2\n        /* \"#utility.yul\":1161:1174   */\n      iszero\n        /* \"#utility.yul\":1154:1175   */\n      iszero\n        /* \"#utility.yul\":1143:1175   */\n      swap1\n      pop\n        /* \"#utility.yul\":1091:1181   */\n      swap2\n      swap1\n      pop\n      jump\t// out\n        /* \"#utility.yul\":1187:1296   */\n    tag_420:\n        /* \"#utility.yul\":1268:1289   */\n      tag_489\n        /* \"#utility.yul\":1283:1288   */\n      dup2\n        /* \"#utility.yul\":1268:1289   */\n      tag_419\n      jump\t// in\n    tag_489:\n        /* \"#utility.yul\":1263:1266   */\n      dup3\n        /* \"#utility.yul\":1256:1290   */\n      mstore\n        /* \"#utility.yul\":1187:1296   */\n      pop\n      pop\n      jump\t// out\n        /* \"#utility.yul\":1302:1512   */\n    tag_30:\n        /* \"#utility.yul\":1389:1393   */\n      0x00\n        /* \"#utility.yul\":1427:1429   */\n      0x20\n        /* \"#utility.yul\":1416:1425   */\n      dup3\n        /* \"#utility.yul\":1412:1430   */\n      add\n        /* \"#utility.yul\":1404:1430   */\n      swap1\n      pop\n        /* \"#utility.yul\":1440:1505   */\n      tag_491\n        /* \"#utility.yul\":1502:1503   */\n      0x00\n        /* \"#utility.yul\":1491:1500   */\n      dup4\n        /* \"#utility.yul\":1487:1504   */\n      add\n        /* \"#utility.yul\":1478:1484   */\n      dup5\n        /* \"#utility.yul\":1440:1505   */\n      tag_420\n      jump\t// in\n    tag_491:\n        /* \"#utility.yul\":1302:1512   */\n      swap3\n      swap2\n      pop\n      pop\n      jump\t// out\n        /* \"#utility.yul\":1518:1660   */\n    tag_421:\n        /* \"#utility.yul\":1613:1619   */\n      0x00\n        /* \"#utility.yul\":1647:1652   */\n      dup2\n        /* \"#utility.yul\":1641:1653   */\n      mload\n        /* \"#utility.yul\":1631:1653   */\n      swap1\n      pop\n        /* \"#utility.yul\":1518:1660   */\n      swap2\n      swap1\n      pop\n      jump\t// out\n        /* \"#utility.yul\":1666:1878   */\n    tag_422:\n        /* \"#utility.yul\":1793:1804   */\n      0x00\n        /* \"#utility.yul\":1827:1833   */\n      dup3\n        /* \"#utility.yul\":1822:1825   */\n      dup3\n        /* \"#utility.yul\":1815:1834   */\n      mstore\n        /* \"#utility.yul\":1867:1871   */\n      0x20\n        /* \"#utility.yul\":1862:1865   */\n      dup3\n        /* \"#utility.yul\":1858:1872   */\n      add\n        /* \"#utility.yul\":1843:1872   */\n      swap1\n      pop\n        /* \"#utility.yul\":1666:1878   */\n      swap3\n      swap2\n      pop\n      pop\n      jump\t// out\n        /* \"#utility.yul\":1884:2044   */\n    tag_423:\n        /* \"#utility.yul\":1979:1983   */\n      0x00\n        /* \"#utility.yul\":2002:2005   */\n      dup2\n        /* \"#utility.yul\":1994:2005   */\n      swap1\n      pop\n        /* \"#utility.yul\":2032:2036   */\n      0x20\n        /* \"#utility.yul\":2027:2030   */\n      dup3\n        /* \"#utility.yul\":2023:2037   */\n      add\n        /* \"#utility.yul\":2015:2037   */\n      swap1\n      pop\n        /* \"#utility.yul\":1884:2044   */\n      swap2\n      swap1\n      pop\n      jump\t// out\n        /* \"#utility.yul\":2050:2176   */\n    tag_424:\n        /* \"#utility.yul\":2087:2094   */\n      0x00\n        /* \"#utility.yul\":2127:2169   */\n      0xffffffffffffffffffffffffffffffffffffffff\n        /* \"#utility.yul\":2120:2125   */\n      dup3\n        /* \"#utility.yul\":2116:2170   */\n      and\n        /* \"#utility.yul\":2105:2170   */\n      swap1\n      pop\n        /* \"#utility.yul\":2050:2176   */\n      swap2\n      swap1\n      pop\n      jump\t// out\n        /* \"#utility.yul\":2182:2278   */\n    tag_425:\n        /* \"#utility.yul\":2219:2226   */\n      0x00\n        /* \"#utility.yul\":2248:2272   */\n      tag_497\n        /* \"#utility.yul\":2266:2271   */\n      dup3\n        /* \"#utility.yul\":2248:2272   */\n      tag_424\n      jump\t// in\n    tag_497:\n        /* \"#utility.yul\":2237:2272   */\n      swap1\n      pop\n        /* \"#utility.yul\":2182:2278   */\n      swap2\n      swap1\n      pop\n      jump\t// out\n        /* \"#utility.yul\":2284:2392   */\n    tag_426:\n        /* \"#utility.yul\":2361:2385   */\n      tag_499\n        /* \"#utility.yul\":2379:2384   */\n      dup2\n        /* \"#utility.yul\":2361:2385   */\n      tag_425\n      jump\t// in\n    tag_499:\n        /* \"#utility.yul\":2356:2359   */\n      dup3\n        /* \"#utility.yul\":2349:2386   */\n      mstore\n        /* \"#utility.yul\":2284:2392   */\n      pop\n      pop\n      jump\t// out\n        /* \"#utility.yul\":2398:2475   */\n    tag_427:\n        /* \"#utility.yul\":2435:2442   */\n      0x00\n        /* \"#utility.yul\":2464:2469   */\n      dup2\n        /* \"#utility.yul\":2453:2469   */\n      swap1\n      pop\n        /* \"#utility.yul\":2398:2475   */\n      swap2\n      swap1\n      pop\n      jump\t// out\n        /* \"#utility.yul\":2481:2589   */\n    tag_428:\n        /* \"#utility.yul\":2558:2582   */\n      tag_502\n        /* \"#utility.yul\":2576:2581   */\n      dup2\n        /* \"#utility.yul\":2558:2582   */\n      tag_427\n      jump\t// in\n    tag_502:\n        /* \"#utility.yul\":2553:2556   */\n      dup3\n        /* \"#utility.yul\":2546:2583   */\n      mstore\n        /* \"#utility.yul\":2481:2589   */\n      pop\n      pop\n      jump\t// out\n        /* \"#utility.yul\":2683:3362   */\n    tag_429:\n        /* \"#utility.yul\":2820:2824   */\n      0x60\n        /* \"#utility.yul\":2815:2818   */\n      dup3\n        /* \"#utility.yul\":2811:2825   */\n      add\n        /* \"#utility.yul\":2908:2912   */\n      0x00\n        /* \"#utility.yul\":2901:2906   */\n      dup3\n        /* \"#utility.yul\":2897:2913   */\n      add\n        /* \"#utility.yul\":2891:2914   */\n      mload\n        /* \"#utility.yul\":2927:2990   */\n      tag_504\n        /* \"#utility.yul\":2984:2988   */\n      0x00\n        /* \"#utility.yul\":2979:2982   */\n      dup6\n        /* \"#utility.yul\":2975:2989   */\n      add\n        /* \"#utility.yul\":2961:2973   */\n      dup3\n        /* \"#utility.yul\":2927:2990   */\n      tag_428\n      jump\t// in\n    tag_504:\n        /* \"#utility.yul\":2835:3000   */\n      pop\n        /* \"#utility.yul\":3084:3088   */\n      0x20\n        /* \"#utility.yul\":3077:3082   */\n      dup3\n        /* \"#utility.yul\":3073:3089   */\n      add\n        /* \"#utility.yul\":3067:3090   */\n      mload\n        /* \"#utility.yul\":3103:3166   */\n      tag_505\n        /* \"#utility.yul\":3160:3164   */\n      0x20\n        /* \"#utility.yul\":3155:3158   */\n      dup6\n        /* \"#utility.yul\":3151:3165   */\n      add\n        /* \"#utility.yul\":3137:3149   */\n      dup3\n        /* \"#utility.yul\":3103:3166   */\n      tag_426\n      jump\t// in\n    tag_505:\n        /* \"#utility.yul\":3010:3176   */\n      pop\n        /* \"#utility.yul\":3263:3267   */\n      0x40\n        /* \"#utility.yul\":3256:3261   */\n      dup3\n        /* \"#utility.yul\":3252:3268   */\n      add\n        /* \"#utility.yul\":3246:3269   */\n      mload\n        /* \"#utility.yul\":3282:3345   */\n      tag_506\n        /* \"#utility.yul\":3339:3343   */\n      0x40\n        /* \"#utility.yul\":3334:3337   */\n      dup6\n        /* \"#utility.yul\":3330:3344   */\n      add\n        /* \"#utility.yul\":3316:3328   */\n      dup3\n        /* \"#utility.yul\":3282:3345   */\n      tag_428\n      jump\t// in\n    tag_506:\n        /* \"#utility.yul\":3186:3355   */\n      pop\n        /* \"#utility.yul\":2789:3362   */\n      pop\n        /* \"#utility.yul\":2683:3362   */\n      pop\n      pop\n      jump\t// out\n        /* \"#utility.yul\":3368:3467   */\n    tag_430:\n        /* \"#utility.yul\":3439:3460   */\n      tag_508\n        /* \"#utility.yul\":3454:3459   */\n      dup2\n        /* \"#utility.yul\":3439:3460   */\n      tag_419\n      jump\t// in\n    tag_508:\n        /* \"#utility.yul\":3434:3437   */\n      dup3\n        /* \"#utility.yul\":3427:3461   */\n      mstore\n        /* \"#utility.yul\":3368:3467   */\n      pop\n      pop\n      jump\t// out\n        /* \"#utility.yul\":3567:4481   */\n    tag_431:\n        /* \"#utility.yul\":3710:3714   */\n      0xc0\n        /* \"#utility.yul\":3705:3708   */\n      dup3\n        /* \"#utility.yul\":3701:3715   */\n      add\n        /* \"#utility.yul\":3808:3812   */\n      0x00\n        /* \"#utility.yul\":3801:3806   */\n      dup3\n        /* \"#utility.yul\":3797:3813   */\n      add\n        /* \"#utility.yul\":3791:3814   */\n      mload\n        /* \"#utility.yul\":3827:3890   */\n      tag_510\n        /* \"#utility.yul\":3884:3888   */\n      0x00\n        /* \"#utility.yul\":3879:3882   */\n      dup6\n        /* \"#utility.yul\":3875:3889   */\n      add\n        /* \"#utility.yul\":3861:3873   */\n      dup3\n        /* \"#utility.yul\":3827:3890   */\n      tag_426\n      jump\t// in\n    tag_510:\n        /* \"#utility.yul\":3725:3900   */\n      pop\n        /* \"#utility.yul\":3985:3989   */\n      0x20\n        /* \"#utility.yul\":3978:3983   */\n      dup3\n        /* \"#utility.yul\":3974:3990   */\n      add\n        /* \"#utility.yul\":3968:3991   */\n      mload\n        /* \"#utility.yul\":4004:4067   */\n      tag_511\n        /* \"#utility.yul\":4061:4065   */\n      0x20\n        /* \"#utility.yul\":4056:4059   */\n      dup6\n        /* \"#utility.yul\":4052:4066   */\n      add\n        /* \"#utility.yul\":4038:4050   */\n      dup3\n        /* \"#utility.yul\":4004:4067   */\n      tag_428\n      jump\t// in\n    tag_511:\n        /* \"#utility.yul\":3910:4077   */\n      pop\n        /* \"#utility.yul\":4162:4166   */\n      0x40\n        /* \"#utility.yul\":4155:4160   */\n      dup3\n        /* \"#utility.yul\":4151:4167   */\n      add\n        /* \"#utility.yul\":4145:4168   */\n      mload\n        /* \"#utility.yul\":4181:4294   */\n      tag_512\n        /* \"#utility.yul\":4288:4292   */\n      0x40\n        /* \"#utility.yul\":4283:4286   */\n      dup6\n        /* \"#utility.yul\":4279:4293   */\n      add\n        /* \"#utility.yul\":4265:4277   */\n      dup3\n        /* \"#utility.yul\":4181:4294   */\n      tag_429\n      jump\t// in\n    tag_512:\n        /* \"#utility.yul\":4087:4304   */\n      pop\n        /* \"#utility.yul\":4388:4392   */\n      0x60\n        /* \"#utility.yul\":4381:4386   */\n      dup3\n        /* \"#utility.yul\":4377:4393   */\n      add\n        /* \"#utility.yul\":4371:4394   */\n      mload\n        /* \"#utility.yul\":4407:4464   */\n      tag_513\n        /* \"#utility.yul\":4458:4462   */\n      0xa0\n        /* \"#utility.yul\":4453:4456   */\n      dup6\n        /* \"#utility.yul\":4449:4463   */\n      add\n        /* \"#utility.yul\":4435:4447   */\n      dup3\n        /* \"#utility.yul\":4407:4464   */\n      tag_430\n      jump\t// in\n    tag_513:\n        /* \"#utility.yul\":4314:4474   */\n      pop\n        /* \"#utility.yul\":3679:4481   */\n      pop\n        /* \"#utility.yul\":3567:4481   */\n      pop\n      pop\n      jump\t// out\n        /* \"#utility.yul\":4487:4778   */\n    tag_432:\n        /* \"#utility.yul\":4612:4622   */\n      0x00\n        /* \"#utility.yul\":4633:4735   */\n      tag_515\n        /* \"#utility.yul\":4731:4734   */\n      dup4\n        /* \"#utility.yul\":4723:4729   */\n      dup4\n        /* \"#utility.yul\":4633:4735   */\n      tag_431\n      jump\t// in\n    tag_515:\n        /* \"#utility.yul\":4767:4771   */\n      0xc0\n        /* \"#utility.yul\":4762:4765   */\n      dup4\n        /* \"#utility.yul\":4758:4772   */\n      add\n        /* \"#utility.yul\":4744:4772   */\n      swap1\n      pop\n        /* \"#utility.yul\":4487:4778   */\n      swap3\n      swap2\n      pop\n      pop\n      jump\t// out\n        /* \"#utility.yul\":4784:4925   */\n    tag_433:\n        /* \"#utility.yul\":4882:4886   */\n      0x00\n        /* \"#utility.yul\":4914:4918   */\n      0x20\n        /* \"#utility.yul\":4909:4912   */\n      dup3\n        /* \"#utility.yul\":4905:4919   */\n      add\n        /* \"#utility.yul\":4897:4919   */\n      swap1\n      pop\n        /* \"#utility.yul\":4784:4925   */\n      swap2\n      swap1\n      pop\n      jump\t// out\n        /* \"#utility.yul\":5029:5985   */\n    tag_434:\n        /* \"#utility.yul\":5204:5207   */\n      0x00\n        /* \"#utility.yul\":5233:5315   */\n      tag_518\n        /* \"#utility.yul\":5309:5314   */\n      dup3\n        /* \"#utility.yul\":5233:5315   */\n      tag_421\n      jump\t// in\n    tag_518:\n        /* \"#utility.yul\":5331:5445   */\n      tag_519\n        /* \"#utility.yul\":5438:5444   */\n      dup2\n        /* \"#utility.yul\":5433:5436   */\n      dup6\n        /* \"#utility.yul\":5331:5445   */\n      tag_422\n      jump\t// in\n    tag_519:\n        /* \"#utility.yul\":5324:5445   */\n      swap4\n      pop\n        /* \"#utility.yul\":5469:5553   */\n      tag_520\n        /* \"#utility.yul\":5547:5552   */\n      dup4\n        /* \"#utility.yul\":5469:5553   */\n      tag_423\n      jump\t// in\n    tag_520:\n        /* \"#utility.yul\":5576:5583   */\n      dup1\n        /* \"#utility.yul\":5607:5608   */\n      0x00\n        /* \"#utility.yul\":5592:5960   */\n    tag_521:\n        /* \"#utility.yul\":5617:5623   */\n      dup4\n        /* \"#utility.yul\":5614:5615   */\n      dup2\n        /* \"#utility.yul\":5611:5624   */\n      lt\n        /* \"#utility.yul\":5592:5960   */\n      iszero\n      tag_523\n      jumpi\n        /* \"#utility.yul\":5693:5699   */\n      dup2\n        /* \"#utility.yul\":5687:5700   */\n      mload\n        /* \"#utility.yul\":5720:5839   */\n      tag_524\n        /* \"#utility.yul\":5835:5838   */\n      dup9\n        /* \"#utility.yul\":5820:5833   */\n      dup3\n        /* \"#utility.yul\":5720:5839   */\n      tag_432\n      jump\t// in\n    tag_524:\n        /* \"#utility.yul\":5713:5839   */\n      swap8\n      pop\n        /* \"#utility.yul\":5862:5950   */\n      tag_525\n        /* \"#utility.yul\":5943:5949   */\n      dup4\n        /* \"#utility.yul\":5862:5950   */\n      tag_433\n      jump\t// in\n    tag_525:\n        /* \"#utility.yul\":5852:5950   */\n      swap3\n      pop\n        /* \"#utility.yul\":5652:5960   */\n      pop\n        /* \"#utility.yul\":5639:5640   */\n      0x01\n        /* \"#utility.yul\":5636:5637   */\n      dup2\n        /* \"#utility.yul\":5632:5641   */\n      add\n        /* \"#utility.yul\":5627:5641   */\n      swap1\n      pop\n        /* \"#utility.yul\":5592:5960   */\n      jump(tag_521)\n    tag_523:\n        /* \"#utility.yul\":5596:5610   */\n      pop\n        /* \"#utility.yul\":5976:5979   */\n      dup6\n        /* \"#utility.yul\":5969:5979   */\n      swap4\n      pop\n        /* \"#utility.yul\":5209:5985   */\n      pop\n      pop\n      pop\n        /* \"#utility.yul\":5029:5985   */\n      swap3\n      swap2\n      pop\n      pop\n      jump\t// out\n        /* \"#utility.yul\":5991:6476   */\n    tag_35:\n        /* \"#utility.yul\":6190:6194   */\n      0x00\n        /* \"#utility.yul\":6228:6230   */\n      0x20\n        /* \"#utility.yul\":6217:6226   */\n      dup3\n        /* \"#utility.yul\":6213:6231   */\n      add\n        /* \"#utility.yul\":6205:6231   */\n      swap1\n      pop\n        /* \"#utility.yul\":6277:6286   */\n      dup2\n        /* \"#utility.yul\":6271:6275   */\n      dup2\n        /* \"#utility.yul\":6267:6287   */\n      sub\n        /* \"#utility.yul\":6263:6264   */\n      0x00\n        /* \"#utility.yul\":6252:6261   */\n      dup4\n        /* \"#utility.yul\":6248:6265   */\n      add\n        /* \"#utility.yul\":6241:6288   */\n      mstore\n        /* \"#utility.yul\":6305:6469   */\n      tag_527\n        /* \"#utility.yul\":6464:6468   */\n      dup2\n        /* \"#utility.yul\":6455:6461   */\n      dup5\n        /* \"#utility.yul\":6305:6469   */\n      tag_434\n      jump\t// in\n    tag_527:\n        /* \"#utility.yul\":6297:6469   */\n      swap1\n      pop\n        /* \"#utility.yul\":5991:6476   */\n      swap3\n      swap2\n      pop\n      pop\n      jump\t// out\n        /* \"#utility.yul\":6482:6604   */\n    tag_435:\n        /* \"#utility.yul\":6555:6579   */\n      tag_529\n        /* \"#utility.yul\":6573:6578   */\n      dup2\n        /* \"#utility.yul\":6555:6579   */\n      tag_425\n      jump\t// in\n    tag_529:\n        /* \"#utility.yul\":6548:6553   */\n      dup2\n        /* \"#utility.yul\":6545:6580   */\n      eq\n        /* \"#utility.yul\":6535:6598   */\n      tag_530\n      jumpi\n        /* \"#utility.yul\":6594:6595   */\n      0x00\n        /* \"#utility.yul\":6591:6592   */\n      dup1\n        /* \"#utility.yul\":6584:6596   */\n      revert\n        /* \"#utility.yul\":6535:6598   */\n    tag_530:\n        /* \"#utility.yul\":6482:6604   */\n      pop\n      jump\t// out\n        /* \"#utility.yul\":6610:6749   */\n    tag_436:\n        /* \"#utility.yul\":6656:6661   */\n      0x00\n        /* \"#utility.yul\":6694:6700   */\n      dup2\n        /* \"#utility.yul\":6681:6701   */\n      calldataload\n        /* \"#utility.yul\":6672:6701   */\n      swap1\n      pop\n        /* \"#utility.yul\":6710:6743   */\n      tag_532\n        /* \"#utility.yul\":6737:6742   */\n      dup2\n        /* \"#utility.yul\":6710:6743   */\n      tag_435\n      jump\t// in\n    tag_532:\n        /* \"#utility.yul\":6610:6749   */\n      swap3\n      swap2\n      pop\n      pop\n      jump\t// out\n        /* \"#utility.yul\":6755:7084   */\n    tag_39:\n        /* \"#utility.yul\":6814:6820   */\n      0x00\n        /* \"#utility.yul\":6863:6865   */\n      0x20\n        /* \"#utility.yul\":6851:6860   */\n      dup3\n        /* \"#utility.yul\":6842:6849   */\n      dup5\n        /* \"#utility.yul\":6838:6861   */\n      sub\n        /* \"#utility.yul\":6834:6866   */\n      slt\n        /* \"#utility.yul\":6831:6950   */\n      iszero\n      tag_534\n      jumpi\n        /* \"#utility.yul\":6869:6948   */\n      tag_535\n      tag_414\n      jump\t// in\n    tag_535:\n        /* \"#utility.yul\":6831:6950   */\n    tag_534:\n        /* \"#utility.yul\":6989:6990   */\n      0x00\n        /* \"#utility.yul\":7014:7067   */\n      tag_536\n        /* \"#utility.yul\":7059:7066   */\n      dup5\n        /* \"#utility.yul\":7050:7056   */\n      dup3\n        /* \"#utility.yul\":7039:7048   */\n      dup6\n        /* \"#utility.yul\":7035:7057   */\n      add\n        /* \"#utility.yul\":7014:7067   */\n      tag_436\n      jump\t// in\n    tag_536:\n        /* \"#utility.yul\":7004:7067   */\n      swap2\n      pop\n        /* \"#utility.yul\":6960:7077   */\n      pop\n        /* \"#utility.yul\":6755:7084   */\n      swap3\n      swap2\n      pop\n      pop\n      jump\t// out\n        /* \"#utility.yul\":7090:7204   */\n    tag_437:\n        /* \"#utility.yul\":7157:7163   */\n      0x00\n        /* \"#utility.yul\":7191:7196   */\n      dup2\n        /* \"#utility.yul\":7185:7197   */\n      mload\n        /* \"#utility.yul\":7175:7197   */\n      swap1\n      pop\n        /* \"#utility.yul\":7090:7204   */\n      swap2\n      swap1\n      pop\n      jump\t// out\n        /* \"#utility.yul\":7210:7394   */\n    tag_438:\n        /* \"#utility.yul\":7309:7320   */\n      0x00\n        /* \"#utility.yul\":7343:7349   */\n      dup3\n        /* \"#utility.yul\":7338:7341   */\n      dup3\n        /* \"#utility.yul\":7331:7350   */\n      mstore\n        /* \"#utility.yul\":7383:7387   */\n      0x20\n        /* \"#utility.yul\":7378:7381   */\n      dup3\n        /* \"#utility.yul\":7374:7388   */\n      add\n        /* \"#utility.yul\":7359:7388   */\n      swap1\n      pop\n        /* \"#utility.yul\":7210:7394   */\n      swap3\n      swap2\n      pop\n      pop\n      jump\t// out\n        /* \"#utility.yul\":7400:7532   */\n    tag_439:\n        /* \"#utility.yul\":7467:7471   */\n      0x00\n        /* \"#utility.yul\":7490:7493   */\n      dup2\n        /* \"#utility.yul\":7482:7493   */\n      swap1\n      pop\n        /* \"#utility.yul\":7520:7524   */\n      0x20\n        /* \"#utility.yul\":7515:7518   */\n      dup3\n        /* \"#utility.yul\":7511:7525   */\n      add\n        /* \"#utility.yul\":7503:7525   */\n      swap1\n      pop\n        /* \"#utility.yul\":7400:7532   */\n      swap2\n      swap1\n      pop\n      jump\t// out\n        /* \"#utility.yul\":7538:7717   */\n    tag_440:\n        /* \"#utility.yul\":7607:7617   */\n      0x00\n        /* \"#utility.yul\":7628:7674   */\n      tag_541\n        /* \"#utility.yul\":7670:7673   */\n      dup4\n        /* \"#utility.yul\":7662:7668   */\n      dup4\n        /* \"#utility.yul\":7628:7674   */\n      tag_426\n      jump\t// in\n    tag_541:\n        /* \"#utility.yul\":7706:7710   */\n      0x20\n        /* \"#utility.yul\":7701:7704   */\n      dup4\n        /* \"#utility.yul\":7697:7711   */\n      add\n        /* \"#utility.yul\":7683:7711   */\n      swap1\n      pop\n        /* \"#utility.yul\":7538:7717   */\n      swap3\n      swap2\n      pop\n      pop\n      jump\t// out\n        /* \"#utility.yul\":7723:7836   */\n    tag_441:\n        /* \"#utility.yul\":7793:7797   */\n      0x00\n        /* \"#utility.yul\":7825:7829   */\n      0x20\n        /* \"#utility.yul\":7820:7823   */\n      dup3\n        /* \"#utility.yul\":7816:7830   */\n      add\n        /* \"#utility.yul\":7808:7830   */\n      swap1\n      pop\n        /* \"#utility.yul\":7723:7836   */\n      swap2\n      swap1\n      pop\n      jump\t// out\n        /* \"#utility.yul\":7872:8604   */\n    tag_442:\n        /* \"#utility.yul\":7991:7994   */\n      0x00\n        /* \"#utility.yul\":8020:8074   */\n      tag_544\n        /* \"#utility.yul\":8068:8073   */\n      dup3\n        /* \"#utility.yul\":8020:8074   */\n      tag_437\n      jump\t// in\n    tag_544:\n        /* \"#utility.yul\":8090:8176   */\n      tag_545\n        /* \"#utility.yul\":8169:8175   */\n      dup2\n        /* \"#utility.yul\":8164:8167   */\n      dup6\n        /* \"#utility.yul\":8090:8176   */\n      tag_438\n      jump\t// in\n    tag_545:\n        /* \"#utility.yul\":8083:8176   */\n      swap4\n      pop\n        /* \"#utility.yul\":8200:8256   */\n      tag_546\n        /* \"#utility.yul\":8250:8255   */\n      dup4\n        /* \"#utility.yul\":8200:8256   */\n      tag_439\n      jump\t// in\n    tag_546:\n        /* \"#utility.yul\":8279:8286   */\n      dup1\n        /* \"#utility.yul\":8310:8311   */\n      0x00\n        /* \"#utility.yul\":8295:8579   */\n    tag_547:\n        /* \"#utility.yul\":8320:8326   */\n      dup4\n        /* \"#utility.yul\":8317:8318   */\n      dup2\n        /* \"#utility.yul\":8314:8327   */\n      lt\n        /* \"#utility.yul\":8295:8579   */\n      iszero\n      tag_549\n      jumpi\n        /* \"#utility.yul\":8396:8402   */\n      dup2\n        /* \"#utility.yul\":8390:8403   */\n      mload\n        /* \"#utility.yul\":8423:8486   */\n      tag_550\n        /* \"#utility.yul\":8482:8485   */\n      dup9\n        /* \"#utility.yul\":8467:8480   */\n      dup3\n        /* \"#utility.yul\":8423:8486   */\n      tag_440\n      jump\t// in\n    tag_550:\n        /* \"#utility.yul\":8416:8486   */\n      swap8\n      pop\n        /* \"#utility.yul\":8509:8569   */\n      tag_551\n        /* \"#utility.yul\":8562:8568   */\n      dup4\n        /* \"#utility.yul\":8509:8569   */\n      tag_441\n      jump\t// in\n    tag_551:\n        /* \"#utility.yul\":8499:8569   */\n      swap3\n      pop\n        /* \"#utility.yul\":8355:8579   */\n      pop\n        /* \"#utility.yul\":8342:8343   */\n      0x01\n        /* \"#utility.yul\":8339:8340   */\n      dup2\n        /* \"#utility.yul\":8335:8344   */\n      add\n        /* \"#utility.yul\":8330:8344   */\n      swap1\n      pop\n        /* \"#utility.yul\":8295:8579   */\n      jump(tag_547)\n    tag_549:\n        /* \"#utility.yul\":8299:8313   */\n      pop\n        /* \"#utility.yul\":8595:8598   */\n      dup6\n        /* \"#utility.yul\":8588:8598   */\n      swap4\n      pop\n        /* \"#utility.yul\":7996:8604   */\n      pop\n      pop\n      pop\n        /* \"#utility.yul\":7872:8604   */\n      swap3\n      swap2\n      pop\n      pop\n      jump\t// out\n        /* \"#utility.yul\":8610:8983   */\n    tag_58:\n        /* \"#utility.yul\":8753:8757   */\n      0x00\n        /* \"#utility.yul\":8791:8793   */\n      0x20\n        /* \"#utility.yul\":8780:8789   */\n      dup3\n        /* \"#utility.yul\":8776:8794   */\n      add\n        /* \"#utility.yul\":8768:8794   */\n      swap1\n      pop\n        /* \"#utility.yul\":8840:8849   */\n      dup2\n        /* \"#utility.yul\":8834:8838   */\n      dup2\n        /* \"#utility.yul\":8830:8850   */\n      sub\n        /* \"#utility.yul\":8826:8827   */\n      0x00\n        /* \"#utility.yul\":8815:8824   */\n      dup4\n        /* \"#utility.yul\":8811:8828   */\n      add\n        /* \"#utility.yul\":8804:8851   */\n      mstore\n        /* \"#utility.yul\":8868:8976   */\n      tag_553\n        /* \"#utility.yul\":8971:8975   */\n      dup2\n        /* \"#utility.yul\":8962:8968   */\n      dup5\n        /* \"#utility.yul\":8868:8976   */\n      tag_442\n      jump\t// in\n    tag_553:\n        /* \"#utility.yul\":8860:8976   */\n      swap1\n      pop\n        /* \"#utility.yul\":8610:8983   */\n      swap3\n      swap2\n      pop\n      pop\n      jump\t// out\n        /* \"#utility.yul\":8989:9111   */\n    tag_443:\n        /* \"#utility.yul\":9062:9086   */\n      tag_555\n        /* \"#utility.yul\":9080:9085   */\n      dup2\n        /* \"#utility.yul\":9062:9086   */\n      tag_427\n      jump\t// in\n    tag_555:\n        /* \"#utility.yul\":9055:9060   */\n      dup2\n        /* \"#utility.yul\":9052:9087   */\n      eq\n        /* \"#utility.yul\":9042:9105   */\n      tag_556\n      jumpi\n        /* \"#utility.yul\":9101:9102   */\n      0x00\n        /* \"#utility.yul\":9098:9099   */\n      dup1\n        /* \"#utility.yul\":9091:9103   */\n      revert\n        /* \"#utility.yul\":9042:9105   */\n    tag_556:\n        /* \"#utility.yul\":8989:9111   */\n      pop\n      jump\t// out\n        /* \"#utility.yul\":9117:9256   */\n    tag_444:\n        /* \"#utility.yul\":9163:9168   */\n      0x00\n        /* \"#utility.yul\":9201:9207   */\n      dup2\n        /* \"#utility.yul\":9188:9208   */\n      calldataload\n        /* \"#utility.yul\":9179:9208   */\n      swap1\n      pop\n        /* \"#utility.yul\":9217:9250   */\n      tag_558\n        /* \"#utility.yul\":9244:9249   */\n      dup2\n        /* \"#utility.yul\":9217:9250   */\n      tag_443\n      jump\t// in\n    tag_558:\n        /* \"#utility.yul\":9117:9256   */\n      swap3\n      swap2\n      pop\n      pop\n      jump\t// out\n        /* \"#utility.yul\":9262:9591   */\n    tag_62:\n        /* \"#utility.yul\":9321:9327   */\n      0x00\n        /* \"#utility.yul\":9370:9372   */\n      0x20\n        /* \"#utility.yul\":9358:9367   */\n      dup3\n        /* \"#utility.yul\":9349:9356   */\n      dup5\n        /* \"#utility.yul\":9345:9368   */\n      sub\n        /* \"#utility.yul\":9341:9373   */\n      slt\n        /* \"#utility.yul\":9338:9457   */\n      iszero\n      tag_560\n      jumpi\n        /* \"#utility.yul\":9376:9455   */\n      tag_561\n      tag_414\n      jump\t// in\n    tag_561:\n        /* \"#utility.yul\":9338:9457   */\n    tag_560:\n        /* \"#utility.yul\":9496:9497   */\n      0x00\n        /* \"#utility.yul\":9521:9574   */\n      tag_562\n        /* \"#utility.yul\":9566:9573   */\n      dup5\n        /* \"#utility.yul\":9557:9563   */\n      dup3\n        /* \"#utility.yul\":9546:9555   */\n      dup6\n        /* \"#utility.yul\":9542:9564   */\n      add\n        /* \"#utility.yul\":9521:9574   */\n      tag_444\n      jump\t// in\n    tag_562:\n        /* \"#utility.yul\":9511:9574   */\n      swap2\n      pop\n        /* \"#utility.yul\":9467:9584   */\n      pop\n        /* \"#utility.yul\":9262:9591   */\n      swap3\n      swap2\n      pop\n      pop\n      jump\t// out\n        /* \"#utility.yul\":9691:10615   */\n    tag_445:\n        /* \"#utility.yul\":9844:9848   */\n      0xc0\n        /* \"#utility.yul\":9839:9842   */\n      dup3\n        /* \"#utility.yul\":9835:9849   */\n      add\n        /* \"#utility.yul\":9942:9946   */\n      0x00\n        /* \"#utility.yul\":9935:9940   */\n      dup3\n        /* \"#utility.yul\":9931:9947   */\n      add\n        /* \"#utility.yul\":9925:9948   */\n      mload\n        /* \"#utility.yul\":9961:10024   */\n      tag_564\n        /* \"#utility.yul\":10018:10022   */\n      0x00\n        /* \"#utility.yul\":10013:10016   */\n      dup6\n        /* \"#utility.yul\":10009:10023   */\n      add\n        /* \"#utility.yul\":9995:10007   */\n      dup3\n        /* \"#utility.yul\":9961:10024   */\n      tag_426\n      jump\t// in\n    tag_564:\n        /* \"#utility.yul\":9859:10034   */\n      pop\n        /* \"#utility.yul\":10119:10123   */\n      0x20\n        /* \"#utility.yul\":10112:10117   */\n      dup3\n        /* \"#utility.yul\":10108:10124   */\n      add\n        /* \"#utility.yul\":10102:10125   */\n      mload\n        /* \"#utility.yul\":10138:10201   */\n      tag_565\n        /* \"#utility.yul\":10195:10199   */\n      0x20\n        /* \"#utility.yul\":10190:10193   */\n      dup6\n        /* \"#utility.yul\":10186:10200   */\n      add\n        /* \"#utility.yul\":10172:10184   */\n      dup3\n        /* \"#utility.yul\":10138:10201   */\n      tag_428\n      jump\t// in\n    tag_565:\n        /* \"#utility.yul\":10044:10211   */\n      pop\n        /* \"#utility.yul\":10296:10300   */\n      0x40\n        /* \"#utility.yul\":10289:10294   */\n      dup3\n        /* \"#utility.yul\":10285:10301   */\n      add\n        /* \"#utility.yul\":10279:10302   */\n      mload\n        /* \"#utility.yul\":10315:10428   */\n      tag_566\n        /* \"#utility.yul\":10422:10426   */\n      0x40\n        /* \"#utility.yul\":10417:10420   */\n      dup6\n        /* \"#utility.yul\":10413:10427   */\n      add\n        /* \"#utility.yul\":10399:10411   */\n      dup3\n        /* \"#utility.yul\":10315:10428   */\n      tag_429\n      jump\t// in\n    tag_566:\n        /* \"#utility.yul\":10221:10438   */\n      pop\n        /* \"#utility.yul\":10522:10526   */\n      0x60\n        /* \"#utility.yul\":10515:10520   */\n      dup3\n        /* \"#utility.yul\":10511:10527   */\n      add\n        /* \"#utility.yul\":10505:10528   */\n      mload\n        /* \"#utility.yul\":10541:10598   */\n      tag_567\n        /* \"#utility.yul\":10592:10596   */\n      0xa0\n        /* \"#utility.yul\":10587:10590   */\n      dup6\n        /* \"#utility.yul\":10583:10597   */\n      add\n        /* \"#utility.yul\":10569:10581   */\n      dup3\n        /* \"#utility.yul\":10541:10598   */\n      tag_430\n      jump\t// in\n    tag_567:\n        /* \"#utility.yul\":10448:10608   */\n      pop\n        /* \"#utility.yul\":9813:10615   */\n      pop\n        /* \"#utility.yul\":9691:10615   */\n      pop\n      pop\n      jump\t// out\n        /* \"#utility.yul\":10621:10956   */\n    tag_65:\n        /* \"#utility.yul\":10770:10774   */\n      0x00\n        /* \"#utility.yul\":10808:10811   */\n      0xc0\n        /* \"#utility.yul\":10797:10806   */\n      dup3\n        /* \"#utility.yul\":10793:10812   */\n      add\n        /* \"#utility.yul\":10785:10812   */\n      swap1\n      pop\n        /* \"#utility.yul\":10822:10949   */\n      tag_569\n        /* \"#utility.yul\":10946:10947   */\n      0x00\n        /* \"#utility.yul\":10935:10944   */\n      dup4\n        /* \"#utility.yul\":10931:10948   */\n      add\n        /* \"#utility.yul\":10922:10928   */\n      dup5\n        /* \"#utility.yul\":10822:10949   */\n      tag_445\n      jump\t// in\n    tag_569:\n        /* \"#utility.yul\":10621:10956   */\n      swap3\n      swap2\n      pop\n      pop\n      jump\t// out\n        /* \"#utility.yul\":10962:11436   */\n    tag_76:\n        /* \"#utility.yul\":11030:11036   */\n      0x00\n        /* \"#utility.yul\":11038:11044   */\n      dup1\n        /* \"#utility.yul\":11087:11089   */\n      0x40\n        /* \"#utility.yul\":11075:11084   */\n      dup4\n        /* \"#utility.yul\":11066:11073   */\n      dup6\n        /* \"#utility.yul\":11062:11085   */\n      sub\n        /* \"#utility.yul\":11058:11090   */\n      slt\n        /* \"#utility.yul\":11055:11174   */\n      iszero\n      tag_571\n      jumpi\n        /* \"#utility.yul\":11093:11172   */\n      tag_572\n      tag_414\n      jump\t// in\n    tag_572:\n        /* \"#utility.yul\":11055:11174   */\n    tag_571:\n        /* \"#utility.yul\":11213:11214   */\n      0x00\n        /* \"#utility.yul\":11238:11291   */\n      tag_573\n        /* \"#utility.yul\":11283:11290   */\n      dup6\n        /* \"#utility.yul\":11274:11280   */\n      dup3\n        /* \"#utility.yul\":11263:11272   */\n      dup7\n        /* \"#utility.yul\":11259:11281   */\n      add\n        /* \"#utility.yul\":11238:11291   */\n      tag_436\n      jump\t// in\n    tag_573:\n        /* \"#utility.yul\":11228:11291   */\n      swap3\n      pop\n        /* \"#utility.yul\":11184:11301   */\n      pop\n        /* \"#utility.yul\":11340:11342   */\n      0x20\n        /* \"#utility.yul\":11366:11419   */\n      tag_574\n        /* \"#utility.yul\":11411:11418   */\n      dup6\n        /* \"#utility.yul\":11402:11408   */\n      dup3\n        /* \"#utility.yul\":11391:11400   */\n      dup7\n        /* \"#utility.yul\":11387:11409   */\n      add\n        /* \"#utility.yul\":11366:11419   */\n      tag_444\n      jump\t// in\n    tag_574:\n        /* \"#utility.yul\":11356:11419   */\n      swap2\n      pop\n        /* \"#utility.yul\":11311:11429   */\n      pop\n        /* \"#utility.yul\":10962:11436   */\n      swap3\n      pop\n      swap3\n      swap1\n      pop\n      jump\t// out\n        /* \"#utility.yul\":11530:12219   */\n    tag_446:\n        /* \"#utility.yul\":11677:11681   */\n      0x60\n        /* \"#utility.yul\":11672:11675   */\n      dup3\n        /* \"#utility.yul\":11668:11682   */\n      add\n        /* \"#utility.yul\":11765:11769   */\n      0x00\n        /* \"#utility.yul\":11758:11763   */\n      dup3\n        /* \"#utility.yul\":11754:11770   */\n      add\n        /* \"#utility.yul\":11748:11771   */\n      mload\n        /* \"#utility.yul\":11784:11847   */\n      tag_576\n        /* \"#utility.yul\":11841:11845   */\n      0x00\n        /* \"#utility.yul\":11836:11839   */\n      dup6\n        /* \"#utility.yul\":11832:11846   */\n      add\n        /* \"#utility.yul\":11818:11830   */\n      dup3\n        /* \"#utility.yul\":11784:11847   */\n      tag_428\n      jump\t// in\n    tag_576:\n        /* \"#utility.yul\":11692:11857   */\n      pop\n        /* \"#utility.yul\":11941:11945   */\n      0x20\n        /* \"#utility.yul\":11934:11939   */\n      dup3\n        /* \"#utility.yul\":11930:11946   */\n      add\n        /* \"#utility.yul\":11924:11947   */\n      mload\n        /* \"#utility.yul\":11960:12023   */\n      tag_577\n        /* \"#utility.yul\":12017:12021   */\n      0x20\n        /* \"#utility.yul\":12012:12015   */\n      dup6\n        /* \"#utility.yul\":12008:12022   */\n      add\n        /* \"#utility.yul\":11994:12006   */\n      dup3\n        /* \"#utility.yul\":11960:12023   */\n      tag_426\n      jump\t// in\n    tag_577:\n        /* \"#utility.yul\":11867:12033   */\n      pop\n        /* \"#utility.yul\":12120:12124   */\n      0x40\n        /* \"#utility.yul\":12113:12118   */\n      dup3\n        /* \"#utility.yul\":12109:12125   */\n      add\n        /* \"#utility.yul\":12103:12126   */\n      mload\n        /* \"#utility.yul\":12139:12202   */\n      tag_578\n        /* \"#utility.yul\":12196:12200   */\n      0x40\n        /* \"#utility.yul\":12191:12194   */\n      dup6\n        /* \"#utility.yul\":12187:12201   */\n      add\n        /* \"#utility.yul\":12173:12185   */\n      dup3\n        /* \"#utility.yul\":12139:12202   */\n      tag_428\n      jump\t// in\n    tag_578:\n        /* \"#utility.yul\":12043:12212   */\n      pop\n        /* \"#utility.yul\":11646:12219   */\n      pop\n        /* \"#utility.yul\":11530:12219   */\n      pop\n      pop\n      jump\t// out\n        /* \"#utility.yul\":12225:12547   */\n    tag_79:\n        /* \"#utility.yul\":12368:12372   */\n      0x00\n        /* \"#utility.yul\":12406:12408   */\n      0x60\n        /* \"#utility.yul\":12395:12404   */\n      dup3\n        /* \"#utility.yul\":12391:12409   */\n      add\n        /* \"#utility.yul\":12383:12409   */\n      swap1\n      pop\n        /* \"#utility.yul\":12419:12540   */\n      tag_580\n        /* \"#utility.yul\":12537:12538   */\n      0x00\n        /* \"#utility.yul\":12526:12535   */\n      dup4\n        /* \"#utility.yul\":12522:12539   */\n      add\n        /* \"#utility.yul\":12513:12519   */\n      dup5\n        /* \"#utility.yul\":12419:12540   */\n      tag_446\n      jump\t// in\n    tag_580:\n        /* \"#utility.yul\":12225:12547   */\n      swap3\n      swap2\n      pop\n      pop\n      jump\t// out\n        /* \"#utility.yul\":12553:13172   */\n    tag_83:\n        /* \"#utility.yul\":12630:12636   */\n      0x00\n        /* \"#utility.yul\":12638:12644   */\n      dup1\n        /* \"#utility.yul\":12646:12652   */\n      0x00\n        /* \"#utility.yul\":12695:12697   */\n      0x60\n        /* \"#utility.yul\":12683:12692   */\n      dup5\n        /* \"#utility.yul\":12674:12681   */\n      dup7\n        /* \"#utility.yul\":12670:12693   */\n      sub\n        /* \"#utility.yul\":12666:12698   */\n      slt\n        /* \"#utility.yul\":12663:12782   */\n      iszero\n      tag_582\n      jumpi\n        /* \"#utility.yul\":12701:12780   */\n      tag_583\n      tag_414\n      jump\t// in\n    tag_583:\n        /* \"#utility.yul\":12663:12782   */\n    tag_582:\n        /* \"#utility.yul\":12821:12822   */\n      0x00\n        /* \"#utility.yul\":12846:12899   */\n      tag_584\n        /* \"#utility.yul\":12891:12898   */\n      dup7\n        /* \"#utility.yul\":12882:12888   */\n      dup3\n        /* \"#utility.yul\":12871:12880   */\n      dup8\n        /* \"#utility.yul\":12867:12889   */\n      add\n        /* \"#utility.yul\":12846:12899   */\n      tag_436\n      jump\t// in\n    tag_584:\n        /* \"#utility.yul\":12836:12899   */\n      swap4\n      pop\n        /* \"#utility.yul\":12792:12909   */\n      pop\n        /* \"#utility.yul\":12948:12950   */\n      0x20\n        /* \"#utility.yul\":12974:13027   */\n      tag_585\n        /* \"#utility.yul\":13019:13026   */\n      dup7\n        /* \"#utility.yul\":13010:13016   */\n      dup3\n        /* \"#utility.yul\":12999:13008   */\n      dup8\n        /* \"#utility.yul\":12995:13017   */\n      add\n        /* \"#utility.yul\":12974:13027   */\n      tag_444\n      jump\t// in\n    tag_585:\n        /* \"#utility.yul\":12964:13027   */\n      swap3\n      pop\n        /* \"#utility.yul\":12919:13037   */\n      pop\n        /* \"#utility.yul\":13076:13078   */\n      0x40\n        /* \"#utility.yul\":13102:13155   */\n      tag_586\n        /* \"#utility.yul\":13147:13154   */\n      dup7\n        /* \"#utility.yul\":13138:13144   */\n      dup3\n        /* \"#utility.yul\":13127:13136   */\n      dup8\n        /* \"#utility.yul\":13123:13145   */\n      add\n        /* \"#utility.yul\":13102:13155   */\n      tag_444\n      jump\t// in\n    tag_586:\n        /* \"#utility.yul\":13092:13155   */\n      swap2\n      pop\n        /* \"#utility.yul\":13047:13165   */\n      pop\n        /* \"#utility.yul\":12553:13172   */\n      swap3\n      pop\n      swap3\n      pop\n      swap3\n      jump\t// out\n        /* \"#utility.yul\":13178:13296   */\n    tag_447:\n        /* \"#utility.yul\":13265:13289   */\n      tag_588\n        /* \"#utility.yul\":13283:13288   */\n      dup2\n        /* \"#utility.yul\":13265:13289   */\n      tag_425\n      jump\t// in\n    tag_588:\n        /* \"#utility.yul\":13260:13263   */\n      dup3\n        /* \"#utility.yul\":13253:13290   */\n      mstore\n        /* \"#utility.yul\":13178:13296   */\n      pop\n      pop\n      jump\t// out\n        /* \"#utility.yul\":13302:13524   */\n    tag_89:\n        /* \"#utility.yul\":13395:13399   */\n      0x00\n        /* \"#utility.yul\":13433:13435   */\n      0x20\n        /* \"#utility.yul\":13422:13431   */\n      dup3\n        /* \"#utility.yul\":13418:13436   */\n      add\n        /* \"#utility.yul\":13410:13436   */\n      swap1\n      pop\n        /* \"#utility.yul\":13446:13517   */\n      tag_590\n        /* \"#utility.yul\":13514:13515   */\n      0x00\n        /* \"#utility.yul\":13503:13512   */\n      dup4\n        /* \"#utility.yul\":13499:13516   */\n      add\n        /* \"#utility.yul\":13490:13496   */\n      dup5\n        /* \"#utility.yul\":13446:13517   */\n      tag_447\n      jump\t// in\n    tag_590:\n        /* \"#utility.yul\":13302:13524   */\n      swap3\n      swap2\n      pop\n      pop\n      jump\t// out\n        /* \"#utility.yul\":13530:13710   */\n    tag_122:\n        /* \"#utility.yul\":13578:13655   */\n      0x4e487b7100000000000000000000000000000000000000000000000000000000\n        /* \"#utility.yul\":13575:13576   */\n      0x00\n        /* \"#utility.yul\":13568:13656   */\n      mstore\n        /* \"#utility.yul\":13675:13679   */\n      0x41\n        /* \"#utility.yul\":13672:13673   */\n      0x04\n        /* \"#utility.yul\":13665:13680   */\n      mstore\n        /* \"#utility.yul\":13699:13703   */\n      0x24\n        /* \"#utility.yul\":13696:13697   */\n      0x00\n        /* \"#utility.yul\":13689:13704   */\n      revert\n        /* \"#utility.yul\":13716:13896   */\n    tag_135:\n        /* \"#utility.yul\":13764:13841   */\n      0x4e487b7100000000000000000000000000000000000000000000000000000000\n        /* \"#utility.yul\":13761:13762   */\n      0x00\n        /* \"#utility.yul\":13754:13842   */\n      mstore\n        /* \"#utility.yul\":13861:13865   */\n      0x32\n        /* \"#utility.yul\":13858:13859   */\n      0x04\n        /* \"#utility.yul\":13851:13866   */\n      mstore\n        /* \"#utility.yul\":13885:13889   */\n      0x24\n        /* \"#utility.yul\":13882:13883   */\n      0x00\n        /* \"#utility.yul\":13875:13890   */\n      revert\n        /* \"#utility.yul\":13902:14082   */\n    tag_448:\n        /* \"#utility.yul\":13950:14027   */\n      0x4e487b7100000000000000000000000000000000000000000000000000000000\n        /* \"#utility.yul\":13947:13948   */\n      0x00\n        /* \"#utility.yul\":13940:14028   */\n      mstore\n        /* \"#utility.yul\":14047:14051   */\n      0x11\n        /* \"#utility.yul\":14044:14045   */\n      0x04\n        /* \"#utility.yul\":14037:14052   */\n      mstore\n        /* \"#utility.yul\":14071:14075   */\n      0x24\n        /* \"#utility.yul\":14068:14069   */\n      0x00\n        /* \"#utility.yul\":14061:14076   */\n      revert\n        /* \"#utility.yul\":14088:14279   */\n    tag_137:\n        /* \"#utility.yul\":14128:14131   */\n      0x00\n        /* \"#utility.yul\":14147:14167   */\n      tag_595\n        /* \"#utility.yul\":14165:14166   */\n      dup3\n        /* \"#utility.yul\":14147:14167   */\n      tag_427\n      jump\t// in\n    tag_595:\n        /* \"#utility.yul\":14142:14167   */\n      swap2\n      pop\n        /* \"#utility.yul\":14181:14201   */\n      tag_596\n        /* \"#utility.yul\":14199:14200   */\n      dup4\n        /* \"#utility.yul\":14181:14201   */\n      tag_427\n      jump\t// in\n    tag_596:\n        /* \"#utility.yul\":14176:14201   */\n      swap3\n      pop\n        /* \"#utility.yul\":14224:14225   */\n      dup3\n        /* \"#utility.yul\":14221:14222   */\n      dup3\n        /* \"#utility.yul\":14217:14226   */\n      add\n        /* \"#utility.yul\":14210:14226   */\n      swap1\n      pop\n        /* \"#utility.yul\":14245:14248   */\n      dup1\n        /* \"#utility.yul\":14242:14243   */\n      dup3\n        /* \"#utility.yul\":14239:14249   */\n      gt\n        /* \"#utility.yul\":14236:14272   */\n      iszero\n      tag_597\n      jumpi\n        /* \"#utility.yul\":14252:14270   */\n      tag_598\n      tag_448\n      jump\t// in\n    tag_598:\n        /* \"#utility.yul\":14236:14272   */\n    tag_597:\n        /* \"#utility.yul\":14088:14279   */\n      swap3\n      swap2\n      pop\n      pop\n      jump\t// out\n        /* \"#utility.yul\":14285:14518   */\n    tag_139:\n        /* \"#utility.yul\":14324:14327   */\n      0x00\n        /* \"#utility.yul\":14347:14371   */\n      tag_600\n        /* \"#utility.yul\":14365:14370   */\n      dup3\n        /* \"#utility.yul\":14347:14371   */\n      tag_427\n      jump\t// in\n    tag_600:\n        /* \"#utility.yul\":14338:14371   */\n      swap2\n      pop\n        /* \"#utility.yul\":14393:14459   */\n      0xffffffffffffffffffffffffffffffffffffffffffffffffffffffffffffffff\n        /* \"#utility.yul\":14386:14391   */\n      dup3\n        /* \"#utility.yul\":14383:14460   */\n      sub\n        /* \"#utility.yul\":14380:14483   */\n      tag_601\n      jumpi\n        /* \"#utility.yul\":14463:14481   */\n      tag_602\n      tag_448\n      jump\t// in\n    tag_602:\n        /* \"#utility.yul\":14380:14483   */\n    tag_601:\n        /* \"#utility.yul\":14510:14511   */\n      0x01\n        /* \"#utility.yul\":14503:14508   */\n      dup3\n        /* \"#utility.yul\":14499:14512   */\n      add\n        /* \"#utility.yul\":14492:14512   */\n      swap1\n      pop\n        /* \"#utility.yul\":14285:14518   */\n      swap2\n      swap1\n      pop\n      jump\t// out\n        /* \"#utility.yul\":14524:14718   */\n    tag_148:\n        /* \"#utility.yul\":14564:14568   */\n      0x00\n        /* \"#utility.yul\":14584:14604   */\n      tag_604\n        /* \"#utility.yul\":14602:14603   */\n      dup3\n        /* \"#utility.yul\":14584:14604   */\n      tag_427\n      jump\t// in\n    tag_604:\n        /* \"#utility.yul\":14579:14604   */\n      swap2\n      pop\n        /* \"#utility.yul\":14618:14638   */\n      tag_605\n        /* \"#utility.yul\":14636:14637   */\n      dup4\n        /* \"#utility.yul\":14618:14638   */\n      tag_427\n      jump\t// in\n    tag_605:\n        /* \"#utility.yul\":14613:14638   */\n      swap3\n      pop\n        /* \"#utility.yul\":14662:14663   */\n      dup3\n        /* \"#utility.yul\":14659:14660   */\n      dup3\n        /* \"#utility.yul\":14655:14664   */\n      sub\n        /* \"#utility.yul\":14647:14664   */\n      swap1\n      pop\n        /* \"#utility.yul\":14686:14687   */\n      dup2\n        /* \"#utility.yul\":14680:14684   */\n      dup2\n        /* \"#utility.yul\":14677:14688   */\n      gt\n        /* \"#utility.yul\":14674:14711   */\n      iszero\n      tag_606\n      jumpi\n        /* \"#utility.yul\":14691:14709   */\n      tag_607\n      tag_448\n      jump\t// in\n    tag_607:\n        /* \"#utility.yul\":14674:14711   */\n    tag_606:\n        /* \"#utility.yul\":14524:14718   */\n      swap3\n      swap2\n      pop\n      pop\n      jump\t// out\n        /* \"#utility.yul\":14724:14842   */\n    tag_449:\n        /* \"#utility.yul\":14811:14835   */\n      tag_609\n        /* \"#utility.yul\":14829:14834   */\n      dup2\n        /* \"#utility.yul\":14811:14835   */\n      tag_427\n      jump\t// in\n    tag_609:\n        /* \"#utility.yul\":14806:14809   */\n      dup3\n        /* \"#utility.yul\":14799:14836   */\n      mstore\n        /* \"#utility.yul\":14724:14842   */\n      pop\n      pop\n      jump\t// out\n        /* \"#utility.yul\":14848:15180   */\n    tag_210:\n        /* \"#utility.yul\":14969:14973   */\n      0x00\n        /* \"#utility.yul\":15007:15009   */\n      0x40\n        /* \"#utility.yul\":14996:15005   */\n      dup3\n        /* \"#utility.yul\":14992:15010   */\n      add\n        /* \"#utility.yul\":14984:15010   */\n      swap1\n      pop\n        /* \"#utility.yul\":15020:15091   */\n      tag_611\n        /* \"#utility.yul\":15088:15089   */\n      0x00\n        /* \"#utility.yul\":15077:15086   */\n      dup4\n        /* \"#utility.yul\":15073:15090   */\n      add\n        /* \"#utility.yul\":15064:15070   */\n      dup6\n        /* \"#utility.yul\":15020:15091   */\n      tag_447\n      jump\t// in\n    tag_611:\n        /* \"#utility.yul\":15101:15173   */\n      tag_612\n        /* \"#utility.yul\":15169:15171   */\n      0x20\n        /* \"#utility.yul\":15158:15167   */\n      dup4\n        /* \"#utility.yul\":15154:15172   */\n      add\n        /* \"#utility.yul\":15145:15151   */\n      dup5\n        /* \"#utility.yul\":15101:15173   */\n      tag_449\n      jump\t// in\n    tag_612:\n        /* \"#utility.yul\":14848:15180   */\n      swap4\n      swap3\n      pop\n      pop\n      pop\n      jump\t// out\n        /* \"#utility.yul\":15186:15408   */\n    tag_213:\n        /* \"#utility.yul\":15279:15283   */\n      0x00\n        /* \"#utility.yul\":15317:15319   */\n      0x20\n        /* \"#utility.yul\":15306:15315   */\n      dup3\n        /* \"#utility.yul\":15302:15320   */\n      add\n        /* \"#utility.yul\":15294:15320   */\n      swap1\n      pop\n        /* \"#utility.yul\":15330:15401   */\n      tag_614\n        /* \"#utility.yul\":15398:15399   */\n      0x00\n        /* \"#utility.yul\":15387:15396   */\n      dup4\n        /* \"#utility.yul\":15383:15400   */\n      add\n        /* \"#utility.yul\":15374:15380   */\n      dup5\n        /* \"#utility.yul\":15330:15401   */\n      tag_449\n      jump\t// in\n    tag_614:\n        /* \"#utility.yul\":15186:15408   */\n      swap3\n      swap2\n      pop\n      pop\n      jump\t// out\n        /* \"#utility.yul\":15414:15557   */\n    tag_450:\n        /* \"#utility.yul\":15471:15476   */\n      0x00\n        /* \"#utility.yul\":15502:15508   */\n      dup2\n        /* \"#utility.yul\":15496:15509   */\n      mload\n        /* \"#utility.yul\":15487:15509   */\n      swap1\n      pop\n        /* \"#utility.yul\":15518:15551   */\n      tag_616\n        /* \"#utility.yul\":15545:15550   */\n      dup2\n        /* \"#utility.yul\":15518:15551   */\n      tag_435\n      jump\t// in\n    tag_616:\n        /* \"#utility.yul\":15414:15557   */\n      swap3\n      swap2\n      pop\n      pop\n      jump\t// out\n        /* \"#utility.yul\":15563:15914   */\n    tag_217:\n        /* \"#utility.yul\":15633:15639   */\n      0x00\n        /* \"#utility.yul\":15682:15684   */\n      0x20\n        /* \"#utility.yul\":15670:15679   */\n      dup3\n        /* \"#utility.yul\":15661:15668   */\n      dup5\n        /* \"#utility.yul\":15657:15680   */\n      sub\n        /* \"#utility.yul\":15653:15685   */\n      slt\n        /* \"#utility.yul\":15650:15769   */\n      iszero\n      tag_618\n      jumpi\n        /* \"#utility.yul\":15688:15767   */\n      tag_619\n      tag_414\n      jump\t// in\n    tag_619:\n        /* \"#utility.yul\":15650:15769   */\n    tag_618:\n        /* \"#utility.yul\":15808:15809   */\n      0x00\n        /* \"#utility.yul\":15833:15897   */\n      tag_620\n        /* \"#utility.yul\":15889:15896   */\n      dup5\n        /* \"#utility.yul\":15880:15886   */\n      dup3\n        /* \"#utility.yul\":15869:15878   */\n      dup6\n        /* \"#utility.yul\":15865:15887   */\n      add\n        /* \"#utility.yul\":15833:15897   */\n      tag_450\n      jump\t// in\n    tag_620:\n        /* \"#utility.yul\":15823:15897   */\n      swap2\n      pop\n        /* \"#utility.yul\":15779:15907   */\n      pop\n        /* \"#utility.yul\":15563:15914   */\n      swap3\n      swap2\n      pop\n      pop\n      jump\t// out\n        /* \"#utility.yul\":15920:16252   */\n    tag_233:\n        /* \"#utility.yul\":16041:16045   */\n      0x00\n        /* \"#utility.yul\":16079:16081   */\n      0x40\n        /* \"#utility.yul\":16068:16077   */\n      dup3\n        /* \"#utility.yul\":16064:16082   */\n      add\n        /* \"#utility.yul\":16056:16082   */\n      swap1\n      pop\n        /* \"#utility.yul\":16092:16163   */\n      tag_622\n        /* \"#utility.yul\":16160:16161   */\n      0x00\n        /* \"#utility.yul\":16149:16158   */\n      dup4\n        /* \"#utility.yul\":16145:16162   */\n      add\n        /* \"#utility.yul\":16136:16142   */\n      dup6\n        /* \"#utility.yul\":16092:16163   */\n      tag_449\n      jump\t// in\n    tag_622:\n        /* \"#utility.yul\":16173:16245   */\n      tag_623\n        /* \"#utility.yul\":16241:16243   */\n      0x20\n        /* \"#utility.yul\":16230:16239   */\n      dup4\n        /* \"#utility.yul\":16226:16244   */\n      add\n        /* \"#utility.yul\":16217:16223   */\n      dup5\n        /* \"#utility.yul\":16173:16245   */\n      tag_449\n      jump\t// in\n    tag_623:\n        /* \"#utility.yul\":15920:16252   */\n      swap4\n      swap3\n      pop\n      pop\n      pop\n      jump\t// out\n        /* \"#utility.yul\":16258:16700   */\n    tag_244:\n        /* \"#utility.yul\":16407:16411   */\n      0x00\n        /* \"#utility.yul\":16445:16447   */\n      0x60\n        /* \"#utility.yul\":16434:16443   */\n      dup3\n        /* \"#utility.yul\":16430:16448   */\n      add\n        /* \"#utility.yul\":16422:16448   */\n      swap1\n      pop\n        /* \"#utility.yul\":16458:16529   */\n      tag_625\n        /* \"#utility.yul\":16526:16527   */\n      0x00\n        /* \"#utility.yul\":16515:16524   */\n      dup4\n        /* \"#utility.yul\":16511:16528   */\n      add\n        /* \"#utility.yul\":16502:16508   */\n      dup7\n        /* \"#utility.yul\":16458:16529   */\n      tag_447\n      jump\t// in\n    tag_625:\n        /* \"#utility.yul\":16539:16611   */\n      tag_626\n        /* \"#utility.yul\":16607:16609   */\n      0x20\n        /* \"#utility.yul\":16596:16605   */\n      dup4\n        /* \"#utility.yul\":16592:16610   */\n      add\n        /* \"#utility.yul\":16583:16589   */\n      dup6\n        /* \"#utility.yul\":16539:16611   */\n      tag_449\n      jump\t// in\n    tag_626:\n        /* \"#utility.yul\":16621:16693   */\n      tag_627\n        /* \"#utility.yul\":16689:16691   */\n      0x40\n        /* \"#utility.yul\":16678:16687   */\n      dup4\n        /* \"#utility.yul\":16674:16692   */\n      add\n        /* \"#utility.yul\":16665:16671   */\n      dup5\n        /* \"#utility.yul\":16621:16693   */\n      tag_449\n      jump\t// in\n    tag_627:\n        /* \"#utility.yul\":16258:16700   */\n      swap5\n      swap4\n      pop\n      pop\n      pop\n      pop\n      jump\t// out\n        /* \"#utility.yul\":16706:16886   */\n    tag_451:\n        /* \"#utility.yul\":16754:16831   */\n      0x4e487b7100000000000000000000000000000000000000000000000000000000\n        /* \"#utility.yul\":16751:16752   */\n      0x00\n        /* \"#utility.yul\":16744:16832   */\n      mstore\n        /* \"#utility.yul\":16851:16855   */\n      0x12\n        /* \"#utility.yul\":16848:16849   */\n      0x04\n        /* \"#utility.yul\":16841:16856   */\n      mstore\n        /* \"#utility.yul\":16875:16879   */\n      0x24\n        /* \"#utility.yul\":16872:16873   */\n      0x00\n        /* \"#utility.yul\":16865:16880   */\n      revert\n        /* \"#utility.yul\":16892:17077   */\n    tag_246:\n        /* \"#utility.yul\":16932:16933   */\n      0x00\n        /* \"#utility.yul\":16949:16969   */\n      tag_630\n        /* \"#utility.yul\":16967:16968   */\n      dup3\n        /* \"#utility.yul\":16949:16969   */\n      tag_427\n      jump\t// in\n    tag_630:\n        /* \"#utility.yul\":16944:16969   */\n      swap2\n      pop\n        /* \"#utility.yul\":16983:17003   */\n      tag_631\n        /* \"#utility.yul\":17001:17002   */\n      dup4\n        /* \"#utility.yul\":16983:17003   */\n      tag_427\n      jump\t// in\n    tag_631:\n        /* \"#utility.yul\":16978:17003   */\n      swap3\n      pop\n        /* \"#utility.yul\":17022:17023   */\n      dup3\n        /* \"#utility.yul\":17012:17047   */\n      tag_632\n      jumpi\n        /* \"#utility.yul\":17027:17045   */\n      tag_633\n      tag_451\n      jump\t// in\n    tag_633:\n        /* \"#utility.yul\":17012:17047   */\n    tag_632:\n        /* \"#utility.yul\":17069:17070   */\n      dup3\n        /* \"#utility.yul\":17066:17067   */\n      dup3\n        /* \"#utility.yul\":17062:17071   */\n      div\n        /* \"#utility.yul\":17057:17071   */\n      swap1\n      pop\n        /* \"#utility.yul\":16892:17077   */\n      swap3\n      swap2\n      pop\n      pop\n      jump\t// out\n        /* \"#utility.yul\":17083:17493   */\n    tag_251:\n        /* \"#utility.yul\":17123:17130   */\n      0x00\n        /* \"#utility.yul\":17146:17166   */\n      tag_635\n        /* \"#utility.yul\":17164:17165   */\n      dup3\n        /* \"#utility.yul\":17146:17166   */\n      tag_427\n      jump\t// in\n    tag_635:\n        /* \"#utility.yul\":17141:17166   */\n      swap2\n      pop\n        /* \"#utility.yul\":17180:17200   */\n      tag_636\n        /* \"#utility.yul\":17198:17199   */\n      dup4\n        /* \"#utility.yul\":17180:17200   */\n      tag_427\n      jump\t// in\n    tag_636:\n        /* \"#utility.yul\":17175:17200   */\n      swap3\n      pop\n        /* \"#utility.yul\":17235:17236   */\n      dup3\n        /* \"#utility.yul\":17232:17233   */\n      dup3\n        /* \"#utility.yul\":17228:17237   */\n      mul\n        /* \"#utility.yul\":17257:17287   */\n      tag_637\n        /* \"#utility.yul\":17275:17286   */\n      dup2\n        /* \"#utility.yul\":17257:17287   */\n      tag_427\n      jump\t// in\n    tag_637:\n        /* \"#utility.yul\":17246:17287   */\n      swap2\n      pop\n        /* \"#utility.yul\":17436:17437   */\n      dup3\n        /* \"#utility.yul\":17427:17434   */\n      dup3\n        /* \"#utility.yul\":17423:17438   */\n      div\n        /* \"#utility.yul\":17420:17421   */\n      dup5\n        /* \"#utility.yul\":17417:17439   */\n      eq\n        /* \"#utility.yul\":17397:17398   */\n      dup4\n        /* \"#utility.yul\":17390:17399   */\n      iszero\n        /* \"#utility.yul\":17370:17453   */\n      or\n        /* \"#utility.yul\":17347:17486   */\n      tag_638\n      jumpi\n        /* \"#utility.yul\":17466:17484   */\n      tag_639\n      tag_448\n      jump\t// in\n    tag_639:\n        /* \"#utility.yul\":17347:17486   */\n    tag_638:\n        /* \"#utility.yul\":17131:17493   */\n      pop\n        /* \"#utility.yul\":17083:17493   */\n      swap3\n      swap2\n      pop\n      pop\n      jump\t// out\n        /* \"#utility.yul\":17499:17941   */\n    tag_255:\n        /* \"#utility.yul\":17648:17652   */\n      0x00\n        /* \"#utility.yul\":17686:17688   */\n      0x60\n        /* \"#utility.yul\":17675:17684   */\n      dup3\n        /* \"#utility.yul\":17671:17689   */\n      add\n        /* \"#utility.yul\":17663:17689   */\n      swap1\n      pop\n        /* \"#utility.yul\":17699:17770   */\n      tag_641\n        /* \"#utility.yul\":17767:17768   */\n      0x00\n        /* \"#utility.yul\":17756:17765   */\n      dup4\n        /* \"#utility.yul\":17752:17769   */\n      add\n        /* \"#utility.yul\":17743:17749   */\n      dup7\n        /* \"#utility.yul\":17699:17770   */\n      tag_447\n      jump\t// in\n    tag_641:\n        /* \"#utility.yul\":17780:17852   */\n      tag_642\n        /* \"#utility.yul\":17848:17850   */\n      0x20\n        /* \"#utility.yul\":17837:17846   */\n      dup4\n        /* \"#utility.yul\":17833:17851   */\n      add\n        /* \"#utility.yul\":17824:17830   */\n      dup6\n        /* \"#utility.yul\":17780:17852   */\n      tag_447\n      jump\t// in\n    tag_642:\n        /* \"#utility.yul\":17862:17934   */\n      tag_643\n        /* \"#utility.yul\":17930:17932   */\n      0x40\n        /* \"#utility.yul\":17919:17928   */\n      dup4\n        /* \"#utility.yul\":17915:17933   */\n      add\n        /* \"#utility.yul\":17906:17912   */\n      dup5\n        /* \"#utility.yul\":17862:17934   */\n      tag_449\n      jump\t// in\n    tag_643:\n        /* \"#utility.yul\":17499:17941   */\n      swap5\n      swap4\n      pop\n      pop\n      pop\n      pop\n      jump\t// out\n        /* \"#utility.yul\":17947:18116   */\n    tag_452:\n        /* \"#utility.yul\":18031:18042   */\n      0x00\n        /* \"#utility.yul\":18065:18071   */\n      dup3\n        /* \"#utility.yul\":18060:18063   */\n      dup3\n        /* \"#utility.yul\":18053:18072   */\n      mstore\n        /* \"#utility.yul\":18105:18109   */\n      0x20\n        /* \"#utility.yul\":18100:18103   */\n      dup3\n        /* \"#utility.yul\":18096:18110   */\n      add\n        /* \"#utility.yul\":18081:18110   */\n      swap1\n      pop\n        /* \"#utility.yul\":17947:18116   */\n      swap3\n      swap2\n      pop\n      pop\n      jump\t// out\n        /* \"#utility.yul\":18122:18355   */\n    tag_453:\n        /* \"#utility.yul\":18262:18296   */\n      0x496e697469616c697a61626c653a20636f6e747261637420697320616c726561\n        /* \"#utility.yul\":18258:18259   */\n      0x00\n        /* \"#utility.yul\":18250:18256   */\n      dup3\n        /* \"#utility.yul\":18246:18260   */\n      add\n        /* \"#utility.yul\":18239:18297   */\n      mstore\n        /* \"#utility.yul\":18331:18347   */\n      0x647920696e697469616c697a6564000000000000000000000000000000000000\n        /* \"#utility.yul\":18326:18328   */\n      0x20\n        /* \"#utility.yul\":18318:18324   */\n      dup3\n        /* \"#utility.yul\":18314:18329   */\n      add\n        /* \"#utility.yul\":18307:18348   */\n      mstore\n        /* \"#utility.yul\":18122:18355   */\n      pop\n      jump\t// out\n        /* \"#utility.yul\":18361:18727   */\n    tag_454:\n        /* \"#utility.yul\":18503:18506   */\n      0x00\n        /* \"#utility.yul\":18524:18591   */\n      tag_647\n        /* \"#utility.yul\":18588:18590   */\n      0x2e\n        /* \"#utility.yul\":18583:18586   */\n      dup4\n        /* \"#utility.yul\":18524:18591   */\n      tag_452\n      jump\t// in\n    tag_647:\n        /* \"#utility.yul\":18517:18591   */\n      swap2\n      pop\n        /* \"#utility.yul\":18600:18693   */\n      tag_648\n        /* \"#utility.yul\":18689:18692   */\n      dup3\n        /* \"#utility.yul\":18600:18693   */\n      tag_453\n      jump\t// in\n    tag_648:\n        /* \"#utility.yul\":18718:18720   */\n      0x40\n        /* \"#utility.yul\":18713:18716   */\n      dup3\n        /* \"#utility.yul\":18709:18721   */\n      add\n        /* \"#utility.yul\":18702:18721   */\n      swap1\n      pop\n        /* \"#utility.yul\":18361:18727   */\n      swap2\n      swap1\n      pop\n      jump\t// out\n        /* \"#utility.yul\":18733:19152   */\n    tag_282:\n        /* \"#utility.yul\":18899:18903   */\n      0x00\n        /* \"#utility.yul\":18937:18939   */\n      0x20\n        /* \"#utility.yul\":18926:18935   */\n      dup3\n        /* \"#utility.yul\":18922:18940   */\n      add\n        /* \"#utility.yul\":18914:18940   */\n      swap1\n      pop\n        /* \"#utility.yul\":18986:18995   */\n      dup2\n        /* \"#utility.yul\":18980:18984   */\n      dup2\n        /* \"#utility.yul\":18976:18996   */\n      sub\n        /* \"#utility.yul\":18972:18973   */\n      0x00\n        /* \"#utility.yul\":18961:18970   */\n      dup4\n        /* \"#utility.yul\":18957:18974   */\n      add\n        /* \"#utility.yul\":18950:18997   */\n      mstore\n        /* \"#utility.yul\":19014:19145   */\n      tag_650\n        /* \"#utility.yul\":19140:19144   */\n      dup2\n        /* \"#utility.yul\":19014:19145   */\n      tag_454\n      jump\t// in\n    tag_650:\n        /* \"#utility.yul\":19006:19145   */\n      swap1\n      pop\n        /* \"#utility.yul\":18733:19152   */\n      swap2\n      swap1\n      pop\n      jump\t// out\n        /* \"#utility.yul\":19158:19243   */\n    tag_455:\n        /* \"#utility.yul\":19203:19210   */\n      0x00\n        /* \"#utility.yul\":19232:19237   */\n      dup2\n        /* \"#utility.yul\":19221:19237   */\n      swap1\n      pop\n        /* \"#utility.yul\":19158:19243   */\n      swap2\n      swap1\n      pop\n      jump\t// out\n        /* \"#utility.yul\":19249:19335   */\n    tag_456:\n        /* \"#utility.yul\":19284:19291   */\n      0x00\n        /* \"#utility.yul\":19324:19328   */\n      0xff\n        /* \"#utility.yul\":19317:19322   */\n      dup3\n        /* \"#utility.yul\":19313:19329   */\n      and\n        /* \"#utility.yul\":19302:19329   */\n      swap1\n      pop\n        /* \"#utility.yul\":19249:19335   */\n      swap2\n      swap1\n      pop\n      jump\t// out\n        /* \"#utility.yul\":19341:19401   */\n    tag_457:\n        /* \"#utility.yul\":19369:19372   */\n      0x00\n        /* \"#utility.yul\":19390:19395   */\n      dup2\n        /* \"#utility.yul\":19383:19395   */\n      swap1\n      pop\n        /* \"#utility.yul\":19341:19401   */\n      swap2\n      swap1\n      pop\n      jump\t// out\n        /* \"#utility.yul\":19407:19561   */\n    tag_458:\n        /* \"#utility.yul\":19463:19472   */\n      0x00\n        /* \"#utility.yul\":19496:19555   */\n      tag_655\n        /* \"#utility.yul\":19512:19554   */\n      tag_656\n        /* \"#utility.yul\":19521:19553   */\n      tag_657\n        /* \"#utility.yul\":19547:19552   */\n      dup5\n        /* \"#utility.yul\":19521:19553   */\n      tag_455\n      jump\t// in\n    tag_657:\n        /* \"#utility.yul\":19512:19554   */\n      tag_457\n      jump\t// in\n    tag_656:\n        /* \"#utility.yul\":19496:19555   */\n      tag_456\n      jump\t// in\n    tag_655:\n        /* \"#utility.yul\":19483:19555   */\n      swap1\n      pop\n        /* \"#utility.yul\":19407:19561   */\n      swap2\n      swap1\n      pop\n      jump\t// out\n        /* \"#utility.yul\":19567:19710   */\n    tag_459:\n        /* \"#utility.yul\":19660:19703   */\n      tag_659\n        /* \"#utility.yul\":19697:19702   */\n      dup2\n        /* \"#utility.yul\":19660:19703   */\n      tag_458\n      jump\t// in\n    tag_659:\n        /* \"#utility.yul\":19655:19658   */\n      dup3\n        /* \"#utility.yul\":19648:19704   */\n      mstore\n        /* \"#utility.yul\":19567:19710   */\n      pop\n      pop\n      jump\t// out\n        /* \"#utility.yul\":19716:19950   */\n    tag_291:\n        /* \"#utility.yul\":19815:19819   */\n      0x00\n        /* \"#utility.yul\":19853:19855   */\n      0x20\n        /* \"#utility.yul\":19842:19851   */\n      dup3\n        /* \"#utility.yul\":19838:19856   */\n      add\n        /* \"#utility.yul\":19830:19856   */\n      swap1\n      pop\n        /* \"#utility.yul\":19866:19943   */\n      tag_661\n        /* \"#utility.yul\":19940:19941   */\n      0x00\n        /* \"#utility.yul\":19929:19938   */\n      dup4\n        /* \"#utility.yul\":19925:19942   */\n      add\n        /* \"#utility.yul\":19916:19922   */\n      dup5\n        /* \"#utility.yul\":19866:19943   */\n      tag_459\n      jump\t// in\n    tag_661:\n        /* \"#utility.yul\":19716:19950   */\n      swap3\n      swap2\n      pop\n      pop\n      jump\t// out\n        /* \"#utility.yul\":19956:20181   */\n    tag_460:\n        /* \"#utility.yul\":20096:20130   */\n      0x4f776e61626c653a206e6577206f776e657220697320746865207a65726f2061\n        /* \"#utility.yul\":20092:20093   */\n      0x00\n        /* \"#utility.yul\":20084:20090   */\n      dup3\n        /* \"#utility.yul\":20080:20094   */\n      add\n        /* \"#utility.yul\":20073:20131   */\n      mstore\n        /* \"#utility.yul\":20165:20173   */\n      0x6464726573730000000000000000000000000000000000000000000000000000\n        /* \"#utility.yul\":20160:20162   */\n      0x20\n        /* \"#utility.yul\":20152:20158   */\n      dup3\n        /* \"#utility.yul\":20148:20163   */\n      add\n        /* \"#utility.yul\":20141:20174   */\n      mstore\n        /* \"#utility.yul\":19956:20181   */\n      pop\n      jump\t// out\n        /* \"#utility.yul\":20187:20553   */\n    tag_461:\n        /* \"#utility.yul\":20329:20332   */\n      0x00\n        /* \"#utility.yul\":20350:20417   */\n      tag_664\n        /* \"#utility.yul\":20414:20416   */\n      0x26\n        /* \"#utility.yul\":20409:20412   */\n      dup4\n        /* \"#utility.yul\":20350:20417   */\n      tag_452\n      jump\t// in\n    tag_664:\n        /* \"#utility.yul\":20343:20417   */\n      swap2\n      pop\n        /* \"#utility.yul\":20426:20519   */\n      tag_665\n        /* \"#utility.yul\":20515:20518   */\n      dup3\n        /* \"#utility.yul\":20426:20519   */\n      tag_460\n      jump\t// in\n    tag_665:\n        /* \"#utility.yul\":20544:20546   */\n      0x40\n        /* \"#utility.yul\":20539:20542   */\n      dup3\n        /* \"#utility.yul\":20535:20547   */\n      add\n        /* \"#utility.yul\":20528:20547   */\n      swap1\n      pop\n        /* \"#utility.yul\":20187:20553   */\n      swap2\n      swap1\n      pop\n      jump\t// out\n        /* \"#utility.yul\":20559:20978   */\n    tag_297:\n        /* \"#utility.yul\":20725:20729   */\n      0x00\n        /* \"#utility.yul\":20763:20765   */\n      0x20\n        /* \"#utility.yul\":20752:20761   */\n      dup3\n        /* \"#utility.yul\":20748:20766   */\n      add\n        /* \"#utility.yul\":20740:20766   */\n      swap1\n      pop\n        /* \"#utility.yul\":20812:20821   */\n      dup2\n        /* \"#utility.yul\":20806:20810   */\n      dup2\n        /* \"#utility.yul\":20802:20822   */\n      sub\n        /* \"#utility.yul\":20798:20799   */\n      0x00\n        /* \"#utility.yul\":20787:20796   */\n      dup4\n        /* \"#utility.yul\":20783:20800   */\n      add\n        /* \"#utility.yul\":20776:20823   */\n      mstore\n        /* \"#utility.yul\":20840:20971   */\n      tag_667\n        /* \"#utility.yul\":20966:20970   */\n      dup2\n        /* \"#utility.yul\":20840:20971   */\n      tag_461\n      jump\t// in\n    tag_667:\n        /* \"#utility.yul\":20832:20971   */\n      swap1\n      pop\n        /* \"#utility.yul\":20559:20978   */\n      swap2\n      swap1\n      pop\n      jump\t// out\n        /* \"#utility.yul\":20984:21166   */\n    tag_462:\n        /* \"#utility.yul\":21124:21158   */\n      0x4f776e61626c653a2063616c6c6572206973206e6f7420746865206f776e6572\n        /* \"#utility.yul\":21120:21121   */\n      0x00\n        /* \"#utility.yul\":21112:21118   */\n      dup3\n        /* \"#utility.yul\":21108:21122   */\n      add\n        /* \"#utility.yul\":21101:21159   */\n      mstore\n        /* \"#utility.yul\":20984:21166   */\n      pop\n      jump\t// out\n        /* \"#utility.yul\":21172:21538   */\n    tag_463:\n        /* \"#utility.yul\":21314:21317   */\n      0x00\n        /* \"#utility.yul\":21335:21402   */\n      tag_670\n        /* \"#utility.yul\":21399:21401   */\n      0x20\n        /* \"#utility.yul\":21394:21397   */\n      dup4\n        /* \"#utility.yul\":21335:21402   */\n      tag_452\n      jump\t// in\n    tag_670:\n        /* \"#utility.yul\":21328:21402   */\n      swap2\n      pop\n        /* \"#utility.yul\":21411:21504   */\n      tag_671\n        /* \"#utility.yul\":21500:21503   */\n      dup3\n        /* \"#utility.yul\":21411:21504   */\n      tag_462\n      jump\t// in\n    tag_671:\n        /* \"#utility.yul\":21529:21531   */\n      0x20\n        /* \"#utility.yul\":21524:21527   */\n      dup3\n        /* \"#utility.yul\":21520:21532   */\n      add\n        /* \"#utility.yul\":21513:21532   */\n      swap1\n      pop\n        /* \"#utility.yul\":21172:21538   */\n      swap2\n      swap1\n      pop\n      jump\t// out\n        /* \"#utility.yul\":21544:21963   */\n    tag_328:\n        /* \"#utility.yul\":21710:21714   */\n      0x00\n        /* \"#utility.yul\":21748:21750   */\n      0x20\n        /* \"#utility.yul\":21737:21746   */\n      dup3\n        /* \"#utility.yul\":21733:21751   */\n      add\n        /* \"#utility.yul\":21725:21751   */\n      swap1\n      pop\n        /* \"#utility.yul\":21797:21806   */\n      dup2\n        /* \"#utility.yul\":21791:21795   */\n      dup2\n        /* \"#utility.yul\":21787:21807   */\n      sub\n        /* \"#utility.yul\":21783:21784   */\n      0x00\n        /* \"#utility.yul\":21772:21781   */\n      dup4\n        /* \"#utility.yul\":21768:21785   */\n      add\n        /* \"#utility.yul\":21761:21808   */\n      mstore\n        /* \"#utility.yul\":21825:21956   */\n      tag_673\n        /* \"#utility.yul\":21951:21955   */\n      dup2\n        /* \"#utility.yul\":21825:21956   */\n      tag_463\n      jump\t// in\n    tag_673:\n        /* \"#utility.yul\":21817:21956   */\n      swap1\n      pop\n        /* \"#utility.yul\":21544:21963   */\n      swap2\n      swap1\n      pop\n      jump\t// out\n        /* \"#utility.yul\":21969:22150   */\n    tag_464:\n        /* \"#utility.yul\":22109:22142   */\n      0x5265656e7472616e637947756172643a207265656e7472616e742063616c6c00\n        /* \"#utility.yul\":22105:22106   */\n      0x00\n        /* \"#utility.yul\":22097:22103   */\n      dup3\n        /* \"#utility.yul\":22093:22107   */\n      add\n        /* \"#utility.yul\":22086:22143   */\n      mstore\n        /* \"#utility.yul\":21969:22150   */\n      pop\n      jump\t// out\n        /* \"#utility.yul\":22156:22522   */\n    tag_465:\n        /* \"#utility.yul\":22298:22301   */\n      0x00\n        /* \"#utility.yul\":22319:22386   */\n      tag_676\n        /* \"#utility.yul\":22383:22385   */\n      0x1f\n        /* \"#utility.yul\":22378:22381   */\n      dup4\n        /* \"#utility.yul\":22319:22386   */\n      tag_452\n      jump\t// in\n    tag_676:\n        /* \"#utility.yul\":22312:22386   */\n      swap2\n      pop\n        /* \"#utility.yul\":22395:22488   */\n      tag_677\n        /* \"#utility.yul\":22484:22487   */\n      dup3\n        /* \"#utility.yul\":22395:22488   */\n      tag_464\n      jump\t// in\n    tag_677:\n        /* \"#utility.yul\":22513:22515   */\n      0x20\n        /* \"#utility.yul\":22508:22511   */\n      dup3\n        /* \"#utility.yul\":22504:22516   */\n      add\n        /* \"#utility.yul\":22497:22516   */\n      swap1\n      pop\n        /* \"#utility.yul\":22156:22522   */\n      swap2\n      swap1\n      pop\n      jump\t// out\n        /* \"#utility.yul\":22528:22947   */\n    tag_349:\n        /* \"#utility.yul\":22694:22698   */\n      0x00\n        /* \"#utility.yul\":22732:22734   */\n      0x20\n        /* \"#utility.yul\":22721:22730   */\n      dup3\n        /* \"#utility.yul\":22717:22735   */\n      add\n        /* \"#utility.yul\":22709:22735   */\n      swap1\n      pop\n        /* \"#utility.yul\":22781:22790   */\n      dup2\n        /* \"#utility.yul\":22775:22779   */\n      dup2\n        /* \"#utility.yul\":22771:22791   */\n      sub\n        /* \"#utility.yul\":22767:22768   */\n      0x00\n        /* \"#utility.yul\":22756:22765   */\n      dup4\n        /* \"#utility.yul\":22752:22769   */\n      add\n        /* \"#utility.yul\":22745:22792   */\n      mstore\n        /* \"#utility.yul\":22809:22940   */\n      tag_679\n        /* \"#utility.yul\":22935:22939   */\n      dup2\n        /* \"#utility.yul\":22809:22940   */\n      tag_465\n      jump\t// in\n    tag_679:\n        /* \"#utility.yul\":22801:22940   */\n      swap1\n      pop\n        /* \"#utility.yul\":22528:22947   */\n      swap2\n      swap1\n      pop\n      jump\t// out\n        /* \"#utility.yul\":22953:23183   */\n    tag_466:\n        /* \"#utility.yul\":23093:23127   */\n      0x496e697469616c697a61626c653a20636f6e7472616374206973206e6f742069\n        /* \"#utility.yul\":23089:23090   */\n      0x00\n        /* \"#utility.yul\":23081:23087   */\n      dup3\n        /* \"#utility.yul\":23077:23091   */\n      add\n        /* \"#utility.yul\":23070:23128   */\n      mstore\n        /* \"#utility.yul\":23162:23175   */\n      0x6e697469616c697a696e67000000000000000000000000000000000000000000\n        /* \"#utility.yul\":23157:23159   */\n      0x20\n        /* \"#utility.yul\":23149:23155   */\n      dup3\n        /* \"#utility.yul\":23145:23160   */\n      add\n        /* \"#utility.yul\":23138:23176   */\n      mstore\n        /* \"#utility.yul\":22953:23183   */\n      pop\n      jump\t// out\n        /* \"#utility.yul\":23189:23555   */\n    tag_467:\n        /* \"#utility.yul\":23331:23334   */\n      0x00\n        /* \"#utility.yul\":23352:23419   */\n      tag_682\n        /* \"#utility.yul\":23416:23418   */\n      0x2b\n        /* \"#utility.yul\":23411:23414   */\n      dup4\n        /* \"#utility.yul\":23352:23419   */\n      tag_452\n      jump\t// in\n    tag_682:\n        /* \"#utility.yul\":23345:23419   */\n      swap2\n      pop\n        /* \"#utility.yul\":23428:23521   */\n      tag_683\n        /* \"#utility.yul\":23517:23520   */\n      dup3\n        /* \"#utility.yul\":23428:23521   */\n      tag_466\n      jump\t// in\n    tag_683:\n        /* \"#utility.yul\":23546:23548   */\n      0x40\n        /* \"#utility.yul\":23541:23544   */\n      dup3\n        /* \"#utility.yul\":23537:23549   */\n      add\n        /* \"#utility.yul\":23530:23549   */\n      swap1\n      pop\n        /* \"#utility.yul\":23189:23555   */\n      swap2\n      swap1\n      pop\n      jump\t// out\n        /* \"#utility.yul\":23561:23980   */\n    tag_355:\n        /* \"#utility.yul\":23727:23731   */\n      0x00\n        /* \"#utility.yul\":23765:23767   */\n      0x20\n        /* \"#utility.yul\":23754:23763   */\n      dup3\n        /* \"#utility.yul\":23750:23768   */\n      add\n        /* \"#utility.yul\":23742:23768   */\n      swap1\n      pop\n        /* \"#utility.yul\":23814:23823   */\n      dup2\n        /* \"#utility.yul\":23808:23812   */\n      dup2\n        /* \"#utility.yul\":23804:23824   */\n      sub\n        /* \"#utility.yul\":23800:23801   */\n      0x00\n        /* \"#utility.yul\":23789:23798   */\n      dup4\n        /* \"#utility.yul\":23785:23802   */\n      add\n        /* \"#utility.yul\":23778:23825   */\n      mstore\n        /* \"#utility.yul\":23842:23973   */\n      tag_685\n        /* \"#utility.yul\":23968:23972   */\n      dup2\n        /* \"#utility.yul\":23842:23973   */\n      tag_467\n      jump\t// in\n    tag_685:\n        /* \"#utility.yul\":23834:23973   */\n      swap1\n      pop\n        /* \"#utility.yul\":23561:23980   */\n      swap2\n      swap1\n      pop\n      jump\t// out\n        /* \"#utility.yul\":23986:24133   */\n    tag_468:\n        /* \"#utility.yul\":24087:24098   */\n      0x00\n        /* \"#utility.yul\":24124:24127   */\n      dup2\n        /* \"#utility.yul\":24109:24127   */\n      swap1\n      pop\n        /* \"#utility.yul\":23986:24133   */\n      swap3\n      swap2\n      pop\n      pop\n      jump\t// out\n        /* \"#utility.yul\":24139:24253   */\n    tag_469:\n      pop\n      jump\t// out\n        /* \"#utility.yul\":24259:24657   */\n    tag_470:\n        /* \"#utility.yul\":24418:24421   */\n      0x00\n        /* \"#utility.yul\":24439:24522   */\n      tag_689\n        /* \"#utility.yul\":24520:24521   */\n      0x00\n        /* \"#utility.yul\":24515:24518   */\n      dup4\n        /* \"#utility.yul\":24439:24522   */\n      tag_468\n      jump\t// in\n    tag_689:\n        /* \"#utility.yul\":24432:24522   */\n      swap2\n      pop\n        /* \"#utility.yul\":24531:24624   */\n      tag_690\n        /* \"#utility.yul\":24620:24623   */\n      dup3\n        /* \"#utility.yul\":24531:24624   */\n      tag_469\n      jump\t// in\n    tag_690:\n        /* \"#utility.yul\":24649:24650   */\n      0x00\n        /* \"#utility.yul\":24644:24647   */\n      dup3\n        /* \"#utility.yul\":24640:24651   */\n      add\n        /* \"#utility.yul\":24633:24651   */\n      swap1\n      pop\n        /* \"#utility.yul\":24259:24657   */\n      swap2\n      swap1\n      pop\n      jump\t// out\n        /* \"#utility.yul\":24663:25042   */\n    tag_367:\n        /* \"#utility.yul\":24847:24850   */\n      0x00\n        /* \"#utility.yul\":24869:25016   */\n      tag_692\n        /* \"#utility.yul\":25012:25015   */\n      dup3\n        /* \"#utility.yul\":24869:25016   */\n      tag_470\n      jump\t// in\n    tag_692:\n        /* \"#utility.yul\":24862:25016   */\n      swap2\n      pop\n        /* \"#utility.yul\":25033:25036   */\n      dup2\n        /* \"#utility.yul\":25026:25036   */\n      swap1\n      pop\n        /* \"#utility.yul\":24663:25042   */\n      swap2\n      swap1\n      pop\n      jump\t// out\n        /* \"#utility.yul\":25048:25214   */\n    tag_471:\n        /* \"#utility.yul\":25188:25206   */\n      0x5472616e73666572206661696c65642e00000000000000000000000000000000\n        /* \"#utility.yul\":25184:25185   */\n      0x00\n        /* \"#utility.yul\":25176:25182   */\n      dup3\n        /* \"#utility.yul\":25172:25186   */\n      add\n        /* \"#utility.yul\":25165:25207   */\n      mstore\n        /* \"#utility.yul\":25048:25214   */\n      pop\n      jump\t// out\n        /* \"#utility.yul\":25220:25586   */\n    tag_472:\n        /* \"#utility.yul\":25362:25365   */\n      0x00\n        /* \"#utility.yul\":25383:25450   */\n      tag_695\n        /* \"#utility.yul\":25447:25449   */\n      0x10\n        /* \"#utility.yul\":25442:25445   */\n      dup4\n        /* \"#utility.yul\":25383:25450   */\n      tag_452\n      jump\t// in\n    tag_695:\n        /* \"#utility.yul\":25376:25450   */\n      swap2\n      pop\n        /* \"#utility.yul\":25459:25552   */\n      tag_696\n        /* \"#utility.yul\":25548:25551   */\n      dup3\n        /* \"#utility.yul\":25459:25552   */\n      tag_471\n      jump\t// in\n    tag_696:\n        /* \"#utility.yul\":25577:25579   */\n      0x20\n        /* \"#utility.yul\":25572:25575   */\n      dup3\n        /* \"#utility.yul\":25568:25580   */\n      add\n        /* \"#utility.yul\":25561:25580   */\n      swap1\n      pop\n        /* \"#utility.yul\":25220:25586   */\n      swap2\n      swap1\n      pop\n      jump\t// out\n        /* \"#utility.yul\":25592:26011   */\n    tag_373:\n        /* \"#utility.yul\":25758:25762   */\n      0x00\n        /* \"#utility.yul\":25796:25798   */\n      0x20\n        /* \"#utility.yul\":25785:25794   */\n      dup3\n        /* \"#utility.yul\":25781:25799   */\n      add\n        /* \"#utility.yul\":25773:25799   */\n      swap1\n      pop\n        /* \"#utility.yul\":25845:25854   */\n      dup2\n        /* \"#utility.yul\":25839:25843   */\n      dup2\n        /* \"#utility.yul\":25835:25855   */\n      sub\n        /* \"#utility.yul\":25831:25832   */\n      0x00\n        /* \"#utility.yul\":25820:25829   */\n      dup4\n        /* \"#utility.yul\":25816:25833   */\n      add\n        /* \"#utility.yul\":25809:25856   */\n      mstore\n        /* \"#utility.yul\":25873:26004   */\n      tag_698\n        /* \"#utility.yul\":25999:26003   */\n      dup2\n        /* \"#utility.yul\":25873:26004   */\n      tag_472\n      jump\t// in\n    tag_698:\n        /* \"#utility.yul\":25865:26004   */\n      swap1\n      pop\n        /* \"#utility.yul\":25592:26011   */\n      swap2\n      swap1\n      pop\n      jump\t// out\n        /* \"#utility.yul\":26017:26197   */\n    tag_389:\n        /* \"#utility.yul\":26065:26142   */\n      0x4e487b7100000000000000000000000000000000000000000000000000000000\n        /* \"#utility.yul\":26062:26063   */\n      0x00\n        /* \"#utility.yul\":26055:26143   */\n      mstore\n        /* \"#utility.yul\":26162:26166   */\n      0x31\n        /* \"#utility.yul\":26159:26160   */\n      0x04\n        /* \"#utility.yul\":26152:26167   */\n      mstore\n        /* \"#utility.yul\":26186:26190   */\n      0x24\n        /* \"#utility.yul\":26183:26184   */\n      0x00\n        /* \"#utility.yul\":26176:26191   */\n      revert\n\n    auxdata: 0xa2646970667358221220336916b31d093ff24f7304d98b088757257fac6a534f119161e6a47091058a2d64736f6c63430008120033\n}\n",
				"bytecode": {
					"linkReferences": {},
					"object": "60806040523480156200001157600080fd5b50620000226200002860201b60201c565b620001d2565b600060019054906101000a900460ff16156200007b576040517f08c379a0000000000000000000000000000000000000000000000000000000008152600401620000729062000175565b60405180910390fd5b60ff801660008054906101000a900460ff1660ff1614620000ec5760ff6000806101000a81548160ff021916908360ff1602179055507f7f26b83ff96e1f2b6a682f133852f6798a09c465da95921460cefb384740249860ff604051620000e39190620001b5565b60405180910390a15b565b600082825260208201905092915050565b7f496e697469616c697a61626c653a20636f6e747261637420697320696e69746960008201527f616c697a696e6700000000000000000000000000000000000000000000000000602082015250565b60006200015d602783620000ee565b91506200016a82620000ff565b604082019050919050565b6000602082019050818103600083015262000190816200014e565b9050919050565b600060ff82169050919050565b620001af8162000197565b82525050565b6000602082019050620001cc6000830184620001a4565b92915050565b6136e980620001e26000396000f3fe6080604052600436106101145760003560e01c8063715018a6116100a0578063b2ddee0611610064578063b2ddee0614610390578063c4d66de8146103b9578063f2fde38b146103e2578063f772adf11461040b578063fa09e6301461043457610114565b8063715018a6146102cc57806388700d1c146102e357806389bfd38f146103205780638da5cb5b146103495780639f37092a1461037457610114565b806324d7806c116100e757806324d7806c146101d55780632d3456701461021257806331ae450b1461023b5780634f85310f146102665780636d73e669146102a357610114565b806301ffc9a71461011957806315a70d8d146101565780631816467f146101815780631fb0080e146101aa575b600080fd5b34801561012557600080fd5b50610140600480360381019061013b9190612a7a565b61045d565b60405161014d9190612ac2565b60405180910390f35b34801561016257600080fd5b5061016b6104d7565b6040516101789190612c8c565b60405180910390f35b34801561018d57600080fd5b506101a860048036038101906101a39190612cda565b610752565b005b3480156101b657600080fd5b506101bf61079e565b6040516101cc9190612c8c565b60405180910390f35b3480156101e157600080fd5b506101fc60048036038101906101f79190612cda565b6109c6565b6040516102099190612ac2565b60405180910390f35b34801561021e57600080fd5b5061023960048036038101906102349190612cda565b610a20565b005b34801561024757600080fd5b50610250610ab4565b60405161025d9190612db6565b60405180910390f35b34801561027257600080fd5b5061028d60048036038101906102889190612e04565b610b96565b60405161029a9190612e86565b60405180910390f35b3480156102af57600080fd5b506102ca60048036038101906102c59190612cda565b610cbc565b005b3480156102d857600080fd5b506102e1610d4f565b005b3480156102ef57600080fd5b5061030a60048036038101906103059190612ea1565b610d63565b6040516103179190612f23565b60405180910390f35b34801561032c57600080fd5b5061034760048036038101906103429190612f3e565b610e38565b005b34801561035557600080fd5b5061035e61141e565b60405161036b9190612fa0565b60405180910390f35b61038e60048036038101906103899190612ea1565b611448565b005b34801561039c57600080fd5b506103b760048036038101906103b29190612ea1565b611963565b005b3480156103c557600080fd5b506103e060048036038101906103db9190612cda565b611ce1565b005b3480156103ee57600080fd5b5061040960048036038101906104049190612cda565b611e69565b005b34801561041757600080fd5b50610432600480360381019061042d9190612f3e565b611eec565b005b34801561044057600080fd5b5061045b60048036038101906104569190612cda565b612263565b005b60007f553e757e000000000000000000000000000000000000000000000000000000007bffffffffffffffffffffffffffffffffffffffffffffffffffffffff1916827bffffffffffffffffffffffffffffffffffffffffffffffffffffffff191614806104d057506104cf8261228b565b5b9050919050565b606060006104e5609d6122f5565b67ffffffffffffffff8111156104fe576104fd612fbb565b5b60405190808252806020026020018201604052801561053757816020015b6105246129a0565b81526020019060019003908161051c5790505b5090506000805b610548609d6122f5565b811015610749573373ffffffffffffffffffffffffffffffffffffffff16609c600083815260200190815260200160002060020160010160009054906101000a900473ffffffffffffffffffffffffffffffffffffffff1673ffffffffffffffffffffffffffffffffffffffff16036107365760011515609c600083815260200190815260200160002060050160009054906101000a900460ff16151503610735576000609c60008381526020019081526020016000209050806040518060800160405290816000820160009054906101000a900473ffffffffffffffffffffffffffffffffffffffff1673ffffffffffffffffffffffffffffffffffffffff1673ffffffffffffffffffffffffffffffffffffffff1681526020016001820154815260200160028201604051806060016040529081600082015481526020016001820160009054906101000a900473ffffffffffffffffffffffffffffffffffffffff1673ffffffffffffffffffffffffffffffffffffffff1673ffffffffffffffffffffffffffffffffffffffff16815260200160028201548152505081526020016005820160009054906101000a900460ff16151515158152505084848151811061071957610718612fea565b5b60200260200101819052506001836107319190613048565b9250505b5b80806107419061307c565b91505061053e565b50819250505090565b61075a612303565b80606760006101000a81548173ffffffffffffffffffffffffffffffffffffffff021916908373ffffffffffffffffffffffffffffffffffffffff16021790555050565b606060006107ac609e6122f5565b6107b6609d6122f5565b6107c091906130c4565b905060008167ffffffffffffffff8111156107de576107dd612fbb565b5b60405190808252806020026020018201604052801561081757816020015b6108046129a0565b8152602001906001900390816107fc5790505b5090506000805b610828609d6122f5565b8110156109bc5760011515609c600083815260200190815260200160002060050160009054906101000a900460ff161515036109a9576000609c60008381526020019081526020016000209050806040518060800160405290816000820160009054906101000a900473ffffffffffffffffffffffffffffffffffffffff1673ffffffffffffffffffffffffffffffffffffffff1673ffffffffffffffffffffffffffffffffffffffff1681526020016001820154815260200160028201604051806060016040529081600082015481526020016001820160009054906101000a900473ffffffffffffffffffffffffffffffffffffffff1673ffffffffffffffffffffffffffffffffffffffff1673ffffffffffffffffffffffffffffffffffffffff16815260200160028201548152505081526020016005820160009054906101000a900460ff16151515158152505084848151811061098d5761098c612fea565b5b60200260200101819052506001836109a59190613048565b9250505b80806109b49061307c565b91505061081e565b5081935050505090565b60008173ffffffffffffffffffffffffffffffffffffffff166109e761141e565b73ffffffffffffffffffffffffffffffffffffffff161480610a195750610a1882606561238190919063ffffffff16565b5b9050919050565b610a28612303565b610a3c81606561238190919063ffffffff16565b15610ab1573373ffffffffffffffffffffffffffffffffffffffff168173ffffffffffffffffffffffffffffffffffffffff167f7c0c3c84c67c85fcac635147348bfe374c24a1a93d0366d1cfe9d8853cbf89d560405160405180910390a3610aaf8160656123b190919063ffffffff16565b505b50565b6060610ac060656123e1565b67ffffffffffffffff811115610ad957610ad8612fbb565b5b604051908082528060200260200182016040528015610b075781602001602082028036833780820191505090505b50905060005b610b1760656123e1565b811015610b9257610b328160656123f690919063ffffffff16565b828281518110610b4557610b44612fea565b5b602002602001019073ffffffffffffffffffffffffffffffffffffffff16908173ffffffffffffffffffffffffffffffffffffffff16815250508080610b8a9061307c565b915050610b0d565b5090565b610b9e6129a0565b609c60008381526020019081526020016000206040518060800160405290816000820160009054906101000a900473ffffffffffffffffffffffffffffffffffffffff1673ffffffffffffffffffffffffffffffffffffffff1673ffffffffffffffffffffffffffffffffffffffff1681526020016001820154815260200160028201604051806060016040529081600082015481526020016001820160009054906101000a900473ffffffffffffffffffffffffffffffffffffffff1673ffffffffffffffffffffffffffffffffffffffff1673ffffffffffffffffffffffffffffffffffffffff16815260200160028201548152505081526020016005820160009054906101000a900460ff1615151515815250509050919050565b610cc4612303565b610cd881606561238190919063ffffffff16565b610d4c573373ffffffffffffffffffffffffffffffffffffffff168173ffffffffffffffffffffffffffffffffffffffff167f7e1a1a08d52e4ba0e21554733d66165fd5151f99460116223d9e3a608eec5cb160405160405180910390a3610d4a81606561241090919063ffffffff16565b505b50565b610d57612303565b610d616000612440565b565b610d6b6129e6565b609a60008473ffffffffffffffffffffffffffffffffffffffff1673ffffffffffffffffffffffffffffffffffffffff1681526020019081526020016000206000838152602001908152602001600020604051806060016040529081600082015481526020016001820160009054906101000a900473ffffffffffffffffffffffffffffffffffffffff1673ffffffffffffffffffffffffffffffffffffffff1673ffffffffffffffffffffffffffffffffffffffff168152602001600282015481525050905092915050565b8282336000609a60008573ffffffffffffffffffffffffffffffffffffffff1673ffffffffffffffffffffffffffffffffffffffff1681526020019081526020016000206000848152602001908152602001600020604051806060016040529081600082015481526020016001820160009054906101000a900473ffffffffffffffffffffffffffffffffffffffff1673ffffffffffffffffffffffffffffffffffffffff1673ffffffffffffffffffffffffffffffffffffffff1681526020016002820154815250509050600081600001511115610f505783836040517f4a5568d5000000000000000000000000000000000000000000000000000000008152600401610f47929190613107565b60405180910390fd5b868633600083905060008173ffffffffffffffffffffffffffffffffffffffff16636352211e856040518263ffffffff1660e01b8152600401610f939190613130565b602060405180830381865afa158015610fb0573d6000803e3d6000fd5b505050506040513d601f19601f82011682018060405250810190610fd49190613160565b90508073ffffffffffffffffffffffffffffffffffffffff168373ffffffffffffffffffffffffffffffffffffffff161461103b576040517f30cd747100000000000000000000000000000000000000000000000000000000815260040160405180910390fd5b60008a11611075576040517fe1abbfc500000000000000000000000000000000000000000000000000000000815260040160405180910390fd5b60008c905060008c905060008290503073ffffffffffffffffffffffffffffffffffffffff168173ffffffffffffffffffffffffffffffffffffffff1663081812fc846040518263ffffffff1660e01b81526004016110d49190613130565b602060405180830381865afa1580156110f1573d6000803e3d6000fd5b505050506040513d601f19601f820116820180604052508101906111159190613160565b73ffffffffffffffffffffffffffffffffffffffff1614611162576040517f4be3a2c500000000000000000000000000000000000000000000000000000000815260040160405180910390fd5b600060405180606001604052808f81526020013373ffffffffffffffffffffffffffffffffffffffff16815260200161119b609d6122f5565b815250905080609a60008673ffffffffffffffffffffffffffffffffffffffff1673ffffffffffffffffffffffffffffffffffffffff16815260200190815260200160002060008581526020019081526020016000206000820151816000015560208201518160010160006101000a81548173ffffffffffffffffffffffffffffffffffffffff021916908373ffffffffffffffffffffffffffffffffffffffff16021790555060408201518160020155905050600060405180608001604052808673ffffffffffffffffffffffffffffffffffffffff16815260200185815260200183815260200160011515815250905080609c600061129c609d6122f5565b815260200190815260200160002060008201518160000160006101000a81548173ffffffffffffffffffffffffffffffffffffffff021916908373ffffffffffffffffffffffffffffffffffffffff160217905550602082015181600101556040820151816002016000820151816000015560208201518160010160006101000a81548173ffffffffffffffffffffffffffffffffffffffff021916908373ffffffffffffffffffffffffffffffffffffffff16021790555060408201518160020155505060608201518160050160006101000a81548160ff02191690831515021790555090505061138e609d612506565b50505050508a8c73ffffffffffffffffffffffffffffffffffffffff163373ffffffffffffffffffffffffffffffffffffffff167f424b3284a7958bb7965c27ca0b2a8b30ce2a56ba954533df15e6bded1b608ed760016113ef609d6122f5565b6113f991906130c4565b8e60405161140892919061318d565b60405180910390a4505050505050505050505050565b6000603360009054906101000a900473ffffffffffffffffffffffffffffffffffffffff16905090565b81816000609a60008473ffffffffffffffffffffffffffffffffffffffff1673ffffffffffffffffffffffffffffffffffffffff1681526020019081526020016000206000838152602001908152602001600020604051806060016040529081600082015481526020016001820160009054906101000a900473ffffffffffffffffffffffffffffffffffffffff1673ffffffffffffffffffffffffffffffffffffffff1673ffffffffffffffffffffffffffffffffffffffff1681526020016002820154815250509050600081600001511161155e5782826040517f6831488c000000000000000000000000000000000000000000000000000000008152600401611555929190613107565b60405180910390fd5b61156661251c565b6000609a60008773ffffffffffffffffffffffffffffffffffffffff1673ffffffffffffffffffffffffffffffffffffffff1681526020019081526020016000206000868152602001908152602001600020604051806060016040529081600082015481526020016001820160009054906101000a900473ffffffffffffffffffffffffffffffffffffffff1673ffffffffffffffffffffffffffffffffffffffff1673ffffffffffffffffffffffffffffffffffffffff1681526020016002820154815250509050806000015134101561168057858582600001516040517f7c934565000000000000000000000000000000000000000000000000000000008152600401611677939291906131b6565b60405180910390fd5b606760009054906101000a900473ffffffffffffffffffffffffffffffffffffffff1673ffffffffffffffffffffffffffffffffffffffff166108fc606483600001516116cd919061321c565b9081150290604051600060405180830381858888f193505050501580156116f8573d6000803e3d6000fd5b50806020015173ffffffffffffffffffffffffffffffffffffffff166108fc60616064846000015161172a919061321c565b611734919061324d565b9081150290604051600060405180830381858888f1935050505015801561175f573d6000803e3d6000fd5b506000609c6000609a60008a73ffffffffffffffffffffffffffffffffffffffff1673ffffffffffffffffffffffffffffffffffffffff168152602001908152602001600020600089815260200190815260200160002060020154815260200190815260200160002060050160006101000a81548160ff021916908315150217905550609a60008773ffffffffffffffffffffffffffffffffffffffff1673ffffffffffffffffffffffffffffffffffffffff16815260200190815260200160002060008681526020019081526020016000206000808201600090556001820160006101000a81549073ffffffffffffffffffffffffffffffffffffffff0219169055600282016000905550508573ffffffffffffffffffffffffffffffffffffffff166342842e0e826020015133886040518463ffffffff1660e01b81526004016118ad9392919061328f565b600060405180830381600087803b1580156118c757600080fd5b505af11580156118db573d6000803e3d6000fd5b505050506118e9609e612506565b848673ffffffffffffffffffffffffffffffffffffffff163373ffffffffffffffffffffffffffffffffffffffff167f263223b1dd81e51054a4e6f791d45a4a1ddb4aadcd93a2dfd892615c3fdac187846000015160405161194b9190613130565b60405180910390a45061195c61256b565b5050505050565b818133600083905060008173ffffffffffffffffffffffffffffffffffffffff16636352211e856040518263ffffffff1660e01b81526004016119a69190613130565b602060405180830381865afa1580156119c3573d6000803e3d6000fd5b505050506040513d601f19601f820116820180604052508101906119e79190613160565b90508073ffffffffffffffffffffffffffffffffffffffff168373ffffffffffffffffffffffffffffffffffffffff1614611a4e576040517f30cd747100000000000000000000000000000000000000000000000000000000815260040160405180910390fd5b86866000609a60008473ffffffffffffffffffffffffffffffffffffffff1673ffffffffffffffffffffffffffffffffffffffff1681526020019081526020016000206000838152602001908152602001600020604051806060016040529081600082015481526020016001820160009054906101000a900473ffffffffffffffffffffffffffffffffffffffff1673ffffffffffffffffffffffffffffffffffffffff1673ffffffffffffffffffffffffffffffffffffffff16815260200160028201548152505090506000816000015111611b645782826040517f6831488c000000000000000000000000000000000000000000000000000000008152600401611b5b929190613107565b60405180910390fd5b6000609c6000609a60008e73ffffffffffffffffffffffffffffffffffffffff1673ffffffffffffffffffffffffffffffffffffffff16815260200190815260200160002060008d815260200190815260200160002060020154815260200190815260200160002060050160006101000a81548160ff021916908315150217905550609a60008b73ffffffffffffffffffffffffffffffffffffffff1673ffffffffffffffffffffffffffffffffffffffff16815260200190815260200160002060008a81526020019081526020016000206000808201600090556001820160006101000a81549073ffffffffffffffffffffffffffffffffffffffff021916905560028201600090555050611c7a609e612506565b888a73ffffffffffffffffffffffffffffffffffffffff163373ffffffffffffffffffffffffffffffffffffffff167f9ba1a3cb55ce8d63d072a886f94d2a744f50cddf82128e897d0661f5ec62315860405160405180910390a450505050505050505050565b60008060019054906101000a900460ff16159050808015611d125750600160008054906101000a900460ff1660ff16105b80611d3f5750611d2130612575565b158015611d3e5750600160008054906101000a900460ff1660ff16145b5b611d7e576040517f08c379a0000000000000000000000000000000000000000000000000000000008152600401611d7590613349565b60405180910390fd5b60016000806101000a81548160ff021916908360ff1602179055508015611dbb576001600060016101000a81548160ff0219169083151502179055505b611dc3612598565b611dcb6125f1565b81606760006101000a81548173ffffffffffffffffffffffffffffffffffffffff021916908373ffffffffffffffffffffffffffffffffffffffff1602179055508015611e655760008060016101000a81548160ff0219169083151502179055507f7f26b83ff96e1f2b6a682f133852f6798a09c465da95921460cefb38474024986001604051611e5c91906133bb565b60405180910390a15b5050565b611e71612303565b600073ffffffffffffffffffffffffffffffffffffffff168173ffffffffffffffffffffffffffffffffffffffff1603611ee0576040517f08c379a0000000000000000000000000000000000000000000000000000000008152600401611ed790613448565b60405180910390fd5b611ee981612440565b50565b82826000609a60008473ffffffffffffffffffffffffffffffffffffffff1673ffffffffffffffffffffffffffffffffffffffff1681526020019081526020016000206000838152602001908152602001600020604051806060016040529081600082015481526020016001820160009054906101000a900473ffffffffffffffffffffffffffffffffffffffff1673ffffffffffffffffffffffffffffffffffffffff1673ffffffffffffffffffffffffffffffffffffffff168152602001600282015481525050905060008160000151116120025782826040517f6831488c000000000000000000000000000000000000000000000000000000008152600401611ff9929190613107565b60405180910390fd5b61200a61251c565b858533600083905060008173ffffffffffffffffffffffffffffffffffffffff16636352211e856040518263ffffffff1660e01b815260040161204d9190613130565b602060405180830381865afa15801561206a573d6000803e3d6000fd5b505050506040513d601f19601f8201168201806040525081019061208e9190613160565b90508073ffffffffffffffffffffffffffffffffffffffff168373ffffffffffffffffffffffffffffffffffffffff16146120f5576040517f30cd747100000000000000000000000000000000000000000000000000000000815260040160405180910390fd5b6000890361212f576040517fe1abbfc500000000000000000000000000000000000000000000000000000000815260040160405180910390fd5b60008b905060008b90508a609a60008473ffffffffffffffffffffffffffffffffffffffff1673ffffffffffffffffffffffffffffffffffffffff1681526020019081526020016000206000838152602001908152602001600020600001819055508b8d73ffffffffffffffffffffffffffffffffffffffff163373ffffffffffffffffffffffffffffffffffffffff167f424b3284a7958bb7965c27ca0b2a8b30ce2a56ba954533df15e6bded1b608ed7609a60008773ffffffffffffffffffffffffffffffffffffffff1673ffffffffffffffffffffffffffffffffffffffff1681526020019081526020016000206000868152602001908152602001600020600201548f60405161224492919061318d565b60405180910390a45050505050505061225b61256b565b505050505050565b61226b612303565b60004790506000811161227d57600080fd5b612287824761264a565b5050565b60007f01ffc9a7000000000000000000000000000000000000000000000000000000007bffffffffffffffffffffffffffffffffffffffffffffffffffffffff1916827bffffffffffffffffffffffffffffffffffffffffffffffffffffffff1916149050919050565b600081600001549050919050565b61230b6126fb565b73ffffffffffffffffffffffffffffffffffffffff1661232961141e565b73ffffffffffffffffffffffffffffffffffffffff161461237f576040517f08c379a0000000000000000000000000000000000000000000000000000000008152600401612376906134b4565b60405180910390fd5b565b60006123a9836000018373ffffffffffffffffffffffffffffffffffffffff1660001b612703565b905092915050565b60006123d9836000018373ffffffffffffffffffffffffffffffffffffffff1660001b612726565b905092915050565b60006123ef8260000161283a565b9050919050565b6000612405836000018361284b565b60001c905092915050565b6000612438836000018373ffffffffffffffffffffffffffffffffffffffff1660001b612876565b905092915050565b6000603360009054906101000a900473ffffffffffffffffffffffffffffffffffffffff16905081603360006101000a81548173ffffffffffffffffffffffffffffffffffffffff021916908373ffffffffffffffffffffffffffffffffffffffff1602179055508173ffffffffffffffffffffffffffffffffffffffff168173ffffffffffffffffffffffffffffffffffffffff167f8be0079c531659141344cd1fd0a4f28419497f9722a3daafe3b4186f6b6457e060405160405180910390a35050565b6001816000016000828254019250508190555050565b600260685403612561576040517f08c379a000000000000000000000000000000000000000000000000000000000815260040161255890613520565b60405180910390fd5b6002606881905550565b6001606881905550565b6000808273ffffffffffffffffffffffffffffffffffffffff163b119050919050565b600060019054906101000a900460ff166125e7576040517f08c379a00000000000000000000000000000000000000000000000000000000081526004016125de906135b2565b60405180910390fd5b6125ef6128e6565b565b600060019054906101000a900460ff16612640576040517f08c379a0000000000000000000000000000000000000000000000000000000008152600401612637906135b2565b60405180910390fd5b612648612947565b565b60008273ffffffffffffffffffffffffffffffffffffffff168260405161267090613603565b60006040518083038185875af1925050503d80600081146126ad576040519150601f19603f3d011682016040523d82523d6000602084013e6126b2565b606091505b50509050806126f6576040517f08c379a00000000000000000000000000000000000000000000000000000000081526004016126ed90613664565b60405180910390fd5b505050565b600033905090565b600080836001016000848152602001908152602001600020541415905092915050565b6000808360010160008481526020019081526020016000205490506000811461282e57600060018261275891906130c4565b905060006001866000018054905061277091906130c4565b90508181146127df57600086600001828154811061279157612790612fea565b5b90600052602060002001549050808760000184815481106127b5576127b4612fea565b5b90600052602060002001819055508387600101600083815260200190815260200160002081905550505b856000018054806127f3576127f2613684565b5b600190038181906000526020600020016000905590558560010160008681526020019081526020016000206000905560019350505050612834565b60009150505b92915050565b600081600001805490509050919050565b600082600001828154811061286357612862612fea565b5b9060005260206000200154905092915050565b60006128828383612703565b6128db5782600001829080600181540180825580915050600190039060005260206000200160009091909190915055826000018054905083600101600084815260200190815260200160002081905550600190506128e0565b600090505b92915050565b600060019054906101000a900460ff16612935576040517f08c379a000000000000000000000000000000000000000000000000000000000815260040161292c906135b2565b60405180910390fd5b6129456129406126fb565b612440565b565b600060019054906101000a900460ff16612996576040517f08c379a000000000000000000000000000000000000000000000000000000000815260040161298d906135b2565b60405180910390fd5b6001606881905550565b6040518060800160405280600073ffffffffffffffffffffffffffffffffffffffff168152602001600081526020016129d76129e6565b81526020016000151581525090565b604051806060016040528060008152602001600073ffffffffffffffffffffffffffffffffffffffff168152602001600081525090565b600080fd5b60007fffffffff0000000000000000000000000000000000000000000000000000000082169050919050565b612a5781612a22565b8114612a6257600080fd5b50565b600081359050612a7481612a4e565b92915050565b600060208284031215612a9057612a8f612a1d565b5b6000612a9e84828501612a65565b91505092915050565b60008115159050919050565b612abc81612aa7565b82525050565b6000602082019050612ad76000830184612ab3565b92915050565b600081519050919050565b600082825260208201905092915050565b6000819050602082019050919050565b600073ffffffffffffffffffffffffffffffffffffffff82169050919050565b6000612b3482612b09565b9050919050565b612b4481612b29565b82525050565b6000819050919050565b612b5d81612b4a565b82525050565b606082016000820151612b796000850182612b54565b506020820151612b8c6020850182612b3b565b506040820151612b9f6040850182612b54565b50505050565b612bae81612aa7565b82525050565b60c082016000820151612bca6000850182612b3b565b506020820151612bdd6020850182612b54565b506040820151612bf06040850182612b63565b506060820151612c0360a0850182612ba5565b50505050565b6000612c158383612bb4565b60c08301905092915050565b6000602082019050919050565b6000612c3982612add565b612c438185612ae8565b9350612c4e83612af9565b8060005b83811015612c7f578151612c668882612c09565b9750612c7183612c21565b925050600181019050612c52565b5085935050505092915050565b60006020820190508181036000830152612ca68184612c2e565b905092915050565b612cb781612b29565b8114612cc257600080fd5b50565b600081359050612cd481612cae565b92915050565b600060208284031215612cf057612cef612a1d565b5b6000612cfe84828501612cc5565b91505092915050565b600081519050919050565b600082825260208201905092915050565b6000819050602082019050919050565b6000612d3f8383612b3b565b60208301905092915050565b6000602082019050919050565b6000612d6382612d07565b612d6d8185612d12565b9350612d7883612d23565b8060005b83811015612da9578151612d908882612d33565b9750612d9b83612d4b565b925050600181019050612d7c565b5085935050505092915050565b60006020820190508181036000830152612dd08184612d58565b905092915050565b612de181612b4a565b8114612dec57600080fd5b50565b600081359050612dfe81612dd8565b92915050565b600060208284031215612e1a57612e19612a1d565b5b6000612e2884828501612def565b91505092915050565b60c082016000820151612e476000850182612b3b565b506020820151612e5a6020850182612b54565b506040820151612e6d6040850182612b63565b506060820151612e8060a0850182612ba5565b50505050565b600060c082019050612e9b6000830184612e31565b92915050565b60008060408385031215612eb857612eb7612a1d565b5b6000612ec685828601612cc5565b9250506020612ed785828601612def565b9150509250929050565b606082016000820151612ef76000850182612b54565b506020820151612f0a6020850182612b3b565b506040820151612f1d6040850182612b54565b50505050565b6000606082019050612f386000830184612ee1565b92915050565b600080600060608486031215612f5757612f56612a1d565b5b6000612f6586828701612cc5565b9350506020612f7686828701612def565b9250506040612f8786828701612def565b9150509250925092565b612f9a81612b29565b82525050565b6000602082019050612fb56000830184612f91565b92915050565b7f4e487b7100000000000000000000000000000000000000000000000000000000600052604160045260246000fd5b7f4e487b7100000000000000000000000000000000000000000000000000000000600052603260045260246000fd5b7f4e487b7100000000000000000000000000000000000000000000000000000000600052601160045260246000fd5b600061305382612b4a565b915061305e83612b4a565b925082820190508082111561307657613075613019565b5b92915050565b600061308782612b4a565b91507fffffffffffffffffffffffffffffffffffffffffffffffffffffffffffffffff82036130b9576130b8613019565b5b600182019050919050565b60006130cf82612b4a565b91506130da83612b4a565b92508282039050818111156130f2576130f1613019565b5b92915050565b61310181612b4a565b82525050565b600060408201905061311c6000830185612f91565b61312960208301846130f8565b9392505050565b600060208201905061314560008301846130f8565b92915050565b60008151905061315a81612cae565b92915050565b60006020828403121561317657613175612a1d565b5b60006131848482850161314b565b91505092915050565b60006040820190506131a260008301856130f8565b6131af60208301846130f8565b9392505050565b60006060820190506131cb6000830186612f91565b6131d860208301856130f8565b6131e560408301846130f8565b949350505050565b7f4e487b7100000000000000000000000000000000000000000000000000000000600052601260045260246000fd5b600061322782612b4a565b915061323283612b4a565b925082613242576132416131ed565b5b828204905092915050565b600061325882612b4a565b915061326383612b4a565b925082820261327181612b4a565b9150828204841483151761328857613287613019565b5b5092915050565b60006060820190506132a46000830186612f91565b6132b16020830185612f91565b6132be60408301846130f8565b949350505050565b600082825260208201905092915050565b7f496e697469616c697a61626c653a20636f6e747261637420697320616c72656160008201527f647920696e697469616c697a6564000000000000000000000000000000000000602082015250565b6000613333602e836132c6565b915061333e826132d7565b604082019050919050565b6000602082019050818103600083015261336281613326565b9050919050565b6000819050919050565b600060ff82169050919050565b6000819050919050565b60006133a56133a061339b84613369565b613380565b613373565b9050919050565b6133b58161338a565b82525050565b60006020820190506133d060008301846133ac565b92915050565b7f4f776e61626c653a206e6577206f776e657220697320746865207a65726f206160008201527f6464726573730000000000000000000000000000000000000000000000000000602082015250565b60006134326026836132c6565b915061343d826133d6565b604082019050919050565b6000602082019050818103600083015261346181613425565b9050919050565b7f4f776e61626c653a2063616c6c6572206973206e6f7420746865206f776e6572600082015250565b600061349e6020836132c6565b91506134a982613468565b602082019050919050565b600060208201905081810360008301526134cd81613491565b9050919050565b7f5265656e7472616e637947756172643a207265656e7472616e742063616c6c00600082015250565b600061350a601f836132c6565b9150613515826134d4565b602082019050919050565b60006020820190508181036000830152613539816134fd565b9050919050565b7f496e697469616c697a61626c653a20636f6e7472616374206973206e6f74206960008201527f6e697469616c697a696e67000000000000000000000000000000000000000000602082015250565b600061359c602b836132c6565b91506135a782613540565b604082019050919050565b600060208201905081810360008301526135cb8161358f565b9050919050565b600081905092915050565b50565b60006135ed6000836135d2565b91506135f8826135dd565b600082019050919050565b600061360e826135e0565b9150819050919050565b7f5472616e73666572206661696c65642e00000000000000000000000000000000600082015250565b600061364e6010836132c6565b915061365982613618565b602082019050919050565b6000602082019050818103600083015261367d81613641565b9050919050565b7f4e487b7100000000000000000000000000000000000000000000000000000000600052603160045260246000fdfea2646970667358221220336916b31d093ff24f7304d98b088757257fac6a534f119161e6a47091058a2d64736f6c63430008120033",
					"opcodes": "PUSH1 0x80 PUSH1 0x40 MSTORE CALLVALUE DUP1 ISZERO PUSH3 0x11 JUMPI PUSH1 0x0 DUP1 REVERT JUMPDEST POP PUSH3 0x22 PUSH3 0x28 PUSH1 0x20 SHL PUSH1 0x20 SHR JUMP JUMPDEST PUSH3 0x1D2 JUMP JUMPDEST PUSH1 0x0 PUSH1 0x1 SWAP1 SLOAD SWAP1 PUSH2 0x100 EXP SWAP1 DIV PUSH1 0xFF AND ISZERO PUSH3 0x7B JUMPI PUSH1 0x40 MLOAD PUSH32 0x8C379A000000000000000000000000000000000000000000000000000000000 DUP2 MSTORE PUSH1 0x4 ADD PUSH3 0x72 SWAP1 PUSH3 0x175 JUMP JUMPDEST PUSH1 0x40 MLOAD DUP1 SWAP2 SUB SWAP1 REVERT JUMPDEST PUSH1 0xFF DUP1 AND PUSH1 0x0 DUP1 SLOAD SWAP1 PUSH2 0x100 EXP SWAP1 DIV PUSH1 0xFF AND PUSH1 0xFF AND EQ PUSH3 0xEC JUMPI PUSH1 0xFF PUSH1 0x0 DUP1 PUSH2 0x100 EXP DUP2 SLOAD DUP2 PUSH1 0xFF MUL NOT AND SWAP1 DUP4 PUSH1 0xFF AND MUL OR SWAP1 SSTORE POP PUSH32 0x7F26B83FF96E1F2B6A682F133852F6798A09C465DA95921460CEFB3847402498 PUSH1 0xFF PUSH1 0x40 MLOAD PUSH3 0xE3 SWAP2 SWAP1 PUSH3 0x1B5 JUMP JUMPDEST PUSH1 0x40 MLOAD DUP1 SWAP2 SUB SWAP1 LOG1 JUMPDEST JUMP JUMPDEST PUSH1 0x0 DUP3 DUP3 MSTORE PUSH1 0x20 DUP3 ADD SWAP1 POP SWAP3 SWAP2 POP POP JUMP JUMPDEST PUSH32 0x496E697469616C697A61626C653A20636F6E747261637420697320696E697469 PUSH1 0x0 DUP3 ADD MSTORE PUSH32 0x616C697A696E6700000000000000000000000000000000000000000000000000 PUSH1 0x20 DUP3 ADD MSTORE POP JUMP JUMPDEST PUSH1 0x0 PUSH3 0x15D PUSH1 0x27 DUP4 PUSH3 0xEE JUMP JUMPDEST SWAP2 POP PUSH3 0x16A DUP3 PUSH3 0xFF JUMP JUMPDEST PUSH1 0x40 DUP3 ADD SWAP1 POP SWAP2 SWAP1 POP JUMP JUMPDEST PUSH1 0x0 PUSH1 0x20 DUP3 ADD SWAP1 POP DUP2 DUP2 SUB PUSH1 0x0 DUP4 ADD MSTORE PUSH3 0x190 DUP2 PUSH3 0x14E JUMP JUMPDEST SWAP1 POP SWAP2 SWAP1 POP JUMP JUMPDEST PUSH1 0x0 PUSH1 0xFF DUP3 AND SWAP1 POP SWAP2 SWAP1 POP JUMP JUMPDEST PUSH3 0x1AF DUP2 PUSH3 0x197 JUMP JUMPDEST DUP3 MSTORE POP POP JUMP JUMPDEST PUSH1 0x0 PUSH1 0x20 DUP3 ADD SWAP1 POP PUSH3 0x1CC PUSH1 0x0 DUP4 ADD DUP5 PUSH3 0x1A4 JUMP JUMPDEST SWAP3 SWAP2 POP POP JUMP JUMPDEST PUSH2 0x36E9 DUP1 PUSH3 0x1E2 PUSH1 0x0 CODECOPY PUSH1 0x0 RETURN INVALID PUSH1 0x80 PUSH1 0x40 MSTORE PUSH1 0x4 CALLDATASIZE LT PUSH2 0x114 JUMPI PUSH1 0x0 CALLDATALOAD PUSH1 0xE0 SHR DUP1 PUSH4 0x715018A6 GT PUSH2 0xA0 JUMPI DUP1 PUSH4 0xB2DDEE06 GT PUSH2 0x64 JUMPI DUP1 PUSH4 0xB2DDEE06 EQ PUSH2 0x390 JUMPI DUP1 PUSH4 0xC4D66DE8 EQ PUSH2 0x3B9 JUMPI DUP1 PUSH4 0xF2FDE38B EQ PUSH2 0x3E2 JUMPI DUP1 PUSH4 0xF772ADF1 EQ PUSH2 0x40B JUMPI DUP1 PUSH4 0xFA09E630 EQ PUSH2 0x434 JUMPI PUSH2 0x114 JUMP JUMPDEST DUP1 PUSH4 0x715018A6 EQ PUSH2 0x2CC JUMPI DUP1 PUSH4 0x88700D1C EQ PUSH2 0x2E3 JUMPI DUP1 PUSH4 0x89BFD38F EQ PUSH2 0x320 JUMPI DUP1 PUSH4 0x8DA5CB5B EQ PUSH2 0x349 JUMPI DUP1 PUSH4 0x9F37092A EQ PUSH2 0x374 JUMPI PUSH2 0x114 JUMP JUMPDEST DUP1 PUSH4 0x24D7806C GT PUSH2 0xE7 JUMPI DUP1 PUSH4 0x24D7806C EQ PUSH2 0x1D5 JUMPI DUP1 PUSH4 0x2D345670 EQ PUSH2 0x212 JUMPI DUP1 PUSH4 0x31AE450B EQ PUSH2 0x23B JUMPI DUP1 PUSH4 0x4F85310F EQ PUSH2 0x266 JUMPI DUP1 PUSH4 0x6D73E669 EQ PUSH2 0x2A3 JUMPI PUSH2 0x114 JUMP JUMPDEST DUP1 PUSH4 0x1FFC9A7 EQ PUSH2 0x119 JUMPI DUP1 PUSH4 0x15A70D8D EQ PUSH2 0x156 JUMPI DUP1 PUSH4 0x1816467F EQ PUSH2 0x181 JUMPI DUP1 PUSH4 0x1FB0080E EQ PUSH2 0x1AA JUMPI JUMPDEST PUSH1 0x0 DUP1 REVERT JUMPDEST CALLVALUE DUP1 ISZERO PUSH2 0x125 JUMPI PUSH1 0x0 DUP1 REVERT JUMPDEST POP PUSH2 0x140 PUSH1 0x4 DUP1 CALLDATASIZE SUB DUP2 ADD SWAP1 PUSH2 0x13B SWAP2 SWAP1 PUSH2 0x2A7A JUMP JUMPDEST PUSH2 0x45D JUMP JUMPDEST PUSH1 0x40 MLOAD PUSH2 0x14D SWAP2 SWAP1 PUSH2 0x2AC2 JUMP JUMPDEST PUSH1 0x40 MLOAD DUP1 SWAP2 SUB SWAP1 RETURN JUMPDEST CALLVALUE DUP1 ISZERO PUSH2 0x162 JUMPI PUSH1 0x0 DUP1 REVERT JUMPDEST POP PUSH2 0x16B PUSH2 0x4D7 JUMP JUMPDEST PUSH1 0x40 MLOAD PUSH2 0x178 SWAP2 SWAP1 PUSH2 0x2C8C JUMP JUMPDEST PUSH1 0x40 MLOAD DUP1 SWAP2 SUB SWAP1 RETURN JUMPDEST CALLVALUE DUP1 ISZERO PUSH2 0x18D JUMPI PUSH1 0x0 DUP1 REVERT JUMPDEST POP PUSH2 0x1A8 PUSH1 0x4 DUP1 CALLDATASIZE SUB DUP2 ADD SWAP1 PUSH2 0x1A3 SWAP2 SWAP1 PUSH2 0x2CDA JUMP JUMPDEST PUSH2 0x752 JUMP JUMPDEST STOP JUMPDEST CALLVALUE DUP1 ISZERO PUSH2 0x1B6 JUMPI PUSH1 0x0 DUP1 REVERT JUMPDEST POP PUSH2 0x1BF PUSH2 0x79E JUMP JUMPDEST PUSH1 0x40 MLOAD PUSH2 0x1CC SWAP2 SWAP1 PUSH2 0x2C8C JUMP JUMPDEST PUSH1 0x40 MLOAD DUP1 SWAP2 SUB SWAP1 RETURN JUMPDEST CALLVALUE DUP1 ISZERO PUSH2 0x1E1 JUMPI PUSH1 0x0 DUP1 REVERT JUMPDEST POP PUSH2 0x1FC PUSH1 0x4 DUP1 CALLDATASIZE SUB DUP2 ADD SWAP1 PUSH2 0x1F7 SWAP2 SWAP1 PUSH2 0x2CDA JUMP JUMPDEST PUSH2 0x9C6 JUMP JUMPDEST PUSH1 0x40 MLOAD PUSH2 0x209 SWAP2 SWAP1 PUSH2 0x2AC2 JUMP JUMPDEST PUSH1 0x40 MLOAD DUP1 SWAP2 SUB SWAP1 RETURN JUMPDEST CALLVALUE DUP1 ISZERO PUSH2 0x21E JUMPI PUSH1 0x0 DUP1 REVERT JUMPDEST POP PUSH2 0x239 PUSH1 0x4 DUP1 CALLDATASIZE SUB DUP2 ADD SWAP1 PUSH2 0x234 SWAP2 SWAP1 PUSH2 0x2CDA JUMP JUMPDEST PUSH2 0xA20 JUMP JUMPDEST STOP JUMPDEST CALLVALUE DUP1 ISZERO PUSH2 0x247 JUMPI PUSH1 0x0 DUP1 REVERT JUMPDEST POP PUSH2 0x250 PUSH2 0xAB4 JUMP JUMPDEST PUSH1 0x40 MLOAD PUSH2 0x25D SWAP2 SWAP1 PUSH2 0x2DB6 JUMP JUMPDEST PUSH1 0x40 MLOAD DUP1 SWAP2 SUB SWAP1 RETURN JUMPDEST CALLVALUE DUP1 ISZERO PUSH2 0x272 JUMPI PUSH1 0x0 DUP1 REVERT JUMPDEST POP PUSH2 0x28D PUSH1 0x4 DUP1 CALLDATASIZE SUB DUP2 ADD SWAP1 PUSH2 0x288 SWAP2 SWAP1 PUSH2 0x2E04 JUMP JUMPDEST PUSH2 0xB96 JUMP JUMPDEST PUSH1 0x40 MLOAD PUSH2 0x29A SWAP2 SWAP1 PUSH2 0x2E86 JUMP JUMPDEST PUSH1 0x40 MLOAD DUP1 SWAP2 SUB SWAP1 RETURN JUMPDEST CALLVALUE DUP1 ISZERO PUSH2 0x2AF JUMPI PUSH1 0x0 DUP1 REVERT JUMPDEST POP PUSH2 0x2CA PUSH1 0x4 DUP1 CALLDATASIZE SUB DUP2 ADD SWAP1 PUSH2 0x2C5 SWAP2 SWAP1 PUSH2 0x2CDA JUMP JUMPDEST PUSH2 0xCBC JUMP JUMPDEST STOP JUMPDEST CALLVALUE DUP1 ISZERO PUSH2 0x2D8 JUMPI PUSH1 0x0 DUP1 REVERT JUMPDEST POP PUSH2 0x2E1 PUSH2 0xD4F JUMP JUMPDEST STOP JUMPDEST CALLVALUE DUP1 ISZERO PUSH2 0x2EF JUMPI PUSH1 0x0 DUP1 REVERT JUMPDEST POP PUSH2 0x30A PUSH1 0x4 DUP1 CALLDATASIZE SUB DUP2 ADD SWAP1 PUSH2 0x305 SWAP2 SWAP1 PUSH2 0x2EA1 JUMP JUMPDEST PUSH2 0xD63 JUMP JUMPDEST PUSH1 0x40 MLOAD PUSH2 0x317 SWAP2 SWAP1 PUSH2 0x2F23 JUMP JUMPDEST PUSH1 0x40 MLOAD DUP1 SWAP2 SUB SWAP1 RETURN JUMPDEST CALLVALUE DUP1 ISZERO PUSH2 0x32C JUMPI PUSH1 0x0 DUP1 REVERT JUMPDEST POP PUSH2 0x347 PUSH1 0x4 DUP1 CALLDATASIZE SUB DUP2 ADD SWAP1 PUSH2 0x342 SWAP2 SWAP1 PUSH2 0x2F3E JUMP JUMPDEST PUSH2 0xE38 JUMP JUMPDEST STOP JUMPDEST CALLVALUE DUP1 ISZERO PUSH2 0x355 JUMPI PUSH1 0x0 DUP1 REVERT JUMPDEST POP PUSH2 0x35E PUSH2 0x141E JUMP JUMPDEST PUSH1 0x40 MLOAD PUSH2 0x36B SWAP2 SWAP1 PUSH2 0x2FA0 JUMP JUMPDEST PUSH1 0x40 MLOAD DUP1 SWAP2 SUB SWAP1 RETURN JUMPDEST PUSH2 0x38E PUSH1 0x4 DUP1 CALLDATASIZE SUB DUP2 ADD SWAP1 PUSH2 0x389 SWAP2 SWAP1 PUSH2 0x2EA1 JUMP JUMPDEST PUSH2 0x1448 JUMP JUMPDEST STOP JUMPDEST CALLVALUE DUP1 ISZERO PUSH2 0x39C JUMPI PUSH1 0x0 DUP1 REVERT JUMPDEST POP PUSH2 0x3B7 PUSH1 0x4 DUP1 CALLDATASIZE SUB DUP2 ADD SWAP1 PUSH2 0x3B2 SWAP2 SWAP1 PUSH2 0x2EA1 JUMP JUMPDEST PUSH2 0x1963 JUMP JUMPDEST STOP JUMPDEST CALLVALUE DUP1 ISZERO PUSH2 0x3C5 JUMPI PUSH1 0x0 DUP1 REVERT JUMPDEST POP PUSH2 0x3E0 PUSH1 0x4 DUP1 CALLDATASIZE SUB DUP2 ADD SWAP1 PUSH2 0x3DB SWAP2 SWAP1 PUSH2 0x2CDA JUMP JUMPDEST PUSH2 0x1CE1 JUMP JUMPDEST STOP JUMPDEST CALLVALUE DUP1 ISZERO PUSH2 0x3EE JUMPI PUSH1 0x0 DUP1 REVERT JUMPDEST POP PUSH2 0x409 PUSH1 0x4 DUP1 CALLDATASIZE SUB DUP2 ADD SWAP1 PUSH2 0x404 SWAP2 SWAP1 PUSH2 0x2CDA JUMP JUMPDEST PUSH2 0x1E69 JUMP JUMPDEST STOP JUMPDEST CALLVALUE DUP1 ISZERO PUSH2 0x417 JUMPI PUSH1 0x0 DUP1 REVERT JUMPDEST POP PUSH2 0x432 PUSH1 0x4 DUP1 CALLDATASIZE SUB DUP2 ADD SWAP1 PUSH2 0x42D SWAP2 SWAP1 PUSH2 0x2F3E JUMP JUMPDEST PUSH2 0x1EEC JUMP JUMPDEST STOP JUMPDEST CALLVALUE DUP1 ISZERO PUSH2 0x440 JUMPI PUSH1 0x0 DUP1 REVERT JUMPDEST POP PUSH2 0x45B PUSH1 0x4 DUP1 CALLDATASIZE SUB DUP2 ADD SWAP1 PUSH2 0x456 SWAP2 SWAP1 PUSH2 0x2CDA JUMP JUMPDEST PUSH2 0x2263 JUMP JUMPDEST STOP JUMPDEST PUSH1 0x0 PUSH32 0x553E757E00000000000000000000000000000000000000000000000000000000 PUSH28 0xFFFFFFFFFFFFFFFFFFFFFFFFFFFFFFFFFFFFFFFFFFFFFFFFFFFFFFFF NOT AND DUP3 PUSH28 0xFFFFFFFFFFFFFFFFFFFFFFFFFFFFFFFFFFFFFFFFFFFFFFFFFFFFFFFF NOT AND EQ DUP1 PUSH2 0x4D0 JUMPI POP PUSH2 0x4CF DUP3 PUSH2 0x228B JUMP JUMPDEST JUMPDEST SWAP1 POP SWAP2 SWAP1 POP JUMP JUMPDEST PUSH1 0x60 PUSH1 0x0 PUSH2 0x4E5 PUSH1 0x9D PUSH2 0x22F5 JUMP JUMPDEST PUSH8 0xFFFFFFFFFFFFFFFF DUP2 GT ISZERO PUSH2 0x4FE JUMPI PUSH2 0x4FD PUSH2 0x2FBB JUMP JUMPDEST JUMPDEST PUSH1 0x40 MLOAD SWAP1 DUP1 DUP3 MSTORE DUP1 PUSH1 0x20 MUL PUSH1 0x20 ADD DUP3 ADD PUSH1 0x40 MSTORE DUP1 ISZERO PUSH2 0x537 JUMPI DUP2 PUSH1 0x20 ADD JUMPDEST PUSH2 0x524 PUSH2 0x29A0 JUMP JUMPDEST DUP2 MSTORE PUSH1 0x20 ADD SWAP1 PUSH1 0x1 SWAP1 SUB SWAP1 DUP2 PUSH2 0x51C JUMPI SWAP1 POP JUMPDEST POP SWAP1 POP PUSH1 0x0 DUP1 JUMPDEST PUSH2 0x548 PUSH1 0x9D PUSH2 0x22F5 JUMP JUMPDEST DUP2 LT ISZERO PUSH2 0x749 JUMPI CALLER PUSH20 0xFFFFFFFFFFFFFFFFFFFFFFFFFFFFFFFFFFFFFFFF AND PUSH1 0x9C PUSH1 0x0 DUP4 DUP2 MSTORE PUSH1 0x20 ADD SWAP1 DUP2 MSTORE PUSH1 0x20 ADD PUSH1 0x0 KECCAK256 PUSH1 0x2 ADD PUSH1 0x1 ADD PUSH1 0x0 SWAP1 SLOAD SWAP1 PUSH2 0x100 EXP SWAP1 DIV PUSH20 0xFFFFFFFFFFFFFFFFFFFFFFFFFFFFFFFFFFFFFFFF AND PUSH20 0xFFFFFFFFFFFFFFFFFFFFFFFFFFFFFFFFFFFFFFFF AND SUB PUSH2 0x736 JUMPI PUSH1 0x1 ISZERO ISZERO PUSH1 0x9C PUSH1 0x0 DUP4 DUP2 MSTORE PUSH1 0x20 ADD SWAP1 DUP2 MSTORE PUSH1 0x20 ADD PUSH1 0x0 KECCAK256 PUSH1 0x5 ADD PUSH1 0x0 SWAP1 SLOAD SWAP1 PUSH2 0x100 EXP SWAP1 DIV PUSH1 0xFF AND ISZERO ISZERO SUB PUSH2 0x735 JUMPI PUSH1 0x0 PUSH1 0x9C PUSH1 0x0 DUP4 DUP2 MSTORE PUSH1 0x20 ADD SWAP1 DUP2 MSTORE PUSH1 0x20 ADD PUSH1 0x0 KECCAK256 SWAP1 POP DUP1 PUSH1 0x40 MLOAD DUP1 PUSH1 0x80 ADD PUSH1 0x40 MSTORE SWAP1 DUP2 PUSH1 0x0 DUP3 ADD PUSH1 0x0 SWAP1 SLOAD SWAP1 PUSH2 0x100 EXP SWAP1 DIV PUSH20 0xFFFFFFFFFFFFFFFFFFFFFFFFFFFFFFFFFFFFFFFF AND PUSH20 0xFFFFFFFFFFFFFFFFFFFFFFFFFFFFFFFFFFFFFFFF AND PUSH20 0xFFFFFFFFFFFFFFFFFFFFFFFFFFFFFFFFFFFFFFFF AND DUP2 MSTORE PUSH1 0x20 ADD PUSH1 0x1 DUP3 ADD SLOAD DUP2 MSTORE PUSH1 0x20 ADD PUSH1 0x2 DUP3 ADD PUSH1 0x40 MLOAD DUP1 PUSH1 0x60 ADD PUSH1 0x40 MSTORE SWAP1 DUP2 PUSH1 0x0 DUP3 ADD SLOAD DUP2 MSTORE PUSH1 0x20 ADD PUSH1 0x1 DUP3 ADD PUSH1 0x0 SWAP1 SLOAD SWAP1 PUSH2 0x100 EXP SWAP1 DIV PUSH20 0xFFFFFFFFFFFFFFFFFFFFFFFFFFFFFFFFFFFFFFFF AND PUSH20 0xFFFFFFFFFFFFFFFFFFFFFFFFFFFFFFFFFFFFFFFF AND PUSH20 0xFFFFFFFFFFFFFFFFFFFFFFFFFFFFFFFFFFFFFFFF AND DUP2 MSTORE PUSH1 0x20 ADD PUSH1 0x2 DUP3 ADD SLOAD DUP2 MSTORE POP POP DUP2 MSTORE PUSH1 0x20 ADD PUSH1 0x5 DUP3 ADD PUSH1 0x0 SWAP1 SLOAD SWAP1 PUSH2 0x100 EXP SWAP1 DIV PUSH1 0xFF AND ISZERO ISZERO ISZERO ISZERO DUP2 MSTORE POP POP DUP5 DUP5 DUP2 MLOAD DUP2 LT PUSH2 0x719 JUMPI PUSH2 0x718 PUSH2 0x2FEA JUMP JUMPDEST JUMPDEST PUSH1 0x20 MUL PUSH1 0x20 ADD ADD DUP2 SWAP1 MSTORE POP PUSH1 0x1 DUP4 PUSH2 0x731 SWAP2 SWAP1 PUSH2 0x3048 JUMP JUMPDEST SWAP3 POP POP JUMPDEST JUMPDEST DUP1 DUP1 PUSH2 0x741 SWAP1 PUSH2 0x307C JUMP JUMPDEST SWAP2 POP POP PUSH2 0x53E JUMP JUMPDEST POP DUP2 SWAP3 POP POP POP SWAP1 JUMP JUMPDEST PUSH2 0x75A PUSH2 0x2303 JUMP JUMPDEST DUP1 PUSH1 0x67 PUSH1 0x0 PUSH2 0x100 EXP DUP2 SLOAD DUP2 PUSH20 0xFFFFFFFFFFFFFFFFFFFFFFFFFFFFFFFFFFFFFFFF MUL NOT AND SWAP1 DUP4 PUSH20 0xFFFFFFFFFFFFFFFFFFFFFFFFFFFFFFFFFFFFFFFF AND MUL OR SWAP1 SSTORE POP POP JUMP JUMPDEST PUSH1 0x60 PUSH1 0x0 PUSH2 0x7AC PUSH1 0x9E PUSH2 0x22F5 JUMP JUMPDEST PUSH2 0x7B6 PUSH1 0x9D PUSH2 0x22F5 JUMP JUMPDEST PUSH2 0x7C0 SWAP2 SWAP1 PUSH2 0x30C4 JUMP JUMPDEST SWAP1 POP PUSH1 0x0 DUP2 PUSH8 0xFFFFFFFFFFFFFFFF DUP2 GT ISZERO PUSH2 0x7DE JUMPI PUSH2 0x7DD PUSH2 0x2FBB JUMP JUMPDEST JUMPDEST PUSH1 0x40 MLOAD SWAP1 DUP1 DUP3 MSTORE DUP1 PUSH1 0x20 MUL PUSH1 0x20 ADD DUP3 ADD PUSH1 0x40 MSTORE DUP1 ISZERO PUSH2 0x817 JUMPI DUP2 PUSH1 0x20 ADD JUMPDEST PUSH2 0x804 PUSH2 0x29A0 JUMP JUMPDEST DUP2 MSTORE PUSH1 0x20 ADD SWAP1 PUSH1 0x1 SWAP1 SUB SWAP1 DUP2 PUSH2 0x7FC JUMPI SWAP1 POP JUMPDEST POP SWAP1 POP PUSH1 0x0 DUP1 JUMPDEST PUSH2 0x828 PUSH1 0x9D PUSH2 0x22F5 JUMP JUMPDEST DUP2 LT ISZERO PUSH2 0x9BC JUMPI PUSH1 0x1 ISZERO ISZERO PUSH1 0x9C PUSH1 0x0 DUP4 DUP2 MSTORE PUSH1 0x20 ADD SWAP1 DUP2 MSTORE PUSH1 0x20 ADD PUSH1 0x0 KECCAK256 PUSH1 0x5 ADD PUSH1 0x0 SWAP1 SLOAD SWAP1 PUSH2 0x100 EXP SWAP1 DIV PUSH1 0xFF AND ISZERO ISZERO SUB PUSH2 0x9A9 JUMPI PUSH1 0x0 PUSH1 0x9C PUSH1 0x0 DUP4 DUP2 MSTORE PUSH1 0x20 ADD SWAP1 DUP2 MSTORE PUSH1 0x20 ADD PUSH1 0x0 KECCAK256 SWAP1 POP DUP1 PUSH1 0x40 MLOAD DUP1 PUSH1 0x80 ADD PUSH1 0x40 MSTORE SWAP1 DUP2 PUSH1 0x0 DUP3 ADD PUSH1 0x0 SWAP1 SLOAD SWAP1 PUSH2 0x100 EXP SWAP1 DIV PUSH20 0xFFFFFFFFFFFFFFFFFFFFFFFFFFFFFFFFFFFFFFFF AND PUSH20 0xFFFFFFFFFFFFFFFFFFFFFFFFFFFFFFFFFFFFFFFF AND PUSH20 0xFFFFFFFFFFFFFFFFFFFFFFFFFFFFFFFFFFFFFFFF AND DUP2 MSTORE PUSH1 0x20 ADD PUSH1 0x1 DUP3 ADD SLOAD DUP2 MSTORE PUSH1 0x20 ADD PUSH1 0x2 DUP3 ADD PUSH1 0x40 MLOAD DUP1 PUSH1 0x60 ADD PUSH1 0x40 MSTORE SWAP1 DUP2 PUSH1 0x0 DUP3 ADD SLOAD DUP2 MSTORE PUSH1 0x20 ADD PUSH1 0x1 DUP3 ADD PUSH1 0x0 SWAP1 SLOAD SWAP1 PUSH2 0x100 EXP SWAP1 DIV PUSH20 0xFFFFFFFFFFFFFFFFFFFFFFFFFFFFFFFFFFFFFFFF AND PUSH20 0xFFFFFFFFFFFFFFFFFFFFFFFFFFFFFFFFFFFFFFFF AND PUSH20 0xFFFFFFFFFFFFFFFFFFFFFFFFFFFFFFFFFFFFFFFF AND DUP2 MSTORE PUSH1 0x20 ADD PUSH1 0x2 DUP3 ADD SLOAD DUP2 MSTORE POP POP DUP2 MSTORE PUSH1 0x20 ADD PUSH1 0x5 DUP3 ADD PUSH1 0x0 SWAP1 SLOAD SWAP1 PUSH2 0x100 EXP SWAP1 DIV PUSH1 0xFF AND ISZERO ISZERO ISZERO ISZERO DUP2 MSTORE POP POP DUP5 DUP5 DUP2 MLOAD DUP2 LT PUSH2 0x98D JUMPI PUSH2 0x98C PUSH2 0x2FEA JUMP JUMPDEST JUMPDEST PUSH1 0x20 MUL PUSH1 0x20 ADD ADD DUP2 SWAP1 MSTORE POP PUSH1 0x1 DUP4 PUSH2 0x9A5 SWAP2 SWAP1 PUSH2 0x3048 JUMP JUMPDEST SWAP3 POP POP JUMPDEST DUP1 DUP1 PUSH2 0x9B4 SWAP1 PUSH2 0x307C JUMP JUMPDEST SWAP2 POP POP PUSH2 0x81E JUMP JUMPDEST POP DUP2 SWAP4 POP POP POP POP SWAP1 JUMP JUMPDEST PUSH1 0x0 DUP2 PUSH20 0xFFFFFFFFFFFFFFFFFFFFFFFFFFFFFFFFFFFFFFFF AND PUSH2 0x9E7 PUSH2 0x141E JUMP JUMPDEST PUSH20 0xFFFFFFFFFFFFFFFFFFFFFFFFFFFFFFFFFFFFFFFF AND EQ DUP1 PUSH2 0xA19 JUMPI POP PUSH2 0xA18 DUP3 PUSH1 0x65 PUSH2 0x2381 SWAP1 SWAP2 SWAP1 PUSH4 0xFFFFFFFF AND JUMP JUMPDEST JUMPDEST SWAP1 POP SWAP2 SWAP1 POP JUMP JUMPDEST PUSH2 0xA28 PUSH2 0x2303 JUMP JUMPDEST PUSH2 0xA3C DUP2 PUSH1 0x65 PUSH2 0x2381 SWAP1 SWAP2 SWAP1 PUSH4 0xFFFFFFFF AND JUMP JUMPDEST ISZERO PUSH2 0xAB1 JUMPI CALLER PUSH20 0xFFFFFFFFFFFFFFFFFFFFFFFFFFFFFFFFFFFFFFFF AND DUP2 PUSH20 0xFFFFFFFFFFFFFFFFFFFFFFFFFFFFFFFFFFFFFFFF AND PUSH32 0x7C0C3C84C67C85FCAC635147348BFE374C24A1A93D0366D1CFE9D8853CBF89D5 PUSH1 0x40 MLOAD PUSH1 0x40 MLOAD DUP1 SWAP2 SUB SWAP1 LOG3 PUSH2 0xAAF DUP2 PUSH1 0x65 PUSH2 0x23B1 SWAP1 SWAP2 SWAP1 PUSH4 0xFFFFFFFF AND JUMP JUMPDEST POP JUMPDEST POP JUMP JUMPDEST PUSH1 0x60 PUSH2 0xAC0 PUSH1 0x65 PUSH2 0x23E1 JUMP JUMPDEST PUSH8 0xFFFFFFFFFFFFFFFF DUP2 GT ISZERO PUSH2 0xAD9 JUMPI PUSH2 0xAD8 PUSH2 0x2FBB JUMP JUMPDEST JUMPDEST PUSH1 0x40 MLOAD SWAP1 DUP1 DUP3 MSTORE DUP1 PUSH1 0x20 MUL PUSH1 0x20 ADD DUP3 ADD PUSH1 0x40 MSTORE DUP1 ISZERO PUSH2 0xB07 JUMPI DUP2 PUSH1 0x20 ADD PUSH1 0x20 DUP3 MUL DUP1 CALLDATASIZE DUP4 CALLDATACOPY DUP1 DUP3 ADD SWAP2 POP POP SWAP1 POP JUMPDEST POP SWAP1 POP PUSH1 0x0 JUMPDEST PUSH2 0xB17 PUSH1 0x65 PUSH2 0x23E1 JUMP JUMPDEST DUP2 LT ISZERO PUSH2 0xB92 JUMPI PUSH2 0xB32 DUP2 PUSH1 0x65 PUSH2 0x23F6 SWAP1 SWAP2 SWAP1 PUSH4 0xFFFFFFFF AND JUMP JUMPDEST DUP3 DUP3 DUP2 MLOAD DUP2 LT PUSH2 0xB45 JUMPI PUSH2 0xB44 PUSH2 0x2FEA JUMP JUMPDEST JUMPDEST PUSH1 0x20 MUL PUSH1 0x20 ADD ADD SWAP1 PUSH20 0xFFFFFFFFFFFFFFFFFFFFFFFFFFFFFFFFFFFFFFFF AND SWAP1 DUP2 PUSH20 0xFFFFFFFFFFFFFFFFFFFFFFFFFFFFFFFFFFFFFFFF AND DUP2 MSTORE POP POP DUP1 DUP1 PUSH2 0xB8A SWAP1 PUSH2 0x307C JUMP JUMPDEST SWAP2 POP POP PUSH2 0xB0D JUMP JUMPDEST POP SWAP1 JUMP JUMPDEST PUSH2 0xB9E PUSH2 0x29A0 JUMP JUMPDEST PUSH1 0x9C PUSH1 0x0 DUP4 DUP2 MSTORE PUSH1 0x20 ADD SWAP1 DUP2 MSTORE PUSH1 0x20 ADD PUSH1 0x0 KECCAK256 PUSH1 0x40 MLOAD DUP1 PUSH1 0x80 ADD PUSH1 0x40 MSTORE SWAP1 DUP2 PUSH1 0x0 DUP3 ADD PUSH1 0x0 SWAP1 SLOAD SWAP1 PUSH2 0x100 EXP SWAP1 DIV PUSH20 0xFFFFFFFFFFFFFFFFFFFFFFFFFFFFFFFFFFFFFFFF AND PUSH20 0xFFFFFFFFFFFFFFFFFFFFFFFFFFFFFFFFFFFFFFFF AND PUSH20 0xFFFFFFFFFFFFFFFFFFFFFFFFFFFFFFFFFFFFFFFF AND DUP2 MSTORE PUSH1 0x20 ADD PUSH1 0x1 DUP3 ADD SLOAD DUP2 MSTORE PUSH1 0x20 ADD PUSH1 0x2 DUP3 ADD PUSH1 0x40 MLOAD DUP1 PUSH1 0x60 ADD PUSH1 0x40 MSTORE SWAP1 DUP2 PUSH1 0x0 DUP3 ADD SLOAD DUP2 MSTORE PUSH1 0x20 ADD PUSH1 0x1 DUP3 ADD PUSH1 0x0 SWAP1 SLOAD SWAP1 PUSH2 0x100 EXP SWAP1 DIV PUSH20 0xFFFFFFFFFFFFFFFFFFFFFFFFFFFFFFFFFFFFFFFF AND PUSH20 0xFFFFFFFFFFFFFFFFFFFFFFFFFFFFFFFFFFFFFFFF AND PUSH20 0xFFFFFFFFFFFFFFFFFFFFFFFFFFFFFFFFFFFFFFFF AND DUP2 MSTORE PUSH1 0x20 ADD PUSH1 0x2 DUP3 ADD SLOAD DUP2 MSTORE POP POP DUP2 MSTORE PUSH1 0x20 ADD PUSH1 0x5 DUP3 ADD PUSH1 0x0 SWAP1 SLOAD SWAP1 PUSH2 0x100 EXP SWAP1 DIV PUSH1 0xFF AND ISZERO ISZERO ISZERO ISZERO DUP2 MSTORE POP POP SWAP1 POP SWAP2 SWAP1 POP JUMP JUMPDEST PUSH2 0xCC4 PUSH2 0x2303 JUMP JUMPDEST PUSH2 0xCD8 DUP2 PUSH1 0x65 PUSH2 0x2381 SWAP1 SWAP2 SWAP1 PUSH4 0xFFFFFFFF AND JUMP JUMPDEST PUSH2 0xD4C JUMPI CALLER PUSH20 0xFFFFFFFFFFFFFFFFFFFFFFFFFFFFFFFFFFFFFFFF AND DUP2 PUSH20 0xFFFFFFFFFFFFFFFFFFFFFFFFFFFFFFFFFFFFFFFF AND PUSH32 0x7E1A1A08D52E4BA0E21554733D66165FD5151F99460116223D9E3A608EEC5CB1 PUSH1 0x40 MLOAD PUSH1 0x40 MLOAD DUP1 SWAP2 SUB SWAP1 LOG3 PUSH2 0xD4A DUP2 PUSH1 0x65 PUSH2 0x2410 SWAP1 SWAP2 SWAP1 PUSH4 0xFFFFFFFF AND JUMP JUMPDEST POP JUMPDEST POP JUMP JUMPDEST PUSH2 0xD57 PUSH2 0x2303 JUMP JUMPDEST PUSH2 0xD61 PUSH1 0x0 PUSH2 0x2440 JUMP JUMPDEST JUMP JUMPDEST PUSH2 0xD6B PUSH2 0x29E6 JUMP JUMPDEST PUSH1 0x9A PUSH1 0x0 DUP5 PUSH20 0xFFFFFFFFFFFFFFFFFFFFFFFFFFFFFFFFFFFFFFFF AND PUSH20 0xFFFFFFFFFFFFFFFFFFFFFFFFFFFFFFFFFFFFFFFF AND DUP2 MSTORE PUSH1 0x20 ADD SWAP1 DUP2 MSTORE PUSH1 0x20 ADD PUSH1 0x0 KECCAK256 PUSH1 0x0 DUP4 DUP2 MSTORE PUSH1 0x20 ADD SWAP1 DUP2 MSTORE PUSH1 0x20 ADD PUSH1 0x0 KECCAK256 PUSH1 0x40 MLOAD DUP1 PUSH1 0x60 ADD PUSH1 0x40 MSTORE SWAP1 DUP2 PUSH1 0x0 DUP3 ADD SLOAD DUP2 MSTORE PUSH1 0x20 ADD PUSH1 0x1 DUP3 ADD PUSH1 0x0 SWAP1 SLOAD SWAP1 PUSH2 0x100 EXP SWAP1 DIV PUSH20 0xFFFFFFFFFFFFFFFFFFFFFFFFFFFFFFFFFFFFFFFF AND PUSH20 0xFFFFFFFFFFFFFFFFFFFFFFFFFFFFFFFFFFFFFFFF AND PUSH20 0xFFFFFFFFFFFFFFFFFFFFFFFFFFFFFFFFFFFFFFFF AND DUP2 MSTORE PUSH1 0x20 ADD PUSH1 0x2 DUP3 ADD SLOAD DUP2 MSTORE POP POP SWAP1 POP SWAP3 SWAP2 POP POP JUMP JUMPDEST DUP3 DUP3 CALLER PUSH1 0x0 PUSH1 0x9A PUSH1 0x0 DUP6 PUSH20 0xFFFFFFFFFFFFFFFFFFFFFFFFFFFFFFFFFFFFFFFF AND PUSH20 0xFFFFFFFFFFFFFFFFFFFFFFFFFFFFFFFFFFFFFFFF AND DUP2 MSTORE PUSH1 0x20 ADD SWAP1 DUP2 MSTORE PUSH1 0x20 ADD PUSH1 0x0 KECCAK256 PUSH1 0x0 DUP5 DUP2 MSTORE PUSH1 0x20 ADD SWAP1 DUP2 MSTORE PUSH1 0x20 ADD PUSH1 0x0 KECCAK256 PUSH1 0x40 MLOAD DUP1 PUSH1 0x60 ADD PUSH1 0x40 MSTORE SWAP1 DUP2 PUSH1 0x0 DUP3 ADD SLOAD DUP2 MSTORE PUSH1 0x20 ADD PUSH1 0x1 DUP3 ADD PUSH1 0x0 SWAP1 SLOAD SWAP1 PUSH2 0x100 EXP SWAP1 DIV PUSH20 0xFFFFFFFFFFFFFFFFFFFFFFFFFFFFFFFFFFFFFFFF AND PUSH20 0xFFFFFFFFFFFFFFFFFFFFFFFFFFFFFFFFFFFFFFFF AND PUSH20 0xFFFFFFFFFFFFFFFFFFFFFFFFFFFFFFFFFFFFFFFF AND DUP2 MSTORE PUSH1 0x20 ADD PUSH1 0x2 DUP3 ADD SLOAD DUP2 MSTORE POP POP SWAP1 POP PUSH1 0x0 DUP2 PUSH1 0x0 ADD MLOAD GT ISZERO PUSH2 0xF50 JUMPI DUP4 DUP4 PUSH1 0x40 MLOAD PUSH32 0x4A5568D500000000000000000000000000000000000000000000000000000000 DUP2 MSTORE PUSH1 0x4 ADD PUSH2 0xF47 SWAP3 SWAP2 SWAP1 PUSH2 0x3107 JUMP JUMPDEST PUSH1 0x40 MLOAD DUP1 SWAP2 SUB SWAP1 REVERT JUMPDEST DUP7 DUP7 CALLER PUSH1 0x0 DUP4 SWAP1 POP PUSH1 0x0 DUP2 PUSH20 0xFFFFFFFFFFFFFFFFFFFFFFFFFFFFFFFFFFFFFFFF AND PUSH4 0x6352211E DUP6 PUSH1 0x40 MLOAD DUP3 PUSH4 0xFFFFFFFF AND PUSH1 0xE0 SHL DUP2 MSTORE PUSH1 0x4 ADD PUSH2 0xF93 SWAP2 SWAP1 PUSH2 0x3130 JUMP JUMPDEST PUSH1 0x20 PUSH1 0x40 MLOAD DUP1 DUP4 SUB DUP2 DUP7 GAS STATICCALL ISZERO DUP1 ISZERO PUSH2 0xFB0 JUMPI RETURNDATASIZE PUSH1 0x0 DUP1 RETURNDATACOPY RETURNDATASIZE PUSH1 0x0 REVERT JUMPDEST POP POP POP POP PUSH1 0x40 MLOAD RETURNDATASIZE PUSH1 0x1F NOT PUSH1 0x1F DUP3 ADD AND DUP3 ADD DUP1 PUSH1 0x40 MSTORE POP DUP2 ADD SWAP1 PUSH2 0xFD4 SWAP2 SWAP1 PUSH2 0x3160 JUMP JUMPDEST SWAP1 POP DUP1 PUSH20 0xFFFFFFFFFFFFFFFFFFFFFFFFFFFFFFFFFFFFFFFF AND DUP4 PUSH20 0xFFFFFFFFFFFFFFFFFFFFFFFFFFFFFFFFFFFFFFFF AND EQ PUSH2 0x103B JUMPI PUSH1 0x40 MLOAD PUSH32 0x30CD747100000000000000000000000000000000000000000000000000000000 DUP2 MSTORE PUSH1 0x4 ADD PUSH1 0x40 MLOAD DUP1 SWAP2 SUB SWAP1 REVERT JUMPDEST PUSH1 0x0 DUP11 GT PUSH2 0x1075 JUMPI PUSH1 0x40 MLOAD PUSH32 0xE1ABBFC500000000000000000000000000000000000000000000000000000000 DUP2 MSTORE PUSH1 0x4 ADD PUSH1 0x40 MLOAD DUP1 SWAP2 SUB SWAP1 REVERT JUMPDEST PUSH1 0x0 DUP13 SWAP1 POP PUSH1 0x0 DUP13 SWAP1 POP PUSH1 0x0 DUP3 SWAP1 POP ADDRESS PUSH20 0xFFFFFFFFFFFFFFFFFFFFFFFFFFFFFFFFFFFFFFFF AND DUP2 PUSH20 0xFFFFFFFFFFFFFFFFFFFFFFFFFFFFFFFFFFFFFFFF AND PUSH4 0x81812FC DUP5 PUSH1 0x40 MLOAD DUP3 PUSH4 0xFFFFFFFF AND PUSH1 0xE0 SHL DUP2 MSTORE PUSH1 0x4 ADD PUSH2 0x10D4 SWAP2 SWAP1 PUSH2 0x3130 JUMP JUMPDEST PUSH1 0x20 PUSH1 0x40 MLOAD DUP1 DUP4 SUB DUP2 DUP7 GAS STATICCALL ISZERO DUP1 ISZERO PUSH2 0x10F1 JUMPI RETURNDATASIZE PUSH1 0x0 DUP1 RETURNDATACOPY RETURNDATASIZE PUSH1 0x0 REVERT JUMPDEST POP POP POP POP PUSH1 0x40 MLOAD RETURNDATASIZE PUSH1 0x1F NOT PUSH1 0x1F DUP3 ADD AND DUP3 ADD DUP1 PUSH1 0x40 MSTORE POP DUP2 ADD SWAP1 PUSH2 0x1115 SWAP2 SWAP1 PUSH2 0x3160 JUMP JUMPDEST PUSH20 0xFFFFFFFFFFFFFFFFFFFFFFFFFFFFFFFFFFFFFFFF AND EQ PUSH2 0x1162 JUMPI PUSH1 0x40 MLOAD PUSH32 0x4BE3A2C500000000000000000000000000000000000000000000000000000000 DUP2 MSTORE PUSH1 0x4 ADD PUSH1 0x40 MLOAD DUP1 SWAP2 SUB SWAP1 REVERT JUMPDEST PUSH1 0x0 PUSH1 0x40 MLOAD DUP1 PUSH1 0x60 ADD PUSH1 0x40 MSTORE DUP1 DUP16 DUP2 MSTORE PUSH1 0x20 ADD CALLER PUSH20 0xFFFFFFFFFFFFFFFFFFFFFFFFFFFFFFFFFFFFFFFF AND DUP2 MSTORE PUSH1 0x20 ADD PUSH2 0x119B PUSH1 0x9D PUSH2 0x22F5 JUMP JUMPDEST DUP2 MSTORE POP SWAP1 POP DUP1 PUSH1 0x9A PUSH1 0x0 DUP7 PUSH20 0xFFFFFFFFFFFFFFFFFFFFFFFFFFFFFFFFFFFFFFFF AND PUSH20 0xFFFFFFFFFFFFFFFFFFFFFFFFFFFFFFFFFFFFFFFF AND DUP2 MSTORE PUSH1 0x20 ADD SWAP1 DUP2 MSTORE PUSH1 0x20 ADD PUSH1 0x0 KECCAK256 PUSH1 0x0 DUP6 DUP2 MSTORE PUSH1 0x20 ADD SWAP1 DUP2 MSTORE PUSH1 0x20 ADD PUSH1 0x0 KECCAK256 PUSH1 0x0 DUP3 ADD MLOAD DUP2 PUSH1 0x0 ADD SSTORE PUSH1 0x20 DUP3 ADD MLOAD DUP2 PUSH1 0x1 ADD PUSH1 0x0 PUSH2 0x100 EXP DUP2 SLOAD DUP2 PUSH20 0xFFFFFFFFFFFFFFFFFFFFFFFFFFFFFFFFFFFFFFFF MUL NOT AND SWAP1 DUP4 PUSH20 0xFFFFFFFFFFFFFFFFFFFFFFFFFFFFFFFFFFFFFFFF AND MUL OR SWAP1 SSTORE POP PUSH1 0x40 DUP3 ADD MLOAD DUP2 PUSH1 0x2 ADD SSTORE SWAP1 POP POP PUSH1 0x0 PUSH1 0x40 MLOAD DUP1 PUSH1 0x80 ADD PUSH1 0x40 MSTORE DUP1 DUP7 PUSH20 0xFFFFFFFFFFFFFFFFFFFFFFFFFFFFFFFFFFFFFFFF AND DUP2 MSTORE PUSH1 0x20 ADD DUP6 DUP2 MSTORE PUSH1 0x20 ADD DUP4 DUP2 MSTORE PUSH1 0x20 ADD PUSH1 0x1 ISZERO ISZERO DUP2 MSTORE POP SWAP1 POP DUP1 PUSH1 0x9C PUSH1 0x0 PUSH2 0x129C PUSH1 0x9D PUSH2 0x22F5 JUMP JUMPDEST DUP2 MSTORE PUSH1 0x20 ADD SWAP1 DUP2 MSTORE PUSH1 0x20 ADD PUSH1 0x0 KECCAK256 PUSH1 0x0 DUP3 ADD MLOAD DUP2 PUSH1 0x0 ADD PUSH1 0x0 PUSH2 0x100 EXP DUP2 SLOAD DUP2 PUSH20 0xFFFFFFFFFFFFFFFFFFFFFFFFFFFFFFFFFFFFFFFF MUL NOT AND SWAP1 DUP4 PUSH20 0xFFFFFFFFFFFFFFFFFFFFFFFFFFFFFFFFFFFFFFFF AND MUL OR SWAP1 SSTORE POP PUSH1 0x20 DUP3 ADD MLOAD DUP2 PUSH1 0x1 ADD SSTORE PUSH1 0x40 DUP3 ADD MLOAD DUP2 PUSH1 0x2 ADD PUSH1 0x0 DUP3 ADD MLOAD DUP2 PUSH1 0x0 ADD SSTORE PUSH1 0x20 DUP3 ADD MLOAD DUP2 PUSH1 0x1 ADD PUSH1 0x0 PUSH2 0x100 EXP DUP2 SLOAD DUP2 PUSH20 0xFFFFFFFFFFFFFFFFFFFFFFFFFFFFFFFFFFFFFFFF MUL NOT AND SWAP1 DUP4 PUSH20 0xFFFFFFFFFFFFFFFFFFFFFFFFFFFFFFFFFFFFFFFF AND MUL OR SWAP1 SSTORE POP PUSH1 0x40 DUP3 ADD MLOAD DUP2 PUSH1 0x2 ADD SSTORE POP POP PUSH1 0x60 DUP3 ADD MLOAD DUP2 PUSH1 0x5 ADD PUSH1 0x0 PUSH2 0x100 EXP DUP2 SLOAD DUP2 PUSH1 0xFF MUL NOT AND SWAP1 DUP4 ISZERO ISZERO MUL OR SWAP1 SSTORE POP SWAP1 POP POP PUSH2 0x138E PUSH1 0x9D PUSH2 0x2506 JUMP JUMPDEST POP POP POP POP POP DUP11 DUP13 PUSH20 0xFFFFFFFFFFFFFFFFFFFFFFFFFFFFFFFFFFFFFFFF AND CALLER PUSH20 0xFFFFFFFFFFFFFFFFFFFFFFFFFFFFFFFFFFFFFFFF AND PUSH32 0x424B3284A7958BB7965C27CA0B2A8B30CE2A56BA954533DF15E6BDED1B608ED7 PUSH1 0x1 PUSH2 0x13EF PUSH1 0x9D PUSH2 0x22F5 JUMP JUMPDEST PUSH2 0x13F9 SWAP2 SWAP1 PUSH2 0x30C4 JUMP JUMPDEST DUP15 PUSH1 0x40 MLOAD PUSH2 0x1408 SWAP3 SWAP2 SWAP1 PUSH2 0x318D JUMP JUMPDEST PUSH1 0x40 MLOAD DUP1 SWAP2 SUB SWAP1 LOG4 POP POP POP POP POP POP POP POP POP POP POP POP JUMP JUMPDEST PUSH1 0x0 PUSH1 0x33 PUSH1 0x0 SWAP1 SLOAD SWAP1 PUSH2 0x100 EXP SWAP1 DIV PUSH20 0xFFFFFFFFFFFFFFFFFFFFFFFFFFFFFFFFFFFFFFFF AND SWAP1 POP SWAP1 JUMP JUMPDEST DUP2 DUP2 PUSH1 0x0 PUSH1 0x9A PUSH1 0x0 DUP5 PUSH20 0xFFFFFFFFFFFFFFFFFFFFFFFFFFFFFFFFFFFFFFFF AND PUSH20 0xFFFFFFFFFFFFFFFFFFFFFFFFFFFFFFFFFFFFFFFF AND DUP2 MSTORE PUSH1 0x20 ADD SWAP1 DUP2 MSTORE PUSH1 0x20 ADD PUSH1 0x0 KECCAK256 PUSH1 0x0 DUP4 DUP2 MSTORE PUSH1 0x20 ADD SWAP1 DUP2 MSTORE PUSH1 0x20 ADD PUSH1 0x0 KECCAK256 PUSH1 0x40 MLOAD DUP1 PUSH1 0x60 ADD PUSH1 0x40 MSTORE SWAP1 DUP2 PUSH1 0x0 DUP3 ADD SLOAD DUP2 MSTORE PUSH1 0x20 ADD PUSH1 0x1 DUP3 ADD PUSH1 0x0 SWAP1 SLOAD SWAP1 PUSH2 0x100 EXP SWAP1 DIV PUSH20 0xFFFFFFFFFFFFFFFFFFFFFFFFFFFFFFFFFFFFFFFF AND PUSH20 0xFFFFFFFFFFFFFFFFFFFFFFFFFFFFFFFFFFFFFFFF AND PUSH20 0xFFFFFFFFFFFFFFFFFFFFFFFFFFFFFFFFFFFFFFFF AND DUP2 MSTORE PUSH1 0x20 ADD PUSH1 0x2 DUP3 ADD SLOAD DUP2 MSTORE POP POP SWAP1 POP PUSH1 0x0 DUP2 PUSH1 0x0 ADD MLOAD GT PUSH2 0x155E JUMPI DUP3 DUP3 PUSH1 0x40 MLOAD PUSH32 0x6831488C00000000000000000000000000000000000000000000000000000000 DUP2 MSTORE PUSH1 0x4 ADD PUSH2 0x1555 SWAP3 SWAP2 SWAP1 PUSH2 0x3107 JUMP JUMPDEST PUSH1 0x40 MLOAD DUP1 SWAP2 SUB SWAP1 REVERT JUMPDEST PUSH2 0x1566 PUSH2 0x251C JUMP JUMPDEST PUSH1 0x0 PUSH1 0x9A PUSH1 0x0 DUP8 PUSH20 0xFFFFFFFFFFFFFFFFFFFFFFFFFFFFFFFFFFFFFFFF AND PUSH20 0xFFFFFFFFFFFFFFFFFFFFFFFFFFFFFFFFFFFFFFFF AND DUP2 MSTORE PUSH1 0x20 ADD SWAP1 DUP2 MSTORE PUSH1 0x20 ADD PUSH1 0x0 KECCAK256 PUSH1 0x0 DUP7 DUP2 MSTORE PUSH1 0x20 ADD SWAP1 DUP2 MSTORE PUSH1 0x20 ADD PUSH1 0x0 KECCAK256 PUSH1 0x40 MLOAD DUP1 PUSH1 0x60 ADD PUSH1 0x40 MSTORE SWAP1 DUP2 PUSH1 0x0 DUP3 ADD SLOAD DUP2 MSTORE PUSH1 0x20 ADD PUSH1 0x1 DUP3 ADD PUSH1 0x0 SWAP1 SLOAD SWAP1 PUSH2 0x100 EXP SWAP1 DIV PUSH20 0xFFFFFFFFFFFFFFFFFFFFFFFFFFFFFFFFFFFFFFFF AND PUSH20 0xFFFFFFFFFFFFFFFFFFFFFFFFFFFFFFFFFFFFFFFF AND PUSH20 0xFFFFFFFFFFFFFFFFFFFFFFFFFFFFFFFFFFFFFFFF AND DUP2 MSTORE PUSH1 0x20 ADD PUSH1 0x2 DUP3 ADD SLOAD DUP2 MSTORE POP POP SWAP1 POP DUP1 PUSH1 0x0 ADD MLOAD CALLVALUE LT ISZERO PUSH2 0x1680 JUMPI DUP6 DUP6 DUP3 PUSH1 0x0 ADD MLOAD PUSH1 0x40 MLOAD PUSH32 0x7C93456500000000000000000000000000000000000000000000000000000000 DUP2 MSTORE PUSH1 0x4 ADD PUSH2 0x1677 SWAP4 SWAP3 SWAP2 SWAP1 PUSH2 0x31B6 JUMP JUMPDEST PUSH1 0x40 MLOAD DUP1 SWAP2 SUB SWAP1 REVERT JUMPDEST PUSH1 0x67 PUSH1 0x0 SWAP1 SLOAD SWAP1 PUSH2 0x100 EXP SWAP1 DIV PUSH20 0xFFFFFFFFFFFFFFFFFFFFFFFFFFFFFFFFFFFFFFFF AND PUSH20 0xFFFFFFFFFFFFFFFFFFFFFFFFFFFFFFFFFFFFFFFF AND PUSH2 0x8FC PUSH1 0x64 DUP4 PUSH1 0x0 ADD MLOAD PUSH2 0x16CD SWAP2 SWAP1 PUSH2 0x321C JUMP JUMPDEST SWAP1 DUP2 ISZERO MUL SWAP1 PUSH1 0x40 MLOAD PUSH1 0x0 PUSH1 0x40 MLOAD DUP1 DUP4 SUB DUP2 DUP6 DUP9 DUP9 CALL SWAP4 POP POP POP POP ISZERO DUP1 ISZERO PUSH2 0x16F8 JUMPI RETURNDATASIZE PUSH1 0x0 DUP1 RETURNDATACOPY RETURNDATASIZE PUSH1 0x0 REVERT JUMPDEST POP DUP1 PUSH1 0x20 ADD MLOAD PUSH20 0xFFFFFFFFFFFFFFFFFFFFFFFFFFFFFFFFFFFFFFFF AND PUSH2 0x8FC PUSH1 0x61 PUSH1 0x64 DUP5 PUSH1 0x0 ADD MLOAD PUSH2 0x172A SWAP2 SWAP1 PUSH2 0x321C JUMP JUMPDEST PUSH2 0x1734 SWAP2 SWAP1 PUSH2 0x324D JUMP JUMPDEST SWAP1 DUP2 ISZERO MUL SWAP1 PUSH1 0x40 MLOAD PUSH1 0x0 PUSH1 0x40 MLOAD DUP1 DUP4 SUB DUP2 DUP6 DUP9 DUP9 CALL SWAP4 POP POP POP POP ISZERO DUP1 ISZERO PUSH2 0x175F JUMPI RETURNDATASIZE PUSH1 0x0 DUP1 RETURNDATACOPY RETURNDATASIZE PUSH1 0x0 REVERT JUMPDEST POP PUSH1 0x0 PUSH1 0x9C PUSH1 0x0 PUSH1 0x9A PUSH1 0x0 DUP11 PUSH20 0xFFFFFFFFFFFFFFFFFFFFFFFFFFFFFFFFFFFFFFFF AND PUSH20 0xFFFFFFFFFFFFFFFFFFFFFFFFFFFFFFFFFFFFFFFF AND DUP2 MSTORE PUSH1 0x20 ADD SWAP1 DUP2 MSTORE PUSH1 0x20 ADD PUSH1 0x0 KECCAK256 PUSH1 0x0 DUP10 DUP2 MSTORE PUSH1 0x20 ADD SWAP1 DUP2 MSTORE PUSH1 0x20 ADD PUSH1 0x0 KECCAK256 PUSH1 0x2 ADD SLOAD DUP2 MSTORE PUSH1 0x20 ADD SWAP1 DUP2 MSTORE PUSH1 0x20 ADD PUSH1 0x0 KECCAK256 PUSH1 0x5 ADD PUSH1 0x0 PUSH2 0x100 EXP DUP2 SLOAD DUP2 PUSH1 0xFF MUL NOT AND SWAP1 DUP4 ISZERO ISZERO MUL OR SWAP1 SSTORE POP PUSH1 0x9A PUSH1 0x0 DUP8 PUSH20 0xFFFFFFFFFFFFFFFFFFFFFFFFFFFFFFFFFFFFFFFF AND PUSH20 0xFFFFFFFFFFFFFFFFFFFFFFFFFFFFFFFFFFFFFFFF AND DUP2 MSTORE PUSH1 0x20 ADD SWAP1 DUP2 MSTORE PUSH1 0x20 ADD PUSH1 0x0 KECCAK256 PUSH1 0x0 DUP7 DUP2 MSTORE PUSH1 0x20 ADD SWAP1 DUP2 MSTORE PUSH1 0x20 ADD PUSH1 0x0 KECCAK256 PUSH1 0x0 DUP1 DUP3 ADD PUSH1 0x0 SWAP1 SSTORE PUSH1 0x1 DUP3 ADD PUSH1 0x0 PUSH2 0x100 EXP DUP2 SLOAD SWAP1 PUSH20 0xFFFFFFFFFFFFFFFFFFFFFFFFFFFFFFFFFFFFFFFF MUL NOT AND SWAP1 SSTORE PUSH1 0x2 DUP3 ADD PUSH1 0x0 SWAP1 SSTORE POP POP DUP6 PUSH20 0xFFFFFFFFFFFFFFFFFFFFFFFFFFFFFFFFFFFFFFFF AND PUSH4 0x42842E0E DUP3 PUSH1 0x20 ADD MLOAD CALLER DUP9 PUSH1 0x40 MLOAD DUP5 PUSH4 0xFFFFFFFF AND PUSH1 0xE0 SHL DUP2 MSTORE PUSH1 0x4 ADD PUSH2 0x18AD SWAP4 SWAP3 SWAP2 SWAP1 PUSH2 0x328F JUMP JUMPDEST PUSH1 0x0 PUSH1 0x40 MLOAD DUP1 DUP4 SUB DUP2 PUSH1 0x0 DUP8 DUP1 EXTCODESIZE ISZERO DUP1 ISZERO PUSH2 0x18C7 JUMPI PUSH1 0x0 DUP1 REVERT JUMPDEST POP GAS CALL ISZERO DUP1 ISZERO PUSH2 0x18DB JUMPI RETURNDATASIZE PUSH1 0x0 DUP1 RETURNDATACOPY RETURNDATASIZE PUSH1 0x0 REVERT JUMPDEST POP POP POP POP PUSH2 0x18E9 PUSH1 0x9E PUSH2 0x2506 JUMP JUMPDEST DUP5 DUP7 PUSH20 0xFFFFFFFFFFFFFFFFFFFFFFFFFFFFFFFFFFFFFFFF AND CALLER PUSH20 0xFFFFFFFFFFFFFFFFFFFFFFFFFFFFFFFFFFFFFFFF AND PUSH32 0x263223B1DD81E51054A4E6F791D45A4A1DDB4AADCD93A2DFD892615C3FDAC187 DUP5 PUSH1 0x0 ADD MLOAD PUSH1 0x40 MLOAD PUSH2 0x194B SWAP2 SWAP1 PUSH2 0x3130 JUMP JUMPDEST PUSH1 0x40 MLOAD DUP1 SWAP2 SUB SWAP1 LOG4 POP PUSH2 0x195C PUSH2 0x256B JUMP JUMPDEST POP POP POP POP POP JUMP JUMPDEST DUP2 DUP2 CALLER PUSH1 0x0 DUP4 SWAP1 POP PUSH1 0x0 DUP2 PUSH20 0xFFFFFFFFFFFFFFFFFFFFFFFFFFFFFFFFFFFFFFFF AND PUSH4 0x6352211E DUP6 PUSH1 0x40 MLOAD DUP3 PUSH4 0xFFFFFFFF AND PUSH1 0xE0 SHL DUP2 MSTORE PUSH1 0x4 ADD PUSH2 0x19A6 SWAP2 SWAP1 PUSH2 0x3130 JUMP JUMPDEST PUSH1 0x20 PUSH1 0x40 MLOAD DUP1 DUP4 SUB DUP2 DUP7 GAS STATICCALL ISZERO DUP1 ISZERO PUSH2 0x19C3 JUMPI RETURNDATASIZE PUSH1 0x0 DUP1 RETURNDATACOPY RETURNDATASIZE PUSH1 0x0 REVERT JUMPDEST POP POP POP POP PUSH1 0x40 MLOAD RETURNDATASIZE PUSH1 0x1F NOT PUSH1 0x1F DUP3 ADD AND DUP3 ADD DUP1 PUSH1 0x40 MSTORE POP DUP2 ADD SWAP1 PUSH2 0x19E7 SWAP2 SWAP1 PUSH2 0x3160 JUMP JUMPDEST SWAP1 POP DUP1 PUSH20 0xFFFFFFFFFFFFFFFFFFFFFFFFFFFFFFFFFFFFFFFF AND DUP4 PUSH20 0xFFFFFFFFFFFFFFFFFFFFFFFFFFFFFFFFFFFFFFFF AND EQ PUSH2 0x1A4E JUMPI PUSH1 0x40 MLOAD PUSH32 0x30CD747100000000000000000000000000000000000000000000000000000000 DUP2 MSTORE PUSH1 0x4 ADD PUSH1 0x40 MLOAD DUP1 SWAP2 SUB SWAP1 REVERT JUMPDEST DUP7 DUP7 PUSH1 0x0 PUSH1 0x9A PUSH1 0x0 DUP5 PUSH20 0xFFFFFFFFFFFFFFFFFFFFFFFFFFFFFFFFFFFFFFFF AND PUSH20 0xFFFFFFFFFFFFFFFFFFFFFFFFFFFFFFFFFFFFFFFF AND DUP2 MSTORE PUSH1 0x20 ADD SWAP1 DUP2 MSTORE PUSH1 0x20 ADD PUSH1 0x0 KECCAK256 PUSH1 0x0 DUP4 DUP2 MSTORE PUSH1 0x20 ADD SWAP1 DUP2 MSTORE PUSH1 0x20 ADD PUSH1 0x0 KECCAK256 PUSH1 0x40 MLOAD DUP1 PUSH1 0x60 ADD PUSH1 0x40 MSTORE SWAP1 DUP2 PUSH1 0x0 DUP3 ADD SLOAD DUP2 MSTORE PUSH1 0x20 ADD PUSH1 0x1 DUP3 ADD PUSH1 0x0 SWAP1 SLOAD SWAP1 PUSH2 0x100 EXP SWAP1 DIV PUSH20 0xFFFFFFFFFFFFFFFFFFFFFFFFFFFFFFFFFFFFFFFF AND PUSH20 0xFFFFFFFFFFFFFFFFFFFFFFFFFFFFFFFFFFFFFFFF AND PUSH20 0xFFFFFFFFFFFFFFFFFFFFFFFFFFFFFFFFFFFFFFFF AND DUP2 MSTORE PUSH1 0x20 ADD PUSH1 0x2 DUP3 ADD SLOAD DUP2 MSTORE POP POP SWAP1 POP PUSH1 0x0 DUP2 PUSH1 0x0 ADD MLOAD GT PUSH2 0x1B64 JUMPI DUP3 DUP3 PUSH1 0x40 MLOAD PUSH32 0x6831488C00000000000000000000000000000000000000000000000000000000 DUP2 MSTORE PUSH1 0x4 ADD PUSH2 0x1B5B SWAP3 SWAP2 SWAP1 PUSH2 0x3107 JUMP JUMPDEST PUSH1 0x40 MLOAD DUP1 SWAP2 SUB SWAP1 REVERT JUMPDEST PUSH1 0x0 PUSH1 0x9C PUSH1 0x0 PUSH1 0x9A PUSH1 0x0 DUP15 PUSH20 0xFFFFFFFFFFFFFFFFFFFFFFFFFFFFFFFFFFFFFFFF AND PUSH20 0xFFFFFFFFFFFFFFFFFFFFFFFFFFFFFFFFFFFFFFFF AND DUP2 MSTORE PUSH1 0x20 ADD SWAP1 DUP2 MSTORE PUSH1 0x20 ADD PUSH1 0x0 KECCAK256 PUSH1 0x0 DUP14 DUP2 MSTORE PUSH1 0x20 ADD SWAP1 DUP2 MSTORE PUSH1 0x20 ADD PUSH1 0x0 KECCAK256 PUSH1 0x2 ADD SLOAD DUP2 MSTORE PUSH1 0x20 ADD SWAP1 DUP2 MSTORE PUSH1 0x20 ADD PUSH1 0x0 KECCAK256 PUSH1 0x5 ADD PUSH1 0x0 PUSH2 0x100 EXP DUP2 SLOAD DUP2 PUSH1 0xFF MUL NOT AND SWAP1 DUP4 ISZERO ISZERO MUL OR SWAP1 SSTORE POP PUSH1 0x9A PUSH1 0x0 DUP12 PUSH20 0xFFFFFFFFFFFFFFFFFFFFFFFFFFFFFFFFFFFFFFFF AND PUSH20 0xFFFFFFFFFFFFFFFFFFFFFFFFFFFFFFFFFFFFFFFF AND DUP2 MSTORE PUSH1 0x20 ADD SWAP1 DUP2 MSTORE PUSH1 0x20 ADD PUSH1 0x0 KECCAK256 PUSH1 0x0 DUP11 DUP2 MSTORE PUSH1 0x20 ADD SWAP1 DUP2 MSTORE PUSH1 0x20 ADD PUSH1 0x0 KECCAK256 PUSH1 0x0 DUP1 DUP3 ADD PUSH1 0x0 SWAP1 SSTORE PUSH1 0x1 DUP3 ADD PUSH1 0x0 PUSH2 0x100 EXP DUP2 SLOAD SWAP1 PUSH20 0xFFFFFFFFFFFFFFFFFFFFFFFFFFFFFFFFFFFFFFFF MUL NOT AND SWAP1 SSTORE PUSH1 0x2 DUP3 ADD PUSH1 0x0 SWAP1 SSTORE POP POP PUSH2 0x1C7A PUSH1 0x9E PUSH2 0x2506 JUMP JUMPDEST DUP9 DUP11 PUSH20 0xFFFFFFFFFFFFFFFFFFFFFFFFFFFFFFFFFFFFFFFF AND CALLER PUSH20 0xFFFFFFFFFFFFFFFFFFFFFFFFFFFFFFFFFFFFFFFF AND PUSH32 0x9BA1A3CB55CE8D63D072A886F94D2A744F50CDDF82128E897D0661F5EC623158 PUSH1 0x40 MLOAD PUSH1 0x40 MLOAD DUP1 SWAP2 SUB SWAP1 LOG4 POP POP POP POP POP POP POP POP POP POP JUMP JUMPDEST PUSH1 0x0 DUP1 PUSH1 0x1 SWAP1 SLOAD SWAP1 PUSH2 0x100 EXP SWAP1 DIV PUSH1 0xFF AND ISZERO SWAP1 POP DUP1 DUP1 ISZERO PUSH2 0x1D12 JUMPI POP PUSH1 0x1 PUSH1 0x0 DUP1 SLOAD SWAP1 PUSH2 0x100 EXP SWAP1 DIV PUSH1 0xFF AND PUSH1 0xFF AND LT JUMPDEST DUP1 PUSH2 0x1D3F JUMPI POP PUSH2 0x1D21 ADDRESS PUSH2 0x2575 JUMP JUMPDEST ISZERO DUP1 ISZERO PUSH2 0x1D3E JUMPI POP PUSH1 0x1 PUSH1 0x0 DUP1 SLOAD SWAP1 PUSH2 0x100 EXP SWAP1 DIV PUSH1 0xFF AND PUSH1 0xFF AND EQ JUMPDEST JUMPDEST PUSH2 0x1D7E JUMPI PUSH1 0x40 MLOAD PUSH32 0x8C379A000000000000000000000000000000000000000000000000000000000 DUP2 MSTORE PUSH1 0x4 ADD PUSH2 0x1D75 SWAP1 PUSH2 0x3349 JUMP JUMPDEST PUSH1 0x40 MLOAD DUP1 SWAP2 SUB SWAP1 REVERT JUMPDEST PUSH1 0x1 PUSH1 0x0 DUP1 PUSH2 0x100 EXP DUP2 SLOAD DUP2 PUSH1 0xFF MUL NOT AND SWAP1 DUP4 PUSH1 0xFF AND MUL OR SWAP1 SSTORE POP DUP1 ISZERO PUSH2 0x1DBB JUMPI PUSH1 0x1 PUSH1 0x0 PUSH1 0x1 PUSH2 0x100 EXP DUP2 SLOAD DUP2 PUSH1 0xFF MUL NOT AND SWAP1 DUP4 ISZERO ISZERO MUL OR SWAP1 SSTORE POP JUMPDEST PUSH2 0x1DC3 PUSH2 0x2598 JUMP JUMPDEST PUSH2 0x1DCB PUSH2 0x25F1 JUMP JUMPDEST DUP2 PUSH1 0x67 PUSH1 0x0 PUSH2 0x100 EXP DUP2 SLOAD DUP2 PUSH20 0xFFFFFFFFFFFFFFFFFFFFFFFFFFFFFFFFFFFFFFFF MUL NOT AND SWAP1 DUP4 PUSH20 0xFFFFFFFFFFFFFFFFFFFFFFFFFFFFFFFFFFFFFFFF AND MUL OR SWAP1 SSTORE POP DUP1 ISZERO PUSH2 0x1E65 JUMPI PUSH1 0x0 DUP1 PUSH1 0x1 PUSH2 0x100 EXP DUP2 SLOAD DUP2 PUSH1 0xFF MUL NOT AND SWAP1 DUP4 ISZERO ISZERO MUL OR SWAP1 SSTORE POP PUSH32 0x7F26B83FF96E1F2B6A682F133852F6798A09C465DA95921460CEFB3847402498 PUSH1 0x1 PUSH1 0x40 MLOAD PUSH2 0x1E5C SWAP2 SWAP1 PUSH2 0x33BB JUMP JUMPDEST PUSH1 0x40 MLOAD DUP1 SWAP2 SUB SWAP1 LOG1 JUMPDEST POP POP JUMP JUMPDEST PUSH2 0x1E71 PUSH2 0x2303 JUMP JUMPDEST PUSH1 0x0 PUSH20 0xFFFFFFFFFFFFFFFFFFFFFFFFFFFFFFFFFFFFFFFF AND DUP2 PUSH20 0xFFFFFFFFFFFFFFFFFFFFFFFFFFFFFFFFFFFFFFFF AND SUB PUSH2 0x1EE0 JUMPI PUSH1 0x40 MLOAD PUSH32 0x8C379A000000000000000000000000000000000000000000000000000000000 DUP2 MSTORE PUSH1 0x4 ADD PUSH2 0x1ED7 SWAP1 PUSH2 0x3448 JUMP JUMPDEST PUSH1 0x40 MLOAD DUP1 SWAP2 SUB SWAP1 REVERT JUMPDEST PUSH2 0x1EE9 DUP2 PUSH2 0x2440 JUMP JUMPDEST POP JUMP JUMPDEST DUP3 DUP3 PUSH1 0x0 PUSH1 0x9A PUSH1 0x0 DUP5 PUSH20 0xFFFFFFFFFFFFFFFFFFFFFFFFFFFFFFFFFFFFFFFF AND PUSH20 0xFFFFFFFFFFFFFFFFFFFFFFFFFFFFFFFFFFFFFFFF AND DUP2 MSTORE PUSH1 0x20 ADD SWAP1 DUP2 MSTORE PUSH1 0x20 ADD PUSH1 0x0 KECCAK256 PUSH1 0x0 DUP4 DUP2 MSTORE PUSH1 0x20 ADD SWAP1 DUP2 MSTORE PUSH1 0x20 ADD PUSH1 0x0 KECCAK256 PUSH1 0x40 MLOAD DUP1 PUSH1 0x60 ADD PUSH1 0x40 MSTORE SWAP1 DUP2 PUSH1 0x0 DUP3 ADD SLOAD DUP2 MSTORE PUSH1 0x20 ADD PUSH1 0x1 DUP3 ADD PUSH1 0x0 SWAP1 SLOAD SWAP1 PUSH2 0x100 EXP SWAP1 DIV PUSH20 0xFFFFFFFFFFFFFFFFFFFFFFFFFFFFFFFFFFFFFFFF AND PUSH20 0xFFFFFFFFFFFFFFFFFFFFFFFFFFFFFFFFFFFFFFFF AND PUSH20 0xFFFFFFFFFFFFFFFFFFFFFFFFFFFFFFFFFFFFFFFF AND DUP2 MSTORE PUSH1 0x20 ADD PUSH1 0x2 DUP3 ADD SLOAD DUP2 MSTORE POP POP SWAP1 POP PUSH1 0x0 DUP2 PUSH1 0x0 ADD MLOAD GT PUSH2 0x2002 JUMPI DUP3 DUP3 PUSH1 0x40 MLOAD PUSH32 0x6831488C00000000000000000000000000000000000000000000000000000000 DUP2 MSTORE PUSH1 0x4 ADD PUSH2 0x1FF9 SWAP3 SWAP2 SWAP1 PUSH2 0x3107 JUMP JUMPDEST PUSH1 0x40 MLOAD DUP1 SWAP2 SUB SWAP1 REVERT JUMPDEST PUSH2 0x200A PUSH2 0x251C JUMP JUMPDEST DUP6 DUP6 CALLER PUSH1 0x0 DUP4 SWAP1 POP PUSH1 0x0 DUP2 PUSH20 0xFFFFFFFFFFFFFFFFFFFFFFFFFFFFFFFFFFFFFFFF AND PUSH4 0x6352211E DUP6 PUSH1 0x40 MLOAD DUP3 PUSH4 0xFFFFFFFF AND PUSH1 0xE0 SHL DUP2 MSTORE PUSH1 0x4 ADD PUSH2 0x204D SWAP2 SWAP1 PUSH2 0x3130 JUMP JUMPDEST PUSH1 0x20 PUSH1 0x40 MLOAD DUP1 DUP4 SUB DUP2 DUP7 GAS STATICCALL ISZERO DUP1 ISZERO PUSH2 0x206A JUMPI RETURNDATASIZE PUSH1 0x0 DUP1 RETURNDATACOPY RETURNDATASIZE PUSH1 0x0 REVERT JUMPDEST POP POP POP POP PUSH1 0x40 MLOAD RETURNDATASIZE PUSH1 0x1F NOT PUSH1 0x1F DUP3 ADD AND DUP3 ADD DUP1 PUSH1 0x40 MSTORE POP DUP2 ADD SWAP1 PUSH2 0x208E SWAP2 SWAP1 PUSH2 0x3160 JUMP JUMPDEST SWAP1 POP DUP1 PUSH20 0xFFFFFFFFFFFFFFFFFFFFFFFFFFFFFFFFFFFFFFFF AND DUP4 PUSH20 0xFFFFFFFFFFFFFFFFFFFFFFFFFFFFFFFFFFFFFFFF AND EQ PUSH2 0x20F5 JUMPI PUSH1 0x40 MLOAD PUSH32 0x30CD747100000000000000000000000000000000000000000000000000000000 DUP2 MSTORE PUSH1 0x4 ADD PUSH1 0x40 MLOAD DUP1 SWAP2 SUB SWAP1 REVERT JUMPDEST PUSH1 0x0 DUP10 SUB PUSH2 0x212F JUMPI PUSH1 0x40 MLOAD PUSH32 0xE1ABBFC500000000000000000000000000000000000000000000000000000000 DUP2 MSTORE PUSH1 0x4 ADD PUSH1 0x40 MLOAD DUP1 SWAP2 SUB SWAP1 REVERT JUMPDEST PUSH1 0x0 DUP12 SWAP1 POP PUSH1 0x0 DUP12 SWAP1 POP DUP11 PUSH1 0x9A PUSH1 0x0 DUP5 PUSH20 0xFFFFFFFFFFFFFFFFFFFFFFFFFFFFFFFFFFFFFFFF AND PUSH20 0xFFFFFFFFFFFFFFFFFFFFFFFFFFFFFFFFFFFFFFFF AND DUP2 MSTORE PUSH1 0x20 ADD SWAP1 DUP2 MSTORE PUSH1 0x20 ADD PUSH1 0x0 KECCAK256 PUSH1 0x0 DUP4 DUP2 MSTORE PUSH1 0x20 ADD SWAP1 DUP2 MSTORE PUSH1 0x20 ADD PUSH1 0x0 KECCAK256 PUSH1 0x0 ADD DUP2 SWAP1 SSTORE POP DUP12 DUP14 PUSH20 0xFFFFFFFFFFFFFFFFFFFFFFFFFFFFFFFFFFFFFFFF AND CALLER PUSH20 0xFFFFFFFFFFFFFFFFFFFFFFFFFFFFFFFFFFFFFFFF AND PUSH32 0x424B3284A7958BB7965C27CA0B2A8B30CE2A56BA954533DF15E6BDED1B608ED7 PUSH1 0x9A PUSH1 0x0 DUP8 PUSH20 0xFFFFFFFFFFFFFFFFFFFFFFFFFFFFFFFFFFFFFFFF AND PUSH20 0xFFFFFFFFFFFFFFFFFFFFFFFFFFFFFFFFFFFFFFFF AND DUP2 MSTORE PUSH1 0x20 ADD SWAP1 DUP2 MSTORE PUSH1 0x20 ADD PUSH1 0x0 KECCAK256 PUSH1 0x0 DUP7 DUP2 MSTORE PUSH1 0x20 ADD SWAP1 DUP2 MSTORE PUSH1 0x20 ADD PUSH1 0x0 KECCAK256 PUSH1 0x2 ADD SLOAD DUP16 PUSH1 0x40 MLOAD PUSH2 0x2244 SWAP3 SWAP2 SWAP1 PUSH2 0x318D JUMP JUMPDEST PUSH1 0x40 MLOAD DUP1 SWAP2 SUB SWAP1 LOG4 POP POP POP POP POP POP POP PUSH2 0x225B PUSH2 0x256B JUMP JUMPDEST POP POP POP POP POP POP JUMP JUMPDEST PUSH2 0x226B PUSH2 0x2303 JUMP JUMPDEST PUSH1 0x0 SELFBALANCE SWAP1 POP PUSH1 0x0 DUP2 GT PUSH2 0x227D JUMPI PUSH1 0x0 DUP1 REVERT JUMPDEST PUSH2 0x2287 DUP3 SELFBALANCE PUSH2 0x264A JUMP JUMPDEST POP POP JUMP JUMPDEST PUSH1 0x0 PUSH32 0x1FFC9A700000000000000000000000000000000000000000000000000000000 PUSH28 0xFFFFFFFFFFFFFFFFFFFFFFFFFFFFFFFFFFFFFFFFFFFFFFFFFFFFFFFF NOT AND DUP3 PUSH28 0xFFFFFFFFFFFFFFFFFFFFFFFFFFFFFFFFFFFFFFFFFFFFFFFFFFFFFFFF NOT AND EQ SWAP1 POP SWAP2 SWAP1 POP JUMP JUMPDEST PUSH1 0x0 DUP2 PUSH1 0x0 ADD SLOAD SWAP1 POP SWAP2 SWAP1 POP JUMP JUMPDEST PUSH2 0x230B PUSH2 0x26FB JUMP JUMPDEST PUSH20 0xFFFFFFFFFFFFFFFFFFFFFFFFFFFFFFFFFFFFFFFF AND PUSH2 0x2329 PUSH2 0x141E JUMP JUMPDEST PUSH20 0xFFFFFFFFFFFFFFFFFFFFFFFFFFFFFFFFFFFFFFFF AND EQ PUSH2 0x237F JUMPI PUSH1 0x40 MLOAD PUSH32 0x8C379A000000000000000000000000000000000000000000000000000000000 DUP2 MSTORE PUSH1 0x4 ADD PUSH2 0x2376 SWAP1 PUSH2 0x34B4 JUMP JUMPDEST PUSH1 0x40 MLOAD DUP1 SWAP2 SUB SWAP1 REVERT JUMPDEST JUMP JUMPDEST PUSH1 0x0 PUSH2 0x23A9 DUP4 PUSH1 0x0 ADD DUP4 PUSH20 0xFFFFFFFFFFFFFFFFFFFFFFFFFFFFFFFFFFFFFFFF AND PUSH1 0x0 SHL PUSH2 0x2703 JUMP JUMPDEST SWAP1 POP SWAP3 SWAP2 POP POP JUMP JUMPDEST PUSH1 0x0 PUSH2 0x23D9 DUP4 PUSH1 0x0 ADD DUP4 PUSH20 0xFFFFFFFFFFFFFFFFFFFFFFFFFFFFFFFFFFFFFFFF AND PUSH1 0x0 SHL PUSH2 0x2726 JUMP JUMPDEST SWAP1 POP SWAP3 SWAP2 POP POP JUMP JUMPDEST PUSH1 0x0 PUSH2 0x23EF DUP3 PUSH1 0x0 ADD PUSH2 0x283A JUMP JUMPDEST SWAP1 POP SWAP2 SWAP1 POP JUMP JUMPDEST PUSH1 0x0 PUSH2 0x2405 DUP4 PUSH1 0x0 ADD DUP4 PUSH2 0x284B JUMP JUMPDEST PUSH1 0x0 SHR SWAP1 POP SWAP3 SWAP2 POP POP JUMP JUMPDEST PUSH1 0x0 PUSH2 0x2438 DUP4 PUSH1 0x0 ADD DUP4 PUSH20 0xFFFFFFFFFFFFFFFFFFFFFFFFFFFFFFFFFFFFFFFF AND PUSH1 0x0 SHL PUSH2 0x2876 JUMP JUMPDEST SWAP1 POP SWAP3 SWAP2 POP POP JUMP JUMPDEST PUSH1 0x0 PUSH1 0x33 PUSH1 0x0 SWAP1 SLOAD SWAP1 PUSH2 0x100 EXP SWAP1 DIV PUSH20 0xFFFFFFFFFFFFFFFFFFFFFFFFFFFFFFFFFFFFFFFF AND SWAP1 POP DUP2 PUSH1 0x33 PUSH1 0x0 PUSH2 0x100 EXP DUP2 SLOAD DUP2 PUSH20 0xFFFFFFFFFFFFFFFFFFFFFFFFFFFFFFFFFFFFFFFF MUL NOT AND SWAP1 DUP4 PUSH20 0xFFFFFFFFFFFFFFFFFFFFFFFFFFFFFFFFFFFFFFFF AND MUL OR SWAP1 SSTORE POP DUP2 PUSH20 0xFFFFFFFFFFFFFFFFFFFFFFFFFFFFFFFFFFFFFFFF AND DUP2 PUSH20 0xFFFFFFFFFFFFFFFFFFFFFFFFFFFFFFFFFFFFFFFF AND PUSH32 0x8BE0079C531659141344CD1FD0A4F28419497F9722A3DAAFE3B4186F6B6457E0 PUSH1 0x40 MLOAD PUSH1 0x40 MLOAD DUP1 SWAP2 SUB SWAP1 LOG3 POP POP JUMP JUMPDEST PUSH1 0x1 DUP2 PUSH1 0x0 ADD PUSH1 0x0 DUP3 DUP3 SLOAD ADD SWAP3 POP POP DUP2 SWAP1 SSTORE POP POP JUMP JUMPDEST PUSH1 0x2 PUSH1 0x68 SLOAD SUB PUSH2 0x2561 JUMPI PUSH1 0x40 MLOAD PUSH32 0x8C379A000000000000000000000000000000000000000000000000000000000 DUP2 MSTORE PUSH1 0x4 ADD PUSH2 0x2558 SWAP1 PUSH2 0x3520 JUMP JUMPDEST PUSH1 0x40 MLOAD DUP1 SWAP2 SUB SWAP1 REVERT JUMPDEST PUSH1 0x2 PUSH1 0x68 DUP2 SWAP1 SSTORE POP JUMP JUMPDEST PUSH1 0x1 PUSH1 0x68 DUP2 SWAP1 SSTORE POP JUMP JUMPDEST PUSH1 0x0 DUP1 DUP3 PUSH20 0xFFFFFFFFFFFFFFFFFFFFFFFFFFFFFFFFFFFFFFFF AND EXTCODESIZE GT SWAP1 POP SWAP2 SWAP1 POP JUMP JUMPDEST PUSH1 0x0 PUSH1 0x1 SWAP1 SLOAD SWAP1 PUSH2 0x100 EXP SWAP1 DIV PUSH1 0xFF AND PUSH2 0x25E7 JUMPI PUSH1 0x40 MLOAD PUSH32 0x8C379A000000000000000000000000000000000000000000000000000000000 DUP2 MSTORE PUSH1 0x4 ADD PUSH2 0x25DE SWAP1 PUSH2 0x35B2 JUMP JUMPDEST PUSH1 0x40 MLOAD DUP1 SWAP2 SUB SWAP1 REVERT JUMPDEST PUSH2 0x25EF PUSH2 0x28E6 JUMP JUMPDEST JUMP JUMPDEST PUSH1 0x0 PUSH1 0x1 SWAP1 SLOAD SWAP1 PUSH2 0x100 EXP SWAP1 DIV PUSH1 0xFF AND PUSH2 0x2640 JUMPI PUSH1 0x40 MLOAD PUSH32 0x8C379A000000000000000000000000000000000000000000000000000000000 DUP2 MSTORE PUSH1 0x4 ADD PUSH2 0x2637 SWAP1 PUSH2 0x35B2 JUMP JUMPDEST PUSH1 0x40 MLOAD DUP1 SWAP2 SUB SWAP1 REVERT JUMPDEST PUSH2 0x2648 PUSH2 0x2947 JUMP JUMPDEST JUMP JUMPDEST PUSH1 0x0 DUP3 PUSH20 0xFFFFFFFFFFFFFFFFFFFFFFFFFFFFFFFFFFFFFFFF AND DUP3 PUSH1 0x40 MLOAD PUSH2 0x2670 SWAP1 PUSH2 0x3603 JUMP JUMPDEST PUSH1 0x0 PUSH1 0x40 MLOAD DUP1 DUP4 SUB DUP2 DUP6 DUP8 GAS CALL SWAP3 POP POP POP RETURNDATASIZE DUP1 PUSH1 0x0 DUP2 EQ PUSH2 0x26AD JUMPI PUSH1 0x40 MLOAD SWAP2 POP PUSH1 0x1F NOT PUSH1 0x3F RETURNDATASIZE ADD AND DUP3 ADD PUSH1 0x40 MSTORE RETURNDATASIZE DUP3 MSTORE RETURNDATASIZE PUSH1 0x0 PUSH1 0x20 DUP5 ADD RETURNDATACOPY PUSH2 0x26B2 JUMP JUMPDEST PUSH1 0x60 SWAP2 POP JUMPDEST POP POP SWAP1 POP DUP1 PUSH2 0x26F6 JUMPI PUSH1 0x40 MLOAD PUSH32 0x8C379A000000000000000000000000000000000000000000000000000000000 DUP2 MSTORE PUSH1 0x4 ADD PUSH2 0x26ED SWAP1 PUSH2 0x3664 JUMP JUMPDEST PUSH1 0x40 MLOAD DUP1 SWAP2 SUB SWAP1 REVERT JUMPDEST POP POP POP JUMP JUMPDEST PUSH1 0x0 CALLER SWAP1 POP SWAP1 JUMP JUMPDEST PUSH1 0x0 DUP1 DUP4 PUSH1 0x1 ADD PUSH1 0x0 DUP5 DUP2 MSTORE PUSH1 0x20 ADD SWAP1 DUP2 MSTORE PUSH1 0x20 ADD PUSH1 0x0 KECCAK256 SLOAD EQ ISZERO SWAP1 POP SWAP3 SWAP2 POP POP JUMP JUMPDEST PUSH1 0x0 DUP1 DUP4 PUSH1 0x1 ADD PUSH1 0x0 DUP5 DUP2 MSTORE PUSH1 0x20 ADD SWAP1 DUP2 MSTORE PUSH1 0x20 ADD PUSH1 0x0 KECCAK256 SLOAD SWAP1 POP PUSH1 0x0 DUP2 EQ PUSH2 0x282E JUMPI PUSH1 0x0 PUSH1 0x1 DUP3 PUSH2 0x2758 SWAP2 SWAP1 PUSH2 0x30C4 JUMP JUMPDEST SWAP1 POP PUSH1 0x0 PUSH1 0x1 DUP7 PUSH1 0x0 ADD DUP1 SLOAD SWAP1 POP PUSH2 0x2770 SWAP2 SWAP1 PUSH2 0x30C4 JUMP JUMPDEST SWAP1 POP DUP2 DUP2 EQ PUSH2 0x27DF JUMPI PUSH1 0x0 DUP7 PUSH1 0x0 ADD DUP3 DUP2 SLOAD DUP2 LT PUSH2 0x2791 JUMPI PUSH2 0x2790 PUSH2 0x2FEA JUMP JUMPDEST JUMPDEST SWAP1 PUSH1 0x0 MSTORE PUSH1 0x20 PUSH1 0x0 KECCAK256 ADD SLOAD SWAP1 POP DUP1 DUP8 PUSH1 0x0 ADD DUP5 DUP2 SLOAD DUP2 LT PUSH2 0x27B5 JUMPI PUSH2 0x27B4 PUSH2 0x2FEA JUMP JUMPDEST JUMPDEST SWAP1 PUSH1 0x0 MSTORE PUSH1 0x20 PUSH1 0x0 KECCAK256 ADD DUP2 SWAP1 SSTORE POP DUP4 DUP8 PUSH1 0x1 ADD PUSH1 0x0 DUP4 DUP2 MSTORE PUSH1 0x20 ADD SWAP1 DUP2 MSTORE PUSH1 0x20 ADD PUSH1 0x0 KECCAK256 DUP2 SWAP1 SSTORE POP POP JUMPDEST DUP6 PUSH1 0x0 ADD DUP1 SLOAD DUP1 PUSH2 0x27F3 JUMPI PUSH2 0x27F2 PUSH2 0x3684 JUMP JUMPDEST JUMPDEST PUSH1 0x1 SWAP1 SUB DUP2 DUP2 SWAP1 PUSH1 0x0 MSTORE PUSH1 0x20 PUSH1 0x0 KECCAK256 ADD PUSH1 0x0 SWAP1 SSTORE SWAP1 SSTORE DUP6 PUSH1 0x1 ADD PUSH1 0x0 DUP7 DUP2 MSTORE PUSH1 0x20 ADD SWAP1 DUP2 MSTORE PUSH1 0x20 ADD PUSH1 0x0 KECCAK256 PUSH1 0x0 SWAP1 SSTORE PUSH1 0x1 SWAP4 POP POP POP POP PUSH2 0x2834 JUMP JUMPDEST PUSH1 0x0 SWAP2 POP POP JUMPDEST SWAP3 SWAP2 POP POP JUMP JUMPDEST PUSH1 0x0 DUP2 PUSH1 0x0 ADD DUP1 SLOAD SWAP1 POP SWAP1 POP SWAP2 SWAP1 POP JUMP JUMPDEST PUSH1 0x0 DUP3 PUSH1 0x0 ADD DUP3 DUP2 SLOAD DUP2 LT PUSH2 0x2863 JUMPI PUSH2 0x2862 PUSH2 0x2FEA JUMP JUMPDEST JUMPDEST SWAP1 PUSH1 0x0 MSTORE PUSH1 0x20 PUSH1 0x0 KECCAK256 ADD SLOAD SWAP1 POP SWAP3 SWAP2 POP POP JUMP JUMPDEST PUSH1 0x0 PUSH2 0x2882 DUP4 DUP4 PUSH2 0x2703 JUMP JUMPDEST PUSH2 0x28DB JUMPI DUP3 PUSH1 0x0 ADD DUP3 SWAP1 DUP1 PUSH1 0x1 DUP2 SLOAD ADD DUP1 DUP3 SSTORE DUP1 SWAP2 POP POP PUSH1 0x1 SWAP1 SUB SWAP1 PUSH1 0x0 MSTORE PUSH1 0x20 PUSH1 0x0 KECCAK256 ADD PUSH1 0x0 SWAP1 SWAP2 SWAP1 SWAP2 SWAP1 SWAP2 POP SSTORE DUP3 PUSH1 0x0 ADD DUP1 SLOAD SWAP1 POP DUP4 PUSH1 0x1 ADD PUSH1 0x0 DUP5 DUP2 MSTORE PUSH1 0x20 ADD SWAP1 DUP2 MSTORE PUSH1 0x20 ADD PUSH1 0x0 KECCAK256 DUP2 SWAP1 SSTORE POP PUSH1 0x1 SWAP1 POP PUSH2 0x28E0 JUMP JUMPDEST PUSH1 0x0 SWAP1 POP JUMPDEST SWAP3 SWAP2 POP POP JUMP JUMPDEST PUSH1 0x0 PUSH1 0x1 SWAP1 SLOAD SWAP1 PUSH2 0x100 EXP SWAP1 DIV PUSH1 0xFF AND PUSH2 0x2935 JUMPI PUSH1 0x40 MLOAD PUSH32 0x8C379A000000000000000000000000000000000000000000000000000000000 DUP2 MSTORE PUSH1 0x4 ADD PUSH2 0x292C SWAP1 PUSH2 0x35B2 JUMP JUMPDEST PUSH1 0x40 MLOAD DUP1 SWAP2 SUB SWAP1 REVERT JUMPDEST PUSH2 0x2945 PUSH2 0x2940 PUSH2 0x26FB JUMP JUMPDEST PUSH2 0x2440 JUMP JUMPDEST JUMP JUMPDEST PUSH1 0x0 PUSH1 0x1 SWAP1 SLOAD SWAP1 PUSH2 0x100 EXP SWAP1 DIV PUSH1 0xFF AND PUSH2 0x2996 JUMPI PUSH1 0x40 MLOAD PUSH32 0x8C379A000000000000000000000000000000000000000000000000000000000 DUP2 MSTORE PUSH1 0x4 ADD PUSH2 0x298D SWAP1 PUSH2 0x35B2 JUMP JUMPDEST PUSH1 0x40 MLOAD DUP1 SWAP2 SUB SWAP1 REVERT JUMPDEST PUSH1 0x1 PUSH1 0x68 DUP2 SWAP1 SSTORE POP JUMP JUMPDEST PUSH1 0x40 MLOAD DUP1 PUSH1 0x80 ADD PUSH1 0x40 MSTORE DUP1 PUSH1 0x0 PUSH20 0xFFFFFFFFFFFFFFFFFFFFFFFFFFFFFFFFFFFFFFFF AND DUP2 MSTORE PUSH1 0x20 ADD PUSH1 0x0 DUP2 MSTORE PUSH1 0x20 ADD PUSH2 0x29D7 PUSH2 0x29E6 JUMP JUMPDEST DUP2 MSTORE PUSH1 0x20 ADD PUSH1 0x0 ISZERO ISZERO DUP2 MSTORE POP SWAP1 JUMP JUMPDEST PUSH1 0x40 MLOAD DUP1 PUSH1 0x60 ADD PUSH1 0x40 MSTORE DUP1 PUSH1 0x0 DUP2 MSTORE PUSH1 0x20 ADD PUSH1 0x0 PUSH20 0xFFFFFFFFFFFFFFFFFFFFFFFFFFFFFFFFFFFFFFFF AND DUP2 MSTORE PUSH1 0x20 ADD PUSH1 0x0 DUP2 MSTORE POP SWAP1 JUMP JUMPDEST PUSH1 0x0 DUP1 REVERT JUMPDEST PUSH1 0x0 PUSH32 0xFFFFFFFF00000000000000000000000000000000000000000000000000000000 DUP3 AND SWAP1 POP SWAP2 SWAP1 POP JUMP JUMPDEST PUSH2 0x2A57 DUP2 PUSH2 0x2A22 JUMP JUMPDEST DUP2 EQ PUSH2 0x2A62 JUMPI PUSH1 0x0 DUP1 REVERT JUMPDEST POP JUMP JUMPDEST PUSH1 0x0 DUP2 CALLDATALOAD SWAP1 POP PUSH2 0x2A74 DUP2 PUSH2 0x2A4E JUMP JUMPDEST SWAP3 SWAP2 POP POP JUMP JUMPDEST PUSH1 0x0 PUSH1 0x20 DUP3 DUP5 SUB SLT ISZERO PUSH2 0x2A90 JUMPI PUSH2 0x2A8F PUSH2 0x2A1D JUMP JUMPDEST JUMPDEST PUSH1 0x0 PUSH2 0x2A9E DUP5 DUP3 DUP6 ADD PUSH2 0x2A65 JUMP JUMPDEST SWAP2 POP POP SWAP3 SWAP2 POP POP JUMP JUMPDEST PUSH1 0x0 DUP2 ISZERO ISZERO SWAP1 POP SWAP2 SWAP1 POP JUMP JUMPDEST PUSH2 0x2ABC DUP2 PUSH2 0x2AA7 JUMP JUMPDEST DUP3 MSTORE POP POP JUMP JUMPDEST PUSH1 0x0 PUSH1 0x20 DUP3 ADD SWAP1 POP PUSH2 0x2AD7 PUSH1 0x0 DUP4 ADD DUP5 PUSH2 0x2AB3 JUMP JUMPDEST SWAP3 SWAP2 POP POP JUMP JUMPDEST PUSH1 0x0 DUP2 MLOAD SWAP1 POP SWAP2 SWAP1 POP JUMP JUMPDEST PUSH1 0x0 DUP3 DUP3 MSTORE PUSH1 0x20 DUP3 ADD SWAP1 POP SWAP3 SWAP2 POP POP JUMP JUMPDEST PUSH1 0x0 DUP2 SWAP1 POP PUSH1 0x20 DUP3 ADD SWAP1 POP SWAP2 SWAP1 POP JUMP JUMPDEST PUSH1 0x0 PUSH20 0xFFFFFFFFFFFFFFFFFFFFFFFFFFFFFFFFFFFFFFFF DUP3 AND SWAP1 POP SWAP2 SWAP1 POP JUMP JUMPDEST PUSH1 0x0 PUSH2 0x2B34 DUP3 PUSH2 0x2B09 JUMP JUMPDEST SWAP1 POP SWAP2 SWAP1 POP JUMP JUMPDEST PUSH2 0x2B44 DUP2 PUSH2 0x2B29 JUMP JUMPDEST DUP3 MSTORE POP POP JUMP JUMPDEST PUSH1 0x0 DUP2 SWAP1 POP SWAP2 SWAP1 POP JUMP JUMPDEST PUSH2 0x2B5D DUP2 PUSH2 0x2B4A JUMP JUMPDEST DUP3 MSTORE POP POP JUMP JUMPDEST PUSH1 0x60 DUP3 ADD PUSH1 0x0 DUP3 ADD MLOAD PUSH2 0x2B79 PUSH1 0x0 DUP6 ADD DUP3 PUSH2 0x2B54 JUMP JUMPDEST POP PUSH1 0x20 DUP3 ADD MLOAD PUSH2 0x2B8C PUSH1 0x20 DUP6 ADD DUP3 PUSH2 0x2B3B JUMP JUMPDEST POP PUSH1 0x40 DUP3 ADD MLOAD PUSH2 0x2B9F PUSH1 0x40 DUP6 ADD DUP3 PUSH2 0x2B54 JUMP JUMPDEST POP POP POP POP JUMP JUMPDEST PUSH2 0x2BAE DUP2 PUSH2 0x2AA7 JUMP JUMPDEST DUP3 MSTORE POP POP JUMP JUMPDEST PUSH1 0xC0 DUP3 ADD PUSH1 0x0 DUP3 ADD MLOAD PUSH2 0x2BCA PUSH1 0x0 DUP6 ADD DUP3 PUSH2 0x2B3B JUMP JUMPDEST POP PUSH1 0x20 DUP3 ADD MLOAD PUSH2 0x2BDD PUSH1 0x20 DUP6 ADD DUP3 PUSH2 0x2B54 JUMP JUMPDEST POP PUSH1 0x40 DUP3 ADD MLOAD PUSH2 0x2BF0 PUSH1 0x40 DUP6 ADD DUP3 PUSH2 0x2B63 JUMP JUMPDEST POP PUSH1 0x60 DUP3 ADD MLOAD PUSH2 0x2C03 PUSH1 0xA0 DUP6 ADD DUP3 PUSH2 0x2BA5 JUMP JUMPDEST POP POP POP POP JUMP JUMPDEST PUSH1 0x0 PUSH2 0x2C15 DUP4 DUP4 PUSH2 0x2BB4 JUMP JUMPDEST PUSH1 0xC0 DUP4 ADD SWAP1 POP SWAP3 SWAP2 POP POP JUMP JUMPDEST PUSH1 0x0 PUSH1 0x20 DUP3 ADD SWAP1 POP SWAP2 SWAP1 POP JUMP JUMPDEST PUSH1 0x0 PUSH2 0x2C39 DUP3 PUSH2 0x2ADD JUMP JUMPDEST PUSH2 0x2C43 DUP2 DUP6 PUSH2 0x2AE8 JUMP JUMPDEST SWAP4 POP PUSH2 0x2C4E DUP4 PUSH2 0x2AF9 JUMP JUMPDEST DUP1 PUSH1 0x0 JUMPDEST DUP4 DUP2 LT ISZERO PUSH2 0x2C7F JUMPI DUP2 MLOAD PUSH2 0x2C66 DUP9 DUP3 PUSH2 0x2C09 JUMP JUMPDEST SWAP8 POP PUSH2 0x2C71 DUP4 PUSH2 0x2C21 JUMP JUMPDEST SWAP3 POP POP PUSH1 0x1 DUP2 ADD SWAP1 POP PUSH2 0x2C52 JUMP JUMPDEST POP DUP6 SWAP4 POP POP POP POP SWAP3 SWAP2 POP POP JUMP JUMPDEST PUSH1 0x0 PUSH1 0x20 DUP3 ADD SWAP1 POP DUP2 DUP2 SUB PUSH1 0x0 DUP4 ADD MSTORE PUSH2 0x2CA6 DUP2 DUP5 PUSH2 0x2C2E JUMP JUMPDEST SWAP1 POP SWAP3 SWAP2 POP POP JUMP JUMPDEST PUSH2 0x2CB7 DUP2 PUSH2 0x2B29 JUMP JUMPDEST DUP2 EQ PUSH2 0x2CC2 JUMPI PUSH1 0x0 DUP1 REVERT JUMPDEST POP JUMP JUMPDEST PUSH1 0x0 DUP2 CALLDATALOAD SWAP1 POP PUSH2 0x2CD4 DUP2 PUSH2 0x2CAE JUMP JUMPDEST SWAP3 SWAP2 POP POP JUMP JUMPDEST PUSH1 0x0 PUSH1 0x20 DUP3 DUP5 SUB SLT ISZERO PUSH2 0x2CF0 JUMPI PUSH2 0x2CEF PUSH2 0x2A1D JUMP JUMPDEST JUMPDEST PUSH1 0x0 PUSH2 0x2CFE DUP5 DUP3 DUP6 ADD PUSH2 0x2CC5 JUMP JUMPDEST SWAP2 POP POP SWAP3 SWAP2 POP POP JUMP JUMPDEST PUSH1 0x0 DUP2 MLOAD SWAP1 POP SWAP2 SWAP1 POP JUMP JUMPDEST PUSH1 0x0 DUP3 DUP3 MSTORE PUSH1 0x20 DUP3 ADD SWAP1 POP SWAP3 SWAP2 POP POP JUMP JUMPDEST PUSH1 0x0 DUP2 SWAP1 POP PUSH1 0x20 DUP3 ADD SWAP1 POP SWAP2 SWAP1 POP JUMP JUMPDEST PUSH1 0x0 PUSH2 0x2D3F DUP4 DUP4 PUSH2 0x2B3B JUMP JUMPDEST PUSH1 0x20 DUP4 ADD SWAP1 POP SWAP3 SWAP2 POP POP JUMP JUMPDEST PUSH1 0x0 PUSH1 0x20 DUP3 ADD SWAP1 POP SWAP2 SWAP1 POP JUMP JUMPDEST PUSH1 0x0 PUSH2 0x2D63 DUP3 PUSH2 0x2D07 JUMP JUMPDEST PUSH2 0x2D6D DUP2 DUP6 PUSH2 0x2D12 JUMP JUMPDEST SWAP4 POP PUSH2 0x2D78 DUP4 PUSH2 0x2D23 JUMP JUMPDEST DUP1 PUSH1 0x0 JUMPDEST DUP4 DUP2 LT ISZERO PUSH2 0x2DA9 JUMPI DUP2 MLOAD PUSH2 0x2D90 DUP9 DUP3 PUSH2 0x2D33 JUMP JUMPDEST SWAP8 POP PUSH2 0x2D9B DUP4 PUSH2 0x2D4B JUMP JUMPDEST SWAP3 POP POP PUSH1 0x1 DUP2 ADD SWAP1 POP PUSH2 0x2D7C JUMP JUMPDEST POP DUP6 SWAP4 POP POP POP POP SWAP3 SWAP2 POP POP JUMP JUMPDEST PUSH1 0x0 PUSH1 0x20 DUP3 ADD SWAP1 POP DUP2 DUP2 SUB PUSH1 0x0 DUP4 ADD MSTORE PUSH2 0x2DD0 DUP2 DUP5 PUSH2 0x2D58 JUMP JUMPDEST SWAP1 POP SWAP3 SWAP2 POP POP JUMP JUMPDEST PUSH2 0x2DE1 DUP2 PUSH2 0x2B4A JUMP JUMPDEST DUP2 EQ PUSH2 0x2DEC JUMPI PUSH1 0x0 DUP1 REVERT JUMPDEST POP JUMP JUMPDEST PUSH1 0x0 DUP2 CALLDATALOAD SWAP1 POP PUSH2 0x2DFE DUP2 PUSH2 0x2DD8 JUMP JUMPDEST SWAP3 SWAP2 POP POP JUMP JUMPDEST PUSH1 0x0 PUSH1 0x20 DUP3 DUP5 SUB SLT ISZERO PUSH2 0x2E1A JUMPI PUSH2 0x2E19 PUSH2 0x2A1D JUMP JUMPDEST JUMPDEST PUSH1 0x0 PUSH2 0x2E28 DUP5 DUP3 DUP6 ADD PUSH2 0x2DEF JUMP JUMPDEST SWAP2 POP POP SWAP3 SWAP2 POP POP JUMP JUMPDEST PUSH1 0xC0 DUP3 ADD PUSH1 0x0 DUP3 ADD MLOAD PUSH2 0x2E47 PUSH1 0x0 DUP6 ADD DUP3 PUSH2 0x2B3B JUMP JUMPDEST POP PUSH1 0x20 DUP3 ADD MLOAD PUSH2 0x2E5A PUSH1 0x20 DUP6 ADD DUP3 PUSH2 0x2B54 JUMP JUMPDEST POP PUSH1 0x40 DUP3 ADD MLOAD PUSH2 0x2E6D PUSH1 0x40 DUP6 ADD DUP3 PUSH2 0x2B63 JUMP JUMPDEST POP PUSH1 0x60 DUP3 ADD MLOAD PUSH2 0x2E80 PUSH1 0xA0 DUP6 ADD DUP3 PUSH2 0x2BA5 JUMP JUMPDEST POP POP POP POP JUMP JUMPDEST PUSH1 0x0 PUSH1 0xC0 DUP3 ADD SWAP1 POP PUSH2 0x2E9B PUSH1 0x0 DUP4 ADD DUP5 PUSH2 0x2E31 JUMP JUMPDEST SWAP3 SWAP2 POP POP JUMP JUMPDEST PUSH1 0x0 DUP1 PUSH1 0x40 DUP4 DUP6 SUB SLT ISZERO PUSH2 0x2EB8 JUMPI PUSH2 0x2EB7 PUSH2 0x2A1D JUMP JUMPDEST JUMPDEST PUSH1 0x0 PUSH2 0x2EC6 DUP6 DUP3 DUP7 ADD PUSH2 0x2CC5 JUMP JUMPDEST SWAP3 POP POP PUSH1 0x20 PUSH2 0x2ED7 DUP6 DUP3 DUP7 ADD PUSH2 0x2DEF JUMP JUMPDEST SWAP2 POP POP SWAP3 POP SWAP3 SWAP1 POP JUMP JUMPDEST PUSH1 0x60 DUP3 ADD PUSH1 0x0 DUP3 ADD MLOAD PUSH2 0x2EF7 PUSH1 0x0 DUP6 ADD DUP3 PUSH2 0x2B54 JUMP JUMPDEST POP PUSH1 0x20 DUP3 ADD MLOAD PUSH2 0x2F0A PUSH1 0x20 DUP6 ADD DUP3 PUSH2 0x2B3B JUMP JUMPDEST POP PUSH1 0x40 DUP3 ADD MLOAD PUSH2 0x2F1D PUSH1 0x40 DUP6 ADD DUP3 PUSH2 0x2B54 JUMP JUMPDEST POP POP POP POP JUMP JUMPDEST PUSH1 0x0 PUSH1 0x60 DUP3 ADD SWAP1 POP PUSH2 0x2F38 PUSH1 0x0 DUP4 ADD DUP5 PUSH2 0x2EE1 JUMP JUMPDEST SWAP3 SWAP2 POP POP JUMP JUMPDEST PUSH1 0x0 DUP1 PUSH1 0x0 PUSH1 0x60 DUP5 DUP7 SUB SLT ISZERO PUSH2 0x2F57 JUMPI PUSH2 0x2F56 PUSH2 0x2A1D JUMP JUMPDEST JUMPDEST PUSH1 0x0 PUSH2 0x2F65 DUP7 DUP3 DUP8 ADD PUSH2 0x2CC5 JUMP JUMPDEST SWAP4 POP POP PUSH1 0x20 PUSH2 0x2F76 DUP7 DUP3 DUP8 ADD PUSH2 0x2DEF JUMP JUMPDEST SWAP3 POP POP PUSH1 0x40 PUSH2 0x2F87 DUP7 DUP3 DUP8 ADD PUSH2 0x2DEF JUMP JUMPDEST SWAP2 POP POP SWAP3 POP SWAP3 POP SWAP3 JUMP JUMPDEST PUSH2 0x2F9A DUP2 PUSH2 0x2B29 JUMP JUMPDEST DUP3 MSTORE POP POP JUMP JUMPDEST PUSH1 0x0 PUSH1 0x20 DUP3 ADD SWAP1 POP PUSH2 0x2FB5 PUSH1 0x0 DUP4 ADD DUP5 PUSH2 0x2F91 JUMP JUMPDEST SWAP3 SWAP2 POP POP JUMP JUMPDEST PUSH32 0x4E487B7100000000000000000000000000000000000000000000000000000000 PUSH1 0x0 MSTORE PUSH1 0x41 PUSH1 0x4 MSTORE PUSH1 0x24 PUSH1 0x0 REVERT JUMPDEST PUSH32 0x4E487B7100000000000000000000000000000000000000000000000000000000 PUSH1 0x0 MSTORE PUSH1 0x32 PUSH1 0x4 MSTORE PUSH1 0x24 PUSH1 0x0 REVERT JUMPDEST PUSH32 0x4E487B7100000000000000000000000000000000000000000000000000000000 PUSH1 0x0 MSTORE PUSH1 0x11 PUSH1 0x4 MSTORE PUSH1 0x24 PUSH1 0x0 REVERT JUMPDEST PUSH1 0x0 PUSH2 0x3053 DUP3 PUSH2 0x2B4A JUMP JUMPDEST SWAP2 POP PUSH2 0x305E DUP4 PUSH2 0x2B4A JUMP JUMPDEST SWAP3 POP DUP3 DUP3 ADD SWAP1 POP DUP1 DUP3 GT ISZERO PUSH2 0x3076 JUMPI PUSH2 0x3075 PUSH2 0x3019 JUMP JUMPDEST JUMPDEST SWAP3 SWAP2 POP POP JUMP JUMPDEST PUSH1 0x0 PUSH2 0x3087 DUP3 PUSH2 0x2B4A JUMP JUMPDEST SWAP2 POP PUSH32 0xFFFFFFFFFFFFFFFFFFFFFFFFFFFFFFFFFFFFFFFFFFFFFFFFFFFFFFFFFFFFFFFF DUP3 SUB PUSH2 0x30B9 JUMPI PUSH2 0x30B8 PUSH2 0x3019 JUMP JUMPDEST JUMPDEST PUSH1 0x1 DUP3 ADD SWAP1 POP SWAP2 SWAP1 POP JUMP JUMPDEST PUSH1 0x0 PUSH2 0x30CF DUP3 PUSH2 0x2B4A JUMP JUMPDEST SWAP2 POP PUSH2 0x30DA DUP4 PUSH2 0x2B4A JUMP JUMPDEST SWAP3 POP DUP3 DUP3 SUB SWAP1 POP DUP2 DUP2 GT ISZERO PUSH2 0x30F2 JUMPI PUSH2 0x30F1 PUSH2 0x3019 JUMP JUMPDEST JUMPDEST SWAP3 SWAP2 POP POP JUMP JUMPDEST PUSH2 0x3101 DUP2 PUSH2 0x2B4A JUMP JUMPDEST DUP3 MSTORE POP POP JUMP JUMPDEST PUSH1 0x0 PUSH1 0x40 DUP3 ADD SWAP1 POP PUSH2 0x311C PUSH1 0x0 DUP4 ADD DUP6 PUSH2 0x2F91 JUMP JUMPDEST PUSH2 0x3129 PUSH1 0x20 DUP4 ADD DUP5 PUSH2 0x30F8 JUMP JUMPDEST SWAP4 SWAP3 POP POP POP JUMP JUMPDEST PUSH1 0x0 PUSH1 0x20 DUP3 ADD SWAP1 POP PUSH2 0x3145 PUSH1 0x0 DUP4 ADD DUP5 PUSH2 0x30F8 JUMP JUMPDEST SWAP3 SWAP2 POP POP JUMP JUMPDEST PUSH1 0x0 DUP2 MLOAD SWAP1 POP PUSH2 0x315A DUP2 PUSH2 0x2CAE JUMP JUMPDEST SWAP3 SWAP2 POP POP JUMP JUMPDEST PUSH1 0x0 PUSH1 0x20 DUP3 DUP5 SUB SLT ISZERO PUSH2 0x3176 JUMPI PUSH2 0x3175 PUSH2 0x2A1D JUMP JUMPDEST JUMPDEST PUSH1 0x0 PUSH2 0x3184 DUP5 DUP3 DUP6 ADD PUSH2 0x314B JUMP JUMPDEST SWAP2 POP POP SWAP3 SWAP2 POP POP JUMP JUMPDEST PUSH1 0x0 PUSH1 0x40 DUP3 ADD SWAP1 POP PUSH2 0x31A2 PUSH1 0x0 DUP4 ADD DUP6 PUSH2 0x30F8 JUMP JUMPDEST PUSH2 0x31AF PUSH1 0x20 DUP4 ADD DUP5 PUSH2 0x30F8 JUMP JUMPDEST SWAP4 SWAP3 POP POP POP JUMP JUMPDEST PUSH1 0x0 PUSH1 0x60 DUP3 ADD SWAP1 POP PUSH2 0x31CB PUSH1 0x0 DUP4 ADD DUP7 PUSH2 0x2F91 JUMP JUMPDEST PUSH2 0x31D8 PUSH1 0x20 DUP4 ADD DUP6 PUSH2 0x30F8 JUMP JUMPDEST PUSH2 0x31E5 PUSH1 0x40 DUP4 ADD DUP5 PUSH2 0x30F8 JUMP JUMPDEST SWAP5 SWAP4 POP POP POP POP JUMP JUMPDEST PUSH32 0x4E487B7100000000000000000000000000000000000000000000000000000000 PUSH1 0x0 MSTORE PUSH1 0x12 PUSH1 0x4 MSTORE PUSH1 0x24 PUSH1 0x0 REVERT JUMPDEST PUSH1 0x0 PUSH2 0x3227 DUP3 PUSH2 0x2B4A JUMP JUMPDEST SWAP2 POP PUSH2 0x3232 DUP4 PUSH2 0x2B4A JUMP JUMPDEST SWAP3 POP DUP3 PUSH2 0x3242 JUMPI PUSH2 0x3241 PUSH2 0x31ED JUMP JUMPDEST JUMPDEST DUP3 DUP3 DIV SWAP1 POP SWAP3 SWAP2 POP POP JUMP JUMPDEST PUSH1 0x0 PUSH2 0x3258 DUP3 PUSH2 0x2B4A JUMP JUMPDEST SWAP2 POP PUSH2 0x3263 DUP4 PUSH2 0x2B4A JUMP JUMPDEST SWAP3 POP DUP3 DUP3 MUL PUSH2 0x3271 DUP2 PUSH2 0x2B4A JUMP JUMPDEST SWAP2 POP DUP3 DUP3 DIV DUP5 EQ DUP4 ISZERO OR PUSH2 0x3288 JUMPI PUSH2 0x3287 PUSH2 0x3019 JUMP JUMPDEST JUMPDEST POP SWAP3 SWAP2 POP POP JUMP JUMPDEST PUSH1 0x0 PUSH1 0x60 DUP3 ADD SWAP1 POP PUSH2 0x32A4 PUSH1 0x0 DUP4 ADD DUP7 PUSH2 0x2F91 JUMP JUMPDEST PUSH2 0x32B1 PUSH1 0x20 DUP4 ADD DUP6 PUSH2 0x2F91 JUMP JUMPDEST PUSH2 0x32BE PUSH1 0x40 DUP4 ADD DUP5 PUSH2 0x30F8 JUMP JUMPDEST SWAP5 SWAP4 POP POP POP POP JUMP JUMPDEST PUSH1 0x0 DUP3 DUP3 MSTORE PUSH1 0x20 DUP3 ADD SWAP1 POP SWAP3 SWAP2 POP POP JUMP JUMPDEST PUSH32 0x496E697469616C697A61626C653A20636F6E747261637420697320616C726561 PUSH1 0x0 DUP3 ADD MSTORE PUSH32 0x647920696E697469616C697A6564000000000000000000000000000000000000 PUSH1 0x20 DUP3 ADD MSTORE POP JUMP JUMPDEST PUSH1 0x0 PUSH2 0x3333 PUSH1 0x2E DUP4 PUSH2 0x32C6 JUMP JUMPDEST SWAP2 POP PUSH2 0x333E DUP3 PUSH2 0x32D7 JUMP JUMPDEST PUSH1 0x40 DUP3 ADD SWAP1 POP SWAP2 SWAP1 POP JUMP JUMPDEST PUSH1 0x0 PUSH1 0x20 DUP3 ADD SWAP1 POP DUP2 DUP2 SUB PUSH1 0x0 DUP4 ADD MSTORE PUSH2 0x3362 DUP2 PUSH2 0x3326 JUMP JUMPDEST SWAP1 POP SWAP2 SWAP1 POP JUMP JUMPDEST PUSH1 0x0 DUP2 SWAP1 POP SWAP2 SWAP1 POP JUMP JUMPDEST PUSH1 0x0 PUSH1 0xFF DUP3 AND SWAP1 POP SWAP2 SWAP1 POP JUMP JUMPDEST PUSH1 0x0 DUP2 SWAP1 POP SWAP2 SWAP1 POP JUMP JUMPDEST PUSH1 0x0 PUSH2 0x33A5 PUSH2 0x33A0 PUSH2 0x339B DUP5 PUSH2 0x3369 JUMP JUMPDEST PUSH2 0x3380 JUMP JUMPDEST PUSH2 0x3373 JUMP JUMPDEST SWAP1 POP SWAP2 SWAP1 POP JUMP JUMPDEST PUSH2 0x33B5 DUP2 PUSH2 0x338A JUMP JUMPDEST DUP3 MSTORE POP POP JUMP JUMPDEST PUSH1 0x0 PUSH1 0x20 DUP3 ADD SWAP1 POP PUSH2 0x33D0 PUSH1 0x0 DUP4 ADD DUP5 PUSH2 0x33AC JUMP JUMPDEST SWAP3 SWAP2 POP POP JUMP JUMPDEST PUSH32 0x4F776E61626C653A206E6577206F776E657220697320746865207A65726F2061 PUSH1 0x0 DUP3 ADD MSTORE PUSH32 0x6464726573730000000000000000000000000000000000000000000000000000 PUSH1 0x20 DUP3 ADD MSTORE POP JUMP JUMPDEST PUSH1 0x0 PUSH2 0x3432 PUSH1 0x26 DUP4 PUSH2 0x32C6 JUMP JUMPDEST SWAP2 POP PUSH2 0x343D DUP3 PUSH2 0x33D6 JUMP JUMPDEST PUSH1 0x40 DUP3 ADD SWAP1 POP SWAP2 SWAP1 POP JUMP JUMPDEST PUSH1 0x0 PUSH1 0x20 DUP3 ADD SWAP1 POP DUP2 DUP2 SUB PUSH1 0x0 DUP4 ADD MSTORE PUSH2 0x3461 DUP2 PUSH2 0x3425 JUMP JUMPDEST SWAP1 POP SWAP2 SWAP1 POP JUMP JUMPDEST PUSH32 0x4F776E61626C653A2063616C6C6572206973206E6F7420746865206F776E6572 PUSH1 0x0 DUP3 ADD MSTORE POP JUMP JUMPDEST PUSH1 0x0 PUSH2 0x349E PUSH1 0x20 DUP4 PUSH2 0x32C6 JUMP JUMPDEST SWAP2 POP PUSH2 0x34A9 DUP3 PUSH2 0x3468 JUMP JUMPDEST PUSH1 0x20 DUP3 ADD SWAP1 POP SWAP2 SWAP1 POP JUMP JUMPDEST PUSH1 0x0 PUSH1 0x20 DUP3 ADD SWAP1 POP DUP2 DUP2 SUB PUSH1 0x0 DUP4 ADD MSTORE PUSH2 0x34CD DUP2 PUSH2 0x3491 JUMP JUMPDEST SWAP1 POP SWAP2 SWAP1 POP JUMP JUMPDEST PUSH32 0x5265656E7472616E637947756172643A207265656E7472616E742063616C6C00 PUSH1 0x0 DUP3 ADD MSTORE POP JUMP JUMPDEST PUSH1 0x0 PUSH2 0x350A PUSH1 0x1F DUP4 PUSH2 0x32C6 JUMP JUMPDEST SWAP2 POP PUSH2 0x3515 DUP3 PUSH2 0x34D4 JUMP JUMPDEST PUSH1 0x20 DUP3 ADD SWAP1 POP SWAP2 SWAP1 POP JUMP JUMPDEST PUSH1 0x0 PUSH1 0x20 DUP3 ADD SWAP1 POP DUP2 DUP2 SUB PUSH1 0x0 DUP4 ADD MSTORE PUSH2 0x3539 DUP2 PUSH2 0x34FD JUMP JUMPDEST SWAP1 POP SWAP2 SWAP1 POP JUMP JUMPDEST PUSH32 0x496E697469616C697A61626C653A20636F6E7472616374206973206E6F742069 PUSH1 0x0 DUP3 ADD MSTORE PUSH32 0x6E697469616C697A696E67000000000000000000000000000000000000000000 PUSH1 0x20 DUP3 ADD MSTORE POP JUMP JUMPDEST PUSH1 0x0 PUSH2 0x359C PUSH1 0x2B DUP4 PUSH2 0x32C6 JUMP JUMPDEST SWAP2 POP PUSH2 0x35A7 DUP3 PUSH2 0x3540 JUMP JUMPDEST PUSH1 0x40 DUP3 ADD SWAP1 POP SWAP2 SWAP1 POP JUMP JUMPDEST PUSH1 0x0 PUSH1 0x20 DUP3 ADD SWAP1 POP DUP2 DUP2 SUB PUSH1 0x0 DUP4 ADD MSTORE PUSH2 0x35CB DUP2 PUSH2 0x358F JUMP JUMPDEST SWAP1 POP SWAP2 SWAP1 POP JUMP JUMPDEST PUSH1 0x0 DUP2 SWAP1 POP SWAP3 SWAP2 POP POP JUMP JUMPDEST POP JUMP JUMPDEST PUSH1 0x0 PUSH2 0x35ED PUSH1 0x0 DUP4 PUSH2 0x35D2 JUMP JUMPDEST SWAP2 POP PUSH2 0x35F8 DUP3 PUSH2 0x35DD JUMP JUMPDEST PUSH1 0x0 DUP3 ADD SWAP1 POP SWAP2 SWAP1 POP JUMP JUMPDEST PUSH1 0x0 PUSH2 0x360E DUP3 PUSH2 0x35E0 JUMP JUMPDEST SWAP2 POP DUP2 SWAP1 POP SWAP2 SWAP1 POP JUMP JUMPDEST PUSH32 0x5472616E73666572206661696C65642E00000000000000000000000000000000 PUSH1 0x0 DUP3 ADD MSTORE POP JUMP JUMPDEST PUSH1 0x0 PUSH2 0x364E PUSH1 0x10 DUP4 PUSH2 0x32C6 JUMP JUMPDEST SWAP2 POP PUSH2 0x3659 DUP3 PUSH2 0x3618 JUMP JUMPDEST PUSH1 0x20 DUP3 ADD SWAP1 POP SWAP2 SWAP1 POP JUMP JUMPDEST PUSH1 0x0 PUSH1 0x20 DUP3 ADD SWAP1 POP DUP2 DUP2 SUB PUSH1 0x0 DUP4 ADD MSTORE PUSH2 0x367D DUP2 PUSH2 0x3641 JUMP JUMPDEST SWAP1 POP SWAP2 SWAP1 POP JUMP JUMPDEST PUSH32 0x4E487B7100000000000000000000000000000000000000000000000000000000 PUSH1 0x0 MSTORE PUSH1 0x31 PUSH1 0x4 MSTORE PUSH1 0x24 PUSH1 0x0 REVERT INVALID LOG2 PUSH5 0x6970667358 0x22 SLT KECCAK256 CALLER PUSH10 0x16B31D093FF24F7304D9 DUP12 ADDMOD DUP8 JUMPI 0x25 PUSH32 0xAC6A534F119161E6A47091058A2D64736F6C6343000812003300000000000000 "
				},
				"gasEstimates": {
					"creation": {
						"codeDepositCost": "2811400",
						"executionCost": "infinite",
						"totalCost": "infinite"
					},
					"external": {
						"approveAdmin(address)": "infinite",
						"buyItem(address,uint256)": "infinite",
						"cancelListing(address,uint256)": "infinite",
						"fetchListedMarketItems()": "infinite",
						"fetchMyListings()": "infinite",
						"getAdmins()": "infinite",
						"getListing(address,uint256)": "infinite",
						"getListingById(uint256)": "infinite",
						"initialize(address)": "167317",
						"isAdmin(address)": "infinite",
						"listItem(address,uint256,uint256)": "infinite",
						"owner()": "2611",
						"renounceOwnership()": "30421",
						"revokeAdmin(address)": "infinite",
						"supportsInterface(bytes4)": "751",
						"transferOwnership(address)": "30810",
						"updateDevWallet(address)": "27054",
						"updateListing(address,uint256,uint256)": "infinite",
						"withdrawAll(address)": "infinite"
					}
				},
				"methodIdentifiers": {
					"approveAdmin(address)": "6d73e669",
					"buyItem(address,uint256)": "9f37092a",
					"cancelListing(address,uint256)": "b2ddee06",
					"fetchListedMarketItems()": "1fb0080e",
					"fetchMyListings()": "15a70d8d",
					"getAdmins()": "31ae450b",
					"getListing(address,uint256)": "88700d1c",
					"getListingById(uint256)": "4f85310f",
					"initialize(address)": "c4d66de8",
					"isAdmin(address)": "24d7806c",
					"listItem(address,uint256,uint256)": "89bfd38f",
					"owner()": "8da5cb5b",
					"renounceOwnership()": "715018a6",
					"revokeAdmin(address)": "2d345670",
					"supportsInterface(bytes4)": "01ffc9a7",
					"transferOwnership(address)": "f2fde38b",
					"updateDevWallet(address)": "1816467f",
					"updateListing(address,uint256,uint256)": "f772adf1",
					"withdrawAll(address)": "fa09e630"
				}
			},
			"storageLayout": {
				"storage": [
					{
						"astId": 138,
						"contract": "contracts/contracts/ff-mp/MP.sol:FlowFrenzMarketplace",
						"label": "_initialized",
						"offset": 0,
						"slot": "0",
						"type": "t_uint8"
					},
					{
						"astId": 141,
						"contract": "contracts/contracts/ff-mp/MP.sol:FlowFrenzMarketplace",
						"label": "_initializing",
						"offset": 1,
						"slot": "0",
						"type": "t_bool"
					},
					{
						"astId": 871,
						"contract": "contracts/contracts/ff-mp/MP.sol:FlowFrenzMarketplace",
						"label": "__gap",
						"offset": 0,
						"slot": "1",
						"type": "t_array(t_uint256)50_storage"
					},
					{
						"astId": 10,
						"contract": "contracts/contracts/ff-mp/MP.sol:FlowFrenzMarketplace",
						"label": "_owner",
						"offset": 0,
						"slot": "51",
						"type": "t_address"
					},
					{
						"astId": 130,
						"contract": "contracts/contracts/ff-mp/MP.sol:FlowFrenzMarketplace",
						"label": "__gap",
						"offset": 0,
						"slot": "52",
						"type": "t_array(t_uint256)49_storage"
					},
					{
						"astId": 1903,
						"contract": "contracts/contracts/ff-mp/MP.sol:FlowFrenzMarketplace",
						"label": "_admins",
						"offset": 0,
						"slot": "101",
						"type": "t_struct(AddressSet)1328_storage"
					},
					{
						"astId": 1905,
						"contract": "contracts/contracts/ff-mp/MP.sol:FlowFrenzMarketplace",
						"label": "_devWallet",
						"offset": 0,
						"slot": "103",
						"type": "t_address"
					},
					{
						"astId": 314,
						"contract": "contracts/contracts/ff-mp/MP.sol:FlowFrenzMarketplace",
						"label": "_status",
						"offset": 0,
						"slot": "104",
						"type": "t_uint256"
					},
					{
						"astId": 383,
						"contract": "contracts/contracts/ff-mp/MP.sol:FlowFrenzMarketplace",
						"label": "__gap",
						"offset": 0,
						"slot": "105",
						"type": "t_array(t_uint256)49_storage"
					},
					{
						"astId": 2238,
						"contract": "contracts/contracts/ff-mp/MP.sol:FlowFrenzMarketplace",
						"label": "s_listings",
						"offset": 0,
						"slot": "154",
						"type": "t_mapping(t_address,t_mapping(t_uint256,t_struct(Listing)2260_storage))"
					},
					{
						"astId": 2242,
						"contract": "contracts/contracts/ff-mp/MP.sol:FlowFrenzMarketplace",
						"label": "s_proceeds",
						"offset": 0,
						"slot": "155",
						"type": "t_mapping(t_address,t_uint256)"
					},
					{
						"astId": 2247,
						"contract": "contracts/contracts/ff-mp/MP.sol:FlowFrenzMarketplace",
						"label": "_idToListing",
						"offset": 0,
						"slot": "156",
						"type": "t_mapping(t_uint256,t_struct(ListedItem)2270_storage)"
					},
					{
						"astId": 2250,
						"contract": "contracts/contracts/ff-mp/MP.sol:FlowFrenzMarketplace",
						"label": "_totalMpListings",
						"offset": 0,
						"slot": "157",
						"type": "t_struct(Counter)1737_storage"
					},
					{
						"astId": 2253,
						"contract": "contracts/contracts/ff-mp/MP.sol:FlowFrenzMarketplace",
						"label": "_totalComplete",
						"offset": 0,
						"slot": "158",
						"type": "t_struct(Counter)1737_storage"
					}
				],
				"types": {
					"t_address": {
						"encoding": "inplace",
						"label": "address",
						"numberOfBytes": "20"
					},
					"t_array(t_bytes32)dyn_storage": {
						"base": "t_bytes32",
						"encoding": "dynamic_array",
						"label": "bytes32[]",
						"numberOfBytes": "32"
					},
					"t_array(t_uint256)49_storage": {
						"base": "t_uint256",
						"encoding": "inplace",
						"label": "uint256[49]",
						"numberOfBytes": "1568"
					},
					"t_array(t_uint256)50_storage": {
						"base": "t_uint256",
						"encoding": "inplace",
						"label": "uint256[50]",
						"numberOfBytes": "1600"
					},
					"t_bool": {
						"encoding": "inplace",
						"label": "bool",
						"numberOfBytes": "1"
					},
					"t_bytes32": {
						"encoding": "inplace",
						"label": "bytes32",
						"numberOfBytes": "32"
					},
					"t_mapping(t_address,t_mapping(t_uint256,t_struct(Listing)2260_storage))": {
						"encoding": "mapping",
						"key": "t_address",
						"label": "mapping(address => mapping(uint256 => struct FlowFrenzTransactionMgr.Listing))",
						"numberOfBytes": "32",
						"value": "t_mapping(t_uint256,t_struct(Listing)2260_storage)"
					},
					"t_mapping(t_address,t_uint256)": {
						"encoding": "mapping",
						"key": "t_address",
						"label": "mapping(address => uint256)",
						"numberOfBytes": "32",
						"value": "t_uint256"
					},
					"t_mapping(t_bytes32,t_uint256)": {
						"encoding": "mapping",
						"key": "t_bytes32",
						"label": "mapping(bytes32 => uint256)",
						"numberOfBytes": "32",
						"value": "t_uint256"
					},
					"t_mapping(t_uint256,t_struct(ListedItem)2270_storage)": {
						"encoding": "mapping",
						"key": "t_uint256",
						"label": "mapping(uint256 => struct FlowFrenzTransactionMgr.ListedItem)",
						"numberOfBytes": "32",
						"value": "t_struct(ListedItem)2270_storage"
					},
					"t_mapping(t_uint256,t_struct(Listing)2260_storage)": {
						"encoding": "mapping",
						"key": "t_uint256",
						"label": "mapping(uint256 => struct FlowFrenzTransactionMgr.Listing)",
						"numberOfBytes": "32",
						"value": "t_struct(Listing)2260_storage"
					},
					"t_struct(AddressSet)1328_storage": {
						"encoding": "inplace",
						"label": "struct EnumerableSetUpgradeable.AddressSet",
						"members": [
							{
								"astId": 1327,
								"contract": "contracts/contracts/ff-mp/MP.sol:FlowFrenzMarketplace",
								"label": "_inner",
								"offset": 0,
								"slot": "0",
								"type": "t_struct(Set)1013_storage"
							}
						],
						"numberOfBytes": "64"
					},
					"t_struct(Counter)1737_storage": {
						"encoding": "inplace",
						"label": "struct Counters.Counter",
						"members": [
							{
								"astId": 1736,
								"contract": "contracts/contracts/ff-mp/MP.sol:FlowFrenzMarketplace",
								"label": "_value",
								"offset": 0,
								"slot": "0",
								"type": "t_uint256"
							}
						],
						"numberOfBytes": "32"
					},
					"t_struct(ListedItem)2270_storage": {
						"encoding": "inplace",
						"label": "struct FlowFrenzTransactionMgr.ListedItem",
						"members": [
							{
								"astId": 2262,
								"contract": "contracts/contracts/ff-mp/MP.sol:FlowFrenzMarketplace",
								"label": "contractAddress",
								"offset": 0,
								"slot": "0",
								"type": "t_address"
							},
							{
								"astId": 2264,
								"contract": "contracts/contracts/ff-mp/MP.sol:FlowFrenzMarketplace",
								"label": "tokenId",
								"offset": 0,
								"slot": "1",
								"type": "t_uint256"
							},
							{
								"astId": 2267,
								"contract": "contracts/contracts/ff-mp/MP.sol:FlowFrenzMarketplace",
								"label": "listing",
								"offset": 0,
								"slot": "2",
								"type": "t_struct(Listing)2260_storage"
							},
							{
								"astId": 2269,
								"contract": "contracts/contracts/ff-mp/MP.sol:FlowFrenzMarketplace",
								"label": "active",
								"offset": 0,
								"slot": "5",
								"type": "t_bool"
							}
						],
						"numberOfBytes": "192"
					},
					"t_struct(Listing)2260_storage": {
						"encoding": "inplace",
						"label": "struct FlowFrenzTransactionMgr.Listing",
						"members": [
							{
								"astId": 2255,
								"contract": "contracts/contracts/ff-mp/MP.sol:FlowFrenzMarketplace",
								"label": "price",
								"offset": 0,
								"slot": "0",
								"type": "t_uint256"
							},
							{
								"astId": 2257,
								"contract": "contracts/contracts/ff-mp/MP.sol:FlowFrenzMarketplace",
								"label": "seller",
								"offset": 0,
								"slot": "1",
								"type": "t_address"
							},
							{
								"astId": 2259,
								"contract": "contracts/contracts/ff-mp/MP.sol:FlowFrenzMarketplace",
								"label": "listingId",
								"offset": 0,
								"slot": "2",
								"type": "t_uint256"
							}
						],
						"numberOfBytes": "96"
					},
					"t_struct(Set)1013_storage": {
						"encoding": "inplace",
						"label": "struct EnumerableSetUpgradeable.Set",
						"members": [
							{
								"astId": 1008,
								"contract": "contracts/contracts/ff-mp/MP.sol:FlowFrenzMarketplace",
								"label": "_values",
								"offset": 0,
								"slot": "0",
								"type": "t_array(t_bytes32)dyn_storage"
							},
							{
								"astId": 1012,
								"contract": "contracts/contracts/ff-mp/MP.sol:FlowFrenzMarketplace",
								"label": "_indexes",
								"offset": 0,
								"slot": "1",
								"type": "t_mapping(t_bytes32,t_uint256)"
							}
						],
						"numberOfBytes": "64"
					},
					"t_uint256": {
						"encoding": "inplace",
						"label": "uint256",
						"numberOfBytes": "32"
					},
					"t_uint8": {
						"encoding": "inplace",
						"label": "uint8",
						"numberOfBytes": "1"
					}
				}
			},
			"userdoc": {
				"kind": "user",
				"methods": {
					"initialize(address)": {
						"notice": "Initializer"
					}
				},
				"version": 1
			}
		}
	}
}