{
	"contracts/contracts/ff-mp/MP.sol": {
		"FlowFrenzMarketplace": {
			"abi": [
				{
					"inputs": [],
					"stateMutability": "nonpayable",
					"type": "constructor"
				},
				{
					"inputs": [
						{
							"internalType": "address",
							"name": "contractAddress",
							"type": "address"
						},
						{
							"internalType": "uint256",
							"name": "tokenId",
							"type": "uint256"
						}
					],
					"name": "AlreadyListed",
					"type": "error"
				},
				{
					"inputs": [],
					"name": "NotApprovedForMarketplace",
					"type": "error"
				},
				{
					"inputs": [
						{
							"internalType": "address",
							"name": "contractAddress",
							"type": "address"
						},
						{
							"internalType": "uint256",
							"name": "tokenId",
							"type": "uint256"
						}
					],
					"name": "NotListed",
					"type": "error"
				},
				{
					"inputs": [],
					"name": "NotOwner",
					"type": "error"
				},
				{
					"inputs": [],
					"name": "PriceMustBeAboveZero",
					"type": "error"
				},
				{
					"inputs": [
						{
							"internalType": "address",
							"name": "contractAddress",
							"type": "address"
						},
						{
							"internalType": "uint256",
							"name": "tokenId",
							"type": "uint256"
						},
						{
							"internalType": "uint256",
							"name": "price",
							"type": "uint256"
						}
					],
					"name": "PriceNotMet",
					"type": "error"
				},
				{
					"anonymous": false,
					"inputs": [
						{
							"indexed": true,
							"internalType": "address",
							"name": "account",
							"type": "address"
						},
						{
							"indexed": true,
							"internalType": "address",
							"name": "sender",
							"type": "address"
						}
					],
					"name": "AdminApproved",
					"type": "event"
				},
				{
					"anonymous": false,
					"inputs": [
						{
							"indexed": true,
							"internalType": "address",
							"name": "account",
							"type": "address"
						},
						{
							"indexed": true,
							"internalType": "address",
							"name": "sender",
							"type": "address"
						}
					],
					"name": "AdminRevoked",
					"type": "event"
				},
				{
					"anonymous": false,
					"inputs": [
						{
							"indexed": false,
							"internalType": "uint8",
							"name": "version",
							"type": "uint8"
						}
					],
					"name": "Initialized",
					"type": "event"
				},
				{
					"anonymous": false,
					"inputs": [
						{
							"indexed": true,
							"internalType": "address",
							"name": "buyer",
							"type": "address"
						},
						{
							"indexed": true,
							"internalType": "address",
							"name": "contractAddress",
							"type": "address"
						},
						{
							"indexed": true,
							"internalType": "uint256",
							"name": "tokenId",
							"type": "uint256"
						},
						{
							"indexed": false,
							"internalType": "uint256",
							"name": "price",
							"type": "uint256"
						}
					],
					"name": "ItemBought",
					"type": "event"
				},
				{
					"anonymous": false,
					"inputs": [
						{
							"indexed": true,
							"internalType": "address",
							"name": "seller",
							"type": "address"
						},
						{
							"indexed": true,
							"internalType": "address",
							"name": "contractAddress",
							"type": "address"
						},
						{
							"indexed": true,
							"internalType": "uint256",
							"name": "tokenId",
							"type": "uint256"
						}
					],
					"name": "ItemCanceled",
					"type": "event"
				},
				{
					"anonymous": false,
					"inputs": [
						{
							"indexed": false,
							"internalType": "uint256",
							"name": "listingId",
							"type": "uint256"
						},
						{
							"indexed": true,
							"internalType": "address",
							"name": "seller",
							"type": "address"
						},
						{
							"indexed": true,
							"internalType": "address",
							"name": "contractAddress",
							"type": "address"
						},
						{
							"indexed": true,
							"internalType": "uint256",
							"name": "tokenId",
							"type": "uint256"
						},
						{
							"indexed": false,
							"internalType": "uint256",
							"name": "price",
							"type": "uint256"
						}
					],
					"name": "ItemListed",
					"type": "event"
				},
				{
					"anonymous": false,
					"inputs": [
						{
							"indexed": true,
							"internalType": "address",
							"name": "previousOwner",
							"type": "address"
						},
						{
							"indexed": true,
							"internalType": "address",
							"name": "newOwner",
							"type": "address"
						}
					],
					"name": "OwnershipTransferred",
					"type": "event"
				},
				{
					"inputs": [
						{
							"internalType": "address",
							"name": "admin",
							"type": "address"
						}
					],
					"name": "approveAdmin",
					"outputs": [],
					"stateMutability": "nonpayable",
					"type": "function"
				},
				{
					"inputs": [
						{
							"internalType": "address",
							"name": "contractAddress",
							"type": "address"
						},
						{
							"internalType": "uint256",
							"name": "tokenId",
							"type": "uint256"
						}
					],
					"name": "buyItem",
					"outputs": [],
					"stateMutability": "payable",
					"type": "function"
				},
				{
					"inputs": [
						{
							"internalType": "address",
							"name": "contractAddress",
							"type": "address"
						},
						{
							"internalType": "uint256",
							"name": "tokenId",
							"type": "uint256"
						}
					],
					"name": "cancelListing",
					"outputs": [],
					"stateMutability": "nonpayable",
					"type": "function"
				},
				{
					"inputs": [],
					"name": "fetchListedMarketItems",
					"outputs": [
						{
							"components": [
								{
									"internalType": "address",
									"name": "contractAddress",
									"type": "address"
								},
								{
									"internalType": "uint256",
									"name": "tokenId",
									"type": "uint256"
								},
								{
									"components": [
										{
											"internalType": "uint256",
											"name": "price",
											"type": "uint256"
										},
										{
											"internalType": "address",
											"name": "seller",
											"type": "address"
										},
										{
											"internalType": "uint256",
											"name": "listingId",
											"type": "uint256"
										}
									],
									"internalType": "struct FlowFrenzTransactionMgr.Listing",
									"name": "listing",
									"type": "tuple"
								},
								{
									"internalType": "bool",
									"name": "active",
									"type": "bool"
								}
							],
							"internalType": "struct FlowFrenzTransactionMgr.ListedItem[]",
							"name": "",
							"type": "tuple[]"
						}
					],
					"stateMutability": "view",
					"type": "function"
				},
				{
					"inputs": [],
					"name": "fetchMyListings",
					"outputs": [
						{
							"components": [
								{
									"internalType": "address",
									"name": "contractAddress",
									"type": "address"
								},
								{
									"internalType": "uint256",
									"name": "tokenId",
									"type": "uint256"
								},
								{
									"components": [
										{
											"internalType": "uint256",
											"name": "price",
											"type": "uint256"
										},
										{
											"internalType": "address",
											"name": "seller",
											"type": "address"
										},
										{
											"internalType": "uint256",
											"name": "listingId",
											"type": "uint256"
										}
									],
									"internalType": "struct FlowFrenzTransactionMgr.Listing",
									"name": "listing",
									"type": "tuple"
								},
								{
									"internalType": "bool",
									"name": "active",
									"type": "bool"
								}
							],
							"internalType": "struct FlowFrenzTransactionMgr.ListedItem[]",
							"name": "",
							"type": "tuple[]"
						}
					],
					"stateMutability": "view",
					"type": "function"
				},
				{
					"inputs": [],
					"name": "getAdmins",
					"outputs": [
						{
							"internalType": "address[]",
							"name": "admins",
							"type": "address[]"
						}
					],
					"stateMutability": "view",
					"type": "function"
				},
				{
					"inputs": [
						{
							"internalType": "address",
							"name": "contractAddress",
							"type": "address"
						},
						{
							"internalType": "uint256",
							"name": "tokenId",
							"type": "uint256"
						}
					],
					"name": "getListing",
					"outputs": [
						{
							"components": [
								{
									"internalType": "uint256",
									"name": "price",
									"type": "uint256"
								},
								{
									"internalType": "address",
									"name": "seller",
									"type": "address"
								},
								{
									"internalType": "uint256",
									"name": "listingId",
									"type": "uint256"
								}
							],
							"internalType": "struct FlowFrenzTransactionMgr.Listing",
							"name": "",
							"type": "tuple"
						}
					],
					"stateMutability": "view",
					"type": "function"
				},
				{
					"inputs": [
						{
							"internalType": "uint256",
							"name": "listingId",
							"type": "uint256"
						}
					],
					"name": "getListingById",
					"outputs": [
						{
							"components": [
								{
									"internalType": "address",
									"name": "contractAddress",
									"type": "address"
								},
								{
									"internalType": "uint256",
									"name": "tokenId",
									"type": "uint256"
								},
								{
									"components": [
										{
											"internalType": "uint256",
											"name": "price",
											"type": "uint256"
										},
										{
											"internalType": "address",
											"name": "seller",
											"type": "address"
										},
										{
											"internalType": "uint256",
											"name": "listingId",
											"type": "uint256"
										}
									],
									"internalType": "struct FlowFrenzTransactionMgr.Listing",
									"name": "listing",
									"type": "tuple"
								},
								{
									"internalType": "bool",
									"name": "active",
									"type": "bool"
								}
							],
							"internalType": "struct FlowFrenzTransactionMgr.ListedItem",
							"name": "",
							"type": "tuple"
						}
					],
					"stateMutability": "view",
					"type": "function"
				},
				{
					"inputs": [],
					"name": "initialize",
					"outputs": [],
					"stateMutability": "nonpayable",
					"type": "function"
				},
				{
					"inputs": [
						{
							"internalType": "address",
							"name": "admin",
							"type": "address"
						}
					],
					"name": "isAdmin",
					"outputs": [
						{
							"internalType": "bool",
							"name": "",
							"type": "bool"
						}
					],
					"stateMutability": "view",
					"type": "function"
				},
				{
					"inputs": [
						{
							"internalType": "address",
							"name": "contractAddress",
							"type": "address"
						},
						{
							"internalType": "uint256",
							"name": "tokenId",
							"type": "uint256"
						},
						{
							"internalType": "uint256",
							"name": "price",
							"type": "uint256"
						}
					],
					"name": "listItem",
					"outputs": [],
					"stateMutability": "nonpayable",
					"type": "function"
				},
				{
					"inputs": [],
					"name": "owner",
					"outputs": [
						{
							"internalType": "address",
							"name": "",
							"type": "address"
						}
					],
					"stateMutability": "view",
					"type": "function"
				},
				{
					"inputs": [],
					"name": "renounceOwnership",
					"outputs": [],
					"stateMutability": "nonpayable",
					"type": "function"
				},
				{
					"inputs": [
						{
							"internalType": "address",
							"name": "admin",
							"type": "address"
						}
					],
					"name": "revokeAdmin",
					"outputs": [],
					"stateMutability": "nonpayable",
					"type": "function"
				},
				{
					"inputs": [
						{
							"internalType": "bytes4",
							"name": "interfaceId",
							"type": "bytes4"
						}
					],
					"name": "supportsInterface",
					"outputs": [
						{
							"internalType": "bool",
							"name": "",
							"type": "bool"
						}
					],
					"stateMutability": "view",
					"type": "function"
				},
				{
					"inputs": [
						{
							"internalType": "address",
							"name": "newOwner",
							"type": "address"
						}
					],
					"name": "transferOwnership",
					"outputs": [],
					"stateMutability": "nonpayable",
					"type": "function"
				},
				{
					"inputs": [
						{
							"internalType": "address",
							"name": "newDev",
							"type": "address"
						}
					],
					"name": "updateDevWallet",
					"outputs": [],
					"stateMutability": "nonpayable",
					"type": "function"
				},
				{
					"inputs": [
						{
							"internalType": "address",
							"name": "contractAddress",
							"type": "address"
						},
						{
							"internalType": "uint256",
							"name": "tokenId",
							"type": "uint256"
						},
						{
							"internalType": "uint256",
							"name": "newPrice",
							"type": "uint256"
						}
					],
					"name": "updateListing",
					"outputs": [],
					"stateMutability": "nonpayable",
					"type": "function"
				},
				{
					"inputs": [
						{
							"internalType": "address",
							"name": "to",
							"type": "address"
						}
					],
					"name": "withdrawAll",
					"outputs": [],
					"stateMutability": "nonpayable",
					"type": "function"
				}
			],
			"devdoc": {
				"kind": "dev",
				"methods": {
					"owner()": {
						"details": "Returns the address of the current owner."
					},
					"renounceOwnership()": {
						"details": "Leaves the contract without owner. It will not be possible to call `onlyOwner` functions. Can only be called by the current owner. NOTE: Renouncing ownership will leave the contract without an owner, thereby disabling any functionality that is only available to the owner."
					},
					"supportsInterface(bytes4)": {
						"details": "See {IERC165-supportsInterface}."
					},
					"transferOwnership(address)": {
						"details": "Transfers ownership of the contract to a new account (`newOwner`). Can only be called by the current owner."
					}
				},
				"version": 1
			},
			"evm": {
				"assembly": "    /* \"contracts/contracts/ff-mp/MP.sol\":592:879  contract FlowFrenzMarketplace is... */\n  mstore(0x40, 0x80)\n    /* \"contracts/contracts/ff-mp/deps/AdminControl.sol\":596:638  0xD99ce3201D3Caa7eD099d01947312dfe86Daaa23 */\n  0xd99ce3201d3caa7ed099d01947312dfe86daaa23\n    /* \"contracts/contracts/ff-mp/deps/AdminControl.sol\":566:638  address internal _devWallet = 0xD99ce3201D3Caa7eD099d01947312dfe86Daaa23 */\n  0x68\n  exp(0x0100, 0x00)\n  dup2\n  sload\n  dup2\n  0xffffffffffffffffffffffffffffffffffffffff\n  mul\n  not\n  and\n  swap1\n  dup4\n  0xffffffffffffffffffffffffffffffffffffffff\n  and\n  mul\n  or\n  swap1\n  sstore\n  pop\n    /* \"contracts/contracts/ff-mp/MP.sol\":719:768  constructor() {... */\n  callvalue\n  dup1\n  iszero\n  tag_1\n  jumpi\n  0x00\n  dup1\n  revert\ntag_1:\n  pop\n    /* \"@openzeppelin/contracts/security/ReentrancyGuard.sol\":1716:1717  1 */\n  0x01\n    /* \"@openzeppelin/contracts/security/ReentrancyGuard.sol\":1821:1828  _status */\n  0x65\n    /* \"@openzeppelin/contracts/security/ReentrancyGuard.sol\":1821:1843  _status = _NOT_ENTERED */\n  dup2\n  swap1\n  sstore\n  pop\n    /* \"contracts/contracts/ff-mp/MP.sol\":740:762  _disableInitializers() */\n  tag_6\n    /* \"contracts/contracts/ff-mp/MP.sol\":740:760  _disableInitializers */\n  shl(0x20, tag_7)\n    /* \"contracts/contracts/ff-mp/MP.sol\":740:762  _disableInitializers() */\n  0x20\n  shr\n  jump\t// in\ntag_6:\n    /* \"contracts/contracts/ff-mp/MP.sol\":592:879  contract FlowFrenzMarketplace is... */\n  jump(tag_8)\n    /* \"@openzeppelin/contracts-upgradeable/proxy/utils/Initializable.sol\":5939:6219  function _disableInitializers() internal virtual {... */\ntag_7:\n    /* \"@openzeppelin/contracts-upgradeable/proxy/utils/Initializable.sol\":6007:6020  _initializing */\n  0x00\n  0x01\n  swap1\n  sload\n  swap1\n  0x0100\n  exp\n  swap1\n  div\n  0xff\n  and\n    /* \"@openzeppelin/contracts-upgradeable/proxy/utils/Initializable.sol\":6006:6020  !_initializing */\n  iszero\n    /* \"@openzeppelin/contracts-upgradeable/proxy/utils/Initializable.sol\":5998:6064  require(!_initializing, \"Initializable: contract is initializing\") */\n  tag_10\n  jumpi\n  mload(0x40)\n  0x08c379a000000000000000000000000000000000000000000000000000000000\n  dup2\n  mstore\n  0x04\n  add\n  tag_11\n  swap1\n  tag_12\n  jump\t// in\ntag_11:\n  mload(0x40)\n  dup1\n  swap2\n  sub\n  swap1\n  revert\ntag_10:\n    /* \"@openzeppelin/contracts-upgradeable/proxy/utils/Initializable.sol\":6094:6109  type(uint8).max */\n  0xff\n    /* \"@openzeppelin/contracts-upgradeable/proxy/utils/Initializable.sol\":6078:6109  _initialized != type(uint8).max */\n  dup1\n  and\n    /* \"@openzeppelin/contracts-upgradeable/proxy/utils/Initializable.sol\":6078:6090  _initialized */\n  0x00\n  dup1\n  sload\n  swap1\n  0x0100\n  exp\n  swap1\n  div\n  0xff\n  and\n    /* \"@openzeppelin/contracts-upgradeable/proxy/utils/Initializable.sol\":6078:6109  _initialized != type(uint8).max */\n  0xff\n  and\n  eq\n    /* \"@openzeppelin/contracts-upgradeable/proxy/utils/Initializable.sol\":6074:6213  if (_initialized != type(uint8).max) {... */\n  tag_13\n  jumpi\n    /* \"@openzeppelin/contracts-upgradeable/proxy/utils/Initializable.sol\":6140:6155  type(uint8).max */\n  0xff\n    /* \"@openzeppelin/contracts-upgradeable/proxy/utils/Initializable.sol\":6125:6137  _initialized */\n  0x00\n  dup1\n    /* \"@openzeppelin/contracts-upgradeable/proxy/utils/Initializable.sol\":6125:6155  _initialized = type(uint8).max */\n  0x0100\n  exp\n  dup2\n  sload\n  dup2\n  0xff\n  mul\n  not\n  and\n  swap1\n  dup4\n  0xff\n  and\n  mul\n  or\n  swap1\n  sstore\n  pop\n    /* \"@openzeppelin/contracts-upgradeable/proxy/utils/Initializable.sol\":6174:6202  Initialized(type(uint8).max) */\n  0x7f26b83ff96e1f2b6a682f133852f6798a09c465da95921460cefb3847402498\n    /* \"@openzeppelin/contracts-upgradeable/proxy/utils/Initializable.sol\":6186:6201  type(uint8).max */\n  0xff\n    /* \"@openzeppelin/contracts-upgradeable/proxy/utils/Initializable.sol\":6174:6202  Initialized(type(uint8).max) */\n  mload(0x40)\n  tag_14\n  swap2\n  swap1\n  tag_15\n  jump\t// in\ntag_14:\n  mload(0x40)\n  dup1\n  swap2\n  sub\n  swap1\n  log1\n    /* \"@openzeppelin/contracts-upgradeable/proxy/utils/Initializable.sol\":6074:6213  if (_initialized != type(uint8).max) {... */\ntag_13:\n    /* \"@openzeppelin/contracts-upgradeable/proxy/utils/Initializable.sol\":5939:6219  function _disableInitializers() internal virtual {... */\n  jump\t// out\n    /* \"#utility.yul\":7:176   */\ntag_16:\n    /* \"#utility.yul\":91:102   */\n  0x00\n    /* \"#utility.yul\":125:131   */\n  dup3\n    /* \"#utility.yul\":120:123   */\n  dup3\n    /* \"#utility.yul\":113:132   */\n  mstore\n    /* \"#utility.yul\":165:169   */\n  0x20\n    /* \"#utility.yul\":160:163   */\n  dup3\n    /* \"#utility.yul\":156:170   */\n  add\n    /* \"#utility.yul\":141:170   */\n  swap1\n  pop\n    /* \"#utility.yul\":7:176   */\n  swap3\n  swap2\n  pop\n  pop\n  jump\t// out\n    /* \"#utility.yul\":182:408   */\ntag_17:\n    /* \"#utility.yul\":322:356   */\n  0x496e697469616c697a61626c653a20636f6e747261637420697320696e697469\n    /* \"#utility.yul\":318:319   */\n  0x00\n    /* \"#utility.yul\":310:316   */\n  dup3\n    /* \"#utility.yul\":306:320   */\n  add\n    /* \"#utility.yul\":299:357   */\n  mstore\n    /* \"#utility.yul\":391:400   */\n  0x616c697a696e6700000000000000000000000000000000000000000000000000\n    /* \"#utility.yul\":386:388   */\n  0x20\n    /* \"#utility.yul\":378:384   */\n  dup3\n    /* \"#utility.yul\":374:389   */\n  add\n    /* \"#utility.yul\":367:401   */\n  mstore\n    /* \"#utility.yul\":182:408   */\n  pop\n  jump\t// out\n    /* \"#utility.yul\":414:780   */\ntag_18:\n    /* \"#utility.yul\":556:559   */\n  0x00\n    /* \"#utility.yul\":577:644   */\n  tag_25\n    /* \"#utility.yul\":641:643   */\n  0x27\n    /* \"#utility.yul\":636:639   */\n  dup4\n    /* \"#utility.yul\":577:644   */\n  tag_16\n  jump\t// in\ntag_25:\n    /* \"#utility.yul\":570:644   */\n  swap2\n  pop\n    /* \"#utility.yul\":653:746   */\n  tag_26\n    /* \"#utility.yul\":742:745   */\n  dup3\n    /* \"#utility.yul\":653:746   */\n  tag_17\n  jump\t// in\ntag_26:\n    /* \"#utility.yul\":771:773   */\n  0x40\n    /* \"#utility.yul\":766:769   */\n  dup3\n    /* \"#utility.yul\":762:774   */\n  add\n    /* \"#utility.yul\":755:774   */\n  swap1\n  pop\n    /* \"#utility.yul\":414:780   */\n  swap2\n  swap1\n  pop\n  jump\t// out\n    /* \"#utility.yul\":786:1205   */\ntag_12:\n    /* \"#utility.yul\":952:956   */\n  0x00\n    /* \"#utility.yul\":990:992   */\n  0x20\n    /* \"#utility.yul\":979:988   */\n  dup3\n    /* \"#utility.yul\":975:993   */\n  add\n    /* \"#utility.yul\":967:993   */\n  swap1\n  pop\n    /* \"#utility.yul\":1039:1048   */\n  dup2\n    /* \"#utility.yul\":1033:1037   */\n  dup2\n    /* \"#utility.yul\":1029:1049   */\n  sub\n    /* \"#utility.yul\":1025:1026   */\n  0x00\n    /* \"#utility.yul\":1014:1023   */\n  dup4\n    /* \"#utility.yul\":1010:1027   */\n  add\n    /* \"#utility.yul\":1003:1050   */\n  mstore\n    /* \"#utility.yul\":1067:1198   */\n  tag_28\n    /* \"#utility.yul\":1193:1197   */\n  dup2\n    /* \"#utility.yul\":1067:1198   */\n  tag_18\n  jump\t// in\ntag_28:\n    /* \"#utility.yul\":1059:1198   */\n  swap1\n  pop\n    /* \"#utility.yul\":786:1205   */\n  swap2\n  swap1\n  pop\n  jump\t// out\n    /* \"#utility.yul\":1211:1297   */\ntag_19:\n    /* \"#utility.yul\":1246:1253   */\n  0x00\n    /* \"#utility.yul\":1286:1290   */\n  0xff\n    /* \"#utility.yul\":1279:1284   */\n  dup3\n    /* \"#utility.yul\":1275:1291   */\n  and\n    /* \"#utility.yul\":1264:1291   */\n  swap1\n  pop\n    /* \"#utility.yul\":1211:1297   */\n  swap2\n  swap1\n  pop\n  jump\t// out\n    /* \"#utility.yul\":1303:1415   */\ntag_20:\n    /* \"#utility.yul\":1386:1408   */\n  tag_31\n    /* \"#utility.yul\":1402:1407   */\n  dup2\n    /* \"#utility.yul\":1386:1408   */\n  tag_19\n  jump\t// in\ntag_31:\n    /* \"#utility.yul\":1381:1384   */\n  dup3\n    /* \"#utility.yul\":1374:1409   */\n  mstore\n    /* \"#utility.yul\":1303:1415   */\n  pop\n  pop\n  jump\t// out\n    /* \"#utility.yul\":1421:1635   */\ntag_15:\n    /* \"#utility.yul\":1510:1514   */\n  0x00\n    /* \"#utility.yul\":1548:1550   */\n  0x20\n    /* \"#utility.yul\":1537:1546   */\n  dup3\n    /* \"#utility.yul\":1533:1551   */\n  add\n    /* \"#utility.yul\":1525:1551   */\n  swap1\n  pop\n    /* \"#utility.yul\":1561:1628   */\n  tag_33\n    /* \"#utility.yul\":1625:1626   */\n  0x00\n    /* \"#utility.yul\":1614:1623   */\n  dup4\n    /* \"#utility.yul\":1610:1627   */\n  add\n    /* \"#utility.yul\":1601:1607   */\n  dup5\n    /* \"#utility.yul\":1561:1628   */\n  tag_20\n  jump\t// in\ntag_33:\n    /* \"#utility.yul\":1421:1635   */\n  swap3\n  swap2\n  pop\n  pop\n  jump\t// out\n    /* \"contracts/contracts/ff-mp/MP.sol\":592:879  contract FlowFrenzMarketplace is... */\ntag_8:\n  dataSize(sub_0)\n  dup1\n  dataOffset(sub_0)\n  0x00\n  codecopy\n  0x00\n  return\nstop\n\nsub_0: assembly {\n        /* \"contracts/contracts/ff-mp/MP.sol\":592:879  contract FlowFrenzMarketplace is... */\n      mstore(0x40, 0x80)\n      jumpi(tag_1, lt(calldatasize, 0x04))\n      shr(0xe0, calldataload(0x00))\n      dup1\n      0x715018a6\n      gt\n      tag_21\n      jumpi\n      dup1\n      0x9f37092a\n      gt\n      tag_22\n      jumpi\n      dup1\n      0x9f37092a\n      eq\n      tag_16\n      jumpi\n      dup1\n      0xb2ddee06\n      eq\n      tag_17\n      jumpi\n      dup1\n      0xf2fde38b\n      eq\n      tag_18\n      jumpi\n      dup1\n      0xf772adf1\n      eq\n      tag_19\n      jumpi\n      dup1\n      0xfa09e630\n      eq\n      tag_20\n      jumpi\n      jump(tag_1)\n    tag_22:\n      dup1\n      0x715018a6\n      eq\n      tag_11\n      jumpi\n      dup1\n      0x8129fc1c\n      eq\n      tag_12\n      jumpi\n      dup1\n      0x88700d1c\n      eq\n      tag_13\n      jumpi\n      dup1\n      0x89bfd38f\n      eq\n      tag_14\n      jumpi\n      dup1\n      0x8da5cb5b\n      eq\n      tag_15\n      jumpi\n      jump(tag_1)\n    tag_21:\n      dup1\n      0x24d7806c\n      gt\n      tag_23\n      jumpi\n      dup1\n      0x24d7806c\n      eq\n      tag_6\n      jumpi\n      dup1\n      0x2d345670\n      eq\n      tag_7\n      jumpi\n      dup1\n      0x31ae450b\n      eq\n      tag_8\n      jumpi\n      dup1\n      0x4f85310f\n      eq\n      tag_9\n      jumpi\n      dup1\n      0x6d73e669\n      eq\n      tag_10\n      jumpi\n      jump(tag_1)\n    tag_23:\n      dup1\n      0x01ffc9a7\n      eq\n      tag_2\n      jumpi\n      dup1\n      0x15a70d8d\n      eq\n      tag_3\n      jumpi\n      dup1\n      0x1816467f\n      eq\n      tag_4\n      jumpi\n      dup1\n      0x1fb0080e\n      eq\n      tag_5\n      jumpi\n    tag_1:\n      0x00\n      dup1\n      revert\n        /* \"contracts/contracts/ff-mp/deps/AdminControl.sol\":703:941  function supportsInterface(... */\n    tag_2:\n      callvalue\n      dup1\n      iszero\n      tag_24\n      jumpi\n      0x00\n      dup1\n      revert\n    tag_24:\n      pop\n      tag_25\n      0x04\n      dup1\n      calldatasize\n      sub\n      dup2\n      add\n      swap1\n      tag_26\n      swap2\n      swap1\n      tag_27\n      jump\t// in\n    tag_26:\n      tag_28\n      jump\t// in\n    tag_25:\n      mload(0x40)\n      tag_29\n      swap2\n      swap1\n      tag_30\n      jump\t// in\n    tag_29:\n      mload(0x40)\n      dup1\n      swap2\n      sub\n      swap1\n      return\n        /* \"contracts/contracts/ff-mp/functionality/TransactionsMgr.sol\":6726:7242  function fetchMyListings() public view returns (ListedItem[] memory) {... */\n    tag_3:\n      callvalue\n      dup1\n      iszero\n      tag_31\n      jumpi\n      0x00\n      dup1\n      revert\n    tag_31:\n      pop\n      tag_32\n      tag_33\n      jump\t// in\n    tag_32:\n      mload(0x40)\n      tag_34\n      swap2\n      swap1\n      tag_35\n      jump\t// in\n    tag_34:\n      mload(0x40)\n      dup1\n      swap2\n      sub\n      swap1\n      return\n        /* \"contracts/contracts/ff-mp/deps/AdminControl.sol\":1921:2013  function updateDevWallet(address newDev) external onlyOwner {... */\n    tag_4:\n      callvalue\n      dup1\n      iszero\n      tag_36\n      jumpi\n      0x00\n      dup1\n      revert\n    tag_36:\n      pop\n      tag_37\n      0x04\n      dup1\n      calldatasize\n      sub\n      dup2\n      add\n      swap1\n      tag_38\n      swap2\n      swap1\n      tag_39\n      jump\t// in\n    tag_38:\n      tag_40\n      jump\t// in\n    tag_37:\n      stop\n        /* \"contracts/contracts/ff-mp/functionality/TransactionsMgr.sol\":6195:6720  function fetchListedMarketItems()... */\n    tag_5:\n      callvalue\n      dup1\n      iszero\n      tag_41\n      jumpi\n      0x00\n      dup1\n      revert\n    tag_41:\n      pop\n      tag_42\n      tag_43\n      jump\t// in\n    tag_42:\n      mload(0x40)\n      tag_44\n      swap2\n      swap1\n      tag_35\n      jump\t// in\n    tag_44:\n      mload(0x40)\n      dup1\n      swap2\n      sub\n      swap1\n      return\n        /* \"contracts/contracts/ff-mp/deps/AdminControl.sol\":1122:1255  function isAdmin(address admin) public view override returns (bool) {... */\n    tag_6:\n      callvalue\n      dup1\n      iszero\n      tag_45\n      jumpi\n      0x00\n      dup1\n      revert\n    tag_45:\n      pop\n      tag_46\n      0x04\n      dup1\n      calldatasize\n      sub\n      dup2\n      add\n      swap1\n      tag_47\n      swap2\n      swap1\n      tag_39\n      jump\t// in\n    tag_47:\n      tag_48\n      jump\t// in\n    tag_46:\n      mload(0x40)\n      tag_49\n      swap2\n      swap1\n      tag_30\n      jump\t// in\n    tag_49:\n      mload(0x40)\n      dup1\n      swap2\n      sub\n      swap1\n      return\n        /* \"contracts/contracts/ff-mp/deps/AdminControl.sol\":1727:1915  function revokeAdmin(address admin) external override onlyOwner {... */\n    tag_7:\n      callvalue\n      dup1\n      iszero\n      tag_50\n      jumpi\n      0x00\n      dup1\n      revert\n    tag_50:\n      pop\n      tag_51\n      0x04\n      dup1\n      calldatasize\n      sub\n      dup2\n      add\n      swap1\n      tag_52\n      swap2\n      swap1\n      tag_39\n      jump\t// in\n    tag_52:\n      tag_53\n      jump\t// in\n    tag_51:\n      stop\n        /* \"contracts/contracts/ff-mp/deps/AdminControl.sol\":1261:1527  function getAdmins()... */\n    tag_8:\n      callvalue\n      dup1\n      iszero\n      tag_54\n      jumpi\n      0x00\n      dup1\n      revert\n    tag_54:\n      pop\n      tag_55\n      tag_56\n      jump\t// in\n    tag_55:\n      mload(0x40)\n      tag_57\n      swap2\n      swap1\n      tag_58\n      jump\t// in\n    tag_57:\n      mload(0x40)\n      dup1\n      swap2\n      sub\n      swap1\n      return\n        /* \"contracts/contracts/ff-mp/functionality/TransactionsMgr.sol\":6051:6189  function getListingById(... */\n    tag_9:\n      callvalue\n      dup1\n      iszero\n      tag_59\n      jumpi\n      0x00\n      dup1\n      revert\n    tag_59:\n      pop\n      tag_60\n      0x04\n      dup1\n      calldatasize\n      sub\n      dup2\n      add\n      swap1\n      tag_61\n      swap2\n      swap1\n      tag_62\n      jump\t// in\n    tag_61:\n      tag_63\n      jump\t// in\n    tag_60:\n      mload(0x40)\n      tag_64\n      swap2\n      swap1\n      tag_65\n      jump\t// in\n    tag_64:\n      mload(0x40)\n      dup1\n      swap2\n      sub\n      swap1\n      return\n        /* \"contracts/contracts/ff-mp/deps/AdminControl.sol\":1533:1721  function approveAdmin(address admin) external override onlyOwner {... */\n    tag_10:\n      callvalue\n      dup1\n      iszero\n      tag_66\n      jumpi\n      0x00\n      dup1\n      revert\n    tag_66:\n      pop\n      tag_67\n      0x04\n      dup1\n      calldatasize\n      sub\n      dup2\n      add\n      swap1\n      tag_68\n      swap2\n      swap1\n      tag_39\n      jump\t// in\n    tag_68:\n      tag_69\n      jump\t// in\n    tag_67:\n      stop\n        /* \"@openzeppelin/contracts-upgradeable/access/OwnableUpgradeable.sol\":2064:2165  function renounceOwnership() public virtual onlyOwner {... */\n    tag_11:\n      callvalue\n      dup1\n      iszero\n      tag_70\n      jumpi\n      0x00\n      dup1\n      revert\n    tag_70:\n      pop\n      tag_71\n      tag_72\n      jump\t// in\n    tag_71:\n      stop\n        /* \"contracts/contracts/ff-mp/MP.sol\":806:876  function initialize() public initializer {... */\n    tag_12:\n      callvalue\n      dup1\n      iszero\n      tag_73\n      jumpi\n      0x00\n      dup1\n      revert\n    tag_73:\n      pop\n      tag_74\n      tag_75\n      jump\t// in\n    tag_74:\n      stop\n        /* \"contracts/contracts/ff-mp/functionality/TransactionsMgr.sol\":5873:6045  function getListing(... */\n    tag_13:\n      callvalue\n      dup1\n      iszero\n      tag_76\n      jumpi\n      0x00\n      dup1\n      revert\n    tag_76:\n      pop\n      tag_77\n      0x04\n      dup1\n      calldatasize\n      sub\n      dup2\n      add\n      swap1\n      tag_78\n      swap2\n      swap1\n      tag_79\n      jump\t// in\n    tag_78:\n      tag_80\n      jump\t// in\n    tag_77:\n      mload(0x40)\n      tag_81\n      swap2\n      swap1\n      tag_82\n      jump\t// in\n    tag_81:\n      mload(0x40)\n      dup1\n      swap2\n      sub\n      swap1\n      return\n        /* \"contracts/contracts/ff-mp/functionality/TransactionsMgr.sol\":3475:4395  function listItem(... */\n    tag_14:\n      callvalue\n      dup1\n      iszero\n      tag_83\n      jumpi\n      0x00\n      dup1\n      revert\n    tag_83:\n      pop\n      tag_84\n      0x04\n      dup1\n      calldatasize\n      sub\n      dup2\n      add\n      swap1\n      tag_85\n      swap2\n      swap1\n      tag_86\n      jump\t// in\n    tag_85:\n      tag_87\n      jump\t// in\n    tag_84:\n      stop\n        /* \"@openzeppelin/contracts-upgradeable/access/OwnableUpgradeable.sol\":1441:1526  function owner() public view virtual returns (address) {... */\n    tag_15:\n      callvalue\n      dup1\n      iszero\n      tag_88\n      jumpi\n      0x00\n      dup1\n      revert\n    tag_88:\n      pop\n      tag_89\n      tag_90\n      jump\t// in\n    tag_89:\n      mload(0x40)\n      tag_91\n      swap2\n      swap1\n      tag_92\n      jump\t// in\n    tag_91:\n      mload(0x40)\n      dup1\n      swap2\n      sub\n      swap1\n      return\n        /* \"contracts/contracts/ff-mp/functionality/TransactionsMgr.sol\":4401:5235  function buyItem(... */\n    tag_16:\n      tag_93\n      0x04\n      dup1\n      calldatasize\n      sub\n      dup2\n      add\n      swap1\n      tag_94\n      swap2\n      swap1\n      tag_79\n      jump\t// in\n    tag_94:\n      tag_95\n      jump\t// in\n    tag_93:\n      stop\n        /* \"contracts/contracts/ff-mp/functionality/TransactionsMgr.sol\":3044:3469  function cancelListing(... */\n    tag_17:\n      callvalue\n      dup1\n      iszero\n      tag_96\n      jumpi\n      0x00\n      dup1\n      revert\n    tag_96:\n      pop\n      tag_97\n      0x04\n      dup1\n      calldatasize\n      sub\n      dup2\n      add\n      swap1\n      tag_98\n      swap2\n      swap1\n      tag_79\n      jump\t// in\n    tag_98:\n      tag_99\n      jump\t// in\n    tag_97:\n      stop\n        /* \"@openzeppelin/contracts-upgradeable/access/OwnableUpgradeable.sol\":2314:2512  function transferOwnership(address newOwner) public virtual onlyOwner {... */\n    tag_18:\n      callvalue\n      dup1\n      iszero\n      tag_100\n      jumpi\n      0x00\n      dup1\n      revert\n    tag_100:\n      pop\n      tag_101\n      0x04\n      dup1\n      calldatasize\n      sub\n      dup2\n      add\n      swap1\n      tag_102\n      swap2\n      swap1\n      tag_39\n      jump\t// in\n    tag_102:\n      tag_103\n      jump\t// in\n    tag_101:\n      stop\n        /* \"contracts/contracts/ff-mp/functionality/TransactionsMgr.sol\":5241:5867  function updateListing(... */\n    tag_19:\n      callvalue\n      dup1\n      iszero\n      tag_104\n      jumpi\n      0x00\n      dup1\n      revert\n    tag_104:\n      pop\n      tag_105\n      0x04\n      dup1\n      calldatasize\n      sub\n      dup2\n      add\n      swap1\n      tag_106\n      swap2\n      swap1\n      tag_86\n      jump\t// in\n    tag_106:\n      tag_107\n      jump\t// in\n    tag_105:\n      stop\n        /* \"contracts/contracts/ff-mp/deps/AdminControl.sol\":2029:2202  function withdrawAll(address to) public onlyOwner {... */\n    tag_20:\n      callvalue\n      dup1\n      iszero\n      tag_108\n      jumpi\n      0x00\n      dup1\n      revert\n    tag_108:\n      pop\n      tag_109\n      0x04\n      dup1\n      calldatasize\n      sub\n      dup2\n      add\n      swap1\n      tag_110\n      swap2\n      swap1\n      tag_39\n      jump\t// in\n    tag_110:\n      tag_111\n      jump\t// in\n    tag_109:\n      stop\n        /* \"contracts/contracts/ff-mp/deps/AdminControl.sol\":703:941  function supportsInterface(... */\n    tag_28:\n        /* \"contracts/contracts/ff-mp/deps/AdminControl.sol\":815:819  bool */\n      0x00\n        /* \"contracts/contracts/ff-mp/deps/AdminControl.sol\":857:888  type(IAdminControl).interfaceId */\n      0x553e757e00000000000000000000000000000000000000000000000000000000\n        /* \"contracts/contracts/ff-mp/deps/AdminControl.sol\":842:888  interfaceId == type(IAdminControl).interfaceId */\n      not(0xffffffffffffffffffffffffffffffffffffffffffffffffffffffff)\n      and\n        /* \"contracts/contracts/ff-mp/deps/AdminControl.sol\":842:853  interfaceId */\n      dup3\n        /* \"contracts/contracts/ff-mp/deps/AdminControl.sol\":842:888  interfaceId == type(IAdminControl).interfaceId */\n      not(0xffffffffffffffffffffffffffffffffffffffffffffffffffffffff)\n      and\n      eq\n        /* \"contracts/contracts/ff-mp/deps/AdminControl.sol\":842:935  interfaceId == type(IAdminControl).interfaceId ||... */\n      dup1\n      tag_113\n      jumpi\n      pop\n        /* \"contracts/contracts/ff-mp/deps/AdminControl.sol\":899:935  super.supportsInterface(interfaceId) */\n      tag_114\n        /* \"contracts/contracts/ff-mp/deps/AdminControl.sol\":923:934  interfaceId */\n      dup3\n        /* \"contracts/contracts/ff-mp/deps/AdminControl.sol\":899:922  super.supportsInterface */\n      tag_115\n        /* \"contracts/contracts/ff-mp/deps/AdminControl.sol\":899:935  super.supportsInterface(interfaceId) */\n      jump\t// in\n    tag_114:\n        /* \"contracts/contracts/ff-mp/deps/AdminControl.sol\":842:935  interfaceId == type(IAdminControl).interfaceId ||... */\n    tag_113:\n        /* \"contracts/contracts/ff-mp/deps/AdminControl.sol\":828:935  return... */\n      swap1\n      pop\n        /* \"contracts/contracts/ff-mp/deps/AdminControl.sol\":703:941  function supportsInterface(... */\n      swap2\n      swap1\n      pop\n      jump\t// out\n        /* \"contracts/contracts/ff-mp/functionality/TransactionsMgr.sol\":6726:7242  function fetchMyListings() public view returns (ListedItem[] memory) {... */\n    tag_33:\n        /* \"contracts/contracts/ff-mp/functionality/TransactionsMgr.sol\":6774:6793  ListedItem[] memory */\n      0x60\n        /* \"contracts/contracts/ff-mp/functionality/TransactionsMgr.sol\":6802:6827  ListedItem[] memory items */\n      0x00\n        /* \"contracts/contracts/ff-mp/functionality/TransactionsMgr.sol\":6847:6873  _totalMpListings.current() */\n      tag_117\n        /* \"contracts/contracts/ff-mp/functionality/TransactionsMgr.sol\":6847:6863  _totalMpListings */\n      0x6c\n        /* \"contracts/contracts/ff-mp/functionality/TransactionsMgr.sol\":6847:6871  _totalMpListings.current */\n      tag_118\n        /* \"contracts/contracts/ff-mp/functionality/TransactionsMgr.sol\":6847:6873  _totalMpListings.current() */\n      jump\t// in\n    tag_117:\n        /* \"contracts/contracts/ff-mp/functionality/TransactionsMgr.sol\":6830:6874  new ListedItem[](_totalMpListings.current()) */\n      0xffffffffffffffff\n      dup2\n      gt\n      iszero\n      tag_119\n      jumpi\n      tag_120\n      tag_121\n      jump\t// in\n    tag_120:\n    tag_119:\n      mload(0x40)\n      swap1\n      dup1\n      dup3\n      mstore\n      dup1\n      0x20\n      mul\n      0x20\n      add\n      dup3\n      add\n      0x40\n      mstore\n      dup1\n      iszero\n      tag_122\n      jumpi\n      dup2\n      0x20\n      add\n    tag_123:\n      tag_124\n      tag_125\n      jump\t// in\n    tag_124:\n      dup2\n      mstore\n      0x20\n      add\n      swap1\n      0x01\n      swap1\n      sub\n      swap1\n      dup2\n      tag_123\n      jumpi\n      swap1\n      pop\n    tag_122:\n      pop\n        /* \"contracts/contracts/ff-mp/functionality/TransactionsMgr.sol\":6802:6874  ListedItem[] memory items = new ListedItem[](_totalMpListings.current()) */\n      swap1\n      pop\n        /* \"contracts/contracts/ff-mp/functionality/TransactionsMgr.sol\":6881:6898  uint currentIndex */\n      0x00\n        /* \"contracts/contracts/ff-mp/functionality/TransactionsMgr.sol\":6916:6922  uint i */\n      dup1\n        /* \"contracts/contracts/ff-mp/functionality/TransactionsMgr.sol\":6911:7216  for (uint i = 0; i < _totalMpListings.current(); i++) {... */\n    tag_126:\n        /* \"contracts/contracts/ff-mp/functionality/TransactionsMgr.sol\":6932:6958  _totalMpListings.current() */\n      tag_129\n        /* \"contracts/contracts/ff-mp/functionality/TransactionsMgr.sol\":6932:6948  _totalMpListings */\n      0x6c\n        /* \"contracts/contracts/ff-mp/functionality/TransactionsMgr.sol\":6932:6956  _totalMpListings.current */\n      tag_118\n        /* \"contracts/contracts/ff-mp/functionality/TransactionsMgr.sol\":6932:6958  _totalMpListings.current() */\n      jump\t// in\n    tag_129:\n        /* \"contracts/contracts/ff-mp/functionality/TransactionsMgr.sol\":6928:6929  i */\n      dup2\n        /* \"contracts/contracts/ff-mp/functionality/TransactionsMgr.sol\":6928:6958  i < _totalMpListings.current() */\n      lt\n        /* \"contracts/contracts/ff-mp/functionality/TransactionsMgr.sol\":6911:7216  for (uint i = 0; i < _totalMpListings.current(); i++) {... */\n      iszero\n      tag_127\n      jumpi\n        /* \"contracts/contracts/ff-mp/functionality/TransactionsMgr.sol\":7012:7022  msg.sender */\n      caller\n        /* \"contracts/contracts/ff-mp/functionality/TransactionsMgr.sol\":6978:7022  _idToListing[i].listing.seller == msg.sender */\n      0xffffffffffffffffffffffffffffffffffffffff\n      and\n        /* \"contracts/contracts/ff-mp/functionality/TransactionsMgr.sol\":6978:6990  _idToListing */\n      0x6b\n        /* \"contracts/contracts/ff-mp/functionality/TransactionsMgr.sol\":6978:6993  _idToListing[i] */\n      0x00\n        /* \"contracts/contracts/ff-mp/functionality/TransactionsMgr.sol\":6991:6992  i */\n      dup4\n        /* \"contracts/contracts/ff-mp/functionality/TransactionsMgr.sol\":6978:6993  _idToListing[i] */\n      dup2\n      mstore\n      0x20\n      add\n      swap1\n      dup2\n      mstore\n      0x20\n      add\n      0x00\n      keccak256\n        /* \"contracts/contracts/ff-mp/functionality/TransactionsMgr.sol\":6978:7001  _idToListing[i].listing */\n      0x02\n      add\n        /* \"contracts/contracts/ff-mp/functionality/TransactionsMgr.sol\":6978:7008  _idToListing[i].listing.seller */\n      0x01\n      add\n      0x00\n      swap1\n      sload\n      swap1\n      0x0100\n      exp\n      swap1\n      div\n      0xffffffffffffffffffffffffffffffffffffffff\n      and\n        /* \"contracts/contracts/ff-mp/functionality/TransactionsMgr.sol\":6978:7022  _idToListing[i].listing.seller == msg.sender */\n      0xffffffffffffffffffffffffffffffffffffffff\n      and\n      sub\n        /* \"contracts/contracts/ff-mp/functionality/TransactionsMgr.sol\":6974:7209  if (_idToListing[i].listing.seller == msg.sender) {... */\n      tag_130\n      jumpi\n        /* \"contracts/contracts/ff-mp/functionality/TransactionsMgr.sol\":7065:7069  true */\n      0x01\n        /* \"contracts/contracts/ff-mp/functionality/TransactionsMgr.sol\":7039:7069  _idToListing[i].active == true */\n      iszero\n      iszero\n        /* \"contracts/contracts/ff-mp/functionality/TransactionsMgr.sol\":7039:7051  _idToListing */\n      0x6b\n        /* \"contracts/contracts/ff-mp/functionality/TransactionsMgr.sol\":7039:7054  _idToListing[i] */\n      0x00\n        /* \"contracts/contracts/ff-mp/functionality/TransactionsMgr.sol\":7052:7053  i */\n      dup4\n        /* \"contracts/contracts/ff-mp/functionality/TransactionsMgr.sol\":7039:7054  _idToListing[i] */\n      dup2\n      mstore\n      0x20\n      add\n      swap1\n      dup2\n      mstore\n      0x20\n      add\n      0x00\n      keccak256\n        /* \"contracts/contracts/ff-mp/functionality/TransactionsMgr.sol\":7039:7061  _idToListing[i].active */\n      0x05\n      add\n      0x00\n      swap1\n      sload\n      swap1\n      0x0100\n      exp\n      swap1\n      div\n      0xff\n      and\n        /* \"contracts/contracts/ff-mp/functionality/TransactionsMgr.sol\":7039:7069  _idToListing[i].active == true */\n      iszero\n      iszero\n      sub\n        /* \"contracts/contracts/ff-mp/functionality/TransactionsMgr.sol\":7035:7200  if (_idToListing[i].active == true) {... */\n      tag_131\n      jumpi\n        /* \"contracts/contracts/ff-mp/functionality/TransactionsMgr.sol\":7084:7104  ListedItem storage l */\n      0x00\n        /* \"contracts/contracts/ff-mp/functionality/TransactionsMgr.sol\":7107:7119  _idToListing */\n      0x6b\n        /* \"contracts/contracts/ff-mp/functionality/TransactionsMgr.sol\":7107:7122  _idToListing[i] */\n      0x00\n        /* \"contracts/contracts/ff-mp/functionality/TransactionsMgr.sol\":7120:7121  i */\n      dup4\n        /* \"contracts/contracts/ff-mp/functionality/TransactionsMgr.sol\":7107:7122  _idToListing[i] */\n      dup2\n      mstore\n      0x20\n      add\n      swap1\n      dup2\n      mstore\n      0x20\n      add\n      0x00\n      keccak256\n        /* \"contracts/contracts/ff-mp/functionality/TransactionsMgr.sol\":7084:7122  ListedItem storage l = _idToListing[i] */\n      swap1\n      pop\n        /* \"contracts/contracts/ff-mp/functionality/TransactionsMgr.sol\":7157:7158  l */\n      dup1\n        /* \"contracts/contracts/ff-mp/functionality/TransactionsMgr.sol\":7135:7158  items[currentIndex] = l */\n      mload(0x40)\n      dup1\n      0x80\n      add\n      0x40\n      mstore\n      swap1\n      dup2\n      0x00\n      dup3\n      add\n      0x00\n      swap1\n      sload\n      swap1\n      0x0100\n      exp\n      swap1\n      div\n      0xffffffffffffffffffffffffffffffffffffffff\n      and\n      0xffffffffffffffffffffffffffffffffffffffff\n      and\n      0xffffffffffffffffffffffffffffffffffffffff\n      and\n      dup2\n      mstore\n      0x20\n      add\n      0x01\n      dup3\n      add\n      sload\n      dup2\n      mstore\n      0x20\n      add\n      0x02\n      dup3\n      add\n      mload(0x40)\n      dup1\n      0x60\n      add\n      0x40\n      mstore\n      swap1\n      dup2\n      0x00\n      dup3\n      add\n      sload\n      dup2\n      mstore\n      0x20\n      add\n      0x01\n      dup3\n      add\n      0x00\n      swap1\n      sload\n      swap1\n      0x0100\n      exp\n      swap1\n      div\n      0xffffffffffffffffffffffffffffffffffffffff\n      and\n      0xffffffffffffffffffffffffffffffffffffffff\n      and\n      0xffffffffffffffffffffffffffffffffffffffff\n      and\n      dup2\n      mstore\n      0x20\n      add\n      0x02\n      dup3\n      add\n      sload\n      dup2\n      mstore\n      pop\n      pop\n      dup2\n      mstore\n      0x20\n      add\n      0x05\n      dup3\n      add\n      0x00\n      swap1\n      sload\n      swap1\n      0x0100\n      exp\n      swap1\n      div\n      0xff\n      and\n      iszero\n      iszero\n      iszero\n      iszero\n      dup2\n      mstore\n      pop\n      pop\n        /* \"contracts/contracts/ff-mp/functionality/TransactionsMgr.sol\":7135:7140  items */\n      dup5\n        /* \"contracts/contracts/ff-mp/functionality/TransactionsMgr.sol\":7141:7153  currentIndex */\n      dup5\n        /* \"contracts/contracts/ff-mp/functionality/TransactionsMgr.sol\":7135:7154  items[currentIndex] */\n      dup2\n      mload\n      dup2\n      lt\n      tag_132\n      jumpi\n      tag_133\n      tag_134\n      jump\t// in\n    tag_133:\n    tag_132:\n      0x20\n      mul\n      0x20\n      add\n      add\n        /* \"contracts/contracts/ff-mp/functionality/TransactionsMgr.sol\":7135:7158  items[currentIndex] = l */\n      dup2\n      swap1\n      mstore\n      pop\n        /* \"contracts/contracts/ff-mp/functionality/TransactionsMgr.sol\":7187:7188  1 */\n      0x01\n        /* \"contracts/contracts/ff-mp/functionality/TransactionsMgr.sol\":7171:7188  currentIndex += 1 */\n      dup4\n      tag_135\n      swap2\n      swap1\n      tag_136\n      jump\t// in\n    tag_135:\n      swap3\n      pop\n        /* \"contracts/contracts/ff-mp/functionality/TransactionsMgr.sol\":7071:7200  {... */\n      pop\n        /* \"contracts/contracts/ff-mp/functionality/TransactionsMgr.sol\":7035:7200  if (_idToListing[i].active == true) {... */\n    tag_131:\n        /* \"contracts/contracts/ff-mp/functionality/TransactionsMgr.sol\":6974:7209  if (_idToListing[i].listing.seller == msg.sender) {... */\n    tag_130:\n        /* \"contracts/contracts/ff-mp/functionality/TransactionsMgr.sol\":6960:6963  i++ */\n      dup1\n      dup1\n      tag_137\n      swap1\n      tag_138\n      jump\t// in\n    tag_137:\n      swap2\n      pop\n      pop\n        /* \"contracts/contracts/ff-mp/functionality/TransactionsMgr.sol\":6911:7216  for (uint i = 0; i < _totalMpListings.current(); i++) {... */\n      jump(tag_126)\n    tag_127:\n      pop\n        /* \"contracts/contracts/ff-mp/functionality/TransactionsMgr.sol\":7231:7236  items */\n      dup2\n        /* \"contracts/contracts/ff-mp/functionality/TransactionsMgr.sol\":7224:7236  return items */\n      swap3\n      pop\n      pop\n      pop\n        /* \"contracts/contracts/ff-mp/functionality/TransactionsMgr.sol\":6726:7242  function fetchMyListings() public view returns (ListedItem[] memory) {... */\n      swap1\n      jump\t// out\n        /* \"contracts/contracts/ff-mp/deps/AdminControl.sol\":1921:2013  function updateDevWallet(address newDev) external onlyOwner {... */\n    tag_40:\n        /* \"@openzeppelin/contracts-upgradeable/access/OwnableUpgradeable.sol\":1334:1347  _checkOwner() */\n      tag_140\n        /* \"@openzeppelin/contracts-upgradeable/access/OwnableUpgradeable.sol\":1334:1345  _checkOwner */\n      tag_141\n        /* \"@openzeppelin/contracts-upgradeable/access/OwnableUpgradeable.sol\":1334:1347  _checkOwner() */\n      jump\t// in\n    tag_140:\n        /* \"contracts/contracts/ff-mp/deps/AdminControl.sol\":2001:2007  newDev */\n      dup1\n        /* \"contracts/contracts/ff-mp/deps/AdminControl.sol\":1988:1998  _devWallet */\n      0x68\n      0x00\n        /* \"contracts/contracts/ff-mp/deps/AdminControl.sol\":1988:2007  _devWallet = newDev */\n      0x0100\n      exp\n      dup2\n      sload\n      dup2\n      0xffffffffffffffffffffffffffffffffffffffff\n      mul\n      not\n      and\n      swap1\n      dup4\n      0xffffffffffffffffffffffffffffffffffffffff\n      and\n      mul\n      or\n      swap1\n      sstore\n      pop\n        /* \"contracts/contracts/ff-mp/deps/AdminControl.sol\":1921:2013  function updateDevWallet(address newDev) external onlyOwner {... */\n      pop\n      jump\t// out\n        /* \"contracts/contracts/ff-mp/functionality/TransactionsMgr.sol\":6195:6720  function fetchListedMarketItems()... */\n    tag_43:\n        /* \"contracts/contracts/ff-mp/functionality/TransactionsMgr.sol\":6267:6286  ListedItem[] memory */\n      0x60\n        /* \"contracts/contracts/ff-mp/functionality/TransactionsMgr.sol\":6298:6312  uint itemCount */\n      0x00\n        /* \"contracts/contracts/ff-mp/functionality/TransactionsMgr.sol\":6344:6368  _totalComplete.current() */\n      tag_144\n        /* \"contracts/contracts/ff-mp/functionality/TransactionsMgr.sol\":6344:6358  _totalComplete */\n      0x6d\n        /* \"contracts/contracts/ff-mp/functionality/TransactionsMgr.sol\":6344:6366  _totalComplete.current */\n      tag_118\n        /* \"contracts/contracts/ff-mp/functionality/TransactionsMgr.sol\":6344:6368  _totalComplete.current() */\n      jump\t// in\n    tag_144:\n        /* \"contracts/contracts/ff-mp/functionality/TransactionsMgr.sol\":6315:6341  _totalMpListings.current() */\n      tag_145\n        /* \"contracts/contracts/ff-mp/functionality/TransactionsMgr.sol\":6315:6331  _totalMpListings */\n      0x6c\n        /* \"contracts/contracts/ff-mp/functionality/TransactionsMgr.sol\":6315:6339  _totalMpListings.current */\n      tag_118\n        /* \"contracts/contracts/ff-mp/functionality/TransactionsMgr.sol\":6315:6341  _totalMpListings.current() */\n      jump\t// in\n    tag_145:\n        /* \"contracts/contracts/ff-mp/functionality/TransactionsMgr.sol\":6315:6368  _totalMpListings.current() - _totalComplete.current() */\n      tag_146\n      swap2\n      swap1\n      tag_147\n      jump\t// in\n    tag_146:\n        /* \"contracts/contracts/ff-mp/functionality/TransactionsMgr.sol\":6298:6368  uint itemCount = _totalMpListings.current() - _totalComplete.current() */\n      swap1\n      pop\n        /* \"contracts/contracts/ff-mp/functionality/TransactionsMgr.sol\":6375:6400  ListedItem[] memory items */\n      0x00\n        /* \"contracts/contracts/ff-mp/functionality/TransactionsMgr.sol\":6420:6429  itemCount */\n      dup2\n        /* \"contracts/contracts/ff-mp/functionality/TransactionsMgr.sol\":6403:6430  new ListedItem[](itemCount) */\n      0xffffffffffffffff\n      dup2\n      gt\n      iszero\n      tag_148\n      jumpi\n      tag_149\n      tag_121\n      jump\t// in\n    tag_149:\n    tag_148:\n      mload(0x40)\n      swap1\n      dup1\n      dup3\n      mstore\n      dup1\n      0x20\n      mul\n      0x20\n      add\n      dup3\n      add\n      0x40\n      mstore\n      dup1\n      iszero\n      tag_150\n      jumpi\n      dup2\n      0x20\n      add\n    tag_151:\n      tag_152\n      tag_125\n      jump\t// in\n    tag_152:\n      dup2\n      mstore\n      0x20\n      add\n      swap1\n      0x01\n      swap1\n      sub\n      swap1\n      dup2\n      tag_151\n      jumpi\n      swap1\n      pop\n    tag_150:\n      pop\n        /* \"contracts/contracts/ff-mp/functionality/TransactionsMgr.sol\":6375:6430  ListedItem[] memory items = new ListedItem[](itemCount) */\n      swap1\n      pop\n        /* \"contracts/contracts/ff-mp/functionality/TransactionsMgr.sol\":6437:6454  uint currentIndex */\n      0x00\n        /* \"contracts/contracts/ff-mp/functionality/TransactionsMgr.sol\":6472:6478  uint i */\n      dup1\n        /* \"contracts/contracts/ff-mp/functionality/TransactionsMgr.sol\":6467:6694  for (uint i = 0; i < _totalMpListings.current(); i++) {... */\n    tag_153:\n        /* \"contracts/contracts/ff-mp/functionality/TransactionsMgr.sol\":6488:6514  _totalMpListings.current() */\n      tag_156\n        /* \"contracts/contracts/ff-mp/functionality/TransactionsMgr.sol\":6488:6504  _totalMpListings */\n      0x6c\n        /* \"contracts/contracts/ff-mp/functionality/TransactionsMgr.sol\":6488:6512  _totalMpListings.current */\n      tag_118\n        /* \"contracts/contracts/ff-mp/functionality/TransactionsMgr.sol\":6488:6514  _totalMpListings.current() */\n      jump\t// in\n    tag_156:\n        /* \"contracts/contracts/ff-mp/functionality/TransactionsMgr.sol\":6484:6485  i */\n      dup2\n        /* \"contracts/contracts/ff-mp/functionality/TransactionsMgr.sol\":6484:6514  i < _totalMpListings.current() */\n      lt\n        /* \"contracts/contracts/ff-mp/functionality/TransactionsMgr.sol\":6467:6694  for (uint i = 0; i < _totalMpListings.current(); i++) {... */\n      iszero\n      tag_154\n      jumpi\n        /* \"contracts/contracts/ff-mp/functionality/TransactionsMgr.sol\":6560:6564  true */\n      0x01\n        /* \"contracts/contracts/ff-mp/functionality/TransactionsMgr.sol\":6534:6564  _idToListing[i].active == true */\n      iszero\n      iszero\n        /* \"contracts/contracts/ff-mp/functionality/TransactionsMgr.sol\":6534:6546  _idToListing */\n      0x6b\n        /* \"contracts/contracts/ff-mp/functionality/TransactionsMgr.sol\":6534:6549  _idToListing[i] */\n      0x00\n        /* \"contracts/contracts/ff-mp/functionality/TransactionsMgr.sol\":6547:6548  i */\n      dup4\n        /* \"contracts/contracts/ff-mp/functionality/TransactionsMgr.sol\":6534:6549  _idToListing[i] */\n      dup2\n      mstore\n      0x20\n      add\n      swap1\n      dup2\n      mstore\n      0x20\n      add\n      0x00\n      keccak256\n        /* \"contracts/contracts/ff-mp/functionality/TransactionsMgr.sol\":6534:6556  _idToListing[i].active */\n      0x05\n      add\n      0x00\n      swap1\n      sload\n      swap1\n      0x0100\n      exp\n      swap1\n      div\n      0xff\n      and\n        /* \"contracts/contracts/ff-mp/functionality/TransactionsMgr.sol\":6534:6564  _idToListing[i].active == true */\n      iszero\n      iszero\n      sub\n        /* \"contracts/contracts/ff-mp/functionality/TransactionsMgr.sol\":6530:6687  if (_idToListing[i].active == true) {... */\n      tag_157\n      jumpi\n        /* \"contracts/contracts/ff-mp/functionality/TransactionsMgr.sol\":6577:6597  ListedItem storage l */\n      0x00\n        /* \"contracts/contracts/ff-mp/functionality/TransactionsMgr.sol\":6600:6612  _idToListing */\n      0x6b\n        /* \"contracts/contracts/ff-mp/functionality/TransactionsMgr.sol\":6600:6615  _idToListing[i] */\n      0x00\n        /* \"contracts/contracts/ff-mp/functionality/TransactionsMgr.sol\":6613:6614  i */\n      dup4\n        /* \"contracts/contracts/ff-mp/functionality/TransactionsMgr.sol\":6600:6615  _idToListing[i] */\n      dup2\n      mstore\n      0x20\n      add\n      swap1\n      dup2\n      mstore\n      0x20\n      add\n      0x00\n      keccak256\n        /* \"contracts/contracts/ff-mp/functionality/TransactionsMgr.sol\":6577:6615  ListedItem storage l = _idToListing[i] */\n      swap1\n      pop\n        /* \"contracts/contracts/ff-mp/functionality/TransactionsMgr.sol\":6648:6649  l */\n      dup1\n        /* \"contracts/contracts/ff-mp/functionality/TransactionsMgr.sol\":6626:6649  items[currentIndex] = l */\n      mload(0x40)\n      dup1\n      0x80\n      add\n      0x40\n      mstore\n      swap1\n      dup2\n      0x00\n      dup3\n      add\n      0x00\n      swap1\n      sload\n      swap1\n      0x0100\n      exp\n      swap1\n      div\n      0xffffffffffffffffffffffffffffffffffffffff\n      and\n      0xffffffffffffffffffffffffffffffffffffffff\n      and\n      0xffffffffffffffffffffffffffffffffffffffff\n      and\n      dup2\n      mstore\n      0x20\n      add\n      0x01\n      dup3\n      add\n      sload\n      dup2\n      mstore\n      0x20\n      add\n      0x02\n      dup3\n      add\n      mload(0x40)\n      dup1\n      0x60\n      add\n      0x40\n      mstore\n      swap1\n      dup2\n      0x00\n      dup3\n      add\n      sload\n      dup2\n      mstore\n      0x20\n      add\n      0x01\n      dup3\n      add\n      0x00\n      swap1\n      sload\n      swap1\n      0x0100\n      exp\n      swap1\n      div\n      0xffffffffffffffffffffffffffffffffffffffff\n      and\n      0xffffffffffffffffffffffffffffffffffffffff\n      and\n      0xffffffffffffffffffffffffffffffffffffffff\n      and\n      dup2\n      mstore\n      0x20\n      add\n      0x02\n      dup3\n      add\n      sload\n      dup2\n      mstore\n      pop\n      pop\n      dup2\n      mstore\n      0x20\n      add\n      0x05\n      dup3\n      add\n      0x00\n      swap1\n      sload\n      swap1\n      0x0100\n      exp\n      swap1\n      div\n      0xff\n      and\n      iszero\n      iszero\n      iszero\n      iszero\n      dup2\n      mstore\n      pop\n      pop\n        /* \"contracts/contracts/ff-mp/functionality/TransactionsMgr.sol\":6626:6631  items */\n      dup5\n        /* \"contracts/contracts/ff-mp/functionality/TransactionsMgr.sol\":6632:6644  currentIndex */\n      dup5\n        /* \"contracts/contracts/ff-mp/functionality/TransactionsMgr.sol\":6626:6645  items[currentIndex] */\n      dup2\n      mload\n      dup2\n      lt\n      tag_158\n      jumpi\n      tag_159\n      tag_134\n      jump\t// in\n    tag_159:\n    tag_158:\n      0x20\n      mul\n      0x20\n      add\n      add\n        /* \"contracts/contracts/ff-mp/functionality/TransactionsMgr.sol\":6626:6649  items[currentIndex] = l */\n      dup2\n      swap1\n      mstore\n      pop\n        /* \"contracts/contracts/ff-mp/functionality/TransactionsMgr.sol\":6676:6677  1 */\n      0x01\n        /* \"contracts/contracts/ff-mp/functionality/TransactionsMgr.sol\":6660:6677  currentIndex += 1 */\n      dup4\n      tag_160\n      swap2\n      swap1\n      tag_136\n      jump\t// in\n    tag_160:\n      swap3\n      pop\n        /* \"contracts/contracts/ff-mp/functionality/TransactionsMgr.sol\":6566:6687  {... */\n      pop\n        /* \"contracts/contracts/ff-mp/functionality/TransactionsMgr.sol\":6530:6687  if (_idToListing[i].active == true) {... */\n    tag_157:\n        /* \"contracts/contracts/ff-mp/functionality/TransactionsMgr.sol\":6516:6519  i++ */\n      dup1\n      dup1\n      tag_161\n      swap1\n      tag_138\n      jump\t// in\n    tag_161:\n      swap2\n      pop\n      pop\n        /* \"contracts/contracts/ff-mp/functionality/TransactionsMgr.sol\":6467:6694  for (uint i = 0; i < _totalMpListings.current(); i++) {... */\n      jump(tag_153)\n    tag_154:\n      pop\n        /* \"contracts/contracts/ff-mp/functionality/TransactionsMgr.sol\":6709:6714  items */\n      dup2\n        /* \"contracts/contracts/ff-mp/functionality/TransactionsMgr.sol\":6702:6714  return items */\n      swap4\n      pop\n      pop\n      pop\n      pop\n        /* \"contracts/contracts/ff-mp/functionality/TransactionsMgr.sol\":6195:6720  function fetchListedMarketItems()... */\n      swap1\n      jump\t// out\n        /* \"contracts/contracts/ff-mp/deps/AdminControl.sol\":1122:1255  function isAdmin(address admin) public view override returns (bool) {... */\n    tag_48:\n        /* \"contracts/contracts/ff-mp/deps/AdminControl.sol\":1184:1188  bool */\n      0x00\n        /* \"contracts/contracts/ff-mp/deps/AdminControl.sol\":1216:1221  admin */\n      dup2\n        /* \"contracts/contracts/ff-mp/deps/AdminControl.sol\":1205:1221  owner() == admin */\n      0xffffffffffffffffffffffffffffffffffffffff\n      and\n        /* \"contracts/contracts/ff-mp/deps/AdminControl.sol\":1205:1212  owner() */\n      tag_163\n        /* \"contracts/contracts/ff-mp/deps/AdminControl.sol\":1205:1210  owner */\n      tag_90\n        /* \"contracts/contracts/ff-mp/deps/AdminControl.sol\":1205:1212  owner() */\n      jump\t// in\n    tag_163:\n        /* \"contracts/contracts/ff-mp/deps/AdminControl.sol\":1205:1221  owner() == admin */\n      0xffffffffffffffffffffffffffffffffffffffff\n      and\n      eq\n        /* \"contracts/contracts/ff-mp/deps/AdminControl.sol\":1205:1248  owner() == admin || _admins.contains(admin) */\n      dup1\n      tag_164\n      jumpi\n      pop\n        /* \"contracts/contracts/ff-mp/deps/AdminControl.sol\":1225:1248  _admins.contains(admin) */\n      tag_165\n        /* \"contracts/contracts/ff-mp/deps/AdminControl.sol\":1242:1247  admin */\n      dup3\n        /* \"contracts/contracts/ff-mp/deps/AdminControl.sol\":1225:1232  _admins */\n      0x66\n        /* \"contracts/contracts/ff-mp/deps/AdminControl.sol\":1225:1241  _admins.contains */\n      tag_166\n      swap1\n        /* \"contracts/contracts/ff-mp/deps/AdminControl.sol\":1225:1248  _admins.contains(admin) */\n      swap2\n      swap1\n      0xffffffff\n      and\n      jump\t// in\n    tag_165:\n        /* \"contracts/contracts/ff-mp/deps/AdminControl.sol\":1205:1248  owner() == admin || _admins.contains(admin) */\n    tag_164:\n        /* \"contracts/contracts/ff-mp/deps/AdminControl.sol\":1197:1249  return (owner() == admin || _admins.contains(admin)) */\n      swap1\n      pop\n        /* \"contracts/contracts/ff-mp/deps/AdminControl.sol\":1122:1255  function isAdmin(address admin) public view override returns (bool) {... */\n      swap2\n      swap1\n      pop\n      jump\t// out\n        /* \"contracts/contracts/ff-mp/deps/AdminControl.sol\":1727:1915  function revokeAdmin(address admin) external override onlyOwner {... */\n    tag_53:\n        /* \"@openzeppelin/contracts-upgradeable/access/OwnableUpgradeable.sol\":1334:1347  _checkOwner() */\n      tag_168\n        /* \"@openzeppelin/contracts-upgradeable/access/OwnableUpgradeable.sol\":1334:1345  _checkOwner */\n      tag_141\n        /* \"@openzeppelin/contracts-upgradeable/access/OwnableUpgradeable.sol\":1334:1347  _checkOwner() */\n      jump\t// in\n    tag_168:\n        /* \"contracts/contracts/ff-mp/deps/AdminControl.sol\":1802:1825  _admins.contains(admin) */\n      tag_170\n        /* \"contracts/contracts/ff-mp/deps/AdminControl.sol\":1819:1824  admin */\n      dup2\n        /* \"contracts/contracts/ff-mp/deps/AdminControl.sol\":1802:1809  _admins */\n      0x66\n        /* \"contracts/contracts/ff-mp/deps/AdminControl.sol\":1802:1818  _admins.contains */\n      tag_166\n      swap1\n        /* \"contracts/contracts/ff-mp/deps/AdminControl.sol\":1802:1825  _admins.contains(admin) */\n      swap2\n      swap1\n      0xffffffff\n      and\n      jump\t// in\n    tag_170:\n        /* \"contracts/contracts/ff-mp/deps/AdminControl.sol\":1798:1910  if (_admins.contains(admin)) {... */\n      iszero\n      tag_171\n      jumpi\n        /* \"contracts/contracts/ff-mp/deps/AdminControl.sol\":1861:1871  msg.sender */\n      caller\n        /* \"contracts/contracts/ff-mp/deps/AdminControl.sol\":1841:1872  AdminRevoked(admin, msg.sender) */\n      0xffffffffffffffffffffffffffffffffffffffff\n      and\n        /* \"contracts/contracts/ff-mp/deps/AdminControl.sol\":1854:1859  admin */\n      dup2\n        /* \"contracts/contracts/ff-mp/deps/AdminControl.sol\":1841:1872  AdminRevoked(admin, msg.sender) */\n      0xffffffffffffffffffffffffffffffffffffffff\n      and\n      0x7c0c3c84c67c85fcac635147348bfe374c24a1a93d0366d1cfe9d8853cbf89d5\n      mload(0x40)\n      mload(0x40)\n      dup1\n      swap2\n      sub\n      swap1\n      log3\n        /* \"contracts/contracts/ff-mp/deps/AdminControl.sol\":1881:1902  _admins.remove(admin) */\n      tag_172\n        /* \"contracts/contracts/ff-mp/deps/AdminControl.sol\":1896:1901  admin */\n      dup2\n        /* \"contracts/contracts/ff-mp/deps/AdminControl.sol\":1881:1888  _admins */\n      0x66\n        /* \"contracts/contracts/ff-mp/deps/AdminControl.sol\":1881:1895  _admins.remove */\n      tag_173\n      swap1\n        /* \"contracts/contracts/ff-mp/deps/AdminControl.sol\":1881:1902  _admins.remove(admin) */\n      swap2\n      swap1\n      0xffffffff\n      and\n      jump\t// in\n    tag_172:\n      pop\n        /* \"contracts/contracts/ff-mp/deps/AdminControl.sol\":1798:1910  if (_admins.contains(admin)) {... */\n    tag_171:\n        /* \"contracts/contracts/ff-mp/deps/AdminControl.sol\":1727:1915  function revokeAdmin(address admin) external override onlyOwner {... */\n      pop\n      jump\t// out\n        /* \"contracts/contracts/ff-mp/deps/AdminControl.sol\":1261:1527  function getAdmins()... */\n    tag_56:\n        /* \"contracts/contracts/ff-mp/deps/AdminControl.sol\":1334:1357  address[] memory admins */\n      0x60\n        /* \"contracts/contracts/ff-mp/deps/AdminControl.sol\":1392:1408  _admins.length() */\n      tag_175\n        /* \"contracts/contracts/ff-mp/deps/AdminControl.sol\":1392:1399  _admins */\n      0x66\n        /* \"contracts/contracts/ff-mp/deps/AdminControl.sol\":1392:1406  _admins.length */\n      tag_176\n        /* \"contracts/contracts/ff-mp/deps/AdminControl.sol\":1392:1408  _admins.length() */\n      jump\t// in\n    tag_175:\n        /* \"contracts/contracts/ff-mp/deps/AdminControl.sol\":1378:1409  new address[](_admins.length()) */\n      0xffffffffffffffff\n      dup2\n      gt\n      iszero\n      tag_177\n      jumpi\n      tag_178\n      tag_121\n      jump\t// in\n    tag_178:\n    tag_177:\n      mload(0x40)\n      swap1\n      dup1\n      dup3\n      mstore\n      dup1\n      0x20\n      mul\n      0x20\n      add\n      dup3\n      add\n      0x40\n      mstore\n      dup1\n      iszero\n      tag_179\n      jumpi\n      dup2\n      0x20\n      add\n      0x20\n      dup3\n      mul\n      dup1\n      calldatasize\n      dup4\n      calldatacopy\n      dup1\n      dup3\n      add\n      swap2\n      pop\n      pop\n      swap1\n      pop\n    tag_179:\n      pop\n        /* \"contracts/contracts/ff-mp/deps/AdminControl.sol\":1369:1409  admins = new address[](_admins.length()) */\n      swap1\n      pop\n        /* \"contracts/contracts/ff-mp/deps/AdminControl.sol\":1421:1427  uint i */\n      0x00\n        /* \"contracts/contracts/ff-mp/deps/AdminControl.sol\":1416:1502  for (uint i = 0; i < _admins.length(); i++) {... */\n    tag_180:\n        /* \"contracts/contracts/ff-mp/deps/AdminControl.sol\":1437:1453  _admins.length() */\n      tag_183\n        /* \"contracts/contracts/ff-mp/deps/AdminControl.sol\":1437:1444  _admins */\n      0x66\n        /* \"contracts/contracts/ff-mp/deps/AdminControl.sol\":1437:1451  _admins.length */\n      tag_176\n        /* \"contracts/contracts/ff-mp/deps/AdminControl.sol\":1437:1453  _admins.length() */\n      jump\t// in\n    tag_183:\n        /* \"contracts/contracts/ff-mp/deps/AdminControl.sol\":1433:1434  i */\n      dup2\n        /* \"contracts/contracts/ff-mp/deps/AdminControl.sol\":1433:1453  i < _admins.length() */\n      lt\n        /* \"contracts/contracts/ff-mp/deps/AdminControl.sol\":1416:1502  for (uint i = 0; i < _admins.length(); i++) {... */\n      iszero\n      tag_181\n      jumpi\n        /* \"contracts/contracts/ff-mp/deps/AdminControl.sol\":1481:1494  _admins.at(i) */\n      tag_184\n        /* \"contracts/contracts/ff-mp/deps/AdminControl.sol\":1492:1493  i */\n      dup2\n        /* \"contracts/contracts/ff-mp/deps/AdminControl.sol\":1481:1488  _admins */\n      0x66\n        /* \"contracts/contracts/ff-mp/deps/AdminControl.sol\":1481:1491  _admins.at */\n      tag_185\n      swap1\n        /* \"contracts/contracts/ff-mp/deps/AdminControl.sol\":1481:1494  _admins.at(i) */\n      swap2\n      swap1\n      0xffffffff\n      and\n      jump\t// in\n    tag_184:\n        /* \"contracts/contracts/ff-mp/deps/AdminControl.sol\":1469:1475  admins */\n      dup3\n        /* \"contracts/contracts/ff-mp/deps/AdminControl.sol\":1476:1477  i */\n      dup3\n        /* \"contracts/contracts/ff-mp/deps/AdminControl.sol\":1469:1478  admins[i] */\n      dup2\n      mload\n      dup2\n      lt\n      tag_186\n      jumpi\n      tag_187\n      tag_134\n      jump\t// in\n    tag_187:\n    tag_186:\n      0x20\n      mul\n      0x20\n      add\n      add\n        /* \"contracts/contracts/ff-mp/deps/AdminControl.sol\":1469:1494  admins[i] = _admins.at(i) */\n      swap1\n      0xffffffffffffffffffffffffffffffffffffffff\n      and\n      swap1\n      dup2\n      0xffffffffffffffffffffffffffffffffffffffff\n      and\n      dup2\n      mstore\n      pop\n      pop\n        /* \"contracts/contracts/ff-mp/deps/AdminControl.sol\":1455:1458  i++ */\n      dup1\n      dup1\n      tag_188\n      swap1\n      tag_138\n      jump\t// in\n    tag_188:\n      swap2\n      pop\n      pop\n        /* \"contracts/contracts/ff-mp/deps/AdminControl.sol\":1416:1502  for (uint i = 0; i < _admins.length(); i++) {... */\n      jump(tag_180)\n    tag_181:\n      pop\n        /* \"contracts/contracts/ff-mp/deps/AdminControl.sol\":1261:1527  function getAdmins()... */\n      swap1\n      jump\t// out\n        /* \"contracts/contracts/ff-mp/functionality/TransactionsMgr.sol\":6051:6189  function getListingById(... */\n    tag_63:\n        /* \"contracts/contracts/ff-mp/functionality/TransactionsMgr.sol\":6127:6144  ListedItem memory */\n      tag_189\n      tag_125\n      jump\t// in\n    tag_189:\n        /* \"contracts/contracts/ff-mp/functionality/TransactionsMgr.sol\":6160:6172  _idToListing */\n      0x6b\n        /* \"contracts/contracts/ff-mp/functionality/TransactionsMgr.sol\":6160:6183  _idToListing[listingId] */\n      0x00\n        /* \"contracts/contracts/ff-mp/functionality/TransactionsMgr.sol\":6173:6182  listingId */\n      dup4\n        /* \"contracts/contracts/ff-mp/functionality/TransactionsMgr.sol\":6160:6183  _idToListing[listingId] */\n      dup2\n      mstore\n      0x20\n      add\n      swap1\n      dup2\n      mstore\n      0x20\n      add\n      0x00\n      keccak256\n        /* \"contracts/contracts/ff-mp/functionality/TransactionsMgr.sol\":6153:6183  return _idToListing[listingId] */\n      mload(0x40)\n      dup1\n      0x80\n      add\n      0x40\n      mstore\n      swap1\n      dup2\n      0x00\n      dup3\n      add\n      0x00\n      swap1\n      sload\n      swap1\n      0x0100\n      exp\n      swap1\n      div\n      0xffffffffffffffffffffffffffffffffffffffff\n      and\n      0xffffffffffffffffffffffffffffffffffffffff\n      and\n      0xffffffffffffffffffffffffffffffffffffffff\n      and\n      dup2\n      mstore\n      0x20\n      add\n      0x01\n      dup3\n      add\n      sload\n      dup2\n      mstore\n      0x20\n      add\n      0x02\n      dup3\n      add\n      mload(0x40)\n      dup1\n      0x60\n      add\n      0x40\n      mstore\n      swap1\n      dup2\n      0x00\n      dup3\n      add\n      sload\n      dup2\n      mstore\n      0x20\n      add\n      0x01\n      dup3\n      add\n      0x00\n      swap1\n      sload\n      swap1\n      0x0100\n      exp\n      swap1\n      div\n      0xffffffffffffffffffffffffffffffffffffffff\n      and\n      0xffffffffffffffffffffffffffffffffffffffff\n      and\n      0xffffffffffffffffffffffffffffffffffffffff\n      and\n      dup2\n      mstore\n      0x20\n      add\n      0x02\n      dup3\n      add\n      sload\n      dup2\n      mstore\n      pop\n      pop\n      dup2\n      mstore\n      0x20\n      add\n      0x05\n      dup3\n      add\n      0x00\n      swap1\n      sload\n      swap1\n      0x0100\n      exp\n      swap1\n      div\n      0xff\n      and\n      iszero\n      iszero\n      iszero\n      iszero\n      dup2\n      mstore\n      pop\n      pop\n      swap1\n      pop\n        /* \"contracts/contracts/ff-mp/functionality/TransactionsMgr.sol\":6051:6189  function getListingById(... */\n      swap2\n      swap1\n      pop\n      jump\t// out\n        /* \"contracts/contracts/ff-mp/deps/AdminControl.sol\":1533:1721  function approveAdmin(address admin) external override onlyOwner {... */\n    tag_69:\n        /* \"@openzeppelin/contracts-upgradeable/access/OwnableUpgradeable.sol\":1334:1347  _checkOwner() */\n      tag_192\n        /* \"@openzeppelin/contracts-upgradeable/access/OwnableUpgradeable.sol\":1334:1345  _checkOwner */\n      tag_141\n        /* \"@openzeppelin/contracts-upgradeable/access/OwnableUpgradeable.sol\":1334:1347  _checkOwner() */\n      jump\t// in\n    tag_192:\n        /* \"contracts/contracts/ff-mp/deps/AdminControl.sol\":1610:1633  _admins.contains(admin) */\n      tag_194\n        /* \"contracts/contracts/ff-mp/deps/AdminControl.sol\":1627:1632  admin */\n      dup2\n        /* \"contracts/contracts/ff-mp/deps/AdminControl.sol\":1610:1617  _admins */\n      0x66\n        /* \"contracts/contracts/ff-mp/deps/AdminControl.sol\":1610:1626  _admins.contains */\n      tag_166\n      swap1\n        /* \"contracts/contracts/ff-mp/deps/AdminControl.sol\":1610:1633  _admins.contains(admin) */\n      swap2\n      swap1\n      0xffffffff\n      and\n      jump\t// in\n    tag_194:\n        /* \"contracts/contracts/ff-mp/deps/AdminControl.sol\":1605:1716  if (!_admins.contains(admin)) {... */\n      tag_195\n      jumpi\n        /* \"contracts/contracts/ff-mp/deps/AdminControl.sol\":1670:1680  msg.sender */\n      caller\n        /* \"contracts/contracts/ff-mp/deps/AdminControl.sol\":1649:1681  AdminApproved(admin, msg.sender) */\n      0xffffffffffffffffffffffffffffffffffffffff\n      and\n        /* \"contracts/contracts/ff-mp/deps/AdminControl.sol\":1663:1668  admin */\n      dup2\n        /* \"contracts/contracts/ff-mp/deps/AdminControl.sol\":1649:1681  AdminApproved(admin, msg.sender) */\n      0xffffffffffffffffffffffffffffffffffffffff\n      and\n      0x7e1a1a08d52e4ba0e21554733d66165fd5151f99460116223d9e3a608eec5cb1\n      mload(0x40)\n      mload(0x40)\n      dup1\n      swap2\n      sub\n      swap1\n      log3\n        /* \"contracts/contracts/ff-mp/deps/AdminControl.sol\":1690:1708  _admins.add(admin) */\n      tag_196\n        /* \"contracts/contracts/ff-mp/deps/AdminControl.sol\":1702:1707  admin */\n      dup2\n        /* \"contracts/contracts/ff-mp/deps/AdminControl.sol\":1690:1697  _admins */\n      0x66\n        /* \"contracts/contracts/ff-mp/deps/AdminControl.sol\":1690:1701  _admins.add */\n      tag_197\n      swap1\n        /* \"contracts/contracts/ff-mp/deps/AdminControl.sol\":1690:1708  _admins.add(admin) */\n      swap2\n      swap1\n      0xffffffff\n      and\n      jump\t// in\n    tag_196:\n      pop\n        /* \"contracts/contracts/ff-mp/deps/AdminControl.sol\":1605:1716  if (!_admins.contains(admin)) {... */\n    tag_195:\n        /* \"contracts/contracts/ff-mp/deps/AdminControl.sol\":1533:1721  function approveAdmin(address admin) external override onlyOwner {... */\n      pop\n      jump\t// out\n        /* \"@openzeppelin/contracts-upgradeable/access/OwnableUpgradeable.sol\":2064:2165  function renounceOwnership() public virtual onlyOwner {... */\n    tag_72:\n        /* \"@openzeppelin/contracts-upgradeable/access/OwnableUpgradeable.sol\":1334:1347  _checkOwner() */\n      tag_199\n        /* \"@openzeppelin/contracts-upgradeable/access/OwnableUpgradeable.sol\":1334:1345  _checkOwner */\n      tag_141\n        /* \"@openzeppelin/contracts-upgradeable/access/OwnableUpgradeable.sol\":1334:1347  _checkOwner() */\n      jump\t// in\n    tag_199:\n        /* \"@openzeppelin/contracts-upgradeable/access/OwnableUpgradeable.sol\":2128:2158  _transferOwnership(address(0)) */\n      tag_201\n        /* \"@openzeppelin/contracts-upgradeable/access/OwnableUpgradeable.sol\":2155:2156  0 */\n      0x00\n        /* \"@openzeppelin/contracts-upgradeable/access/OwnableUpgradeable.sol\":2128:2146  _transferOwnership */\n      tag_202\n        /* \"@openzeppelin/contracts-upgradeable/access/OwnableUpgradeable.sol\":2128:2158  _transferOwnership(address(0)) */\n      jump\t// in\n    tag_201:\n        /* \"@openzeppelin/contracts-upgradeable/access/OwnableUpgradeable.sol\":2064:2165  function renounceOwnership() public virtual onlyOwner {... */\n      jump\t// out\n        /* \"contracts/contracts/ff-mp/MP.sol\":806:876  function initialize() public initializer {... */\n    tag_75:\n        /* \"@openzeppelin/contracts-upgradeable/proxy/utils/Initializable.sol\":3279:3298  bool isTopLevelCall */\n      0x00\n        /* \"@openzeppelin/contracts-upgradeable/proxy/utils/Initializable.sol\":3302:3315  _initializing */\n      dup1\n      0x01\n      swap1\n      sload\n      swap1\n      0x0100\n      exp\n      swap1\n      div\n      0xff\n      and\n        /* \"@openzeppelin/contracts-upgradeable/proxy/utils/Initializable.sol\":3301:3315  !_initializing */\n      iszero\n        /* \"@openzeppelin/contracts-upgradeable/proxy/utils/Initializable.sol\":3279:3315  bool isTopLevelCall = !_initializing */\n      swap1\n      pop\n        /* \"@openzeppelin/contracts-upgradeable/proxy/utils/Initializable.sol\":3347:3361  isTopLevelCall */\n      dup1\n        /* \"@openzeppelin/contracts-upgradeable/proxy/utils/Initializable.sol\":3347:3381  isTopLevelCall && _initialized < 1 */\n      dup1\n      iszero\n      tag_204\n      jumpi\n      pop\n        /* \"@openzeppelin/contracts-upgradeable/proxy/utils/Initializable.sol\":3380:3381  1 */\n      0x01\n        /* \"@openzeppelin/contracts-upgradeable/proxy/utils/Initializable.sol\":3365:3377  _initialized */\n      0x00\n      dup1\n      sload\n      swap1\n      0x0100\n      exp\n      swap1\n      div\n      0xff\n      and\n        /* \"@openzeppelin/contracts-upgradeable/proxy/utils/Initializable.sol\":3365:3381  _initialized < 1 */\n      0xff\n      and\n      lt\n        /* \"@openzeppelin/contracts-upgradeable/proxy/utils/Initializable.sol\":3347:3381  isTopLevelCall && _initialized < 1 */\n    tag_204:\n        /* \"@openzeppelin/contracts-upgradeable/proxy/utils/Initializable.sol\":3346:3454  (isTopLevelCall && _initialized < 1) || (!AddressUpgradeable.isContract(address(this)) && _initialized == 1) */\n      dup1\n      tag_205\n      jumpi\n      pop\n        /* \"@openzeppelin/contracts-upgradeable/proxy/utils/Initializable.sol\":3388:3432  AddressUpgradeable.isContract(address(this)) */\n      tag_206\n        /* \"@openzeppelin/contracts-upgradeable/proxy/utils/Initializable.sol\":3426:3430  this */\n      address\n        /* \"@openzeppelin/contracts-upgradeable/proxy/utils/Initializable.sol\":3388:3417  AddressUpgradeable.isContract */\n      tag_207\n        /* \"@openzeppelin/contracts-upgradeable/proxy/utils/Initializable.sol\":3388:3432  AddressUpgradeable.isContract(address(this)) */\n      jump\t// in\n    tag_206:\n        /* \"@openzeppelin/contracts-upgradeable/proxy/utils/Initializable.sol\":3387:3432  !AddressUpgradeable.isContract(address(this)) */\n      iszero\n        /* \"@openzeppelin/contracts-upgradeable/proxy/utils/Initializable.sol\":3387:3453  !AddressUpgradeable.isContract(address(this)) && _initialized == 1 */\n      dup1\n      iszero\n      tag_208\n      jumpi\n      pop\n        /* \"@openzeppelin/contracts-upgradeable/proxy/utils/Initializable.sol\":3452:3453  1 */\n      0x01\n        /* \"@openzeppelin/contracts-upgradeable/proxy/utils/Initializable.sol\":3436:3448  _initialized */\n      0x00\n      dup1\n      sload\n      swap1\n      0x0100\n      exp\n      swap1\n      div\n      0xff\n      and\n        /* \"@openzeppelin/contracts-upgradeable/proxy/utils/Initializable.sol\":3436:3453  _initialized == 1 */\n      0xff\n      and\n      eq\n        /* \"@openzeppelin/contracts-upgradeable/proxy/utils/Initializable.sol\":3387:3453  !AddressUpgradeable.isContract(address(this)) && _initialized == 1 */\n    tag_208:\n        /* \"@openzeppelin/contracts-upgradeable/proxy/utils/Initializable.sol\":3346:3454  (isTopLevelCall && _initialized < 1) || (!AddressUpgradeable.isContract(address(this)) && _initialized == 1) */\n    tag_205:\n        /* \"@openzeppelin/contracts-upgradeable/proxy/utils/Initializable.sol\":3325:3526  require(... */\n      tag_209\n      jumpi\n      mload(0x40)\n      0x08c379a000000000000000000000000000000000000000000000000000000000\n      dup2\n      mstore\n      0x04\n      add\n      tag_210\n      swap1\n      tag_211\n      jump\t// in\n    tag_210:\n      mload(0x40)\n      dup1\n      swap2\n      sub\n      swap1\n      revert\n    tag_209:\n        /* \"@openzeppelin/contracts-upgradeable/proxy/utils/Initializable.sol\":3551:3552  1 */\n      0x01\n        /* \"@openzeppelin/contracts-upgradeable/proxy/utils/Initializable.sol\":3536:3548  _initialized */\n      0x00\n      dup1\n        /* \"@openzeppelin/contracts-upgradeable/proxy/utils/Initializable.sol\":3536:3552  _initialized = 1 */\n      0x0100\n      exp\n      dup2\n      sload\n      dup2\n      0xff\n      mul\n      not\n      and\n      swap1\n      dup4\n      0xff\n      and\n      mul\n      or\n      swap1\n      sstore\n      pop\n        /* \"@openzeppelin/contracts-upgradeable/proxy/utils/Initializable.sol\":3566:3580  isTopLevelCall */\n      dup1\n        /* \"@openzeppelin/contracts-upgradeable/proxy/utils/Initializable.sol\":3562:3627  if (isTopLevelCall) {... */\n      iszero\n      tag_212\n      jumpi\n        /* \"@openzeppelin/contracts-upgradeable/proxy/utils/Initializable.sol\":3612:3616  true */\n      0x01\n        /* \"@openzeppelin/contracts-upgradeable/proxy/utils/Initializable.sol\":3596:3609  _initializing */\n      0x00\n      0x01\n        /* \"@openzeppelin/contracts-upgradeable/proxy/utils/Initializable.sol\":3596:3616  _initializing = true */\n      0x0100\n      exp\n      dup2\n      sload\n      dup2\n      0xff\n      mul\n      not\n      and\n      swap1\n      dup4\n      iszero\n      iszero\n      mul\n      or\n      swap1\n      sstore\n      pop\n        /* \"@openzeppelin/contracts-upgradeable/proxy/utils/Initializable.sol\":3562:3627  if (isTopLevelCall) {... */\n    tag_212:\n        /* \"contracts/contracts/ff-mp/MP.sol\":854:870  __Ownable_init() */\n      tag_214\n        /* \"contracts/contracts/ff-mp/MP.sol\":854:868  __Ownable_init */\n      tag_215\n        /* \"contracts/contracts/ff-mp/MP.sol\":854:870  __Ownable_init() */\n      jump\t// in\n    tag_214:\n        /* \"@openzeppelin/contracts-upgradeable/proxy/utils/Initializable.sol\":3651:3665  isTopLevelCall */\n      dup1\n        /* \"@openzeppelin/contracts-upgradeable/proxy/utils/Initializable.sol\":3647:3746  if (isTopLevelCall) {... */\n      iszero\n      tag_216\n      jumpi\n        /* \"@openzeppelin/contracts-upgradeable/proxy/utils/Initializable.sol\":3697:3702  false */\n      0x00\n        /* \"@openzeppelin/contracts-upgradeable/proxy/utils/Initializable.sol\":3681:3694  _initializing */\n      dup1\n      0x01\n        /* \"@openzeppelin/contracts-upgradeable/proxy/utils/Initializable.sol\":3681:3702  _initializing = false */\n      0x0100\n      exp\n      dup2\n      sload\n      dup2\n      0xff\n      mul\n      not\n      and\n      swap1\n      dup4\n      iszero\n      iszero\n      mul\n      or\n      swap1\n      sstore\n      pop\n        /* \"@openzeppelin/contracts-upgradeable/proxy/utils/Initializable.sol\":3721:3735  Initialized(1) */\n      0x7f26b83ff96e1f2b6a682f133852f6798a09c465da95921460cefb3847402498\n        /* \"@openzeppelin/contracts-upgradeable/proxy/utils/Initializable.sol\":3733:3734  1 */\n      0x01\n        /* \"@openzeppelin/contracts-upgradeable/proxy/utils/Initializable.sol\":3721:3735  Initialized(1) */\n      mload(0x40)\n      tag_217\n      swap2\n      swap1\n      tag_218\n      jump\t// in\n    tag_217:\n      mload(0x40)\n      dup1\n      swap2\n      sub\n      swap1\n      log1\n        /* \"@openzeppelin/contracts-upgradeable/proxy/utils/Initializable.sol\":3647:3746  if (isTopLevelCall) {... */\n    tag_216:\n        /* \"@openzeppelin/contracts-upgradeable/proxy/utils/Initializable.sol\":3269:3752  {... */\n      pop\n        /* \"contracts/contracts/ff-mp/MP.sol\":806:876  function initialize() public initializer {... */\n      jump\t// out\n        /* \"contracts/contracts/ff-mp/functionality/TransactionsMgr.sol\":5873:6045  function getListing(... */\n    tag_80:\n        /* \"contracts/contracts/ff-mp/functionality/TransactionsMgr.sol\":5973:5987  Listing memory */\n      tag_219\n      tag_220\n      jump\t// in\n    tag_219:\n        /* \"contracts/contracts/ff-mp/functionality/TransactionsMgr.sol\":6003:6013  s_listings */\n      0x69\n        /* \"contracts/contracts/ff-mp/functionality/TransactionsMgr.sol\":6003:6030  s_listings[contractAddress] */\n      0x00\n        /* \"contracts/contracts/ff-mp/functionality/TransactionsMgr.sol\":6014:6029  contractAddress */\n      dup5\n        /* \"contracts/contracts/ff-mp/functionality/TransactionsMgr.sol\":6003:6030  s_listings[contractAddress] */\n      0xffffffffffffffffffffffffffffffffffffffff\n      and\n      0xffffffffffffffffffffffffffffffffffffffff\n      and\n      dup2\n      mstore\n      0x20\n      add\n      swap1\n      dup2\n      mstore\n      0x20\n      add\n      0x00\n      keccak256\n        /* \"contracts/contracts/ff-mp/functionality/TransactionsMgr.sol\":6003:6039  s_listings[contractAddress][tokenId] */\n      0x00\n        /* \"contracts/contracts/ff-mp/functionality/TransactionsMgr.sol\":6031:6038  tokenId */\n      dup4\n        /* \"contracts/contracts/ff-mp/functionality/TransactionsMgr.sol\":6003:6039  s_listings[contractAddress][tokenId] */\n      dup2\n      mstore\n      0x20\n      add\n      swap1\n      dup2\n      mstore\n      0x20\n      add\n      0x00\n      keccak256\n        /* \"contracts/contracts/ff-mp/functionality/TransactionsMgr.sol\":5996:6039  return s_listings[contractAddress][tokenId] */\n      mload(0x40)\n      dup1\n      0x60\n      add\n      0x40\n      mstore\n      swap1\n      dup2\n      0x00\n      dup3\n      add\n      sload\n      dup2\n      mstore\n      0x20\n      add\n      0x01\n      dup3\n      add\n      0x00\n      swap1\n      sload\n      swap1\n      0x0100\n      exp\n      swap1\n      div\n      0xffffffffffffffffffffffffffffffffffffffff\n      and\n      0xffffffffffffffffffffffffffffffffffffffff\n      and\n      0xffffffffffffffffffffffffffffffffffffffff\n      and\n      dup2\n      mstore\n      0x20\n      add\n      0x02\n      dup3\n      add\n      sload\n      dup2\n      mstore\n      pop\n      pop\n      swap1\n      pop\n        /* \"contracts/contracts/ff-mp/functionality/TransactionsMgr.sol\":5873:6045  function getListing(... */\n      swap3\n      swap2\n      pop\n      pop\n      jump\t// out\n        /* \"contracts/contracts/ff-mp/functionality/TransactionsMgr.sol\":3475:4395  function listItem(... */\n    tag_87:\n        /* \"contracts/contracts/ff-mp/functionality/TransactionsMgr.sol\":3599:3614  contractAddress */\n      dup3\n        /* \"contracts/contracts/ff-mp/functionality/TransactionsMgr.sol\":3616:3623  tokenId */\n      dup3\n        /* \"contracts/contracts/ff-mp/functionality/TransactionsMgr.sol\":3625:3635  msg.sender */\n      caller\n        /* \"contracts/contracts/ff-mp/functionality/TransactionsMgr.sol\":2368:2390  Listing memory listing */\n      0x00\n        /* \"contracts/contracts/ff-mp/functionality/TransactionsMgr.sol\":2393:2403  s_listings */\n      0x69\n        /* \"contracts/contracts/ff-mp/functionality/TransactionsMgr.sol\":2393:2420  s_listings[contractAddress] */\n      0x00\n        /* \"contracts/contracts/ff-mp/functionality/TransactionsMgr.sol\":2404:2419  contractAddress */\n      dup6\n        /* \"contracts/contracts/ff-mp/functionality/TransactionsMgr.sol\":2393:2420  s_listings[contractAddress] */\n      0xffffffffffffffffffffffffffffffffffffffff\n      and\n      0xffffffffffffffffffffffffffffffffffffffff\n      and\n      dup2\n      mstore\n      0x20\n      add\n      swap1\n      dup2\n      mstore\n      0x20\n      add\n      0x00\n      keccak256\n        /* \"contracts/contracts/ff-mp/functionality/TransactionsMgr.sol\":2393:2429  s_listings[contractAddress][tokenId] */\n      0x00\n        /* \"contracts/contracts/ff-mp/functionality/TransactionsMgr.sol\":2421:2428  tokenId */\n      dup5\n        /* \"contracts/contracts/ff-mp/functionality/TransactionsMgr.sol\":2393:2429  s_listings[contractAddress][tokenId] */\n      dup2\n      mstore\n      0x20\n      add\n      swap1\n      dup2\n      mstore\n      0x20\n      add\n      0x00\n      keccak256\n        /* \"contracts/contracts/ff-mp/functionality/TransactionsMgr.sol\":2368:2429  Listing memory listing = s_listings[contractAddress][tokenId] */\n      mload(0x40)\n      dup1\n      0x60\n      add\n      0x40\n      mstore\n      swap1\n      dup2\n      0x00\n      dup3\n      add\n      sload\n      dup2\n      mstore\n      0x20\n      add\n      0x01\n      dup3\n      add\n      0x00\n      swap1\n      sload\n      swap1\n      0x0100\n      exp\n      swap1\n      div\n      0xffffffffffffffffffffffffffffffffffffffff\n      and\n      0xffffffffffffffffffffffffffffffffffffffff\n      and\n      0xffffffffffffffffffffffffffffffffffffffff\n      and\n      dup2\n      mstore\n      0x20\n      add\n      0x02\n      dup3\n      add\n      sload\n      dup2\n      mstore\n      pop\n      pop\n      swap1\n      pop\n        /* \"contracts/contracts/ff-mp/functionality/TransactionsMgr.sol\":2456:2457  0 */\n      0x00\n        /* \"contracts/contracts/ff-mp/functionality/TransactionsMgr.sol\":2440:2447  listing */\n      dup2\n        /* \"contracts/contracts/ff-mp/functionality/TransactionsMgr.sol\":2440:2453  listing.price */\n      0x00\n      add\n      mload\n        /* \"contracts/contracts/ff-mp/functionality/TransactionsMgr.sol\":2440:2457  listing.price > 0 */\n      gt\n        /* \"contracts/contracts/ff-mp/functionality/TransactionsMgr.sol\":2436:2522  if (listing.price > 0) {... */\n      iszero\n      tag_223\n      jumpi\n        /* \"contracts/contracts/ff-mp/functionality/TransactionsMgr.sol\":2489:2504  contractAddress */\n      dup4\n        /* \"contracts/contracts/ff-mp/functionality/TransactionsMgr.sol\":2506:2513  tokenId */\n      dup4\n        /* \"contracts/contracts/ff-mp/functionality/TransactionsMgr.sol\":2475:2514  AlreadyListed(contractAddress, tokenId) */\n      mload(0x40)\n      0x4a5568d500000000000000000000000000000000000000000000000000000000\n      dup2\n      mstore\n      0x04\n      add\n      tag_224\n      swap3\n      swap2\n      swap1\n      tag_225\n      jump\t// in\n    tag_224:\n      mload(0x40)\n      dup1\n      swap2\n      sub\n      swap1\n      revert\n        /* \"contracts/contracts/ff-mp/functionality/TransactionsMgr.sol\":2436:2522  if (listing.price > 0) {... */\n    tag_223:\n        /* \"contracts/contracts/ff-mp/functionality/TransactionsMgr.sol\":3650:3665  contractAddress */\n      dup7\n        /* \"contracts/contracts/ff-mp/functionality/TransactionsMgr.sol\":3667:3674  tokenId */\n      dup7\n        /* \"contracts/contracts/ff-mp/functionality/TransactionsMgr.sol\":3676:3686  msg.sender */\n      caller\n        /* \"contracts/contracts/ff-mp/functionality/TransactionsMgr.sol\":2881:2892  IERC721 nft */\n      0x00\n        /* \"contracts/contracts/ff-mp/functionality/TransactionsMgr.sol\":2903:2918  contractAddress */\n      dup4\n        /* \"contracts/contracts/ff-mp/functionality/TransactionsMgr.sol\":2881:2919  IERC721 nft = IERC721(contractAddress) */\n      swap1\n      pop\n        /* \"contracts/contracts/ff-mp/functionality/TransactionsMgr.sol\":2926:2939  address owner */\n      0x00\n        /* \"contracts/contracts/ff-mp/functionality/TransactionsMgr.sol\":2942:2945  nft */\n      dup2\n        /* \"contracts/contracts/ff-mp/functionality/TransactionsMgr.sol\":2942:2953  nft.ownerOf */\n      0xffffffffffffffffffffffffffffffffffffffff\n      and\n      0x6352211e\n        /* \"contracts/contracts/ff-mp/functionality/TransactionsMgr.sol\":2954:2961  tokenId */\n      dup6\n        /* \"contracts/contracts/ff-mp/functionality/TransactionsMgr.sol\":2942:2962  nft.ownerOf(tokenId) */\n      mload(0x40)\n      dup3\n      0xffffffff\n      and\n      0xe0\n      shl\n      dup2\n      mstore\n      0x04\n      add\n      tag_227\n      swap2\n      swap1\n      tag_228\n      jump\t// in\n    tag_227:\n      0x20\n      mload(0x40)\n      dup1\n      dup4\n      sub\n      dup2\n      dup7\n      gas\n      staticcall\n      iszero\n      dup1\n      iszero\n      tag_230\n      jumpi\n      returndatasize\n      0x00\n      dup1\n      returndatacopy\n      revert(0x00, returndatasize)\n    tag_230:\n      pop\n      pop\n      pop\n      pop\n      mload(0x40)\n      returndatasize\n      not(0x1f)\n      0x1f\n      dup3\n      add\n      and\n      dup3\n      add\n      dup1\n      0x40\n      mstore\n      pop\n      dup2\n      add\n      swap1\n      tag_231\n      swap2\n      swap1\n      tag_232\n      jump\t// in\n    tag_231:\n        /* \"contracts/contracts/ff-mp/functionality/TransactionsMgr.sol\":2926:2962  address owner = nft.ownerOf(tokenId) */\n      swap1\n      pop\n        /* \"contracts/contracts/ff-mp/functionality/TransactionsMgr.sol\":2984:2989  owner */\n      dup1\n        /* \"contracts/contracts/ff-mp/functionality/TransactionsMgr.sol\":2973:2989  spender != owner */\n      0xffffffffffffffffffffffffffffffffffffffff\n      and\n        /* \"contracts/contracts/ff-mp/functionality/TransactionsMgr.sol\":2973:2980  spender */\n      dup4\n        /* \"contracts/contracts/ff-mp/functionality/TransactionsMgr.sol\":2973:2989  spender != owner */\n      0xffffffffffffffffffffffffffffffffffffffff\n      and\n      eq\n        /* \"contracts/contracts/ff-mp/functionality/TransactionsMgr.sol\":2969:3025  if (spender != owner) {... */\n      tag_233\n      jumpi\n        /* \"contracts/contracts/ff-mp/functionality/TransactionsMgr.sol\":3007:3017  NotOwner() */\n      mload(0x40)\n      0x30cd747100000000000000000000000000000000000000000000000000000000\n      dup2\n      mstore\n      0x04\n      add\n      mload(0x40)\n      dup1\n      swap2\n      sub\n      swap1\n      revert\n        /* \"contracts/contracts/ff-mp/functionality/TransactionsMgr.sol\":2969:3025  if (spender != owner) {... */\n    tag_233:\n        /* \"contracts/contracts/ff-mp/functionality/TransactionsMgr.sol\":3711:3712  0 */\n      0x00\n        /* \"contracts/contracts/ff-mp/functionality/TransactionsMgr.sol\":3702:3707  price */\n      dup11\n        /* \"contracts/contracts/ff-mp/functionality/TransactionsMgr.sol\":3702:3712  price <= 0 */\n      gt\n        /* \"contracts/contracts/ff-mp/functionality/TransactionsMgr.sol\":3698:3760  if (price <= 0) {... */\n      tag_235\n      jumpi\n        /* \"contracts/contracts/ff-mp/functionality/TransactionsMgr.sol\":3730:3752  PriceMustBeAboveZero() */\n      mload(0x40)\n      0xe1abbfc500000000000000000000000000000000000000000000000000000000\n      dup2\n      mstore\n      0x04\n      add\n      mload(0x40)\n      dup1\n      swap2\n      sub\n      swap1\n      revert\n        /* \"contracts/contracts/ff-mp/functionality/TransactionsMgr.sol\":3698:3760  if (price <= 0) {... */\n    tag_235:\n        /* \"contracts/contracts/ff-mp/functionality/TransactionsMgr.sol\":3775:3785  address ca */\n      0x00\n        /* \"contracts/contracts/ff-mp/functionality/TransactionsMgr.sol\":3788:3803  contractAddress */\n      dup13\n        /* \"contracts/contracts/ff-mp/functionality/TransactionsMgr.sol\":3775:3803  address ca = contractAddress */\n      swap1\n      pop\n        /* \"contracts/contracts/ff-mp/functionality/TransactionsMgr.sol\":3812:3820  uint tId */\n      0x00\n        /* \"contracts/contracts/ff-mp/functionality/TransactionsMgr.sol\":3823:3830  tokenId */\n      dup13\n        /* \"contracts/contracts/ff-mp/functionality/TransactionsMgr.sol\":3812:3830  uint tId = tokenId */\n      swap1\n      pop\n        /* \"contracts/contracts/ff-mp/functionality/TransactionsMgr.sol\":3841:3852  IERC721 nft */\n      0x00\n        /* \"contracts/contracts/ff-mp/functionality/TransactionsMgr.sol\":3863:3865  ca */\n      dup3\n        /* \"contracts/contracts/ff-mp/functionality/TransactionsMgr.sol\":3841:3866  IERC721 nft = IERC721(ca) */\n      swap1\n      pop\n        /* \"contracts/contracts/ff-mp/functionality/TransactionsMgr.sol\":3911:3915  this */\n      address\n        /* \"contracts/contracts/ff-mp/functionality/TransactionsMgr.sol\":3879:3916  nft.getApproved(tId) != address(this) */\n      0xffffffffffffffffffffffffffffffffffffffff\n      and\n        /* \"contracts/contracts/ff-mp/functionality/TransactionsMgr.sol\":3879:3882  nft */\n      dup2\n        /* \"contracts/contracts/ff-mp/functionality/TransactionsMgr.sol\":3879:3894  nft.getApproved */\n      0xffffffffffffffffffffffffffffffffffffffff\n      and\n      0x081812fc\n        /* \"contracts/contracts/ff-mp/functionality/TransactionsMgr.sol\":3895:3898  tId */\n      dup5\n        /* \"contracts/contracts/ff-mp/functionality/TransactionsMgr.sol\":3879:3899  nft.getApproved(tId) */\n      mload(0x40)\n      dup3\n      0xffffffff\n      and\n      0xe0\n      shl\n      dup2\n      mstore\n      0x04\n      add\n      tag_236\n      swap2\n      swap1\n      tag_228\n      jump\t// in\n    tag_236:\n      0x20\n      mload(0x40)\n      dup1\n      dup4\n      sub\n      dup2\n      dup7\n      gas\n      staticcall\n      iszero\n      dup1\n      iszero\n      tag_238\n      jumpi\n      returndatasize\n      0x00\n      dup1\n      returndatacopy\n      revert(0x00, returndatasize)\n    tag_238:\n      pop\n      pop\n      pop\n      pop\n      mload(0x40)\n      returndatasize\n      not(0x1f)\n      0x1f\n      dup3\n      add\n      and\n      dup3\n      add\n      dup1\n      0x40\n      mstore\n      pop\n      dup2\n      add\n      swap1\n      tag_239\n      swap2\n      swap1\n      tag_232\n      jump\t// in\n    tag_239:\n        /* \"contracts/contracts/ff-mp/functionality/TransactionsMgr.sol\":3879:3916  nft.getApproved(tId) != address(this) */\n      0xffffffffffffffffffffffffffffffffffffffff\n      and\n      eq\n        /* \"contracts/contracts/ff-mp/functionality/TransactionsMgr.sol\":3875:3973  if (nft.getApproved(tId) != address(this)) {... */\n      tag_240\n      jumpi\n        /* \"contracts/contracts/ff-mp/functionality/TransactionsMgr.sol\":3936:3963  NotApprovedForMarketplace() */\n      mload(0x40)\n      0x4be3a2c500000000000000000000000000000000000000000000000000000000\n      dup2\n      mstore\n      0x04\n      add\n      mload(0x40)\n      dup1\n      swap2\n      sub\n      swap1\n      revert\n        /* \"contracts/contracts/ff-mp/functionality/TransactionsMgr.sol\":3875:3973  if (nft.getApproved(tId) != address(this)) {... */\n    tag_240:\n        /* \"contracts/contracts/ff-mp/functionality/TransactionsMgr.sol\":3981:3997  Listing memory l */\n      0x00\n        /* \"contracts/contracts/ff-mp/functionality/TransactionsMgr.sol\":4000:4054  Listing(price, msg.sender, _totalMpListings.current()) */\n      mload(0x40)\n      dup1\n      0x60\n      add\n      0x40\n      mstore\n      dup1\n        /* \"contracts/contracts/ff-mp/functionality/TransactionsMgr.sol\":4008:4013  price */\n      dup16\n        /* \"contracts/contracts/ff-mp/functionality/TransactionsMgr.sol\":4000:4054  Listing(price, msg.sender, _totalMpListings.current()) */\n      dup2\n      mstore\n      0x20\n      add\n        /* \"contracts/contracts/ff-mp/functionality/TransactionsMgr.sol\":4015:4025  msg.sender */\n      caller\n        /* \"contracts/contracts/ff-mp/functionality/TransactionsMgr.sol\":4000:4054  Listing(price, msg.sender, _totalMpListings.current()) */\n      0xffffffffffffffffffffffffffffffffffffffff\n      and\n      dup2\n      mstore\n      0x20\n      add\n        /* \"contracts/contracts/ff-mp/functionality/TransactionsMgr.sol\":4027:4053  _totalMpListings.current() */\n      tag_241\n        /* \"contracts/contracts/ff-mp/functionality/TransactionsMgr.sol\":4027:4043  _totalMpListings */\n      0x6c\n        /* \"contracts/contracts/ff-mp/functionality/TransactionsMgr.sol\":4027:4051  _totalMpListings.current */\n      tag_118\n        /* \"contracts/contracts/ff-mp/functionality/TransactionsMgr.sol\":4027:4053  _totalMpListings.current() */\n      jump\t// in\n    tag_241:\n        /* \"contracts/contracts/ff-mp/functionality/TransactionsMgr.sol\":4000:4054  Listing(price, msg.sender, _totalMpListings.current()) */\n      dup2\n      mstore\n      pop\n        /* \"contracts/contracts/ff-mp/functionality/TransactionsMgr.sol\":3981:4054  Listing memory l = Listing(price, msg.sender, _totalMpListings.current()) */\n      swap1\n      pop\n        /* \"contracts/contracts/ff-mp/functionality/TransactionsMgr.sol\":4085:4086  l */\n      dup1\n        /* \"contracts/contracts/ff-mp/functionality/TransactionsMgr.sol\":4063:4073  s_listings */\n      0x69\n        /* \"contracts/contracts/ff-mp/functionality/TransactionsMgr.sol\":4063:4077  s_listings[ca] */\n      0x00\n        /* \"contracts/contracts/ff-mp/functionality/TransactionsMgr.sol\":4074:4076  ca */\n      dup7\n        /* \"contracts/contracts/ff-mp/functionality/TransactionsMgr.sol\":4063:4077  s_listings[ca] */\n      0xffffffffffffffffffffffffffffffffffffffff\n      and\n      0xffffffffffffffffffffffffffffffffffffffff\n      and\n      dup2\n      mstore\n      0x20\n      add\n      swap1\n      dup2\n      mstore\n      0x20\n      add\n      0x00\n      keccak256\n        /* \"contracts/contracts/ff-mp/functionality/TransactionsMgr.sol\":4063:4082  s_listings[ca][tId] */\n      0x00\n        /* \"contracts/contracts/ff-mp/functionality/TransactionsMgr.sol\":4078:4081  tId */\n      dup6\n        /* \"contracts/contracts/ff-mp/functionality/TransactionsMgr.sol\":4063:4082  s_listings[ca][tId] */\n      dup2\n      mstore\n      0x20\n      add\n      swap1\n      dup2\n      mstore\n      0x20\n      add\n      0x00\n      keccak256\n        /* \"contracts/contracts/ff-mp/functionality/TransactionsMgr.sol\":4063:4086  s_listings[ca][tId] = l */\n      0x00\n      dup3\n      add\n      mload\n      dup2\n      0x00\n      add\n      sstore\n      0x20\n      dup3\n      add\n      mload\n      dup2\n      0x01\n      add\n      exp(0x0100, 0x00)\n      dup2\n      sload\n      dup2\n      0xffffffffffffffffffffffffffffffffffffffff\n      mul\n      not\n      and\n      swap1\n      dup4\n      0xffffffffffffffffffffffffffffffffffffffff\n      and\n      mul\n      or\n      swap1\n      sstore\n      pop\n      0x40\n      dup3\n      add\n      mload\n      dup2\n      0x02\n      add\n      sstore\n      swap1\n      pop\n      pop\n        /* \"contracts/contracts/ff-mp/functionality/TransactionsMgr.sol\":4097:4117  ListedItem memory li */\n      0x00\n        /* \"contracts/contracts/ff-mp/functionality/TransactionsMgr.sol\":4120:4148  ListedItem(ca, tId, l, true) */\n      mload(0x40)\n      dup1\n      0x80\n      add\n      0x40\n      mstore\n      dup1\n        /* \"contracts/contracts/ff-mp/functionality/TransactionsMgr.sol\":4131:4133  ca */\n      dup7\n        /* \"contracts/contracts/ff-mp/functionality/TransactionsMgr.sol\":4120:4148  ListedItem(ca, tId, l, true) */\n      0xffffffffffffffffffffffffffffffffffffffff\n      and\n      dup2\n      mstore\n      0x20\n      add\n        /* \"contracts/contracts/ff-mp/functionality/TransactionsMgr.sol\":4135:4138  tId */\n      dup6\n        /* \"contracts/contracts/ff-mp/functionality/TransactionsMgr.sol\":4120:4148  ListedItem(ca, tId, l, true) */\n      dup2\n      mstore\n      0x20\n      add\n        /* \"contracts/contracts/ff-mp/functionality/TransactionsMgr.sol\":4140:4141  l */\n      dup4\n        /* \"contracts/contracts/ff-mp/functionality/TransactionsMgr.sol\":4120:4148  ListedItem(ca, tId, l, true) */\n      dup2\n      mstore\n      0x20\n      add\n        /* \"contracts/contracts/ff-mp/functionality/TransactionsMgr.sol\":4143:4147  true */\n      0x01\n        /* \"contracts/contracts/ff-mp/functionality/TransactionsMgr.sol\":4120:4148  ListedItem(ca, tId, l, true) */\n      iszero\n      iszero\n      dup2\n      mstore\n      pop\n        /* \"contracts/contracts/ff-mp/functionality/TransactionsMgr.sol\":4097:4148  ListedItem memory li = ListedItem(ca, tId, l, true) */\n      swap1\n      pop\n        /* \"contracts/contracts/ff-mp/functionality/TransactionsMgr.sol\":4200:4202  li */\n      dup1\n        /* \"contracts/contracts/ff-mp/functionality/TransactionsMgr.sol\":4157:4169  _idToListing */\n      0x6b\n        /* \"contracts/contracts/ff-mp/functionality/TransactionsMgr.sol\":4157:4197  _idToListing[_totalMpListings.current()] */\n      0x00\n        /* \"contracts/contracts/ff-mp/functionality/TransactionsMgr.sol\":4170:4196  _totalMpListings.current() */\n      tag_242\n        /* \"contracts/contracts/ff-mp/functionality/TransactionsMgr.sol\":4170:4186  _totalMpListings */\n      0x6c\n        /* \"contracts/contracts/ff-mp/functionality/TransactionsMgr.sol\":4170:4194  _totalMpListings.current */\n      tag_118\n        /* \"contracts/contracts/ff-mp/functionality/TransactionsMgr.sol\":4170:4196  _totalMpListings.current() */\n      jump\t// in\n    tag_242:\n        /* \"contracts/contracts/ff-mp/functionality/TransactionsMgr.sol\":4157:4197  _idToListing[_totalMpListings.current()] */\n      dup2\n      mstore\n      0x20\n      add\n      swap1\n      dup2\n      mstore\n      0x20\n      add\n      0x00\n      keccak256\n        /* \"contracts/contracts/ff-mp/functionality/TransactionsMgr.sol\":4157:4202  _idToListing[_totalMpListings.current()] = li */\n      0x00\n      dup3\n      add\n      mload\n      dup2\n      0x00\n      add\n      exp(0x0100, 0x00)\n      dup2\n      sload\n      dup2\n      0xffffffffffffffffffffffffffffffffffffffff\n      mul\n      not\n      and\n      swap1\n      dup4\n      0xffffffffffffffffffffffffffffffffffffffff\n      and\n      mul\n      or\n      swap1\n      sstore\n      pop\n      0x20\n      dup3\n      add\n      mload\n      dup2\n      0x01\n      add\n      sstore\n      0x40\n      dup3\n      add\n      mload\n      dup2\n      0x02\n      add\n      0x00\n      dup3\n      add\n      mload\n      dup2\n      0x00\n      add\n      sstore\n      0x20\n      dup3\n      add\n      mload\n      dup2\n      0x01\n      add\n      exp(0x0100, 0x00)\n      dup2\n      sload\n      dup2\n      0xffffffffffffffffffffffffffffffffffffffff\n      mul\n      not\n      and\n      swap1\n      dup4\n      0xffffffffffffffffffffffffffffffffffffffff\n      and\n      mul\n      or\n      swap1\n      sstore\n      pop\n      0x40\n      dup3\n      add\n      mload\n      dup2\n      0x02\n      add\n      sstore\n      pop\n      pop\n      0x60\n      dup3\n      add\n      mload\n      dup2\n      0x05\n      add\n      exp(0x0100, 0x00)\n      dup2\n      sload\n      dup2\n      0xff\n      mul\n      not\n      and\n      swap1\n      dup4\n      iszero\n      iszero\n      mul\n      or\n      swap1\n      sstore\n      pop\n      swap1\n      pop\n      pop\n        /* \"contracts/contracts/ff-mp/functionality/TransactionsMgr.sol\":4211:4239  _totalMpListings.increment() */\n      tag_243\n        /* \"contracts/contracts/ff-mp/functionality/TransactionsMgr.sol\":4211:4227  _totalMpListings */\n      0x6c\n        /* \"contracts/contracts/ff-mp/functionality/TransactionsMgr.sol\":4211:4237  _totalMpListings.increment */\n      tag_244\n        /* \"contracts/contracts/ff-mp/functionality/TransactionsMgr.sol\":4211:4239  _totalMpListings.increment() */\n      jump\t// in\n    tag_243:\n        /* \"contracts/contracts/ff-mp/functionality/TransactionsMgr.sol\":3766:4247  {... */\n      pop\n      pop\n      pop\n      pop\n      pop\n        /* \"contracts/contracts/ff-mp/functionality/TransactionsMgr.sol\":4361:4368  tokenId */\n      dup11\n        /* \"contracts/contracts/ff-mp/functionality/TransactionsMgr.sol\":4337:4352  contractAddress */\n      dup13\n        /* \"contracts/contracts/ff-mp/functionality/TransactionsMgr.sol\":4260:4389  ItemListed(... */\n      0xffffffffffffffffffffffffffffffffffffffff\n      and\n        /* \"contracts/contracts/ff-mp/functionality/TransactionsMgr.sol\":4318:4328  msg.sender */\n      caller\n        /* \"contracts/contracts/ff-mp/functionality/TransactionsMgr.sol\":4260:4389  ItemListed(... */\n      0xffffffffffffffffffffffffffffffffffffffff\n      and\n      0x424b3284a7958bb7965c27ca0b2a8b30ce2a56ba954533df15e6bded1b608ed7\n        /* \"contracts/contracts/ff-mp/functionality/TransactionsMgr.sol\":4308:4309  1 */\n      0x01\n        /* \"contracts/contracts/ff-mp/functionality/TransactionsMgr.sol\":4279:4305  _totalMpListings.current() */\n      tag_245\n        /* \"contracts/contracts/ff-mp/functionality/TransactionsMgr.sol\":4279:4295  _totalMpListings */\n      0x6c\n        /* \"contracts/contracts/ff-mp/functionality/TransactionsMgr.sol\":4279:4303  _totalMpListings.current */\n      tag_118\n        /* \"contracts/contracts/ff-mp/functionality/TransactionsMgr.sol\":4279:4305  _totalMpListings.current() */\n      jump\t// in\n    tag_245:\n        /* \"contracts/contracts/ff-mp/functionality/TransactionsMgr.sol\":4279:4309  _totalMpListings.current() - 1 */\n      tag_246\n      swap2\n      swap1\n      tag_147\n      jump\t// in\n    tag_246:\n        /* \"contracts/contracts/ff-mp/functionality/TransactionsMgr.sol\":4377:4382  price */\n      dup15\n        /* \"contracts/contracts/ff-mp/functionality/TransactionsMgr.sol\":4260:4389  ItemListed(... */\n      mload(0x40)\n      tag_247\n      swap3\n      swap2\n      swap1\n      tag_248\n      jump\t// in\n    tag_247:\n      mload(0x40)\n      dup1\n      swap2\n      sub\n      swap1\n      log4\n        /* \"contracts/contracts/ff-mp/functionality/TransactionsMgr.sol\":2874:3038  {... */\n      pop\n      pop\n        /* \"contracts/contracts/ff-mp/functionality/TransactionsMgr.sol\":2528:2529  _ */\n      pop\n      pop\n      pop\n        /* \"contracts/contracts/ff-mp/functionality/TransactionsMgr.sol\":2361:2535  {... */\n      pop\n        /* \"contracts/contracts/ff-mp/functionality/TransactionsMgr.sol\":3475:4395  function listItem(... */\n      pop\n      pop\n      pop\n      pop\n      pop\n      pop\n      jump\t// out\n        /* \"@openzeppelin/contracts-upgradeable/access/OwnableUpgradeable.sol\":1441:1526  function owner() public view virtual returns (address) {... */\n    tag_90:\n        /* \"@openzeppelin/contracts-upgradeable/access/OwnableUpgradeable.sol\":1487:1494  address */\n      0x00\n        /* \"@openzeppelin/contracts-upgradeable/access/OwnableUpgradeable.sol\":1513:1519  _owner */\n      0x33\n      0x00\n      swap1\n      sload\n      swap1\n      0x0100\n      exp\n      swap1\n      div\n      0xffffffffffffffffffffffffffffffffffffffff\n      and\n        /* \"@openzeppelin/contracts-upgradeable/access/OwnableUpgradeable.sol\":1506:1519  return _owner */\n      swap1\n      pop\n        /* \"@openzeppelin/contracts-upgradeable/access/OwnableUpgradeable.sol\":1441:1526  function owner() public view virtual returns (address) {... */\n      swap1\n      jump\t// out\n        /* \"contracts/contracts/ff-mp/functionality/TransactionsMgr.sol\":4401:5235  function buyItem(... */\n    tag_95:\n        /* \"contracts/contracts/ff-mp/functionality/TransactionsMgr.sol\":4501:4516  contractAddress */\n      dup2\n        /* \"contracts/contracts/ff-mp/functionality/TransactionsMgr.sol\":4518:4525  tokenId */\n      dup2\n        /* \"contracts/contracts/ff-mp/functionality/TransactionsMgr.sol\":2608:2630  Listing memory listing */\n      0x00\n        /* \"contracts/contracts/ff-mp/functionality/TransactionsMgr.sol\":2633:2643  s_listings */\n      0x69\n        /* \"contracts/contracts/ff-mp/functionality/TransactionsMgr.sol\":2633:2660  s_listings[contractAddress] */\n      0x00\n        /* \"contracts/contracts/ff-mp/functionality/TransactionsMgr.sol\":2644:2659  contractAddress */\n      dup5\n        /* \"contracts/contracts/ff-mp/functionality/TransactionsMgr.sol\":2633:2660  s_listings[contractAddress] */\n      0xffffffffffffffffffffffffffffffffffffffff\n      and\n      0xffffffffffffffffffffffffffffffffffffffff\n      and\n      dup2\n      mstore\n      0x20\n      add\n      swap1\n      dup2\n      mstore\n      0x20\n      add\n      0x00\n      keccak256\n        /* \"contracts/contracts/ff-mp/functionality/TransactionsMgr.sol\":2633:2669  s_listings[contractAddress][tokenId] */\n      0x00\n        /* \"contracts/contracts/ff-mp/functionality/TransactionsMgr.sol\":2661:2668  tokenId */\n      dup4\n        /* \"contracts/contracts/ff-mp/functionality/TransactionsMgr.sol\":2633:2669  s_listings[contractAddress][tokenId] */\n      dup2\n      mstore\n      0x20\n      add\n      swap1\n      dup2\n      mstore\n      0x20\n      add\n      0x00\n      keccak256\n        /* \"contracts/contracts/ff-mp/functionality/TransactionsMgr.sol\":2608:2669  Listing memory listing = s_listings[contractAddress][tokenId] */\n      mload(0x40)\n      dup1\n      0x60\n      add\n      0x40\n      mstore\n      swap1\n      dup2\n      0x00\n      dup3\n      add\n      sload\n      dup2\n      mstore\n      0x20\n      add\n      0x01\n      dup3\n      add\n      0x00\n      swap1\n      sload\n      swap1\n      0x0100\n      exp\n      swap1\n      div\n      0xffffffffffffffffffffffffffffffffffffffff\n      and\n      0xffffffffffffffffffffffffffffffffffffffff\n      and\n      0xffffffffffffffffffffffffffffffffffffffff\n      and\n      dup2\n      mstore\n      0x20\n      add\n      0x02\n      dup3\n      add\n      sload\n      dup2\n      mstore\n      pop\n      pop\n      swap1\n      pop\n        /* \"contracts/contracts/ff-mp/functionality/TransactionsMgr.sol\":2697:2698  0 */\n      0x00\n        /* \"contracts/contracts/ff-mp/functionality/TransactionsMgr.sol\":2680:2687  listing */\n      dup2\n        /* \"contracts/contracts/ff-mp/functionality/TransactionsMgr.sol\":2680:2693  listing.price */\n      0x00\n      add\n      mload\n        /* \"contracts/contracts/ff-mp/functionality/TransactionsMgr.sol\":2680:2698  listing.price <= 0 */\n      gt\n        /* \"contracts/contracts/ff-mp/functionality/TransactionsMgr.sol\":2676:2759  if (listing.price <= 0) {... */\n      tag_251\n      jumpi\n        /* \"contracts/contracts/ff-mp/functionality/TransactionsMgr.sol\":2726:2741  contractAddress */\n      dup3\n        /* \"contracts/contracts/ff-mp/functionality/TransactionsMgr.sol\":2743:2750  tokenId */\n      dup3\n        /* \"contracts/contracts/ff-mp/functionality/TransactionsMgr.sol\":2716:2751  NotListed(contractAddress, tokenId) */\n      mload(0x40)\n      0x6831488c00000000000000000000000000000000000000000000000000000000\n      dup2\n      mstore\n      0x04\n      add\n      tag_252\n      swap3\n      swap2\n      swap1\n      tag_225\n      jump\t// in\n    tag_252:\n      mload(0x40)\n      dup1\n      swap2\n      sub\n      swap1\n      revert\n        /* \"contracts/contracts/ff-mp/functionality/TransactionsMgr.sol\":2676:2759  if (listing.price <= 0) {... */\n    tag_251:\n        /* \"@openzeppelin/contracts/security/ReentrancyGuard.sol\":2261:2282  _nonReentrantBefore() */\n      tag_254\n        /* \"@openzeppelin/contracts/security/ReentrancyGuard.sol\":2261:2280  _nonReentrantBefore */\n      tag_255\n        /* \"@openzeppelin/contracts/security/ReentrancyGuard.sol\":2261:2282  _nonReentrantBefore() */\n      jump\t// in\n    tag_254:\n        /* \"contracts/contracts/ff-mp/functionality/TransactionsMgr.sol\":4547:4572  Listing memory listedItem */\n      0x00\n        /* \"contracts/contracts/ff-mp/functionality/TransactionsMgr.sol\":4575:4585  s_listings */\n      0x69\n        /* \"contracts/contracts/ff-mp/functionality/TransactionsMgr.sol\":4575:4602  s_listings[contractAddress] */\n      0x00\n        /* \"contracts/contracts/ff-mp/functionality/TransactionsMgr.sol\":4586:4601  contractAddress */\n      dup8\n        /* \"contracts/contracts/ff-mp/functionality/TransactionsMgr.sol\":4575:4602  s_listings[contractAddress] */\n      0xffffffffffffffffffffffffffffffffffffffff\n      and\n      0xffffffffffffffffffffffffffffffffffffffff\n      and\n      dup2\n      mstore\n      0x20\n      add\n      swap1\n      dup2\n      mstore\n      0x20\n      add\n      0x00\n      keccak256\n        /* \"contracts/contracts/ff-mp/functionality/TransactionsMgr.sol\":4575:4611  s_listings[contractAddress][tokenId] */\n      0x00\n        /* \"contracts/contracts/ff-mp/functionality/TransactionsMgr.sol\":4603:4610  tokenId */\n      dup7\n        /* \"contracts/contracts/ff-mp/functionality/TransactionsMgr.sol\":4575:4611  s_listings[contractAddress][tokenId] */\n      dup2\n      mstore\n      0x20\n      add\n      swap1\n      dup2\n      mstore\n      0x20\n      add\n      0x00\n      keccak256\n        /* \"contracts/contracts/ff-mp/functionality/TransactionsMgr.sol\":4547:4611  Listing memory listedItem = s_listings[contractAddress][tokenId] */\n      mload(0x40)\n      dup1\n      0x60\n      add\n      0x40\n      mstore\n      swap1\n      dup2\n      0x00\n      dup3\n      add\n      sload\n      dup2\n      mstore\n      0x20\n      add\n      0x01\n      dup3\n      add\n      0x00\n      swap1\n      sload\n      swap1\n      0x0100\n      exp\n      swap1\n      div\n      0xffffffffffffffffffffffffffffffffffffffff\n      and\n      0xffffffffffffffffffffffffffffffffffffffff\n      and\n      0xffffffffffffffffffffffffffffffffffffffff\n      and\n      dup2\n      mstore\n      0x20\n      add\n      0x02\n      dup3\n      add\n      sload\n      dup2\n      mstore\n      pop\n      pop\n      swap1\n      pop\n        /* \"contracts/contracts/ff-mp/functionality/TransactionsMgr.sol\":4634:4644  listedItem */\n      dup1\n        /* \"contracts/contracts/ff-mp/functionality/TransactionsMgr.sol\":4634:4650  listedItem.price */\n      0x00\n      add\n      mload\n        /* \"contracts/contracts/ff-mp/functionality/TransactionsMgr.sol\":4622:4631  msg.value */\n      callvalue\n        /* \"contracts/contracts/ff-mp/functionality/TransactionsMgr.sol\":4622:4650  msg.value < listedItem.price */\n      lt\n        /* \"contracts/contracts/ff-mp/functionality/TransactionsMgr.sol\":4618:4731  if (msg.value < listedItem.price) {... */\n      iszero\n      tag_257\n      jumpi\n        /* \"contracts/contracts/ff-mp/functionality/TransactionsMgr.sol\":4680:4695  contractAddress */\n      dup6\n        /* \"contracts/contracts/ff-mp/functionality/TransactionsMgr.sol\":4697:4704  tokenId */\n      dup6\n        /* \"contracts/contracts/ff-mp/functionality/TransactionsMgr.sol\":4706:4716  listedItem */\n      dup3\n        /* \"contracts/contracts/ff-mp/functionality/TransactionsMgr.sol\":4706:4722  listedItem.price */\n      0x00\n      add\n      mload\n        /* \"contracts/contracts/ff-mp/functionality/TransactionsMgr.sol\":4668:4723  PriceNotMet(contractAddress, tokenId, listedItem.price) */\n      mload(0x40)\n      0x7c93456500000000000000000000000000000000000000000000000000000000\n      dup2\n      mstore\n      0x04\n      add\n      tag_258\n      swap4\n      swap3\n      swap2\n      swap1\n      tag_259\n      jump\t// in\n    tag_258:\n      mload(0x40)\n      dup1\n      swap2\n      sub\n      swap1\n      revert\n        /* \"contracts/contracts/ff-mp/functionality/TransactionsMgr.sol\":4618:4731  if (msg.value < listedItem.price) {... */\n    tag_257:\n        /* \"contracts/contracts/ff-mp/functionality/TransactionsMgr.sol\":4747:4757  _devWallet */\n      0x68\n      0x00\n      swap1\n      sload\n      swap1\n      0x0100\n      exp\n      swap1\n      div\n      0xffffffffffffffffffffffffffffffffffffffff\n      and\n        /* \"contracts/contracts/ff-mp/functionality/TransactionsMgr.sol\":4739:4767  payable(_devWallet).transfer */\n      0xffffffffffffffffffffffffffffffffffffffff\n      and\n        /* \"contracts/contracts/ff-mp/functionality/TransactionsMgr.sol\":4739:4791  payable(_devWallet).transfer(listedItem.price / 100) */\n      0x08fc\n        /* \"contracts/contracts/ff-mp/functionality/TransactionsMgr.sol\":4787:4790  100 */\n      0x64\n        /* \"contracts/contracts/ff-mp/functionality/TransactionsMgr.sol\":4768:4778  listedItem */\n      dup4\n        /* \"contracts/contracts/ff-mp/functionality/TransactionsMgr.sol\":4768:4784  listedItem.price */\n      0x00\n      add\n      mload\n        /* \"contracts/contracts/ff-mp/functionality/TransactionsMgr.sol\":4768:4790  listedItem.price / 100 */\n      tag_260\n      swap2\n      swap1\n      tag_261\n      jump\t// in\n    tag_260:\n        /* \"contracts/contracts/ff-mp/functionality/TransactionsMgr.sol\":4739:4791  payable(_devWallet).transfer(listedItem.price / 100) */\n      swap1\n      dup2\n      iszero\n      mul\n      swap1\n      mload(0x40)\n      0x00\n      mload(0x40)\n      dup1\n      dup4\n      sub\n      dup2\n      dup6\n      dup9\n      dup9\n      call\n      swap4\n      pop\n      pop\n      pop\n      pop\n      iszero\n      dup1\n      iszero\n      tag_263\n      jumpi\n      returndatasize\n      0x00\n      dup1\n      returndatacopy\n      revert(0x00, returndatasize)\n    tag_263:\n      pop\n        /* \"contracts/contracts/ff-mp/functionality/TransactionsMgr.sol\":4806:4816  listedItem */\n      dup1\n        /* \"contracts/contracts/ff-mp/functionality/TransactionsMgr.sol\":4806:4823  listedItem.seller */\n      0x20\n      add\n      mload\n        /* \"contracts/contracts/ff-mp/functionality/TransactionsMgr.sol\":4798:4833  payable(listedItem.seller).transfer */\n      0xffffffffffffffffffffffffffffffffffffffff\n      and\n        /* \"contracts/contracts/ff-mp/functionality/TransactionsMgr.sol\":4798:4864  payable(listedItem.seller).transfer((listedItem.price / 100) * 97) */\n      0x08fc\n        /* \"contracts/contracts/ff-mp/functionality/TransactionsMgr.sol\":4861:4863  97 */\n      0x61\n        /* \"contracts/contracts/ff-mp/functionality/TransactionsMgr.sol\":4854:4857  100 */\n      0x64\n        /* \"contracts/contracts/ff-mp/functionality/TransactionsMgr.sol\":4835:4845  listedItem */\n      dup5\n        /* \"contracts/contracts/ff-mp/functionality/TransactionsMgr.sol\":4835:4851  listedItem.price */\n      0x00\n      add\n      mload\n        /* \"contracts/contracts/ff-mp/functionality/TransactionsMgr.sol\":4835:4857  listedItem.price / 100 */\n      tag_264\n      swap2\n      swap1\n      tag_261\n      jump\t// in\n    tag_264:\n        /* \"contracts/contracts/ff-mp/functionality/TransactionsMgr.sol\":4834:4863  (listedItem.price / 100) * 97 */\n      tag_265\n      swap2\n      swap1\n      tag_266\n      jump\t// in\n    tag_265:\n        /* \"contracts/contracts/ff-mp/functionality/TransactionsMgr.sol\":4798:4864  payable(listedItem.seller).transfer((listedItem.price / 100) * 97) */\n      swap1\n      dup2\n      iszero\n      mul\n      swap1\n      mload(0x40)\n      0x00\n      mload(0x40)\n      dup1\n      dup4\n      sub\n      dup2\n      dup6\n      dup9\n      dup9\n      call\n      swap4\n      pop\n      pop\n      pop\n      pop\n      iszero\n      dup1\n      iszero\n      tag_268\n      jumpi\n      returndatasize\n      0x00\n      dup1\n      returndatacopy\n      revert(0x00, returndatasize)\n    tag_268:\n      pop\n        /* \"contracts/contracts/ff-mp/functionality/TransactionsMgr.sol\":4943:4948  false */\n      0x00\n        /* \"contracts/contracts/ff-mp/functionality/TransactionsMgr.sol\":4873:4885  _idToListing */\n      0x6b\n        /* \"contracts/contracts/ff-mp/functionality/TransactionsMgr.sol\":4873:4933  _idToListing[s_listings[contractAddress][tokenId].listingId] */\n      0x00\n        /* \"contracts/contracts/ff-mp/functionality/TransactionsMgr.sol\":4886:4896  s_listings */\n      0x69\n        /* \"contracts/contracts/ff-mp/functionality/TransactionsMgr.sol\":4886:4913  s_listings[contractAddress] */\n      0x00\n        /* \"contracts/contracts/ff-mp/functionality/TransactionsMgr.sol\":4897:4912  contractAddress */\n      dup11\n        /* \"contracts/contracts/ff-mp/functionality/TransactionsMgr.sol\":4886:4913  s_listings[contractAddress] */\n      0xffffffffffffffffffffffffffffffffffffffff\n      and\n      0xffffffffffffffffffffffffffffffffffffffff\n      and\n      dup2\n      mstore\n      0x20\n      add\n      swap1\n      dup2\n      mstore\n      0x20\n      add\n      0x00\n      keccak256\n        /* \"contracts/contracts/ff-mp/functionality/TransactionsMgr.sol\":4886:4922  s_listings[contractAddress][tokenId] */\n      0x00\n        /* \"contracts/contracts/ff-mp/functionality/TransactionsMgr.sol\":4914:4921  tokenId */\n      dup10\n        /* \"contracts/contracts/ff-mp/functionality/TransactionsMgr.sol\":4886:4922  s_listings[contractAddress][tokenId] */\n      dup2\n      mstore\n      0x20\n      add\n      swap1\n      dup2\n      mstore\n      0x20\n      add\n      0x00\n      keccak256\n        /* \"contracts/contracts/ff-mp/functionality/TransactionsMgr.sol\":4886:4932  s_listings[contractAddress][tokenId].listingId */\n      0x02\n      add\n      sload\n        /* \"contracts/contracts/ff-mp/functionality/TransactionsMgr.sol\":4873:4933  _idToListing[s_listings[contractAddress][tokenId].listingId] */\n      dup2\n      mstore\n      0x20\n      add\n      swap1\n      dup2\n      mstore\n      0x20\n      add\n      0x00\n      keccak256\n        /* \"contracts/contracts/ff-mp/functionality/TransactionsMgr.sol\":4873:4940  _idToListing[s_listings[contractAddress][tokenId].listingId].active */\n      0x05\n      add\n      0x00\n        /* \"contracts/contracts/ff-mp/functionality/TransactionsMgr.sol\":4873:4948  _idToListing[s_listings[contractAddress][tokenId].listingId].active = false */\n      0x0100\n      exp\n      dup2\n      sload\n      dup2\n      0xff\n      mul\n      not\n      and\n      swap1\n      dup4\n      iszero\n      iszero\n      mul\n      or\n      swap1\n      sstore\n      pop\n        /* \"contracts/contracts/ff-mp/functionality/TransactionsMgr.sol\":4963:4973  s_listings */\n      0x69\n        /* \"contracts/contracts/ff-mp/functionality/TransactionsMgr.sol\":4963:4990  s_listings[contractAddress] */\n      0x00\n        /* \"contracts/contracts/ff-mp/functionality/TransactionsMgr.sol\":4974:4989  contractAddress */\n      dup8\n        /* \"contracts/contracts/ff-mp/functionality/TransactionsMgr.sol\":4963:4990  s_listings[contractAddress] */\n      0xffffffffffffffffffffffffffffffffffffffff\n      and\n      0xffffffffffffffffffffffffffffffffffffffff\n      and\n      dup2\n      mstore\n      0x20\n      add\n      swap1\n      dup2\n      mstore\n      0x20\n      add\n      0x00\n      keccak256\n        /* \"contracts/contracts/ff-mp/functionality/TransactionsMgr.sol\":4963:4999  s_listings[contractAddress][tokenId] */\n      0x00\n        /* \"contracts/contracts/ff-mp/functionality/TransactionsMgr.sol\":4991:4998  tokenId */\n      dup7\n        /* \"contracts/contracts/ff-mp/functionality/TransactionsMgr.sol\":4963:4999  s_listings[contractAddress][tokenId] */\n      dup2\n      mstore\n      0x20\n      add\n      swap1\n      dup2\n      mstore\n      0x20\n      add\n      0x00\n      keccak256\n      0x00\n        /* \"contracts/contracts/ff-mp/functionality/TransactionsMgr.sol\":4955:5000  delete (s_listings[contractAddress][tokenId]) */\n      dup1\n      dup3\n      add\n      0x00\n      swap1\n      sstore\n      0x01\n      dup3\n      add\n      exp(0x0100, 0x00)\n      dup2\n      sload\n      swap1\n      0xffffffffffffffffffffffffffffffffffffffff\n      mul\n      not\n      and\n      swap1\n      sstore\n      0x02\n      dup3\n      add\n      0x00\n      swap1\n      sstore\n      pop\n      pop\n        /* \"contracts/contracts/ff-mp/functionality/TransactionsMgr.sol\":5015:5030  contractAddress */\n      dup6\n        /* \"contracts/contracts/ff-mp/functionality/TransactionsMgr.sol\":5007:5048  IERC721(contractAddress).safeTransferFrom */\n      0xffffffffffffffffffffffffffffffffffffffff\n      and\n      0x42842e0e\n        /* \"contracts/contracts/ff-mp/functionality/TransactionsMgr.sol\":5057:5067  listedItem */\n      dup3\n        /* \"contracts/contracts/ff-mp/functionality/TransactionsMgr.sol\":5057:5074  listedItem.seller */\n      0x20\n      add\n      mload\n        /* \"contracts/contracts/ff-mp/functionality/TransactionsMgr.sol\":5083:5093  msg.sender */\n      caller\n        /* \"contracts/contracts/ff-mp/functionality/TransactionsMgr.sol\":5102:5109  tokenId */\n      dup9\n        /* \"contracts/contracts/ff-mp/functionality/TransactionsMgr.sol\":5007:5116  IERC721(contractAddress).safeTransferFrom(... */\n      mload(0x40)\n      dup5\n      0xffffffff\n      and\n      0xe0\n      shl\n      dup2\n      mstore\n      0x04\n      add\n      tag_269\n      swap4\n      swap3\n      swap2\n      swap1\n      tag_270\n      jump\t// in\n    tag_269:\n      0x00\n      mload(0x40)\n      dup1\n      dup4\n      sub\n      dup2\n      0x00\n      dup8\n      dup1\n      extcodesize\n      iszero\n      dup1\n      iszero\n      tag_271\n      jumpi\n      0x00\n      dup1\n      revert\n    tag_271:\n      pop\n      gas\n      call\n      iszero\n      dup1\n      iszero\n      tag_273\n      jumpi\n      returndatasize\n      0x00\n      dup1\n      returndatacopy\n      revert(0x00, returndatasize)\n    tag_273:\n      pop\n      pop\n      pop\n      pop\n        /* \"contracts/contracts/ff-mp/functionality/TransactionsMgr.sol\":5123:5149  _totalComplete.increment() */\n      tag_274\n        /* \"contracts/contracts/ff-mp/functionality/TransactionsMgr.sol\":5123:5137  _totalComplete */\n      0x6d\n        /* \"contracts/contracts/ff-mp/functionality/TransactionsMgr.sol\":5123:5147  _totalComplete.increment */\n      tag_244\n        /* \"contracts/contracts/ff-mp/functionality/TransactionsMgr.sol\":5123:5149  _totalComplete.increment() */\n      jump\t// in\n    tag_274:\n        /* \"contracts/contracts/ff-mp/functionality/TransactionsMgr.sol\":5203:5210  tokenId */\n      dup5\n        /* \"contracts/contracts/ff-mp/functionality/TransactionsMgr.sol\":5186:5201  contractAddress */\n      dup7\n        /* \"contracts/contracts/ff-mp/functionality/TransactionsMgr.sol\":5163:5229  ItemBought(msg.sender, contractAddress, tokenId, listedItem.price) */\n      0xffffffffffffffffffffffffffffffffffffffff\n      and\n        /* \"contracts/contracts/ff-mp/functionality/TransactionsMgr.sol\":5174:5184  msg.sender */\n      caller\n        /* \"contracts/contracts/ff-mp/functionality/TransactionsMgr.sol\":5163:5229  ItemBought(msg.sender, contractAddress, tokenId, listedItem.price) */\n      0xffffffffffffffffffffffffffffffffffffffff\n      and\n      0x263223b1dd81e51054a4e6f791d45a4a1ddb4aadcd93a2dfd892615c3fdac187\n        /* \"contracts/contracts/ff-mp/functionality/TransactionsMgr.sol\":5212:5222  listedItem */\n      dup5\n        /* \"contracts/contracts/ff-mp/functionality/TransactionsMgr.sol\":5212:5228  listedItem.price */\n      0x00\n      add\n      mload\n        /* \"contracts/contracts/ff-mp/functionality/TransactionsMgr.sol\":5163:5229  ItemBought(msg.sender, contractAddress, tokenId, listedItem.price) */\n      mload(0x40)\n      tag_275\n      swap2\n      swap1\n      tag_228\n      jump\t// in\n    tag_275:\n      mload(0x40)\n      dup1\n      swap2\n      sub\n      swap1\n      log4\n        /* \"contracts/contracts/ff-mp/functionality/TransactionsMgr.sol\":4540:5235  {... */\n      pop\n        /* \"@openzeppelin/contracts/security/ReentrancyGuard.sol\":2303:2323  _nonReentrantAfter() */\n      tag_276\n        /* \"@openzeppelin/contracts/security/ReentrancyGuard.sol\":2303:2321  _nonReentrantAfter */\n      tag_277\n        /* \"@openzeppelin/contracts/security/ReentrancyGuard.sol\":2303:2323  _nonReentrantAfter() */\n      jump\t// in\n    tag_276:\n        /* \"contracts/contracts/ff-mp/functionality/TransactionsMgr.sol\":2601:2772  {... */\n      pop\n        /* \"contracts/contracts/ff-mp/functionality/TransactionsMgr.sol\":4401:5235  function buyItem(... */\n      pop\n      pop\n      pop\n      pop\n      jump\t// out\n        /* \"contracts/contracts/ff-mp/functionality/TransactionsMgr.sol\":3044:3469  function cancelListing(... */\n    tag_99:\n        /* \"contracts/contracts/ff-mp/functionality/TransactionsMgr.sol\":3151:3166  contractAddress */\n      dup2\n        /* \"contracts/contracts/ff-mp/functionality/TransactionsMgr.sol\":3168:3175  tokenId */\n      dup2\n        /* \"contracts/contracts/ff-mp/functionality/TransactionsMgr.sol\":3177:3187  msg.sender */\n      caller\n        /* \"contracts/contracts/ff-mp/functionality/TransactionsMgr.sol\":2881:2892  IERC721 nft */\n      0x00\n        /* \"contracts/contracts/ff-mp/functionality/TransactionsMgr.sol\":2903:2918  contractAddress */\n      dup4\n        /* \"contracts/contracts/ff-mp/functionality/TransactionsMgr.sol\":2881:2919  IERC721 nft = IERC721(contractAddress) */\n      swap1\n      pop\n        /* \"contracts/contracts/ff-mp/functionality/TransactionsMgr.sol\":2926:2939  address owner */\n      0x00\n        /* \"contracts/contracts/ff-mp/functionality/TransactionsMgr.sol\":2942:2945  nft */\n      dup2\n        /* \"contracts/contracts/ff-mp/functionality/TransactionsMgr.sol\":2942:2953  nft.ownerOf */\n      0xffffffffffffffffffffffffffffffffffffffff\n      and\n      0x6352211e\n        /* \"contracts/contracts/ff-mp/functionality/TransactionsMgr.sol\":2954:2961  tokenId */\n      dup6\n        /* \"contracts/contracts/ff-mp/functionality/TransactionsMgr.sol\":2942:2962  nft.ownerOf(tokenId) */\n      mload(0x40)\n      dup3\n      0xffffffff\n      and\n      0xe0\n      shl\n      dup2\n      mstore\n      0x04\n      add\n      tag_279\n      swap2\n      swap1\n      tag_228\n      jump\t// in\n    tag_279:\n      0x20\n      mload(0x40)\n      dup1\n      dup4\n      sub\n      dup2\n      dup7\n      gas\n      staticcall\n      iszero\n      dup1\n      iszero\n      tag_281\n      jumpi\n      returndatasize\n      0x00\n      dup1\n      returndatacopy\n      revert(0x00, returndatasize)\n    tag_281:\n      pop\n      pop\n      pop\n      pop\n      mload(0x40)\n      returndatasize\n      not(0x1f)\n      0x1f\n      dup3\n      add\n      and\n      dup3\n      add\n      dup1\n      0x40\n      mstore\n      pop\n      dup2\n      add\n      swap1\n      tag_282\n      swap2\n      swap1\n      tag_232\n      jump\t// in\n    tag_282:\n        /* \"contracts/contracts/ff-mp/functionality/TransactionsMgr.sol\":2926:2962  address owner = nft.ownerOf(tokenId) */\n      swap1\n      pop\n        /* \"contracts/contracts/ff-mp/functionality/TransactionsMgr.sol\":2984:2989  owner */\n      dup1\n        /* \"contracts/contracts/ff-mp/functionality/TransactionsMgr.sol\":2973:2989  spender != owner */\n      0xffffffffffffffffffffffffffffffffffffffff\n      and\n        /* \"contracts/contracts/ff-mp/functionality/TransactionsMgr.sol\":2973:2980  spender */\n      dup4\n        /* \"contracts/contracts/ff-mp/functionality/TransactionsMgr.sol\":2973:2989  spender != owner */\n      0xffffffffffffffffffffffffffffffffffffffff\n      and\n      eq\n        /* \"contracts/contracts/ff-mp/functionality/TransactionsMgr.sol\":2969:3025  if (spender != owner) {... */\n      tag_283\n      jumpi\n        /* \"contracts/contracts/ff-mp/functionality/TransactionsMgr.sol\":3007:3017  NotOwner() */\n      mload(0x40)\n      0x30cd747100000000000000000000000000000000000000000000000000000000\n      dup2\n      mstore\n      0x04\n      add\n      mload(0x40)\n      dup1\n      swap2\n      sub\n      swap1\n      revert\n        /* \"contracts/contracts/ff-mp/functionality/TransactionsMgr.sol\":2969:3025  if (spender != owner) {... */\n    tag_283:\n        /* \"contracts/contracts/ff-mp/functionality/TransactionsMgr.sol\":3203:3218  contractAddress */\n      dup7\n        /* \"contracts/contracts/ff-mp/functionality/TransactionsMgr.sol\":3220:3227  tokenId */\n      dup7\n        /* \"contracts/contracts/ff-mp/functionality/TransactionsMgr.sol\":2608:2630  Listing memory listing */\n      0x00\n        /* \"contracts/contracts/ff-mp/functionality/TransactionsMgr.sol\":2633:2643  s_listings */\n      0x69\n        /* \"contracts/contracts/ff-mp/functionality/TransactionsMgr.sol\":2633:2660  s_listings[contractAddress] */\n      0x00\n        /* \"contracts/contracts/ff-mp/functionality/TransactionsMgr.sol\":2644:2659  contractAddress */\n      dup5\n        /* \"contracts/contracts/ff-mp/functionality/TransactionsMgr.sol\":2633:2660  s_listings[contractAddress] */\n      0xffffffffffffffffffffffffffffffffffffffff\n      and\n      0xffffffffffffffffffffffffffffffffffffffff\n      and\n      dup2\n      mstore\n      0x20\n      add\n      swap1\n      dup2\n      mstore\n      0x20\n      add\n      0x00\n      keccak256\n        /* \"contracts/contracts/ff-mp/functionality/TransactionsMgr.sol\":2633:2669  s_listings[contractAddress][tokenId] */\n      0x00\n        /* \"contracts/contracts/ff-mp/functionality/TransactionsMgr.sol\":2661:2668  tokenId */\n      dup4\n        /* \"contracts/contracts/ff-mp/functionality/TransactionsMgr.sol\":2633:2669  s_listings[contractAddress][tokenId] */\n      dup2\n      mstore\n      0x20\n      add\n      swap1\n      dup2\n      mstore\n      0x20\n      add\n      0x00\n      keccak256\n        /* \"contracts/contracts/ff-mp/functionality/TransactionsMgr.sol\":2608:2669  Listing memory listing = s_listings[contractAddress][tokenId] */\n      mload(0x40)\n      dup1\n      0x60\n      add\n      0x40\n      mstore\n      swap1\n      dup2\n      0x00\n      dup3\n      add\n      sload\n      dup2\n      mstore\n      0x20\n      add\n      0x01\n      dup3\n      add\n      0x00\n      swap1\n      sload\n      swap1\n      0x0100\n      exp\n      swap1\n      div\n      0xffffffffffffffffffffffffffffffffffffffff\n      and\n      0xffffffffffffffffffffffffffffffffffffffff\n      and\n      0xffffffffffffffffffffffffffffffffffffffff\n      and\n      dup2\n      mstore\n      0x20\n      add\n      0x02\n      dup3\n      add\n      sload\n      dup2\n      mstore\n      pop\n      pop\n      swap1\n      pop\n        /* \"contracts/contracts/ff-mp/functionality/TransactionsMgr.sol\":2697:2698  0 */\n      0x00\n        /* \"contracts/contracts/ff-mp/functionality/TransactionsMgr.sol\":2680:2687  listing */\n      dup2\n        /* \"contracts/contracts/ff-mp/functionality/TransactionsMgr.sol\":2680:2693  listing.price */\n      0x00\n      add\n      mload\n        /* \"contracts/contracts/ff-mp/functionality/TransactionsMgr.sol\":2680:2698  listing.price <= 0 */\n      gt\n        /* \"contracts/contracts/ff-mp/functionality/TransactionsMgr.sol\":2676:2759  if (listing.price <= 0) {... */\n      tag_285\n      jumpi\n        /* \"contracts/contracts/ff-mp/functionality/TransactionsMgr.sol\":2726:2741  contractAddress */\n      dup3\n        /* \"contracts/contracts/ff-mp/functionality/TransactionsMgr.sol\":2743:2750  tokenId */\n      dup3\n        /* \"contracts/contracts/ff-mp/functionality/TransactionsMgr.sol\":2716:2751  NotListed(contractAddress, tokenId) */\n      mload(0x40)\n      0x6831488c00000000000000000000000000000000000000000000000000000000\n      dup2\n      mstore\n      0x04\n      add\n      tag_286\n      swap3\n      swap2\n      swap1\n      tag_225\n      jump\t// in\n    tag_286:\n      mload(0x40)\n      dup1\n      swap2\n      sub\n      swap1\n      revert\n        /* \"contracts/contracts/ff-mp/functionality/TransactionsMgr.sol\":2676:2759  if (listing.price <= 0) {... */\n    tag_285:\n        /* \"contracts/contracts/ff-mp/functionality/TransactionsMgr.sol\":3309:3314  false */\n      0x00\n        /* \"contracts/contracts/ff-mp/functionality/TransactionsMgr.sol\":3239:3251  _idToListing */\n      0x6b\n        /* \"contracts/contracts/ff-mp/functionality/TransactionsMgr.sol\":3239:3299  _idToListing[s_listings[contractAddress][tokenId].listingId] */\n      0x00\n        /* \"contracts/contracts/ff-mp/functionality/TransactionsMgr.sol\":3252:3262  s_listings */\n      0x69\n        /* \"contracts/contracts/ff-mp/functionality/TransactionsMgr.sol\":3252:3279  s_listings[contractAddress] */\n      0x00\n        /* \"contracts/contracts/ff-mp/functionality/TransactionsMgr.sol\":3263:3278  contractAddress */\n      dup15\n        /* \"contracts/contracts/ff-mp/functionality/TransactionsMgr.sol\":3252:3279  s_listings[contractAddress] */\n      0xffffffffffffffffffffffffffffffffffffffff\n      and\n      0xffffffffffffffffffffffffffffffffffffffff\n      and\n      dup2\n      mstore\n      0x20\n      add\n      swap1\n      dup2\n      mstore\n      0x20\n      add\n      0x00\n      keccak256\n        /* \"contracts/contracts/ff-mp/functionality/TransactionsMgr.sol\":3252:3288  s_listings[contractAddress][tokenId] */\n      0x00\n        /* \"contracts/contracts/ff-mp/functionality/TransactionsMgr.sol\":3280:3287  tokenId */\n      dup14\n        /* \"contracts/contracts/ff-mp/functionality/TransactionsMgr.sol\":3252:3288  s_listings[contractAddress][tokenId] */\n      dup2\n      mstore\n      0x20\n      add\n      swap1\n      dup2\n      mstore\n      0x20\n      add\n      0x00\n      keccak256\n        /* \"contracts/contracts/ff-mp/functionality/TransactionsMgr.sol\":3252:3298  s_listings[contractAddress][tokenId].listingId */\n      0x02\n      add\n      sload\n        /* \"contracts/contracts/ff-mp/functionality/TransactionsMgr.sol\":3239:3299  _idToListing[s_listings[contractAddress][tokenId].listingId] */\n      dup2\n      mstore\n      0x20\n      add\n      swap1\n      dup2\n      mstore\n      0x20\n      add\n      0x00\n      keccak256\n        /* \"contracts/contracts/ff-mp/functionality/TransactionsMgr.sol\":3239:3306  _idToListing[s_listings[contractAddress][tokenId].listingId].active */\n      0x05\n      add\n      0x00\n        /* \"contracts/contracts/ff-mp/functionality/TransactionsMgr.sol\":3239:3314  _idToListing[s_listings[contractAddress][tokenId].listingId].active = false */\n      0x0100\n      exp\n      dup2\n      sload\n      dup2\n      0xff\n      mul\n      not\n      and\n      swap1\n      dup4\n      iszero\n      iszero\n      mul\n      or\n      swap1\n      sstore\n      pop\n        /* \"contracts/contracts/ff-mp/functionality/TransactionsMgr.sol\":3329:3339  s_listings */\n      0x69\n        /* \"contracts/contracts/ff-mp/functionality/TransactionsMgr.sol\":3329:3356  s_listings[contractAddress] */\n      0x00\n        /* \"contracts/contracts/ff-mp/functionality/TransactionsMgr.sol\":3340:3355  contractAddress */\n      dup12\n        /* \"contracts/contracts/ff-mp/functionality/TransactionsMgr.sol\":3329:3356  s_listings[contractAddress] */\n      0xffffffffffffffffffffffffffffffffffffffff\n      and\n      0xffffffffffffffffffffffffffffffffffffffff\n      and\n      dup2\n      mstore\n      0x20\n      add\n      swap1\n      dup2\n      mstore\n      0x20\n      add\n      0x00\n      keccak256\n        /* \"contracts/contracts/ff-mp/functionality/TransactionsMgr.sol\":3329:3365  s_listings[contractAddress][tokenId] */\n      0x00\n        /* \"contracts/contracts/ff-mp/functionality/TransactionsMgr.sol\":3357:3364  tokenId */\n      dup11\n        /* \"contracts/contracts/ff-mp/functionality/TransactionsMgr.sol\":3329:3365  s_listings[contractAddress][tokenId] */\n      dup2\n      mstore\n      0x20\n      add\n      swap1\n      dup2\n      mstore\n      0x20\n      add\n      0x00\n      keccak256\n      0x00\n        /* \"contracts/contracts/ff-mp/functionality/TransactionsMgr.sol\":3321:3366  delete (s_listings[contractAddress][tokenId]) */\n      dup1\n      dup3\n      add\n      0x00\n      swap1\n      sstore\n      0x01\n      dup3\n      add\n      exp(0x0100, 0x00)\n      dup2\n      sload\n      swap1\n      0xffffffffffffffffffffffffffffffffffffffff\n      mul\n      not\n      and\n      swap1\n      sstore\n      0x02\n      dup3\n      add\n      0x00\n      swap1\n      sstore\n      pop\n      pop\n        /* \"contracts/contracts/ff-mp/functionality/TransactionsMgr.sol\":3373:3399  _totalComplete.increment() */\n      tag_288\n        /* \"contracts/contracts/ff-mp/functionality/TransactionsMgr.sol\":3373:3387  _totalComplete */\n      0x6d\n        /* \"contracts/contracts/ff-mp/functionality/TransactionsMgr.sol\":3373:3397  _totalComplete.increment */\n      tag_244\n        /* \"contracts/contracts/ff-mp/functionality/TransactionsMgr.sol\":3373:3399  _totalComplete.increment() */\n      jump\t// in\n    tag_288:\n        /* \"contracts/contracts/ff-mp/functionality/TransactionsMgr.sol\":3455:3462  tokenId */\n      dup9\n        /* \"contracts/contracts/ff-mp/functionality/TransactionsMgr.sol\":3438:3453  contractAddress */\n      dup11\n        /* \"contracts/contracts/ff-mp/functionality/TransactionsMgr.sol\":3413:3463  ItemCanceled(msg.sender, contractAddress, tokenId) */\n      0xffffffffffffffffffffffffffffffffffffffff\n      and\n        /* \"contracts/contracts/ff-mp/functionality/TransactionsMgr.sol\":3426:3436  msg.sender */\n      caller\n        /* \"contracts/contracts/ff-mp/functionality/TransactionsMgr.sol\":3413:3463  ItemCanceled(msg.sender, contractAddress, tokenId) */\n      0xffffffffffffffffffffffffffffffffffffffff\n      and\n      0x9ba1a3cb55ce8d63d072a886f94d2a744f50cddf82128e897d0661f5ec623158\n      mload(0x40)\n      mload(0x40)\n      dup1\n      swap2\n      sub\n      swap1\n      log4\n        /* \"contracts/contracts/ff-mp/functionality/TransactionsMgr.sol\":2601:2772  {... */\n      pop\n        /* \"contracts/contracts/ff-mp/functionality/TransactionsMgr.sol\":3031:3032  _ */\n      pop\n      pop\n        /* \"contracts/contracts/ff-mp/functionality/TransactionsMgr.sol\":2874:3038  {... */\n      pop\n      pop\n        /* \"contracts/contracts/ff-mp/functionality/TransactionsMgr.sol\":3044:3469  function cancelListing(... */\n      pop\n      pop\n      pop\n      pop\n      pop\n      jump\t// out\n        /* \"@openzeppelin/contracts-upgradeable/access/OwnableUpgradeable.sol\":2314:2512  function transferOwnership(address newOwner) public virtual onlyOwner {... */\n    tag_103:\n        /* \"@openzeppelin/contracts-upgradeable/access/OwnableUpgradeable.sol\":1334:1347  _checkOwner() */\n      tag_290\n        /* \"@openzeppelin/contracts-upgradeable/access/OwnableUpgradeable.sol\":1334:1345  _checkOwner */\n      tag_141\n        /* \"@openzeppelin/contracts-upgradeable/access/OwnableUpgradeable.sol\":1334:1347  _checkOwner() */\n      jump\t// in\n    tag_290:\n        /* \"@openzeppelin/contracts-upgradeable/access/OwnableUpgradeable.sol\":2422:2423  0 */\n      0x00\n        /* \"@openzeppelin/contracts-upgradeable/access/OwnableUpgradeable.sol\":2402:2424  newOwner != address(0) */\n      0xffffffffffffffffffffffffffffffffffffffff\n      and\n        /* \"@openzeppelin/contracts-upgradeable/access/OwnableUpgradeable.sol\":2402:2410  newOwner */\n      dup2\n        /* \"@openzeppelin/contracts-upgradeable/access/OwnableUpgradeable.sol\":2402:2424  newOwner != address(0) */\n      0xffffffffffffffffffffffffffffffffffffffff\n      and\n      sub\n        /* \"@openzeppelin/contracts-upgradeable/access/OwnableUpgradeable.sol\":2394:2467  require(newOwner != address(0), \"Ownable: new owner is the zero address\") */\n      tag_292\n      jumpi\n      mload(0x40)\n      0x08c379a000000000000000000000000000000000000000000000000000000000\n      dup2\n      mstore\n      0x04\n      add\n      tag_293\n      swap1\n      tag_294\n      jump\t// in\n    tag_293:\n      mload(0x40)\n      dup1\n      swap2\n      sub\n      swap1\n      revert\n    tag_292:\n        /* \"@openzeppelin/contracts-upgradeable/access/OwnableUpgradeable.sol\":2477:2505  _transferOwnership(newOwner) */\n      tag_295\n        /* \"@openzeppelin/contracts-upgradeable/access/OwnableUpgradeable.sol\":2496:2504  newOwner */\n      dup2\n        /* \"@openzeppelin/contracts-upgradeable/access/OwnableUpgradeable.sol\":2477:2495  _transferOwnership */\n      tag_202\n        /* \"@openzeppelin/contracts-upgradeable/access/OwnableUpgradeable.sol\":2477:2505  _transferOwnership(newOwner) */\n      jump\t// in\n    tag_295:\n        /* \"@openzeppelin/contracts-upgradeable/access/OwnableUpgradeable.sol\":2314:2512  function transferOwnership(address newOwner) public virtual onlyOwner {... */\n      pop\n      jump\t// out\n        /* \"contracts/contracts/ff-mp/functionality/TransactionsMgr.sol\":5241:5867  function updateListing(... */\n    tag_107:\n        /* \"contracts/contracts/ff-mp/functionality/TransactionsMgr.sol\":5372:5387  contractAddress */\n      dup3\n        /* \"contracts/contracts/ff-mp/functionality/TransactionsMgr.sol\":5389:5396  tokenId */\n      dup3\n        /* \"contracts/contracts/ff-mp/functionality/TransactionsMgr.sol\":2608:2630  Listing memory listing */\n      0x00\n        /* \"contracts/contracts/ff-mp/functionality/TransactionsMgr.sol\":2633:2643  s_listings */\n      0x69\n        /* \"contracts/contracts/ff-mp/functionality/TransactionsMgr.sol\":2633:2660  s_listings[contractAddress] */\n      0x00\n        /* \"contracts/contracts/ff-mp/functionality/TransactionsMgr.sol\":2644:2659  contractAddress */\n      dup5\n        /* \"contracts/contracts/ff-mp/functionality/TransactionsMgr.sol\":2633:2660  s_listings[contractAddress] */\n      0xffffffffffffffffffffffffffffffffffffffff\n      and\n      0xffffffffffffffffffffffffffffffffffffffff\n      and\n      dup2\n      mstore\n      0x20\n      add\n      swap1\n      dup2\n      mstore\n      0x20\n      add\n      0x00\n      keccak256\n        /* \"contracts/contracts/ff-mp/functionality/TransactionsMgr.sol\":2633:2669  s_listings[contractAddress][tokenId] */\n      0x00\n        /* \"contracts/contracts/ff-mp/functionality/TransactionsMgr.sol\":2661:2668  tokenId */\n      dup4\n        /* \"contracts/contracts/ff-mp/functionality/TransactionsMgr.sol\":2633:2669  s_listings[contractAddress][tokenId] */\n      dup2\n      mstore\n      0x20\n      add\n      swap1\n      dup2\n      mstore\n      0x20\n      add\n      0x00\n      keccak256\n        /* \"contracts/contracts/ff-mp/functionality/TransactionsMgr.sol\":2608:2669  Listing memory listing = s_listings[contractAddress][tokenId] */\n      mload(0x40)\n      dup1\n      0x60\n      add\n      0x40\n      mstore\n      swap1\n      dup2\n      0x00\n      dup3\n      add\n      sload\n      dup2\n      mstore\n      0x20\n      add\n      0x01\n      dup3\n      add\n      0x00\n      swap1\n      sload\n      swap1\n      0x0100\n      exp\n      swap1\n      div\n      0xffffffffffffffffffffffffffffffffffffffff\n      and\n      0xffffffffffffffffffffffffffffffffffffffff\n      and\n      0xffffffffffffffffffffffffffffffffffffffff\n      and\n      dup2\n      mstore\n      0x20\n      add\n      0x02\n      dup3\n      add\n      sload\n      dup2\n      mstore\n      pop\n      pop\n      swap1\n      pop\n        /* \"contracts/contracts/ff-mp/functionality/TransactionsMgr.sol\":2697:2698  0 */\n      0x00\n        /* \"contracts/contracts/ff-mp/functionality/TransactionsMgr.sol\":2680:2687  listing */\n      dup2\n        /* \"contracts/contracts/ff-mp/functionality/TransactionsMgr.sol\":2680:2693  listing.price */\n      0x00\n      add\n      mload\n        /* \"contracts/contracts/ff-mp/functionality/TransactionsMgr.sol\":2680:2698  listing.price <= 0 */\n      gt\n        /* \"contracts/contracts/ff-mp/functionality/TransactionsMgr.sol\":2676:2759  if (listing.price <= 0) {... */\n      tag_297\n      jumpi\n        /* \"contracts/contracts/ff-mp/functionality/TransactionsMgr.sol\":2726:2741  contractAddress */\n      dup3\n        /* \"contracts/contracts/ff-mp/functionality/TransactionsMgr.sol\":2743:2750  tokenId */\n      dup3\n        /* \"contracts/contracts/ff-mp/functionality/TransactionsMgr.sol\":2716:2751  NotListed(contractAddress, tokenId) */\n      mload(0x40)\n      0x6831488c00000000000000000000000000000000000000000000000000000000\n      dup2\n      mstore\n      0x04\n      add\n      tag_298\n      swap3\n      swap2\n      swap1\n      tag_225\n      jump\t// in\n    tag_298:\n      mload(0x40)\n      dup1\n      swap2\n      sub\n      swap1\n      revert\n        /* \"contracts/contracts/ff-mp/functionality/TransactionsMgr.sol\":2676:2759  if (listing.price <= 0) {... */\n    tag_297:\n        /* \"@openzeppelin/contracts/security/ReentrancyGuard.sol\":2261:2282  _nonReentrantBefore() */\n      tag_300\n        /* \"@openzeppelin/contracts/security/ReentrancyGuard.sol\":2261:2280  _nonReentrantBefore */\n      tag_255\n        /* \"@openzeppelin/contracts/security/ReentrancyGuard.sol\":2261:2282  _nonReentrantBefore() */\n      jump\t// in\n    tag_300:\n        /* \"contracts/contracts/ff-mp/functionality/TransactionsMgr.sol\":5429:5444  contractAddress */\n      dup6\n        /* \"contracts/contracts/ff-mp/functionality/TransactionsMgr.sol\":5446:5453  tokenId */\n      dup6\n        /* \"contracts/contracts/ff-mp/functionality/TransactionsMgr.sol\":5455:5465  msg.sender */\n      caller\n        /* \"contracts/contracts/ff-mp/functionality/TransactionsMgr.sol\":2881:2892  IERC721 nft */\n      0x00\n        /* \"contracts/contracts/ff-mp/functionality/TransactionsMgr.sol\":2903:2918  contractAddress */\n      dup4\n        /* \"contracts/contracts/ff-mp/functionality/TransactionsMgr.sol\":2881:2919  IERC721 nft = IERC721(contractAddress) */\n      swap1\n      pop\n        /* \"contracts/contracts/ff-mp/functionality/TransactionsMgr.sol\":2926:2939  address owner */\n      0x00\n        /* \"contracts/contracts/ff-mp/functionality/TransactionsMgr.sol\":2942:2945  nft */\n      dup2\n        /* \"contracts/contracts/ff-mp/functionality/TransactionsMgr.sol\":2942:2953  nft.ownerOf */\n      0xffffffffffffffffffffffffffffffffffffffff\n      and\n      0x6352211e\n        /* \"contracts/contracts/ff-mp/functionality/TransactionsMgr.sol\":2954:2961  tokenId */\n      dup6\n        /* \"contracts/contracts/ff-mp/functionality/TransactionsMgr.sol\":2942:2962  nft.ownerOf(tokenId) */\n      mload(0x40)\n      dup3\n      0xffffffff\n      and\n      0xe0\n      shl\n      dup2\n      mstore\n      0x04\n      add\n      tag_302\n      swap2\n      swap1\n      tag_228\n      jump\t// in\n    tag_302:\n      0x20\n      mload(0x40)\n      dup1\n      dup4\n      sub\n      dup2\n      dup7\n      gas\n      staticcall\n      iszero\n      dup1\n      iszero\n      tag_304\n      jumpi\n      returndatasize\n      0x00\n      dup1\n      returndatacopy\n      revert(0x00, returndatasize)\n    tag_304:\n      pop\n      pop\n      pop\n      pop\n      mload(0x40)\n      returndatasize\n      not(0x1f)\n      0x1f\n      dup3\n      add\n      and\n      dup3\n      add\n      dup1\n      0x40\n      mstore\n      pop\n      dup2\n      add\n      swap1\n      tag_305\n      swap2\n      swap1\n      tag_232\n      jump\t// in\n    tag_305:\n        /* \"contracts/contracts/ff-mp/functionality/TransactionsMgr.sol\":2926:2962  address owner = nft.ownerOf(tokenId) */\n      swap1\n      pop\n        /* \"contracts/contracts/ff-mp/functionality/TransactionsMgr.sol\":2984:2989  owner */\n      dup1\n        /* \"contracts/contracts/ff-mp/functionality/TransactionsMgr.sol\":2973:2989  spender != owner */\n      0xffffffffffffffffffffffffffffffffffffffff\n      and\n        /* \"contracts/contracts/ff-mp/functionality/TransactionsMgr.sol\":2973:2980  spender */\n      dup4\n        /* \"contracts/contracts/ff-mp/functionality/TransactionsMgr.sol\":2973:2989  spender != owner */\n      0xffffffffffffffffffffffffffffffffffffffff\n      and\n      eq\n        /* \"contracts/contracts/ff-mp/functionality/TransactionsMgr.sol\":2969:3025  if (spender != owner) {... */\n      tag_306\n      jumpi\n        /* \"contracts/contracts/ff-mp/functionality/TransactionsMgr.sol\":3007:3017  NotOwner() */\n      mload(0x40)\n      0x30cd747100000000000000000000000000000000000000000000000000000000\n      dup2\n      mstore\n      0x04\n      add\n      mload(0x40)\n      dup1\n      swap2\n      sub\n      swap1\n      revert\n        /* \"contracts/contracts/ff-mp/functionality/TransactionsMgr.sol\":2969:3025  if (spender != owner) {... */\n    tag_306:\n        /* \"contracts/contracts/ff-mp/functionality/TransactionsMgr.sol\":5493:5494  0 */\n      0x00\n        /* \"contracts/contracts/ff-mp/functionality/TransactionsMgr.sol\":5481:5489  newPrice */\n      dup10\n        /* \"contracts/contracts/ff-mp/functionality/TransactionsMgr.sol\":5481:5494  newPrice == 0 */\n      sub\n        /* \"contracts/contracts/ff-mp/functionality/TransactionsMgr.sol\":5477:5542  if (newPrice == 0) {... */\n      tag_308\n      jumpi\n        /* \"contracts/contracts/ff-mp/functionality/TransactionsMgr.sol\":5512:5534  PriceMustBeAboveZero() */\n      mload(0x40)\n      0xe1abbfc500000000000000000000000000000000000000000000000000000000\n      dup2\n      mstore\n      0x04\n      add\n      mload(0x40)\n      dup1\n      swap2\n      sub\n      swap1\n      revert\n        /* \"contracts/contracts/ff-mp/functionality/TransactionsMgr.sol\":5477:5542  if (newPrice == 0) {... */\n    tag_308:\n        /* \"contracts/contracts/ff-mp/functionality/TransactionsMgr.sol\":5595:5605  address ca */\n      0x00\n        /* \"contracts/contracts/ff-mp/functionality/TransactionsMgr.sol\":5608:5623  contractAddress */\n      dup12\n        /* \"contracts/contracts/ff-mp/functionality/TransactionsMgr.sol\":5595:5623  address ca = contractAddress */\n      swap1\n      pop\n        /* \"contracts/contracts/ff-mp/functionality/TransactionsMgr.sol\":5632:5640  uint tId */\n      0x00\n        /* \"contracts/contracts/ff-mp/functionality/TransactionsMgr.sol\":5643:5650  tokenId */\n      dup12\n        /* \"contracts/contracts/ff-mp/functionality/TransactionsMgr.sol\":5632:5650  uint tId = tokenId */\n      swap1\n      pop\n        /* \"contracts/contracts/ff-mp/functionality/TransactionsMgr.sol\":5689:5697  newPrice */\n      dup11\n        /* \"contracts/contracts/ff-mp/functionality/TransactionsMgr.sol\":5661:5671  s_listings */\n      0x69\n        /* \"contracts/contracts/ff-mp/functionality/TransactionsMgr.sol\":5661:5675  s_listings[ca] */\n      0x00\n        /* \"contracts/contracts/ff-mp/functionality/TransactionsMgr.sol\":5672:5674  ca */\n      dup5\n        /* \"contracts/contracts/ff-mp/functionality/TransactionsMgr.sol\":5661:5675  s_listings[ca] */\n      0xffffffffffffffffffffffffffffffffffffffff\n      and\n      0xffffffffffffffffffffffffffffffffffffffff\n      and\n      dup2\n      mstore\n      0x20\n      add\n      swap1\n      dup2\n      mstore\n      0x20\n      add\n      0x00\n      keccak256\n        /* \"contracts/contracts/ff-mp/functionality/TransactionsMgr.sol\":5661:5680  s_listings[ca][tId] */\n      0x00\n        /* \"contracts/contracts/ff-mp/functionality/TransactionsMgr.sol\":5676:5679  tId */\n      dup4\n        /* \"contracts/contracts/ff-mp/functionality/TransactionsMgr.sol\":5661:5680  s_listings[ca][tId] */\n      dup2\n      mstore\n      0x20\n      add\n      swap1\n      dup2\n      mstore\n      0x20\n      add\n      0x00\n      keccak256\n        /* \"contracts/contracts/ff-mp/functionality/TransactionsMgr.sol\":5661:5686  s_listings[ca][tId].price */\n      0x00\n      add\n        /* \"contracts/contracts/ff-mp/functionality/TransactionsMgr.sol\":5661:5697  s_listings[ca][tId].price = newPrice */\n      dup2\n      swap1\n      sstore\n      pop\n        /* \"contracts/contracts/ff-mp/functionality/TransactionsMgr.sol\":5819:5826  tokenId */\n      dup12\n        /* \"contracts/contracts/ff-mp/functionality/TransactionsMgr.sol\":5793:5808  contractAddress */\n      dup14\n        /* \"contracts/contracts/ff-mp/functionality/TransactionsMgr.sol\":5711:5854  ItemListed(... */\n      0xffffffffffffffffffffffffffffffffffffffff\n      and\n        /* \"contracts/contracts/ff-mp/functionality/TransactionsMgr.sol\":5772:5782  msg.sender */\n      caller\n        /* \"contracts/contracts/ff-mp/functionality/TransactionsMgr.sol\":5711:5854  ItemListed(... */\n      0xffffffffffffffffffffffffffffffffffffffff\n      and\n      0x424b3284a7958bb7965c27ca0b2a8b30ce2a56ba954533df15e6bded1b608ed7\n        /* \"contracts/contracts/ff-mp/functionality/TransactionsMgr.sol\":5732:5742  s_listings */\n      0x69\n        /* \"contracts/contracts/ff-mp/functionality/TransactionsMgr.sol\":5732:5746  s_listings[ca] */\n      0x00\n        /* \"contracts/contracts/ff-mp/functionality/TransactionsMgr.sol\":5743:5745  ca */\n      dup8\n        /* \"contracts/contracts/ff-mp/functionality/TransactionsMgr.sol\":5732:5746  s_listings[ca] */\n      0xffffffffffffffffffffffffffffffffffffffff\n      and\n      0xffffffffffffffffffffffffffffffffffffffff\n      and\n      dup2\n      mstore\n      0x20\n      add\n      swap1\n      dup2\n      mstore\n      0x20\n      add\n      0x00\n      keccak256\n        /* \"contracts/contracts/ff-mp/functionality/TransactionsMgr.sol\":5732:5751  s_listings[ca][tId] */\n      0x00\n        /* \"contracts/contracts/ff-mp/functionality/TransactionsMgr.sol\":5747:5750  tId */\n      dup7\n        /* \"contracts/contracts/ff-mp/functionality/TransactionsMgr.sol\":5732:5751  s_listings[ca][tId] */\n      dup2\n      mstore\n      0x20\n      add\n      swap1\n      dup2\n      mstore\n      0x20\n      add\n      0x00\n      keccak256\n        /* \"contracts/contracts/ff-mp/functionality/TransactionsMgr.sol\":5732:5761  s_listings[ca][tId].listingId */\n      0x02\n      add\n      sload\n        /* \"contracts/contracts/ff-mp/functionality/TransactionsMgr.sol\":5837:5845  newPrice */\n      dup16\n        /* \"contracts/contracts/ff-mp/functionality/TransactionsMgr.sol\":5711:5854  ItemListed(... */\n      mload(0x40)\n      tag_309\n      swap3\n      swap2\n      swap1\n      tag_248\n      jump\t// in\n    tag_309:\n      mload(0x40)\n      dup1\n      swap2\n      sub\n      swap1\n      log4\n        /* \"contracts/contracts/ff-mp/functionality/TransactionsMgr.sol\":5548:5862  {... */\n      pop\n      pop\n        /* \"contracts/contracts/ff-mp/functionality/TransactionsMgr.sol\":2874:3038  {... */\n      pop\n      pop\n        /* \"@openzeppelin/contracts/security/ReentrancyGuard.sol\":2292:2293  _ */\n      pop\n      pop\n      pop\n        /* \"@openzeppelin/contracts/security/ReentrancyGuard.sol\":2303:2323  _nonReentrantAfter() */\n      tag_310\n        /* \"@openzeppelin/contracts/security/ReentrancyGuard.sol\":2303:2321  _nonReentrantAfter */\n      tag_277\n        /* \"@openzeppelin/contracts/security/ReentrancyGuard.sol\":2303:2323  _nonReentrantAfter() */\n      jump\t// in\n    tag_310:\n        /* \"contracts/contracts/ff-mp/functionality/TransactionsMgr.sol\":2601:2772  {... */\n      pop\n        /* \"contracts/contracts/ff-mp/functionality/TransactionsMgr.sol\":5241:5867  function updateListing(... */\n      pop\n      pop\n      pop\n      pop\n      pop\n      jump\t// out\n        /* \"contracts/contracts/ff-mp/deps/AdminControl.sol\":2029:2202  function withdrawAll(address to) public onlyOwner {... */\n    tag_111:\n        /* \"@openzeppelin/contracts-upgradeable/access/OwnableUpgradeable.sol\":1334:1347  _checkOwner() */\n      tag_312\n        /* \"@openzeppelin/contracts-upgradeable/access/OwnableUpgradeable.sol\":1334:1345  _checkOwner */\n      tag_141\n        /* \"@openzeppelin/contracts-upgradeable/access/OwnableUpgradeable.sol\":1334:1347  _checkOwner() */\n      jump\t// in\n    tag_312:\n        /* \"contracts/contracts/ff-mp/deps/AdminControl.sol\":2086:2101  uint256 balance */\n      0x00\n        /* \"contracts/contracts/ff-mp/deps/AdminControl.sol\":2104:2125  address(this).balance */\n      selfbalance\n        /* \"contracts/contracts/ff-mp/deps/AdminControl.sol\":2086:2125  uint256 balance = address(this).balance */\n      swap1\n      pop\n        /* \"contracts/contracts/ff-mp/deps/AdminControl.sol\":2150:2151  0 */\n      0x00\n        /* \"contracts/contracts/ff-mp/deps/AdminControl.sol\":2140:2147  balance */\n      dup2\n        /* \"contracts/contracts/ff-mp/deps/AdminControl.sol\":2140:2151  balance > 0 */\n      gt\n        /* \"contracts/contracts/ff-mp/deps/AdminControl.sol\":2132:2152  require(balance > 0) */\n      tag_314\n      jumpi\n      0x00\n      dup1\n      revert\n    tag_314:\n        /* \"contracts/contracts/ff-mp/deps/AdminControl.sol\":2159:2196  _widthdraw(to, address(this).balance) */\n      tag_315\n        /* \"contracts/contracts/ff-mp/deps/AdminControl.sol\":2170:2172  to */\n      dup3\n        /* \"contracts/contracts/ff-mp/deps/AdminControl.sol\":2174:2195  address(this).balance */\n      selfbalance\n        /* \"contracts/contracts/ff-mp/deps/AdminControl.sol\":2159:2169  _widthdraw */\n      tag_316\n        /* \"contracts/contracts/ff-mp/deps/AdminControl.sol\":2159:2196  _widthdraw(to, address(this).balance) */\n      jump\t// in\n    tag_315:\n        /* \"contracts/contracts/ff-mp/deps/AdminControl.sol\":2079:2202  {... */\n      pop\n        /* \"contracts/contracts/ff-mp/deps/AdminControl.sol\":2029:2202  function withdrawAll(address to) public onlyOwner {... */\n      pop\n      jump\t// out\n        /* \"@openzeppelin/contracts/utils/introspection/ERC165.sol\":829:984  function supportsInterface(bytes4 interfaceId) public view virtual override returns (bool) {... */\n    tag_115:\n        /* \"@openzeppelin/contracts/utils/introspection/ERC165.sol\":914:918  bool */\n      0x00\n        /* \"@openzeppelin/contracts/utils/introspection/ERC165.sol\":952:977  type(IERC165).interfaceId */\n      0x01ffc9a700000000000000000000000000000000000000000000000000000000\n        /* \"@openzeppelin/contracts/utils/introspection/ERC165.sol\":937:977  interfaceId == type(IERC165).interfaceId */\n      not(0xffffffffffffffffffffffffffffffffffffffffffffffffffffffff)\n      and\n        /* \"@openzeppelin/contracts/utils/introspection/ERC165.sol\":937:948  interfaceId */\n      dup3\n        /* \"@openzeppelin/contracts/utils/introspection/ERC165.sol\":937:977  interfaceId == type(IERC165).interfaceId */\n      not(0xffffffffffffffffffffffffffffffffffffffffffffffffffffffff)\n      and\n      eq\n        /* \"@openzeppelin/contracts/utils/introspection/ERC165.sol\":930:977  return interfaceId == type(IERC165).interfaceId */\n      swap1\n      pop\n        /* \"@openzeppelin/contracts/utils/introspection/ERC165.sol\":829:984  function supportsInterface(bytes4 interfaceId) public view virtual override returns (bool) {... */\n      swap2\n      swap1\n      pop\n      jump\t// out\n        /* \"@openzeppelin/contracts/utils/Counters.sol\":827:939  function current(Counter storage counter) internal view returns (uint256) {... */\n    tag_118:\n        /* \"@openzeppelin/contracts/utils/Counters.sol\":892:899  uint256 */\n      0x00\n        /* \"@openzeppelin/contracts/utils/Counters.sol\":918:925  counter */\n      dup2\n        /* \"@openzeppelin/contracts/utils/Counters.sol\":918:932  counter._value */\n      0x00\n      add\n      sload\n        /* \"@openzeppelin/contracts/utils/Counters.sol\":911:932  return counter._value */\n      swap1\n      pop\n        /* \"@openzeppelin/contracts/utils/Counters.sol\":827:939  function current(Counter storage counter) internal view returns (uint256) {... */\n      swap2\n      swap1\n      pop\n      jump\t// out\n        /* \"@openzeppelin/contracts-upgradeable/access/OwnableUpgradeable.sol\":1599:1729  function _checkOwner() internal view virtual {... */\n    tag_141:\n        /* \"@openzeppelin/contracts-upgradeable/access/OwnableUpgradeable.sol\":1673:1685  _msgSender() */\n      tag_320\n        /* \"@openzeppelin/contracts-upgradeable/access/OwnableUpgradeable.sol\":1673:1683  _msgSender */\n      tag_321\n        /* \"@openzeppelin/contracts-upgradeable/access/OwnableUpgradeable.sol\":1673:1685  _msgSender() */\n      jump\t// in\n    tag_320:\n        /* \"@openzeppelin/contracts-upgradeable/access/OwnableUpgradeable.sol\":1662:1685  owner() == _msgSender() */\n      0xffffffffffffffffffffffffffffffffffffffff\n      and\n        /* \"@openzeppelin/contracts-upgradeable/access/OwnableUpgradeable.sol\":1662:1669  owner() */\n      tag_322\n        /* \"@openzeppelin/contracts-upgradeable/access/OwnableUpgradeable.sol\":1662:1667  owner */\n      tag_90\n        /* \"@openzeppelin/contracts-upgradeable/access/OwnableUpgradeable.sol\":1662:1669  owner() */\n      jump\t// in\n    tag_322:\n        /* \"@openzeppelin/contracts-upgradeable/access/OwnableUpgradeable.sol\":1662:1685  owner() == _msgSender() */\n      0xffffffffffffffffffffffffffffffffffffffff\n      and\n      eq\n        /* \"@openzeppelin/contracts-upgradeable/access/OwnableUpgradeable.sol\":1654:1722  require(owner() == _msgSender(), \"Ownable: caller is not the owner\") */\n      tag_323\n      jumpi\n      mload(0x40)\n      0x08c379a000000000000000000000000000000000000000000000000000000000\n      dup2\n      mstore\n      0x04\n      add\n      tag_324\n      swap1\n      tag_325\n      jump\t// in\n    tag_324:\n      mload(0x40)\n      dup1\n      swap2\n      sub\n      swap1\n      revert\n    tag_323:\n        /* \"@openzeppelin/contracts-upgradeable/access/OwnableUpgradeable.sol\":1599:1729  function _checkOwner() internal view virtual {... */\n      jump\t// out\n        /* \"@openzeppelin/contracts-upgradeable/utils/structs/EnumerableSetUpgradeable.sol\":8871:9036  function contains(AddressSet storage set, address value) internal view returns (bool) {... */\n    tag_166:\n        /* \"@openzeppelin/contracts-upgradeable/utils/structs/EnumerableSetUpgradeable.sol\":8951:8955  bool */\n      0x00\n        /* \"@openzeppelin/contracts-upgradeable/utils/structs/EnumerableSetUpgradeable.sol\":8974:9029  _contains(set._inner, bytes32(uint256(uint160(value)))) */\n      tag_327\n        /* \"@openzeppelin/contracts-upgradeable/utils/structs/EnumerableSetUpgradeable.sol\":8984:8987  set */\n      dup4\n        /* \"@openzeppelin/contracts-upgradeable/utils/structs/EnumerableSetUpgradeable.sol\":8984:8994  set._inner */\n      0x00\n      add\n        /* \"@openzeppelin/contracts-upgradeable/utils/structs/EnumerableSetUpgradeable.sol\":9020:9025  value */\n      dup4\n        /* \"@openzeppelin/contracts-upgradeable/utils/structs/EnumerableSetUpgradeable.sol\":9004:9027  uint256(uint160(value)) */\n      0xffffffffffffffffffffffffffffffffffffffff\n      and\n        /* \"@openzeppelin/contracts-upgradeable/utils/structs/EnumerableSetUpgradeable.sol\":8996:9028  bytes32(uint256(uint160(value))) */\n      0x00\n      shl\n        /* \"@openzeppelin/contracts-upgradeable/utils/structs/EnumerableSetUpgradeable.sol\":8974:8983  _contains */\n      tag_328\n        /* \"@openzeppelin/contracts-upgradeable/utils/structs/EnumerableSetUpgradeable.sol\":8974:9029  _contains(set._inner, bytes32(uint256(uint160(value)))) */\n      jump\t// in\n    tag_327:\n        /* \"@openzeppelin/contracts-upgradeable/utils/structs/EnumerableSetUpgradeable.sol\":8967:9029  return _contains(set._inner, bytes32(uint256(uint160(value)))) */\n      swap1\n      pop\n        /* \"@openzeppelin/contracts-upgradeable/utils/structs/EnumerableSetUpgradeable.sol\":8871:9036  function contains(AddressSet storage set, address value) internal view returns (bool) {... */\n      swap3\n      swap2\n      pop\n      pop\n      jump\t// out\n        /* \"@openzeppelin/contracts-upgradeable/utils/structs/EnumerableSetUpgradeable.sol\":8634:8790  function remove(AddressSet storage set, address value) internal returns (bool) {... */\n    tag_173:\n        /* \"@openzeppelin/contracts-upgradeable/utils/structs/EnumerableSetUpgradeable.sol\":8707:8711  bool */\n      0x00\n        /* \"@openzeppelin/contracts-upgradeable/utils/structs/EnumerableSetUpgradeable.sol\":8730:8783  _remove(set._inner, bytes32(uint256(uint160(value)))) */\n      tag_330\n        /* \"@openzeppelin/contracts-upgradeable/utils/structs/EnumerableSetUpgradeable.sol\":8738:8741  set */\n      dup4\n        /* \"@openzeppelin/contracts-upgradeable/utils/structs/EnumerableSetUpgradeable.sol\":8738:8748  set._inner */\n      0x00\n      add\n        /* \"@openzeppelin/contracts-upgradeable/utils/structs/EnumerableSetUpgradeable.sol\":8774:8779  value */\n      dup4\n        /* \"@openzeppelin/contracts-upgradeable/utils/structs/EnumerableSetUpgradeable.sol\":8758:8781  uint256(uint160(value)) */\n      0xffffffffffffffffffffffffffffffffffffffff\n      and\n        /* \"@openzeppelin/contracts-upgradeable/utils/structs/EnumerableSetUpgradeable.sol\":8750:8782  bytes32(uint256(uint160(value))) */\n      0x00\n      shl\n        /* \"@openzeppelin/contracts-upgradeable/utils/structs/EnumerableSetUpgradeable.sol\":8730:8737  _remove */\n      tag_331\n        /* \"@openzeppelin/contracts-upgradeable/utils/structs/EnumerableSetUpgradeable.sol\":8730:8783  _remove(set._inner, bytes32(uint256(uint160(value)))) */\n      jump\t// in\n    tag_330:\n        /* \"@openzeppelin/contracts-upgradeable/utils/structs/EnumerableSetUpgradeable.sol\":8723:8783  return _remove(set._inner, bytes32(uint256(uint160(value)))) */\n      swap1\n      pop\n        /* \"@openzeppelin/contracts-upgradeable/utils/structs/EnumerableSetUpgradeable.sol\":8634:8790  function remove(AddressSet storage set, address value) internal returns (bool) {... */\n      swap3\n      swap2\n      pop\n      pop\n      jump\t// out\n        /* \"@openzeppelin/contracts-upgradeable/utils/structs/EnumerableSetUpgradeable.sol\":9117:9232  function length(AddressSet storage set) internal view returns (uint256) {... */\n    tag_176:\n        /* \"@openzeppelin/contracts-upgradeable/utils/structs/EnumerableSetUpgradeable.sol\":9180:9187  uint256 */\n      0x00\n        /* \"@openzeppelin/contracts-upgradeable/utils/structs/EnumerableSetUpgradeable.sol\":9206:9225  _length(set._inner) */\n      tag_333\n        /* \"@openzeppelin/contracts-upgradeable/utils/structs/EnumerableSetUpgradeable.sol\":9214:9217  set */\n      dup3\n        /* \"@openzeppelin/contracts-upgradeable/utils/structs/EnumerableSetUpgradeable.sol\":9214:9224  set._inner */\n      0x00\n      add\n        /* \"@openzeppelin/contracts-upgradeable/utils/structs/EnumerableSetUpgradeable.sol\":9206:9213  _length */\n      tag_334\n        /* \"@openzeppelin/contracts-upgradeable/utils/structs/EnumerableSetUpgradeable.sol\":9206:9225  _length(set._inner) */\n      jump\t// in\n    tag_333:\n        /* \"@openzeppelin/contracts-upgradeable/utils/structs/EnumerableSetUpgradeable.sol\":9199:9225  return _length(set._inner) */\n      swap1\n      pop\n        /* \"@openzeppelin/contracts-upgradeable/utils/structs/EnumerableSetUpgradeable.sol\":9117:9232  function length(AddressSet storage set) internal view returns (uint256) {... */\n      swap2\n      swap1\n      pop\n      jump\t// out\n        /* \"@openzeppelin/contracts-upgradeable/utils/structs/EnumerableSetUpgradeable.sol\":9574:9730  function at(AddressSet storage set, uint256 index) internal view returns (address) {... */\n    tag_185:\n        /* \"@openzeppelin/contracts-upgradeable/utils/structs/EnumerableSetUpgradeable.sol\":9648:9655  address */\n      0x00\n        /* \"@openzeppelin/contracts-upgradeable/utils/structs/EnumerableSetUpgradeable.sol\":9698:9720  _at(set._inner, index) */\n      tag_336\n        /* \"@openzeppelin/contracts-upgradeable/utils/structs/EnumerableSetUpgradeable.sol\":9702:9705  set */\n      dup4\n        /* \"@openzeppelin/contracts-upgradeable/utils/structs/EnumerableSetUpgradeable.sol\":9702:9712  set._inner */\n      0x00\n      add\n        /* \"@openzeppelin/contracts-upgradeable/utils/structs/EnumerableSetUpgradeable.sol\":9714:9719  index */\n      dup4\n        /* \"@openzeppelin/contracts-upgradeable/utils/structs/EnumerableSetUpgradeable.sol\":9698:9701  _at */\n      tag_337\n        /* \"@openzeppelin/contracts-upgradeable/utils/structs/EnumerableSetUpgradeable.sol\":9698:9720  _at(set._inner, index) */\n      jump\t// in\n    tag_336:\n        /* \"@openzeppelin/contracts-upgradeable/utils/structs/EnumerableSetUpgradeable.sol\":9690:9721  uint256(_at(set._inner, index)) */\n      0x00\n      shr\n        /* \"@openzeppelin/contracts-upgradeable/utils/structs/EnumerableSetUpgradeable.sol\":9667:9723  return address(uint160(uint256(_at(set._inner, index)))) */\n      swap1\n      pop\n        /* \"@openzeppelin/contracts-upgradeable/utils/structs/EnumerableSetUpgradeable.sol\":9574:9730  function at(AddressSet storage set, uint256 index) internal view returns (address) {... */\n      swap3\n      swap2\n      pop\n      pop\n      jump\t// out\n        /* \"@openzeppelin/contracts-upgradeable/utils/structs/EnumerableSetUpgradeable.sol\":8316:8466  function add(AddressSet storage set, address value) internal returns (bool) {... */\n    tag_197:\n        /* \"@openzeppelin/contracts-upgradeable/utils/structs/EnumerableSetUpgradeable.sol\":8386:8390  bool */\n      0x00\n        /* \"@openzeppelin/contracts-upgradeable/utils/structs/EnumerableSetUpgradeable.sol\":8409:8459  _add(set._inner, bytes32(uint256(uint160(value)))) */\n      tag_339\n        /* \"@openzeppelin/contracts-upgradeable/utils/structs/EnumerableSetUpgradeable.sol\":8414:8417  set */\n      dup4\n        /* \"@openzeppelin/contracts-upgradeable/utils/structs/EnumerableSetUpgradeable.sol\":8414:8424  set._inner */\n      0x00\n      add\n        /* \"@openzeppelin/contracts-upgradeable/utils/structs/EnumerableSetUpgradeable.sol\":8450:8455  value */\n      dup4\n        /* \"@openzeppelin/contracts-upgradeable/utils/structs/EnumerableSetUpgradeable.sol\":8434:8457  uint256(uint160(value)) */\n      0xffffffffffffffffffffffffffffffffffffffff\n      and\n        /* \"@openzeppelin/contracts-upgradeable/utils/structs/EnumerableSetUpgradeable.sol\":8426:8458  bytes32(uint256(uint160(value))) */\n      0x00\n      shl\n        /* \"@openzeppelin/contracts-upgradeable/utils/structs/EnumerableSetUpgradeable.sol\":8409:8413  _add */\n      tag_340\n        /* \"@openzeppelin/contracts-upgradeable/utils/structs/EnumerableSetUpgradeable.sol\":8409:8459  _add(set._inner, bytes32(uint256(uint160(value)))) */\n      jump\t// in\n    tag_339:\n        /* \"@openzeppelin/contracts-upgradeable/utils/structs/EnumerableSetUpgradeable.sol\":8402:8459  return _add(set._inner, bytes32(uint256(uint160(value)))) */\n      swap1\n      pop\n        /* \"@openzeppelin/contracts-upgradeable/utils/structs/EnumerableSetUpgradeable.sol\":8316:8466  function add(AddressSet storage set, address value) internal returns (bool) {... */\n      swap3\n      swap2\n      pop\n      pop\n      jump\t// out\n        /* \"@openzeppelin/contracts-upgradeable/access/OwnableUpgradeable.sol\":2666:2853  function _transferOwnership(address newOwner) internal virtual {... */\n    tag_202:\n        /* \"@openzeppelin/contracts-upgradeable/access/OwnableUpgradeable.sol\":2739:2755  address oldOwner */\n      0x00\n        /* \"@openzeppelin/contracts-upgradeable/access/OwnableUpgradeable.sol\":2758:2764  _owner */\n      0x33\n      0x00\n      swap1\n      sload\n      swap1\n      0x0100\n      exp\n      swap1\n      div\n      0xffffffffffffffffffffffffffffffffffffffff\n      and\n        /* \"@openzeppelin/contracts-upgradeable/access/OwnableUpgradeable.sol\":2739:2764  address oldOwner = _owner */\n      swap1\n      pop\n        /* \"@openzeppelin/contracts-upgradeable/access/OwnableUpgradeable.sol\":2783:2791  newOwner */\n      dup2\n        /* \"@openzeppelin/contracts-upgradeable/access/OwnableUpgradeable.sol\":2774:2780  _owner */\n      0x33\n      0x00\n        /* \"@openzeppelin/contracts-upgradeable/access/OwnableUpgradeable.sol\":2774:2791  _owner = newOwner */\n      0x0100\n      exp\n      dup2\n      sload\n      dup2\n      0xffffffffffffffffffffffffffffffffffffffff\n      mul\n      not\n      and\n      swap1\n      dup4\n      0xffffffffffffffffffffffffffffffffffffffff\n      and\n      mul\n      or\n      swap1\n      sstore\n      pop\n        /* \"@openzeppelin/contracts-upgradeable/access/OwnableUpgradeable.sol\":2837:2845  newOwner */\n      dup2\n        /* \"@openzeppelin/contracts-upgradeable/access/OwnableUpgradeable.sol\":2806:2846  OwnershipTransferred(oldOwner, newOwner) */\n      0xffffffffffffffffffffffffffffffffffffffff\n      and\n        /* \"@openzeppelin/contracts-upgradeable/access/OwnableUpgradeable.sol\":2827:2835  oldOwner */\n      dup2\n        /* \"@openzeppelin/contracts-upgradeable/access/OwnableUpgradeable.sol\":2806:2846  OwnershipTransferred(oldOwner, newOwner) */\n      0xffffffffffffffffffffffffffffffffffffffff\n      and\n      0x8be0079c531659141344cd1fd0a4f28419497f9722a3daafe3b4186f6b6457e0\n      mload(0x40)\n      mload(0x40)\n      dup1\n      swap2\n      sub\n      swap1\n      log3\n        /* \"@openzeppelin/contracts-upgradeable/access/OwnableUpgradeable.sol\":2729:2853  {... */\n      pop\n        /* \"@openzeppelin/contracts-upgradeable/access/OwnableUpgradeable.sol\":2666:2853  function _transferOwnership(address newOwner) internal virtual {... */\n      pop\n      jump\t// out\n        /* \"@openzeppelin/contracts-upgradeable/utils/AddressUpgradeable.sol\":1423:1743  function isContract(address account) internal view returns (bool) {... */\n    tag_207:\n        /* \"@openzeppelin/contracts-upgradeable/utils/AddressUpgradeable.sol\":1483:1487  bool */\n      0x00\n        /* \"@openzeppelin/contracts-upgradeable/utils/AddressUpgradeable.sol\":1735:1736  0 */\n      dup1\n        /* \"@openzeppelin/contracts-upgradeable/utils/AddressUpgradeable.sol\":1713:1720  account */\n      dup3\n        /* \"@openzeppelin/contracts-upgradeable/utils/AddressUpgradeable.sol\":1713:1732  account.code.length */\n      0xffffffffffffffffffffffffffffffffffffffff\n      and\n      extcodesize\n        /* \"@openzeppelin/contracts-upgradeable/utils/AddressUpgradeable.sol\":1713:1736  account.code.length > 0 */\n      gt\n        /* \"@openzeppelin/contracts-upgradeable/utils/AddressUpgradeable.sol\":1706:1736  return account.code.length > 0 */\n      swap1\n      pop\n        /* \"@openzeppelin/contracts-upgradeable/utils/AddressUpgradeable.sol\":1423:1743  function isContract(address account) internal view returns (bool) {... */\n      swap2\n      swap1\n      pop\n      jump\t// out\n        /* \"@openzeppelin/contracts-upgradeable/access/OwnableUpgradeable.sol\":1003:1098  function __Ownable_init() internal onlyInitializing {... */\n    tag_215:\n        /* \"@openzeppelin/contracts-upgradeable/proxy/utils/Initializable.sol\":5374:5387  _initializing */\n      0x00\n      0x01\n      swap1\n      sload\n      swap1\n      0x0100\n      exp\n      swap1\n      div\n      0xff\n      and\n        /* \"@openzeppelin/contracts-upgradeable/proxy/utils/Initializable.sol\":5366:5435  require(_initializing, \"Initializable: contract is not initializing\") */\n      tag_344\n      jumpi\n      mload(0x40)\n      0x08c379a000000000000000000000000000000000000000000000000000000000\n      dup2\n      mstore\n      0x04\n      add\n      tag_345\n      swap1\n      tag_346\n      jump\t// in\n    tag_345:\n      mload(0x40)\n      dup1\n      swap2\n      sub\n      swap1\n      revert\n    tag_344:\n        /* \"@openzeppelin/contracts-upgradeable/access/OwnableUpgradeable.sol\":1065:1091  __Ownable_init_unchained() */\n      tag_348\n        /* \"@openzeppelin/contracts-upgradeable/access/OwnableUpgradeable.sol\":1065:1089  __Ownable_init_unchained */\n      tag_349\n        /* \"@openzeppelin/contracts-upgradeable/access/OwnableUpgradeable.sol\":1065:1091  __Ownable_init_unchained() */\n      jump\t// in\n    tag_348:\n        /* \"@openzeppelin/contracts-upgradeable/access/OwnableUpgradeable.sol\":1003:1098  function __Ownable_init() internal onlyInitializing {... */\n      jump\t// out\n        /* \"@openzeppelin/contracts/utils/Counters.sol\":945:1068  function increment(Counter storage counter) internal {... */\n    tag_244:\n        /* \"@openzeppelin/contracts/utils/Counters.sol\":1050:1051  1 */\n      0x01\n        /* \"@openzeppelin/contracts/utils/Counters.sol\":1032:1039  counter */\n      dup2\n        /* \"@openzeppelin/contracts/utils/Counters.sol\":1032:1046  counter._value */\n      0x00\n      add\n      0x00\n        /* \"@openzeppelin/contracts/utils/Counters.sol\":1032:1051  counter._value += 1 */\n      dup3\n      dup3\n      sload\n      add\n      swap3\n      pop\n      pop\n      dup2\n      swap1\n      sstore\n      pop\n        /* \"@openzeppelin/contracts/utils/Counters.sol\":945:1068  function increment(Counter storage counter) internal {... */\n      pop\n      jump\t// out\n        /* \"@openzeppelin/contracts/security/ReentrancyGuard.sol\":2336:2623  function _nonReentrantBefore() private {... */\n    tag_255:\n        /* \"@openzeppelin/contracts/security/ReentrancyGuard.sol\":1759:1760  2 */\n      0x02\n        /* \"@openzeppelin/contracts/security/ReentrancyGuard.sol\":2468:2475  _status */\n      sload(0x65)\n        /* \"@openzeppelin/contracts/security/ReentrancyGuard.sol\":2468:2487  _status != _ENTERED */\n      sub\n        /* \"@openzeppelin/contracts/security/ReentrancyGuard.sol\":2460:2523  require(_status != _ENTERED, \"ReentrancyGuard: reentrant call\") */\n      tag_352\n      jumpi\n      mload(0x40)\n      0x08c379a000000000000000000000000000000000000000000000000000000000\n      dup2\n      mstore\n      0x04\n      add\n      tag_353\n      swap1\n      tag_354\n      jump\t// in\n    tag_353:\n      mload(0x40)\n      dup1\n      swap2\n      sub\n      swap1\n      revert\n    tag_352:\n        /* \"@openzeppelin/contracts/security/ReentrancyGuard.sol\":1759:1760  2 */\n      0x02\n        /* \"@openzeppelin/contracts/security/ReentrancyGuard.sol\":2598:2605  _status */\n      0x65\n        /* \"@openzeppelin/contracts/security/ReentrancyGuard.sol\":2598:2616  _status = _ENTERED */\n      dup2\n      swap1\n      sstore\n      pop\n        /* \"@openzeppelin/contracts/security/ReentrancyGuard.sol\":2336:2623  function _nonReentrantBefore() private {... */\n      jump\t// out\n        /* \"@openzeppelin/contracts/security/ReentrancyGuard.sol\":2629:2838  function _nonReentrantAfter() private {... */\n    tag_277:\n        /* \"@openzeppelin/contracts/security/ReentrancyGuard.sol\":1716:1717  1 */\n      0x01\n        /* \"@openzeppelin/contracts/security/ReentrancyGuard.sol\":2809:2816  _status */\n      0x65\n        /* \"@openzeppelin/contracts/security/ReentrancyGuard.sol\":2809:2831  _status = _NOT_ENTERED */\n      dup2\n      swap1\n      sstore\n      pop\n        /* \"@openzeppelin/contracts/security/ReentrancyGuard.sol\":2629:2838  function _nonReentrantAfter() private {... */\n      jump\t// out\n        /* \"contracts/contracts/ff-mp/deps/AdminControl.sol\":2208:2379  function _widthdraw(address _address, uint256 _amount) private {... */\n    tag_316:\n        /* \"contracts/contracts/ff-mp/deps/AdminControl.sol\":2279:2291  bool success */\n      0x00\n        /* \"contracts/contracts/ff-mp/deps/AdminControl.sol\":2297:2305  _address */\n      dup3\n        /* \"contracts/contracts/ff-mp/deps/AdminControl.sol\":2297:2310  _address.call */\n      0xffffffffffffffffffffffffffffffffffffffff\n      and\n        /* \"contracts/contracts/ff-mp/deps/AdminControl.sol\":2318:2325  _amount */\n      dup3\n        /* \"contracts/contracts/ff-mp/deps/AdminControl.sol\":2297:2330  _address.call{value: _amount}(\"\") */\n      mload(0x40)\n      tag_357\n      swap1\n      tag_358\n      jump\t// in\n    tag_357:\n      0x00\n      mload(0x40)\n      dup1\n      dup4\n      sub\n      dup2\n      dup6\n      dup8\n      gas\n      call\n      swap3\n      pop\n      pop\n      pop\n      returndatasize\n      dup1\n      0x00\n      dup2\n      eq\n      tag_361\n      jumpi\n      mload(0x40)\n      swap2\n      pop\n      and(add(returndatasize, 0x3f), not(0x1f))\n      dup3\n      add\n      0x40\n      mstore\n      returndatasize\n      dup3\n      mstore\n      returndatasize\n      0x00\n      0x20\n      dup5\n      add\n      returndatacopy\n      jump(tag_360)\n    tag_361:\n      0x60\n      swap2\n      pop\n    tag_360:\n      pop\n        /* \"contracts/contracts/ff-mp/deps/AdminControl.sol\":2278:2330  (bool success, ) = _address.call{value: _amount}(\"\") */\n      pop\n      swap1\n      pop\n        /* \"contracts/contracts/ff-mp/deps/AdminControl.sol\":2345:2352  success */\n      dup1\n        /* \"contracts/contracts/ff-mp/deps/AdminControl.sol\":2337:2373  require(success, \"Transfer failed.\") */\n      tag_362\n      jumpi\n      mload(0x40)\n      0x08c379a000000000000000000000000000000000000000000000000000000000\n      dup2\n      mstore\n      0x04\n      add\n      tag_363\n      swap1\n      tag_364\n      jump\t// in\n    tag_363:\n      mload(0x40)\n      dup1\n      swap2\n      sub\n      swap1\n      revert\n    tag_362:\n        /* \"contracts/contracts/ff-mp/deps/AdminControl.sol\":2271:2379  {... */\n      pop\n        /* \"contracts/contracts/ff-mp/deps/AdminControl.sol\":2208:2379  function _widthdraw(address _address, uint256 _amount) private {... */\n      pop\n      pop\n      jump\t// out\n        /* \"@openzeppelin/contracts-upgradeable/utils/ContextUpgradeable.sol\":850:946  function _msgSender() internal view virtual returns (address) {... */\n    tag_321:\n        /* \"@openzeppelin/contracts-upgradeable/utils/ContextUpgradeable.sol\":903:910  address */\n      0x00\n        /* \"@openzeppelin/contracts-upgradeable/utils/ContextUpgradeable.sol\":929:939  msg.sender */\n      caller\n        /* \"@openzeppelin/contracts-upgradeable/utils/ContextUpgradeable.sol\":922:939  return msg.sender */\n      swap1\n      pop\n        /* \"@openzeppelin/contracts-upgradeable/utils/ContextUpgradeable.sol\":850:946  function _msgSender() internal view virtual returns (address) {... */\n      swap1\n      jump\t// out\n        /* \"@openzeppelin/contracts-upgradeable/utils/structs/EnumerableSetUpgradeable.sol\":4266:4393  function _contains(Set storage set, bytes32 value) private view returns (bool) {... */\n    tag_328:\n        /* \"@openzeppelin/contracts-upgradeable/utils/structs/EnumerableSetUpgradeable.sol\":4339:4343  bool */\n      0x00\n        /* \"@openzeppelin/contracts-upgradeable/utils/structs/EnumerableSetUpgradeable.sol\":4385:4386  0 */\n      dup1\n        /* \"@openzeppelin/contracts-upgradeable/utils/structs/EnumerableSetUpgradeable.sol\":4362:4365  set */\n      dup4\n        /* \"@openzeppelin/contracts-upgradeable/utils/structs/EnumerableSetUpgradeable.sol\":4362:4374  set._indexes */\n      0x01\n      add\n        /* \"@openzeppelin/contracts-upgradeable/utils/structs/EnumerableSetUpgradeable.sol\":4362:4381  set._indexes[value] */\n      0x00\n        /* \"@openzeppelin/contracts-upgradeable/utils/structs/EnumerableSetUpgradeable.sol\":4375:4380  value */\n      dup5\n        /* \"@openzeppelin/contracts-upgradeable/utils/structs/EnumerableSetUpgradeable.sol\":4362:4381  set._indexes[value] */\n      dup2\n      mstore\n      0x20\n      add\n      swap1\n      dup2\n      mstore\n      0x20\n      add\n      0x00\n      keccak256\n      sload\n        /* \"@openzeppelin/contracts-upgradeable/utils/structs/EnumerableSetUpgradeable.sol\":4362:4386  set._indexes[value] != 0 */\n      eq\n      iszero\n        /* \"@openzeppelin/contracts-upgradeable/utils/structs/EnumerableSetUpgradeable.sol\":4355:4386  return set._indexes[value] != 0 */\n      swap1\n      pop\n        /* \"@openzeppelin/contracts-upgradeable/utils/structs/EnumerableSetUpgradeable.sol\":4266:4393  function _contains(Set storage set, bytes32 value) private view returns (bool) {... */\n      swap3\n      swap2\n      pop\n      pop\n      jump\t// out\n        /* \"@openzeppelin/contracts-upgradeable/utils/structs/EnumerableSetUpgradeable.sol\":2797:4185  function _remove(Set storage set, bytes32 value) private returns (bool) {... */\n    tag_331:\n        /* \"@openzeppelin/contracts-upgradeable/utils/structs/EnumerableSetUpgradeable.sol\":2863:2867  bool */\n      0x00\n        /* \"@openzeppelin/contracts-upgradeable/utils/structs/EnumerableSetUpgradeable.sol\":2979:2997  uint256 valueIndex */\n      dup1\n        /* \"@openzeppelin/contracts-upgradeable/utils/structs/EnumerableSetUpgradeable.sol\":3000:3003  set */\n      dup4\n        /* \"@openzeppelin/contracts-upgradeable/utils/structs/EnumerableSetUpgradeable.sol\":3000:3012  set._indexes */\n      0x01\n      add\n        /* \"@openzeppelin/contracts-upgradeable/utils/structs/EnumerableSetUpgradeable.sol\":3000:3019  set._indexes[value] */\n      0x00\n        /* \"@openzeppelin/contracts-upgradeable/utils/structs/EnumerableSetUpgradeable.sol\":3013:3018  value */\n      dup5\n        /* \"@openzeppelin/contracts-upgradeable/utils/structs/EnumerableSetUpgradeable.sol\":3000:3019  set._indexes[value] */\n      dup2\n      mstore\n      0x20\n      add\n      swap1\n      dup2\n      mstore\n      0x20\n      add\n      0x00\n      keccak256\n      sload\n        /* \"@openzeppelin/contracts-upgradeable/utils/structs/EnumerableSetUpgradeable.sol\":2979:3019  uint256 valueIndex = set._indexes[value] */\n      swap1\n      pop\n        /* \"@openzeppelin/contracts-upgradeable/utils/structs/EnumerableSetUpgradeable.sol\":3048:3049  0 */\n      0x00\n        /* \"@openzeppelin/contracts-upgradeable/utils/structs/EnumerableSetUpgradeable.sol\":3034:3044  valueIndex */\n      dup2\n        /* \"@openzeppelin/contracts-upgradeable/utils/structs/EnumerableSetUpgradeable.sol\":3034:3049  valueIndex != 0 */\n      eq\n        /* \"@openzeppelin/contracts-upgradeable/utils/structs/EnumerableSetUpgradeable.sol\":3030:4179  if (valueIndex != 0) {... */\n      tag_368\n      jumpi\n        /* \"@openzeppelin/contracts-upgradeable/utils/structs/EnumerableSetUpgradeable.sol\":3403:3424  uint256 toDeleteIndex */\n      0x00\n        /* \"@openzeppelin/contracts-upgradeable/utils/structs/EnumerableSetUpgradeable.sol\":3440:3441  1 */\n      0x01\n        /* \"@openzeppelin/contracts-upgradeable/utils/structs/EnumerableSetUpgradeable.sol\":3427:3437  valueIndex */\n      dup3\n        /* \"@openzeppelin/contracts-upgradeable/utils/structs/EnumerableSetUpgradeable.sol\":3427:3441  valueIndex - 1 */\n      tag_369\n      swap2\n      swap1\n      tag_147\n      jump\t// in\n    tag_369:\n        /* \"@openzeppelin/contracts-upgradeable/utils/structs/EnumerableSetUpgradeable.sol\":3403:3441  uint256 toDeleteIndex = valueIndex - 1 */\n      swap1\n      pop\n        /* \"@openzeppelin/contracts-upgradeable/utils/structs/EnumerableSetUpgradeable.sol\":3455:3472  uint256 lastIndex */\n      0x00\n        /* \"@openzeppelin/contracts-upgradeable/utils/structs/EnumerableSetUpgradeable.sol\":3496:3497  1 */\n      0x01\n        /* \"@openzeppelin/contracts-upgradeable/utils/structs/EnumerableSetUpgradeable.sol\":3475:3478  set */\n      dup7\n        /* \"@openzeppelin/contracts-upgradeable/utils/structs/EnumerableSetUpgradeable.sol\":3475:3486  set._values */\n      0x00\n      add\n        /* \"@openzeppelin/contracts-upgradeable/utils/structs/EnumerableSetUpgradeable.sol\":3475:3493  set._values.length */\n      dup1\n      sload\n      swap1\n      pop\n        /* \"@openzeppelin/contracts-upgradeable/utils/structs/EnumerableSetUpgradeable.sol\":3475:3497  set._values.length - 1 */\n      tag_370\n      swap2\n      swap1\n      tag_147\n      jump\t// in\n    tag_370:\n        /* \"@openzeppelin/contracts-upgradeable/utils/structs/EnumerableSetUpgradeable.sol\":3455:3497  uint256 lastIndex = set._values.length - 1 */\n      swap1\n      pop\n        /* \"@openzeppelin/contracts-upgradeable/utils/structs/EnumerableSetUpgradeable.sol\":3529:3542  toDeleteIndex */\n      dup2\n        /* \"@openzeppelin/contracts-upgradeable/utils/structs/EnumerableSetUpgradeable.sol\":3516:3525  lastIndex */\n      dup2\n        /* \"@openzeppelin/contracts-upgradeable/utils/structs/EnumerableSetUpgradeable.sol\":3516:3542  lastIndex != toDeleteIndex */\n      eq\n        /* \"@openzeppelin/contracts-upgradeable/utils/structs/EnumerableSetUpgradeable.sol\":3512:3910  if (lastIndex != toDeleteIndex) {... */\n      tag_371\n      jumpi\n        /* \"@openzeppelin/contracts-upgradeable/utils/structs/EnumerableSetUpgradeable.sol\":3562:3579  bytes32 lastValue */\n      0x00\n        /* \"@openzeppelin/contracts-upgradeable/utils/structs/EnumerableSetUpgradeable.sol\":3582:3585  set */\n      dup7\n        /* \"@openzeppelin/contracts-upgradeable/utils/structs/EnumerableSetUpgradeable.sol\":3582:3593  set._values */\n      0x00\n      add\n        /* \"@openzeppelin/contracts-upgradeable/utils/structs/EnumerableSetUpgradeable.sol\":3594:3603  lastIndex */\n      dup3\n        /* \"@openzeppelin/contracts-upgradeable/utils/structs/EnumerableSetUpgradeable.sol\":3582:3604  set._values[lastIndex] */\n      dup2\n      sload\n      dup2\n      lt\n      tag_372\n      jumpi\n      tag_373\n      tag_134\n      jump\t// in\n    tag_373:\n    tag_372:\n      swap1\n      0x00\n      mstore\n      keccak256(0x00, 0x20)\n      add\n      sload\n        /* \"@openzeppelin/contracts-upgradeable/utils/structs/EnumerableSetUpgradeable.sol\":3562:3604  bytes32 lastValue = set._values[lastIndex] */\n      swap1\n      pop\n        /* \"@openzeppelin/contracts-upgradeable/utils/structs/EnumerableSetUpgradeable.sol\":3733:3742  lastValue */\n      dup1\n        /* \"@openzeppelin/contracts-upgradeable/utils/structs/EnumerableSetUpgradeable.sol\":3704:3707  set */\n      dup8\n        /* \"@openzeppelin/contracts-upgradeable/utils/structs/EnumerableSetUpgradeable.sol\":3704:3715  set._values */\n      0x00\n      add\n        /* \"@openzeppelin/contracts-upgradeable/utils/structs/EnumerableSetUpgradeable.sol\":3716:3729  toDeleteIndex */\n      dup5\n        /* \"@openzeppelin/contracts-upgradeable/utils/structs/EnumerableSetUpgradeable.sol\":3704:3730  set._values[toDeleteIndex] */\n      dup2\n      sload\n      dup2\n      lt\n      tag_375\n      jumpi\n      tag_376\n      tag_134\n      jump\t// in\n    tag_376:\n    tag_375:\n      swap1\n      0x00\n      mstore\n      keccak256(0x00, 0x20)\n      add\n        /* \"@openzeppelin/contracts-upgradeable/utils/structs/EnumerableSetUpgradeable.sol\":3704:3742  set._values[toDeleteIndex] = lastValue */\n      dup2\n      swap1\n      sstore\n      pop\n        /* \"@openzeppelin/contracts-upgradeable/utils/structs/EnumerableSetUpgradeable.sol\":3842:3852  valueIndex */\n      dup4\n        /* \"@openzeppelin/contracts-upgradeable/utils/structs/EnumerableSetUpgradeable.sol\":3816:3819  set */\n      dup8\n        /* \"@openzeppelin/contracts-upgradeable/utils/structs/EnumerableSetUpgradeable.sol\":3816:3828  set._indexes */\n      0x01\n      add\n        /* \"@openzeppelin/contracts-upgradeable/utils/structs/EnumerableSetUpgradeable.sol\":3816:3839  set._indexes[lastValue] */\n      0x00\n        /* \"@openzeppelin/contracts-upgradeable/utils/structs/EnumerableSetUpgradeable.sol\":3829:3838  lastValue */\n      dup4\n        /* \"@openzeppelin/contracts-upgradeable/utils/structs/EnumerableSetUpgradeable.sol\":3816:3839  set._indexes[lastValue] */\n      dup2\n      mstore\n      0x20\n      add\n      swap1\n      dup2\n      mstore\n      0x20\n      add\n      0x00\n      keccak256\n        /* \"@openzeppelin/contracts-upgradeable/utils/structs/EnumerableSetUpgradeable.sol\":3816:3852  set._indexes[lastValue] = valueIndex */\n      dup2\n      swap1\n      sstore\n      pop\n        /* \"@openzeppelin/contracts-upgradeable/utils/structs/EnumerableSetUpgradeable.sol\":3544:3910  {... */\n      pop\n        /* \"@openzeppelin/contracts-upgradeable/utils/structs/EnumerableSetUpgradeable.sol\":3512:3910  if (lastIndex != toDeleteIndex) {... */\n    tag_371:\n        /* \"@openzeppelin/contracts-upgradeable/utils/structs/EnumerableSetUpgradeable.sol\":3988:3991  set */\n      dup6\n        /* \"@openzeppelin/contracts-upgradeable/utils/structs/EnumerableSetUpgradeable.sol\":3988:3999  set._values */\n      0x00\n      add\n        /* \"@openzeppelin/contracts-upgradeable/utils/structs/EnumerableSetUpgradeable.sol\":3988:4005  set._values.pop() */\n      dup1\n      sload\n      dup1\n      tag_378\n      jumpi\n      tag_379\n      tag_380\n      jump\t// in\n    tag_379:\n    tag_378:\n      0x01\n      swap1\n      sub\n      dup2\n      dup2\n      swap1\n      0x00\n      mstore\n      keccak256(0x00, 0x20)\n      add\n      0x00\n      swap1\n      sstore\n      swap1\n      sstore\n        /* \"@openzeppelin/contracts-upgradeable/utils/structs/EnumerableSetUpgradeable.sol\":4080:4083  set */\n      dup6\n        /* \"@openzeppelin/contracts-upgradeable/utils/structs/EnumerableSetUpgradeable.sol\":4080:4092  set._indexes */\n      0x01\n      add\n        /* \"@openzeppelin/contracts-upgradeable/utils/structs/EnumerableSetUpgradeable.sol\":4080:4099  set._indexes[value] */\n      0x00\n        /* \"@openzeppelin/contracts-upgradeable/utils/structs/EnumerableSetUpgradeable.sol\":4093:4098  value */\n      dup7\n        /* \"@openzeppelin/contracts-upgradeable/utils/structs/EnumerableSetUpgradeable.sol\":4080:4099  set._indexes[value] */\n      dup2\n      mstore\n      0x20\n      add\n      swap1\n      dup2\n      mstore\n      0x20\n      add\n      0x00\n      keccak256\n        /* \"@openzeppelin/contracts-upgradeable/utils/structs/EnumerableSetUpgradeable.sol\":4073:4099  delete set._indexes[value] */\n      0x00\n      swap1\n      sstore\n        /* \"@openzeppelin/contracts-upgradeable/utils/structs/EnumerableSetUpgradeable.sol\":4121:4125  true */\n      0x01\n        /* \"@openzeppelin/contracts-upgradeable/utils/structs/EnumerableSetUpgradeable.sol\":4114:4125  return true */\n      swap4\n      pop\n      pop\n      pop\n      pop\n      jump(tag_367)\n        /* \"@openzeppelin/contracts-upgradeable/utils/structs/EnumerableSetUpgradeable.sol\":3030:4179  if (valueIndex != 0) {... */\n    tag_368:\n        /* \"@openzeppelin/contracts-upgradeable/utils/structs/EnumerableSetUpgradeable.sol\":4163:4168  false */\n      0x00\n        /* \"@openzeppelin/contracts-upgradeable/utils/structs/EnumerableSetUpgradeable.sol\":4156:4168  return false */\n      swap2\n      pop\n      pop\n        /* \"@openzeppelin/contracts-upgradeable/utils/structs/EnumerableSetUpgradeable.sol\":2797:4185  function _remove(Set storage set, bytes32 value) private returns (bool) {... */\n    tag_367:\n      swap3\n      swap2\n      pop\n      pop\n      jump\t// out\n        /* \"@openzeppelin/contracts-upgradeable/utils/structs/EnumerableSetUpgradeable.sol\":4474:4581  function _length(Set storage set) private view returns (uint256) {... */\n    tag_334:\n        /* \"@openzeppelin/contracts-upgradeable/utils/structs/EnumerableSetUpgradeable.sol\":4530:4537  uint256 */\n      0x00\n        /* \"@openzeppelin/contracts-upgradeable/utils/structs/EnumerableSetUpgradeable.sol\":4556:4559  set */\n      dup2\n        /* \"@openzeppelin/contracts-upgradeable/utils/structs/EnumerableSetUpgradeable.sol\":4556:4567  set._values */\n      0x00\n      add\n        /* \"@openzeppelin/contracts-upgradeable/utils/structs/EnumerableSetUpgradeable.sol\":4556:4574  set._values.length */\n      dup1\n      sload\n      swap1\n      pop\n        /* \"@openzeppelin/contracts-upgradeable/utils/structs/EnumerableSetUpgradeable.sol\":4549:4574  return set._values.length */\n      swap1\n      pop\n        /* \"@openzeppelin/contracts-upgradeable/utils/structs/EnumerableSetUpgradeable.sol\":4474:4581  function _length(Set storage set) private view returns (uint256) {... */\n      swap2\n      swap1\n      pop\n      jump\t// out\n        /* \"@openzeppelin/contracts-upgradeable/utils/structs/EnumerableSetUpgradeable.sol\":4923:5041  function _at(Set storage set, uint256 index) private view returns (bytes32) {... */\n    tag_337:\n        /* \"@openzeppelin/contracts-upgradeable/utils/structs/EnumerableSetUpgradeable.sol\":4990:4997  bytes32 */\n      0x00\n        /* \"@openzeppelin/contracts-upgradeable/utils/structs/EnumerableSetUpgradeable.sol\":5016:5019  set */\n      dup3\n        /* \"@openzeppelin/contracts-upgradeable/utils/structs/EnumerableSetUpgradeable.sol\":5016:5027  set._values */\n      0x00\n      add\n        /* \"@openzeppelin/contracts-upgradeable/utils/structs/EnumerableSetUpgradeable.sol\":5028:5033  index */\n      dup3\n        /* \"@openzeppelin/contracts-upgradeable/utils/structs/EnumerableSetUpgradeable.sol\":5016:5034  set._values[index] */\n      dup2\n      sload\n      dup2\n      lt\n      tag_385\n      jumpi\n      tag_386\n      tag_134\n      jump\t// in\n    tag_386:\n    tag_385:\n      swap1\n      0x00\n      mstore\n      keccak256(0x00, 0x20)\n      add\n      sload\n        /* \"@openzeppelin/contracts-upgradeable/utils/structs/EnumerableSetUpgradeable.sol\":5009:5034  return set._values[index] */\n      swap1\n      pop\n        /* \"@openzeppelin/contracts-upgradeable/utils/structs/EnumerableSetUpgradeable.sol\":4923:5041  function _at(Set storage set, uint256 index) private view returns (bytes32) {... */\n      swap3\n      swap2\n      pop\n      pop\n      jump\t// out\n        /* \"@openzeppelin/contracts-upgradeable/utils/structs/EnumerableSetUpgradeable.sol\":2225:2629  function _add(Set storage set, bytes32 value) private returns (bool) {... */\n    tag_340:\n        /* \"@openzeppelin/contracts-upgradeable/utils/structs/EnumerableSetUpgradeable.sol\":2288:2292  bool */\n      0x00\n        /* \"@openzeppelin/contracts-upgradeable/utils/structs/EnumerableSetUpgradeable.sol\":2309:2330  _contains(set, value) */\n      tag_389\n        /* \"@openzeppelin/contracts-upgradeable/utils/structs/EnumerableSetUpgradeable.sol\":2319:2322  set */\n      dup4\n        /* \"@openzeppelin/contracts-upgradeable/utils/structs/EnumerableSetUpgradeable.sol\":2324:2329  value */\n      dup4\n        /* \"@openzeppelin/contracts-upgradeable/utils/structs/EnumerableSetUpgradeable.sol\":2309:2318  _contains */\n      tag_328\n        /* \"@openzeppelin/contracts-upgradeable/utils/structs/EnumerableSetUpgradeable.sol\":2309:2330  _contains(set, value) */\n      jump\t// in\n    tag_389:\n        /* \"@openzeppelin/contracts-upgradeable/utils/structs/EnumerableSetUpgradeable.sol\":2304:2623  if (!_contains(set, value)) {... */\n      tag_390\n      jumpi\n        /* \"@openzeppelin/contracts-upgradeable/utils/structs/EnumerableSetUpgradeable.sol\":2346:2349  set */\n      dup3\n        /* \"@openzeppelin/contracts-upgradeable/utils/structs/EnumerableSetUpgradeable.sol\":2346:2357  set._values */\n      0x00\n      add\n        /* \"@openzeppelin/contracts-upgradeable/utils/structs/EnumerableSetUpgradeable.sol\":2363:2368  value */\n      dup3\n        /* \"@openzeppelin/contracts-upgradeable/utils/structs/EnumerableSetUpgradeable.sol\":2346:2369  set._values.push(value) */\n      swap1\n      dup1\n      0x01\n      dup2\n      sload\n      add\n      dup1\n      dup3\n      sstore\n      dup1\n      swap2\n      pop\n      pop\n      0x01\n      swap1\n      sub\n      swap1\n      0x00\n      mstore\n      keccak256(0x00, 0x20)\n      add\n      0x00\n      swap1\n      swap2\n      swap1\n      swap2\n      swap1\n      swap2\n      pop\n      sstore\n        /* \"@openzeppelin/contracts-upgradeable/utils/structs/EnumerableSetUpgradeable.sol\":2526:2529  set */\n      dup3\n        /* \"@openzeppelin/contracts-upgradeable/utils/structs/EnumerableSetUpgradeable.sol\":2526:2537  set._values */\n      0x00\n      add\n        /* \"@openzeppelin/contracts-upgradeable/utils/structs/EnumerableSetUpgradeable.sol\":2526:2544  set._values.length */\n      dup1\n      sload\n      swap1\n      pop\n        /* \"@openzeppelin/contracts-upgradeable/utils/structs/EnumerableSetUpgradeable.sol\":2504:2507  set */\n      dup4\n        /* \"@openzeppelin/contracts-upgradeable/utils/structs/EnumerableSetUpgradeable.sol\":2504:2516  set._indexes */\n      0x01\n      add\n        /* \"@openzeppelin/contracts-upgradeable/utils/structs/EnumerableSetUpgradeable.sol\":2504:2523  set._indexes[value] */\n      0x00\n        /* \"@openzeppelin/contracts-upgradeable/utils/structs/EnumerableSetUpgradeable.sol\":2517:2522  value */\n      dup5\n        /* \"@openzeppelin/contracts-upgradeable/utils/structs/EnumerableSetUpgradeable.sol\":2504:2523  set._indexes[value] */\n      dup2\n      mstore\n      0x20\n      add\n      swap1\n      dup2\n      mstore\n      0x20\n      add\n      0x00\n      keccak256\n        /* \"@openzeppelin/contracts-upgradeable/utils/structs/EnumerableSetUpgradeable.sol\":2504:2544  set._indexes[value] = set._values.length */\n      dup2\n      swap1\n      sstore\n      pop\n        /* \"@openzeppelin/contracts-upgradeable/utils/structs/EnumerableSetUpgradeable.sol\":2565:2569  true */\n      0x01\n        /* \"@openzeppelin/contracts-upgradeable/utils/structs/EnumerableSetUpgradeable.sol\":2558:2569  return true */\n      swap1\n      pop\n      jump(tag_388)\n        /* \"@openzeppelin/contracts-upgradeable/utils/structs/EnumerableSetUpgradeable.sol\":2304:2623  if (!_contains(set, value)) {... */\n    tag_390:\n        /* \"@openzeppelin/contracts-upgradeable/utils/structs/EnumerableSetUpgradeable.sol\":2607:2612  false */\n      0x00\n        /* \"@openzeppelin/contracts-upgradeable/utils/structs/EnumerableSetUpgradeable.sol\":2600:2612  return false */\n      swap1\n      pop\n        /* \"@openzeppelin/contracts-upgradeable/utils/structs/EnumerableSetUpgradeable.sol\":2225:2629  function _add(Set storage set, bytes32 value) private returns (bool) {... */\n    tag_388:\n      swap3\n      swap2\n      pop\n      pop\n      jump\t// out\n        /* \"@openzeppelin/contracts-upgradeable/access/OwnableUpgradeable.sol\":1104:1215  function __Ownable_init_unchained() internal onlyInitializing {... */\n    tag_349:\n        /* \"@openzeppelin/contracts-upgradeable/proxy/utils/Initializable.sol\":5374:5387  _initializing */\n      0x00\n      0x01\n      swap1\n      sload\n      swap1\n      0x0100\n      exp\n      swap1\n      div\n      0xff\n      and\n        /* \"@openzeppelin/contracts-upgradeable/proxy/utils/Initializable.sol\":5366:5435  require(_initializing, \"Initializable: contract is not initializing\") */\n      tag_394\n      jumpi\n      mload(0x40)\n      0x08c379a000000000000000000000000000000000000000000000000000000000\n      dup2\n      mstore\n      0x04\n      add\n      tag_395\n      swap1\n      tag_346\n      jump\t// in\n    tag_395:\n      mload(0x40)\n      dup1\n      swap2\n      sub\n      swap1\n      revert\n    tag_394:\n        /* \"@openzeppelin/contracts-upgradeable/access/OwnableUpgradeable.sol\":1176:1208  _transferOwnership(_msgSender()) */\n      tag_397\n        /* \"@openzeppelin/contracts-upgradeable/access/OwnableUpgradeable.sol\":1195:1207  _msgSender() */\n      tag_398\n        /* \"@openzeppelin/contracts-upgradeable/access/OwnableUpgradeable.sol\":1195:1205  _msgSender */\n      tag_321\n        /* \"@openzeppelin/contracts-upgradeable/access/OwnableUpgradeable.sol\":1195:1207  _msgSender() */\n      jump\t// in\n    tag_398:\n        /* \"@openzeppelin/contracts-upgradeable/access/OwnableUpgradeable.sol\":1176:1194  _transferOwnership */\n      tag_202\n        /* \"@openzeppelin/contracts-upgradeable/access/OwnableUpgradeable.sol\":1176:1208  _transferOwnership(_msgSender()) */\n      jump\t// in\n    tag_397:\n        /* \"@openzeppelin/contracts-upgradeable/access/OwnableUpgradeable.sol\":1104:1215  function __Ownable_init_unchained() internal onlyInitializing {... */\n      jump\t// out\n    tag_125:\n      mload(0x40)\n      dup1\n      0x80\n      add\n      0x40\n      mstore\n      dup1\n      and(0xffffffffffffffffffffffffffffffffffffffff, 0x00)\n      dup2\n      mstore\n      0x20\n      add\n      0x00\n      dup2\n      mstore\n      0x20\n      add\n      tag_399\n      tag_220\n      jump\t// in\n    tag_399:\n      dup2\n      mstore\n      0x20\n      add\n      iszero(iszero(0x00))\n      dup2\n      mstore\n      pop\n      swap1\n      jump\t// out\n    tag_220:\n      mload(0x40)\n      dup1\n      0x60\n      add\n      0x40\n      mstore\n      dup1\n      0x00\n      dup2\n      mstore\n      0x20\n      add\n      and(0xffffffffffffffffffffffffffffffffffffffff, 0x00)\n      dup2\n      mstore\n      0x20\n      add\n      0x00\n      dup2\n      mstore\n      pop\n      swap1\n      jump\t// out\n        /* \"#utility.yul\":88:205   */\n    tag_401:\n        /* \"#utility.yul\":197:198   */\n      0x00\n        /* \"#utility.yul\":194:195   */\n      dup1\n        /* \"#utility.yul\":187:199   */\n      revert\n        /* \"#utility.yul\":334:483   */\n    tag_403:\n        /* \"#utility.yul\":370:377   */\n      0x00\n        /* \"#utility.yul\":410:476   */\n      0xffffffff00000000000000000000000000000000000000000000000000000000\n        /* \"#utility.yul\":403:408   */\n      dup3\n        /* \"#utility.yul\":399:477   */\n      and\n        /* \"#utility.yul\":388:477   */\n      swap1\n      pop\n        /* \"#utility.yul\":334:483   */\n      swap2\n      swap1\n      pop\n      jump\t// out\n        /* \"#utility.yul\":489:609   */\n    tag_404:\n        /* \"#utility.yul\":561:584   */\n      tag_466\n        /* \"#utility.yul\":578:583   */\n      dup2\n        /* \"#utility.yul\":561:584   */\n      tag_403\n      jump\t// in\n    tag_466:\n        /* \"#utility.yul\":554:559   */\n      dup2\n        /* \"#utility.yul\":551:585   */\n      eq\n        /* \"#utility.yul\":541:603   */\n      tag_467\n      jumpi\n        /* \"#utility.yul\":599:600   */\n      0x00\n        /* \"#utility.yul\":596:597   */\n      dup1\n        /* \"#utility.yul\":589:601   */\n      revert\n        /* \"#utility.yul\":541:603   */\n    tag_467:\n        /* \"#utility.yul\":489:609   */\n      pop\n      jump\t// out\n        /* \"#utility.yul\":615:752   */\n    tag_405:\n        /* \"#utility.yul\":660:665   */\n      0x00\n        /* \"#utility.yul\":698:704   */\n      dup2\n        /* \"#utility.yul\":685:705   */\n      calldataload\n        /* \"#utility.yul\":676:705   */\n      swap1\n      pop\n        /* \"#utility.yul\":714:746   */\n      tag_469\n        /* \"#utility.yul\":740:745   */\n      dup2\n        /* \"#utility.yul\":714:746   */\n      tag_404\n      jump\t// in\n    tag_469:\n        /* \"#utility.yul\":615:752   */\n      swap3\n      swap2\n      pop\n      pop\n      jump\t// out\n        /* \"#utility.yul\":758:1085   */\n    tag_27:\n        /* \"#utility.yul\":816:822   */\n      0x00\n        /* \"#utility.yul\":865:867   */\n      0x20\n        /* \"#utility.yul\":853:862   */\n      dup3\n        /* \"#utility.yul\":844:851   */\n      dup5\n        /* \"#utility.yul\":840:863   */\n      sub\n        /* \"#utility.yul\":836:868   */\n      slt\n        /* \"#utility.yul\":833:952   */\n      iszero\n      tag_471\n      jumpi\n        /* \"#utility.yul\":871:950   */\n      tag_472\n      tag_401\n      jump\t// in\n    tag_472:\n        /* \"#utility.yul\":833:952   */\n    tag_471:\n        /* \"#utility.yul\":991:992   */\n      0x00\n        /* \"#utility.yul\":1016:1068   */\n      tag_473\n        /* \"#utility.yul\":1060:1067   */\n      dup5\n        /* \"#utility.yul\":1051:1057   */\n      dup3\n        /* \"#utility.yul\":1040:1049   */\n      dup6\n        /* \"#utility.yul\":1036:1058   */\n      add\n        /* \"#utility.yul\":1016:1068   */\n      tag_405\n      jump\t// in\n    tag_473:\n        /* \"#utility.yul\":1006:1068   */\n      swap2\n      pop\n        /* \"#utility.yul\":962:1078   */\n      pop\n        /* \"#utility.yul\":758:1085   */\n      swap3\n      swap2\n      pop\n      pop\n      jump\t// out\n        /* \"#utility.yul\":1091:1181   */\n    tag_406:\n        /* \"#utility.yul\":1125:1132   */\n      0x00\n        /* \"#utility.yul\":1168:1173   */\n      dup2\n        /* \"#utility.yul\":1161:1174   */\n      iszero\n        /* \"#utility.yul\":1154:1175   */\n      iszero\n        /* \"#utility.yul\":1143:1175   */\n      swap1\n      pop\n        /* \"#utility.yul\":1091:1181   */\n      swap2\n      swap1\n      pop\n      jump\t// out\n        /* \"#utility.yul\":1187:1296   */\n    tag_407:\n        /* \"#utility.yul\":1268:1289   */\n      tag_476\n        /* \"#utility.yul\":1283:1288   */\n      dup2\n        /* \"#utility.yul\":1268:1289   */\n      tag_406\n      jump\t// in\n    tag_476:\n        /* \"#utility.yul\":1263:1266   */\n      dup3\n        /* \"#utility.yul\":1256:1290   */\n      mstore\n        /* \"#utility.yul\":1187:1296   */\n      pop\n      pop\n      jump\t// out\n        /* \"#utility.yul\":1302:1512   */\n    tag_30:\n        /* \"#utility.yul\":1389:1393   */\n      0x00\n        /* \"#utility.yul\":1427:1429   */\n      0x20\n        /* \"#utility.yul\":1416:1425   */\n      dup3\n        /* \"#utility.yul\":1412:1430   */\n      add\n        /* \"#utility.yul\":1404:1430   */\n      swap1\n      pop\n        /* \"#utility.yul\":1440:1505   */\n      tag_478\n        /* \"#utility.yul\":1502:1503   */\n      0x00\n        /* \"#utility.yul\":1491:1500   */\n      dup4\n        /* \"#utility.yul\":1487:1504   */\n      add\n        /* \"#utility.yul\":1478:1484   */\n      dup5\n        /* \"#utility.yul\":1440:1505   */\n      tag_407\n      jump\t// in\n    tag_478:\n        /* \"#utility.yul\":1302:1512   */\n      swap3\n      swap2\n      pop\n      pop\n      jump\t// out\n        /* \"#utility.yul\":1518:1660   */\n    tag_408:\n        /* \"#utility.yul\":1613:1619   */\n      0x00\n        /* \"#utility.yul\":1647:1652   */\n      dup2\n        /* \"#utility.yul\":1641:1653   */\n      mload\n        /* \"#utility.yul\":1631:1653   */\n      swap1\n      pop\n        /* \"#utility.yul\":1518:1660   */\n      swap2\n      swap1\n      pop\n      jump\t// out\n        /* \"#utility.yul\":1666:1878   */\n    tag_409:\n        /* \"#utility.yul\":1793:1804   */\n      0x00\n        /* \"#utility.yul\":1827:1833   */\n      dup3\n        /* \"#utility.yul\":1822:1825   */\n      dup3\n        /* \"#utility.yul\":1815:1834   */\n      mstore\n        /* \"#utility.yul\":1867:1871   */\n      0x20\n        /* \"#utility.yul\":1862:1865   */\n      dup3\n        /* \"#utility.yul\":1858:1872   */\n      add\n        /* \"#utility.yul\":1843:1872   */\n      swap1\n      pop\n        /* \"#utility.yul\":1666:1878   */\n      swap3\n      swap2\n      pop\n      pop\n      jump\t// out\n        /* \"#utility.yul\":1884:2044   */\n    tag_410:\n        /* \"#utility.yul\":1979:1983   */\n      0x00\n        /* \"#utility.yul\":2002:2005   */\n      dup2\n        /* \"#utility.yul\":1994:2005   */\n      swap1\n      pop\n        /* \"#utility.yul\":2032:2036   */\n      0x20\n        /* \"#utility.yul\":2027:2030   */\n      dup3\n        /* \"#utility.yul\":2023:2037   */\n      add\n        /* \"#utility.yul\":2015:2037   */\n      swap1\n      pop\n        /* \"#utility.yul\":1884:2044   */\n      swap2\n      swap1\n      pop\n      jump\t// out\n        /* \"#utility.yul\":2050:2176   */\n    tag_411:\n        /* \"#utility.yul\":2087:2094   */\n      0x00\n        /* \"#utility.yul\":2127:2169   */\n      0xffffffffffffffffffffffffffffffffffffffff\n        /* \"#utility.yul\":2120:2125   */\n      dup3\n        /* \"#utility.yul\":2116:2170   */\n      and\n        /* \"#utility.yul\":2105:2170   */\n      swap1\n      pop\n        /* \"#utility.yul\":2050:2176   */\n      swap2\n      swap1\n      pop\n      jump\t// out\n        /* \"#utility.yul\":2182:2278   */\n    tag_412:\n        /* \"#utility.yul\":2219:2226   */\n      0x00\n        /* \"#utility.yul\":2248:2272   */\n      tag_484\n        /* \"#utility.yul\":2266:2271   */\n      dup3\n        /* \"#utility.yul\":2248:2272   */\n      tag_411\n      jump\t// in\n    tag_484:\n        /* \"#utility.yul\":2237:2272   */\n      swap1\n      pop\n        /* \"#utility.yul\":2182:2278   */\n      swap2\n      swap1\n      pop\n      jump\t// out\n        /* \"#utility.yul\":2284:2392   */\n    tag_413:\n        /* \"#utility.yul\":2361:2385   */\n      tag_486\n        /* \"#utility.yul\":2379:2384   */\n      dup2\n        /* \"#utility.yul\":2361:2385   */\n      tag_412\n      jump\t// in\n    tag_486:\n        /* \"#utility.yul\":2356:2359   */\n      dup3\n        /* \"#utility.yul\":2349:2386   */\n      mstore\n        /* \"#utility.yul\":2284:2392   */\n      pop\n      pop\n      jump\t// out\n        /* \"#utility.yul\":2398:2475   */\n    tag_414:\n        /* \"#utility.yul\":2435:2442   */\n      0x00\n        /* \"#utility.yul\":2464:2469   */\n      dup2\n        /* \"#utility.yul\":2453:2469   */\n      swap1\n      pop\n        /* \"#utility.yul\":2398:2475   */\n      swap2\n      swap1\n      pop\n      jump\t// out\n        /* \"#utility.yul\":2481:2589   */\n    tag_415:\n        /* \"#utility.yul\":2558:2582   */\n      tag_489\n        /* \"#utility.yul\":2576:2581   */\n      dup2\n        /* \"#utility.yul\":2558:2582   */\n      tag_414\n      jump\t// in\n    tag_489:\n        /* \"#utility.yul\":2553:2556   */\n      dup3\n        /* \"#utility.yul\":2546:2583   */\n      mstore\n        /* \"#utility.yul\":2481:2589   */\n      pop\n      pop\n      jump\t// out\n        /* \"#utility.yul\":2683:3362   */\n    tag_416:\n        /* \"#utility.yul\":2820:2824   */\n      0x60\n        /* \"#utility.yul\":2815:2818   */\n      dup3\n        /* \"#utility.yul\":2811:2825   */\n      add\n        /* \"#utility.yul\":2908:2912   */\n      0x00\n        /* \"#utility.yul\":2901:2906   */\n      dup3\n        /* \"#utility.yul\":2897:2913   */\n      add\n        /* \"#utility.yul\":2891:2914   */\n      mload\n        /* \"#utility.yul\":2927:2990   */\n      tag_491\n        /* \"#utility.yul\":2984:2988   */\n      0x00\n        /* \"#utility.yul\":2979:2982   */\n      dup6\n        /* \"#utility.yul\":2975:2989   */\n      add\n        /* \"#utility.yul\":2961:2973   */\n      dup3\n        /* \"#utility.yul\":2927:2990   */\n      tag_415\n      jump\t// in\n    tag_491:\n        /* \"#utility.yul\":2835:3000   */\n      pop\n        /* \"#utility.yul\":3084:3088   */\n      0x20\n        /* \"#utility.yul\":3077:3082   */\n      dup3\n        /* \"#utility.yul\":3073:3089   */\n      add\n        /* \"#utility.yul\":3067:3090   */\n      mload\n        /* \"#utility.yul\":3103:3166   */\n      tag_492\n        /* \"#utility.yul\":3160:3164   */\n      0x20\n        /* \"#utility.yul\":3155:3158   */\n      dup6\n        /* \"#utility.yul\":3151:3165   */\n      add\n        /* \"#utility.yul\":3137:3149   */\n      dup3\n        /* \"#utility.yul\":3103:3166   */\n      tag_413\n      jump\t// in\n    tag_492:\n        /* \"#utility.yul\":3010:3176   */\n      pop\n        /* \"#utility.yul\":3263:3267   */\n      0x40\n        /* \"#utility.yul\":3256:3261   */\n      dup3\n        /* \"#utility.yul\":3252:3268   */\n      add\n        /* \"#utility.yul\":3246:3269   */\n      mload\n        /* \"#utility.yul\":3282:3345   */\n      tag_493\n        /* \"#utility.yul\":3339:3343   */\n      0x40\n        /* \"#utility.yul\":3334:3337   */\n      dup6\n        /* \"#utility.yul\":3330:3344   */\n      add\n        /* \"#utility.yul\":3316:3328   */\n      dup3\n        /* \"#utility.yul\":3282:3345   */\n      tag_415\n      jump\t// in\n    tag_493:\n        /* \"#utility.yul\":3186:3355   */\n      pop\n        /* \"#utility.yul\":2789:3362   */\n      pop\n        /* \"#utility.yul\":2683:3362   */\n      pop\n      pop\n      jump\t// out\n        /* \"#utility.yul\":3368:3467   */\n    tag_417:\n        /* \"#utility.yul\":3439:3460   */\n      tag_495\n        /* \"#utility.yul\":3454:3459   */\n      dup2\n        /* \"#utility.yul\":3439:3460   */\n      tag_406\n      jump\t// in\n    tag_495:\n        /* \"#utility.yul\":3434:3437   */\n      dup3\n        /* \"#utility.yul\":3427:3461   */\n      mstore\n        /* \"#utility.yul\":3368:3467   */\n      pop\n      pop\n      jump\t// out\n        /* \"#utility.yul\":3567:4481   */\n    tag_418:\n        /* \"#utility.yul\":3710:3714   */\n      0xc0\n        /* \"#utility.yul\":3705:3708   */\n      dup3\n        /* \"#utility.yul\":3701:3715   */\n      add\n        /* \"#utility.yul\":3808:3812   */\n      0x00\n        /* \"#utility.yul\":3801:3806   */\n      dup3\n        /* \"#utility.yul\":3797:3813   */\n      add\n        /* \"#utility.yul\":3791:3814   */\n      mload\n        /* \"#utility.yul\":3827:3890   */\n      tag_497\n        /* \"#utility.yul\":3884:3888   */\n      0x00\n        /* \"#utility.yul\":3879:3882   */\n      dup6\n        /* \"#utility.yul\":3875:3889   */\n      add\n        /* \"#utility.yul\":3861:3873   */\n      dup3\n        /* \"#utility.yul\":3827:3890   */\n      tag_413\n      jump\t// in\n    tag_497:\n        /* \"#utility.yul\":3725:3900   */\n      pop\n        /* \"#utility.yul\":3985:3989   */\n      0x20\n        /* \"#utility.yul\":3978:3983   */\n      dup3\n        /* \"#utility.yul\":3974:3990   */\n      add\n        /* \"#utility.yul\":3968:3991   */\n      mload\n        /* \"#utility.yul\":4004:4067   */\n      tag_498\n        /* \"#utility.yul\":4061:4065   */\n      0x20\n        /* \"#utility.yul\":4056:4059   */\n      dup6\n        /* \"#utility.yul\":4052:4066   */\n      add\n        /* \"#utility.yul\":4038:4050   */\n      dup3\n        /* \"#utility.yul\":4004:4067   */\n      tag_415\n      jump\t// in\n    tag_498:\n        /* \"#utility.yul\":3910:4077   */\n      pop\n        /* \"#utility.yul\":4162:4166   */\n      0x40\n        /* \"#utility.yul\":4155:4160   */\n      dup3\n        /* \"#utility.yul\":4151:4167   */\n      add\n        /* \"#utility.yul\":4145:4168   */\n      mload\n        /* \"#utility.yul\":4181:4294   */\n      tag_499\n        /* \"#utility.yul\":4288:4292   */\n      0x40\n        /* \"#utility.yul\":4283:4286   */\n      dup6\n        /* \"#utility.yul\":4279:4293   */\n      add\n        /* \"#utility.yul\":4265:4277   */\n      dup3\n        /* \"#utility.yul\":4181:4294   */\n      tag_416\n      jump\t// in\n    tag_499:\n        /* \"#utility.yul\":4087:4304   */\n      pop\n        /* \"#utility.yul\":4388:4392   */\n      0x60\n        /* \"#utility.yul\":4381:4386   */\n      dup3\n        /* \"#utility.yul\":4377:4393   */\n      add\n        /* \"#utility.yul\":4371:4394   */\n      mload\n        /* \"#utility.yul\":4407:4464   */\n      tag_500\n        /* \"#utility.yul\":4458:4462   */\n      0xa0\n        /* \"#utility.yul\":4453:4456   */\n      dup6\n        /* \"#utility.yul\":4449:4463   */\n      add\n        /* \"#utility.yul\":4435:4447   */\n      dup3\n        /* \"#utility.yul\":4407:4464   */\n      tag_417\n      jump\t// in\n    tag_500:\n        /* \"#utility.yul\":4314:4474   */\n      pop\n        /* \"#utility.yul\":3679:4481   */\n      pop\n        /* \"#utility.yul\":3567:4481   */\n      pop\n      pop\n      jump\t// out\n        /* \"#utility.yul\":4487:4778   */\n    tag_419:\n        /* \"#utility.yul\":4612:4622   */\n      0x00\n        /* \"#utility.yul\":4633:4735   */\n      tag_502\n        /* \"#utility.yul\":4731:4734   */\n      dup4\n        /* \"#utility.yul\":4723:4729   */\n      dup4\n        /* \"#utility.yul\":4633:4735   */\n      tag_418\n      jump\t// in\n    tag_502:\n        /* \"#utility.yul\":4767:4771   */\n      0xc0\n        /* \"#utility.yul\":4762:4765   */\n      dup4\n        /* \"#utility.yul\":4758:4772   */\n      add\n        /* \"#utility.yul\":4744:4772   */\n      swap1\n      pop\n        /* \"#utility.yul\":4487:4778   */\n      swap3\n      swap2\n      pop\n      pop\n      jump\t// out\n        /* \"#utility.yul\":4784:4925   */\n    tag_420:\n        /* \"#utility.yul\":4882:4886   */\n      0x00\n        /* \"#utility.yul\":4914:4918   */\n      0x20\n        /* \"#utility.yul\":4909:4912   */\n      dup3\n        /* \"#utility.yul\":4905:4919   */\n      add\n        /* \"#utility.yul\":4897:4919   */\n      swap1\n      pop\n        /* \"#utility.yul\":4784:4925   */\n      swap2\n      swap1\n      pop\n      jump\t// out\n        /* \"#utility.yul\":5029:5985   */\n    tag_421:\n        /* \"#utility.yul\":5204:5207   */\n      0x00\n        /* \"#utility.yul\":5233:5315   */\n      tag_505\n        /* \"#utility.yul\":5309:5314   */\n      dup3\n        /* \"#utility.yul\":5233:5315   */\n      tag_408\n      jump\t// in\n    tag_505:\n        /* \"#utility.yul\":5331:5445   */\n      tag_506\n        /* \"#utility.yul\":5438:5444   */\n      dup2\n        /* \"#utility.yul\":5433:5436   */\n      dup6\n        /* \"#utility.yul\":5331:5445   */\n      tag_409\n      jump\t// in\n    tag_506:\n        /* \"#utility.yul\":5324:5445   */\n      swap4\n      pop\n        /* \"#utility.yul\":5469:5553   */\n      tag_507\n        /* \"#utility.yul\":5547:5552   */\n      dup4\n        /* \"#utility.yul\":5469:5553   */\n      tag_410\n      jump\t// in\n    tag_507:\n        /* \"#utility.yul\":5576:5583   */\n      dup1\n        /* \"#utility.yul\":5607:5608   */\n      0x00\n        /* \"#utility.yul\":5592:5960   */\n    tag_508:\n        /* \"#utility.yul\":5617:5623   */\n      dup4\n        /* \"#utility.yul\":5614:5615   */\n      dup2\n        /* \"#utility.yul\":5611:5624   */\n      lt\n        /* \"#utility.yul\":5592:5960   */\n      iszero\n      tag_510\n      jumpi\n        /* \"#utility.yul\":5693:5699   */\n      dup2\n        /* \"#utility.yul\":5687:5700   */\n      mload\n        /* \"#utility.yul\":5720:5839   */\n      tag_511\n        /* \"#utility.yul\":5835:5838   */\n      dup9\n        /* \"#utility.yul\":5820:5833   */\n      dup3\n        /* \"#utility.yul\":5720:5839   */\n      tag_419\n      jump\t// in\n    tag_511:\n        /* \"#utility.yul\":5713:5839   */\n      swap8\n      pop\n        /* \"#utility.yul\":5862:5950   */\n      tag_512\n        /* \"#utility.yul\":5943:5949   */\n      dup4\n        /* \"#utility.yul\":5862:5950   */\n      tag_420\n      jump\t// in\n    tag_512:\n        /* \"#utility.yul\":5852:5950   */\n      swap3\n      pop\n        /* \"#utility.yul\":5652:5960   */\n      pop\n        /* \"#utility.yul\":5639:5640   */\n      0x01\n        /* \"#utility.yul\":5636:5637   */\n      dup2\n        /* \"#utility.yul\":5632:5641   */\n      add\n        /* \"#utility.yul\":5627:5641   */\n      swap1\n      pop\n        /* \"#utility.yul\":5592:5960   */\n      jump(tag_508)\n    tag_510:\n        /* \"#utility.yul\":5596:5610   */\n      pop\n        /* \"#utility.yul\":5976:5979   */\n      dup6\n        /* \"#utility.yul\":5969:5979   */\n      swap4\n      pop\n        /* \"#utility.yul\":5209:5985   */\n      pop\n      pop\n      pop\n        /* \"#utility.yul\":5029:5985   */\n      swap3\n      swap2\n      pop\n      pop\n      jump\t// out\n        /* \"#utility.yul\":5991:6476   */\n    tag_35:\n        /* \"#utility.yul\":6190:6194   */\n      0x00\n        /* \"#utility.yul\":6228:6230   */\n      0x20\n        /* \"#utility.yul\":6217:6226   */\n      dup3\n        /* \"#utility.yul\":6213:6231   */\n      add\n        /* \"#utility.yul\":6205:6231   */\n      swap1\n      pop\n        /* \"#utility.yul\":6277:6286   */\n      dup2\n        /* \"#utility.yul\":6271:6275   */\n      dup2\n        /* \"#utility.yul\":6267:6287   */\n      sub\n        /* \"#utility.yul\":6263:6264   */\n      0x00\n        /* \"#utility.yul\":6252:6261   */\n      dup4\n        /* \"#utility.yul\":6248:6265   */\n      add\n        /* \"#utility.yul\":6241:6288   */\n      mstore\n        /* \"#utility.yul\":6305:6469   */\n      tag_514\n        /* \"#utility.yul\":6464:6468   */\n      dup2\n        /* \"#utility.yul\":6455:6461   */\n      dup5\n        /* \"#utility.yul\":6305:6469   */\n      tag_421\n      jump\t// in\n    tag_514:\n        /* \"#utility.yul\":6297:6469   */\n      swap1\n      pop\n        /* \"#utility.yul\":5991:6476   */\n      swap3\n      swap2\n      pop\n      pop\n      jump\t// out\n        /* \"#utility.yul\":6482:6604   */\n    tag_422:\n        /* \"#utility.yul\":6555:6579   */\n      tag_516\n        /* \"#utility.yul\":6573:6578   */\n      dup2\n        /* \"#utility.yul\":6555:6579   */\n      tag_412\n      jump\t// in\n    tag_516:\n        /* \"#utility.yul\":6548:6553   */\n      dup2\n        /* \"#utility.yul\":6545:6580   */\n      eq\n        /* \"#utility.yul\":6535:6598   */\n      tag_517\n      jumpi\n        /* \"#utility.yul\":6594:6595   */\n      0x00\n        /* \"#utility.yul\":6591:6592   */\n      dup1\n        /* \"#utility.yul\":6584:6596   */\n      revert\n        /* \"#utility.yul\":6535:6598   */\n    tag_517:\n        /* \"#utility.yul\":6482:6604   */\n      pop\n      jump\t// out\n        /* \"#utility.yul\":6610:6749   */\n    tag_423:\n        /* \"#utility.yul\":6656:6661   */\n      0x00\n        /* \"#utility.yul\":6694:6700   */\n      dup2\n        /* \"#utility.yul\":6681:6701   */\n      calldataload\n        /* \"#utility.yul\":6672:6701   */\n      swap1\n      pop\n        /* \"#utility.yul\":6710:6743   */\n      tag_519\n        /* \"#utility.yul\":6737:6742   */\n      dup2\n        /* \"#utility.yul\":6710:6743   */\n      tag_422\n      jump\t// in\n    tag_519:\n        /* \"#utility.yul\":6610:6749   */\n      swap3\n      swap2\n      pop\n      pop\n      jump\t// out\n        /* \"#utility.yul\":6755:7084   */\n    tag_39:\n        /* \"#utility.yul\":6814:6820   */\n      0x00\n        /* \"#utility.yul\":6863:6865   */\n      0x20\n        /* \"#utility.yul\":6851:6860   */\n      dup3\n        /* \"#utility.yul\":6842:6849   */\n      dup5\n        /* \"#utility.yul\":6838:6861   */\n      sub\n        /* \"#utility.yul\":6834:6866   */\n      slt\n        /* \"#utility.yul\":6831:6950   */\n      iszero\n      tag_521\n      jumpi\n        /* \"#utility.yul\":6869:6948   */\n      tag_522\n      tag_401\n      jump\t// in\n    tag_522:\n        /* \"#utility.yul\":6831:6950   */\n    tag_521:\n        /* \"#utility.yul\":6989:6990   */\n      0x00\n        /* \"#utility.yul\":7014:7067   */\n      tag_523\n        /* \"#utility.yul\":7059:7066   */\n      dup5\n        /* \"#utility.yul\":7050:7056   */\n      dup3\n        /* \"#utility.yul\":7039:7048   */\n      dup6\n        /* \"#utility.yul\":7035:7057   */\n      add\n        /* \"#utility.yul\":7014:7067   */\n      tag_423\n      jump\t// in\n    tag_523:\n        /* \"#utility.yul\":7004:7067   */\n      swap2\n      pop\n        /* \"#utility.yul\":6960:7077   */\n      pop\n        /* \"#utility.yul\":6755:7084   */\n      swap3\n      swap2\n      pop\n      pop\n      jump\t// out\n        /* \"#utility.yul\":7090:7204   */\n    tag_424:\n        /* \"#utility.yul\":7157:7163   */\n      0x00\n        /* \"#utility.yul\":7191:7196   */\n      dup2\n        /* \"#utility.yul\":7185:7197   */\n      mload\n        /* \"#utility.yul\":7175:7197   */\n      swap1\n      pop\n        /* \"#utility.yul\":7090:7204   */\n      swap2\n      swap1\n      pop\n      jump\t// out\n        /* \"#utility.yul\":7210:7394   */\n    tag_425:\n        /* \"#utility.yul\":7309:7320   */\n      0x00\n        /* \"#utility.yul\":7343:7349   */\n      dup3\n        /* \"#utility.yul\":7338:7341   */\n      dup3\n        /* \"#utility.yul\":7331:7350   */\n      mstore\n        /* \"#utility.yul\":7383:7387   */\n      0x20\n        /* \"#utility.yul\":7378:7381   */\n      dup3\n        /* \"#utility.yul\":7374:7388   */\n      add\n        /* \"#utility.yul\":7359:7388   */\n      swap1\n      pop\n        /* \"#utility.yul\":7210:7394   */\n      swap3\n      swap2\n      pop\n      pop\n      jump\t// out\n        /* \"#utility.yul\":7400:7532   */\n    tag_426:\n        /* \"#utility.yul\":7467:7471   */\n      0x00\n        /* \"#utility.yul\":7490:7493   */\n      dup2\n        /* \"#utility.yul\":7482:7493   */\n      swap1\n      pop\n        /* \"#utility.yul\":7520:7524   */\n      0x20\n        /* \"#utility.yul\":7515:7518   */\n      dup3\n        /* \"#utility.yul\":7511:7525   */\n      add\n        /* \"#utility.yul\":7503:7525   */\n      swap1\n      pop\n        /* \"#utility.yul\":7400:7532   */\n      swap2\n      swap1\n      pop\n      jump\t// out\n        /* \"#utility.yul\":7538:7717   */\n    tag_427:\n        /* \"#utility.yul\":7607:7617   */\n      0x00\n        /* \"#utility.yul\":7628:7674   */\n      tag_528\n        /* \"#utility.yul\":7670:7673   */\n      dup4\n        /* \"#utility.yul\":7662:7668   */\n      dup4\n        /* \"#utility.yul\":7628:7674   */\n      tag_413\n      jump\t// in\n    tag_528:\n        /* \"#utility.yul\":7706:7710   */\n      0x20\n        /* \"#utility.yul\":7701:7704   */\n      dup4\n        /* \"#utility.yul\":7697:7711   */\n      add\n        /* \"#utility.yul\":7683:7711   */\n      swap1\n      pop\n        /* \"#utility.yul\":7538:7717   */\n      swap3\n      swap2\n      pop\n      pop\n      jump\t// out\n        /* \"#utility.yul\":7723:7836   */\n    tag_428:\n        /* \"#utility.yul\":7793:7797   */\n      0x00\n        /* \"#utility.yul\":7825:7829   */\n      0x20\n        /* \"#utility.yul\":7820:7823   */\n      dup3\n        /* \"#utility.yul\":7816:7830   */\n      add\n        /* \"#utility.yul\":7808:7830   */\n      swap1\n      pop\n        /* \"#utility.yul\":7723:7836   */\n      swap2\n      swap1\n      pop\n      jump\t// out\n        /* \"#utility.yul\":7872:8604   */\n    tag_429:\n        /* \"#utility.yul\":7991:7994   */\n      0x00\n        /* \"#utility.yul\":8020:8074   */\n      tag_531\n        /* \"#utility.yul\":8068:8073   */\n      dup3\n        /* \"#utility.yul\":8020:8074   */\n      tag_424\n      jump\t// in\n    tag_531:\n        /* \"#utility.yul\":8090:8176   */\n      tag_532\n        /* \"#utility.yul\":8169:8175   */\n      dup2\n        /* \"#utility.yul\":8164:8167   */\n      dup6\n        /* \"#utility.yul\":8090:8176   */\n      tag_425\n      jump\t// in\n    tag_532:\n        /* \"#utility.yul\":8083:8176   */\n      swap4\n      pop\n        /* \"#utility.yul\":8200:8256   */\n      tag_533\n        /* \"#utility.yul\":8250:8255   */\n      dup4\n        /* \"#utility.yul\":8200:8256   */\n      tag_426\n      jump\t// in\n    tag_533:\n        /* \"#utility.yul\":8279:8286   */\n      dup1\n        /* \"#utility.yul\":8310:8311   */\n      0x00\n        /* \"#utility.yul\":8295:8579   */\n    tag_534:\n        /* \"#utility.yul\":8320:8326   */\n      dup4\n        /* \"#utility.yul\":8317:8318   */\n      dup2\n        /* \"#utility.yul\":8314:8327   */\n      lt\n        /* \"#utility.yul\":8295:8579   */\n      iszero\n      tag_536\n      jumpi\n        /* \"#utility.yul\":8396:8402   */\n      dup2\n        /* \"#utility.yul\":8390:8403   */\n      mload\n        /* \"#utility.yul\":8423:8486   */\n      tag_537\n        /* \"#utility.yul\":8482:8485   */\n      dup9\n        /* \"#utility.yul\":8467:8480   */\n      dup3\n        /* \"#utility.yul\":8423:8486   */\n      tag_427\n      jump\t// in\n    tag_537:\n        /* \"#utility.yul\":8416:8486   */\n      swap8\n      pop\n        /* \"#utility.yul\":8509:8569   */\n      tag_538\n        /* \"#utility.yul\":8562:8568   */\n      dup4\n        /* \"#utility.yul\":8509:8569   */\n      tag_428\n      jump\t// in\n    tag_538:\n        /* \"#utility.yul\":8499:8569   */\n      swap3\n      pop\n        /* \"#utility.yul\":8355:8579   */\n      pop\n        /* \"#utility.yul\":8342:8343   */\n      0x01\n        /* \"#utility.yul\":8339:8340   */\n      dup2\n        /* \"#utility.yul\":8335:8344   */\n      add\n        /* \"#utility.yul\":8330:8344   */\n      swap1\n      pop\n        /* \"#utility.yul\":8295:8579   */\n      jump(tag_534)\n    tag_536:\n        /* \"#utility.yul\":8299:8313   */\n      pop\n        /* \"#utility.yul\":8595:8598   */\n      dup6\n        /* \"#utility.yul\":8588:8598   */\n      swap4\n      pop\n        /* \"#utility.yul\":7996:8604   */\n      pop\n      pop\n      pop\n        /* \"#utility.yul\":7872:8604   */\n      swap3\n      swap2\n      pop\n      pop\n      jump\t// out\n        /* \"#utility.yul\":8610:8983   */\n    tag_58:\n        /* \"#utility.yul\":8753:8757   */\n      0x00\n        /* \"#utility.yul\":8791:8793   */\n      0x20\n        /* \"#utility.yul\":8780:8789   */\n      dup3\n        /* \"#utility.yul\":8776:8794   */\n      add\n        /* \"#utility.yul\":8768:8794   */\n      swap1\n      pop\n        /* \"#utility.yul\":8840:8849   */\n      dup2\n        /* \"#utility.yul\":8834:8838   */\n      dup2\n        /* \"#utility.yul\":8830:8850   */\n      sub\n        /* \"#utility.yul\":8826:8827   */\n      0x00\n        /* \"#utility.yul\":8815:8824   */\n      dup4\n        /* \"#utility.yul\":8811:8828   */\n      add\n        /* \"#utility.yul\":8804:8851   */\n      mstore\n        /* \"#utility.yul\":8868:8976   */\n      tag_540\n        /* \"#utility.yul\":8971:8975   */\n      dup2\n        /* \"#utility.yul\":8962:8968   */\n      dup5\n        /* \"#utility.yul\":8868:8976   */\n      tag_429\n      jump\t// in\n    tag_540:\n        /* \"#utility.yul\":8860:8976   */\n      swap1\n      pop\n        /* \"#utility.yul\":8610:8983   */\n      swap3\n      swap2\n      pop\n      pop\n      jump\t// out\n        /* \"#utility.yul\":8989:9111   */\n    tag_430:\n        /* \"#utility.yul\":9062:9086   */\n      tag_542\n        /* \"#utility.yul\":9080:9085   */\n      dup2\n        /* \"#utility.yul\":9062:9086   */\n      tag_414\n      jump\t// in\n    tag_542:\n        /* \"#utility.yul\":9055:9060   */\n      dup2\n        /* \"#utility.yul\":9052:9087   */\n      eq\n        /* \"#utility.yul\":9042:9105   */\n      tag_543\n      jumpi\n        /* \"#utility.yul\":9101:9102   */\n      0x00\n        /* \"#utility.yul\":9098:9099   */\n      dup1\n        /* \"#utility.yul\":9091:9103   */\n      revert\n        /* \"#utility.yul\":9042:9105   */\n    tag_543:\n        /* \"#utility.yul\":8989:9111   */\n      pop\n      jump\t// out\n        /* \"#utility.yul\":9117:9256   */\n    tag_431:\n        /* \"#utility.yul\":9163:9168   */\n      0x00\n        /* \"#utility.yul\":9201:9207   */\n      dup2\n        /* \"#utility.yul\":9188:9208   */\n      calldataload\n        /* \"#utility.yul\":9179:9208   */\n      swap1\n      pop\n        /* \"#utility.yul\":9217:9250   */\n      tag_545\n        /* \"#utility.yul\":9244:9249   */\n      dup2\n        /* \"#utility.yul\":9217:9250   */\n      tag_430\n      jump\t// in\n    tag_545:\n        /* \"#utility.yul\":9117:9256   */\n      swap3\n      swap2\n      pop\n      pop\n      jump\t// out\n        /* \"#utility.yul\":9262:9591   */\n    tag_62:\n        /* \"#utility.yul\":9321:9327   */\n      0x00\n        /* \"#utility.yul\":9370:9372   */\n      0x20\n        /* \"#utility.yul\":9358:9367   */\n      dup3\n        /* \"#utility.yul\":9349:9356   */\n      dup5\n        /* \"#utility.yul\":9345:9368   */\n      sub\n        /* \"#utility.yul\":9341:9373   */\n      slt\n        /* \"#utility.yul\":9338:9457   */\n      iszero\n      tag_547\n      jumpi\n        /* \"#utility.yul\":9376:9455   */\n      tag_548\n      tag_401\n      jump\t// in\n    tag_548:\n        /* \"#utility.yul\":9338:9457   */\n    tag_547:\n        /* \"#utility.yul\":9496:9497   */\n      0x00\n        /* \"#utility.yul\":9521:9574   */\n      tag_549\n        /* \"#utility.yul\":9566:9573   */\n      dup5\n        /* \"#utility.yul\":9557:9563   */\n      dup3\n        /* \"#utility.yul\":9546:9555   */\n      dup6\n        /* \"#utility.yul\":9542:9564   */\n      add\n        /* \"#utility.yul\":9521:9574   */\n      tag_431\n      jump\t// in\n    tag_549:\n        /* \"#utility.yul\":9511:9574   */\n      swap2\n      pop\n        /* \"#utility.yul\":9467:9584   */\n      pop\n        /* \"#utility.yul\":9262:9591   */\n      swap3\n      swap2\n      pop\n      pop\n      jump\t// out\n        /* \"#utility.yul\":9691:10615   */\n    tag_432:\n        /* \"#utility.yul\":9844:9848   */\n      0xc0\n        /* \"#utility.yul\":9839:9842   */\n      dup3\n        /* \"#utility.yul\":9835:9849   */\n      add\n        /* \"#utility.yul\":9942:9946   */\n      0x00\n        /* \"#utility.yul\":9935:9940   */\n      dup3\n        /* \"#utility.yul\":9931:9947   */\n      add\n        /* \"#utility.yul\":9925:9948   */\n      mload\n        /* \"#utility.yul\":9961:10024   */\n      tag_551\n        /* \"#utility.yul\":10018:10022   */\n      0x00\n        /* \"#utility.yul\":10013:10016   */\n      dup6\n        /* \"#utility.yul\":10009:10023   */\n      add\n        /* \"#utility.yul\":9995:10007   */\n      dup3\n        /* \"#utility.yul\":9961:10024   */\n      tag_413\n      jump\t// in\n    tag_551:\n        /* \"#utility.yul\":9859:10034   */\n      pop\n        /* \"#utility.yul\":10119:10123   */\n      0x20\n        /* \"#utility.yul\":10112:10117   */\n      dup3\n        /* \"#utility.yul\":10108:10124   */\n      add\n        /* \"#utility.yul\":10102:10125   */\n      mload\n        /* \"#utility.yul\":10138:10201   */\n      tag_552\n        /* \"#utility.yul\":10195:10199   */\n      0x20\n        /* \"#utility.yul\":10190:10193   */\n      dup6\n        /* \"#utility.yul\":10186:10200   */\n      add\n        /* \"#utility.yul\":10172:10184   */\n      dup3\n        /* \"#utility.yul\":10138:10201   */\n      tag_415\n      jump\t// in\n    tag_552:\n        /* \"#utility.yul\":10044:10211   */\n      pop\n        /* \"#utility.yul\":10296:10300   */\n      0x40\n        /* \"#utility.yul\":10289:10294   */\n      dup3\n        /* \"#utility.yul\":10285:10301   */\n      add\n        /* \"#utility.yul\":10279:10302   */\n      mload\n        /* \"#utility.yul\":10315:10428   */\n      tag_553\n        /* \"#utility.yul\":10422:10426   */\n      0x40\n        /* \"#utility.yul\":10417:10420   */\n      dup6\n        /* \"#utility.yul\":10413:10427   */\n      add\n        /* \"#utility.yul\":10399:10411   */\n      dup3\n        /* \"#utility.yul\":10315:10428   */\n      tag_416\n      jump\t// in\n    tag_553:\n        /* \"#utility.yul\":10221:10438   */\n      pop\n        /* \"#utility.yul\":10522:10526   */\n      0x60\n        /* \"#utility.yul\":10515:10520   */\n      dup3\n        /* \"#utility.yul\":10511:10527   */\n      add\n        /* \"#utility.yul\":10505:10528   */\n      mload\n        /* \"#utility.yul\":10541:10598   */\n      tag_554\n        /* \"#utility.yul\":10592:10596   */\n      0xa0\n        /* \"#utility.yul\":10587:10590   */\n      dup6\n        /* \"#utility.yul\":10583:10597   */\n      add\n        /* \"#utility.yul\":10569:10581   */\n      dup3\n        /* \"#utility.yul\":10541:10598   */\n      tag_417\n      jump\t// in\n    tag_554:\n        /* \"#utility.yul\":10448:10608   */\n      pop\n        /* \"#utility.yul\":9813:10615   */\n      pop\n        /* \"#utility.yul\":9691:10615   */\n      pop\n      pop\n      jump\t// out\n        /* \"#utility.yul\":10621:10956   */\n    tag_65:\n        /* \"#utility.yul\":10770:10774   */\n      0x00\n        /* \"#utility.yul\":10808:10811   */\n      0xc0\n        /* \"#utility.yul\":10797:10806   */\n      dup3\n        /* \"#utility.yul\":10793:10812   */\n      add\n        /* \"#utility.yul\":10785:10812   */\n      swap1\n      pop\n        /* \"#utility.yul\":10822:10949   */\n      tag_556\n        /* \"#utility.yul\":10946:10947   */\n      0x00\n        /* \"#utility.yul\":10935:10944   */\n      dup4\n        /* \"#utility.yul\":10931:10948   */\n      add\n        /* \"#utility.yul\":10922:10928   */\n      dup5\n        /* \"#utility.yul\":10822:10949   */\n      tag_432\n      jump\t// in\n    tag_556:\n        /* \"#utility.yul\":10621:10956   */\n      swap3\n      swap2\n      pop\n      pop\n      jump\t// out\n        /* \"#utility.yul\":10962:11436   */\n    tag_79:\n        /* \"#utility.yul\":11030:11036   */\n      0x00\n        /* \"#utility.yul\":11038:11044   */\n      dup1\n        /* \"#utility.yul\":11087:11089   */\n      0x40\n        /* \"#utility.yul\":11075:11084   */\n      dup4\n        /* \"#utility.yul\":11066:11073   */\n      dup6\n        /* \"#utility.yul\":11062:11085   */\n      sub\n        /* \"#utility.yul\":11058:11090   */\n      slt\n        /* \"#utility.yul\":11055:11174   */\n      iszero\n      tag_558\n      jumpi\n        /* \"#utility.yul\":11093:11172   */\n      tag_559\n      tag_401\n      jump\t// in\n    tag_559:\n        /* \"#utility.yul\":11055:11174   */\n    tag_558:\n        /* \"#utility.yul\":11213:11214   */\n      0x00\n        /* \"#utility.yul\":11238:11291   */\n      tag_560\n        /* \"#utility.yul\":11283:11290   */\n      dup6\n        /* \"#utility.yul\":11274:11280   */\n      dup3\n        /* \"#utility.yul\":11263:11272   */\n      dup7\n        /* \"#utility.yul\":11259:11281   */\n      add\n        /* \"#utility.yul\":11238:11291   */\n      tag_423\n      jump\t// in\n    tag_560:\n        /* \"#utility.yul\":11228:11291   */\n      swap3\n      pop\n        /* \"#utility.yul\":11184:11301   */\n      pop\n        /* \"#utility.yul\":11340:11342   */\n      0x20\n        /* \"#utility.yul\":11366:11419   */\n      tag_561\n        /* \"#utility.yul\":11411:11418   */\n      dup6\n        /* \"#utility.yul\":11402:11408   */\n      dup3\n        /* \"#utility.yul\":11391:11400   */\n      dup7\n        /* \"#utility.yul\":11387:11409   */\n      add\n        /* \"#utility.yul\":11366:11419   */\n      tag_431\n      jump\t// in\n    tag_561:\n        /* \"#utility.yul\":11356:11419   */\n      swap2\n      pop\n        /* \"#utility.yul\":11311:11429   */\n      pop\n        /* \"#utility.yul\":10962:11436   */\n      swap3\n      pop\n      swap3\n      swap1\n      pop\n      jump\t// out\n        /* \"#utility.yul\":11530:12219   */\n    tag_433:\n        /* \"#utility.yul\":11677:11681   */\n      0x60\n        /* \"#utility.yul\":11672:11675   */\n      dup3\n        /* \"#utility.yul\":11668:11682   */\n      add\n        /* \"#utility.yul\":11765:11769   */\n      0x00\n        /* \"#utility.yul\":11758:11763   */\n      dup3\n        /* \"#utility.yul\":11754:11770   */\n      add\n        /* \"#utility.yul\":11748:11771   */\n      mload\n        /* \"#utility.yul\":11784:11847   */\n      tag_563\n        /* \"#utility.yul\":11841:11845   */\n      0x00\n        /* \"#utility.yul\":11836:11839   */\n      dup6\n        /* \"#utility.yul\":11832:11846   */\n      add\n        /* \"#utility.yul\":11818:11830   */\n      dup3\n        /* \"#utility.yul\":11784:11847   */\n      tag_415\n      jump\t// in\n    tag_563:\n        /* \"#utility.yul\":11692:11857   */\n      pop\n        /* \"#utility.yul\":11941:11945   */\n      0x20\n        /* \"#utility.yul\":11934:11939   */\n      dup3\n        /* \"#utility.yul\":11930:11946   */\n      add\n        /* \"#utility.yul\":11924:11947   */\n      mload\n        /* \"#utility.yul\":11960:12023   */\n      tag_564\n        /* \"#utility.yul\":12017:12021   */\n      0x20\n        /* \"#utility.yul\":12012:12015   */\n      dup6\n        /* \"#utility.yul\":12008:12022   */\n      add\n        /* \"#utility.yul\":11994:12006   */\n      dup3\n        /* \"#utility.yul\":11960:12023   */\n      tag_413\n      jump\t// in\n    tag_564:\n        /* \"#utility.yul\":11867:12033   */\n      pop\n        /* \"#utility.yul\":12120:12124   */\n      0x40\n        /* \"#utility.yul\":12113:12118   */\n      dup3\n        /* \"#utility.yul\":12109:12125   */\n      add\n        /* \"#utility.yul\":12103:12126   */\n      mload\n        /* \"#utility.yul\":12139:12202   */\n      tag_565\n        /* \"#utility.yul\":12196:12200   */\n      0x40\n        /* \"#utility.yul\":12191:12194   */\n      dup6\n        /* \"#utility.yul\":12187:12201   */\n      add\n        /* \"#utility.yul\":12173:12185   */\n      dup3\n        /* \"#utility.yul\":12139:12202   */\n      tag_415\n      jump\t// in\n    tag_565:\n        /* \"#utility.yul\":12043:12212   */\n      pop\n        /* \"#utility.yul\":11646:12219   */\n      pop\n        /* \"#utility.yul\":11530:12219   */\n      pop\n      pop\n      jump\t// out\n        /* \"#utility.yul\":12225:12547   */\n    tag_82:\n        /* \"#utility.yul\":12368:12372   */\n      0x00\n        /* \"#utility.yul\":12406:12408   */\n      0x60\n        /* \"#utility.yul\":12395:12404   */\n      dup3\n        /* \"#utility.yul\":12391:12409   */\n      add\n        /* \"#utility.yul\":12383:12409   */\n      swap1\n      pop\n        /* \"#utility.yul\":12419:12540   */\n      tag_567\n        /* \"#utility.yul\":12537:12538   */\n      0x00\n        /* \"#utility.yul\":12526:12535   */\n      dup4\n        /* \"#utility.yul\":12522:12539   */\n      add\n        /* \"#utility.yul\":12513:12519   */\n      dup5\n        /* \"#utility.yul\":12419:12540   */\n      tag_433\n      jump\t// in\n    tag_567:\n        /* \"#utility.yul\":12225:12547   */\n      swap3\n      swap2\n      pop\n      pop\n      jump\t// out\n        /* \"#utility.yul\":12553:13172   */\n    tag_86:\n        /* \"#utility.yul\":12630:12636   */\n      0x00\n        /* \"#utility.yul\":12638:12644   */\n      dup1\n        /* \"#utility.yul\":12646:12652   */\n      0x00\n        /* \"#utility.yul\":12695:12697   */\n      0x60\n        /* \"#utility.yul\":12683:12692   */\n      dup5\n        /* \"#utility.yul\":12674:12681   */\n      dup7\n        /* \"#utility.yul\":12670:12693   */\n      sub\n        /* \"#utility.yul\":12666:12698   */\n      slt\n        /* \"#utility.yul\":12663:12782   */\n      iszero\n      tag_569\n      jumpi\n        /* \"#utility.yul\":12701:12780   */\n      tag_570\n      tag_401\n      jump\t// in\n    tag_570:\n        /* \"#utility.yul\":12663:12782   */\n    tag_569:\n        /* \"#utility.yul\":12821:12822   */\n      0x00\n        /* \"#utility.yul\":12846:12899   */\n      tag_571\n        /* \"#utility.yul\":12891:12898   */\n      dup7\n        /* \"#utility.yul\":12882:12888   */\n      dup3\n        /* \"#utility.yul\":12871:12880   */\n      dup8\n        /* \"#utility.yul\":12867:12889   */\n      add\n        /* \"#utility.yul\":12846:12899   */\n      tag_423\n      jump\t// in\n    tag_571:\n        /* \"#utility.yul\":12836:12899   */\n      swap4\n      pop\n        /* \"#utility.yul\":12792:12909   */\n      pop\n        /* \"#utility.yul\":12948:12950   */\n      0x20\n        /* \"#utility.yul\":12974:13027   */\n      tag_572\n        /* \"#utility.yul\":13019:13026   */\n      dup7\n        /* \"#utility.yul\":13010:13016   */\n      dup3\n        /* \"#utility.yul\":12999:13008   */\n      dup8\n        /* \"#utility.yul\":12995:13017   */\n      add\n        /* \"#utility.yul\":12974:13027   */\n      tag_431\n      jump\t// in\n    tag_572:\n        /* \"#utility.yul\":12964:13027   */\n      swap3\n      pop\n        /* \"#utility.yul\":12919:13037   */\n      pop\n        /* \"#utility.yul\":13076:13078   */\n      0x40\n        /* \"#utility.yul\":13102:13155   */\n      tag_573\n        /* \"#utility.yul\":13147:13154   */\n      dup7\n        /* \"#utility.yul\":13138:13144   */\n      dup3\n        /* \"#utility.yul\":13127:13136   */\n      dup8\n        /* \"#utility.yul\":13123:13145   */\n      add\n        /* \"#utility.yul\":13102:13155   */\n      tag_431\n      jump\t// in\n    tag_573:\n        /* \"#utility.yul\":13092:13155   */\n      swap2\n      pop\n        /* \"#utility.yul\":13047:13165   */\n      pop\n        /* \"#utility.yul\":12553:13172   */\n      swap3\n      pop\n      swap3\n      pop\n      swap3\n      jump\t// out\n        /* \"#utility.yul\":13178:13296   */\n    tag_434:\n        /* \"#utility.yul\":13265:13289   */\n      tag_575\n        /* \"#utility.yul\":13283:13288   */\n      dup2\n        /* \"#utility.yul\":13265:13289   */\n      tag_412\n      jump\t// in\n    tag_575:\n        /* \"#utility.yul\":13260:13263   */\n      dup3\n        /* \"#utility.yul\":13253:13290   */\n      mstore\n        /* \"#utility.yul\":13178:13296   */\n      pop\n      pop\n      jump\t// out\n        /* \"#utility.yul\":13302:13524   */\n    tag_92:\n        /* \"#utility.yul\":13395:13399   */\n      0x00\n        /* \"#utility.yul\":13433:13435   */\n      0x20\n        /* \"#utility.yul\":13422:13431   */\n      dup3\n        /* \"#utility.yul\":13418:13436   */\n      add\n        /* \"#utility.yul\":13410:13436   */\n      swap1\n      pop\n        /* \"#utility.yul\":13446:13517   */\n      tag_577\n        /* \"#utility.yul\":13514:13515   */\n      0x00\n        /* \"#utility.yul\":13503:13512   */\n      dup4\n        /* \"#utility.yul\":13499:13516   */\n      add\n        /* \"#utility.yul\":13490:13496   */\n      dup5\n        /* \"#utility.yul\":13446:13517   */\n      tag_434\n      jump\t// in\n    tag_577:\n        /* \"#utility.yul\":13302:13524   */\n      swap3\n      swap2\n      pop\n      pop\n      jump\t// out\n        /* \"#utility.yul\":13530:13710   */\n    tag_121:\n        /* \"#utility.yul\":13578:13655   */\n      0x4e487b7100000000000000000000000000000000000000000000000000000000\n        /* \"#utility.yul\":13575:13576   */\n      0x00\n        /* \"#utility.yul\":13568:13656   */\n      mstore\n        /* \"#utility.yul\":13675:13679   */\n      0x41\n        /* \"#utility.yul\":13672:13673   */\n      0x04\n        /* \"#utility.yul\":13665:13680   */\n      mstore\n        /* \"#utility.yul\":13699:13703   */\n      0x24\n        /* \"#utility.yul\":13696:13697   */\n      0x00\n        /* \"#utility.yul\":13689:13704   */\n      revert\n        /* \"#utility.yul\":13716:13896   */\n    tag_134:\n        /* \"#utility.yul\":13764:13841   */\n      0x4e487b7100000000000000000000000000000000000000000000000000000000\n        /* \"#utility.yul\":13761:13762   */\n      0x00\n        /* \"#utility.yul\":13754:13842   */\n      mstore\n        /* \"#utility.yul\":13861:13865   */\n      0x32\n        /* \"#utility.yul\":13858:13859   */\n      0x04\n        /* \"#utility.yul\":13851:13866   */\n      mstore\n        /* \"#utility.yul\":13885:13889   */\n      0x24\n        /* \"#utility.yul\":13882:13883   */\n      0x00\n        /* \"#utility.yul\":13875:13890   */\n      revert\n        /* \"#utility.yul\":13902:14082   */\n    tag_435:\n        /* \"#utility.yul\":13950:14027   */\n      0x4e487b7100000000000000000000000000000000000000000000000000000000\n        /* \"#utility.yul\":13947:13948   */\n      0x00\n        /* \"#utility.yul\":13940:14028   */\n      mstore\n        /* \"#utility.yul\":14047:14051   */\n      0x11\n        /* \"#utility.yul\":14044:14045   */\n      0x04\n        /* \"#utility.yul\":14037:14052   */\n      mstore\n        /* \"#utility.yul\":14071:14075   */\n      0x24\n        /* \"#utility.yul\":14068:14069   */\n      0x00\n        /* \"#utility.yul\":14061:14076   */\n      revert\n        /* \"#utility.yul\":14088:14279   */\n    tag_136:\n        /* \"#utility.yul\":14128:14131   */\n      0x00\n        /* \"#utility.yul\":14147:14167   */\n      tag_582\n        /* \"#utility.yul\":14165:14166   */\n      dup3\n        /* \"#utility.yul\":14147:14167   */\n      tag_414\n      jump\t// in\n    tag_582:\n        /* \"#utility.yul\":14142:14167   */\n      swap2\n      pop\n        /* \"#utility.yul\":14181:14201   */\n      tag_583\n        /* \"#utility.yul\":14199:14200   */\n      dup4\n        /* \"#utility.yul\":14181:14201   */\n      tag_414\n      jump\t// in\n    tag_583:\n        /* \"#utility.yul\":14176:14201   */\n      swap3\n      pop\n        /* \"#utility.yul\":14224:14225   */\n      dup3\n        /* \"#utility.yul\":14221:14222   */\n      dup3\n        /* \"#utility.yul\":14217:14226   */\n      add\n        /* \"#utility.yul\":14210:14226   */\n      swap1\n      pop\n        /* \"#utility.yul\":14245:14248   */\n      dup1\n        /* \"#utility.yul\":14242:14243   */\n      dup3\n        /* \"#utility.yul\":14239:14249   */\n      gt\n        /* \"#utility.yul\":14236:14272   */\n      iszero\n      tag_584\n      jumpi\n        /* \"#utility.yul\":14252:14270   */\n      tag_585\n      tag_435\n      jump\t// in\n    tag_585:\n        /* \"#utility.yul\":14236:14272   */\n    tag_584:\n        /* \"#utility.yul\":14088:14279   */\n      swap3\n      swap2\n      pop\n      pop\n      jump\t// out\n        /* \"#utility.yul\":14285:14518   */\n    tag_138:\n        /* \"#utility.yul\":14324:14327   */\n      0x00\n        /* \"#utility.yul\":14347:14371   */\n      tag_587\n        /* \"#utility.yul\":14365:14370   */\n      dup3\n        /* \"#utility.yul\":14347:14371   */\n      tag_414\n      jump\t// in\n    tag_587:\n        /* \"#utility.yul\":14338:14371   */\n      swap2\n      pop\n        /* \"#utility.yul\":14393:14459   */\n      0xffffffffffffffffffffffffffffffffffffffffffffffffffffffffffffffff\n        /* \"#utility.yul\":14386:14391   */\n      dup3\n        /* \"#utility.yul\":14383:14460   */\n      sub\n        /* \"#utility.yul\":14380:14483   */\n      tag_588\n      jumpi\n        /* \"#utility.yul\":14463:14481   */\n      tag_589\n      tag_435\n      jump\t// in\n    tag_589:\n        /* \"#utility.yul\":14380:14483   */\n    tag_588:\n        /* \"#utility.yul\":14510:14511   */\n      0x01\n        /* \"#utility.yul\":14503:14508   */\n      dup3\n        /* \"#utility.yul\":14499:14512   */\n      add\n        /* \"#utility.yul\":14492:14512   */\n      swap1\n      pop\n        /* \"#utility.yul\":14285:14518   */\n      swap2\n      swap1\n      pop\n      jump\t// out\n        /* \"#utility.yul\":14524:14718   */\n    tag_147:\n        /* \"#utility.yul\":14564:14568   */\n      0x00\n        /* \"#utility.yul\":14584:14604   */\n      tag_591\n        /* \"#utility.yul\":14602:14603   */\n      dup3\n        /* \"#utility.yul\":14584:14604   */\n      tag_414\n      jump\t// in\n    tag_591:\n        /* \"#utility.yul\":14579:14604   */\n      swap2\n      pop\n        /* \"#utility.yul\":14618:14638   */\n      tag_592\n        /* \"#utility.yul\":14636:14637   */\n      dup4\n        /* \"#utility.yul\":14618:14638   */\n      tag_414\n      jump\t// in\n    tag_592:\n        /* \"#utility.yul\":14613:14638   */\n      swap3\n      pop\n        /* \"#utility.yul\":14662:14663   */\n      dup3\n        /* \"#utility.yul\":14659:14660   */\n      dup3\n        /* \"#utility.yul\":14655:14664   */\n      sub\n        /* \"#utility.yul\":14647:14664   */\n      swap1\n      pop\n        /* \"#utility.yul\":14686:14687   */\n      dup2\n        /* \"#utility.yul\":14680:14684   */\n      dup2\n        /* \"#utility.yul\":14677:14688   */\n      gt\n        /* \"#utility.yul\":14674:14711   */\n      iszero\n      tag_593\n      jumpi\n        /* \"#utility.yul\":14691:14709   */\n      tag_594\n      tag_435\n      jump\t// in\n    tag_594:\n        /* \"#utility.yul\":14674:14711   */\n    tag_593:\n        /* \"#utility.yul\":14524:14718   */\n      swap3\n      swap2\n      pop\n      pop\n      jump\t// out\n        /* \"#utility.yul\":14724:14893   */\n    tag_436:\n        /* \"#utility.yul\":14808:14819   */\n      0x00\n        /* \"#utility.yul\":14842:14848   */\n      dup3\n        /* \"#utility.yul\":14837:14840   */\n      dup3\n        /* \"#utility.yul\":14830:14849   */\n      mstore\n        /* \"#utility.yul\":14882:14886   */\n      0x20\n        /* \"#utility.yul\":14877:14880   */\n      dup3\n        /* \"#utility.yul\":14873:14887   */\n      add\n        /* \"#utility.yul\":14858:14887   */\n      swap1\n      pop\n        /* \"#utility.yul\":14724:14893   */\n      swap3\n      swap2\n      pop\n      pop\n      jump\t// out\n        /* \"#utility.yul\":14899:15132   */\n    tag_437:\n        /* \"#utility.yul\":15039:15073   */\n      0x496e697469616c697a61626c653a20636f6e747261637420697320616c726561\n        /* \"#utility.yul\":15035:15036   */\n      0x00\n        /* \"#utility.yul\":15027:15033   */\n      dup3\n        /* \"#utility.yul\":15023:15037   */\n      add\n        /* \"#utility.yul\":15016:15074   */\n      mstore\n        /* \"#utility.yul\":15108:15124   */\n      0x647920696e697469616c697a6564000000000000000000000000000000000000\n        /* \"#utility.yul\":15103:15105   */\n      0x20\n        /* \"#utility.yul\":15095:15101   */\n      dup3\n        /* \"#utility.yul\":15091:15106   */\n      add\n        /* \"#utility.yul\":15084:15125   */\n      mstore\n        /* \"#utility.yul\":14899:15132   */\n      pop\n      jump\t// out\n        /* \"#utility.yul\":15138:15504   */\n    tag_438:\n        /* \"#utility.yul\":15280:15283   */\n      0x00\n        /* \"#utility.yul\":15301:15368   */\n      tag_598\n        /* \"#utility.yul\":15365:15367   */\n      0x2e\n        /* \"#utility.yul\":15360:15363   */\n      dup4\n        /* \"#utility.yul\":15301:15368   */\n      tag_436\n      jump\t// in\n    tag_598:\n        /* \"#utility.yul\":15294:15368   */\n      swap2\n      pop\n        /* \"#utility.yul\":15377:15470   */\n      tag_599\n        /* \"#utility.yul\":15466:15469   */\n      dup3\n        /* \"#utility.yul\":15377:15470   */\n      tag_437\n      jump\t// in\n    tag_599:\n        /* \"#utility.yul\":15495:15497   */\n      0x40\n        /* \"#utility.yul\":15490:15493   */\n      dup3\n        /* \"#utility.yul\":15486:15498   */\n      add\n        /* \"#utility.yul\":15479:15498   */\n      swap1\n      pop\n        /* \"#utility.yul\":15138:15504   */\n      swap2\n      swap1\n      pop\n      jump\t// out\n        /* \"#utility.yul\":15510:15929   */\n    tag_211:\n        /* \"#utility.yul\":15676:15680   */\n      0x00\n        /* \"#utility.yul\":15714:15716   */\n      0x20\n        /* \"#utility.yul\":15703:15712   */\n      dup3\n        /* \"#utility.yul\":15699:15717   */\n      add\n        /* \"#utility.yul\":15691:15717   */\n      swap1\n      pop\n        /* \"#utility.yul\":15763:15772   */\n      dup2\n        /* \"#utility.yul\":15757:15761   */\n      dup2\n        /* \"#utility.yul\":15753:15773   */\n      sub\n        /* \"#utility.yul\":15749:15750   */\n      0x00\n        /* \"#utility.yul\":15738:15747   */\n      dup4\n        /* \"#utility.yul\":15734:15751   */\n      add\n        /* \"#utility.yul\":15727:15774   */\n      mstore\n        /* \"#utility.yul\":15791:15922   */\n      tag_601\n        /* \"#utility.yul\":15917:15921   */\n      dup2\n        /* \"#utility.yul\":15791:15922   */\n      tag_438\n      jump\t// in\n    tag_601:\n        /* \"#utility.yul\":15783:15922   */\n      swap1\n      pop\n        /* \"#utility.yul\":15510:15929   */\n      swap2\n      swap1\n      pop\n      jump\t// out\n        /* \"#utility.yul\":15935:16020   */\n    tag_439:\n        /* \"#utility.yul\":15980:15987   */\n      0x00\n        /* \"#utility.yul\":16009:16014   */\n      dup2\n        /* \"#utility.yul\":15998:16014   */\n      swap1\n      pop\n        /* \"#utility.yul\":15935:16020   */\n      swap2\n      swap1\n      pop\n      jump\t// out\n        /* \"#utility.yul\":16026:16112   */\n    tag_440:\n        /* \"#utility.yul\":16061:16068   */\n      0x00\n        /* \"#utility.yul\":16101:16105   */\n      0xff\n        /* \"#utility.yul\":16094:16099   */\n      dup3\n        /* \"#utility.yul\":16090:16106   */\n      and\n        /* \"#utility.yul\":16079:16106   */\n      swap1\n      pop\n        /* \"#utility.yul\":16026:16112   */\n      swap2\n      swap1\n      pop\n      jump\t// out\n        /* \"#utility.yul\":16118:16178   */\n    tag_441:\n        /* \"#utility.yul\":16146:16149   */\n      0x00\n        /* \"#utility.yul\":16167:16172   */\n      dup2\n        /* \"#utility.yul\":16160:16172   */\n      swap1\n      pop\n        /* \"#utility.yul\":16118:16178   */\n      swap2\n      swap1\n      pop\n      jump\t// out\n        /* \"#utility.yul\":16184:16338   */\n    tag_442:\n        /* \"#utility.yul\":16240:16249   */\n      0x00\n        /* \"#utility.yul\":16273:16332   */\n      tag_606\n        /* \"#utility.yul\":16289:16331   */\n      tag_607\n        /* \"#utility.yul\":16298:16330   */\n      tag_608\n        /* \"#utility.yul\":16324:16329   */\n      dup5\n        /* \"#utility.yul\":16298:16330   */\n      tag_439\n      jump\t// in\n    tag_608:\n        /* \"#utility.yul\":16289:16331   */\n      tag_441\n      jump\t// in\n    tag_607:\n        /* \"#utility.yul\":16273:16332   */\n      tag_440\n      jump\t// in\n    tag_606:\n        /* \"#utility.yul\":16260:16332   */\n      swap1\n      pop\n        /* \"#utility.yul\":16184:16338   */\n      swap2\n      swap1\n      pop\n      jump\t// out\n        /* \"#utility.yul\":16344:16487   */\n    tag_443:\n        /* \"#utility.yul\":16437:16480   */\n      tag_610\n        /* \"#utility.yul\":16474:16479   */\n      dup2\n        /* \"#utility.yul\":16437:16480   */\n      tag_442\n      jump\t// in\n    tag_610:\n        /* \"#utility.yul\":16432:16435   */\n      dup3\n        /* \"#utility.yul\":16425:16481   */\n      mstore\n        /* \"#utility.yul\":16344:16487   */\n      pop\n      pop\n      jump\t// out\n        /* \"#utility.yul\":16493:16727   */\n    tag_218:\n        /* \"#utility.yul\":16592:16596   */\n      0x00\n        /* \"#utility.yul\":16630:16632   */\n      0x20\n        /* \"#utility.yul\":16619:16628   */\n      dup3\n        /* \"#utility.yul\":16615:16633   */\n      add\n        /* \"#utility.yul\":16607:16633   */\n      swap1\n      pop\n        /* \"#utility.yul\":16643:16720   */\n      tag_612\n        /* \"#utility.yul\":16717:16718   */\n      0x00\n        /* \"#utility.yul\":16706:16715   */\n      dup4\n        /* \"#utility.yul\":16702:16719   */\n      add\n        /* \"#utility.yul\":16693:16699   */\n      dup5\n        /* \"#utility.yul\":16643:16720   */\n      tag_443\n      jump\t// in\n    tag_612:\n        /* \"#utility.yul\":16493:16727   */\n      swap3\n      swap2\n      pop\n      pop\n      jump\t// out\n        /* \"#utility.yul\":16733:16851   */\n    tag_444:\n        /* \"#utility.yul\":16820:16844   */\n      tag_614\n        /* \"#utility.yul\":16838:16843   */\n      dup2\n        /* \"#utility.yul\":16820:16844   */\n      tag_414\n      jump\t// in\n    tag_614:\n        /* \"#utility.yul\":16815:16818   */\n      dup3\n        /* \"#utility.yul\":16808:16845   */\n      mstore\n        /* \"#utility.yul\":16733:16851   */\n      pop\n      pop\n      jump\t// out\n        /* \"#utility.yul\":16857:17189   */\n    tag_225:\n        /* \"#utility.yul\":16978:16982   */\n      0x00\n        /* \"#utility.yul\":17016:17018   */\n      0x40\n        /* \"#utility.yul\":17005:17014   */\n      dup3\n        /* \"#utility.yul\":17001:17019   */\n      add\n        /* \"#utility.yul\":16993:17019   */\n      swap1\n      pop\n        /* \"#utility.yul\":17029:17100   */\n      tag_616\n        /* \"#utility.yul\":17097:17098   */\n      0x00\n        /* \"#utility.yul\":17086:17095   */\n      dup4\n        /* \"#utility.yul\":17082:17099   */\n      add\n        /* \"#utility.yul\":17073:17079   */\n      dup6\n        /* \"#utility.yul\":17029:17100   */\n      tag_434\n      jump\t// in\n    tag_616:\n        /* \"#utility.yul\":17110:17182   */\n      tag_617\n        /* \"#utility.yul\":17178:17180   */\n      0x20\n        /* \"#utility.yul\":17167:17176   */\n      dup4\n        /* \"#utility.yul\":17163:17181   */\n      add\n        /* \"#utility.yul\":17154:17160   */\n      dup5\n        /* \"#utility.yul\":17110:17182   */\n      tag_444\n      jump\t// in\n    tag_617:\n        /* \"#utility.yul\":16857:17189   */\n      swap4\n      swap3\n      pop\n      pop\n      pop\n      jump\t// out\n        /* \"#utility.yul\":17195:17417   */\n    tag_228:\n        /* \"#utility.yul\":17288:17292   */\n      0x00\n        /* \"#utility.yul\":17326:17328   */\n      0x20\n        /* \"#utility.yul\":17315:17324   */\n      dup3\n        /* \"#utility.yul\":17311:17329   */\n      add\n        /* \"#utility.yul\":17303:17329   */\n      swap1\n      pop\n        /* \"#utility.yul\":17339:17410   */\n      tag_619\n        /* \"#utility.yul\":17407:17408   */\n      0x00\n        /* \"#utility.yul\":17396:17405   */\n      dup4\n        /* \"#utility.yul\":17392:17409   */\n      add\n        /* \"#utility.yul\":17383:17389   */\n      dup5\n        /* \"#utility.yul\":17339:17410   */\n      tag_444\n      jump\t// in\n    tag_619:\n        /* \"#utility.yul\":17195:17417   */\n      swap3\n      swap2\n      pop\n      pop\n      jump\t// out\n        /* \"#utility.yul\":17423:17566   */\n    tag_445:\n        /* \"#utility.yul\":17480:17485   */\n      0x00\n        /* \"#utility.yul\":17511:17517   */\n      dup2\n        /* \"#utility.yul\":17505:17518   */\n      mload\n        /* \"#utility.yul\":17496:17518   */\n      swap1\n      pop\n        /* \"#utility.yul\":17527:17560   */\n      tag_621\n        /* \"#utility.yul\":17554:17559   */\n      dup2\n        /* \"#utility.yul\":17527:17560   */\n      tag_422\n      jump\t// in\n    tag_621:\n        /* \"#utility.yul\":17423:17566   */\n      swap3\n      swap2\n      pop\n      pop\n      jump\t// out\n        /* \"#utility.yul\":17572:17923   */\n    tag_232:\n        /* \"#utility.yul\":17642:17648   */\n      0x00\n        /* \"#utility.yul\":17691:17693   */\n      0x20\n        /* \"#utility.yul\":17679:17688   */\n      dup3\n        /* \"#utility.yul\":17670:17677   */\n      dup5\n        /* \"#utility.yul\":17666:17689   */\n      sub\n        /* \"#utility.yul\":17662:17694   */\n      slt\n        /* \"#utility.yul\":17659:17778   */\n      iszero\n      tag_623\n      jumpi\n        /* \"#utility.yul\":17697:17776   */\n      tag_624\n      tag_401\n      jump\t// in\n    tag_624:\n        /* \"#utility.yul\":17659:17778   */\n    tag_623:\n        /* \"#utility.yul\":17817:17818   */\n      0x00\n        /* \"#utility.yul\":17842:17906   */\n      tag_625\n        /* \"#utility.yul\":17898:17905   */\n      dup5\n        /* \"#utility.yul\":17889:17895   */\n      dup3\n        /* \"#utility.yul\":17878:17887   */\n      dup6\n        /* \"#utility.yul\":17874:17896   */\n      add\n        /* \"#utility.yul\":17842:17906   */\n      tag_445\n      jump\t// in\n    tag_625:\n        /* \"#utility.yul\":17832:17906   */\n      swap2\n      pop\n        /* \"#utility.yul\":17788:17916   */\n      pop\n        /* \"#utility.yul\":17572:17923   */\n      swap3\n      swap2\n      pop\n      pop\n      jump\t// out\n        /* \"#utility.yul\":17929:18261   */\n    tag_248:\n        /* \"#utility.yul\":18050:18054   */\n      0x00\n        /* \"#utility.yul\":18088:18090   */\n      0x40\n        /* \"#utility.yul\":18077:18086   */\n      dup3\n        /* \"#utility.yul\":18073:18091   */\n      add\n        /* \"#utility.yul\":18065:18091   */\n      swap1\n      pop\n        /* \"#utility.yul\":18101:18172   */\n      tag_627\n        /* \"#utility.yul\":18169:18170   */\n      0x00\n        /* \"#utility.yul\":18158:18167   */\n      dup4\n        /* \"#utility.yul\":18154:18171   */\n      add\n        /* \"#utility.yul\":18145:18151   */\n      dup6\n        /* \"#utility.yul\":18101:18172   */\n      tag_444\n      jump\t// in\n    tag_627:\n        /* \"#utility.yul\":18182:18254   */\n      tag_628\n        /* \"#utility.yul\":18250:18252   */\n      0x20\n        /* \"#utility.yul\":18239:18248   */\n      dup4\n        /* \"#utility.yul\":18235:18253   */\n      add\n        /* \"#utility.yul\":18226:18232   */\n      dup5\n        /* \"#utility.yul\":18182:18254   */\n      tag_444\n      jump\t// in\n    tag_628:\n        /* \"#utility.yul\":17929:18261   */\n      swap4\n      swap3\n      pop\n      pop\n      pop\n      jump\t// out\n        /* \"#utility.yul\":18267:18709   */\n    tag_259:\n        /* \"#utility.yul\":18416:18420   */\n      0x00\n        /* \"#utility.yul\":18454:18456   */\n      0x60\n        /* \"#utility.yul\":18443:18452   */\n      dup3\n        /* \"#utility.yul\":18439:18457   */\n      add\n        /* \"#utility.yul\":18431:18457   */\n      swap1\n      pop\n        /* \"#utility.yul\":18467:18538   */\n      tag_630\n        /* \"#utility.yul\":18535:18536   */\n      0x00\n        /* \"#utility.yul\":18524:18533   */\n      dup4\n        /* \"#utility.yul\":18520:18537   */\n      add\n        /* \"#utility.yul\":18511:18517   */\n      dup7\n        /* \"#utility.yul\":18467:18538   */\n      tag_434\n      jump\t// in\n    tag_630:\n        /* \"#utility.yul\":18548:18620   */\n      tag_631\n        /* \"#utility.yul\":18616:18618   */\n      0x20\n        /* \"#utility.yul\":18605:18614   */\n      dup4\n        /* \"#utility.yul\":18601:18619   */\n      add\n        /* \"#utility.yul\":18592:18598   */\n      dup6\n        /* \"#utility.yul\":18548:18620   */\n      tag_444\n      jump\t// in\n    tag_631:\n        /* \"#utility.yul\":18630:18702   */\n      tag_632\n        /* \"#utility.yul\":18698:18700   */\n      0x40\n        /* \"#utility.yul\":18687:18696   */\n      dup4\n        /* \"#utility.yul\":18683:18701   */\n      add\n        /* \"#utility.yul\":18674:18680   */\n      dup5\n        /* \"#utility.yul\":18630:18702   */\n      tag_444\n      jump\t// in\n    tag_632:\n        /* \"#utility.yul\":18267:18709   */\n      swap5\n      swap4\n      pop\n      pop\n      pop\n      pop\n      jump\t// out\n        /* \"#utility.yul\":18715:18895   */\n    tag_446:\n        /* \"#utility.yul\":18763:18840   */\n      0x4e487b7100000000000000000000000000000000000000000000000000000000\n        /* \"#utility.yul\":18760:18761   */\n      0x00\n        /* \"#utility.yul\":18753:18841   */\n      mstore\n        /* \"#utility.yul\":18860:18864   */\n      0x12\n        /* \"#utility.yul\":18857:18858   */\n      0x04\n        /* \"#utility.yul\":18850:18865   */\n      mstore\n        /* \"#utility.yul\":18884:18888   */\n      0x24\n        /* \"#utility.yul\":18881:18882   */\n      0x00\n        /* \"#utility.yul\":18874:18889   */\n      revert\n        /* \"#utility.yul\":18901:19086   */\n    tag_261:\n        /* \"#utility.yul\":18941:18942   */\n      0x00\n        /* \"#utility.yul\":18958:18978   */\n      tag_635\n        /* \"#utility.yul\":18976:18977   */\n      dup3\n        /* \"#utility.yul\":18958:18978   */\n      tag_414\n      jump\t// in\n    tag_635:\n        /* \"#utility.yul\":18953:18978   */\n      swap2\n      pop\n        /* \"#utility.yul\":18992:19012   */\n      tag_636\n        /* \"#utility.yul\":19010:19011   */\n      dup4\n        /* \"#utility.yul\":18992:19012   */\n      tag_414\n      jump\t// in\n    tag_636:\n        /* \"#utility.yul\":18987:19012   */\n      swap3\n      pop\n        /* \"#utility.yul\":19031:19032   */\n      dup3\n        /* \"#utility.yul\":19021:19056   */\n      tag_637\n      jumpi\n        /* \"#utility.yul\":19036:19054   */\n      tag_638\n      tag_446\n      jump\t// in\n    tag_638:\n        /* \"#utility.yul\":19021:19056   */\n    tag_637:\n        /* \"#utility.yul\":19078:19079   */\n      dup3\n        /* \"#utility.yul\":19075:19076   */\n      dup3\n        /* \"#utility.yul\":19071:19080   */\n      div\n        /* \"#utility.yul\":19066:19080   */\n      swap1\n      pop\n        /* \"#utility.yul\":18901:19086   */\n      swap3\n      swap2\n      pop\n      pop\n      jump\t// out\n        /* \"#utility.yul\":19092:19502   */\n    tag_266:\n        /* \"#utility.yul\":19132:19139   */\n      0x00\n        /* \"#utility.yul\":19155:19175   */\n      tag_640\n        /* \"#utility.yul\":19173:19174   */\n      dup3\n        /* \"#utility.yul\":19155:19175   */\n      tag_414\n      jump\t// in\n    tag_640:\n        /* \"#utility.yul\":19150:19175   */\n      swap2\n      pop\n        /* \"#utility.yul\":19189:19209   */\n      tag_641\n        /* \"#utility.yul\":19207:19208   */\n      dup4\n        /* \"#utility.yul\":19189:19209   */\n      tag_414\n      jump\t// in\n    tag_641:\n        /* \"#utility.yul\":19184:19209   */\n      swap3\n      pop\n        /* \"#utility.yul\":19244:19245   */\n      dup3\n        /* \"#utility.yul\":19241:19242   */\n      dup3\n        /* \"#utility.yul\":19237:19246   */\n      mul\n        /* \"#utility.yul\":19266:19296   */\n      tag_642\n        /* \"#utility.yul\":19284:19295   */\n      dup2\n        /* \"#utility.yul\":19266:19296   */\n      tag_414\n      jump\t// in\n    tag_642:\n        /* \"#utility.yul\":19255:19296   */\n      swap2\n      pop\n        /* \"#utility.yul\":19445:19446   */\n      dup3\n        /* \"#utility.yul\":19436:19443   */\n      dup3\n        /* \"#utility.yul\":19432:19447   */\n      div\n        /* \"#utility.yul\":19429:19430   */\n      dup5\n        /* \"#utility.yul\":19426:19448   */\n      eq\n        /* \"#utility.yul\":19406:19407   */\n      dup4\n        /* \"#utility.yul\":19399:19408   */\n      iszero\n        /* \"#utility.yul\":19379:19462   */\n      or\n        /* \"#utility.yul\":19356:19495   */\n      tag_643\n      jumpi\n        /* \"#utility.yul\":19475:19493   */\n      tag_644\n      tag_435\n      jump\t// in\n    tag_644:\n        /* \"#utility.yul\":19356:19495   */\n    tag_643:\n        /* \"#utility.yul\":19140:19502   */\n      pop\n        /* \"#utility.yul\":19092:19502   */\n      swap3\n      swap2\n      pop\n      pop\n      jump\t// out\n        /* \"#utility.yul\":19508:19950   */\n    tag_270:\n        /* \"#utility.yul\":19657:19661   */\n      0x00\n        /* \"#utility.yul\":19695:19697   */\n      0x60\n        /* \"#utility.yul\":19684:19693   */\n      dup3\n        /* \"#utility.yul\":19680:19698   */\n      add\n        /* \"#utility.yul\":19672:19698   */\n      swap1\n      pop\n        /* \"#utility.yul\":19708:19779   */\n      tag_646\n        /* \"#utility.yul\":19776:19777   */\n      0x00\n        /* \"#utility.yul\":19765:19774   */\n      dup4\n        /* \"#utility.yul\":19761:19778   */\n      add\n        /* \"#utility.yul\":19752:19758   */\n      dup7\n        /* \"#utility.yul\":19708:19779   */\n      tag_434\n      jump\t// in\n    tag_646:\n        /* \"#utility.yul\":19789:19861   */\n      tag_647\n        /* \"#utility.yul\":19857:19859   */\n      0x20\n        /* \"#utility.yul\":19846:19855   */\n      dup4\n        /* \"#utility.yul\":19842:19860   */\n      add\n        /* \"#utility.yul\":19833:19839   */\n      dup6\n        /* \"#utility.yul\":19789:19861   */\n      tag_434\n      jump\t// in\n    tag_647:\n        /* \"#utility.yul\":19871:19943   */\n      tag_648\n        /* \"#utility.yul\":19939:19941   */\n      0x40\n        /* \"#utility.yul\":19928:19937   */\n      dup4\n        /* \"#utility.yul\":19924:19942   */\n      add\n        /* \"#utility.yul\":19915:19921   */\n      dup5\n        /* \"#utility.yul\":19871:19943   */\n      tag_444\n      jump\t// in\n    tag_648:\n        /* \"#utility.yul\":19508:19950   */\n      swap5\n      swap4\n      pop\n      pop\n      pop\n      pop\n      jump\t// out\n        /* \"#utility.yul\":19956:20181   */\n    tag_447:\n        /* \"#utility.yul\":20096:20130   */\n      0x4f776e61626c653a206e6577206f776e657220697320746865207a65726f2061\n        /* \"#utility.yul\":20092:20093   */\n      0x00\n        /* \"#utility.yul\":20084:20090   */\n      dup3\n        /* \"#utility.yul\":20080:20094   */\n      add\n        /* \"#utility.yul\":20073:20131   */\n      mstore\n        /* \"#utility.yul\":20165:20173   */\n      0x6464726573730000000000000000000000000000000000000000000000000000\n        /* \"#utility.yul\":20160:20162   */\n      0x20\n        /* \"#utility.yul\":20152:20158   */\n      dup3\n        /* \"#utility.yul\":20148:20163   */\n      add\n        /* \"#utility.yul\":20141:20174   */\n      mstore\n        /* \"#utility.yul\":19956:20181   */\n      pop\n      jump\t// out\n        /* \"#utility.yul\":20187:20553   */\n    tag_448:\n        /* \"#utility.yul\":20329:20332   */\n      0x00\n        /* \"#utility.yul\":20350:20417   */\n      tag_651\n        /* \"#utility.yul\":20414:20416   */\n      0x26\n        /* \"#utility.yul\":20409:20412   */\n      dup4\n        /* \"#utility.yul\":20350:20417   */\n      tag_436\n      jump\t// in\n    tag_651:\n        /* \"#utility.yul\":20343:20417   */\n      swap2\n      pop\n        /* \"#utility.yul\":20426:20519   */\n      tag_652\n        /* \"#utility.yul\":20515:20518   */\n      dup3\n        /* \"#utility.yul\":20426:20519   */\n      tag_447\n      jump\t// in\n    tag_652:\n        /* \"#utility.yul\":20544:20546   */\n      0x40\n        /* \"#utility.yul\":20539:20542   */\n      dup3\n        /* \"#utility.yul\":20535:20547   */\n      add\n        /* \"#utility.yul\":20528:20547   */\n      swap1\n      pop\n        /* \"#utility.yul\":20187:20553   */\n      swap2\n      swap1\n      pop\n      jump\t// out\n        /* \"#utility.yul\":20559:20978   */\n    tag_294:\n        /* \"#utility.yul\":20725:20729   */\n      0x00\n        /* \"#utility.yul\":20763:20765   */\n      0x20\n        /* \"#utility.yul\":20752:20761   */\n      dup3\n        /* \"#utility.yul\":20748:20766   */\n      add\n        /* \"#utility.yul\":20740:20766   */\n      swap1\n      pop\n        /* \"#utility.yul\":20812:20821   */\n      dup2\n        /* \"#utility.yul\":20806:20810   */\n      dup2\n        /* \"#utility.yul\":20802:20822   */\n      sub\n        /* \"#utility.yul\":20798:20799   */\n      0x00\n        /* \"#utility.yul\":20787:20796   */\n      dup4\n        /* \"#utility.yul\":20783:20800   */\n      add\n        /* \"#utility.yul\":20776:20823   */\n      mstore\n        /* \"#utility.yul\":20840:20971   */\n      tag_654\n        /* \"#utility.yul\":20966:20970   */\n      dup2\n        /* \"#utility.yul\":20840:20971   */\n      tag_448\n      jump\t// in\n    tag_654:\n        /* \"#utility.yul\":20832:20971   */\n      swap1\n      pop\n        /* \"#utility.yul\":20559:20978   */\n      swap2\n      swap1\n      pop\n      jump\t// out\n        /* \"#utility.yul\":20984:21166   */\n    tag_449:\n        /* \"#utility.yul\":21124:21158   */\n      0x4f776e61626c653a2063616c6c6572206973206e6f7420746865206f776e6572\n        /* \"#utility.yul\":21120:21121   */\n      0x00\n        /* \"#utility.yul\":21112:21118   */\n      dup3\n        /* \"#utility.yul\":21108:21122   */\n      add\n        /* \"#utility.yul\":21101:21159   */\n      mstore\n        /* \"#utility.yul\":20984:21166   */\n      pop\n      jump\t// out\n        /* \"#utility.yul\":21172:21538   */\n    tag_450:\n        /* \"#utility.yul\":21314:21317   */\n      0x00\n        /* \"#utility.yul\":21335:21402   */\n      tag_657\n        /* \"#utility.yul\":21399:21401   */\n      0x20\n        /* \"#utility.yul\":21394:21397   */\n      dup4\n        /* \"#utility.yul\":21335:21402   */\n      tag_436\n      jump\t// in\n    tag_657:\n        /* \"#utility.yul\":21328:21402   */\n      swap2\n      pop\n        /* \"#utility.yul\":21411:21504   */\n      tag_658\n        /* \"#utility.yul\":21500:21503   */\n      dup3\n        /* \"#utility.yul\":21411:21504   */\n      tag_449\n      jump\t// in\n    tag_658:\n        /* \"#utility.yul\":21529:21531   */\n      0x20\n        /* \"#utility.yul\":21524:21527   */\n      dup3\n        /* \"#utility.yul\":21520:21532   */\n      add\n        /* \"#utility.yul\":21513:21532   */\n      swap1\n      pop\n        /* \"#utility.yul\":21172:21538   */\n      swap2\n      swap1\n      pop\n      jump\t// out\n        /* \"#utility.yul\":21544:21963   */\n    tag_325:\n        /* \"#utility.yul\":21710:21714   */\n      0x00\n        /* \"#utility.yul\":21748:21750   */\n      0x20\n        /* \"#utility.yul\":21737:21746   */\n      dup3\n        /* \"#utility.yul\":21733:21751   */\n      add\n        /* \"#utility.yul\":21725:21751   */\n      swap1\n      pop\n        /* \"#utility.yul\":21797:21806   */\n      dup2\n        /* \"#utility.yul\":21791:21795   */\n      dup2\n        /* \"#utility.yul\":21787:21807   */\n      sub\n        /* \"#utility.yul\":21783:21784   */\n      0x00\n        /* \"#utility.yul\":21772:21781   */\n      dup4\n        /* \"#utility.yul\":21768:21785   */\n      add\n        /* \"#utility.yul\":21761:21808   */\n      mstore\n        /* \"#utility.yul\":21825:21956   */\n      tag_660\n        /* \"#utility.yul\":21951:21955   */\n      dup2\n        /* \"#utility.yul\":21825:21956   */\n      tag_450\n      jump\t// in\n    tag_660:\n        /* \"#utility.yul\":21817:21956   */\n      swap1\n      pop\n        /* \"#utility.yul\":21544:21963   */\n      swap2\n      swap1\n      pop\n      jump\t// out\n        /* \"#utility.yul\":21969:22199   */\n    tag_451:\n        /* \"#utility.yul\":22109:22143   */\n      0x496e697469616c697a61626c653a20636f6e7472616374206973206e6f742069\n        /* \"#utility.yul\":22105:22106   */\n      0x00\n        /* \"#utility.yul\":22097:22103   */\n      dup3\n        /* \"#utility.yul\":22093:22107   */\n      add\n        /* \"#utility.yul\":22086:22144   */\n      mstore\n        /* \"#utility.yul\":22178:22191   */\n      0x6e697469616c697a696e67000000000000000000000000000000000000000000\n        /* \"#utility.yul\":22173:22175   */\n      0x20\n        /* \"#utility.yul\":22165:22171   */\n      dup3\n        /* \"#utility.yul\":22161:22176   */\n      add\n        /* \"#utility.yul\":22154:22192   */\n      mstore\n        /* \"#utility.yul\":21969:22199   */\n      pop\n      jump\t// out\n        /* \"#utility.yul\":22205:22571   */\n    tag_452:\n        /* \"#utility.yul\":22347:22350   */\n      0x00\n        /* \"#utility.yul\":22368:22435   */\n      tag_663\n        /* \"#utility.yul\":22432:22434   */\n      0x2b\n        /* \"#utility.yul\":22427:22430   */\n      dup4\n        /* \"#utility.yul\":22368:22435   */\n      tag_436\n      jump\t// in\n    tag_663:\n        /* \"#utility.yul\":22361:22435   */\n      swap2\n      pop\n        /* \"#utility.yul\":22444:22537   */\n      tag_664\n        /* \"#utility.yul\":22533:22536   */\n      dup3\n        /* \"#utility.yul\":22444:22537   */\n      tag_451\n      jump\t// in\n    tag_664:\n        /* \"#utility.yul\":22562:22564   */\n      0x40\n        /* \"#utility.yul\":22557:22560   */\n      dup3\n        /* \"#utility.yul\":22553:22565   */\n      add\n        /* \"#utility.yul\":22546:22565   */\n      swap1\n      pop\n        /* \"#utility.yul\":22205:22571   */\n      swap2\n      swap1\n      pop\n      jump\t// out\n        /* \"#utility.yul\":22577:22996   */\n    tag_346:\n        /* \"#utility.yul\":22743:22747   */\n      0x00\n        /* \"#utility.yul\":22781:22783   */\n      0x20\n        /* \"#utility.yul\":22770:22779   */\n      dup3\n        /* \"#utility.yul\":22766:22784   */\n      add\n        /* \"#utility.yul\":22758:22784   */\n      swap1\n      pop\n        /* \"#utility.yul\":22830:22839   */\n      dup2\n        /* \"#utility.yul\":22824:22828   */\n      dup2\n        /* \"#utility.yul\":22820:22840   */\n      sub\n        /* \"#utility.yul\":22816:22817   */\n      0x00\n        /* \"#utility.yul\":22805:22814   */\n      dup4\n        /* \"#utility.yul\":22801:22818   */\n      add\n        /* \"#utility.yul\":22794:22841   */\n      mstore\n        /* \"#utility.yul\":22858:22989   */\n      tag_666\n        /* \"#utility.yul\":22984:22988   */\n      dup2\n        /* \"#utility.yul\":22858:22989   */\n      tag_452\n      jump\t// in\n    tag_666:\n        /* \"#utility.yul\":22850:22989   */\n      swap1\n      pop\n        /* \"#utility.yul\":22577:22996   */\n      swap2\n      swap1\n      pop\n      jump\t// out\n        /* \"#utility.yul\":23002:23183   */\n    tag_453:\n        /* \"#utility.yul\":23142:23175   */\n      0x5265656e7472616e637947756172643a207265656e7472616e742063616c6c00\n        /* \"#utility.yul\":23138:23139   */\n      0x00\n        /* \"#utility.yul\":23130:23136   */\n      dup3\n        /* \"#utility.yul\":23126:23140   */\n      add\n        /* \"#utility.yul\":23119:23176   */\n      mstore\n        /* \"#utility.yul\":23002:23183   */\n      pop\n      jump\t// out\n        /* \"#utility.yul\":23189:23555   */\n    tag_454:\n        /* \"#utility.yul\":23331:23334   */\n      0x00\n        /* \"#utility.yul\":23352:23419   */\n      tag_669\n        /* \"#utility.yul\":23416:23418   */\n      0x1f\n        /* \"#utility.yul\":23411:23414   */\n      dup4\n        /* \"#utility.yul\":23352:23419   */\n      tag_436\n      jump\t// in\n    tag_669:\n        /* \"#utility.yul\":23345:23419   */\n      swap2\n      pop\n        /* \"#utility.yul\":23428:23521   */\n      tag_670\n        /* \"#utility.yul\":23517:23520   */\n      dup3\n        /* \"#utility.yul\":23428:23521   */\n      tag_453\n      jump\t// in\n    tag_670:\n        /* \"#utility.yul\":23546:23548   */\n      0x20\n        /* \"#utility.yul\":23541:23544   */\n      dup3\n        /* \"#utility.yul\":23537:23549   */\n      add\n        /* \"#utility.yul\":23530:23549   */\n      swap1\n      pop\n        /* \"#utility.yul\":23189:23555   */\n      swap2\n      swap1\n      pop\n      jump\t// out\n        /* \"#utility.yul\":23561:23980   */\n    tag_354:\n        /* \"#utility.yul\":23727:23731   */\n      0x00\n        /* \"#utility.yul\":23765:23767   */\n      0x20\n        /* \"#utility.yul\":23754:23763   */\n      dup3\n        /* \"#utility.yul\":23750:23768   */\n      add\n        /* \"#utility.yul\":23742:23768   */\n      swap1\n      pop\n        /* \"#utility.yul\":23814:23823   */\n      dup2\n        /* \"#utility.yul\":23808:23812   */\n      dup2\n        /* \"#utility.yul\":23804:23824   */\n      sub\n        /* \"#utility.yul\":23800:23801   */\n      0x00\n        /* \"#utility.yul\":23789:23798   */\n      dup4\n        /* \"#utility.yul\":23785:23802   */\n      add\n        /* \"#utility.yul\":23778:23825   */\n      mstore\n        /* \"#utility.yul\":23842:23973   */\n      tag_672\n        /* \"#utility.yul\":23968:23972   */\n      dup2\n        /* \"#utility.yul\":23842:23973   */\n      tag_454\n      jump\t// in\n    tag_672:\n        /* \"#utility.yul\":23834:23973   */\n      swap1\n      pop\n        /* \"#utility.yul\":23561:23980   */\n      swap2\n      swap1\n      pop\n      jump\t// out\n        /* \"#utility.yul\":23986:24133   */\n    tag_455:\n        /* \"#utility.yul\":24087:24098   */\n      0x00\n        /* \"#utility.yul\":24124:24127   */\n      dup2\n        /* \"#utility.yul\":24109:24127   */\n      swap1\n      pop\n        /* \"#utility.yul\":23986:24133   */\n      swap3\n      swap2\n      pop\n      pop\n      jump\t// out\n        /* \"#utility.yul\":24139:24253   */\n    tag_456:\n      pop\n      jump\t// out\n        /* \"#utility.yul\":24259:24657   */\n    tag_457:\n        /* \"#utility.yul\":24418:24421   */\n      0x00\n        /* \"#utility.yul\":24439:24522   */\n      tag_676\n        /* \"#utility.yul\":24520:24521   */\n      0x00\n        /* \"#utility.yul\":24515:24518   */\n      dup4\n        /* \"#utility.yul\":24439:24522   */\n      tag_455\n      jump\t// in\n    tag_676:\n        /* \"#utility.yul\":24432:24522   */\n      swap2\n      pop\n        /* \"#utility.yul\":24531:24624   */\n      tag_677\n        /* \"#utility.yul\":24620:24623   */\n      dup3\n        /* \"#utility.yul\":24531:24624   */\n      tag_456\n      jump\t// in\n    tag_677:\n        /* \"#utility.yul\":24649:24650   */\n      0x00\n        /* \"#utility.yul\":24644:24647   */\n      dup3\n        /* \"#utility.yul\":24640:24651   */\n      add\n        /* \"#utility.yul\":24633:24651   */\n      swap1\n      pop\n        /* \"#utility.yul\":24259:24657   */\n      swap2\n      swap1\n      pop\n      jump\t// out\n        /* \"#utility.yul\":24663:25042   */\n    tag_358:\n        /* \"#utility.yul\":24847:24850   */\n      0x00\n        /* \"#utility.yul\":24869:25016   */\n      tag_679\n        /* \"#utility.yul\":25012:25015   */\n      dup3\n        /* \"#utility.yul\":24869:25016   */\n      tag_457\n      jump\t// in\n    tag_679:\n        /* \"#utility.yul\":24862:25016   */\n      swap2\n      pop\n        /* \"#utility.yul\":25033:25036   */\n      dup2\n        /* \"#utility.yul\":25026:25036   */\n      swap1\n      pop\n        /* \"#utility.yul\":24663:25042   */\n      swap2\n      swap1\n      pop\n      jump\t// out\n        /* \"#utility.yul\":25048:25214   */\n    tag_458:\n        /* \"#utility.yul\":25188:25206   */\n      0x5472616e73666572206661696c65642e00000000000000000000000000000000\n        /* \"#utility.yul\":25184:25185   */\n      0x00\n        /* \"#utility.yul\":25176:25182   */\n      dup3\n        /* \"#utility.yul\":25172:25186   */\n      add\n        /* \"#utility.yul\":25165:25207   */\n      mstore\n        /* \"#utility.yul\":25048:25214   */\n      pop\n      jump\t// out\n        /* \"#utility.yul\":25220:25586   */\n    tag_459:\n        /* \"#utility.yul\":25362:25365   */\n      0x00\n        /* \"#utility.yul\":25383:25450   */\n      tag_682\n        /* \"#utility.yul\":25447:25449   */\n      0x10\n        /* \"#utility.yul\":25442:25445   */\n      dup4\n        /* \"#utility.yul\":25383:25450   */\n      tag_436\n      jump\t// in\n    tag_682:\n        /* \"#utility.yul\":25376:25450   */\n      swap2\n      pop\n        /* \"#utility.yul\":25459:25552   */\n      tag_683\n        /* \"#utility.yul\":25548:25551   */\n      dup3\n        /* \"#utility.yul\":25459:25552   */\n      tag_458\n      jump\t// in\n    tag_683:\n        /* \"#utility.yul\":25577:25579   */\n      0x20\n        /* \"#utility.yul\":25572:25575   */\n      dup3\n        /* \"#utility.yul\":25568:25580   */\n      add\n        /* \"#utility.yul\":25561:25580   */\n      swap1\n      pop\n        /* \"#utility.yul\":25220:25586   */\n      swap2\n      swap1\n      pop\n      jump\t// out\n        /* \"#utility.yul\":25592:26011   */\n    tag_364:\n        /* \"#utility.yul\":25758:25762   */\n      0x00\n        /* \"#utility.yul\":25796:25798   */\n      0x20\n        /* \"#utility.yul\":25785:25794   */\n      dup3\n        /* \"#utility.yul\":25781:25799   */\n      add\n        /* \"#utility.yul\":25773:25799   */\n      swap1\n      pop\n        /* \"#utility.yul\":25845:25854   */\n      dup2\n        /* \"#utility.yul\":25839:25843   */\n      dup2\n        /* \"#utility.yul\":25835:25855   */\n      sub\n        /* \"#utility.yul\":25831:25832   */\n      0x00\n        /* \"#utility.yul\":25820:25829   */\n      dup4\n        /* \"#utility.yul\":25816:25833   */\n      add\n        /* \"#utility.yul\":25809:25856   */\n      mstore\n        /* \"#utility.yul\":25873:26004   */\n      tag_685\n        /* \"#utility.yul\":25999:26003   */\n      dup2\n        /* \"#utility.yul\":25873:26004   */\n      tag_459\n      jump\t// in\n    tag_685:\n        /* \"#utility.yul\":25865:26004   */\n      swap1\n      pop\n        /* \"#utility.yul\":25592:26011   */\n      swap2\n      swap1\n      pop\n      jump\t// out\n        /* \"#utility.yul\":26017:26197   */\n    tag_380:\n        /* \"#utility.yul\":26065:26142   */\n      0x4e487b7100000000000000000000000000000000000000000000000000000000\n        /* \"#utility.yul\":26062:26063   */\n      0x00\n        /* \"#utility.yul\":26055:26143   */\n      mstore\n        /* \"#utility.yul\":26162:26166   */\n      0x31\n        /* \"#utility.yul\":26159:26160   */\n      0x04\n        /* \"#utility.yul\":26152:26167   */\n      mstore\n        /* \"#utility.yul\":26186:26190   */\n      0x24\n        /* \"#utility.yul\":26183:26184   */\n      0x00\n        /* \"#utility.yul\":26176:26191   */\n      revert\n\n    auxdata: 0xa26469706673582212209ca1b2618eb4b8cb85cbc80006615945f857dae1ff52085ed0e48b9bb622e21b64736f6c63430008110033\n}\n",
				"bytecode": {
					"linkReferences": {},
					"object": "608060405273d99ce3201d3caa7ed099d01947312dfe86daaa23606860006101000a81548173ffffffffffffffffffffffffffffffffffffffff021916908373ffffffffffffffffffffffffffffffffffffffff1602179055503480156200006657600080fd5b5060016065819055506200007f6200008560201b60201c565b6200022f565b600060019054906101000a900460ff1615620000d8576040517f08c379a0000000000000000000000000000000000000000000000000000000008152600401620000cf90620001d2565b60405180910390fd5b60ff801660008054906101000a900460ff1660ff1614620001495760ff6000806101000a81548160ff021916908360ff1602179055507f7f26b83ff96e1f2b6a682f133852f6798a09c465da95921460cefb384740249860ff60405162000140919062000212565b60405180910390a15b565b600082825260208201905092915050565b7f496e697469616c697a61626c653a20636f6e747261637420697320696e69746960008201527f616c697a696e6700000000000000000000000000000000000000000000000000602082015250565b6000620001ba6027836200014b565b9150620001c7826200015c565b604082019050919050565b60006020820190508181036000830152620001ed81620001ab565b9050919050565b600060ff82169050919050565b6200020c81620001f4565b82525050565b600060208201905062000229600083018462000201565b92915050565b6135db806200023f6000396000f3fe6080604052600436106101145760003560e01c8063715018a6116100a05780639f37092a116100645780639f37092a1461038b578063b2ddee06146103a7578063f2fde38b146103d0578063f772adf1146103f9578063fa09e6301461042257610114565b8063715018a6146102cc5780638129fc1c146102e357806388700d1c146102fa57806389bfd38f146103375780638da5cb5b1461036057610114565b806324d7806c116100e757806324d7806c146101d55780632d3456701461021257806331ae450b1461023b5780634f85310f146102665780636d73e669146102a357610114565b806301ffc9a71461011957806315a70d8d146101565780631816467f146101815780631fb0080e146101aa575b600080fd5b34801561012557600080fd5b50610140600480360381019061013b919061296c565b61044b565b60405161014d91906129b4565b60405180910390f35b34801561016257600080fd5b5061016b6104c5565b6040516101789190612b7e565b60405180910390f35b34801561018d57600080fd5b506101a860048036038101906101a39190612bcc565b610740565b005b3480156101b657600080fd5b506101bf61078c565b6040516101cc9190612b7e565b60405180910390f35b3480156101e157600080fd5b506101fc60048036038101906101f79190612bcc565b6109b4565b60405161020991906129b4565b60405180910390f35b34801561021e57600080fd5b5061023960048036038101906102349190612bcc565b610a0e565b005b34801561024757600080fd5b50610250610aa2565b60405161025d9190612ca8565b60405180910390f35b34801561027257600080fd5b5061028d60048036038101906102889190612cf6565b610b84565b60405161029a9190612d78565b60405180910390f35b3480156102af57600080fd5b506102ca60048036038101906102c59190612bcc565b610caa565b005b3480156102d857600080fd5b506102e1610d3d565b005b3480156102ef57600080fd5b506102f8610d51565b005b34801561030657600080fd5b50610321600480360381019061031c9190612d93565b610e8f565b60405161032e9190612e15565b60405180910390f35b34801561034357600080fd5b5061035e60048036038101906103599190612e30565b610f64565b005b34801561036c57600080fd5b5061037561154a565b6040516103829190612e92565b60405180910390f35b6103a560048036038101906103a09190612d93565b611574565b005b3480156103b357600080fd5b506103ce60048036038101906103c99190612d93565b611a8f565b005b3480156103dc57600080fd5b506103f760048036038101906103f29190612bcc565b611e0d565b005b34801561040557600080fd5b50610420600480360381019061041b9190612e30565b611e90565b005b34801561042e57600080fd5b5061044960048036038101906104449190612bcc565b612207565b005b60007f553e757e000000000000000000000000000000000000000000000000000000007bffffffffffffffffffffffffffffffffffffffffffffffffffffffff1916827bffffffffffffffffffffffffffffffffffffffffffffffffffffffff191614806104be57506104bd8261222f565b5b9050919050565b606060006104d3606c612299565b67ffffffffffffffff8111156104ec576104eb612ead565b5b60405190808252806020026020018201604052801561052557816020015b610512612892565b81526020019060019003908161050a5790505b5090506000805b610536606c612299565b811015610737573373ffffffffffffffffffffffffffffffffffffffff16606b600083815260200190815260200160002060020160010160009054906101000a900473ffffffffffffffffffffffffffffffffffffffff1673ffffffffffffffffffffffffffffffffffffffff16036107245760011515606b600083815260200190815260200160002060050160009054906101000a900460ff16151503610723576000606b60008381526020019081526020016000209050806040518060800160405290816000820160009054906101000a900473ffffffffffffffffffffffffffffffffffffffff1673ffffffffffffffffffffffffffffffffffffffff1673ffffffffffffffffffffffffffffffffffffffff1681526020016001820154815260200160028201604051806060016040529081600082015481526020016001820160009054906101000a900473ffffffffffffffffffffffffffffffffffffffff1673ffffffffffffffffffffffffffffffffffffffff1673ffffffffffffffffffffffffffffffffffffffff16815260200160028201548152505081526020016005820160009054906101000a900460ff16151515158152505084848151811061070757610706612edc565b5b602002602001018190525060018361071f9190612f3a565b9250505b5b808061072f90612f6e565b91505061052c565b50819250505090565b6107486122a7565b80606860006101000a81548173ffffffffffffffffffffffffffffffffffffffff021916908373ffffffffffffffffffffffffffffffffffffffff16021790555050565b6060600061079a606d612299565b6107a4606c612299565b6107ae9190612fb6565b905060008167ffffffffffffffff8111156107cc576107cb612ead565b5b60405190808252806020026020018201604052801561080557816020015b6107f2612892565b8152602001906001900390816107ea5790505b5090506000805b610816606c612299565b8110156109aa5760011515606b600083815260200190815260200160002060050160009054906101000a900460ff16151503610997576000606b60008381526020019081526020016000209050806040518060800160405290816000820160009054906101000a900473ffffffffffffffffffffffffffffffffffffffff1673ffffffffffffffffffffffffffffffffffffffff1673ffffffffffffffffffffffffffffffffffffffff1681526020016001820154815260200160028201604051806060016040529081600082015481526020016001820160009054906101000a900473ffffffffffffffffffffffffffffffffffffffff1673ffffffffffffffffffffffffffffffffffffffff1673ffffffffffffffffffffffffffffffffffffffff16815260200160028201548152505081526020016005820160009054906101000a900460ff16151515158152505084848151811061097b5761097a612edc565b5b60200260200101819052506001836109939190612f3a565b9250505b80806109a290612f6e565b91505061080c565b5081935050505090565b60008173ffffffffffffffffffffffffffffffffffffffff166109d561154a565b73ffffffffffffffffffffffffffffffffffffffff161480610a075750610a0682606661232590919063ffffffff16565b5b9050919050565b610a166122a7565b610a2a81606661232590919063ffffffff16565b15610a9f573373ffffffffffffffffffffffffffffffffffffffff168173ffffffffffffffffffffffffffffffffffffffff167f7c0c3c84c67c85fcac635147348bfe374c24a1a93d0366d1cfe9d8853cbf89d560405160405180910390a3610a9d81606661235590919063ffffffff16565b505b50565b6060610aae6066612385565b67ffffffffffffffff811115610ac757610ac6612ead565b5b604051908082528060200260200182016040528015610af55781602001602082028036833780820191505090505b50905060005b610b056066612385565b811015610b8057610b2081606661239a90919063ffffffff16565b828281518110610b3357610b32612edc565b5b602002602001019073ffffffffffffffffffffffffffffffffffffffff16908173ffffffffffffffffffffffffffffffffffffffff16815250508080610b7890612f6e565b915050610afb565b5090565b610b8c612892565b606b60008381526020019081526020016000206040518060800160405290816000820160009054906101000a900473ffffffffffffffffffffffffffffffffffffffff1673ffffffffffffffffffffffffffffffffffffffff1673ffffffffffffffffffffffffffffffffffffffff1681526020016001820154815260200160028201604051806060016040529081600082015481526020016001820160009054906101000a900473ffffffffffffffffffffffffffffffffffffffff1673ffffffffffffffffffffffffffffffffffffffff1673ffffffffffffffffffffffffffffffffffffffff16815260200160028201548152505081526020016005820160009054906101000a900460ff1615151515815250509050919050565b610cb26122a7565b610cc681606661232590919063ffffffff16565b610d3a573373ffffffffffffffffffffffffffffffffffffffff168173ffffffffffffffffffffffffffffffffffffffff167f7e1a1a08d52e4ba0e21554733d66165fd5151f99460116223d9e3a608eec5cb160405160405180910390a3610d388160666123b490919063ffffffff16565b505b50565b610d456122a7565b610d4f60006123e4565b565b60008060019054906101000a900460ff16159050808015610d825750600160008054906101000a900460ff1660ff16105b80610daf5750610d91306124aa565b158015610dae5750600160008054906101000a900460ff1660ff16145b5b610dee576040517f08c379a0000000000000000000000000000000000000000000000000000000008152600401610de59061306d565b60405180910390fd5b60016000806101000a81548160ff021916908360ff1602179055508015610e2b576001600060016101000a81548160ff0219169083151502179055505b610e336124cd565b8015610e8c5760008060016101000a81548160ff0219169083151502179055507f7f26b83ff96e1f2b6a682f133852f6798a09c465da95921460cefb38474024986001604051610e8391906130df565b60405180910390a15b50565b610e976128d8565b606960008473ffffffffffffffffffffffffffffffffffffffff1673ffffffffffffffffffffffffffffffffffffffff1681526020019081526020016000206000838152602001908152602001600020604051806060016040529081600082015481526020016001820160009054906101000a900473ffffffffffffffffffffffffffffffffffffffff1673ffffffffffffffffffffffffffffffffffffffff1673ffffffffffffffffffffffffffffffffffffffff168152602001600282015481525050905092915050565b8282336000606960008573ffffffffffffffffffffffffffffffffffffffff1673ffffffffffffffffffffffffffffffffffffffff1681526020019081526020016000206000848152602001908152602001600020604051806060016040529081600082015481526020016001820160009054906101000a900473ffffffffffffffffffffffffffffffffffffffff1673ffffffffffffffffffffffffffffffffffffffff1673ffffffffffffffffffffffffffffffffffffffff168152602001600282015481525050905060008160000151111561107c5783836040517f4a5568d5000000000000000000000000000000000000000000000000000000008152600401611073929190613109565b60405180910390fd5b868633600083905060008173ffffffffffffffffffffffffffffffffffffffff16636352211e856040518263ffffffff1660e01b81526004016110bf9190613132565b602060405180830381865afa1580156110dc573d6000803e3d6000fd5b505050506040513d601f19601f820116820180604052508101906111009190613162565b90508073ffffffffffffffffffffffffffffffffffffffff168373ffffffffffffffffffffffffffffffffffffffff1614611167576040517f30cd747100000000000000000000000000000000000000000000000000000000815260040160405180910390fd5b60008a116111a1576040517fe1abbfc500000000000000000000000000000000000000000000000000000000815260040160405180910390fd5b60008c905060008c905060008290503073ffffffffffffffffffffffffffffffffffffffff168173ffffffffffffffffffffffffffffffffffffffff1663081812fc846040518263ffffffff1660e01b81526004016112009190613132565b602060405180830381865afa15801561121d573d6000803e3d6000fd5b505050506040513d601f19601f820116820180604052508101906112419190613162565b73ffffffffffffffffffffffffffffffffffffffff161461128e576040517f4be3a2c500000000000000000000000000000000000000000000000000000000815260040160405180910390fd5b600060405180606001604052808f81526020013373ffffffffffffffffffffffffffffffffffffffff1681526020016112c7606c612299565b815250905080606960008673ffffffffffffffffffffffffffffffffffffffff1673ffffffffffffffffffffffffffffffffffffffff16815260200190815260200160002060008581526020019081526020016000206000820151816000015560208201518160010160006101000a81548173ffffffffffffffffffffffffffffffffffffffff021916908373ffffffffffffffffffffffffffffffffffffffff16021790555060408201518160020155905050600060405180608001604052808673ffffffffffffffffffffffffffffffffffffffff16815260200185815260200183815260200160011515815250905080606b60006113c8606c612299565b815260200190815260200160002060008201518160000160006101000a81548173ffffffffffffffffffffffffffffffffffffffff021916908373ffffffffffffffffffffffffffffffffffffffff160217905550602082015181600101556040820151816002016000820151816000015560208201518160010160006101000a81548173ffffffffffffffffffffffffffffffffffffffff021916908373ffffffffffffffffffffffffffffffffffffffff16021790555060408201518160020155505060608201518160050160006101000a81548160ff0219169083151502179055509050506114ba606c612526565b50505050508a8c73ffffffffffffffffffffffffffffffffffffffff163373ffffffffffffffffffffffffffffffffffffffff167f424b3284a7958bb7965c27ca0b2a8b30ce2a56ba954533df15e6bded1b608ed7600161151b606c612299565b6115259190612fb6565b8e60405161153492919061318f565b60405180910390a4505050505050505050505050565b6000603360009054906101000a900473ffffffffffffffffffffffffffffffffffffffff16905090565b81816000606960008473ffffffffffffffffffffffffffffffffffffffff1673ffffffffffffffffffffffffffffffffffffffff1681526020019081526020016000206000838152602001908152602001600020604051806060016040529081600082015481526020016001820160009054906101000a900473ffffffffffffffffffffffffffffffffffffffff1673ffffffffffffffffffffffffffffffffffffffff1673ffffffffffffffffffffffffffffffffffffffff1681526020016002820154815250509050600081600001511161168a5782826040517f6831488c000000000000000000000000000000000000000000000000000000008152600401611681929190613109565b60405180910390fd5b61169261253c565b6000606960008773ffffffffffffffffffffffffffffffffffffffff1673ffffffffffffffffffffffffffffffffffffffff1681526020019081526020016000206000868152602001908152602001600020604051806060016040529081600082015481526020016001820160009054906101000a900473ffffffffffffffffffffffffffffffffffffffff1673ffffffffffffffffffffffffffffffffffffffff1673ffffffffffffffffffffffffffffffffffffffff168152602001600282015481525050905080600001513410156117ac57858582600001516040517f7c9345650000000000000000000000000000000000000000000000000000000081526004016117a3939291906131b8565b60405180910390fd5b606860009054906101000a900473ffffffffffffffffffffffffffffffffffffffff1673ffffffffffffffffffffffffffffffffffffffff166108fc606483600001516117f9919061321e565b9081150290604051600060405180830381858888f19350505050158015611824573d6000803e3d6000fd5b50806020015173ffffffffffffffffffffffffffffffffffffffff166108fc606160648460000151611856919061321e565b611860919061324f565b9081150290604051600060405180830381858888f1935050505015801561188b573d6000803e3d6000fd5b506000606b6000606960008a73ffffffffffffffffffffffffffffffffffffffff1673ffffffffffffffffffffffffffffffffffffffff168152602001908152602001600020600089815260200190815260200160002060020154815260200190815260200160002060050160006101000a81548160ff021916908315150217905550606960008773ffffffffffffffffffffffffffffffffffffffff1673ffffffffffffffffffffffffffffffffffffffff16815260200190815260200160002060008681526020019081526020016000206000808201600090556001820160006101000a81549073ffffffffffffffffffffffffffffffffffffffff0219169055600282016000905550508573ffffffffffffffffffffffffffffffffffffffff166342842e0e826020015133886040518463ffffffff1660e01b81526004016119d993929190613291565b600060405180830381600087803b1580156119f357600080fd5b505af1158015611a07573d6000803e3d6000fd5b50505050611a15606d612526565b848673ffffffffffffffffffffffffffffffffffffffff163373ffffffffffffffffffffffffffffffffffffffff167f263223b1dd81e51054a4e6f791d45a4a1ddb4aadcd93a2dfd892615c3fdac1878460000151604051611a779190613132565b60405180910390a450611a8861258b565b5050505050565b818133600083905060008173ffffffffffffffffffffffffffffffffffffffff16636352211e856040518263ffffffff1660e01b8152600401611ad29190613132565b602060405180830381865afa158015611aef573d6000803e3d6000fd5b505050506040513d601f19601f82011682018060405250810190611b139190613162565b90508073ffffffffffffffffffffffffffffffffffffffff168373ffffffffffffffffffffffffffffffffffffffff1614611b7a576040517f30cd747100000000000000000000000000000000000000000000000000000000815260040160405180910390fd5b86866000606960008473ffffffffffffffffffffffffffffffffffffffff1673ffffffffffffffffffffffffffffffffffffffff1681526020019081526020016000206000838152602001908152602001600020604051806060016040529081600082015481526020016001820160009054906101000a900473ffffffffffffffffffffffffffffffffffffffff1673ffffffffffffffffffffffffffffffffffffffff1673ffffffffffffffffffffffffffffffffffffffff16815260200160028201548152505090506000816000015111611c905782826040517f6831488c000000000000000000000000000000000000000000000000000000008152600401611c87929190613109565b60405180910390fd5b6000606b6000606960008e73ffffffffffffffffffffffffffffffffffffffff1673ffffffffffffffffffffffffffffffffffffffff16815260200190815260200160002060008d815260200190815260200160002060020154815260200190815260200160002060050160006101000a81548160ff021916908315150217905550606960008b73ffffffffffffffffffffffffffffffffffffffff1673ffffffffffffffffffffffffffffffffffffffff16815260200190815260200160002060008a81526020019081526020016000206000808201600090556001820160006101000a81549073ffffffffffffffffffffffffffffffffffffffff021916905560028201600090555050611da6606d612526565b888a73ffffffffffffffffffffffffffffffffffffffff163373ffffffffffffffffffffffffffffffffffffffff167f9ba1a3cb55ce8d63d072a886f94d2a744f50cddf82128e897d0661f5ec62315860405160405180910390a450505050505050505050565b611e156122a7565b600073ffffffffffffffffffffffffffffffffffffffff168173ffffffffffffffffffffffffffffffffffffffff1603611e84576040517f08c379a0000000000000000000000000000000000000000000000000000000008152600401611e7b9061333a565b60405180910390fd5b611e8d816123e4565b50565b82826000606960008473ffffffffffffffffffffffffffffffffffffffff1673ffffffffffffffffffffffffffffffffffffffff1681526020019081526020016000206000838152602001908152602001600020604051806060016040529081600082015481526020016001820160009054906101000a900473ffffffffffffffffffffffffffffffffffffffff1673ffffffffffffffffffffffffffffffffffffffff1673ffffffffffffffffffffffffffffffffffffffff16815260200160028201548152505090506000816000015111611fa65782826040517f6831488c000000000000000000000000000000000000000000000000000000008152600401611f9d929190613109565b60405180910390fd5b611fae61253c565b858533600083905060008173ffffffffffffffffffffffffffffffffffffffff16636352211e856040518263ffffffff1660e01b8152600401611ff19190613132565b602060405180830381865afa15801561200e573d6000803e3d6000fd5b505050506040513d601f19601f820116820180604052508101906120329190613162565b90508073ffffffffffffffffffffffffffffffffffffffff168373ffffffffffffffffffffffffffffffffffffffff1614612099576040517f30cd747100000000000000000000000000000000000000000000000000000000815260040160405180910390fd5b600089036120d3576040517fe1abbfc500000000000000000000000000000000000000000000000000000000815260040160405180910390fd5b60008b905060008b90508a606960008473ffffffffffffffffffffffffffffffffffffffff1673ffffffffffffffffffffffffffffffffffffffff1681526020019081526020016000206000838152602001908152602001600020600001819055508b8d73ffffffffffffffffffffffffffffffffffffffff163373ffffffffffffffffffffffffffffffffffffffff167f424b3284a7958bb7965c27ca0b2a8b30ce2a56ba954533df15e6bded1b608ed7606960008773ffffffffffffffffffffffffffffffffffffffff1673ffffffffffffffffffffffffffffffffffffffff1681526020019081526020016000206000868152602001908152602001600020600201548f6040516121e892919061318f565b60405180910390a4505050505050506121ff61258b565b505050505050565b61220f6122a7565b60004790506000811161222157600080fd5b61222b8247612595565b5050565b60007f01ffc9a7000000000000000000000000000000000000000000000000000000007bffffffffffffffffffffffffffffffffffffffffffffffffffffffff1916827bffffffffffffffffffffffffffffffffffffffffffffffffffffffff1916149050919050565b600081600001549050919050565b6122af612646565b73ffffffffffffffffffffffffffffffffffffffff166122cd61154a565b73ffffffffffffffffffffffffffffffffffffffff1614612323576040517f08c379a000000000000000000000000000000000000000000000000000000000815260040161231a906133a6565b60405180910390fd5b565b600061234d836000018373ffffffffffffffffffffffffffffffffffffffff1660001b61264e565b905092915050565b600061237d836000018373ffffffffffffffffffffffffffffffffffffffff1660001b612671565b905092915050565b600061239382600001612785565b9050919050565b60006123a98360000183612796565b60001c905092915050565b60006123dc836000018373ffffffffffffffffffffffffffffffffffffffff1660001b6127c1565b905092915050565b6000603360009054906101000a900473ffffffffffffffffffffffffffffffffffffffff16905081603360006101000a81548173ffffffffffffffffffffffffffffffffffffffff021916908373ffffffffffffffffffffffffffffffffffffffff1602179055508173ffffffffffffffffffffffffffffffffffffffff168173ffffffffffffffffffffffffffffffffffffffff167f8be0079c531659141344cd1fd0a4f28419497f9722a3daafe3b4186f6b6457e060405160405180910390a35050565b6000808273ffffffffffffffffffffffffffffffffffffffff163b119050919050565b600060019054906101000a900460ff1661251c576040517f08c379a000000000000000000000000000000000000000000000000000000000815260040161251390613438565b60405180910390fd5b612524612831565b565b6001816000016000828254019250508190555050565b600260655403612581576040517f08c379a0000000000000000000000000000000000000000000000000000000008152600401612578906134a4565b60405180910390fd5b6002606581905550565b6001606581905550565b60008273ffffffffffffffffffffffffffffffffffffffff16826040516125bb906134f5565b60006040518083038185875af1925050503d80600081146125f8576040519150601f19603f3d011682016040523d82523d6000602084013e6125fd565b606091505b5050905080612641576040517f08c379a000000000000000000000000000000000000000000000000000000000815260040161263890613556565b60405180910390fd5b505050565b600033905090565b600080836001016000848152602001908152602001600020541415905092915050565b600080836001016000848152602001908152602001600020549050600081146127795760006001826126a39190612fb6565b90506000600186600001805490506126bb9190612fb6565b905081811461272a5760008660000182815481106126dc576126db612edc565b5b9060005260206000200154905080876000018481548110612700576126ff612edc565b5b90600052602060002001819055508387600101600083815260200190815260200160002081905550505b8560000180548061273e5761273d613576565b5b60019003818190600052602060002001600090559055856001016000868152602001908152602001600020600090556001935050505061277f565b60009150505b92915050565b600081600001805490509050919050565b60008260000182815481106127ae576127ad612edc565b5b9060005260206000200154905092915050565b60006127cd838361264e565b61282657826000018290806001815401808255809150506001900390600052602060002001600090919091909150558260000180549050836001016000848152602001908152602001600020819055506001905061282b565b600090505b92915050565b600060019054906101000a900460ff16612880576040517f08c379a000000000000000000000000000000000000000000000000000000000815260040161287790613438565b60405180910390fd5b61289061288b612646565b6123e4565b565b6040518060800160405280600073ffffffffffffffffffffffffffffffffffffffff168152602001600081526020016128c96128d8565b81526020016000151581525090565b604051806060016040528060008152602001600073ffffffffffffffffffffffffffffffffffffffff168152602001600081525090565b600080fd5b60007fffffffff0000000000000000000000000000000000000000000000000000000082169050919050565b61294981612914565b811461295457600080fd5b50565b60008135905061296681612940565b92915050565b6000602082840312156129825761298161290f565b5b600061299084828501612957565b91505092915050565b60008115159050919050565b6129ae81612999565b82525050565b60006020820190506129c960008301846129a5565b92915050565b600081519050919050565b600082825260208201905092915050565b6000819050602082019050919050565b600073ffffffffffffffffffffffffffffffffffffffff82169050919050565b6000612a26826129fb565b9050919050565b612a3681612a1b565b82525050565b6000819050919050565b612a4f81612a3c565b82525050565b606082016000820151612a6b6000850182612a46565b506020820151612a7e6020850182612a2d565b506040820151612a916040850182612a46565b50505050565b612aa081612999565b82525050565b60c082016000820151612abc6000850182612a2d565b506020820151612acf6020850182612a46565b506040820151612ae26040850182612a55565b506060820151612af560a0850182612a97565b50505050565b6000612b078383612aa6565b60c08301905092915050565b6000602082019050919050565b6000612b2b826129cf565b612b3581856129da565b9350612b40836129eb565b8060005b83811015612b71578151612b588882612afb565b9750612b6383612b13565b925050600181019050612b44565b5085935050505092915050565b60006020820190508181036000830152612b988184612b20565b905092915050565b612ba981612a1b565b8114612bb457600080fd5b50565b600081359050612bc681612ba0565b92915050565b600060208284031215612be257612be161290f565b5b6000612bf084828501612bb7565b91505092915050565b600081519050919050565b600082825260208201905092915050565b6000819050602082019050919050565b6000612c318383612a2d565b60208301905092915050565b6000602082019050919050565b6000612c5582612bf9565b612c5f8185612c04565b9350612c6a83612c15565b8060005b83811015612c9b578151612c828882612c25565b9750612c8d83612c3d565b925050600181019050612c6e565b5085935050505092915050565b60006020820190508181036000830152612cc28184612c4a565b905092915050565b612cd381612a3c565b8114612cde57600080fd5b50565b600081359050612cf081612cca565b92915050565b600060208284031215612d0c57612d0b61290f565b5b6000612d1a84828501612ce1565b91505092915050565b60c082016000820151612d396000850182612a2d565b506020820151612d4c6020850182612a46565b506040820151612d5f6040850182612a55565b506060820151612d7260a0850182612a97565b50505050565b600060c082019050612d8d6000830184612d23565b92915050565b60008060408385031215612daa57612da961290f565b5b6000612db885828601612bb7565b9250506020612dc985828601612ce1565b9150509250929050565b606082016000820151612de96000850182612a46565b506020820151612dfc6020850182612a2d565b506040820151612e0f6040850182612a46565b50505050565b6000606082019050612e2a6000830184612dd3565b92915050565b600080600060608486031215612e4957612e4861290f565b5b6000612e5786828701612bb7565b9350506020612e6886828701612ce1565b9250506040612e7986828701612ce1565b9150509250925092565b612e8c81612a1b565b82525050565b6000602082019050612ea76000830184612e83565b92915050565b7f4e487b7100000000000000000000000000000000000000000000000000000000600052604160045260246000fd5b7f4e487b7100000000000000000000000000000000000000000000000000000000600052603260045260246000fd5b7f4e487b7100000000000000000000000000000000000000000000000000000000600052601160045260246000fd5b6000612f4582612a3c565b9150612f5083612a3c565b9250828201905080821115612f6857612f67612f0b565b5b92915050565b6000612f7982612a3c565b91507fffffffffffffffffffffffffffffffffffffffffffffffffffffffffffffffff8203612fab57612faa612f0b565b5b600182019050919050565b6000612fc182612a3c565b9150612fcc83612a3c565b9250828203905081811115612fe457612fe3612f0b565b5b92915050565b600082825260208201905092915050565b7f496e697469616c697a61626c653a20636f6e747261637420697320616c72656160008201527f647920696e697469616c697a6564000000000000000000000000000000000000602082015250565b6000613057602e83612fea565b915061306282612ffb565b604082019050919050565b600060208201905081810360008301526130868161304a565b9050919050565b6000819050919050565b600060ff82169050919050565b6000819050919050565b60006130c96130c46130bf8461308d565b6130a4565b613097565b9050919050565b6130d9816130ae565b82525050565b60006020820190506130f460008301846130d0565b92915050565b61310381612a3c565b82525050565b600060408201905061311e6000830185612e83565b61312b60208301846130fa565b9392505050565b600060208201905061314760008301846130fa565b92915050565b60008151905061315c81612ba0565b92915050565b6000602082840312156131785761317761290f565b5b60006131868482850161314d565b91505092915050565b60006040820190506131a460008301856130fa565b6131b160208301846130fa565b9392505050565b60006060820190506131cd6000830186612e83565b6131da60208301856130fa565b6131e760408301846130fa565b949350505050565b7f4e487b7100000000000000000000000000000000000000000000000000000000600052601260045260246000fd5b600061322982612a3c565b915061323483612a3c565b925082613244576132436131ef565b5b828204905092915050565b600061325a82612a3c565b915061326583612a3c565b925082820261327381612a3c565b9150828204841483151761328a57613289612f0b565b5b5092915050565b60006060820190506132a66000830186612e83565b6132b36020830185612e83565b6132c060408301846130fa565b949350505050565b7f4f776e61626c653a206e6577206f776e657220697320746865207a65726f206160008201527f6464726573730000000000000000000000000000000000000000000000000000602082015250565b6000613324602683612fea565b915061332f826132c8565b604082019050919050565b6000602082019050818103600083015261335381613317565b9050919050565b7f4f776e61626c653a2063616c6c6572206973206e6f7420746865206f776e6572600082015250565b6000613390602083612fea565b915061339b8261335a565b602082019050919050565b600060208201905081810360008301526133bf81613383565b9050919050565b7f496e697469616c697a61626c653a20636f6e7472616374206973206e6f74206960008201527f6e697469616c697a696e67000000000000000000000000000000000000000000602082015250565b6000613422602b83612fea565b915061342d826133c6565b604082019050919050565b6000602082019050818103600083015261345181613415565b9050919050565b7f5265656e7472616e637947756172643a207265656e7472616e742063616c6c00600082015250565b600061348e601f83612fea565b915061349982613458565b602082019050919050565b600060208201905081810360008301526134bd81613481565b9050919050565b600081905092915050565b50565b60006134df6000836134c4565b91506134ea826134cf565b600082019050919050565b6000613500826134d2565b9150819050919050565b7f5472616e73666572206661696c65642e00000000000000000000000000000000600082015250565b6000613540601083612fea565b915061354b8261350a565b602082019050919050565b6000602082019050818103600083015261356f81613533565b9050919050565b7f4e487b7100000000000000000000000000000000000000000000000000000000600052603160045260246000fdfea26469706673582212209ca1b2618eb4b8cb85cbc80006615945f857dae1ff52085ed0e48b9bb622e21b64736f6c63430008110033",
					"opcodes": "PUSH1 0x80 PUSH1 0x40 MSTORE PUSH20 0xD99CE3201D3CAA7ED099D01947312DFE86DAAA23 PUSH1 0x68 PUSH1 0x0 PUSH2 0x100 EXP DUP2 SLOAD DUP2 PUSH20 0xFFFFFFFFFFFFFFFFFFFFFFFFFFFFFFFFFFFFFFFF MUL NOT AND SWAP1 DUP4 PUSH20 0xFFFFFFFFFFFFFFFFFFFFFFFFFFFFFFFFFFFFFFFF AND MUL OR SWAP1 SSTORE POP CALLVALUE DUP1 ISZERO PUSH3 0x66 JUMPI PUSH1 0x0 DUP1 REVERT JUMPDEST POP PUSH1 0x1 PUSH1 0x65 DUP2 SWAP1 SSTORE POP PUSH3 0x7F PUSH3 0x85 PUSH1 0x20 SHL PUSH1 0x20 SHR JUMP JUMPDEST PUSH3 0x22F JUMP JUMPDEST PUSH1 0x0 PUSH1 0x1 SWAP1 SLOAD SWAP1 PUSH2 0x100 EXP SWAP1 DIV PUSH1 0xFF AND ISZERO PUSH3 0xD8 JUMPI PUSH1 0x40 MLOAD PUSH32 0x8C379A000000000000000000000000000000000000000000000000000000000 DUP2 MSTORE PUSH1 0x4 ADD PUSH3 0xCF SWAP1 PUSH3 0x1D2 JUMP JUMPDEST PUSH1 0x40 MLOAD DUP1 SWAP2 SUB SWAP1 REVERT JUMPDEST PUSH1 0xFF DUP1 AND PUSH1 0x0 DUP1 SLOAD SWAP1 PUSH2 0x100 EXP SWAP1 DIV PUSH1 0xFF AND PUSH1 0xFF AND EQ PUSH3 0x149 JUMPI PUSH1 0xFF PUSH1 0x0 DUP1 PUSH2 0x100 EXP DUP2 SLOAD DUP2 PUSH1 0xFF MUL NOT AND SWAP1 DUP4 PUSH1 0xFF AND MUL OR SWAP1 SSTORE POP PUSH32 0x7F26B83FF96E1F2B6A682F133852F6798A09C465DA95921460CEFB3847402498 PUSH1 0xFF PUSH1 0x40 MLOAD PUSH3 0x140 SWAP2 SWAP1 PUSH3 0x212 JUMP JUMPDEST PUSH1 0x40 MLOAD DUP1 SWAP2 SUB SWAP1 LOG1 JUMPDEST JUMP JUMPDEST PUSH1 0x0 DUP3 DUP3 MSTORE PUSH1 0x20 DUP3 ADD SWAP1 POP SWAP3 SWAP2 POP POP JUMP JUMPDEST PUSH32 0x496E697469616C697A61626C653A20636F6E747261637420697320696E697469 PUSH1 0x0 DUP3 ADD MSTORE PUSH32 0x616C697A696E6700000000000000000000000000000000000000000000000000 PUSH1 0x20 DUP3 ADD MSTORE POP JUMP JUMPDEST PUSH1 0x0 PUSH3 0x1BA PUSH1 0x27 DUP4 PUSH3 0x14B JUMP JUMPDEST SWAP2 POP PUSH3 0x1C7 DUP3 PUSH3 0x15C JUMP JUMPDEST PUSH1 0x40 DUP3 ADD SWAP1 POP SWAP2 SWAP1 POP JUMP JUMPDEST PUSH1 0x0 PUSH1 0x20 DUP3 ADD SWAP1 POP DUP2 DUP2 SUB PUSH1 0x0 DUP4 ADD MSTORE PUSH3 0x1ED DUP2 PUSH3 0x1AB JUMP JUMPDEST SWAP1 POP SWAP2 SWAP1 POP JUMP JUMPDEST PUSH1 0x0 PUSH1 0xFF DUP3 AND SWAP1 POP SWAP2 SWAP1 POP JUMP JUMPDEST PUSH3 0x20C DUP2 PUSH3 0x1F4 JUMP JUMPDEST DUP3 MSTORE POP POP JUMP JUMPDEST PUSH1 0x0 PUSH1 0x20 DUP3 ADD SWAP1 POP PUSH3 0x229 PUSH1 0x0 DUP4 ADD DUP5 PUSH3 0x201 JUMP JUMPDEST SWAP3 SWAP2 POP POP JUMP JUMPDEST PUSH2 0x35DB DUP1 PUSH3 0x23F PUSH1 0x0 CODECOPY PUSH1 0x0 RETURN INVALID PUSH1 0x80 PUSH1 0x40 MSTORE PUSH1 0x4 CALLDATASIZE LT PUSH2 0x114 JUMPI PUSH1 0x0 CALLDATALOAD PUSH1 0xE0 SHR DUP1 PUSH4 0x715018A6 GT PUSH2 0xA0 JUMPI DUP1 PUSH4 0x9F37092A GT PUSH2 0x64 JUMPI DUP1 PUSH4 0x9F37092A EQ PUSH2 0x38B JUMPI DUP1 PUSH4 0xB2DDEE06 EQ PUSH2 0x3A7 JUMPI DUP1 PUSH4 0xF2FDE38B EQ PUSH2 0x3D0 JUMPI DUP1 PUSH4 0xF772ADF1 EQ PUSH2 0x3F9 JUMPI DUP1 PUSH4 0xFA09E630 EQ PUSH2 0x422 JUMPI PUSH2 0x114 JUMP JUMPDEST DUP1 PUSH4 0x715018A6 EQ PUSH2 0x2CC JUMPI DUP1 PUSH4 0x8129FC1C EQ PUSH2 0x2E3 JUMPI DUP1 PUSH4 0x88700D1C EQ PUSH2 0x2FA JUMPI DUP1 PUSH4 0x89BFD38F EQ PUSH2 0x337 JUMPI DUP1 PUSH4 0x8DA5CB5B EQ PUSH2 0x360 JUMPI PUSH2 0x114 JUMP JUMPDEST DUP1 PUSH4 0x24D7806C GT PUSH2 0xE7 JUMPI DUP1 PUSH4 0x24D7806C EQ PUSH2 0x1D5 JUMPI DUP1 PUSH4 0x2D345670 EQ PUSH2 0x212 JUMPI DUP1 PUSH4 0x31AE450B EQ PUSH2 0x23B JUMPI DUP1 PUSH4 0x4F85310F EQ PUSH2 0x266 JUMPI DUP1 PUSH4 0x6D73E669 EQ PUSH2 0x2A3 JUMPI PUSH2 0x114 JUMP JUMPDEST DUP1 PUSH4 0x1FFC9A7 EQ PUSH2 0x119 JUMPI DUP1 PUSH4 0x15A70D8D EQ PUSH2 0x156 JUMPI DUP1 PUSH4 0x1816467F EQ PUSH2 0x181 JUMPI DUP1 PUSH4 0x1FB0080E EQ PUSH2 0x1AA JUMPI JUMPDEST PUSH1 0x0 DUP1 REVERT JUMPDEST CALLVALUE DUP1 ISZERO PUSH2 0x125 JUMPI PUSH1 0x0 DUP1 REVERT JUMPDEST POP PUSH2 0x140 PUSH1 0x4 DUP1 CALLDATASIZE SUB DUP2 ADD SWAP1 PUSH2 0x13B SWAP2 SWAP1 PUSH2 0x296C JUMP JUMPDEST PUSH2 0x44B JUMP JUMPDEST PUSH1 0x40 MLOAD PUSH2 0x14D SWAP2 SWAP1 PUSH2 0x29B4 JUMP JUMPDEST PUSH1 0x40 MLOAD DUP1 SWAP2 SUB SWAP1 RETURN JUMPDEST CALLVALUE DUP1 ISZERO PUSH2 0x162 JUMPI PUSH1 0x0 DUP1 REVERT JUMPDEST POP PUSH2 0x16B PUSH2 0x4C5 JUMP JUMPDEST PUSH1 0x40 MLOAD PUSH2 0x178 SWAP2 SWAP1 PUSH2 0x2B7E JUMP JUMPDEST PUSH1 0x40 MLOAD DUP1 SWAP2 SUB SWAP1 RETURN JUMPDEST CALLVALUE DUP1 ISZERO PUSH2 0x18D JUMPI PUSH1 0x0 DUP1 REVERT JUMPDEST POP PUSH2 0x1A8 PUSH1 0x4 DUP1 CALLDATASIZE SUB DUP2 ADD SWAP1 PUSH2 0x1A3 SWAP2 SWAP1 PUSH2 0x2BCC JUMP JUMPDEST PUSH2 0x740 JUMP JUMPDEST STOP JUMPDEST CALLVALUE DUP1 ISZERO PUSH2 0x1B6 JUMPI PUSH1 0x0 DUP1 REVERT JUMPDEST POP PUSH2 0x1BF PUSH2 0x78C JUMP JUMPDEST PUSH1 0x40 MLOAD PUSH2 0x1CC SWAP2 SWAP1 PUSH2 0x2B7E JUMP JUMPDEST PUSH1 0x40 MLOAD DUP1 SWAP2 SUB SWAP1 RETURN JUMPDEST CALLVALUE DUP1 ISZERO PUSH2 0x1E1 JUMPI PUSH1 0x0 DUP1 REVERT JUMPDEST POP PUSH2 0x1FC PUSH1 0x4 DUP1 CALLDATASIZE SUB DUP2 ADD SWAP1 PUSH2 0x1F7 SWAP2 SWAP1 PUSH2 0x2BCC JUMP JUMPDEST PUSH2 0x9B4 JUMP JUMPDEST PUSH1 0x40 MLOAD PUSH2 0x209 SWAP2 SWAP1 PUSH2 0x29B4 JUMP JUMPDEST PUSH1 0x40 MLOAD DUP1 SWAP2 SUB SWAP1 RETURN JUMPDEST CALLVALUE DUP1 ISZERO PUSH2 0x21E JUMPI PUSH1 0x0 DUP1 REVERT JUMPDEST POP PUSH2 0x239 PUSH1 0x4 DUP1 CALLDATASIZE SUB DUP2 ADD SWAP1 PUSH2 0x234 SWAP2 SWAP1 PUSH2 0x2BCC JUMP JUMPDEST PUSH2 0xA0E JUMP JUMPDEST STOP JUMPDEST CALLVALUE DUP1 ISZERO PUSH2 0x247 JUMPI PUSH1 0x0 DUP1 REVERT JUMPDEST POP PUSH2 0x250 PUSH2 0xAA2 JUMP JUMPDEST PUSH1 0x40 MLOAD PUSH2 0x25D SWAP2 SWAP1 PUSH2 0x2CA8 JUMP JUMPDEST PUSH1 0x40 MLOAD DUP1 SWAP2 SUB SWAP1 RETURN JUMPDEST CALLVALUE DUP1 ISZERO PUSH2 0x272 JUMPI PUSH1 0x0 DUP1 REVERT JUMPDEST POP PUSH2 0x28D PUSH1 0x4 DUP1 CALLDATASIZE SUB DUP2 ADD SWAP1 PUSH2 0x288 SWAP2 SWAP1 PUSH2 0x2CF6 JUMP JUMPDEST PUSH2 0xB84 JUMP JUMPDEST PUSH1 0x40 MLOAD PUSH2 0x29A SWAP2 SWAP1 PUSH2 0x2D78 JUMP JUMPDEST PUSH1 0x40 MLOAD DUP1 SWAP2 SUB SWAP1 RETURN JUMPDEST CALLVALUE DUP1 ISZERO PUSH2 0x2AF JUMPI PUSH1 0x0 DUP1 REVERT JUMPDEST POP PUSH2 0x2CA PUSH1 0x4 DUP1 CALLDATASIZE SUB DUP2 ADD SWAP1 PUSH2 0x2C5 SWAP2 SWAP1 PUSH2 0x2BCC JUMP JUMPDEST PUSH2 0xCAA JUMP JUMPDEST STOP JUMPDEST CALLVALUE DUP1 ISZERO PUSH2 0x2D8 JUMPI PUSH1 0x0 DUP1 REVERT JUMPDEST POP PUSH2 0x2E1 PUSH2 0xD3D JUMP JUMPDEST STOP JUMPDEST CALLVALUE DUP1 ISZERO PUSH2 0x2EF JUMPI PUSH1 0x0 DUP1 REVERT JUMPDEST POP PUSH2 0x2F8 PUSH2 0xD51 JUMP JUMPDEST STOP JUMPDEST CALLVALUE DUP1 ISZERO PUSH2 0x306 JUMPI PUSH1 0x0 DUP1 REVERT JUMPDEST POP PUSH2 0x321 PUSH1 0x4 DUP1 CALLDATASIZE SUB DUP2 ADD SWAP1 PUSH2 0x31C SWAP2 SWAP1 PUSH2 0x2D93 JUMP JUMPDEST PUSH2 0xE8F JUMP JUMPDEST PUSH1 0x40 MLOAD PUSH2 0x32E SWAP2 SWAP1 PUSH2 0x2E15 JUMP JUMPDEST PUSH1 0x40 MLOAD DUP1 SWAP2 SUB SWAP1 RETURN JUMPDEST CALLVALUE DUP1 ISZERO PUSH2 0x343 JUMPI PUSH1 0x0 DUP1 REVERT JUMPDEST POP PUSH2 0x35E PUSH1 0x4 DUP1 CALLDATASIZE SUB DUP2 ADD SWAP1 PUSH2 0x359 SWAP2 SWAP1 PUSH2 0x2E30 JUMP JUMPDEST PUSH2 0xF64 JUMP JUMPDEST STOP JUMPDEST CALLVALUE DUP1 ISZERO PUSH2 0x36C JUMPI PUSH1 0x0 DUP1 REVERT JUMPDEST POP PUSH2 0x375 PUSH2 0x154A JUMP JUMPDEST PUSH1 0x40 MLOAD PUSH2 0x382 SWAP2 SWAP1 PUSH2 0x2E92 JUMP JUMPDEST PUSH1 0x40 MLOAD DUP1 SWAP2 SUB SWAP1 RETURN JUMPDEST PUSH2 0x3A5 PUSH1 0x4 DUP1 CALLDATASIZE SUB DUP2 ADD SWAP1 PUSH2 0x3A0 SWAP2 SWAP1 PUSH2 0x2D93 JUMP JUMPDEST PUSH2 0x1574 JUMP JUMPDEST STOP JUMPDEST CALLVALUE DUP1 ISZERO PUSH2 0x3B3 JUMPI PUSH1 0x0 DUP1 REVERT JUMPDEST POP PUSH2 0x3CE PUSH1 0x4 DUP1 CALLDATASIZE SUB DUP2 ADD SWAP1 PUSH2 0x3C9 SWAP2 SWAP1 PUSH2 0x2D93 JUMP JUMPDEST PUSH2 0x1A8F JUMP JUMPDEST STOP JUMPDEST CALLVALUE DUP1 ISZERO PUSH2 0x3DC JUMPI PUSH1 0x0 DUP1 REVERT JUMPDEST POP PUSH2 0x3F7 PUSH1 0x4 DUP1 CALLDATASIZE SUB DUP2 ADD SWAP1 PUSH2 0x3F2 SWAP2 SWAP1 PUSH2 0x2BCC JUMP JUMPDEST PUSH2 0x1E0D JUMP JUMPDEST STOP JUMPDEST CALLVALUE DUP1 ISZERO PUSH2 0x405 JUMPI PUSH1 0x0 DUP1 REVERT JUMPDEST POP PUSH2 0x420 PUSH1 0x4 DUP1 CALLDATASIZE SUB DUP2 ADD SWAP1 PUSH2 0x41B SWAP2 SWAP1 PUSH2 0x2E30 JUMP JUMPDEST PUSH2 0x1E90 JUMP JUMPDEST STOP JUMPDEST CALLVALUE DUP1 ISZERO PUSH2 0x42E JUMPI PUSH1 0x0 DUP1 REVERT JUMPDEST POP PUSH2 0x449 PUSH1 0x4 DUP1 CALLDATASIZE SUB DUP2 ADD SWAP1 PUSH2 0x444 SWAP2 SWAP1 PUSH2 0x2BCC JUMP JUMPDEST PUSH2 0x2207 JUMP JUMPDEST STOP JUMPDEST PUSH1 0x0 PUSH32 0x553E757E00000000000000000000000000000000000000000000000000000000 PUSH28 0xFFFFFFFFFFFFFFFFFFFFFFFFFFFFFFFFFFFFFFFFFFFFFFFFFFFFFFFF NOT AND DUP3 PUSH28 0xFFFFFFFFFFFFFFFFFFFFFFFFFFFFFFFFFFFFFFFFFFFFFFFFFFFFFFFF NOT AND EQ DUP1 PUSH2 0x4BE JUMPI POP PUSH2 0x4BD DUP3 PUSH2 0x222F JUMP JUMPDEST JUMPDEST SWAP1 POP SWAP2 SWAP1 POP JUMP JUMPDEST PUSH1 0x60 PUSH1 0x0 PUSH2 0x4D3 PUSH1 0x6C PUSH2 0x2299 JUMP JUMPDEST PUSH8 0xFFFFFFFFFFFFFFFF DUP2 GT ISZERO PUSH2 0x4EC JUMPI PUSH2 0x4EB PUSH2 0x2EAD JUMP JUMPDEST JUMPDEST PUSH1 0x40 MLOAD SWAP1 DUP1 DUP3 MSTORE DUP1 PUSH1 0x20 MUL PUSH1 0x20 ADD DUP3 ADD PUSH1 0x40 MSTORE DUP1 ISZERO PUSH2 0x525 JUMPI DUP2 PUSH1 0x20 ADD JUMPDEST PUSH2 0x512 PUSH2 0x2892 JUMP JUMPDEST DUP2 MSTORE PUSH1 0x20 ADD SWAP1 PUSH1 0x1 SWAP1 SUB SWAP1 DUP2 PUSH2 0x50A JUMPI SWAP1 POP JUMPDEST POP SWAP1 POP PUSH1 0x0 DUP1 JUMPDEST PUSH2 0x536 PUSH1 0x6C PUSH2 0x2299 JUMP JUMPDEST DUP2 LT ISZERO PUSH2 0x737 JUMPI CALLER PUSH20 0xFFFFFFFFFFFFFFFFFFFFFFFFFFFFFFFFFFFFFFFF AND PUSH1 0x6B PUSH1 0x0 DUP4 DUP2 MSTORE PUSH1 0x20 ADD SWAP1 DUP2 MSTORE PUSH1 0x20 ADD PUSH1 0x0 KECCAK256 PUSH1 0x2 ADD PUSH1 0x1 ADD PUSH1 0x0 SWAP1 SLOAD SWAP1 PUSH2 0x100 EXP SWAP1 DIV PUSH20 0xFFFFFFFFFFFFFFFFFFFFFFFFFFFFFFFFFFFFFFFF AND PUSH20 0xFFFFFFFFFFFFFFFFFFFFFFFFFFFFFFFFFFFFFFFF AND SUB PUSH2 0x724 JUMPI PUSH1 0x1 ISZERO ISZERO PUSH1 0x6B PUSH1 0x0 DUP4 DUP2 MSTORE PUSH1 0x20 ADD SWAP1 DUP2 MSTORE PUSH1 0x20 ADD PUSH1 0x0 KECCAK256 PUSH1 0x5 ADD PUSH1 0x0 SWAP1 SLOAD SWAP1 PUSH2 0x100 EXP SWAP1 DIV PUSH1 0xFF AND ISZERO ISZERO SUB PUSH2 0x723 JUMPI PUSH1 0x0 PUSH1 0x6B PUSH1 0x0 DUP4 DUP2 MSTORE PUSH1 0x20 ADD SWAP1 DUP2 MSTORE PUSH1 0x20 ADD PUSH1 0x0 KECCAK256 SWAP1 POP DUP1 PUSH1 0x40 MLOAD DUP1 PUSH1 0x80 ADD PUSH1 0x40 MSTORE SWAP1 DUP2 PUSH1 0x0 DUP3 ADD PUSH1 0x0 SWAP1 SLOAD SWAP1 PUSH2 0x100 EXP SWAP1 DIV PUSH20 0xFFFFFFFFFFFFFFFFFFFFFFFFFFFFFFFFFFFFFFFF AND PUSH20 0xFFFFFFFFFFFFFFFFFFFFFFFFFFFFFFFFFFFFFFFF AND PUSH20 0xFFFFFFFFFFFFFFFFFFFFFFFFFFFFFFFFFFFFFFFF AND DUP2 MSTORE PUSH1 0x20 ADD PUSH1 0x1 DUP3 ADD SLOAD DUP2 MSTORE PUSH1 0x20 ADD PUSH1 0x2 DUP3 ADD PUSH1 0x40 MLOAD DUP1 PUSH1 0x60 ADD PUSH1 0x40 MSTORE SWAP1 DUP2 PUSH1 0x0 DUP3 ADD SLOAD DUP2 MSTORE PUSH1 0x20 ADD PUSH1 0x1 DUP3 ADD PUSH1 0x0 SWAP1 SLOAD SWAP1 PUSH2 0x100 EXP SWAP1 DIV PUSH20 0xFFFFFFFFFFFFFFFFFFFFFFFFFFFFFFFFFFFFFFFF AND PUSH20 0xFFFFFFFFFFFFFFFFFFFFFFFFFFFFFFFFFFFFFFFF AND PUSH20 0xFFFFFFFFFFFFFFFFFFFFFFFFFFFFFFFFFFFFFFFF AND DUP2 MSTORE PUSH1 0x20 ADD PUSH1 0x2 DUP3 ADD SLOAD DUP2 MSTORE POP POP DUP2 MSTORE PUSH1 0x20 ADD PUSH1 0x5 DUP3 ADD PUSH1 0x0 SWAP1 SLOAD SWAP1 PUSH2 0x100 EXP SWAP1 DIV PUSH1 0xFF AND ISZERO ISZERO ISZERO ISZERO DUP2 MSTORE POP POP DUP5 DUP5 DUP2 MLOAD DUP2 LT PUSH2 0x707 JUMPI PUSH2 0x706 PUSH2 0x2EDC JUMP JUMPDEST JUMPDEST PUSH1 0x20 MUL PUSH1 0x20 ADD ADD DUP2 SWAP1 MSTORE POP PUSH1 0x1 DUP4 PUSH2 0x71F SWAP2 SWAP1 PUSH2 0x2F3A JUMP JUMPDEST SWAP3 POP POP JUMPDEST JUMPDEST DUP1 DUP1 PUSH2 0x72F SWAP1 PUSH2 0x2F6E JUMP JUMPDEST SWAP2 POP POP PUSH2 0x52C JUMP JUMPDEST POP DUP2 SWAP3 POP POP POP SWAP1 JUMP JUMPDEST PUSH2 0x748 PUSH2 0x22A7 JUMP JUMPDEST DUP1 PUSH1 0x68 PUSH1 0x0 PUSH2 0x100 EXP DUP2 SLOAD DUP2 PUSH20 0xFFFFFFFFFFFFFFFFFFFFFFFFFFFFFFFFFFFFFFFF MUL NOT AND SWAP1 DUP4 PUSH20 0xFFFFFFFFFFFFFFFFFFFFFFFFFFFFFFFFFFFFFFFF AND MUL OR SWAP1 SSTORE POP POP JUMP JUMPDEST PUSH1 0x60 PUSH1 0x0 PUSH2 0x79A PUSH1 0x6D PUSH2 0x2299 JUMP JUMPDEST PUSH2 0x7A4 PUSH1 0x6C PUSH2 0x2299 JUMP JUMPDEST PUSH2 0x7AE SWAP2 SWAP1 PUSH2 0x2FB6 JUMP JUMPDEST SWAP1 POP PUSH1 0x0 DUP2 PUSH8 0xFFFFFFFFFFFFFFFF DUP2 GT ISZERO PUSH2 0x7CC JUMPI PUSH2 0x7CB PUSH2 0x2EAD JUMP JUMPDEST JUMPDEST PUSH1 0x40 MLOAD SWAP1 DUP1 DUP3 MSTORE DUP1 PUSH1 0x20 MUL PUSH1 0x20 ADD DUP3 ADD PUSH1 0x40 MSTORE DUP1 ISZERO PUSH2 0x805 JUMPI DUP2 PUSH1 0x20 ADD JUMPDEST PUSH2 0x7F2 PUSH2 0x2892 JUMP JUMPDEST DUP2 MSTORE PUSH1 0x20 ADD SWAP1 PUSH1 0x1 SWAP1 SUB SWAP1 DUP2 PUSH2 0x7EA JUMPI SWAP1 POP JUMPDEST POP SWAP1 POP PUSH1 0x0 DUP1 JUMPDEST PUSH2 0x816 PUSH1 0x6C PUSH2 0x2299 JUMP JUMPDEST DUP2 LT ISZERO PUSH2 0x9AA JUMPI PUSH1 0x1 ISZERO ISZERO PUSH1 0x6B PUSH1 0x0 DUP4 DUP2 MSTORE PUSH1 0x20 ADD SWAP1 DUP2 MSTORE PUSH1 0x20 ADD PUSH1 0x0 KECCAK256 PUSH1 0x5 ADD PUSH1 0x0 SWAP1 SLOAD SWAP1 PUSH2 0x100 EXP SWAP1 DIV PUSH1 0xFF AND ISZERO ISZERO SUB PUSH2 0x997 JUMPI PUSH1 0x0 PUSH1 0x6B PUSH1 0x0 DUP4 DUP2 MSTORE PUSH1 0x20 ADD SWAP1 DUP2 MSTORE PUSH1 0x20 ADD PUSH1 0x0 KECCAK256 SWAP1 POP DUP1 PUSH1 0x40 MLOAD DUP1 PUSH1 0x80 ADD PUSH1 0x40 MSTORE SWAP1 DUP2 PUSH1 0x0 DUP3 ADD PUSH1 0x0 SWAP1 SLOAD SWAP1 PUSH2 0x100 EXP SWAP1 DIV PUSH20 0xFFFFFFFFFFFFFFFFFFFFFFFFFFFFFFFFFFFFFFFF AND PUSH20 0xFFFFFFFFFFFFFFFFFFFFFFFFFFFFFFFFFFFFFFFF AND PUSH20 0xFFFFFFFFFFFFFFFFFFFFFFFFFFFFFFFFFFFFFFFF AND DUP2 MSTORE PUSH1 0x20 ADD PUSH1 0x1 DUP3 ADD SLOAD DUP2 MSTORE PUSH1 0x20 ADD PUSH1 0x2 DUP3 ADD PUSH1 0x40 MLOAD DUP1 PUSH1 0x60 ADD PUSH1 0x40 MSTORE SWAP1 DUP2 PUSH1 0x0 DUP3 ADD SLOAD DUP2 MSTORE PUSH1 0x20 ADD PUSH1 0x1 DUP3 ADD PUSH1 0x0 SWAP1 SLOAD SWAP1 PUSH2 0x100 EXP SWAP1 DIV PUSH20 0xFFFFFFFFFFFFFFFFFFFFFFFFFFFFFFFFFFFFFFFF AND PUSH20 0xFFFFFFFFFFFFFFFFFFFFFFFFFFFFFFFFFFFFFFFF AND PUSH20 0xFFFFFFFFFFFFFFFFFFFFFFFFFFFFFFFFFFFFFFFF AND DUP2 MSTORE PUSH1 0x20 ADD PUSH1 0x2 DUP3 ADD SLOAD DUP2 MSTORE POP POP DUP2 MSTORE PUSH1 0x20 ADD PUSH1 0x5 DUP3 ADD PUSH1 0x0 SWAP1 SLOAD SWAP1 PUSH2 0x100 EXP SWAP1 DIV PUSH1 0xFF AND ISZERO ISZERO ISZERO ISZERO DUP2 MSTORE POP POP DUP5 DUP5 DUP2 MLOAD DUP2 LT PUSH2 0x97B JUMPI PUSH2 0x97A PUSH2 0x2EDC JUMP JUMPDEST JUMPDEST PUSH1 0x20 MUL PUSH1 0x20 ADD ADD DUP2 SWAP1 MSTORE POP PUSH1 0x1 DUP4 PUSH2 0x993 SWAP2 SWAP1 PUSH2 0x2F3A JUMP JUMPDEST SWAP3 POP POP JUMPDEST DUP1 DUP1 PUSH2 0x9A2 SWAP1 PUSH2 0x2F6E JUMP JUMPDEST SWAP2 POP POP PUSH2 0x80C JUMP JUMPDEST POP DUP2 SWAP4 POP POP POP POP SWAP1 JUMP JUMPDEST PUSH1 0x0 DUP2 PUSH20 0xFFFFFFFFFFFFFFFFFFFFFFFFFFFFFFFFFFFFFFFF AND PUSH2 0x9D5 PUSH2 0x154A JUMP JUMPDEST PUSH20 0xFFFFFFFFFFFFFFFFFFFFFFFFFFFFFFFFFFFFFFFF AND EQ DUP1 PUSH2 0xA07 JUMPI POP PUSH2 0xA06 DUP3 PUSH1 0x66 PUSH2 0x2325 SWAP1 SWAP2 SWAP1 PUSH4 0xFFFFFFFF AND JUMP JUMPDEST JUMPDEST SWAP1 POP SWAP2 SWAP1 POP JUMP JUMPDEST PUSH2 0xA16 PUSH2 0x22A7 JUMP JUMPDEST PUSH2 0xA2A DUP2 PUSH1 0x66 PUSH2 0x2325 SWAP1 SWAP2 SWAP1 PUSH4 0xFFFFFFFF AND JUMP JUMPDEST ISZERO PUSH2 0xA9F JUMPI CALLER PUSH20 0xFFFFFFFFFFFFFFFFFFFFFFFFFFFFFFFFFFFFFFFF AND DUP2 PUSH20 0xFFFFFFFFFFFFFFFFFFFFFFFFFFFFFFFFFFFFFFFF AND PUSH32 0x7C0C3C84C67C85FCAC635147348BFE374C24A1A93D0366D1CFE9D8853CBF89D5 PUSH1 0x40 MLOAD PUSH1 0x40 MLOAD DUP1 SWAP2 SUB SWAP1 LOG3 PUSH2 0xA9D DUP2 PUSH1 0x66 PUSH2 0x2355 SWAP1 SWAP2 SWAP1 PUSH4 0xFFFFFFFF AND JUMP JUMPDEST POP JUMPDEST POP JUMP JUMPDEST PUSH1 0x60 PUSH2 0xAAE PUSH1 0x66 PUSH2 0x2385 JUMP JUMPDEST PUSH8 0xFFFFFFFFFFFFFFFF DUP2 GT ISZERO PUSH2 0xAC7 JUMPI PUSH2 0xAC6 PUSH2 0x2EAD JUMP JUMPDEST JUMPDEST PUSH1 0x40 MLOAD SWAP1 DUP1 DUP3 MSTORE DUP1 PUSH1 0x20 MUL PUSH1 0x20 ADD DUP3 ADD PUSH1 0x40 MSTORE DUP1 ISZERO PUSH2 0xAF5 JUMPI DUP2 PUSH1 0x20 ADD PUSH1 0x20 DUP3 MUL DUP1 CALLDATASIZE DUP4 CALLDATACOPY DUP1 DUP3 ADD SWAP2 POP POP SWAP1 POP JUMPDEST POP SWAP1 POP PUSH1 0x0 JUMPDEST PUSH2 0xB05 PUSH1 0x66 PUSH2 0x2385 JUMP JUMPDEST DUP2 LT ISZERO PUSH2 0xB80 JUMPI PUSH2 0xB20 DUP2 PUSH1 0x66 PUSH2 0x239A SWAP1 SWAP2 SWAP1 PUSH4 0xFFFFFFFF AND JUMP JUMPDEST DUP3 DUP3 DUP2 MLOAD DUP2 LT PUSH2 0xB33 JUMPI PUSH2 0xB32 PUSH2 0x2EDC JUMP JUMPDEST JUMPDEST PUSH1 0x20 MUL PUSH1 0x20 ADD ADD SWAP1 PUSH20 0xFFFFFFFFFFFFFFFFFFFFFFFFFFFFFFFFFFFFFFFF AND SWAP1 DUP2 PUSH20 0xFFFFFFFFFFFFFFFFFFFFFFFFFFFFFFFFFFFFFFFF AND DUP2 MSTORE POP POP DUP1 DUP1 PUSH2 0xB78 SWAP1 PUSH2 0x2F6E JUMP JUMPDEST SWAP2 POP POP PUSH2 0xAFB JUMP JUMPDEST POP SWAP1 JUMP JUMPDEST PUSH2 0xB8C PUSH2 0x2892 JUMP JUMPDEST PUSH1 0x6B PUSH1 0x0 DUP4 DUP2 MSTORE PUSH1 0x20 ADD SWAP1 DUP2 MSTORE PUSH1 0x20 ADD PUSH1 0x0 KECCAK256 PUSH1 0x40 MLOAD DUP1 PUSH1 0x80 ADD PUSH1 0x40 MSTORE SWAP1 DUP2 PUSH1 0x0 DUP3 ADD PUSH1 0x0 SWAP1 SLOAD SWAP1 PUSH2 0x100 EXP SWAP1 DIV PUSH20 0xFFFFFFFFFFFFFFFFFFFFFFFFFFFFFFFFFFFFFFFF AND PUSH20 0xFFFFFFFFFFFFFFFFFFFFFFFFFFFFFFFFFFFFFFFF AND PUSH20 0xFFFFFFFFFFFFFFFFFFFFFFFFFFFFFFFFFFFFFFFF AND DUP2 MSTORE PUSH1 0x20 ADD PUSH1 0x1 DUP3 ADD SLOAD DUP2 MSTORE PUSH1 0x20 ADD PUSH1 0x2 DUP3 ADD PUSH1 0x40 MLOAD DUP1 PUSH1 0x60 ADD PUSH1 0x40 MSTORE SWAP1 DUP2 PUSH1 0x0 DUP3 ADD SLOAD DUP2 MSTORE PUSH1 0x20 ADD PUSH1 0x1 DUP3 ADD PUSH1 0x0 SWAP1 SLOAD SWAP1 PUSH2 0x100 EXP SWAP1 DIV PUSH20 0xFFFFFFFFFFFFFFFFFFFFFFFFFFFFFFFFFFFFFFFF AND PUSH20 0xFFFFFFFFFFFFFFFFFFFFFFFFFFFFFFFFFFFFFFFF AND PUSH20 0xFFFFFFFFFFFFFFFFFFFFFFFFFFFFFFFFFFFFFFFF AND DUP2 MSTORE PUSH1 0x20 ADD PUSH1 0x2 DUP3 ADD SLOAD DUP2 MSTORE POP POP DUP2 MSTORE PUSH1 0x20 ADD PUSH1 0x5 DUP3 ADD PUSH1 0x0 SWAP1 SLOAD SWAP1 PUSH2 0x100 EXP SWAP1 DIV PUSH1 0xFF AND ISZERO ISZERO ISZERO ISZERO DUP2 MSTORE POP POP SWAP1 POP SWAP2 SWAP1 POP JUMP JUMPDEST PUSH2 0xCB2 PUSH2 0x22A7 JUMP JUMPDEST PUSH2 0xCC6 DUP2 PUSH1 0x66 PUSH2 0x2325 SWAP1 SWAP2 SWAP1 PUSH4 0xFFFFFFFF AND JUMP JUMPDEST PUSH2 0xD3A JUMPI CALLER PUSH20 0xFFFFFFFFFFFFFFFFFFFFFFFFFFFFFFFFFFFFFFFF AND DUP2 PUSH20 0xFFFFFFFFFFFFFFFFFFFFFFFFFFFFFFFFFFFFFFFF AND PUSH32 0x7E1A1A08D52E4BA0E21554733D66165FD5151F99460116223D9E3A608EEC5CB1 PUSH1 0x40 MLOAD PUSH1 0x40 MLOAD DUP1 SWAP2 SUB SWAP1 LOG3 PUSH2 0xD38 DUP2 PUSH1 0x66 PUSH2 0x23B4 SWAP1 SWAP2 SWAP1 PUSH4 0xFFFFFFFF AND JUMP JUMPDEST POP JUMPDEST POP JUMP JUMPDEST PUSH2 0xD45 PUSH2 0x22A7 JUMP JUMPDEST PUSH2 0xD4F PUSH1 0x0 PUSH2 0x23E4 JUMP JUMPDEST JUMP JUMPDEST PUSH1 0x0 DUP1 PUSH1 0x1 SWAP1 SLOAD SWAP1 PUSH2 0x100 EXP SWAP1 DIV PUSH1 0xFF AND ISZERO SWAP1 POP DUP1 DUP1 ISZERO PUSH2 0xD82 JUMPI POP PUSH1 0x1 PUSH1 0x0 DUP1 SLOAD SWAP1 PUSH2 0x100 EXP SWAP1 DIV PUSH1 0xFF AND PUSH1 0xFF AND LT JUMPDEST DUP1 PUSH2 0xDAF JUMPI POP PUSH2 0xD91 ADDRESS PUSH2 0x24AA JUMP JUMPDEST ISZERO DUP1 ISZERO PUSH2 0xDAE JUMPI POP PUSH1 0x1 PUSH1 0x0 DUP1 SLOAD SWAP1 PUSH2 0x100 EXP SWAP1 DIV PUSH1 0xFF AND PUSH1 0xFF AND EQ JUMPDEST JUMPDEST PUSH2 0xDEE JUMPI PUSH1 0x40 MLOAD PUSH32 0x8C379A000000000000000000000000000000000000000000000000000000000 DUP2 MSTORE PUSH1 0x4 ADD PUSH2 0xDE5 SWAP1 PUSH2 0x306D JUMP JUMPDEST PUSH1 0x40 MLOAD DUP1 SWAP2 SUB SWAP1 REVERT JUMPDEST PUSH1 0x1 PUSH1 0x0 DUP1 PUSH2 0x100 EXP DUP2 SLOAD DUP2 PUSH1 0xFF MUL NOT AND SWAP1 DUP4 PUSH1 0xFF AND MUL OR SWAP1 SSTORE POP DUP1 ISZERO PUSH2 0xE2B JUMPI PUSH1 0x1 PUSH1 0x0 PUSH1 0x1 PUSH2 0x100 EXP DUP2 SLOAD DUP2 PUSH1 0xFF MUL NOT AND SWAP1 DUP4 ISZERO ISZERO MUL OR SWAP1 SSTORE POP JUMPDEST PUSH2 0xE33 PUSH2 0x24CD JUMP JUMPDEST DUP1 ISZERO PUSH2 0xE8C JUMPI PUSH1 0x0 DUP1 PUSH1 0x1 PUSH2 0x100 EXP DUP2 SLOAD DUP2 PUSH1 0xFF MUL NOT AND SWAP1 DUP4 ISZERO ISZERO MUL OR SWAP1 SSTORE POP PUSH32 0x7F26B83FF96E1F2B6A682F133852F6798A09C465DA95921460CEFB3847402498 PUSH1 0x1 PUSH1 0x40 MLOAD PUSH2 0xE83 SWAP2 SWAP1 PUSH2 0x30DF JUMP JUMPDEST PUSH1 0x40 MLOAD DUP1 SWAP2 SUB SWAP1 LOG1 JUMPDEST POP JUMP JUMPDEST PUSH2 0xE97 PUSH2 0x28D8 JUMP JUMPDEST PUSH1 0x69 PUSH1 0x0 DUP5 PUSH20 0xFFFFFFFFFFFFFFFFFFFFFFFFFFFFFFFFFFFFFFFF AND PUSH20 0xFFFFFFFFFFFFFFFFFFFFFFFFFFFFFFFFFFFFFFFF AND DUP2 MSTORE PUSH1 0x20 ADD SWAP1 DUP2 MSTORE PUSH1 0x20 ADD PUSH1 0x0 KECCAK256 PUSH1 0x0 DUP4 DUP2 MSTORE PUSH1 0x20 ADD SWAP1 DUP2 MSTORE PUSH1 0x20 ADD PUSH1 0x0 KECCAK256 PUSH1 0x40 MLOAD DUP1 PUSH1 0x60 ADD PUSH1 0x40 MSTORE SWAP1 DUP2 PUSH1 0x0 DUP3 ADD SLOAD DUP2 MSTORE PUSH1 0x20 ADD PUSH1 0x1 DUP3 ADD PUSH1 0x0 SWAP1 SLOAD SWAP1 PUSH2 0x100 EXP SWAP1 DIV PUSH20 0xFFFFFFFFFFFFFFFFFFFFFFFFFFFFFFFFFFFFFFFF AND PUSH20 0xFFFFFFFFFFFFFFFFFFFFFFFFFFFFFFFFFFFFFFFF AND PUSH20 0xFFFFFFFFFFFFFFFFFFFFFFFFFFFFFFFFFFFFFFFF AND DUP2 MSTORE PUSH1 0x20 ADD PUSH1 0x2 DUP3 ADD SLOAD DUP2 MSTORE POP POP SWAP1 POP SWAP3 SWAP2 POP POP JUMP JUMPDEST DUP3 DUP3 CALLER PUSH1 0x0 PUSH1 0x69 PUSH1 0x0 DUP6 PUSH20 0xFFFFFFFFFFFFFFFFFFFFFFFFFFFFFFFFFFFFFFFF AND PUSH20 0xFFFFFFFFFFFFFFFFFFFFFFFFFFFFFFFFFFFFFFFF AND DUP2 MSTORE PUSH1 0x20 ADD SWAP1 DUP2 MSTORE PUSH1 0x20 ADD PUSH1 0x0 KECCAK256 PUSH1 0x0 DUP5 DUP2 MSTORE PUSH1 0x20 ADD SWAP1 DUP2 MSTORE PUSH1 0x20 ADD PUSH1 0x0 KECCAK256 PUSH1 0x40 MLOAD DUP1 PUSH1 0x60 ADD PUSH1 0x40 MSTORE SWAP1 DUP2 PUSH1 0x0 DUP3 ADD SLOAD DUP2 MSTORE PUSH1 0x20 ADD PUSH1 0x1 DUP3 ADD PUSH1 0x0 SWAP1 SLOAD SWAP1 PUSH2 0x100 EXP SWAP1 DIV PUSH20 0xFFFFFFFFFFFFFFFFFFFFFFFFFFFFFFFFFFFFFFFF AND PUSH20 0xFFFFFFFFFFFFFFFFFFFFFFFFFFFFFFFFFFFFFFFF AND PUSH20 0xFFFFFFFFFFFFFFFFFFFFFFFFFFFFFFFFFFFFFFFF AND DUP2 MSTORE PUSH1 0x20 ADD PUSH1 0x2 DUP3 ADD SLOAD DUP2 MSTORE POP POP SWAP1 POP PUSH1 0x0 DUP2 PUSH1 0x0 ADD MLOAD GT ISZERO PUSH2 0x107C JUMPI DUP4 DUP4 PUSH1 0x40 MLOAD PUSH32 0x4A5568D500000000000000000000000000000000000000000000000000000000 DUP2 MSTORE PUSH1 0x4 ADD PUSH2 0x1073 SWAP3 SWAP2 SWAP1 PUSH2 0x3109 JUMP JUMPDEST PUSH1 0x40 MLOAD DUP1 SWAP2 SUB SWAP1 REVERT JUMPDEST DUP7 DUP7 CALLER PUSH1 0x0 DUP4 SWAP1 POP PUSH1 0x0 DUP2 PUSH20 0xFFFFFFFFFFFFFFFFFFFFFFFFFFFFFFFFFFFFFFFF AND PUSH4 0x6352211E DUP6 PUSH1 0x40 MLOAD DUP3 PUSH4 0xFFFFFFFF AND PUSH1 0xE0 SHL DUP2 MSTORE PUSH1 0x4 ADD PUSH2 0x10BF SWAP2 SWAP1 PUSH2 0x3132 JUMP JUMPDEST PUSH1 0x20 PUSH1 0x40 MLOAD DUP1 DUP4 SUB DUP2 DUP7 GAS STATICCALL ISZERO DUP1 ISZERO PUSH2 0x10DC JUMPI RETURNDATASIZE PUSH1 0x0 DUP1 RETURNDATACOPY RETURNDATASIZE PUSH1 0x0 REVERT JUMPDEST POP POP POP POP PUSH1 0x40 MLOAD RETURNDATASIZE PUSH1 0x1F NOT PUSH1 0x1F DUP3 ADD AND DUP3 ADD DUP1 PUSH1 0x40 MSTORE POP DUP2 ADD SWAP1 PUSH2 0x1100 SWAP2 SWAP1 PUSH2 0x3162 JUMP JUMPDEST SWAP1 POP DUP1 PUSH20 0xFFFFFFFFFFFFFFFFFFFFFFFFFFFFFFFFFFFFFFFF AND DUP4 PUSH20 0xFFFFFFFFFFFFFFFFFFFFFFFFFFFFFFFFFFFFFFFF AND EQ PUSH2 0x1167 JUMPI PUSH1 0x40 MLOAD PUSH32 0x30CD747100000000000000000000000000000000000000000000000000000000 DUP2 MSTORE PUSH1 0x4 ADD PUSH1 0x40 MLOAD DUP1 SWAP2 SUB SWAP1 REVERT JUMPDEST PUSH1 0x0 DUP11 GT PUSH2 0x11A1 JUMPI PUSH1 0x40 MLOAD PUSH32 0xE1ABBFC500000000000000000000000000000000000000000000000000000000 DUP2 MSTORE PUSH1 0x4 ADD PUSH1 0x40 MLOAD DUP1 SWAP2 SUB SWAP1 REVERT JUMPDEST PUSH1 0x0 DUP13 SWAP1 POP PUSH1 0x0 DUP13 SWAP1 POP PUSH1 0x0 DUP3 SWAP1 POP ADDRESS PUSH20 0xFFFFFFFFFFFFFFFFFFFFFFFFFFFFFFFFFFFFFFFF AND DUP2 PUSH20 0xFFFFFFFFFFFFFFFFFFFFFFFFFFFFFFFFFFFFFFFF AND PUSH4 0x81812FC DUP5 PUSH1 0x40 MLOAD DUP3 PUSH4 0xFFFFFFFF AND PUSH1 0xE0 SHL DUP2 MSTORE PUSH1 0x4 ADD PUSH2 0x1200 SWAP2 SWAP1 PUSH2 0x3132 JUMP JUMPDEST PUSH1 0x20 PUSH1 0x40 MLOAD DUP1 DUP4 SUB DUP2 DUP7 GAS STATICCALL ISZERO DUP1 ISZERO PUSH2 0x121D JUMPI RETURNDATASIZE PUSH1 0x0 DUP1 RETURNDATACOPY RETURNDATASIZE PUSH1 0x0 REVERT JUMPDEST POP POP POP POP PUSH1 0x40 MLOAD RETURNDATASIZE PUSH1 0x1F NOT PUSH1 0x1F DUP3 ADD AND DUP3 ADD DUP1 PUSH1 0x40 MSTORE POP DUP2 ADD SWAP1 PUSH2 0x1241 SWAP2 SWAP1 PUSH2 0x3162 JUMP JUMPDEST PUSH20 0xFFFFFFFFFFFFFFFFFFFFFFFFFFFFFFFFFFFFFFFF AND EQ PUSH2 0x128E JUMPI PUSH1 0x40 MLOAD PUSH32 0x4BE3A2C500000000000000000000000000000000000000000000000000000000 DUP2 MSTORE PUSH1 0x4 ADD PUSH1 0x40 MLOAD DUP1 SWAP2 SUB SWAP1 REVERT JUMPDEST PUSH1 0x0 PUSH1 0x40 MLOAD DUP1 PUSH1 0x60 ADD PUSH1 0x40 MSTORE DUP1 DUP16 DUP2 MSTORE PUSH1 0x20 ADD CALLER PUSH20 0xFFFFFFFFFFFFFFFFFFFFFFFFFFFFFFFFFFFFFFFF AND DUP2 MSTORE PUSH1 0x20 ADD PUSH2 0x12C7 PUSH1 0x6C PUSH2 0x2299 JUMP JUMPDEST DUP2 MSTORE POP SWAP1 POP DUP1 PUSH1 0x69 PUSH1 0x0 DUP7 PUSH20 0xFFFFFFFFFFFFFFFFFFFFFFFFFFFFFFFFFFFFFFFF AND PUSH20 0xFFFFFFFFFFFFFFFFFFFFFFFFFFFFFFFFFFFFFFFF AND DUP2 MSTORE PUSH1 0x20 ADD SWAP1 DUP2 MSTORE PUSH1 0x20 ADD PUSH1 0x0 KECCAK256 PUSH1 0x0 DUP6 DUP2 MSTORE PUSH1 0x20 ADD SWAP1 DUP2 MSTORE PUSH1 0x20 ADD PUSH1 0x0 KECCAK256 PUSH1 0x0 DUP3 ADD MLOAD DUP2 PUSH1 0x0 ADD SSTORE PUSH1 0x20 DUP3 ADD MLOAD DUP2 PUSH1 0x1 ADD PUSH1 0x0 PUSH2 0x100 EXP DUP2 SLOAD DUP2 PUSH20 0xFFFFFFFFFFFFFFFFFFFFFFFFFFFFFFFFFFFFFFFF MUL NOT AND SWAP1 DUP4 PUSH20 0xFFFFFFFFFFFFFFFFFFFFFFFFFFFFFFFFFFFFFFFF AND MUL OR SWAP1 SSTORE POP PUSH1 0x40 DUP3 ADD MLOAD DUP2 PUSH1 0x2 ADD SSTORE SWAP1 POP POP PUSH1 0x0 PUSH1 0x40 MLOAD DUP1 PUSH1 0x80 ADD PUSH1 0x40 MSTORE DUP1 DUP7 PUSH20 0xFFFFFFFFFFFFFFFFFFFFFFFFFFFFFFFFFFFFFFFF AND DUP2 MSTORE PUSH1 0x20 ADD DUP6 DUP2 MSTORE PUSH1 0x20 ADD DUP4 DUP2 MSTORE PUSH1 0x20 ADD PUSH1 0x1 ISZERO ISZERO DUP2 MSTORE POP SWAP1 POP DUP1 PUSH1 0x6B PUSH1 0x0 PUSH2 0x13C8 PUSH1 0x6C PUSH2 0x2299 JUMP JUMPDEST DUP2 MSTORE PUSH1 0x20 ADD SWAP1 DUP2 MSTORE PUSH1 0x20 ADD PUSH1 0x0 KECCAK256 PUSH1 0x0 DUP3 ADD MLOAD DUP2 PUSH1 0x0 ADD PUSH1 0x0 PUSH2 0x100 EXP DUP2 SLOAD DUP2 PUSH20 0xFFFFFFFFFFFFFFFFFFFFFFFFFFFFFFFFFFFFFFFF MUL NOT AND SWAP1 DUP4 PUSH20 0xFFFFFFFFFFFFFFFFFFFFFFFFFFFFFFFFFFFFFFFF AND MUL OR SWAP1 SSTORE POP PUSH1 0x20 DUP3 ADD MLOAD DUP2 PUSH1 0x1 ADD SSTORE PUSH1 0x40 DUP3 ADD MLOAD DUP2 PUSH1 0x2 ADD PUSH1 0x0 DUP3 ADD MLOAD DUP2 PUSH1 0x0 ADD SSTORE PUSH1 0x20 DUP3 ADD MLOAD DUP2 PUSH1 0x1 ADD PUSH1 0x0 PUSH2 0x100 EXP DUP2 SLOAD DUP2 PUSH20 0xFFFFFFFFFFFFFFFFFFFFFFFFFFFFFFFFFFFFFFFF MUL NOT AND SWAP1 DUP4 PUSH20 0xFFFFFFFFFFFFFFFFFFFFFFFFFFFFFFFFFFFFFFFF AND MUL OR SWAP1 SSTORE POP PUSH1 0x40 DUP3 ADD MLOAD DUP2 PUSH1 0x2 ADD SSTORE POP POP PUSH1 0x60 DUP3 ADD MLOAD DUP2 PUSH1 0x5 ADD PUSH1 0x0 PUSH2 0x100 EXP DUP2 SLOAD DUP2 PUSH1 0xFF MUL NOT AND SWAP1 DUP4 ISZERO ISZERO MUL OR SWAP1 SSTORE POP SWAP1 POP POP PUSH2 0x14BA PUSH1 0x6C PUSH2 0x2526 JUMP JUMPDEST POP POP POP POP POP DUP11 DUP13 PUSH20 0xFFFFFFFFFFFFFFFFFFFFFFFFFFFFFFFFFFFFFFFF AND CALLER PUSH20 0xFFFFFFFFFFFFFFFFFFFFFFFFFFFFFFFFFFFFFFFF AND PUSH32 0x424B3284A7958BB7965C27CA0B2A8B30CE2A56BA954533DF15E6BDED1B608ED7 PUSH1 0x1 PUSH2 0x151B PUSH1 0x6C PUSH2 0x2299 JUMP JUMPDEST PUSH2 0x1525 SWAP2 SWAP1 PUSH2 0x2FB6 JUMP JUMPDEST DUP15 PUSH1 0x40 MLOAD PUSH2 0x1534 SWAP3 SWAP2 SWAP1 PUSH2 0x318F JUMP JUMPDEST PUSH1 0x40 MLOAD DUP1 SWAP2 SUB SWAP1 LOG4 POP POP POP POP POP POP POP POP POP POP POP POP JUMP JUMPDEST PUSH1 0x0 PUSH1 0x33 PUSH1 0x0 SWAP1 SLOAD SWAP1 PUSH2 0x100 EXP SWAP1 DIV PUSH20 0xFFFFFFFFFFFFFFFFFFFFFFFFFFFFFFFFFFFFFFFF AND SWAP1 POP SWAP1 JUMP JUMPDEST DUP2 DUP2 PUSH1 0x0 PUSH1 0x69 PUSH1 0x0 DUP5 PUSH20 0xFFFFFFFFFFFFFFFFFFFFFFFFFFFFFFFFFFFFFFFF AND PUSH20 0xFFFFFFFFFFFFFFFFFFFFFFFFFFFFFFFFFFFFFFFF AND DUP2 MSTORE PUSH1 0x20 ADD SWAP1 DUP2 MSTORE PUSH1 0x20 ADD PUSH1 0x0 KECCAK256 PUSH1 0x0 DUP4 DUP2 MSTORE PUSH1 0x20 ADD SWAP1 DUP2 MSTORE PUSH1 0x20 ADD PUSH1 0x0 KECCAK256 PUSH1 0x40 MLOAD DUP1 PUSH1 0x60 ADD PUSH1 0x40 MSTORE SWAP1 DUP2 PUSH1 0x0 DUP3 ADD SLOAD DUP2 MSTORE PUSH1 0x20 ADD PUSH1 0x1 DUP3 ADD PUSH1 0x0 SWAP1 SLOAD SWAP1 PUSH2 0x100 EXP SWAP1 DIV PUSH20 0xFFFFFFFFFFFFFFFFFFFFFFFFFFFFFFFFFFFFFFFF AND PUSH20 0xFFFFFFFFFFFFFFFFFFFFFFFFFFFFFFFFFFFFFFFF AND PUSH20 0xFFFFFFFFFFFFFFFFFFFFFFFFFFFFFFFFFFFFFFFF AND DUP2 MSTORE PUSH1 0x20 ADD PUSH1 0x2 DUP3 ADD SLOAD DUP2 MSTORE POP POP SWAP1 POP PUSH1 0x0 DUP2 PUSH1 0x0 ADD MLOAD GT PUSH2 0x168A JUMPI DUP3 DUP3 PUSH1 0x40 MLOAD PUSH32 0x6831488C00000000000000000000000000000000000000000000000000000000 DUP2 MSTORE PUSH1 0x4 ADD PUSH2 0x1681 SWAP3 SWAP2 SWAP1 PUSH2 0x3109 JUMP JUMPDEST PUSH1 0x40 MLOAD DUP1 SWAP2 SUB SWAP1 REVERT JUMPDEST PUSH2 0x1692 PUSH2 0x253C JUMP JUMPDEST PUSH1 0x0 PUSH1 0x69 PUSH1 0x0 DUP8 PUSH20 0xFFFFFFFFFFFFFFFFFFFFFFFFFFFFFFFFFFFFFFFF AND PUSH20 0xFFFFFFFFFFFFFFFFFFFFFFFFFFFFFFFFFFFFFFFF AND DUP2 MSTORE PUSH1 0x20 ADD SWAP1 DUP2 MSTORE PUSH1 0x20 ADD PUSH1 0x0 KECCAK256 PUSH1 0x0 DUP7 DUP2 MSTORE PUSH1 0x20 ADD SWAP1 DUP2 MSTORE PUSH1 0x20 ADD PUSH1 0x0 KECCAK256 PUSH1 0x40 MLOAD DUP1 PUSH1 0x60 ADD PUSH1 0x40 MSTORE SWAP1 DUP2 PUSH1 0x0 DUP3 ADD SLOAD DUP2 MSTORE PUSH1 0x20 ADD PUSH1 0x1 DUP3 ADD PUSH1 0x0 SWAP1 SLOAD SWAP1 PUSH2 0x100 EXP SWAP1 DIV PUSH20 0xFFFFFFFFFFFFFFFFFFFFFFFFFFFFFFFFFFFFFFFF AND PUSH20 0xFFFFFFFFFFFFFFFFFFFFFFFFFFFFFFFFFFFFFFFF AND PUSH20 0xFFFFFFFFFFFFFFFFFFFFFFFFFFFFFFFFFFFFFFFF AND DUP2 MSTORE PUSH1 0x20 ADD PUSH1 0x2 DUP3 ADD SLOAD DUP2 MSTORE POP POP SWAP1 POP DUP1 PUSH1 0x0 ADD MLOAD CALLVALUE LT ISZERO PUSH2 0x17AC JUMPI DUP6 DUP6 DUP3 PUSH1 0x0 ADD MLOAD PUSH1 0x40 MLOAD PUSH32 0x7C93456500000000000000000000000000000000000000000000000000000000 DUP2 MSTORE PUSH1 0x4 ADD PUSH2 0x17A3 SWAP4 SWAP3 SWAP2 SWAP1 PUSH2 0x31B8 JUMP JUMPDEST PUSH1 0x40 MLOAD DUP1 SWAP2 SUB SWAP1 REVERT JUMPDEST PUSH1 0x68 PUSH1 0x0 SWAP1 SLOAD SWAP1 PUSH2 0x100 EXP SWAP1 DIV PUSH20 0xFFFFFFFFFFFFFFFFFFFFFFFFFFFFFFFFFFFFFFFF AND PUSH20 0xFFFFFFFFFFFFFFFFFFFFFFFFFFFFFFFFFFFFFFFF AND PUSH2 0x8FC PUSH1 0x64 DUP4 PUSH1 0x0 ADD MLOAD PUSH2 0x17F9 SWAP2 SWAP1 PUSH2 0x321E JUMP JUMPDEST SWAP1 DUP2 ISZERO MUL SWAP1 PUSH1 0x40 MLOAD PUSH1 0x0 PUSH1 0x40 MLOAD DUP1 DUP4 SUB DUP2 DUP6 DUP9 DUP9 CALL SWAP4 POP POP POP POP ISZERO DUP1 ISZERO PUSH2 0x1824 JUMPI RETURNDATASIZE PUSH1 0x0 DUP1 RETURNDATACOPY RETURNDATASIZE PUSH1 0x0 REVERT JUMPDEST POP DUP1 PUSH1 0x20 ADD MLOAD PUSH20 0xFFFFFFFFFFFFFFFFFFFFFFFFFFFFFFFFFFFFFFFF AND PUSH2 0x8FC PUSH1 0x61 PUSH1 0x64 DUP5 PUSH1 0x0 ADD MLOAD PUSH2 0x1856 SWAP2 SWAP1 PUSH2 0x321E JUMP JUMPDEST PUSH2 0x1860 SWAP2 SWAP1 PUSH2 0x324F JUMP JUMPDEST SWAP1 DUP2 ISZERO MUL SWAP1 PUSH1 0x40 MLOAD PUSH1 0x0 PUSH1 0x40 MLOAD DUP1 DUP4 SUB DUP2 DUP6 DUP9 DUP9 CALL SWAP4 POP POP POP POP ISZERO DUP1 ISZERO PUSH2 0x188B JUMPI RETURNDATASIZE PUSH1 0x0 DUP1 RETURNDATACOPY RETURNDATASIZE PUSH1 0x0 REVERT JUMPDEST POP PUSH1 0x0 PUSH1 0x6B PUSH1 0x0 PUSH1 0x69 PUSH1 0x0 DUP11 PUSH20 0xFFFFFFFFFFFFFFFFFFFFFFFFFFFFFFFFFFFFFFFF AND PUSH20 0xFFFFFFFFFFFFFFFFFFFFFFFFFFFFFFFFFFFFFFFF AND DUP2 MSTORE PUSH1 0x20 ADD SWAP1 DUP2 MSTORE PUSH1 0x20 ADD PUSH1 0x0 KECCAK256 PUSH1 0x0 DUP10 DUP2 MSTORE PUSH1 0x20 ADD SWAP1 DUP2 MSTORE PUSH1 0x20 ADD PUSH1 0x0 KECCAK256 PUSH1 0x2 ADD SLOAD DUP2 MSTORE PUSH1 0x20 ADD SWAP1 DUP2 MSTORE PUSH1 0x20 ADD PUSH1 0x0 KECCAK256 PUSH1 0x5 ADD PUSH1 0x0 PUSH2 0x100 EXP DUP2 SLOAD DUP2 PUSH1 0xFF MUL NOT AND SWAP1 DUP4 ISZERO ISZERO MUL OR SWAP1 SSTORE POP PUSH1 0x69 PUSH1 0x0 DUP8 PUSH20 0xFFFFFFFFFFFFFFFFFFFFFFFFFFFFFFFFFFFFFFFF AND PUSH20 0xFFFFFFFFFFFFFFFFFFFFFFFFFFFFFFFFFFFFFFFF AND DUP2 MSTORE PUSH1 0x20 ADD SWAP1 DUP2 MSTORE PUSH1 0x20 ADD PUSH1 0x0 KECCAK256 PUSH1 0x0 DUP7 DUP2 MSTORE PUSH1 0x20 ADD SWAP1 DUP2 MSTORE PUSH1 0x20 ADD PUSH1 0x0 KECCAK256 PUSH1 0x0 DUP1 DUP3 ADD PUSH1 0x0 SWAP1 SSTORE PUSH1 0x1 DUP3 ADD PUSH1 0x0 PUSH2 0x100 EXP DUP2 SLOAD SWAP1 PUSH20 0xFFFFFFFFFFFFFFFFFFFFFFFFFFFFFFFFFFFFFFFF MUL NOT AND SWAP1 SSTORE PUSH1 0x2 DUP3 ADD PUSH1 0x0 SWAP1 SSTORE POP POP DUP6 PUSH20 0xFFFFFFFFFFFFFFFFFFFFFFFFFFFFFFFFFFFFFFFF AND PUSH4 0x42842E0E DUP3 PUSH1 0x20 ADD MLOAD CALLER DUP9 PUSH1 0x40 MLOAD DUP5 PUSH4 0xFFFFFFFF AND PUSH1 0xE0 SHL DUP2 MSTORE PUSH1 0x4 ADD PUSH2 0x19D9 SWAP4 SWAP3 SWAP2 SWAP1 PUSH2 0x3291 JUMP JUMPDEST PUSH1 0x0 PUSH1 0x40 MLOAD DUP1 DUP4 SUB DUP2 PUSH1 0x0 DUP8 DUP1 EXTCODESIZE ISZERO DUP1 ISZERO PUSH2 0x19F3 JUMPI PUSH1 0x0 DUP1 REVERT JUMPDEST POP GAS CALL ISZERO DUP1 ISZERO PUSH2 0x1A07 JUMPI RETURNDATASIZE PUSH1 0x0 DUP1 RETURNDATACOPY RETURNDATASIZE PUSH1 0x0 REVERT JUMPDEST POP POP POP POP PUSH2 0x1A15 PUSH1 0x6D PUSH2 0x2526 JUMP JUMPDEST DUP5 DUP7 PUSH20 0xFFFFFFFFFFFFFFFFFFFFFFFFFFFFFFFFFFFFFFFF AND CALLER PUSH20 0xFFFFFFFFFFFFFFFFFFFFFFFFFFFFFFFFFFFFFFFF AND PUSH32 0x263223B1DD81E51054A4E6F791D45A4A1DDB4AADCD93A2DFD892615C3FDAC187 DUP5 PUSH1 0x0 ADD MLOAD PUSH1 0x40 MLOAD PUSH2 0x1A77 SWAP2 SWAP1 PUSH2 0x3132 JUMP JUMPDEST PUSH1 0x40 MLOAD DUP1 SWAP2 SUB SWAP1 LOG4 POP PUSH2 0x1A88 PUSH2 0x258B JUMP JUMPDEST POP POP POP POP POP JUMP JUMPDEST DUP2 DUP2 CALLER PUSH1 0x0 DUP4 SWAP1 POP PUSH1 0x0 DUP2 PUSH20 0xFFFFFFFFFFFFFFFFFFFFFFFFFFFFFFFFFFFFFFFF AND PUSH4 0x6352211E DUP6 PUSH1 0x40 MLOAD DUP3 PUSH4 0xFFFFFFFF AND PUSH1 0xE0 SHL DUP2 MSTORE PUSH1 0x4 ADD PUSH2 0x1AD2 SWAP2 SWAP1 PUSH2 0x3132 JUMP JUMPDEST PUSH1 0x20 PUSH1 0x40 MLOAD DUP1 DUP4 SUB DUP2 DUP7 GAS STATICCALL ISZERO DUP1 ISZERO PUSH2 0x1AEF JUMPI RETURNDATASIZE PUSH1 0x0 DUP1 RETURNDATACOPY RETURNDATASIZE PUSH1 0x0 REVERT JUMPDEST POP POP POP POP PUSH1 0x40 MLOAD RETURNDATASIZE PUSH1 0x1F NOT PUSH1 0x1F DUP3 ADD AND DUP3 ADD DUP1 PUSH1 0x40 MSTORE POP DUP2 ADD SWAP1 PUSH2 0x1B13 SWAP2 SWAP1 PUSH2 0x3162 JUMP JUMPDEST SWAP1 POP DUP1 PUSH20 0xFFFFFFFFFFFFFFFFFFFFFFFFFFFFFFFFFFFFFFFF AND DUP4 PUSH20 0xFFFFFFFFFFFFFFFFFFFFFFFFFFFFFFFFFFFFFFFF AND EQ PUSH2 0x1B7A JUMPI PUSH1 0x40 MLOAD PUSH32 0x30CD747100000000000000000000000000000000000000000000000000000000 DUP2 MSTORE PUSH1 0x4 ADD PUSH1 0x40 MLOAD DUP1 SWAP2 SUB SWAP1 REVERT JUMPDEST DUP7 DUP7 PUSH1 0x0 PUSH1 0x69 PUSH1 0x0 DUP5 PUSH20 0xFFFFFFFFFFFFFFFFFFFFFFFFFFFFFFFFFFFFFFFF AND PUSH20 0xFFFFFFFFFFFFFFFFFFFFFFFFFFFFFFFFFFFFFFFF AND DUP2 MSTORE PUSH1 0x20 ADD SWAP1 DUP2 MSTORE PUSH1 0x20 ADD PUSH1 0x0 KECCAK256 PUSH1 0x0 DUP4 DUP2 MSTORE PUSH1 0x20 ADD SWAP1 DUP2 MSTORE PUSH1 0x20 ADD PUSH1 0x0 KECCAK256 PUSH1 0x40 MLOAD DUP1 PUSH1 0x60 ADD PUSH1 0x40 MSTORE SWAP1 DUP2 PUSH1 0x0 DUP3 ADD SLOAD DUP2 MSTORE PUSH1 0x20 ADD PUSH1 0x1 DUP3 ADD PUSH1 0x0 SWAP1 SLOAD SWAP1 PUSH2 0x100 EXP SWAP1 DIV PUSH20 0xFFFFFFFFFFFFFFFFFFFFFFFFFFFFFFFFFFFFFFFF AND PUSH20 0xFFFFFFFFFFFFFFFFFFFFFFFFFFFFFFFFFFFFFFFF AND PUSH20 0xFFFFFFFFFFFFFFFFFFFFFFFFFFFFFFFFFFFFFFFF AND DUP2 MSTORE PUSH1 0x20 ADD PUSH1 0x2 DUP3 ADD SLOAD DUP2 MSTORE POP POP SWAP1 POP PUSH1 0x0 DUP2 PUSH1 0x0 ADD MLOAD GT PUSH2 0x1C90 JUMPI DUP3 DUP3 PUSH1 0x40 MLOAD PUSH32 0x6831488C00000000000000000000000000000000000000000000000000000000 DUP2 MSTORE PUSH1 0x4 ADD PUSH2 0x1C87 SWAP3 SWAP2 SWAP1 PUSH2 0x3109 JUMP JUMPDEST PUSH1 0x40 MLOAD DUP1 SWAP2 SUB SWAP1 REVERT JUMPDEST PUSH1 0x0 PUSH1 0x6B PUSH1 0x0 PUSH1 0x69 PUSH1 0x0 DUP15 PUSH20 0xFFFFFFFFFFFFFFFFFFFFFFFFFFFFFFFFFFFFFFFF AND PUSH20 0xFFFFFFFFFFFFFFFFFFFFFFFFFFFFFFFFFFFFFFFF AND DUP2 MSTORE PUSH1 0x20 ADD SWAP1 DUP2 MSTORE PUSH1 0x20 ADD PUSH1 0x0 KECCAK256 PUSH1 0x0 DUP14 DUP2 MSTORE PUSH1 0x20 ADD SWAP1 DUP2 MSTORE PUSH1 0x20 ADD PUSH1 0x0 KECCAK256 PUSH1 0x2 ADD SLOAD DUP2 MSTORE PUSH1 0x20 ADD SWAP1 DUP2 MSTORE PUSH1 0x20 ADD PUSH1 0x0 KECCAK256 PUSH1 0x5 ADD PUSH1 0x0 PUSH2 0x100 EXP DUP2 SLOAD DUP2 PUSH1 0xFF MUL NOT AND SWAP1 DUP4 ISZERO ISZERO MUL OR SWAP1 SSTORE POP PUSH1 0x69 PUSH1 0x0 DUP12 PUSH20 0xFFFFFFFFFFFFFFFFFFFFFFFFFFFFFFFFFFFFFFFF AND PUSH20 0xFFFFFFFFFFFFFFFFFFFFFFFFFFFFFFFFFFFFFFFF AND DUP2 MSTORE PUSH1 0x20 ADD SWAP1 DUP2 MSTORE PUSH1 0x20 ADD PUSH1 0x0 KECCAK256 PUSH1 0x0 DUP11 DUP2 MSTORE PUSH1 0x20 ADD SWAP1 DUP2 MSTORE PUSH1 0x20 ADD PUSH1 0x0 KECCAK256 PUSH1 0x0 DUP1 DUP3 ADD PUSH1 0x0 SWAP1 SSTORE PUSH1 0x1 DUP3 ADD PUSH1 0x0 PUSH2 0x100 EXP DUP2 SLOAD SWAP1 PUSH20 0xFFFFFFFFFFFFFFFFFFFFFFFFFFFFFFFFFFFFFFFF MUL NOT AND SWAP1 SSTORE PUSH1 0x2 DUP3 ADD PUSH1 0x0 SWAP1 SSTORE POP POP PUSH2 0x1DA6 PUSH1 0x6D PUSH2 0x2526 JUMP JUMPDEST DUP9 DUP11 PUSH20 0xFFFFFFFFFFFFFFFFFFFFFFFFFFFFFFFFFFFFFFFF AND CALLER PUSH20 0xFFFFFFFFFFFFFFFFFFFFFFFFFFFFFFFFFFFFFFFF AND PUSH32 0x9BA1A3CB55CE8D63D072A886F94D2A744F50CDDF82128E897D0661F5EC623158 PUSH1 0x40 MLOAD PUSH1 0x40 MLOAD DUP1 SWAP2 SUB SWAP1 LOG4 POP POP POP POP POP POP POP POP POP POP JUMP JUMPDEST PUSH2 0x1E15 PUSH2 0x22A7 JUMP JUMPDEST PUSH1 0x0 PUSH20 0xFFFFFFFFFFFFFFFFFFFFFFFFFFFFFFFFFFFFFFFF AND DUP2 PUSH20 0xFFFFFFFFFFFFFFFFFFFFFFFFFFFFFFFFFFFFFFFF AND SUB PUSH2 0x1E84 JUMPI PUSH1 0x40 MLOAD PUSH32 0x8C379A000000000000000000000000000000000000000000000000000000000 DUP2 MSTORE PUSH1 0x4 ADD PUSH2 0x1E7B SWAP1 PUSH2 0x333A JUMP JUMPDEST PUSH1 0x40 MLOAD DUP1 SWAP2 SUB SWAP1 REVERT JUMPDEST PUSH2 0x1E8D DUP2 PUSH2 0x23E4 JUMP JUMPDEST POP JUMP JUMPDEST DUP3 DUP3 PUSH1 0x0 PUSH1 0x69 PUSH1 0x0 DUP5 PUSH20 0xFFFFFFFFFFFFFFFFFFFFFFFFFFFFFFFFFFFFFFFF AND PUSH20 0xFFFFFFFFFFFFFFFFFFFFFFFFFFFFFFFFFFFFFFFF AND DUP2 MSTORE PUSH1 0x20 ADD SWAP1 DUP2 MSTORE PUSH1 0x20 ADD PUSH1 0x0 KECCAK256 PUSH1 0x0 DUP4 DUP2 MSTORE PUSH1 0x20 ADD SWAP1 DUP2 MSTORE PUSH1 0x20 ADD PUSH1 0x0 KECCAK256 PUSH1 0x40 MLOAD DUP1 PUSH1 0x60 ADD PUSH1 0x40 MSTORE SWAP1 DUP2 PUSH1 0x0 DUP3 ADD SLOAD DUP2 MSTORE PUSH1 0x20 ADD PUSH1 0x1 DUP3 ADD PUSH1 0x0 SWAP1 SLOAD SWAP1 PUSH2 0x100 EXP SWAP1 DIV PUSH20 0xFFFFFFFFFFFFFFFFFFFFFFFFFFFFFFFFFFFFFFFF AND PUSH20 0xFFFFFFFFFFFFFFFFFFFFFFFFFFFFFFFFFFFFFFFF AND PUSH20 0xFFFFFFFFFFFFFFFFFFFFFFFFFFFFFFFFFFFFFFFF AND DUP2 MSTORE PUSH1 0x20 ADD PUSH1 0x2 DUP3 ADD SLOAD DUP2 MSTORE POP POP SWAP1 POP PUSH1 0x0 DUP2 PUSH1 0x0 ADD MLOAD GT PUSH2 0x1FA6 JUMPI DUP3 DUP3 PUSH1 0x40 MLOAD PUSH32 0x6831488C00000000000000000000000000000000000000000000000000000000 DUP2 MSTORE PUSH1 0x4 ADD PUSH2 0x1F9D SWAP3 SWAP2 SWAP1 PUSH2 0x3109 JUMP JUMPDEST PUSH1 0x40 MLOAD DUP1 SWAP2 SUB SWAP1 REVERT JUMPDEST PUSH2 0x1FAE PUSH2 0x253C JUMP JUMPDEST DUP6 DUP6 CALLER PUSH1 0x0 DUP4 SWAP1 POP PUSH1 0x0 DUP2 PUSH20 0xFFFFFFFFFFFFFFFFFFFFFFFFFFFFFFFFFFFFFFFF AND PUSH4 0x6352211E DUP6 PUSH1 0x40 MLOAD DUP3 PUSH4 0xFFFFFFFF AND PUSH1 0xE0 SHL DUP2 MSTORE PUSH1 0x4 ADD PUSH2 0x1FF1 SWAP2 SWAP1 PUSH2 0x3132 JUMP JUMPDEST PUSH1 0x20 PUSH1 0x40 MLOAD DUP1 DUP4 SUB DUP2 DUP7 GAS STATICCALL ISZERO DUP1 ISZERO PUSH2 0x200E JUMPI RETURNDATASIZE PUSH1 0x0 DUP1 RETURNDATACOPY RETURNDATASIZE PUSH1 0x0 REVERT JUMPDEST POP POP POP POP PUSH1 0x40 MLOAD RETURNDATASIZE PUSH1 0x1F NOT PUSH1 0x1F DUP3 ADD AND DUP3 ADD DUP1 PUSH1 0x40 MSTORE POP DUP2 ADD SWAP1 PUSH2 0x2032 SWAP2 SWAP1 PUSH2 0x3162 JUMP JUMPDEST SWAP1 POP DUP1 PUSH20 0xFFFFFFFFFFFFFFFFFFFFFFFFFFFFFFFFFFFFFFFF AND DUP4 PUSH20 0xFFFFFFFFFFFFFFFFFFFFFFFFFFFFFFFFFFFFFFFF AND EQ PUSH2 0x2099 JUMPI PUSH1 0x40 MLOAD PUSH32 0x30CD747100000000000000000000000000000000000000000000000000000000 DUP2 MSTORE PUSH1 0x4 ADD PUSH1 0x40 MLOAD DUP1 SWAP2 SUB SWAP1 REVERT JUMPDEST PUSH1 0x0 DUP10 SUB PUSH2 0x20D3 JUMPI PUSH1 0x40 MLOAD PUSH32 0xE1ABBFC500000000000000000000000000000000000000000000000000000000 DUP2 MSTORE PUSH1 0x4 ADD PUSH1 0x40 MLOAD DUP1 SWAP2 SUB SWAP1 REVERT JUMPDEST PUSH1 0x0 DUP12 SWAP1 POP PUSH1 0x0 DUP12 SWAP1 POP DUP11 PUSH1 0x69 PUSH1 0x0 DUP5 PUSH20 0xFFFFFFFFFFFFFFFFFFFFFFFFFFFFFFFFFFFFFFFF AND PUSH20 0xFFFFFFFFFFFFFFFFFFFFFFFFFFFFFFFFFFFFFFFF AND DUP2 MSTORE PUSH1 0x20 ADD SWAP1 DUP2 MSTORE PUSH1 0x20 ADD PUSH1 0x0 KECCAK256 PUSH1 0x0 DUP4 DUP2 MSTORE PUSH1 0x20 ADD SWAP1 DUP2 MSTORE PUSH1 0x20 ADD PUSH1 0x0 KECCAK256 PUSH1 0x0 ADD DUP2 SWAP1 SSTORE POP DUP12 DUP14 PUSH20 0xFFFFFFFFFFFFFFFFFFFFFFFFFFFFFFFFFFFFFFFF AND CALLER PUSH20 0xFFFFFFFFFFFFFFFFFFFFFFFFFFFFFFFFFFFFFFFF AND PUSH32 0x424B3284A7958BB7965C27CA0B2A8B30CE2A56BA954533DF15E6BDED1B608ED7 PUSH1 0x69 PUSH1 0x0 DUP8 PUSH20 0xFFFFFFFFFFFFFFFFFFFFFFFFFFFFFFFFFFFFFFFF AND PUSH20 0xFFFFFFFFFFFFFFFFFFFFFFFFFFFFFFFFFFFFFFFF AND DUP2 MSTORE PUSH1 0x20 ADD SWAP1 DUP2 MSTORE PUSH1 0x20 ADD PUSH1 0x0 KECCAK256 PUSH1 0x0 DUP7 DUP2 MSTORE PUSH1 0x20 ADD SWAP1 DUP2 MSTORE PUSH1 0x20 ADD PUSH1 0x0 KECCAK256 PUSH1 0x2 ADD SLOAD DUP16 PUSH1 0x40 MLOAD PUSH2 0x21E8 SWAP3 SWAP2 SWAP1 PUSH2 0x318F JUMP JUMPDEST PUSH1 0x40 MLOAD DUP1 SWAP2 SUB SWAP1 LOG4 POP POP POP POP POP POP POP PUSH2 0x21FF PUSH2 0x258B JUMP JUMPDEST POP POP POP POP POP POP JUMP JUMPDEST PUSH2 0x220F PUSH2 0x22A7 JUMP JUMPDEST PUSH1 0x0 SELFBALANCE SWAP1 POP PUSH1 0x0 DUP2 GT PUSH2 0x2221 JUMPI PUSH1 0x0 DUP1 REVERT JUMPDEST PUSH2 0x222B DUP3 SELFBALANCE PUSH2 0x2595 JUMP JUMPDEST POP POP JUMP JUMPDEST PUSH1 0x0 PUSH32 0x1FFC9A700000000000000000000000000000000000000000000000000000000 PUSH28 0xFFFFFFFFFFFFFFFFFFFFFFFFFFFFFFFFFFFFFFFFFFFFFFFFFFFFFFFF NOT AND DUP3 PUSH28 0xFFFFFFFFFFFFFFFFFFFFFFFFFFFFFFFFFFFFFFFFFFFFFFFFFFFFFFFF NOT AND EQ SWAP1 POP SWAP2 SWAP1 POP JUMP JUMPDEST PUSH1 0x0 DUP2 PUSH1 0x0 ADD SLOAD SWAP1 POP SWAP2 SWAP1 POP JUMP JUMPDEST PUSH2 0x22AF PUSH2 0x2646 JUMP JUMPDEST PUSH20 0xFFFFFFFFFFFFFFFFFFFFFFFFFFFFFFFFFFFFFFFF AND PUSH2 0x22CD PUSH2 0x154A JUMP JUMPDEST PUSH20 0xFFFFFFFFFFFFFFFFFFFFFFFFFFFFFFFFFFFFFFFF AND EQ PUSH2 0x2323 JUMPI PUSH1 0x40 MLOAD PUSH32 0x8C379A000000000000000000000000000000000000000000000000000000000 DUP2 MSTORE PUSH1 0x4 ADD PUSH2 0x231A SWAP1 PUSH2 0x33A6 JUMP JUMPDEST PUSH1 0x40 MLOAD DUP1 SWAP2 SUB SWAP1 REVERT JUMPDEST JUMP JUMPDEST PUSH1 0x0 PUSH2 0x234D DUP4 PUSH1 0x0 ADD DUP4 PUSH20 0xFFFFFFFFFFFFFFFFFFFFFFFFFFFFFFFFFFFFFFFF AND PUSH1 0x0 SHL PUSH2 0x264E JUMP JUMPDEST SWAP1 POP SWAP3 SWAP2 POP POP JUMP JUMPDEST PUSH1 0x0 PUSH2 0x237D DUP4 PUSH1 0x0 ADD DUP4 PUSH20 0xFFFFFFFFFFFFFFFFFFFFFFFFFFFFFFFFFFFFFFFF AND PUSH1 0x0 SHL PUSH2 0x2671 JUMP JUMPDEST SWAP1 POP SWAP3 SWAP2 POP POP JUMP JUMPDEST PUSH1 0x0 PUSH2 0x2393 DUP3 PUSH1 0x0 ADD PUSH2 0x2785 JUMP JUMPDEST SWAP1 POP SWAP2 SWAP1 POP JUMP JUMPDEST PUSH1 0x0 PUSH2 0x23A9 DUP4 PUSH1 0x0 ADD DUP4 PUSH2 0x2796 JUMP JUMPDEST PUSH1 0x0 SHR SWAP1 POP SWAP3 SWAP2 POP POP JUMP JUMPDEST PUSH1 0x0 PUSH2 0x23DC DUP4 PUSH1 0x0 ADD DUP4 PUSH20 0xFFFFFFFFFFFFFFFFFFFFFFFFFFFFFFFFFFFFFFFF AND PUSH1 0x0 SHL PUSH2 0x27C1 JUMP JUMPDEST SWAP1 POP SWAP3 SWAP2 POP POP JUMP JUMPDEST PUSH1 0x0 PUSH1 0x33 PUSH1 0x0 SWAP1 SLOAD SWAP1 PUSH2 0x100 EXP SWAP1 DIV PUSH20 0xFFFFFFFFFFFFFFFFFFFFFFFFFFFFFFFFFFFFFFFF AND SWAP1 POP DUP2 PUSH1 0x33 PUSH1 0x0 PUSH2 0x100 EXP DUP2 SLOAD DUP2 PUSH20 0xFFFFFFFFFFFFFFFFFFFFFFFFFFFFFFFFFFFFFFFF MUL NOT AND SWAP1 DUP4 PUSH20 0xFFFFFFFFFFFFFFFFFFFFFFFFFFFFFFFFFFFFFFFF AND MUL OR SWAP1 SSTORE POP DUP2 PUSH20 0xFFFFFFFFFFFFFFFFFFFFFFFFFFFFFFFFFFFFFFFF AND DUP2 PUSH20 0xFFFFFFFFFFFFFFFFFFFFFFFFFFFFFFFFFFFFFFFF AND PUSH32 0x8BE0079C531659141344CD1FD0A4F28419497F9722A3DAAFE3B4186F6B6457E0 PUSH1 0x40 MLOAD PUSH1 0x40 MLOAD DUP1 SWAP2 SUB SWAP1 LOG3 POP POP JUMP JUMPDEST PUSH1 0x0 DUP1 DUP3 PUSH20 0xFFFFFFFFFFFFFFFFFFFFFFFFFFFFFFFFFFFFFFFF AND EXTCODESIZE GT SWAP1 POP SWAP2 SWAP1 POP JUMP JUMPDEST PUSH1 0x0 PUSH1 0x1 SWAP1 SLOAD SWAP1 PUSH2 0x100 EXP SWAP1 DIV PUSH1 0xFF AND PUSH2 0x251C JUMPI PUSH1 0x40 MLOAD PUSH32 0x8C379A000000000000000000000000000000000000000000000000000000000 DUP2 MSTORE PUSH1 0x4 ADD PUSH2 0x2513 SWAP1 PUSH2 0x3438 JUMP JUMPDEST PUSH1 0x40 MLOAD DUP1 SWAP2 SUB SWAP1 REVERT JUMPDEST PUSH2 0x2524 PUSH2 0x2831 JUMP JUMPDEST JUMP JUMPDEST PUSH1 0x1 DUP2 PUSH1 0x0 ADD PUSH1 0x0 DUP3 DUP3 SLOAD ADD SWAP3 POP POP DUP2 SWAP1 SSTORE POP POP JUMP JUMPDEST PUSH1 0x2 PUSH1 0x65 SLOAD SUB PUSH2 0x2581 JUMPI PUSH1 0x40 MLOAD PUSH32 0x8C379A000000000000000000000000000000000000000000000000000000000 DUP2 MSTORE PUSH1 0x4 ADD PUSH2 0x2578 SWAP1 PUSH2 0x34A4 JUMP JUMPDEST PUSH1 0x40 MLOAD DUP1 SWAP2 SUB SWAP1 REVERT JUMPDEST PUSH1 0x2 PUSH1 0x65 DUP2 SWAP1 SSTORE POP JUMP JUMPDEST PUSH1 0x1 PUSH1 0x65 DUP2 SWAP1 SSTORE POP JUMP JUMPDEST PUSH1 0x0 DUP3 PUSH20 0xFFFFFFFFFFFFFFFFFFFFFFFFFFFFFFFFFFFFFFFF AND DUP3 PUSH1 0x40 MLOAD PUSH2 0x25BB SWAP1 PUSH2 0x34F5 JUMP JUMPDEST PUSH1 0x0 PUSH1 0x40 MLOAD DUP1 DUP4 SUB DUP2 DUP6 DUP8 GAS CALL SWAP3 POP POP POP RETURNDATASIZE DUP1 PUSH1 0x0 DUP2 EQ PUSH2 0x25F8 JUMPI PUSH1 0x40 MLOAD SWAP2 POP PUSH1 0x1F NOT PUSH1 0x3F RETURNDATASIZE ADD AND DUP3 ADD PUSH1 0x40 MSTORE RETURNDATASIZE DUP3 MSTORE RETURNDATASIZE PUSH1 0x0 PUSH1 0x20 DUP5 ADD RETURNDATACOPY PUSH2 0x25FD JUMP JUMPDEST PUSH1 0x60 SWAP2 POP JUMPDEST POP POP SWAP1 POP DUP1 PUSH2 0x2641 JUMPI PUSH1 0x40 MLOAD PUSH32 0x8C379A000000000000000000000000000000000000000000000000000000000 DUP2 MSTORE PUSH1 0x4 ADD PUSH2 0x2638 SWAP1 PUSH2 0x3556 JUMP JUMPDEST PUSH1 0x40 MLOAD DUP1 SWAP2 SUB SWAP1 REVERT JUMPDEST POP POP POP JUMP JUMPDEST PUSH1 0x0 CALLER SWAP1 POP SWAP1 JUMP JUMPDEST PUSH1 0x0 DUP1 DUP4 PUSH1 0x1 ADD PUSH1 0x0 DUP5 DUP2 MSTORE PUSH1 0x20 ADD SWAP1 DUP2 MSTORE PUSH1 0x20 ADD PUSH1 0x0 KECCAK256 SLOAD EQ ISZERO SWAP1 POP SWAP3 SWAP2 POP POP JUMP JUMPDEST PUSH1 0x0 DUP1 DUP4 PUSH1 0x1 ADD PUSH1 0x0 DUP5 DUP2 MSTORE PUSH1 0x20 ADD SWAP1 DUP2 MSTORE PUSH1 0x20 ADD PUSH1 0x0 KECCAK256 SLOAD SWAP1 POP PUSH1 0x0 DUP2 EQ PUSH2 0x2779 JUMPI PUSH1 0x0 PUSH1 0x1 DUP3 PUSH2 0x26A3 SWAP2 SWAP1 PUSH2 0x2FB6 JUMP JUMPDEST SWAP1 POP PUSH1 0x0 PUSH1 0x1 DUP7 PUSH1 0x0 ADD DUP1 SLOAD SWAP1 POP PUSH2 0x26BB SWAP2 SWAP1 PUSH2 0x2FB6 JUMP JUMPDEST SWAP1 POP DUP2 DUP2 EQ PUSH2 0x272A JUMPI PUSH1 0x0 DUP7 PUSH1 0x0 ADD DUP3 DUP2 SLOAD DUP2 LT PUSH2 0x26DC JUMPI PUSH2 0x26DB PUSH2 0x2EDC JUMP JUMPDEST JUMPDEST SWAP1 PUSH1 0x0 MSTORE PUSH1 0x20 PUSH1 0x0 KECCAK256 ADD SLOAD SWAP1 POP DUP1 DUP8 PUSH1 0x0 ADD DUP5 DUP2 SLOAD DUP2 LT PUSH2 0x2700 JUMPI PUSH2 0x26FF PUSH2 0x2EDC JUMP JUMPDEST JUMPDEST SWAP1 PUSH1 0x0 MSTORE PUSH1 0x20 PUSH1 0x0 KECCAK256 ADD DUP2 SWAP1 SSTORE POP DUP4 DUP8 PUSH1 0x1 ADD PUSH1 0x0 DUP4 DUP2 MSTORE PUSH1 0x20 ADD SWAP1 DUP2 MSTORE PUSH1 0x20 ADD PUSH1 0x0 KECCAK256 DUP2 SWAP1 SSTORE POP POP JUMPDEST DUP6 PUSH1 0x0 ADD DUP1 SLOAD DUP1 PUSH2 0x273E JUMPI PUSH2 0x273D PUSH2 0x3576 JUMP JUMPDEST JUMPDEST PUSH1 0x1 SWAP1 SUB DUP2 DUP2 SWAP1 PUSH1 0x0 MSTORE PUSH1 0x20 PUSH1 0x0 KECCAK256 ADD PUSH1 0x0 SWAP1 SSTORE SWAP1 SSTORE DUP6 PUSH1 0x1 ADD PUSH1 0x0 DUP7 DUP2 MSTORE PUSH1 0x20 ADD SWAP1 DUP2 MSTORE PUSH1 0x20 ADD PUSH1 0x0 KECCAK256 PUSH1 0x0 SWAP1 SSTORE PUSH1 0x1 SWAP4 POP POP POP POP PUSH2 0x277F JUMP JUMPDEST PUSH1 0x0 SWAP2 POP POP JUMPDEST SWAP3 SWAP2 POP POP JUMP JUMPDEST PUSH1 0x0 DUP2 PUSH1 0x0 ADD DUP1 SLOAD SWAP1 POP SWAP1 POP SWAP2 SWAP1 POP JUMP JUMPDEST PUSH1 0x0 DUP3 PUSH1 0x0 ADD DUP3 DUP2 SLOAD DUP2 LT PUSH2 0x27AE JUMPI PUSH2 0x27AD PUSH2 0x2EDC JUMP JUMPDEST JUMPDEST SWAP1 PUSH1 0x0 MSTORE PUSH1 0x20 PUSH1 0x0 KECCAK256 ADD SLOAD SWAP1 POP SWAP3 SWAP2 POP POP JUMP JUMPDEST PUSH1 0x0 PUSH2 0x27CD DUP4 DUP4 PUSH2 0x264E JUMP JUMPDEST PUSH2 0x2826 JUMPI DUP3 PUSH1 0x0 ADD DUP3 SWAP1 DUP1 PUSH1 0x1 DUP2 SLOAD ADD DUP1 DUP3 SSTORE DUP1 SWAP2 POP POP PUSH1 0x1 SWAP1 SUB SWAP1 PUSH1 0x0 MSTORE PUSH1 0x20 PUSH1 0x0 KECCAK256 ADD PUSH1 0x0 SWAP1 SWAP2 SWAP1 SWAP2 SWAP1 SWAP2 POP SSTORE DUP3 PUSH1 0x0 ADD DUP1 SLOAD SWAP1 POP DUP4 PUSH1 0x1 ADD PUSH1 0x0 DUP5 DUP2 MSTORE PUSH1 0x20 ADD SWAP1 DUP2 MSTORE PUSH1 0x20 ADD PUSH1 0x0 KECCAK256 DUP2 SWAP1 SSTORE POP PUSH1 0x1 SWAP1 POP PUSH2 0x282B JUMP JUMPDEST PUSH1 0x0 SWAP1 POP JUMPDEST SWAP3 SWAP2 POP POP JUMP JUMPDEST PUSH1 0x0 PUSH1 0x1 SWAP1 SLOAD SWAP1 PUSH2 0x100 EXP SWAP1 DIV PUSH1 0xFF AND PUSH2 0x2880 JUMPI PUSH1 0x40 MLOAD PUSH32 0x8C379A000000000000000000000000000000000000000000000000000000000 DUP2 MSTORE PUSH1 0x4 ADD PUSH2 0x2877 SWAP1 PUSH2 0x3438 JUMP JUMPDEST PUSH1 0x40 MLOAD DUP1 SWAP2 SUB SWAP1 REVERT JUMPDEST PUSH2 0x2890 PUSH2 0x288B PUSH2 0x2646 JUMP JUMPDEST PUSH2 0x23E4 JUMP JUMPDEST JUMP JUMPDEST PUSH1 0x40 MLOAD DUP1 PUSH1 0x80 ADD PUSH1 0x40 MSTORE DUP1 PUSH1 0x0 PUSH20 0xFFFFFFFFFFFFFFFFFFFFFFFFFFFFFFFFFFFFFFFF AND DUP2 MSTORE PUSH1 0x20 ADD PUSH1 0x0 DUP2 MSTORE PUSH1 0x20 ADD PUSH2 0x28C9 PUSH2 0x28D8 JUMP JUMPDEST DUP2 MSTORE PUSH1 0x20 ADD PUSH1 0x0 ISZERO ISZERO DUP2 MSTORE POP SWAP1 JUMP JUMPDEST PUSH1 0x40 MLOAD DUP1 PUSH1 0x60 ADD PUSH1 0x40 MSTORE DUP1 PUSH1 0x0 DUP2 MSTORE PUSH1 0x20 ADD PUSH1 0x0 PUSH20 0xFFFFFFFFFFFFFFFFFFFFFFFFFFFFFFFFFFFFFFFF AND DUP2 MSTORE PUSH1 0x20 ADD PUSH1 0x0 DUP2 MSTORE POP SWAP1 JUMP JUMPDEST PUSH1 0x0 DUP1 REVERT JUMPDEST PUSH1 0x0 PUSH32 0xFFFFFFFF00000000000000000000000000000000000000000000000000000000 DUP3 AND SWAP1 POP SWAP2 SWAP1 POP JUMP JUMPDEST PUSH2 0x2949 DUP2 PUSH2 0x2914 JUMP JUMPDEST DUP2 EQ PUSH2 0x2954 JUMPI PUSH1 0x0 DUP1 REVERT JUMPDEST POP JUMP JUMPDEST PUSH1 0x0 DUP2 CALLDATALOAD SWAP1 POP PUSH2 0x2966 DUP2 PUSH2 0x2940 JUMP JUMPDEST SWAP3 SWAP2 POP POP JUMP JUMPDEST PUSH1 0x0 PUSH1 0x20 DUP3 DUP5 SUB SLT ISZERO PUSH2 0x2982 JUMPI PUSH2 0x2981 PUSH2 0x290F JUMP JUMPDEST JUMPDEST PUSH1 0x0 PUSH2 0x2990 DUP5 DUP3 DUP6 ADD PUSH2 0x2957 JUMP JUMPDEST SWAP2 POP POP SWAP3 SWAP2 POP POP JUMP JUMPDEST PUSH1 0x0 DUP2 ISZERO ISZERO SWAP1 POP SWAP2 SWAP1 POP JUMP JUMPDEST PUSH2 0x29AE DUP2 PUSH2 0x2999 JUMP JUMPDEST DUP3 MSTORE POP POP JUMP JUMPDEST PUSH1 0x0 PUSH1 0x20 DUP3 ADD SWAP1 POP PUSH2 0x29C9 PUSH1 0x0 DUP4 ADD DUP5 PUSH2 0x29A5 JUMP JUMPDEST SWAP3 SWAP2 POP POP JUMP JUMPDEST PUSH1 0x0 DUP2 MLOAD SWAP1 POP SWAP2 SWAP1 POP JUMP JUMPDEST PUSH1 0x0 DUP3 DUP3 MSTORE PUSH1 0x20 DUP3 ADD SWAP1 POP SWAP3 SWAP2 POP POP JUMP JUMPDEST PUSH1 0x0 DUP2 SWAP1 POP PUSH1 0x20 DUP3 ADD SWAP1 POP SWAP2 SWAP1 POP JUMP JUMPDEST PUSH1 0x0 PUSH20 0xFFFFFFFFFFFFFFFFFFFFFFFFFFFFFFFFFFFFFFFF DUP3 AND SWAP1 POP SWAP2 SWAP1 POP JUMP JUMPDEST PUSH1 0x0 PUSH2 0x2A26 DUP3 PUSH2 0x29FB JUMP JUMPDEST SWAP1 POP SWAP2 SWAP1 POP JUMP JUMPDEST PUSH2 0x2A36 DUP2 PUSH2 0x2A1B JUMP JUMPDEST DUP3 MSTORE POP POP JUMP JUMPDEST PUSH1 0x0 DUP2 SWAP1 POP SWAP2 SWAP1 POP JUMP JUMPDEST PUSH2 0x2A4F DUP2 PUSH2 0x2A3C JUMP JUMPDEST DUP3 MSTORE POP POP JUMP JUMPDEST PUSH1 0x60 DUP3 ADD PUSH1 0x0 DUP3 ADD MLOAD PUSH2 0x2A6B PUSH1 0x0 DUP6 ADD DUP3 PUSH2 0x2A46 JUMP JUMPDEST POP PUSH1 0x20 DUP3 ADD MLOAD PUSH2 0x2A7E PUSH1 0x20 DUP6 ADD DUP3 PUSH2 0x2A2D JUMP JUMPDEST POP PUSH1 0x40 DUP3 ADD MLOAD PUSH2 0x2A91 PUSH1 0x40 DUP6 ADD DUP3 PUSH2 0x2A46 JUMP JUMPDEST POP POP POP POP JUMP JUMPDEST PUSH2 0x2AA0 DUP2 PUSH2 0x2999 JUMP JUMPDEST DUP3 MSTORE POP POP JUMP JUMPDEST PUSH1 0xC0 DUP3 ADD PUSH1 0x0 DUP3 ADD MLOAD PUSH2 0x2ABC PUSH1 0x0 DUP6 ADD DUP3 PUSH2 0x2A2D JUMP JUMPDEST POP PUSH1 0x20 DUP3 ADD MLOAD PUSH2 0x2ACF PUSH1 0x20 DUP6 ADD DUP3 PUSH2 0x2A46 JUMP JUMPDEST POP PUSH1 0x40 DUP3 ADD MLOAD PUSH2 0x2AE2 PUSH1 0x40 DUP6 ADD DUP3 PUSH2 0x2A55 JUMP JUMPDEST POP PUSH1 0x60 DUP3 ADD MLOAD PUSH2 0x2AF5 PUSH1 0xA0 DUP6 ADD DUP3 PUSH2 0x2A97 JUMP JUMPDEST POP POP POP POP JUMP JUMPDEST PUSH1 0x0 PUSH2 0x2B07 DUP4 DUP4 PUSH2 0x2AA6 JUMP JUMPDEST PUSH1 0xC0 DUP4 ADD SWAP1 POP SWAP3 SWAP2 POP POP JUMP JUMPDEST PUSH1 0x0 PUSH1 0x20 DUP3 ADD SWAP1 POP SWAP2 SWAP1 POP JUMP JUMPDEST PUSH1 0x0 PUSH2 0x2B2B DUP3 PUSH2 0x29CF JUMP JUMPDEST PUSH2 0x2B35 DUP2 DUP6 PUSH2 0x29DA JUMP JUMPDEST SWAP4 POP PUSH2 0x2B40 DUP4 PUSH2 0x29EB JUMP JUMPDEST DUP1 PUSH1 0x0 JUMPDEST DUP4 DUP2 LT ISZERO PUSH2 0x2B71 JUMPI DUP2 MLOAD PUSH2 0x2B58 DUP9 DUP3 PUSH2 0x2AFB JUMP JUMPDEST SWAP8 POP PUSH2 0x2B63 DUP4 PUSH2 0x2B13 JUMP JUMPDEST SWAP3 POP POP PUSH1 0x1 DUP2 ADD SWAP1 POP PUSH2 0x2B44 JUMP JUMPDEST POP DUP6 SWAP4 POP POP POP POP SWAP3 SWAP2 POP POP JUMP JUMPDEST PUSH1 0x0 PUSH1 0x20 DUP3 ADD SWAP1 POP DUP2 DUP2 SUB PUSH1 0x0 DUP4 ADD MSTORE PUSH2 0x2B98 DUP2 DUP5 PUSH2 0x2B20 JUMP JUMPDEST SWAP1 POP SWAP3 SWAP2 POP POP JUMP JUMPDEST PUSH2 0x2BA9 DUP2 PUSH2 0x2A1B JUMP JUMPDEST DUP2 EQ PUSH2 0x2BB4 JUMPI PUSH1 0x0 DUP1 REVERT JUMPDEST POP JUMP JUMPDEST PUSH1 0x0 DUP2 CALLDATALOAD SWAP1 POP PUSH2 0x2BC6 DUP2 PUSH2 0x2BA0 JUMP JUMPDEST SWAP3 SWAP2 POP POP JUMP JUMPDEST PUSH1 0x0 PUSH1 0x20 DUP3 DUP5 SUB SLT ISZERO PUSH2 0x2BE2 JUMPI PUSH2 0x2BE1 PUSH2 0x290F JUMP JUMPDEST JUMPDEST PUSH1 0x0 PUSH2 0x2BF0 DUP5 DUP3 DUP6 ADD PUSH2 0x2BB7 JUMP JUMPDEST SWAP2 POP POP SWAP3 SWAP2 POP POP JUMP JUMPDEST PUSH1 0x0 DUP2 MLOAD SWAP1 POP SWAP2 SWAP1 POP JUMP JUMPDEST PUSH1 0x0 DUP3 DUP3 MSTORE PUSH1 0x20 DUP3 ADD SWAP1 POP SWAP3 SWAP2 POP POP JUMP JUMPDEST PUSH1 0x0 DUP2 SWAP1 POP PUSH1 0x20 DUP3 ADD SWAP1 POP SWAP2 SWAP1 POP JUMP JUMPDEST PUSH1 0x0 PUSH2 0x2C31 DUP4 DUP4 PUSH2 0x2A2D JUMP JUMPDEST PUSH1 0x20 DUP4 ADD SWAP1 POP SWAP3 SWAP2 POP POP JUMP JUMPDEST PUSH1 0x0 PUSH1 0x20 DUP3 ADD SWAP1 POP SWAP2 SWAP1 POP JUMP JUMPDEST PUSH1 0x0 PUSH2 0x2C55 DUP3 PUSH2 0x2BF9 JUMP JUMPDEST PUSH2 0x2C5F DUP2 DUP6 PUSH2 0x2C04 JUMP JUMPDEST SWAP4 POP PUSH2 0x2C6A DUP4 PUSH2 0x2C15 JUMP JUMPDEST DUP1 PUSH1 0x0 JUMPDEST DUP4 DUP2 LT ISZERO PUSH2 0x2C9B JUMPI DUP2 MLOAD PUSH2 0x2C82 DUP9 DUP3 PUSH2 0x2C25 JUMP JUMPDEST SWAP8 POP PUSH2 0x2C8D DUP4 PUSH2 0x2C3D JUMP JUMPDEST SWAP3 POP POP PUSH1 0x1 DUP2 ADD SWAP1 POP PUSH2 0x2C6E JUMP JUMPDEST POP DUP6 SWAP4 POP POP POP POP SWAP3 SWAP2 POP POP JUMP JUMPDEST PUSH1 0x0 PUSH1 0x20 DUP3 ADD SWAP1 POP DUP2 DUP2 SUB PUSH1 0x0 DUP4 ADD MSTORE PUSH2 0x2CC2 DUP2 DUP5 PUSH2 0x2C4A JUMP JUMPDEST SWAP1 POP SWAP3 SWAP2 POP POP JUMP JUMPDEST PUSH2 0x2CD3 DUP2 PUSH2 0x2A3C JUMP JUMPDEST DUP2 EQ PUSH2 0x2CDE JUMPI PUSH1 0x0 DUP1 REVERT JUMPDEST POP JUMP JUMPDEST PUSH1 0x0 DUP2 CALLDATALOAD SWAP1 POP PUSH2 0x2CF0 DUP2 PUSH2 0x2CCA JUMP JUMPDEST SWAP3 SWAP2 POP POP JUMP JUMPDEST PUSH1 0x0 PUSH1 0x20 DUP3 DUP5 SUB SLT ISZERO PUSH2 0x2D0C JUMPI PUSH2 0x2D0B PUSH2 0x290F JUMP JUMPDEST JUMPDEST PUSH1 0x0 PUSH2 0x2D1A DUP5 DUP3 DUP6 ADD PUSH2 0x2CE1 JUMP JUMPDEST SWAP2 POP POP SWAP3 SWAP2 POP POP JUMP JUMPDEST PUSH1 0xC0 DUP3 ADD PUSH1 0x0 DUP3 ADD MLOAD PUSH2 0x2D39 PUSH1 0x0 DUP6 ADD DUP3 PUSH2 0x2A2D JUMP JUMPDEST POP PUSH1 0x20 DUP3 ADD MLOAD PUSH2 0x2D4C PUSH1 0x20 DUP6 ADD DUP3 PUSH2 0x2A46 JUMP JUMPDEST POP PUSH1 0x40 DUP3 ADD MLOAD PUSH2 0x2D5F PUSH1 0x40 DUP6 ADD DUP3 PUSH2 0x2A55 JUMP JUMPDEST POP PUSH1 0x60 DUP3 ADD MLOAD PUSH2 0x2D72 PUSH1 0xA0 DUP6 ADD DUP3 PUSH2 0x2A97 JUMP JUMPDEST POP POP POP POP JUMP JUMPDEST PUSH1 0x0 PUSH1 0xC0 DUP3 ADD SWAP1 POP PUSH2 0x2D8D PUSH1 0x0 DUP4 ADD DUP5 PUSH2 0x2D23 JUMP JUMPDEST SWAP3 SWAP2 POP POP JUMP JUMPDEST PUSH1 0x0 DUP1 PUSH1 0x40 DUP4 DUP6 SUB SLT ISZERO PUSH2 0x2DAA JUMPI PUSH2 0x2DA9 PUSH2 0x290F JUMP JUMPDEST JUMPDEST PUSH1 0x0 PUSH2 0x2DB8 DUP6 DUP3 DUP7 ADD PUSH2 0x2BB7 JUMP JUMPDEST SWAP3 POP POP PUSH1 0x20 PUSH2 0x2DC9 DUP6 DUP3 DUP7 ADD PUSH2 0x2CE1 JUMP JUMPDEST SWAP2 POP POP SWAP3 POP SWAP3 SWAP1 POP JUMP JUMPDEST PUSH1 0x60 DUP3 ADD PUSH1 0x0 DUP3 ADD MLOAD PUSH2 0x2DE9 PUSH1 0x0 DUP6 ADD DUP3 PUSH2 0x2A46 JUMP JUMPDEST POP PUSH1 0x20 DUP3 ADD MLOAD PUSH2 0x2DFC PUSH1 0x20 DUP6 ADD DUP3 PUSH2 0x2A2D JUMP JUMPDEST POP PUSH1 0x40 DUP3 ADD MLOAD PUSH2 0x2E0F PUSH1 0x40 DUP6 ADD DUP3 PUSH2 0x2A46 JUMP JUMPDEST POP POP POP POP JUMP JUMPDEST PUSH1 0x0 PUSH1 0x60 DUP3 ADD SWAP1 POP PUSH2 0x2E2A PUSH1 0x0 DUP4 ADD DUP5 PUSH2 0x2DD3 JUMP JUMPDEST SWAP3 SWAP2 POP POP JUMP JUMPDEST PUSH1 0x0 DUP1 PUSH1 0x0 PUSH1 0x60 DUP5 DUP7 SUB SLT ISZERO PUSH2 0x2E49 JUMPI PUSH2 0x2E48 PUSH2 0x290F JUMP JUMPDEST JUMPDEST PUSH1 0x0 PUSH2 0x2E57 DUP7 DUP3 DUP8 ADD PUSH2 0x2BB7 JUMP JUMPDEST SWAP4 POP POP PUSH1 0x20 PUSH2 0x2E68 DUP7 DUP3 DUP8 ADD PUSH2 0x2CE1 JUMP JUMPDEST SWAP3 POP POP PUSH1 0x40 PUSH2 0x2E79 DUP7 DUP3 DUP8 ADD PUSH2 0x2CE1 JUMP JUMPDEST SWAP2 POP POP SWAP3 POP SWAP3 POP SWAP3 JUMP JUMPDEST PUSH2 0x2E8C DUP2 PUSH2 0x2A1B JUMP JUMPDEST DUP3 MSTORE POP POP JUMP JUMPDEST PUSH1 0x0 PUSH1 0x20 DUP3 ADD SWAP1 POP PUSH2 0x2EA7 PUSH1 0x0 DUP4 ADD DUP5 PUSH2 0x2E83 JUMP JUMPDEST SWAP3 SWAP2 POP POP JUMP JUMPDEST PUSH32 0x4E487B7100000000000000000000000000000000000000000000000000000000 PUSH1 0x0 MSTORE PUSH1 0x41 PUSH1 0x4 MSTORE PUSH1 0x24 PUSH1 0x0 REVERT JUMPDEST PUSH32 0x4E487B7100000000000000000000000000000000000000000000000000000000 PUSH1 0x0 MSTORE PUSH1 0x32 PUSH1 0x4 MSTORE PUSH1 0x24 PUSH1 0x0 REVERT JUMPDEST PUSH32 0x4E487B7100000000000000000000000000000000000000000000000000000000 PUSH1 0x0 MSTORE PUSH1 0x11 PUSH1 0x4 MSTORE PUSH1 0x24 PUSH1 0x0 REVERT JUMPDEST PUSH1 0x0 PUSH2 0x2F45 DUP3 PUSH2 0x2A3C JUMP JUMPDEST SWAP2 POP PUSH2 0x2F50 DUP4 PUSH2 0x2A3C JUMP JUMPDEST SWAP3 POP DUP3 DUP3 ADD SWAP1 POP DUP1 DUP3 GT ISZERO PUSH2 0x2F68 JUMPI PUSH2 0x2F67 PUSH2 0x2F0B JUMP JUMPDEST JUMPDEST SWAP3 SWAP2 POP POP JUMP JUMPDEST PUSH1 0x0 PUSH2 0x2F79 DUP3 PUSH2 0x2A3C JUMP JUMPDEST SWAP2 POP PUSH32 0xFFFFFFFFFFFFFFFFFFFFFFFFFFFFFFFFFFFFFFFFFFFFFFFFFFFFFFFFFFFFFFFF DUP3 SUB PUSH2 0x2FAB JUMPI PUSH2 0x2FAA PUSH2 0x2F0B JUMP JUMPDEST JUMPDEST PUSH1 0x1 DUP3 ADD SWAP1 POP SWAP2 SWAP1 POP JUMP JUMPDEST PUSH1 0x0 PUSH2 0x2FC1 DUP3 PUSH2 0x2A3C JUMP JUMPDEST SWAP2 POP PUSH2 0x2FCC DUP4 PUSH2 0x2A3C JUMP JUMPDEST SWAP3 POP DUP3 DUP3 SUB SWAP1 POP DUP2 DUP2 GT ISZERO PUSH2 0x2FE4 JUMPI PUSH2 0x2FE3 PUSH2 0x2F0B JUMP JUMPDEST JUMPDEST SWAP3 SWAP2 POP POP JUMP JUMPDEST PUSH1 0x0 DUP3 DUP3 MSTORE PUSH1 0x20 DUP3 ADD SWAP1 POP SWAP3 SWAP2 POP POP JUMP JUMPDEST PUSH32 0x496E697469616C697A61626C653A20636F6E747261637420697320616C726561 PUSH1 0x0 DUP3 ADD MSTORE PUSH32 0x647920696E697469616C697A6564000000000000000000000000000000000000 PUSH1 0x20 DUP3 ADD MSTORE POP JUMP JUMPDEST PUSH1 0x0 PUSH2 0x3057 PUSH1 0x2E DUP4 PUSH2 0x2FEA JUMP JUMPDEST SWAP2 POP PUSH2 0x3062 DUP3 PUSH2 0x2FFB JUMP JUMPDEST PUSH1 0x40 DUP3 ADD SWAP1 POP SWAP2 SWAP1 POP JUMP JUMPDEST PUSH1 0x0 PUSH1 0x20 DUP3 ADD SWAP1 POP DUP2 DUP2 SUB PUSH1 0x0 DUP4 ADD MSTORE PUSH2 0x3086 DUP2 PUSH2 0x304A JUMP JUMPDEST SWAP1 POP SWAP2 SWAP1 POP JUMP JUMPDEST PUSH1 0x0 DUP2 SWAP1 POP SWAP2 SWAP1 POP JUMP JUMPDEST PUSH1 0x0 PUSH1 0xFF DUP3 AND SWAP1 POP SWAP2 SWAP1 POP JUMP JUMPDEST PUSH1 0x0 DUP2 SWAP1 POP SWAP2 SWAP1 POP JUMP JUMPDEST PUSH1 0x0 PUSH2 0x30C9 PUSH2 0x30C4 PUSH2 0x30BF DUP5 PUSH2 0x308D JUMP JUMPDEST PUSH2 0x30A4 JUMP JUMPDEST PUSH2 0x3097 JUMP JUMPDEST SWAP1 POP SWAP2 SWAP1 POP JUMP JUMPDEST PUSH2 0x30D9 DUP2 PUSH2 0x30AE JUMP JUMPDEST DUP3 MSTORE POP POP JUMP JUMPDEST PUSH1 0x0 PUSH1 0x20 DUP3 ADD SWAP1 POP PUSH2 0x30F4 PUSH1 0x0 DUP4 ADD DUP5 PUSH2 0x30D0 JUMP JUMPDEST SWAP3 SWAP2 POP POP JUMP JUMPDEST PUSH2 0x3103 DUP2 PUSH2 0x2A3C JUMP JUMPDEST DUP3 MSTORE POP POP JUMP JUMPDEST PUSH1 0x0 PUSH1 0x40 DUP3 ADD SWAP1 POP PUSH2 0x311E PUSH1 0x0 DUP4 ADD DUP6 PUSH2 0x2E83 JUMP JUMPDEST PUSH2 0x312B PUSH1 0x20 DUP4 ADD DUP5 PUSH2 0x30FA JUMP JUMPDEST SWAP4 SWAP3 POP POP POP JUMP JUMPDEST PUSH1 0x0 PUSH1 0x20 DUP3 ADD SWAP1 POP PUSH2 0x3147 PUSH1 0x0 DUP4 ADD DUP5 PUSH2 0x30FA JUMP JUMPDEST SWAP3 SWAP2 POP POP JUMP JUMPDEST PUSH1 0x0 DUP2 MLOAD SWAP1 POP PUSH2 0x315C DUP2 PUSH2 0x2BA0 JUMP JUMPDEST SWAP3 SWAP2 POP POP JUMP JUMPDEST PUSH1 0x0 PUSH1 0x20 DUP3 DUP5 SUB SLT ISZERO PUSH2 0x3178 JUMPI PUSH2 0x3177 PUSH2 0x290F JUMP JUMPDEST JUMPDEST PUSH1 0x0 PUSH2 0x3186 DUP5 DUP3 DUP6 ADD PUSH2 0x314D JUMP JUMPDEST SWAP2 POP POP SWAP3 SWAP2 POP POP JUMP JUMPDEST PUSH1 0x0 PUSH1 0x40 DUP3 ADD SWAP1 POP PUSH2 0x31A4 PUSH1 0x0 DUP4 ADD DUP6 PUSH2 0x30FA JUMP JUMPDEST PUSH2 0x31B1 PUSH1 0x20 DUP4 ADD DUP5 PUSH2 0x30FA JUMP JUMPDEST SWAP4 SWAP3 POP POP POP JUMP JUMPDEST PUSH1 0x0 PUSH1 0x60 DUP3 ADD SWAP1 POP PUSH2 0x31CD PUSH1 0x0 DUP4 ADD DUP7 PUSH2 0x2E83 JUMP JUMPDEST PUSH2 0x31DA PUSH1 0x20 DUP4 ADD DUP6 PUSH2 0x30FA JUMP JUMPDEST PUSH2 0x31E7 PUSH1 0x40 DUP4 ADD DUP5 PUSH2 0x30FA JUMP JUMPDEST SWAP5 SWAP4 POP POP POP POP JUMP JUMPDEST PUSH32 0x4E487B7100000000000000000000000000000000000000000000000000000000 PUSH1 0x0 MSTORE PUSH1 0x12 PUSH1 0x4 MSTORE PUSH1 0x24 PUSH1 0x0 REVERT JUMPDEST PUSH1 0x0 PUSH2 0x3229 DUP3 PUSH2 0x2A3C JUMP JUMPDEST SWAP2 POP PUSH2 0x3234 DUP4 PUSH2 0x2A3C JUMP JUMPDEST SWAP3 POP DUP3 PUSH2 0x3244 JUMPI PUSH2 0x3243 PUSH2 0x31EF JUMP JUMPDEST JUMPDEST DUP3 DUP3 DIV SWAP1 POP SWAP3 SWAP2 POP POP JUMP JUMPDEST PUSH1 0x0 PUSH2 0x325A DUP3 PUSH2 0x2A3C JUMP JUMPDEST SWAP2 POP PUSH2 0x3265 DUP4 PUSH2 0x2A3C JUMP JUMPDEST SWAP3 POP DUP3 DUP3 MUL PUSH2 0x3273 DUP2 PUSH2 0x2A3C JUMP JUMPDEST SWAP2 POP DUP3 DUP3 DIV DUP5 EQ DUP4 ISZERO OR PUSH2 0x328A JUMPI PUSH2 0x3289 PUSH2 0x2F0B JUMP JUMPDEST JUMPDEST POP SWAP3 SWAP2 POP POP JUMP JUMPDEST PUSH1 0x0 PUSH1 0x60 DUP3 ADD SWAP1 POP PUSH2 0x32A6 PUSH1 0x0 DUP4 ADD DUP7 PUSH2 0x2E83 JUMP JUMPDEST PUSH2 0x32B3 PUSH1 0x20 DUP4 ADD DUP6 PUSH2 0x2E83 JUMP JUMPDEST PUSH2 0x32C0 PUSH1 0x40 DUP4 ADD DUP5 PUSH2 0x30FA JUMP JUMPDEST SWAP5 SWAP4 POP POP POP POP JUMP JUMPDEST PUSH32 0x4F776E61626C653A206E6577206F776E657220697320746865207A65726F2061 PUSH1 0x0 DUP3 ADD MSTORE PUSH32 0x6464726573730000000000000000000000000000000000000000000000000000 PUSH1 0x20 DUP3 ADD MSTORE POP JUMP JUMPDEST PUSH1 0x0 PUSH2 0x3324 PUSH1 0x26 DUP4 PUSH2 0x2FEA JUMP JUMPDEST SWAP2 POP PUSH2 0x332F DUP3 PUSH2 0x32C8 JUMP JUMPDEST PUSH1 0x40 DUP3 ADD SWAP1 POP SWAP2 SWAP1 POP JUMP JUMPDEST PUSH1 0x0 PUSH1 0x20 DUP3 ADD SWAP1 POP DUP2 DUP2 SUB PUSH1 0x0 DUP4 ADD MSTORE PUSH2 0x3353 DUP2 PUSH2 0x3317 JUMP JUMPDEST SWAP1 POP SWAP2 SWAP1 POP JUMP JUMPDEST PUSH32 0x4F776E61626C653A2063616C6C6572206973206E6F7420746865206F776E6572 PUSH1 0x0 DUP3 ADD MSTORE POP JUMP JUMPDEST PUSH1 0x0 PUSH2 0x3390 PUSH1 0x20 DUP4 PUSH2 0x2FEA JUMP JUMPDEST SWAP2 POP PUSH2 0x339B DUP3 PUSH2 0x335A JUMP JUMPDEST PUSH1 0x20 DUP3 ADD SWAP1 POP SWAP2 SWAP1 POP JUMP JUMPDEST PUSH1 0x0 PUSH1 0x20 DUP3 ADD SWAP1 POP DUP2 DUP2 SUB PUSH1 0x0 DUP4 ADD MSTORE PUSH2 0x33BF DUP2 PUSH2 0x3383 JUMP JUMPDEST SWAP1 POP SWAP2 SWAP1 POP JUMP JUMPDEST PUSH32 0x496E697469616C697A61626C653A20636F6E7472616374206973206E6F742069 PUSH1 0x0 DUP3 ADD MSTORE PUSH32 0x6E697469616C697A696E67000000000000000000000000000000000000000000 PUSH1 0x20 DUP3 ADD MSTORE POP JUMP JUMPDEST PUSH1 0x0 PUSH2 0x3422 PUSH1 0x2B DUP4 PUSH2 0x2FEA JUMP JUMPDEST SWAP2 POP PUSH2 0x342D DUP3 PUSH2 0x33C6 JUMP JUMPDEST PUSH1 0x40 DUP3 ADD SWAP1 POP SWAP2 SWAP1 POP JUMP JUMPDEST PUSH1 0x0 PUSH1 0x20 DUP3 ADD SWAP1 POP DUP2 DUP2 SUB PUSH1 0x0 DUP4 ADD MSTORE PUSH2 0x3451 DUP2 PUSH2 0x3415 JUMP JUMPDEST SWAP1 POP SWAP2 SWAP1 POP JUMP JUMPDEST PUSH32 0x5265656E7472616E637947756172643A207265656E7472616E742063616C6C00 PUSH1 0x0 DUP3 ADD MSTORE POP JUMP JUMPDEST PUSH1 0x0 PUSH2 0x348E PUSH1 0x1F DUP4 PUSH2 0x2FEA JUMP JUMPDEST SWAP2 POP PUSH2 0x3499 DUP3 PUSH2 0x3458 JUMP JUMPDEST PUSH1 0x20 DUP3 ADD SWAP1 POP SWAP2 SWAP1 POP JUMP JUMPDEST PUSH1 0x0 PUSH1 0x20 DUP3 ADD SWAP1 POP DUP2 DUP2 SUB PUSH1 0x0 DUP4 ADD MSTORE PUSH2 0x34BD DUP2 PUSH2 0x3481 JUMP JUMPDEST SWAP1 POP SWAP2 SWAP1 POP JUMP JUMPDEST PUSH1 0x0 DUP2 SWAP1 POP SWAP3 SWAP2 POP POP JUMP JUMPDEST POP JUMP JUMPDEST PUSH1 0x0 PUSH2 0x34DF PUSH1 0x0 DUP4 PUSH2 0x34C4 JUMP JUMPDEST SWAP2 POP PUSH2 0x34EA DUP3 PUSH2 0x34CF JUMP JUMPDEST PUSH1 0x0 DUP3 ADD SWAP1 POP SWAP2 SWAP1 POP JUMP JUMPDEST PUSH1 0x0 PUSH2 0x3500 DUP3 PUSH2 0x34D2 JUMP JUMPDEST SWAP2 POP DUP2 SWAP1 POP SWAP2 SWAP1 POP JUMP JUMPDEST PUSH32 0x5472616E73666572206661696C65642E00000000000000000000000000000000 PUSH1 0x0 DUP3 ADD MSTORE POP JUMP JUMPDEST PUSH1 0x0 PUSH2 0x3540 PUSH1 0x10 DUP4 PUSH2 0x2FEA JUMP JUMPDEST SWAP2 POP PUSH2 0x354B DUP3 PUSH2 0x350A JUMP JUMPDEST PUSH1 0x20 DUP3 ADD SWAP1 POP SWAP2 SWAP1 POP JUMP JUMPDEST PUSH1 0x0 PUSH1 0x20 DUP3 ADD SWAP1 POP DUP2 DUP2 SUB PUSH1 0x0 DUP4 ADD MSTORE PUSH2 0x356F DUP2 PUSH2 0x3533 JUMP JUMPDEST SWAP1 POP SWAP2 SWAP1 POP JUMP JUMPDEST PUSH32 0x4E487B7100000000000000000000000000000000000000000000000000000000 PUSH1 0x0 MSTORE PUSH1 0x31 PUSH1 0x4 MSTORE PUSH1 0x24 PUSH1 0x0 REVERT INVALID LOG2 PUSH5 0x6970667358 0x22 SLT KECCAK256 SWAP13 LOG1 0xB2 PUSH2 0x8EB4 0xB8 0xCB DUP6 0xCB 0xC8 STOP MOD PUSH2 0x5945 0xF8 JUMPI 0xDA 0xE1 SELFDESTRUCT MSTORE ADDMOD 0x5E 0xD0 0xE4 DUP12 SWAP12 0xB6 0x22 0xE2 SHL PUSH5 0x736F6C6343 STOP ADDMOD GT STOP CALLER "
				},
				"gasEstimates": {
					"creation": {
						"codeDepositCost": "2757400",
						"executionCost": "infinite",
						"totalCost": "infinite"
					},
					"external": {
						"approveAdmin(address)": "infinite",
						"buyItem(address,uint256)": "infinite",
						"cancelListing(address,uint256)": "infinite",
						"fetchListedMarketItems()": "infinite",
						"fetchMyListings()": "infinite",
						"getAdmins()": "infinite",
						"getListing(address,uint256)": "infinite",
						"getListingById(uint256)": "infinite",
						"initialize()": "116172",
						"isAdmin(address)": "infinite",
						"listItem(address,uint256,uint256)": "infinite",
						"owner()": "2633",
						"renounceOwnership()": "30421",
						"revokeAdmin(address)": "infinite",
						"supportsInterface(bytes4)": "751",
						"transferOwnership(address)": "30810",
						"updateDevWallet(address)": "27054",
						"updateListing(address,uint256,uint256)": "infinite",
						"withdrawAll(address)": "infinite"
					}
				},
				"methodIdentifiers": {
					"approveAdmin(address)": "6d73e669",
					"buyItem(address,uint256)": "9f37092a",
					"cancelListing(address,uint256)": "b2ddee06",
					"fetchListedMarketItems()": "1fb0080e",
					"fetchMyListings()": "15a70d8d",
					"getAdmins()": "31ae450b",
					"getListing(address,uint256)": "88700d1c",
					"getListingById(uint256)": "4f85310f",
					"initialize()": "8129fc1c",
					"isAdmin(address)": "24d7806c",
					"listItem(address,uint256,uint256)": "89bfd38f",
					"owner()": "8da5cb5b",
					"renounceOwnership()": "715018a6",
					"revokeAdmin(address)": "2d345670",
					"supportsInterface(bytes4)": "01ffc9a7",
					"transferOwnership(address)": "f2fde38b",
					"updateDevWallet(address)": "1816467f",
					"updateListing(address,uint256,uint256)": "f772adf1",
					"withdrawAll(address)": "fa09e630"
				}
			},
			"storageLayout": {
				"storage": [
					{
						"astId": 138,
						"contract": "contracts/contracts/ff-mp/MP.sol:FlowFrenzMarketplace",
						"label": "_initialized",
						"offset": 0,
						"slot": "0",
						"type": "t_uint8"
					},
					{
						"astId": 141,
						"contract": "contracts/contracts/ff-mp/MP.sol:FlowFrenzMarketplace",
						"label": "_initializing",
						"offset": 1,
						"slot": "0",
						"type": "t_bool"
					},
					{
						"astId": 671,
						"contract": "contracts/contracts/ff-mp/MP.sol:FlowFrenzMarketplace",
						"label": "__gap",
						"offset": 0,
						"slot": "1",
						"type": "t_array(t_uint256)50_storage"
					},
					{
						"astId": 10,
						"contract": "contracts/contracts/ff-mp/MP.sol:FlowFrenzMarketplace",
						"label": "_owner",
						"offset": 0,
						"slot": "51",
						"type": "t_address"
					},
					{
						"astId": 130,
						"contract": "contracts/contracts/ff-mp/MP.sol:FlowFrenzMarketplace",
						"label": "__gap",
						"offset": 0,
						"slot": "52",
						"type": "t_array(t_uint256)49_storage"
					},
					{
						"astId": 1352,
						"contract": "contracts/contracts/ff-mp/MP.sol:FlowFrenzMarketplace",
						"label": "_status",
						"offset": 0,
						"slot": "101",
						"type": "t_uint256"
					},
					{
						"astId": 1688,
						"contract": "contracts/contracts/ff-mp/MP.sol:FlowFrenzMarketplace",
						"label": "_admins",
						"offset": 0,
						"slot": "102",
						"type": "t_struct(AddressSet)1054_storage"
					},
					{
						"astId": 1691,
						"contract": "contracts/contracts/ff-mp/MP.sol:FlowFrenzMarketplace",
						"label": "_devWallet",
						"offset": 0,
						"slot": "104",
						"type": "t_address"
					},
					{
						"astId": 2024,
						"contract": "contracts/contracts/ff-mp/MP.sol:FlowFrenzMarketplace",
						"label": "s_listings",
						"offset": 0,
						"slot": "105",
						"type": "t_mapping(t_address,t_mapping(t_uint256,t_struct(Listing)2046_storage))"
					},
					{
						"astId": 2028,
						"contract": "contracts/contracts/ff-mp/MP.sol:FlowFrenzMarketplace",
						"label": "s_proceeds",
						"offset": 0,
						"slot": "106",
						"type": "t_mapping(t_address,t_uint256)"
					},
					{
						"astId": 2033,
						"contract": "contracts/contracts/ff-mp/MP.sol:FlowFrenzMarketplace",
						"label": "_idToListing",
						"offset": 0,
						"slot": "107",
						"type": "t_mapping(t_uint256,t_struct(ListedItem)2056_storage)"
					},
					{
						"astId": 2036,
						"contract": "contracts/contracts/ff-mp/MP.sol:FlowFrenzMarketplace",
						"label": "_totalMpListings",
						"offset": 0,
						"slot": "108",
						"type": "t_struct(Counter)1528_storage"
					},
					{
						"astId": 2039,
						"contract": "contracts/contracts/ff-mp/MP.sol:FlowFrenzMarketplace",
						"label": "_totalComplete",
						"offset": 0,
						"slot": "109",
						"type": "t_struct(Counter)1528_storage"
					}
				],
				"types": {
					"t_address": {
						"encoding": "inplace",
						"label": "address",
						"numberOfBytes": "20"
					},
					"t_array(t_bytes32)dyn_storage": {
						"base": "t_bytes32",
						"encoding": "dynamic_array",
						"label": "bytes32[]",
						"numberOfBytes": "32"
					},
					"t_array(t_uint256)49_storage": {
						"base": "t_uint256",
						"encoding": "inplace",
						"label": "uint256[49]",
						"numberOfBytes": "1568"
					},
					"t_array(t_uint256)50_storage": {
						"base": "t_uint256",
						"encoding": "inplace",
						"label": "uint256[50]",
						"numberOfBytes": "1600"
					},
					"t_bool": {
						"encoding": "inplace",
						"label": "bool",
						"numberOfBytes": "1"
					},
					"t_bytes32": {
						"encoding": "inplace",
						"label": "bytes32",
						"numberOfBytes": "32"
					},
					"t_mapping(t_address,t_mapping(t_uint256,t_struct(Listing)2046_storage))": {
						"encoding": "mapping",
						"key": "t_address",
						"label": "mapping(address => mapping(uint256 => struct FlowFrenzTransactionMgr.Listing))",
						"numberOfBytes": "32",
						"value": "t_mapping(t_uint256,t_struct(Listing)2046_storage)"
					},
					"t_mapping(t_address,t_uint256)": {
						"encoding": "mapping",
						"key": "t_address",
						"label": "mapping(address => uint256)",
						"numberOfBytes": "32",
						"value": "t_uint256"
					},
					"t_mapping(t_bytes32,t_uint256)": {
						"encoding": "mapping",
						"key": "t_bytes32",
						"label": "mapping(bytes32 => uint256)",
						"numberOfBytes": "32",
						"value": "t_uint256"
					},
					"t_mapping(t_uint256,t_struct(ListedItem)2056_storage)": {
						"encoding": "mapping",
						"key": "t_uint256",
						"label": "mapping(uint256 => struct FlowFrenzTransactionMgr.ListedItem)",
						"numberOfBytes": "32",
						"value": "t_struct(ListedItem)2056_storage"
					},
					"t_mapping(t_uint256,t_struct(Listing)2046_storage)": {
						"encoding": "mapping",
						"key": "t_uint256",
						"label": "mapping(uint256 => struct FlowFrenzTransactionMgr.Listing)",
						"numberOfBytes": "32",
						"value": "t_struct(Listing)2046_storage"
					},
					"t_struct(AddressSet)1054_storage": {
						"encoding": "inplace",
						"label": "struct EnumerableSetUpgradeable.AddressSet",
						"members": [
							{
								"astId": 1053,
								"contract": "contracts/contracts/ff-mp/MP.sol:FlowFrenzMarketplace",
								"label": "_inner",
								"offset": 0,
								"slot": "0",
								"type": "t_struct(Set)739_storage"
							}
						],
						"numberOfBytes": "64"
					},
					"t_struct(Counter)1528_storage": {
						"encoding": "inplace",
						"label": "struct Counters.Counter",
						"members": [
							{
								"astId": 1527,
								"contract": "contracts/contracts/ff-mp/MP.sol:FlowFrenzMarketplace",
								"label": "_value",
								"offset": 0,
								"slot": "0",
								"type": "t_uint256"
							}
						],
						"numberOfBytes": "32"
					},
					"t_struct(ListedItem)2056_storage": {
						"encoding": "inplace",
						"label": "struct FlowFrenzTransactionMgr.ListedItem",
						"members": [
							{
								"astId": 2048,
								"contract": "contracts/contracts/ff-mp/MP.sol:FlowFrenzMarketplace",
								"label": "contractAddress",
								"offset": 0,
								"slot": "0",
								"type": "t_address"
							},
							{
								"astId": 2050,
								"contract": "contracts/contracts/ff-mp/MP.sol:FlowFrenzMarketplace",
								"label": "tokenId",
								"offset": 0,
								"slot": "1",
								"type": "t_uint256"
							},
							{
								"astId": 2053,
								"contract": "contracts/contracts/ff-mp/MP.sol:FlowFrenzMarketplace",
								"label": "listing",
								"offset": 0,
								"slot": "2",
								"type": "t_struct(Listing)2046_storage"
							},
							{
								"astId": 2055,
								"contract": "contracts/contracts/ff-mp/MP.sol:FlowFrenzMarketplace",
								"label": "active",
								"offset": 0,
								"slot": "5",
								"type": "t_bool"
							}
						],
						"numberOfBytes": "192"
					},
					"t_struct(Listing)2046_storage": {
						"encoding": "inplace",
						"label": "struct FlowFrenzTransactionMgr.Listing",
						"members": [
							{
								"astId": 2041,
								"contract": "contracts/contracts/ff-mp/MP.sol:FlowFrenzMarketplace",
								"label": "price",
								"offset": 0,
								"slot": "0",
								"type": "t_uint256"
							},
							{
								"astId": 2043,
								"contract": "contracts/contracts/ff-mp/MP.sol:FlowFrenzMarketplace",
								"label": "seller",
								"offset": 0,
								"slot": "1",
								"type": "t_address"
							},
							{
								"astId": 2045,
								"contract": "contracts/contracts/ff-mp/MP.sol:FlowFrenzMarketplace",
								"label": "listingId",
								"offset": 0,
								"slot": "2",
								"type": "t_uint256"
							}
						],
						"numberOfBytes": "96"
					},
					"t_struct(Set)739_storage": {
						"encoding": "inplace",
						"label": "struct EnumerableSetUpgradeable.Set",
						"members": [
							{
								"astId": 734,
								"contract": "contracts/contracts/ff-mp/MP.sol:FlowFrenzMarketplace",
								"label": "_values",
								"offset": 0,
								"slot": "0",
								"type": "t_array(t_bytes32)dyn_storage"
							},
							{
								"astId": 738,
								"contract": "contracts/contracts/ff-mp/MP.sol:FlowFrenzMarketplace",
								"label": "_indexes",
								"offset": 0,
								"slot": "1",
								"type": "t_mapping(t_bytes32,t_uint256)"
							}
						],
						"numberOfBytes": "64"
					},
					"t_uint256": {
						"encoding": "inplace",
						"label": "uint256",
						"numberOfBytes": "32"
					},
					"t_uint8": {
						"encoding": "inplace",
						"label": "uint8",
						"numberOfBytes": "1"
					}
				}
			},
			"userdoc": {
				"kind": "user",
				"methods": {
					"initialize()": {
						"notice": "Initializer"
					}
				},
				"version": 1
			}
		}
	}
}