{
  "_format": "hh-sol-artifact-1",
  "contractName": "ERC721Creator",
  "sourceName": "contracts/contract-factory/ERC721Creator.sol",
  "abi": [
    {
      "inputs": [],
      "stateMutability": "nonpayable",
      "type": "constructor"
    },
    {
      "anonymous": false,
      "inputs": [
        {
          "indexed": true,
          "internalType": "address",
          "name": "account",
          "type": "address"
        },
        {
          "indexed": true,
          "internalType": "address",
          "name": "sender",
          "type": "address"
        }
      ],
      "name": "AdminApproved",
      "type": "event"
    },
    {
      "anonymous": false,
      "inputs": [
        {
          "indexed": true,
          "internalType": "address",
          "name": "account",
          "type": "address"
        },
        {
          "indexed": true,
          "internalType": "address",
          "name": "sender",
          "type": "address"
        }
      ],
      "name": "AdminRevoked",
      "type": "event"
    },
    {
      "anonymous": false,
      "inputs": [
        {
          "indexed": true,
          "internalType": "address",
          "name": "owner",
          "type": "address"
        },
        {
          "indexed": true,
          "internalType": "address",
          "name": "approved",
          "type": "address"
        },
        {
          "indexed": true,
          "internalType": "uint256",
          "name": "tokenId",
          "type": "uint256"
        }
      ],
      "name": "Approval",
      "type": "event"
    },
    {
      "anonymous": false,
      "inputs": [
        {
          "indexed": true,
          "internalType": "address",
          "name": "owner",
          "type": "address"
        },
        {
          "indexed": true,
          "internalType": "address",
          "name": "operator",
          "type": "address"
        },
        {
          "indexed": false,
          "internalType": "bool",
          "name": "approved",
          "type": "bool"
        }
      ],
      "name": "ApprovalForAll",
      "type": "event"
    },
    {
      "anonymous": false,
      "inputs": [
        {
          "indexed": false,
          "internalType": "address payable[]",
          "name": "receivers",
          "type": "address[]"
        },
        {
          "indexed": false,
          "internalType": "uint256[]",
          "name": "basisPoints",
          "type": "uint256[]"
        }
      ],
      "name": "DefaultRoyaltiesUpdated",
      "type": "event"
    },
    {
      "anonymous": false,
      "inputs": [
        {
          "indexed": false,
          "internalType": "uint8",
          "name": "version",
          "type": "uint8"
        }
      ],
      "name": "Initialized",
      "type": "event"
    },
    {
      "anonymous": false,
      "inputs": [
        {
          "indexed": true,
          "internalType": "address",
          "name": "previousOwner",
          "type": "address"
        },
        {
          "indexed": true,
          "internalType": "address",
          "name": "newOwner",
          "type": "address"
        }
      ],
      "name": "OwnershipTransferred",
      "type": "event"
    },
    {
      "anonymous": false,
      "inputs": [
        {
          "indexed": true,
          "internalType": "uint256",
          "name": "tokenId",
          "type": "uint256"
        },
        {
          "indexed": false,
          "internalType": "address payable[]",
          "name": "receivers",
          "type": "address[]"
        },
        {
          "indexed": false,
          "internalType": "uint256[]",
          "name": "basisPoints",
          "type": "uint256[]"
        }
      ],
      "name": "RoyaltiesUpdated",
      "type": "event"
    },
    {
      "anonymous": false,
      "inputs": [
        {
          "indexed": true,
          "internalType": "address",
          "name": "from",
          "type": "address"
        },
        {
          "indexed": true,
          "internalType": "address",
          "name": "to",
          "type": "address"
        },
        {
          "indexed": true,
          "internalType": "uint256",
          "name": "tokenId",
          "type": "uint256"
        }
      ],
      "name": "Transfer",
      "type": "event"
    },
    {
      "inputs": [
        {
          "internalType": "address",
          "name": "to",
          "type": "address"
        },
        {
          "internalType": "uint256",
          "name": "tokenId",
          "type": "uint256"
        }
      ],
      "name": "approve",
      "outputs": [],
      "stateMutability": "nonpayable",
      "type": "function"
    },
    {
      "inputs": [
        {
          "internalType": "address",
          "name": "admin",
          "type": "address"
        }
      ],
      "name": "approveAdmin",
      "outputs": [],
      "stateMutability": "nonpayable",
      "type": "function"
    },
    {
      "inputs": [
        {
          "internalType": "address",
          "name": "owner",
          "type": "address"
        }
      ],
      "name": "balanceOf",
      "outputs": [
        {
          "internalType": "uint256",
          "name": "",
          "type": "uint256"
        }
      ],
      "stateMutability": "view",
      "type": "function"
    },
    {
      "inputs": [],
      "name": "getAdmins",
      "outputs": [
        {
          "internalType": "address[]",
          "name": "admins",
          "type": "address[]"
        }
      ],
      "stateMutability": "view",
      "type": "function"
    },
    {
      "inputs": [],
      "name": "getApproveTransfer",
      "outputs": [
        {
          "internalType": "address",
          "name": "",
          "type": "address"
        }
      ],
      "stateMutability": "view",
      "type": "function"
    },
    {
      "inputs": [
        {
          "internalType": "uint256",
          "name": "tokenId",
          "type": "uint256"
        }
      ],
      "name": "getApproved",
      "outputs": [
        {
          "internalType": "address",
          "name": "",
          "type": "address"
        }
      ],
      "stateMutability": "view",
      "type": "function"
    },
    {
      "inputs": [
        {
          "internalType": "uint256",
          "name": "tokenId",
          "type": "uint256"
        }
      ],
      "name": "getFeeBps",
      "outputs": [
        {
          "internalType": "uint256[]",
          "name": "",
          "type": "uint256[]"
        }
      ],
      "stateMutability": "view",
      "type": "function"
    },
    {
      "inputs": [
        {
          "internalType": "uint256",
          "name": "tokenId",
          "type": "uint256"
        }
      ],
      "name": "getFeeRecipients",
      "outputs": [
        {
          "internalType": "address payable[]",
          "name": "",
          "type": "address[]"
        }
      ],
      "stateMutability": "view",
      "type": "function"
    },
    {
      "inputs": [
        {
          "internalType": "uint256",
          "name": "tokenId",
          "type": "uint256"
        }
      ],
      "name": "getFees",
      "outputs": [
        {
          "internalType": "address payable[]",
          "name": "",
          "type": "address[]"
        },
        {
          "internalType": "uint256[]",
          "name": "",
          "type": "uint256[]"
        }
      ],
      "stateMutability": "view",
      "type": "function"
    },
    {
      "inputs": [
        {
          "internalType": "uint256",
          "name": "tokenId",
          "type": "uint256"
        }
      ],
      "name": "getRoyalties",
      "outputs": [
        {
          "internalType": "address payable[]",
          "name": "",
          "type": "address[]"
        },
        {
          "internalType": "uint256[]",
          "name": "",
          "type": "uint256[]"
        }
      ],
      "stateMutability": "view",
      "type": "function"
    },
    {
      "inputs": [
        {
          "internalType": "string",
          "name": "_name",
          "type": "string"
        },
        {
          "internalType": "string",
          "name": "_symbol",
          "type": "string"
        }
      ],
      "name": "initialize",
      "outputs": [],
      "stateMutability": "nonpayable",
      "type": "function"
    },
    {
      "inputs": [
        {
          "internalType": "address",
          "name": "admin",
          "type": "address"
        }
      ],
      "name": "isAdmin",
      "outputs": [
        {
          "internalType": "bool",
          "name": "",
          "type": "bool"
        }
      ],
      "stateMutability": "view",
      "type": "function"
    },
    {
      "inputs": [
        {
          "internalType": "address",
          "name": "owner",
          "type": "address"
        },
        {
          "internalType": "address",
          "name": "operator",
          "type": "address"
        }
      ],
      "name": "isApprovedForAll",
      "outputs": [
        {
          "internalType": "bool",
          "name": "",
          "type": "bool"
        }
      ],
      "stateMutability": "view",
      "type": "function"
    },
    {
      "inputs": [],
      "name": "name",
      "outputs": [
        {
          "internalType": "string",
          "name": "",
          "type": "string"
        }
      ],
      "stateMutability": "view",
      "type": "function"
    },
    {
      "inputs": [],
      "name": "owner",
      "outputs": [
        {
          "internalType": "address",
          "name": "",
          "type": "address"
        }
      ],
      "stateMutability": "view",
      "type": "function"
    },
    {
      "inputs": [
        {
          "internalType": "uint256",
          "name": "tokenId",
          "type": "uint256"
        }
      ],
      "name": "ownerOf",
      "outputs": [
        {
          "internalType": "address",
          "name": "",
          "type": "address"
        }
      ],
      "stateMutability": "view",
      "type": "function"
    },
    {
      "inputs": [],
      "name": "renounceOwnership",
      "outputs": [],
      "stateMutability": "nonpayable",
      "type": "function"
    },
    {
      "inputs": [
        {
          "internalType": "address",
          "name": "admin",
          "type": "address"
        }
      ],
      "name": "revokeAdmin",
      "outputs": [],
      "stateMutability": "nonpayable",
      "type": "function"
    },
    {
      "inputs": [
        {
          "internalType": "uint256",
          "name": "tokenId",
          "type": "uint256"
        },
        {
          "internalType": "uint256",
          "name": "value",
          "type": "uint256"
        }
      ],
      "name": "royaltyInfo",
      "outputs": [
        {
          "internalType": "address",
          "name": "",
          "type": "address"
        },
        {
          "internalType": "uint256",
          "name": "",
          "type": "uint256"
        }
      ],
      "stateMutability": "view",
      "type": "function"
    },
    {
      "inputs": [
        {
          "internalType": "address",
          "name": "from",
          "type": "address"
        },
        {
          "internalType": "address",
          "name": "to",
          "type": "address"
        },
        {
          "internalType": "uint256",
          "name": "tokenId",
          "type": "uint256"
        }
      ],
      "name": "safeTransferFrom",
      "outputs": [],
      "stateMutability": "nonpayable",
      "type": "function"
    },
    {
      "inputs": [
        {
          "internalType": "address",
          "name": "from",
          "type": "address"
        },
        {
          "internalType": "address",
          "name": "to",
          "type": "address"
        },
        {
          "internalType": "uint256",
          "name": "tokenId",
          "type": "uint256"
        },
        {
          "internalType": "bytes",
          "name": "data",
          "type": "bytes"
        }
      ],
      "name": "safeTransferFrom",
      "outputs": [],
      "stateMutability": "nonpayable",
      "type": "function"
    },
    {
      "inputs": [
        {
          "internalType": "address",
          "name": "operator",
          "type": "address"
        },
        {
          "internalType": "bool",
          "name": "approved",
          "type": "bool"
        }
      ],
      "name": "setApprovalForAll",
      "outputs": [],
      "stateMutability": "nonpayable",
      "type": "function"
    },
    {
      "inputs": [
        {
          "internalType": "uint256",
          "name": "tokenId",
          "type": "uint256"
        },
        {
          "internalType": "address payable[]",
          "name": "receivers",
          "type": "address[]"
        },
        {
          "internalType": "uint256[]",
          "name": "basisPoints",
          "type": "uint256[]"
        }
      ],
      "name": "setRoyalties",
      "outputs": [],
      "stateMutability": "nonpayable",
      "type": "function"
    },
    {
      "inputs": [
        {
          "internalType": "address payable[]",
          "name": "receivers",
          "type": "address[]"
        },
        {
          "internalType": "uint256[]",
          "name": "basisPoints",
          "type": "uint256[]"
        }
      ],
      "name": "setRoyalties",
      "outputs": [],
      "stateMutability": "view",
      "type": "function"
    },
    {
      "inputs": [
        {
          "internalType": "bytes4",
          "name": "interfaceId",
          "type": "bytes4"
        }
      ],
      "name": "supportsInterface",
      "outputs": [
        {
          "internalType": "bool",
          "name": "",
          "type": "bool"
        }
      ],
      "stateMutability": "view",
      "type": "function"
    },
    {
      "inputs": [],
      "name": "symbol",
      "outputs": [
        {
          "internalType": "string",
          "name": "",
          "type": "string"
        }
      ],
      "stateMutability": "view",
      "type": "function"
    },
    {
      "inputs": [
        {
          "internalType": "uint256",
          "name": "tokenId",
          "type": "uint256"
        }
      ],
      "name": "tokenData",
      "outputs": [
        {
          "internalType": "uint80",
          "name": "",
          "type": "uint80"
        }
      ],
      "stateMutability": "view",
      "type": "function"
    },
    {
      "inputs": [
        {
          "internalType": "uint256",
          "name": "tokenId",
          "type": "uint256"
        }
      ],
      "name": "tokenURI",
      "outputs": [
        {
          "internalType": "string",
          "name": "",
          "type": "string"
        }
      ],
      "stateMutability": "view",
      "type": "function"
    },
    {
      "inputs": [
        {
          "internalType": "address",
          "name": "from",
          "type": "address"
        },
        {
          "internalType": "address",
          "name": "to",
          "type": "address"
        },
        {
          "internalType": "uint256",
          "name": "tokenId",
          "type": "uint256"
        }
      ],
      "name": "transferFrom",
      "outputs": [],
      "stateMutability": "nonpayable",
      "type": "function"
    },
    {
      "inputs": [
        {
          "internalType": "address",
          "name": "newOwner",
          "type": "address"
        }
      ],
      "name": "transferOwnership",
      "outputs": [],
      "stateMutability": "nonpayable",
      "type": "function"
    }
  ],
  "bytecode": "0x60806040523480156200001157600080fd5b506200001c6200002c565b620000266200002c565b620000ed565b600054610100900460ff1615620000995760405162461bcd60e51b815260206004820152602760248201527f496e697469616c697a61626c653a20636f6e747261637420697320696e697469604482015266616c697a696e6760c81b606482015260840160405180910390fd5b60005460ff90811614620000eb576000805460ff191660ff9081179091556040519081527f7f26b83ff96e1f2b6a682f133852f6798a09c465da95921460cefb38474024989060200160405180910390a15b565b61271c80620000fd6000396000f3fe608060405234801561001057600080fd5b50600436106101da5760003560e01c80636352211e11610104578063b4b5b48f116100a2578063c87b56dd11610071578063c87b56dd14610479578063d5a06d4c14610458578063e985e9c51461048c578063f2fde38b1461049f57600080fd5b8063b4b5b48f146103d4578063b88d4fde14610425578063b9c4d9fb14610438578063bb3bafd61461045857600080fd5b8063715018a6116100de578063715018a6146103a05780638da5cb5b146103a857806395d89b41146103b9578063a22cb465146103c157600080fd5b80636352211e146103595780636d73e6691461036c57806370a082311461037f57600080fd5b806323b872dd1161017c57806331ae450b1161014b57806331ae450b1461030b578063332dd1ae1461032057806342842e0e146103335780634cd88b761461034657600080fd5b806323b872dd146102a057806324d7806c146102b35780632a55205a146102c65780632d345670146102f857600080fd5b8063095ea7b3116101b8578063095ea7b3146102475780630ebd4c7f1461025c57806320e4afe21461027c57806322f374d01461028f57600080fd5b806301ffc9a7146101df57806306fdde0314610207578063081812fc1461021c575b600080fd5b6101f26101ed366004611d2f565b6104b2565b60405190151581526020015b60405180910390f35b61020f6104e1565b6040516101fe9190611d92565b61022f61022a366004611da5565b610573565b6040516001600160a01b0390911681526020016101fe565b61025a610255366004611dd3565b61059a565b005b61026f61026a366004611da5565b6106b4565b6040516101fe9190611e3a565b61025a61028a366004611e92565b6106e4565b606e546001600160a01b031661022f565b61025a6102ae366004611f0c565b610767565b6101f26102c1366004611f4d565b610798565b6102d96102d4366004611f6a565b6107d1565b604080516001600160a01b0390931683526020830191909152016101fe565b61025a610306366004611f4d565b61080f565b61031361086d565b6040516101fe9190611f8c565b61025a61032e366004611fd9565b61091c565b61025a610341366004611f0c565b6109a6565b61025a6103543660046120f1565b6109c1565b61022f610367366004611da5565b610ae2565b61025a61037a366004611f4d565b610b42565b61039261038d366004611f4d565b610b9a565b6040519081526020016101fe565b61025a610c20565b6033546001600160a01b031661022f565b61020f610c34565b61025a6103cf366004612155565b610c43565b61040a6103e2366004611da5565b600090815260696020526040902054600160a01b900460101c69ffffffffffffffffffff1690565b60405169ffffffffffffffffffff90911681526020016101fe565b61025a610433366004612193565b610c4e565b61044b610446366004611da5565b610c80565b6040516101fe919061224c565b61046b610466366004611da5565b610cb0565b6040516101fe92919061225f565b61020f610487366004611da5565b610cea565b6101f261049a36600461228d565b610d1a565b61025a6104ad366004611f4d565b610d48565b60006104bd82610dbe565b806104cc57506104cc82610e6f565b806104db57506104db82610eaa565b92915050565b6060606780546104f0906122bb565b80601f016020809104026020016040519081016040528092919081815260200182805461051c906122bb565b80156105695780601f1061053e57610100808354040283529160200191610569565b820191906000526020600020905b81548152906001019060200180831161054c57829003601f168201915b5050505050905090565b600061057e82610edf565b506000908152606b60205260409020546001600160a01b031690565b60006105a582610ae2565b9050806001600160a01b0316836001600160a01b0316036106175760405162461bcd60e51b815260206004820152602160248201527f4552433732313a20617070726f76616c20746f2063757272656e74206f776e656044820152603960f91b60648201526084015b60405180910390fd5b336001600160a01b038216148061063357506106338133610d1a565b6106a55760405162461bcd60e51b815260206004820152603d60248201527f4552433732313a20617070726f76652063616c6c6572206973206e6f7420746f60448201527f6b656e206f776e6572206f7220617070726f76656420666f7220616c6c000000606482015260840161060e565b6106af8383610f2f565b505050565b60606106bf82610f9d565b6106db5760405162461bcd60e51b815260040161060e906122f5565b6104db82610fba565b336106f76033546001600160a01b031690565b6001600160a01b031614806107125750610712606533610fcc565b61072e5760405162461bcd60e51b815260040161060e90612320565b61073785610f9d565b6107535760405162461bcd60e51b815260040161060e906122f5565b6107608585858585610fee565b5050505050565b6107713382611075565b61078d5760405162461bcd60e51b815260040161060e90612364565b6106af8383836110d4565b6000816001600160a01b03166107b66033546001600160a01b031690565b6001600160a01b031614806104db57506104db606583610fcc565b6000806107dd84610f9d565b6107f95760405162461bcd60e51b815260040161060e906122f5565b610803848461126c565b915091505b9250929050565b610817611343565b610822606582610fcc565b1561086a5760405133906001600160a01b038316907f7c0c3c84c67c85fcac635147348bfe374c24a1a93d0366d1cfe9d8853cbf89d590600090a361086860658261139d565b505b50565b606061087960656113b2565b67ffffffffffffffff81111561089157610891612045565b6040519080825280602002602001820160405280156108ba578160200160208202803683370190505b50905060005b6108ca60656113b2565b811015610918576108dc6065826113bc565b8282815181106108ee576108ee6123b1565b6001600160a01b039092166020928302919091019091015280610910816123dd565b9150506108c0565b5090565b3361092f6033546001600160a01b031690565b6001600160a01b0316148061094a575061094a606533610fcc565b6109665760405162461bcd60e51b815260040161060e90612320565b60405162461bcd60e51b815260206004820152600f60248201526e139bdd08125b5c1b195b595b9d1959608a1b604482015260640161060e565b50505050565b6106af83838360405180602001604052806000815250610c4e565b600054610100900460ff16158080156109e15750600054600160ff909116105b806109fb5750303b1580156109fb575060005460ff166001145b610a5e5760405162461bcd60e51b815260206004820152602e60248201527f496e697469616c697a61626c653a20636f6e747261637420697320616c72656160448201526d191e481a5b9a5d1a585b1a5e995960921b606482015260840161060e565b6000805460ff191660011790558015610a81576000805461ff0019166101001790555b610a8b83836113c8565b610a936113f9565b6000606d5580156106af576000805461ff0019169055604051600181527f7f26b83ff96e1f2b6a682f133852f6798a09c465da95921460cefb38474024989060200160405180910390a1505050565b6000818152606960205260408120546001600160a01b0316806104db5760405162461bcd60e51b8152602060048201526018602482015277115490cdcc8c4e881a5b9d985b1a59081d1bdad95b88125160421b604482015260640161060e565b610b4a611343565b610b55606582610fcc565b61086a5760405133906001600160a01b038316907f7e1a1a08d52e4ba0e21554733d66165fd5151f99460116223d9e3a608eec5cb190600090a3610868606582611428565b60006001600160a01b038216610c045760405162461bcd60e51b815260206004820152602960248201527f4552433732313a2061646472657373207a65726f206973206e6f7420612076616044820152683634b21037bbb732b960b91b606482015260840161060e565b506001600160a01b03166000908152606a602052604090205490565b610c28611343565b610c32600061143d565b565b6060606880546104f0906122bb565b61086833838361148f565b610c583383611075565b610c745760405162461bcd60e51b815260040161060e90612364565b6109a08484848461155d565b6060610c8b82610f9d565b610ca75760405162461bcd60e51b815260040161060e906122f5565b6104db82611590565b606080610cbc83610f9d565b610cd85760405162461bcd60e51b815260040161060e906122f5565b610ce1836115a2565b91509150915091565b6060610cf582610f9d565b610d115760405162461bcd60e51b815260040161060e906122f5565b6104db8261176b565b6001600160a01b039182166000908152606c6020908152604080832093909416825291909152205460ff1690565b610d50611343565b6001600160a01b038116610db55760405162461bcd60e51b815260206004820152602660248201527f4f776e61626c653a206e6577206f776e657220697320746865207a65726f206160448201526564647265737360d01b606482015260840161060e565b61086a8161143d565b60006001600160e01b03198216631851afbb60e31b1480610def57506001600160e01b031982166328f10a2160e01b145b80610dfe5750610dfe82610e6f565b80610e1957506001600160e01b03198216635d9dd7eb60e11b145b80610e3457506001600160e01b03198216632dde656160e21b145b80610e4f57506001600160e01b031982166335681b5360e21b145b806104db57506001600160e01b0319821663152a902d60e11b1492915050565b60006001600160e01b031982166380ac58cd60e01b14806104cc57506001600160e01b03198216635b5e139f60e01b14806104db57506104db825b60006001600160e01b03198216632a9f3abf60e11b14806104db57506301ffc9a760e01b6001600160e01b03198316146104db565b610ee881610f9d565b61086a5760405162461bcd60e51b8152602060048201526018602482015277115490cdcc8c4e881a5b9d985b1a59081d1bdad95b88125160421b604482015260640161060e565b6000818152606b6020526040902080546001600160a01b0319166001600160a01b0384169081179091558190610f6482610ae2565b6001600160a01b03167f8c5be1e5ebec7d5bd14f71427d1e84f3dd0314c0f7b2291e5b200ac8c7c3b92560405160405180910390a45050565b6000908152606960205260409020546001600160a01b0316151590565b6060610fc5826115a2565b9392505050565b6001600160a01b03811660009081526001830160205260408120541515610fc5565b610ffa8484848461187e565b600085815260706020526040812061101191611ce1565b61103084848484607060008b8152602001908152602001600020611949565b847fabb46fe0761d77584bde75697647804ffd8113abd4d8d06bc664150395eccdee8585858560405161106694939291906123f6565b60405180910390a25050505050565b60008061108183610ae2565b9050806001600160a01b0316846001600160a01b031614806110a857506110a88185610d1a565b806110cc5750836001600160a01b03166110c184610573565b6001600160a01b0316145b949350505050565b6000818152606960209081526040918290208251808401909352546001600160a01b03808216808552600160a01b9092046bffffffffffffffffffffffff169284019290925290851681146111795760405162461bcd60e51b815260206004820152602560248201527f4552433732313a207472616e736665722066726f6d20696e636f72726563742060448201526437bbb732b960d91b606482015260840161060e565b6001600160a01b0384166111db5760405162461bcd60e51b8152602060048201526024808201527f4552433732313a207472616e7366657220746f20746865207a65726f206164646044820152637265737360e01b606482015260840161060e565b60208201516111eb600085610f2f565b6001600160a01b038087166000818152606a60209081526040808320805460001901905593891680835284832080546001019055888352606990915283822080546001600160a01b031916821790559251879392917fddf252ad1be2c89b69c2b068fc378daa952ba7f163c4a11628f55a4df523b3ef91a45b505050505050565b60008060008061127b866115a2565b915091506001825111156112d15760405162461bcd60e51b815260206004820152601c60248201527f4d6f7265207468616e203120726f79616c747920726563656976657200000000604482015260640161060e565b81516000036112e857306000935093505050610808565b816000815181106112fb576112fb6123b1565b6020026020010151612710868360008151811061131a5761131a6123b1565b602002602001015161132c9190612474565b611336919061248b565b9350935050509250929050565b6033546001600160a01b03163314610c325760405162461bcd60e51b815260206004820181905260248201527f4f776e61626c653a2063616c6c6572206973206e6f7420746865206f776e6572604482015260640161060e565b6000610fc5836001600160a01b038416611a04565b60006104db825490565b6000610fc58383611af7565b600054610100900460ff166113ef5760405162461bcd60e51b815260040161060e906124ad565b6108688282611b21565b600054610100900460ff166114205760405162461bcd60e51b815260040161060e906124ad565b610c32611b61565b6000610fc5836001600160a01b038416611b91565b603380546001600160a01b038381166001600160a01b0319831681179093556040519116919082907f8be0079c531659141344cd1fd0a4f28419497f9722a3daafe3b4186f6b6457e090600090a35050565b816001600160a01b0316836001600160a01b0316036114f05760405162461bcd60e51b815260206004820152601960248201527f4552433732313a20617070726f766520746f2063616c6c657200000000000000604482015260640161060e565b6001600160a01b038381166000818152606c6020908152604080832094871680845294825291829020805460ff191686151590811790915591519182527f17307eab39ab6107e8899845ad3d59bd9653f200f220920489ca2b5937696c31910160405180910390a3505050565b6115688484846110d4565b61157484848484611be0565b6109a05760405162461bcd60e51b815260040161060e906124f8565b606061159b826115a2565b5092915050565b606080600060706000858152602001908152602001600020805480602002602001604051908101604052809291908181526020016000905b8282101561162457600084815260209081902060408051808201909152908401546001600160a01b0381168252600160a01b900461ffff16818301528252600190920191016115da565b50505050905060008151111561176557805167ffffffffffffffff81111561164e5761164e612045565b604051908082528060200260200182016040528015611677578160200160208202803683370190505b509250805167ffffffffffffffff81111561169457611694612045565b6040519080825280602002602001820160405280156116bd578160200160208202803683370190505b50915060005b8151811015611763578181815181106116de576116de6123b1565b6020026020010151600001518482815181106116fc576116fc6123b1565b60200260200101906001600160a01b031690816001600160a01b03168152505081818151811061172e5761172e6123b1565b60200260200101516020015161ffff16838281518110611750576117506123b1565b60209081029190910101526001016116c3565b505b50915091565b606060008211801561177f5750606d548211155b6117bb5760405162461bcd60e51b815260206004820152600d60248201526c24b73b30b634b2103a37b5b2b760991b604482015260640161060e565b6000828152606f6020526040902080546117d4906122bb565b159050611879576000828152606f6020526040902080546117f4906122bb565b80601f0160208091040260200160405190810160405280929190818152602001828054611820906122bb565b801561186d5780601f106118425761010080835404028352916020019161186d565b820191906000526020600020905b81548152906001019060200180831161185057829003601f168201915b50505050509050919050565b919050565b8281146118bd5760405162461bcd60e51b815260206004820152600d60248201526c125b9d985b1a59081a5b9c1d5d609a1b604482015260640161060e565b6000805b828110156118f7578383828181106118db576118db6123b1565b90506020020135826118ed919061254a565b91506001016118c1565b5061271081106107605760405162461bcd60e51b815260206004820152601760248201527f496e76616c696420746f74616c20726f79616c74696573000000000000000000604482015260640161060e565b60005b8281101561126457816040518060400160405280888885818110611972576119726123b1565b90506020020160208101906119879190611f4d565b6001600160a01b031681526020018686858181106119a7576119a76123b1565b61ffff602091820293909301358316909352508354600181810186556000958652948390208451910180549490930151909116600160a01b026001600160b01b03199093166001600160a01b03909116179190911790550161194c565b60008181526001830160205260408120548015611aed576000611a2860018361255d565b8554909150600090611a3c9060019061255d565b9050818114611aa1576000866000018281548110611a5c57611a5c6123b1565b9060005260206000200154905080876000018481548110611a7f57611a7f6123b1565b6000918252602080832090910192909255918252600188019052604090208390555b8554869080611ab257611ab2612570565b6001900381819060005260206000200160009055905585600101600086815260200190815260200160002060009055600193505050506104db565b60009150506104db565b6000826000018281548110611b0e57611b0e6123b1565b9060005260206000200154905092915050565b600054610100900460ff16611b485760405162461bcd60e51b815260040161060e906124ad565b6067611b5483826125cc565b5060686106af82826125cc565b600054610100900460ff16611b885760405162461bcd60e51b815260040161060e906124ad565b610c323361143d565b6000818152600183016020526040812054611bd8575081546001818101845560008481526020808220909301849055845484825282860190935260409020919091556104db565b5060006104db565b60006001600160a01b0384163b15611cd657604051630a85bd0160e11b81526001600160a01b0385169063150b7a0290611c2490339089908890889060040161268c565b6020604051808303816000875af1925050508015611c5f575060408051601f3d908101601f19168201909252611c5c918101906126c9565b60015b611cbc573d808015611c8d576040519150601f19603f3d011682016040523d82523d6000602084013e611c92565b606091505b508051600003611cb45760405162461bcd60e51b815260040161060e906124f8565b805181602001fd5b6001600160e01b031916630a85bd0160e11b1490506110cc565b506001949350505050565b508054600082559060005260206000209081019061086a91905b808211156109185780546001600160b01b0319168155600101611cfb565b6001600160e01b03198116811461086a57600080fd5b600060208284031215611d4157600080fd5b8135610fc581611d19565b6000815180845260005b81811015611d7257602081850181015186830182015201611d56565b506000602082860101526020601f19601f83011685010191505092915050565b602081526000610fc56020830184611d4c565b600060208284031215611db757600080fd5b5035919050565b6001600160a01b038116811461086a57600080fd5b60008060408385031215611de657600080fd5b8235611df181611dbe565b946020939093013593505050565b600081518084526020808501945080840160005b83811015611e2f57815187529582019590820190600101611e13565b509495945050505050565b602081526000610fc56020830184611dff565b60008083601f840112611e5f57600080fd5b50813567ffffffffffffffff811115611e7757600080fd5b6020830191508360208260051b850101111561080857600080fd5b600080600080600060608688031215611eaa57600080fd5b85359450602086013567ffffffffffffffff80821115611ec957600080fd5b611ed589838a01611e4d565b90965094506040880135915080821115611eee57600080fd5b50611efb88828901611e4d565b969995985093965092949392505050565b600080600060608486031215611f2157600080fd5b8335611f2c81611dbe565b92506020840135611f3c81611dbe565b929592945050506040919091013590565b600060208284031215611f5f57600080fd5b8135610fc581611dbe565b60008060408385031215611f7d57600080fd5b50508035926020909101359150565b6020808252825182820181905260009190848201906040850190845b81811015611fcd5783516001600160a01b031683529284019291840191600101611fa8565b50909695505050505050565b60008060008060408587031215611fef57600080fd5b843567ffffffffffffffff8082111561200757600080fd5b61201388838901611e4d565b9096509450602087013591508082111561202c57600080fd5b5061203987828801611e4d565b95989497509550505050565b634e487b7160e01b600052604160045260246000fd5b600067ffffffffffffffff8084111561207657612076612045565b604051601f8501601f19908116603f0116810190828211818310171561209e5761209e612045565b816040528093508581528686860111156120b757600080fd5b858560208301376000602087830101525050509392505050565b600082601f8301126120e257600080fd5b610fc58383356020850161205b565b6000806040838503121561210457600080fd5b823567ffffffffffffffff8082111561211c57600080fd5b612128868387016120d1565b9350602085013591508082111561213e57600080fd5b5061214b858286016120d1565b9150509250929050565b6000806040838503121561216857600080fd5b823561217381611dbe565b91506020830135801515811461218857600080fd5b809150509250929050565b600080600080608085870312156121a957600080fd5b84356121b481611dbe565b935060208501356121c481611dbe565b925060408501359150606085013567ffffffffffffffff8111156121e757600080fd5b8501601f810187136121f857600080fd5b6122078782356020840161205b565b91505092959194509250565b600081518084526020808501945080840160005b83811015611e2f5781516001600160a01b031687529582019590820190600101612227565b602081526000610fc56020830184612213565b6040815260006122726040830185612213565b82810360208401526122848185611dff565b95945050505050565b600080604083850312156122a057600080fd5b82356122ab81611dbe565b9150602083013561218881611dbe565b600181811c908216806122cf57607f821691505b6020821081036122ef57634e487b7160e01b600052602260045260246000fd5b50919050565b6020808252601190820152702737b732bc34b9ba32b73a103a37b5b2b760791b604082015260600190565b60208082526024908201527f41646d696e436f6e74726f6c3a204d757374206265206f776e6572206f7220616040820152633236b4b760e11b606082015260800190565b6020808252602d908201527f4552433732313a2063616c6c6572206973206e6f7420746f6b656e206f776e6560408201526c1c881bdc88185c1c1c9bdd9959609a1b606082015260800190565b634e487b7160e01b600052603260045260246000fd5b634e487b7160e01b600052601160045260246000fd5b6000600182016123ef576123ef6123c7565b5060010190565b6040808252810184905260008560608301825b8781101561243957823561241c81611dbe565b6001600160a01b0316825260209283019290910190600101612409565b5083810360208501528481526001600160fb1b0385111561245957600080fd5b8460051b915081866020830137016020019695505050505050565b80820281158282048414176104db576104db6123c7565b6000826124a857634e487b7160e01b600052601260045260246000fd5b500490565b6020808252602b908201527f496e697469616c697a61626c653a20636f6e7472616374206973206e6f74206960408201526a6e697469616c697a696e6760a81b606082015260800190565b60208082526032908201527f4552433732313a207472616e7366657220746f206e6f6e20455243373231526560408201527131b2b4bb32b91034b6b83632b6b2b73a32b960711b606082015260800190565b808201808211156104db576104db6123c7565b818103818111156104db576104db6123c7565b634e487b7160e01b600052603160045260246000fd5b601f8211156106af57600081815260208120601f850160051c810160208610156125ad5750805b601f850160051c820191505b81811015611264578281556001016125b9565b815167ffffffffffffffff8111156125e6576125e6612045565b6125fa816125f484546122bb565b84612586565b602080601f83116001811461262f57600084156126175750858301515b600019600386901b1c1916600185901b178555611264565b600085815260208120601f198616915b8281101561265e5788860151825594840194600190910190840161263f565b508582101561267c5787850151600019600388901b60f8161c191681555b5050505050600190811b01905550565b6001600160a01b03858116825284166020820152604081018390526080606082018190526000906126bf90830184611d4c565b9695505050505050565b6000602082840312156126db57600080fd5b8151610fc581611d1956fea26469706673582212204f895b75a3fbbffadc9e121232103a42b779ba1127e3435a4b052c693c71297b64736f6c63430008110033",
  "linkReferences": {},
  "deployedLinkReferences": {}
}