{
  "_format": "hh-sol-artifact-1",
  "contractName": "ERC721Creator",
  "sourceName": "contracts/contract-factory/ERC721Creator.sol",
  "abi": [
    {
      "inputs": [],
      "stateMutability": "nonpayable",
      "type": "constructor"
    },
    {
      "anonymous": false,
      "inputs": [
        {
          "indexed": true,
          "internalType": "address",
          "name": "account",
          "type": "address"
        },
        {
          "indexed": true,
          "internalType": "address",
          "name": "sender",
          "type": "address"
        }
      ],
      "name": "AdminApproved",
      "type": "event"
    },
    {
      "anonymous": false,
      "inputs": [
        {
          "indexed": true,
          "internalType": "address",
          "name": "account",
          "type": "address"
        },
        {
          "indexed": true,
          "internalType": "address",
          "name": "sender",
          "type": "address"
        }
      ],
      "name": "AdminRevoked",
      "type": "event"
    },
    {
      "anonymous": false,
      "inputs": [
        {
          "indexed": true,
          "internalType": "address",
          "name": "owner",
          "type": "address"
        },
        {
          "indexed": true,
          "internalType": "address",
          "name": "approved",
          "type": "address"
        },
        {
          "indexed": true,
          "internalType": "uint256",
          "name": "tokenId",
          "type": "uint256"
        }
      ],
      "name": "Approval",
      "type": "event"
    },
    {
      "anonymous": false,
      "inputs": [
        {
          "indexed": true,
          "internalType": "address",
          "name": "owner",
          "type": "address"
        },
        {
          "indexed": true,
          "internalType": "address",
          "name": "operator",
          "type": "address"
        },
        {
          "indexed": false,
          "internalType": "bool",
          "name": "approved",
          "type": "bool"
        }
      ],
      "name": "ApprovalForAll",
      "type": "event"
    },
    {
      "anonymous": false,
      "inputs": [
        {
          "indexed": false,
          "internalType": "uint256",
          "name": "_fromTokenId",
          "type": "uint256"
        },
        {
          "indexed": false,
          "internalType": "uint256",
          "name": "_toTokenId",
          "type": "uint256"
        }
      ],
      "name": "BatchMetadataUpdate",
      "type": "event"
    },
    {
      "anonymous": false,
      "inputs": [
        {
          "indexed": false,
          "internalType": "uint8",
          "name": "version",
          "type": "uint8"
        }
      ],
      "name": "Initialized",
      "type": "event"
    },
    {
      "anonymous": false,
      "inputs": [
        {
          "indexed": false,
          "internalType": "uint256",
          "name": "_tokenId",
          "type": "uint256"
        }
      ],
      "name": "MetadataUpdate",
      "type": "event"
    },
    {
      "anonymous": false,
      "inputs": [
        {
          "indexed": true,
          "internalType": "address",
          "name": "previousOwner",
          "type": "address"
        },
        {
          "indexed": true,
          "internalType": "address",
          "name": "newOwner",
          "type": "address"
        }
      ],
      "name": "OwnershipTransferred",
      "type": "event"
    },
    {
      "anonymous": false,
      "inputs": [
        {
          "indexed": true,
          "internalType": "address",
          "name": "from",
          "type": "address"
        },
        {
          "indexed": true,
          "internalType": "address",
          "name": "to",
          "type": "address"
        },
        {
          "indexed": true,
          "internalType": "uint256",
          "name": "tokenId",
          "type": "uint256"
        }
      ],
      "name": "Transfer",
      "type": "event"
    },
    {
      "inputs": [
        {
          "internalType": "address",
          "name": "to",
          "type": "address"
        },
        {
          "internalType": "uint256",
          "name": "tokenId",
          "type": "uint256"
        }
      ],
      "name": "approve",
      "outputs": [],
      "stateMutability": "nonpayable",
      "type": "function"
    },
    {
      "inputs": [
        {
          "internalType": "address",
          "name": "admin",
          "type": "address"
        }
      ],
      "name": "approveAdmin",
      "outputs": [],
      "stateMutability": "nonpayable",
      "type": "function"
    },
    {
      "inputs": [
        {
          "internalType": "address",
          "name": "owner",
          "type": "address"
        }
      ],
      "name": "balanceOf",
      "outputs": [
        {
          "internalType": "uint256",
          "name": "",
          "type": "uint256"
        }
      ],
      "stateMutability": "view",
      "type": "function"
    },
    {
      "inputs": [],
      "name": "deleteDefaultRoyalty",
      "outputs": [],
      "stateMutability": "nonpayable",
      "type": "function"
    },
    {
      "inputs": [],
      "name": "getAdmins",
      "outputs": [
        {
          "internalType": "address[]",
          "name": "admins",
          "type": "address[]"
        }
      ],
      "stateMutability": "view",
      "type": "function"
    },
    {
      "inputs": [
        {
          "internalType": "uint256",
          "name": "tokenId",
          "type": "uint256"
        }
      ],
      "name": "getApproved",
      "outputs": [
        {
          "internalType": "address",
          "name": "",
          "type": "address"
        }
      ],
      "stateMutability": "view",
      "type": "function"
    },
    {
      "inputs": [
        {
          "internalType": "string",
          "name": "_name",
          "type": "string"
        },
        {
          "internalType": "string",
          "name": "_symbol",
          "type": "string"
        }
      ],
      "name": "initialize",
      "outputs": [],
      "stateMutability": "nonpayable",
      "type": "function"
    },
    {
      "inputs": [
        {
          "internalType": "address",
          "name": "admin",
          "type": "address"
        }
      ],
      "name": "isAdmin",
      "outputs": [
        {
          "internalType": "bool",
          "name": "",
          "type": "bool"
        }
      ],
      "stateMutability": "view",
      "type": "function"
    },
    {
      "inputs": [
        {
          "internalType": "address",
          "name": "owner",
          "type": "address"
        },
        {
          "internalType": "address",
          "name": "operator",
          "type": "address"
        }
      ],
      "name": "isApprovedForAll",
      "outputs": [
        {
          "internalType": "bool",
          "name": "",
          "type": "bool"
        }
      ],
      "stateMutability": "view",
      "type": "function"
    },
    {
      "inputs": [
        {
          "internalType": "address",
          "name": "to",
          "type": "address"
        },
        {
          "internalType": "string",
          "name": "uri",
          "type": "string"
        }
      ],
      "name": "mintToken",
      "outputs": [
        {
          "internalType": "uint256",
          "name": "",
          "type": "uint256"
        }
      ],
      "stateMutability": "nonpayable",
      "type": "function"
    },
    {
      "inputs": [],
      "name": "name",
      "outputs": [
        {
          "internalType": "string",
          "name": "",
          "type": "string"
        }
      ],
      "stateMutability": "view",
      "type": "function"
    },
    {
      "inputs": [],
      "name": "owner",
      "outputs": [
        {
          "internalType": "address",
          "name": "",
          "type": "address"
        }
      ],
      "stateMutability": "view",
      "type": "function"
    },
    {
      "inputs": [
        {
          "internalType": "uint256",
          "name": "tokenId",
          "type": "uint256"
        }
      ],
      "name": "ownerOf",
      "outputs": [
        {
          "internalType": "address",
          "name": "",
          "type": "address"
        }
      ],
      "stateMutability": "view",
      "type": "function"
    },
    {
      "inputs": [],
      "name": "renounceOwnership",
      "outputs": [],
      "stateMutability": "nonpayable",
      "type": "function"
    },
    {
      "inputs": [
        {
          "internalType": "uint256",
          "name": "tokenId",
          "type": "uint256"
        }
      ],
      "name": "resetTokenRoyalty",
      "outputs": [],
      "stateMutability": "nonpayable",
      "type": "function"
    },
    {
      "inputs": [
        {
          "internalType": "address",
          "name": "admin",
          "type": "address"
        }
      ],
      "name": "revokeAdmin",
      "outputs": [],
      "stateMutability": "nonpayable",
      "type": "function"
    },
    {
      "inputs": [
        {
          "internalType": "uint256",
          "name": "tokenId",
          "type": "uint256"
        },
        {
          "internalType": "uint256",
          "name": "salePrice",
          "type": "uint256"
        }
      ],
      "name": "royaltyInfo",
      "outputs": [
        {
          "internalType": "address",
          "name": "",
          "type": "address"
        },
        {
          "internalType": "uint256",
          "name": "",
          "type": "uint256"
        }
      ],
      "stateMutability": "view",
      "type": "function"
    },
    {
      "inputs": [
        {
          "internalType": "address",
          "name": "from",
          "type": "address"
        },
        {
          "internalType": "address",
          "name": "to",
          "type": "address"
        },
        {
          "internalType": "uint256",
          "name": "tokenId",
          "type": "uint256"
        }
      ],
      "name": "safeTransferFrom",
      "outputs": [],
      "stateMutability": "nonpayable",
      "type": "function"
    },
    {
      "inputs": [
        {
          "internalType": "address",
          "name": "from",
          "type": "address"
        },
        {
          "internalType": "address",
          "name": "to",
          "type": "address"
        },
        {
          "internalType": "uint256",
          "name": "tokenId",
          "type": "uint256"
        },
        {
          "internalType": "bytes",
          "name": "data",
          "type": "bytes"
        }
      ],
      "name": "safeTransferFrom",
      "outputs": [],
      "stateMutability": "nonpayable",
      "type": "function"
    },
    {
      "inputs": [
        {
          "internalType": "address",
          "name": "operator",
          "type": "address"
        },
        {
          "internalType": "bool",
          "name": "approved",
          "type": "bool"
        }
      ],
      "name": "setApprovalForAll",
      "outputs": [],
      "stateMutability": "nonpayable",
      "type": "function"
    },
    {
      "inputs": [
        {
          "internalType": "string",
          "name": "newBase",
          "type": "string"
        }
      ],
      "name": "setBaseUri",
      "outputs": [],
      "stateMutability": "nonpayable",
      "type": "function"
    },
    {
      "inputs": [
        {
          "internalType": "address",
          "name": "receiver",
          "type": "address"
        },
        {
          "internalType": "uint96",
          "name": "numerator",
          "type": "uint96"
        }
      ],
      "name": "setDefaultRoyalty",
      "outputs": [],
      "stateMutability": "nonpayable",
      "type": "function"
    },
    {
      "inputs": [
        {
          "internalType": "uint256",
          "name": "tokenId",
          "type": "uint256"
        },
        {
          "internalType": "address",
          "name": "receiver",
          "type": "address"
        },
        {
          "internalType": "uint96",
          "name": "numerator",
          "type": "uint96"
        }
      ],
      "name": "setTokenRoyalty",
      "outputs": [],
      "stateMutability": "nonpayable",
      "type": "function"
    },
    {
      "inputs": [
        {
          "internalType": "bytes4",
          "name": "interfaceId",
          "type": "bytes4"
        }
      ],
      "name": "supportsInterface",
      "outputs": [
        {
          "internalType": "bool",
          "name": "",
          "type": "bool"
        }
      ],
      "stateMutability": "view",
      "type": "function"
    },
    {
      "inputs": [],
      "name": "symbol",
      "outputs": [
        {
          "internalType": "string",
          "name": "",
          "type": "string"
        }
      ],
      "stateMutability": "view",
      "type": "function"
    },
    {
      "inputs": [
        {
          "internalType": "uint256",
          "name": "index",
          "type": "uint256"
        }
      ],
      "name": "tokenByIndex",
      "outputs": [
        {
          "internalType": "uint256",
          "name": "",
          "type": "uint256"
        }
      ],
      "stateMutability": "view",
      "type": "function"
    },
    {
      "inputs": [
        {
          "internalType": "address",
          "name": "owner",
          "type": "address"
        },
        {
          "internalType": "uint256",
          "name": "index",
          "type": "uint256"
        }
      ],
      "name": "tokenOfOwnerByIndex",
      "outputs": [
        {
          "internalType": "uint256",
          "name": "",
          "type": "uint256"
        }
      ],
      "stateMutability": "view",
      "type": "function"
    },
    {
      "inputs": [
        {
          "internalType": "uint256",
          "name": "tokenId",
          "type": "uint256"
        }
      ],
      "name": "tokenURI",
      "outputs": [
        {
          "internalType": "string",
          "name": "",
          "type": "string"
        }
      ],
      "stateMutability": "view",
      "type": "function"
    },
    {
      "inputs": [],
      "name": "totalSupply",
      "outputs": [
        {
          "internalType": "uint256",
          "name": "",
          "type": "uint256"
        }
      ],
      "stateMutability": "view",
      "type": "function"
    },
    {
      "inputs": [
        {
          "internalType": "address",
          "name": "from",
          "type": "address"
        },
        {
          "internalType": "address",
          "name": "to",
          "type": "address"
        },
        {
          "internalType": "uint256",
          "name": "tokenId",
          "type": "uint256"
        }
      ],
      "name": "transferFrom",
      "outputs": [],
      "stateMutability": "nonpayable",
      "type": "function"
    },
    {
      "inputs": [
        {
          "internalType": "address",
          "name": "newOwner",
          "type": "address"
        }
      ],
      "name": "transferOwnership",
      "outputs": [],
      "stateMutability": "nonpayable",
      "type": "function"
    }
  ],
  "bytecode": "0x60806040523480156200001157600080fd5b506200001c62000022565b620000e3565b600054610100900460ff16156200008f5760405162461bcd60e51b815260206004820152602760248201527f496e697469616c697a61626c653a20636f6e747261637420697320696e697469604482015266616c697a696e6760c81b606482015260840160405180910390fd5b60005460ff90811614620000e1576000805460ff191660ff9081179091556040519081527f7f26b83ff96e1f2b6a682f133852f6798a09c465da95921460cefb38474024989060200160405180910390a15b565b612c7580620000f36000396000f3fe608060405234801561001057600080fd5b50600436106101e55760003560e01c80634f6ccce71161010f57806395d89b41116100a2578063b88d4fde11610071578063b88d4fde1461041b578063c87b56dd1461042e578063e985e9c514610441578063f2fde38b1461047d57600080fd5b806395d89b41146103e5578063a0bcfc7f146103ed578063a22cb46514610400578063aa1b103f1461041357600080fd5b806370a08231116100de57806370a08231146103a5578063715018a6146103b85780638a616bc0146103c05780638da5cb5b146103d357600080fd5b80634f6ccce7146103595780635944c7531461036c5780636352211e1461037f5780636d73e6691461039257600080fd5b806324d7806c1161018757806331ae450b1161015657806331ae450b1461030b5780633d02d0c91461032057806342842e0e146103335780634cd88b761461034657600080fd5b806324d7806c146102a05780632a55205a146102b35780632d345670146102e55780632f745c59146102f857600080fd5b8063081812fc116101c3578063081812fc1461023c578063095ea7b31461026757806318160ddd1461027a57806323b872dd1461028d57600080fd5b806301ffc9a7146101ea57806304634d8d1461021257806306fdde0314610227575b600080fd5b6101fd6101f8366004612241565b610490565b60405190151581526020015b60405180910390f35b610225610220366004612291565b6104a1565b005b61022f610504565b6040516102099190612314565b61024f61024a366004612327565b610596565b6040516001600160a01b039091168152602001610209565b610225610275366004612340565b6105bd565b61012f545b604051908152602001610209565b61022561029b36600461236a565b6106d2565b6101fd6102ae3660046123a6565b610703565b6102c66102c13660046123c1565b61073e565b604080516001600160a01b039093168352602083019190915201610209565b6102256102f33660046123a6565b6107ec565b61027f610306366004612340565b61084a565b6103136108e1565b60405161020991906123e3565b61027f61032e366004612472565b610989565b61022561034136600461236a565b610a54565b610225610354366004612571565b610a6f565b61027f610367366004612327565b610bbe565b61022561037a3660046125d5565b610c53565b61024f61038d366004612327565b610caa565b6102256103a03660046123a6565b610d0a565b61027f6103b33660046123a6565b610d64565b610225610dea565b6102256103ce366004612327565b610dfe565b610197546001600160a01b031661024f565b61022f610e5b565b6102256103fb366004612611565b610e6a565b61022561040e366004612653565b610e80565b610225610e8b565b61022561042936600461268f565b610ee1565b61022f61043c366004612327565b610f19565b6101fd61044f36600461270b565b6001600160a01b039182166000908152609c6020908152604080832093909416825291909152205460ff1690565b61022561048b3660046123a6565b610f24565b600061049b82610f9a565b92915050565b336104b5610197546001600160a01b031690565b6001600160a01b031614806104d157506104d16101c933610fbf565b6104f65760405162461bcd60e51b81526004016104ed90612735565b60405180910390fd5b6105008282610fe4565b5050565b60606097805461051390612779565b80601f016020809104026020016040519081016040528092919081815260200182805461053f90612779565b801561058c5780601f106105615761010080835404028352916020019161058c565b820191906000526020600020905b81548152906001019060200180831161056f57829003601f168201915b5050505050905090565b60006105a18261109e565b506000908152609b60205260409020546001600160a01b031690565b60006105c882610caa565b9050806001600160a01b0316836001600160a01b0316036106355760405162461bcd60e51b815260206004820152602160248201527f4552433732313a20617070726f76616c20746f2063757272656e74206f776e656044820152603960f91b60648201526084016104ed565b336001600160a01b03821614806106515750610651813361044f565b6106c35760405162461bcd60e51b815260206004820152603d60248201527f4552433732313a20617070726f76652063616c6c6572206973206e6f7420746f60448201527f6b656e206f776e6572206f7220617070726f76656420666f7220616c6c00000060648201526084016104ed565b6106cd83836110fd565b505050565b6106dc338261116b565b6106f85760405162461bcd60e51b81526004016104ed906127b3565b6106cd8383836111ea565b6000816001600160a01b0316610722610197546001600160a01b031690565b6001600160a01b0316148061049b575061049b6101c983610fbf565b60008281526066602090815260408083208151808301909252546001600160a01b038116808352600160a01b9091046001600160601b03169282019290925282916107b35750604080518082019091526065546001600160a01b0381168252600160a01b90046001600160601b031660208201525b6020810151600090612710906107d2906001600160601b031687612816565b6107dc919061282d565b91519350909150505b9250929050565b6107f461135b565b6108006101c982610fbf565b156108475760405133906001600160a01b038316907f7c0c3c84c67c85fcac635147348bfe374c24a1a93d0366d1cfe9d8853cbf89d590600090a36105006101c9826113b6565b50565b600061085583610d64565b82106108b75760405162461bcd60e51b815260206004820152602b60248201527f455243373231456e756d657261626c653a206f776e657220696e646578206f7560448201526a74206f6620626f756e647360a81b60648201526084016104ed565b506001600160a01b0391909116600090815261012d60209081526040808320938352929052205490565b60606108ee6101c96113cb565b67ffffffffffffffff811115610906576109066124c5565b60405190808252806020026020018201604052801561092f578160200160208202803683370190505b50905060005b6109406101c96113cb565b811015610985576109536101c9826113d5565b8282815181106109655761096561284f565b6001600160a01b0390921660209283029190910190910152600101610935565b5090565b60003361099f610197546001600160a01b031690565b6001600160a01b031614806109bb57506109bb6101c933610fbf565b6109d75760405162461bcd60e51b81526004016104ed90612735565b60006101625460016109e99190612865565b90506109f585826113e1565b610a358185858080601f0160208091040260200160405190810160405280939291908181526020018383808284376000920191909152506113fb92505050565b6101628054906000610a4683612878565b909155509095945050505050565b6106cd83838360405180602001604052806000815250610ee1565b600054610100900460ff1615808015610a8f5750600054600160ff909116105b80610aa95750303b158015610aa9575060005460ff166001145b610b0c5760405162461bcd60e51b815260206004820152602e60248201527f496e697469616c697a61626c653a20636f6e747261637420697320616c72656160448201526d191e481a5b9a5d1a585b1a5e995960921b60648201526084016104ed565b6000805460ff191660011790558015610b2f576000805461ff0019166101001790555b610b3983836114c6565b610b416114f7565b604080518082019091526007815266697066733a2f2f60c81b602082015261016190610b6d90826128e1565b5060006101625580156106cd576000805461ff0019169055604051600181527f7f26b83ff96e1f2b6a682f133852f6798a09c465da95921460cefb38474024989060200160405180910390a1505050565b6000610bca61012f5490565b8210610c2d5760405162461bcd60e51b815260206004820152602c60248201527f455243373231456e756d657261626c653a20676c6f62616c20696e646578206f60448201526b7574206f6620626f756e647360a01b60648201526084016104ed565b61012f8281548110610c4157610c4161284f565b90600052602060002001549050919050565b33610c67610197546001600160a01b031690565b6001600160a01b03161480610c835750610c836101c933610fbf565b610c9f5760405162461bcd60e51b81526004016104ed90612735565b6106cd83838361151e565b6000818152609960205260408120546001600160a01b03168061049b5760405162461bcd60e51b8152602060048201526018602482015277115490cdcc8c4e881a5b9d985b1a59081d1bdad95b88125160421b60448201526064016104ed565b610d1261135b565b610d1e6101c982610fbf565b6108475760405133906001600160a01b038316907f7e1a1a08d52e4ba0e21554733d66165fd5151f99460116223d9e3a608eec5cb190600090a36105006101c9826115e9565b60006001600160a01b038216610dce5760405162461bcd60e51b815260206004820152602960248201527f4552433732313a2061646472657373207a65726f206973206e6f7420612076616044820152683634b21037bbb732b960b91b60648201526084016104ed565b506001600160a01b03166000908152609a602052604090205490565b610df261135b565b610dfc60006115fe565b565b33610e12610197546001600160a01b031690565b6001600160a01b03161480610e2e5750610e2e6101c933610fbf565b610e4a5760405162461bcd60e51b81526004016104ed90612735565b600090815260666020526040812055565b60606098805461051390612779565b610e7261135b565b6101616106cd8284836129a1565b610500338383611651565b33610e9f610197546001600160a01b031690565b6001600160a01b03161480610ebb5750610ebb6101c933610fbf565b610ed75760405162461bcd60e51b81526004016104ed90612735565b610dfc6000606555565b610eeb338361116b565b610f075760405162461bcd60e51b81526004016104ed906127b3565b610f138484848461171f565b50505050565b606061049b82611752565b610f2c61135b565b6001600160a01b038116610f915760405162461bcd60e51b815260206004820152602660248201527f4f776e61626c653a206e6577206f776e657220697320746865207a65726f206160448201526564647265737360d01b60648201526084016104ed565b610847816115fe565b60006001600160e01b0319821663780e9d6360e01b148061049b575061049b8261184d565b6001600160a01b038116600090815260018301602052604081205415155b9392505050565b6127106001600160601b038216111561100f5760405162461bcd60e51b81526004016104ed90612a61565b6001600160a01b0382166110655760405162461bcd60e51b815260206004820152601960248201527f455243323938313a20696e76616c69642072656365697665720000000000000060448201526064016104ed565b604080518082019091526001600160a01b039092168083526001600160601b039091166020909201829052600160a01b90910217606555565b6000818152609960205260409020546001600160a01b03166108475760405162461bcd60e51b8152602060048201526018602482015277115490cdcc8c4e881a5b9d985b1a59081d1bdad95b88125160421b60448201526064016104ed565b6000818152609b6020526040902080546001600160a01b0319166001600160a01b038416908117909155819061113282610caa565b6001600160a01b03167f8c5be1e5ebec7d5bd14f71427d1e84f3dd0314c0f7b2291e5b200ac8c7c3b92560405160405180910390a45050565b60008061117783610caa565b9050806001600160a01b0316846001600160a01b031614806111be57506001600160a01b038082166000908152609c602090815260408083209388168352929052205460ff165b806111e25750836001600160a01b03166111d784610596565b6001600160a01b0316145b949350505050565b826001600160a01b03166111fd82610caa565b6001600160a01b0316146112235760405162461bcd60e51b81526004016104ed90612aab565b6001600160a01b0382166112855760405162461bcd60e51b8152602060048201526024808201527f4552433732313a207472616e7366657220746f20746865207a65726f206164646044820152637265737360e01b60648201526084016104ed565b6112928383836001611858565b826001600160a01b03166112a582610caa565b6001600160a01b0316146112cb5760405162461bcd60e51b81526004016104ed90612aab565b6000818152609b6020908152604080832080546001600160a01b03199081169091556001600160a01b03878116808652609a8552838620805460001901905590871680865283862080546001019055868652609990945282852080549092168417909155905184937fddf252ad1be2c89b69c2b068fc378daa952ba7f163c4a11628f55a4df523b3ef91a4505050565b610197546001600160a01b03163314610dfc5760405162461bcd60e51b815260206004820181905260248201527f4f776e61626c653a2063616c6c6572206973206e6f7420746865206f776e657260448201526064016104ed565b6000610fdd836001600160a01b038416611864565b600061049b825490565b6000610fdd8383611957565b610500828260405180602001604052806000815250611981565b6000828152609960205260409020546001600160a01b03166114765760405162461bcd60e51b815260206004820152602e60248201527f45524337323155524953746f726167653a2055524920736574206f66206e6f6e60448201526d32bc34b9ba32b73a103a37b5b2b760911b60648201526084016104ed565b600082815260c96020526040902061148e82826128e1565b506040518281527ff8e1a15aba9398e019f0b49df1a4fde98ee17ae345cb5f6b5e2c27f5033e8ce79060200160405180910390a15050565b600054610100900460ff166114ed5760405162461bcd60e51b81526004016104ed90612af0565b61050082826119b4565b600054610100900460ff16610dfc5760405162461bcd60e51b81526004016104ed90612af0565b6127106001600160601b03821611156115495760405162461bcd60e51b81526004016104ed90612a61565b6001600160a01b03821661159f5760405162461bcd60e51b815260206004820152601b60248201527f455243323938313a20496e76616c696420706172616d6574657273000000000060448201526064016104ed565b6040805180820182526001600160a01b0393841681526001600160601b0392831660208083019182526000968752606690529190942093519051909116600160a01b029116179055565b6000610fdd836001600160a01b0384166119f4565b61019780546001600160a01b038381166001600160a01b0319831681179093556040519116919082907f8be0079c531659141344cd1fd0a4f28419497f9722a3daafe3b4186f6b6457e090600090a35050565b816001600160a01b0316836001600160a01b0316036116b25760405162461bcd60e51b815260206004820152601960248201527f4552433732313a20617070726f766520746f2063616c6c65720000000000000060448201526064016104ed565b6001600160a01b038381166000818152609c6020908152604080832094871680845294825291829020805460ff191686151590811790915591519182527f17307eab39ab6107e8899845ad3d59bd9653f200f220920489ca2b5937696c31910160405180910390a3505050565b61172a8484846111ea565b61173684848484611a43565b610f135760405162461bcd60e51b81526004016104ed90612b3b565b606061175d8261109e565b600082815260c960205260408120805461177690612779565b80601f01602080910402602001604051908101604052809291908181526020018280546117a290612779565b80156117ef5780601f106117c4576101008083540402835291602001916117ef565b820191906000526020600020905b8154815290600101906020018083116117d257829003601f168201915b505050505090506000611800611b44565b90508051600003611812575092915050565b81511561184457808260405160200161182c929190612b8d565b60405160208183030381529060405292505050919050565b6111e284611b54565b600061049b82611bba565b610f1384848484611bdf565b6000818152600183016020526040812054801561194d576000611888600183612bbc565b855490915060009061189c90600190612bbc565b90508181146119015760008660000182815481106118bc576118bc61284f565b90600052602060002001549050808760000184815481106118df576118df61284f565b6000918252602080832090910192909255918252600188019052604090208390555b855486908061191257611912612bcf565b60019003818190600052602060002001600090559055856001016000868152602001908152602001600020600090556001935050505061049b565b600091505061049b565b600082600001828154811061196e5761196e61284f565b9060005260206000200154905092915050565b61198b8383611d15565b6119986000848484611a43565b6106cd5760405162461bcd60e51b81526004016104ed90612b3b565b600054610100900460ff166119db5760405162461bcd60e51b81526004016104ed90612af0565b60976119e783826128e1565b5060986106cd82826128e1565b6000818152600183016020526040812054611a3b5750815460018181018455600084815260208082209093018490558454848252828601909352604090209190915561049b565b50600061049b565b60006001600160a01b0384163b15611b3957604051630a85bd0160e11b81526001600160a01b0385169063150b7a0290611a87903390899088908890600401612be5565b6020604051808303816000875af1925050508015611ac2575060408051601f3d908101601f19168201909252611abf91810190612c22565b60015b611b1f573d808015611af0576040519150601f19603f3d011682016040523d82523d6000602084013e611af5565b606091505b508051600003611b175760405162461bcd60e51b81526004016104ed90612b3b565b805181602001fd5b6001600160e01b031916630a85bd0160e11b1490506111e2565b506001949350505050565b6060610161805461051390612779565b6060611b5f8261109e565b6000611b69611b44565b90506000815111611b895760405180602001604052806000815250610fdd565b80611b9384611eae565b604051602001611ba4929190612b8d565b6040516020818303038152906040529392505050565b60006001600160e01b03198216632483248360e11b148061049b575061049b82611f41565b6001811115611c4e5760405162461bcd60e51b815260206004820152603560248201527f455243373231456e756d657261626c653a20636f6e7365637574697665207472604482015274185b9cd9995c9cc81b9bdd081cdd5c1c1bdc9d1959605a1b60648201526084016104ed565b816001600160a01b038516611cac57611ca78161012f8054600083815261013060205260408120829055600182018355919091527f232da9e50dad2971456a78fb5cd6ff6b75019984d6e918139ce990999420f9790155565b611ccf565b836001600160a01b0316856001600160a01b031614611ccf57611ccf8582611f81565b6001600160a01b038416611ceb57611ce681612023565b611d0e565b846001600160a01b0316846001600160a01b031614611d0e57611d0e84826120d8565b5050505050565b6001600160a01b038216611d6b5760405162461bcd60e51b815260206004820181905260248201527f4552433732313a206d696e7420746f20746865207a65726f206164647265737360448201526064016104ed565b6000818152609960205260409020546001600160a01b031615611dd05760405162461bcd60e51b815260206004820152601c60248201527f4552433732313a20746f6b656e20616c7265616479206d696e7465640000000060448201526064016104ed565b611dde600083836001611858565b6000818152609960205260409020546001600160a01b031615611e435760405162461bcd60e51b815260206004820152601c60248201527f4552433732313a20746f6b656e20616c7265616479206d696e7465640000000060448201526064016104ed565b6001600160a01b0382166000818152609a6020908152604080832080546001019055848352609990915280822080546001600160a01b0319168417905551839291907fddf252ad1be2c89b69c2b068fc378daa952ba7f163c4a11628f55a4df523b3ef908290a45050565b60606000611ebb8361211e565b600101905060008167ffffffffffffffff811115611edb57611edb6124c5565b6040519080825280601f01601f191660200182016040528015611f05576020820181803683370190505b5090508181016020015b600019016f181899199a1a9b1b9c1cb0b131b232b360811b600a86061a8153600a8504945084611f0f57509392505050565b60006001600160e01b031982166380ac58cd60e01b1480611f7257506001600160e01b03198216635b5e139f60e01b145b8061049b575061049b826121f6565b60006001611f8e84610d64565b611f989190612bbc565b600083815261012e6020526040902054909150808214611fee576001600160a01b038416600090815261012d60209081526040808320858452825280832054848452818420819055835261012e90915290208190555b50600091825261012e602090815260408084208490556001600160a01b03909416835261012d81528383209183525290812055565b61012f5460009061203690600190612bbc565b6000838152610130602052604081205461012f80549394509092849081106120605761206061284f565b906000526020600020015490508061012f83815481106120825761208261284f565b6000918252602080832090910192909255828152610130909152604080822084905585825281205561012f8054806120bc576120bc612bcf565b6001900381819060005260206000200160009055905550505050565b60006120e383610d64565b6001600160a01b03909316600090815261012d60209081526040808320868452825280832085905593825261012e9052919091209190915550565b60008072184f03e93ff9f4daa797ed6e38ed64bf6a1f0160401b831061215d5772184f03e93ff9f4daa797ed6e38ed64bf6a1f0160401b830492506040015b6d04ee2d6d415b85acef81000000008310612189576d04ee2d6d415b85acef8100000000830492506020015b662386f26fc1000083106121a757662386f26fc10000830492506010015b6305f5e10083106121bf576305f5e100830492506008015b61271083106121d357612710830492506004015b606483106121e5576064830492506002015b600a831061049b5760010192915050565b60006001600160e01b0319821663152a902d60e11b148061049b57506301ffc9a760e01b6001600160e01b031983161461049b565b6001600160e01b03198116811461084757600080fd5b60006020828403121561225357600080fd5b8135610fdd8161222b565b80356001600160a01b038116811461227557600080fd5b919050565b80356001600160601b038116811461227557600080fd5b600080604083850312156122a457600080fd5b6122ad8361225e565b91506122bb6020840161227a565b90509250929050565b60005b838110156122df5781810151838201526020016122c7565b50506000910152565b600081518084526123008160208601602086016122c4565b601f01601f19169290920160200192915050565b602081526000610fdd60208301846122e8565b60006020828403121561233957600080fd5b5035919050565b6000806040838503121561235357600080fd5b61235c8361225e565b946020939093013593505050565b60008060006060848603121561237f57600080fd5b6123888461225e565b92506123966020850161225e565b9150604084013590509250925092565b6000602082840312156123b857600080fd5b610fdd8261225e565b600080604083850312156123d457600080fd5b50508035926020909101359150565b6020808252825182820181905260009190848201906040850190845b818110156124245783516001600160a01b0316835292840192918401916001016123ff565b50909695505050505050565b60008083601f84011261244257600080fd5b50813567ffffffffffffffff81111561245a57600080fd5b6020830191508360208285010111156107e557600080fd5b60008060006040848603121561248757600080fd5b6124908461225e565b9250602084013567ffffffffffffffff8111156124ac57600080fd5b6124b886828701612430565b9497909650939450505050565b634e487b7160e01b600052604160045260246000fd5b600067ffffffffffffffff808411156124f6576124f66124c5565b604051601f8501601f19908116603f0116810190828211818310171561251e5761251e6124c5565b8160405280935085815286868601111561253757600080fd5b858560208301376000602087830101525050509392505050565b600082601f83011261256257600080fd5b610fdd838335602085016124db565b6000806040838503121561258457600080fd5b823567ffffffffffffffff8082111561259c57600080fd5b6125a886838701612551565b935060208501359150808211156125be57600080fd5b506125cb85828601612551565b9150509250929050565b6000806000606084860312156125ea57600080fd5b833592506125fa6020850161225e565b91506126086040850161227a565b90509250925092565b6000806020838503121561262457600080fd5b823567ffffffffffffffff81111561263b57600080fd5b61264785828601612430565b90969095509350505050565b6000806040838503121561266657600080fd5b61266f8361225e565b91506020830135801515811461268457600080fd5b809150509250929050565b600080600080608085870312156126a557600080fd5b6126ae8561225e565b93506126bc6020860161225e565b925060408501359150606085013567ffffffffffffffff8111156126df57600080fd5b8501601f810187136126f057600080fd5b6126ff878235602084016124db565b91505092959194509250565b6000806040838503121561271e57600080fd5b6127278361225e565b91506122bb6020840161225e565b60208082526024908201527f41646d696e436f6e74726f6c3a204d757374206265206f776e6572206f7220616040820152633236b4b760e11b606082015260800190565b600181811c9082168061278d57607f821691505b6020821081036127ad57634e487b7160e01b600052602260045260246000fd5b50919050565b6020808252602d908201527f4552433732313a2063616c6c6572206973206e6f7420746f6b656e206f776e6560408201526c1c881bdc88185c1c1c9bdd9959609a1b606082015260800190565b634e487b7160e01b600052601160045260246000fd5b808202811582820484141761049b5761049b612800565b60008261284a57634e487b7160e01b600052601260045260246000fd5b500490565b634e487b7160e01b600052603260045260246000fd5b8082018082111561049b5761049b612800565b60006001820161288a5761288a612800565b5060010190565b601f8211156106cd576000816000526020600020601f850160051c810160208610156128ba5750805b601f850160051c820191505b818110156128d9578281556001016128c6565b505050505050565b815167ffffffffffffffff8111156128fb576128fb6124c5565b61290f816129098454612779565b84612891565b602080601f831160018114612944576000841561292c5750858301515b600019600386901b1c1916600185901b1785556128d9565b600085815260208120601f198616915b8281101561297357888601518255948401946001909101908401612954565b50858210156129915787850151600019600388901b60f8161c191681555b5050505050600190811b01905550565b67ffffffffffffffff8311156129b9576129b96124c5565b6129cd836129c78354612779565b83612891565b6000601f841160018114612a0157600085156129e95750838201355b600019600387901b1c1916600186901b178355611d0e565b600083815260209020601f19861690835b82811015612a325786850135825560209485019460019092019101612a12565b5086821015612a4f5760001960f88860031b161c19848701351681555b505060018560011b0183555050505050565b6020808252602a908201527f455243323938313a20726f79616c7479206665652077696c6c206578636565646040820152692073616c65507269636560b01b606082015260800190565b60208082526025908201527f4552433732313a207472616e736665722066726f6d20696e636f72726563742060408201526437bbb732b960d91b606082015260800190565b6020808252602b908201527f496e697469616c697a61626c653a20636f6e7472616374206973206e6f74206960408201526a6e697469616c697a696e6760a81b606082015260800190565b60208082526032908201527f4552433732313a207472616e7366657220746f206e6f6e20455243373231526560408201527131b2b4bb32b91034b6b83632b6b2b73a32b960711b606082015260800190565b60008351612b9f8184602088016122c4565b835190830190612bb38183602088016122c4565b01949350505050565b8181038181111561049b5761049b612800565b634e487b7160e01b600052603160045260246000fd5b6001600160a01b0385811682528416602082015260408101839052608060608201819052600090612c18908301846122e8565b9695505050505050565b600060208284031215612c3457600080fd5b8151610fdd8161222b56fea2646970667358221220e24422746fed5040e45be783114713784df7199e35fd86e230ca823914fa406564736f6c63430008160033",
  "linkReferences": {},
  "deployedLinkReferences": {}
}