{
  "_format": "hh-sol-artifact-1",
  "contractName": "ERC721Creator",
  "sourceName": "contracts/contract-factory/ERC721Creator.sol",
  "abi": [
    {
      "inputs": [],
      "stateMutability": "nonpayable",
      "type": "constructor"
    },
    {
      "anonymous": false,
      "inputs": [
        {
          "indexed": true,
          "internalType": "address",
          "name": "account",
          "type": "address"
        },
        {
          "indexed": true,
          "internalType": "address",
          "name": "sender",
          "type": "address"
        }
      ],
      "name": "AdminApproved",
      "type": "event"
    },
    {
      "anonymous": false,
      "inputs": [
        {
          "indexed": true,
          "internalType": "address",
          "name": "account",
          "type": "address"
        },
        {
          "indexed": true,
          "internalType": "address",
          "name": "sender",
          "type": "address"
        }
      ],
      "name": "AdminRevoked",
      "type": "event"
    },
    {
      "anonymous": false,
      "inputs": [
        {
          "indexed": true,
          "internalType": "address",
          "name": "owner",
          "type": "address"
        },
        {
          "indexed": true,
          "internalType": "address",
          "name": "approved",
          "type": "address"
        },
        {
          "indexed": true,
          "internalType": "uint256",
          "name": "tokenId",
          "type": "uint256"
        }
      ],
      "name": "Approval",
      "type": "event"
    },
    {
      "anonymous": false,
      "inputs": [
        {
          "indexed": true,
          "internalType": "address",
          "name": "owner",
          "type": "address"
        },
        {
          "indexed": true,
          "internalType": "address",
          "name": "operator",
          "type": "address"
        },
        {
          "indexed": false,
          "internalType": "bool",
          "name": "approved",
          "type": "bool"
        }
      ],
      "name": "ApprovalForAll",
      "type": "event"
    },
    {
      "anonymous": false,
      "inputs": [
        {
          "indexed": false,
          "internalType": "address payable[]",
          "name": "receivers",
          "type": "address[]"
        },
        {
          "indexed": false,
          "internalType": "uint256[]",
          "name": "basisPoints",
          "type": "uint256[]"
        }
      ],
      "name": "DefaultRoyaltiesUpdated",
      "type": "event"
    },
    {
      "anonymous": false,
      "inputs": [
        {
          "indexed": false,
          "internalType": "uint8",
          "name": "version",
          "type": "uint8"
        }
      ],
      "name": "Initialized",
      "type": "event"
    },
    {
      "anonymous": false,
      "inputs": [
        {
          "indexed": true,
          "internalType": "address",
          "name": "previousOwner",
          "type": "address"
        },
        {
          "indexed": true,
          "internalType": "address",
          "name": "newOwner",
          "type": "address"
        }
      ],
      "name": "OwnershipTransferred",
      "type": "event"
    },
    {
      "anonymous": false,
      "inputs": [
        {
          "indexed": true,
          "internalType": "uint256",
          "name": "tokenId",
          "type": "uint256"
        },
        {
          "indexed": false,
          "internalType": "address payable[]",
          "name": "receivers",
          "type": "address[]"
        },
        {
          "indexed": false,
          "internalType": "uint256[]",
          "name": "basisPoints",
          "type": "uint256[]"
        }
      ],
      "name": "RoyaltiesUpdated",
      "type": "event"
    },
    {
      "anonymous": false,
      "inputs": [
        {
          "indexed": true,
          "internalType": "address",
          "name": "from",
          "type": "address"
        },
        {
          "indexed": true,
          "internalType": "address",
          "name": "to",
          "type": "address"
        },
        {
          "indexed": true,
          "internalType": "uint256",
          "name": "tokenId",
          "type": "uint256"
        }
      ],
      "name": "Transfer",
      "type": "event"
    },
    {
      "inputs": [
        {
          "internalType": "address",
          "name": "to",
          "type": "address"
        },
        {
          "internalType": "uint256",
          "name": "tokenId",
          "type": "uint256"
        }
      ],
      "name": "approve",
      "outputs": [],
      "stateMutability": "nonpayable",
      "type": "function"
    },
    {
      "inputs": [
        {
          "internalType": "address",
          "name": "admin",
          "type": "address"
        }
      ],
      "name": "approveAdmin",
      "outputs": [],
      "stateMutability": "nonpayable",
      "type": "function"
    },
    {
      "inputs": [
        {
          "internalType": "address",
          "name": "owner",
          "type": "address"
        }
      ],
      "name": "balanceOf",
      "outputs": [
        {
          "internalType": "uint256",
          "name": "",
          "type": "uint256"
        }
      ],
      "stateMutability": "view",
      "type": "function"
    },
    {
      "inputs": [],
      "name": "getAdmins",
      "outputs": [
        {
          "internalType": "address[]",
          "name": "admins",
          "type": "address[]"
        }
      ],
      "stateMutability": "view",
      "type": "function"
    },
    {
      "inputs": [],
      "name": "getApproveTransfer",
      "outputs": [
        {
          "internalType": "address",
          "name": "",
          "type": "address"
        }
      ],
      "stateMutability": "view",
      "type": "function"
    },
    {
      "inputs": [
        {
          "internalType": "uint256",
          "name": "tokenId",
          "type": "uint256"
        }
      ],
      "name": "getApproved",
      "outputs": [
        {
          "internalType": "address",
          "name": "",
          "type": "address"
        }
      ],
      "stateMutability": "view",
      "type": "function"
    },
    {
      "inputs": [
        {
          "internalType": "uint256",
          "name": "tokenId",
          "type": "uint256"
        }
      ],
      "name": "getFeeBps",
      "outputs": [
        {
          "internalType": "uint256[]",
          "name": "",
          "type": "uint256[]"
        }
      ],
      "stateMutability": "view",
      "type": "function"
    },
    {
      "inputs": [
        {
          "internalType": "uint256",
          "name": "tokenId",
          "type": "uint256"
        }
      ],
      "name": "getFeeRecipients",
      "outputs": [
        {
          "internalType": "address payable[]",
          "name": "",
          "type": "address[]"
        }
      ],
      "stateMutability": "view",
      "type": "function"
    },
    {
      "inputs": [
        {
          "internalType": "uint256",
          "name": "tokenId",
          "type": "uint256"
        }
      ],
      "name": "getFees",
      "outputs": [
        {
          "internalType": "address payable[]",
          "name": "",
          "type": "address[]"
        },
        {
          "internalType": "uint256[]",
          "name": "",
          "type": "uint256[]"
        }
      ],
      "stateMutability": "view",
      "type": "function"
    },
    {
      "inputs": [
        {
          "internalType": "uint256",
          "name": "tokenId",
          "type": "uint256"
        }
      ],
      "name": "getRoyalties",
      "outputs": [
        {
          "internalType": "address payable[]",
          "name": "",
          "type": "address[]"
        },
        {
          "internalType": "uint256[]",
          "name": "",
          "type": "uint256[]"
        }
      ],
      "stateMutability": "view",
      "type": "function"
    },
    {
      "inputs": [
        {
          "internalType": "string",
          "name": "_name",
          "type": "string"
        },
        {
          "internalType": "string",
          "name": "_symbol",
          "type": "string"
        }
      ],
      "name": "initialize",
      "outputs": [],
      "stateMutability": "nonpayable",
      "type": "function"
    },
    {
      "inputs": [
        {
          "internalType": "address",
          "name": "admin",
          "type": "address"
        }
      ],
      "name": "isAdmin",
      "outputs": [
        {
          "internalType": "bool",
          "name": "",
          "type": "bool"
        }
      ],
      "stateMutability": "view",
      "type": "function"
    },
    {
      "inputs": [
        {
          "internalType": "address",
          "name": "owner",
          "type": "address"
        },
        {
          "internalType": "address",
          "name": "operator",
          "type": "address"
        }
      ],
      "name": "isApprovedForAll",
      "outputs": [
        {
          "internalType": "bool",
          "name": "",
          "type": "bool"
        }
      ],
      "stateMutability": "view",
      "type": "function"
    },
    {
      "inputs": [
        {
          "internalType": "address",
          "name": "to",
          "type": "address"
        },
        {
          "internalType": "string",
          "name": "uri",
          "type": "string"
        },
        {
          "internalType": "address payable[]",
          "name": "receivers",
          "type": "address[]"
        },
        {
          "internalType": "uint256[]",
          "name": "basisPoints",
          "type": "uint256[]"
        }
      ],
      "name": "mintToken",
      "outputs": [
        {
          "internalType": "uint256",
          "name": "",
          "type": "uint256"
        }
      ],
      "stateMutability": "nonpayable",
      "type": "function"
    },
    {
      "inputs": [],
      "name": "name",
      "outputs": [
        {
          "internalType": "string",
          "name": "",
          "type": "string"
        }
      ],
      "stateMutability": "view",
      "type": "function"
    },
    {
      "inputs": [],
      "name": "owner",
      "outputs": [
        {
          "internalType": "address",
          "name": "",
          "type": "address"
        }
      ],
      "stateMutability": "view",
      "type": "function"
    },
    {
      "inputs": [
        {
          "internalType": "uint256",
          "name": "tokenId",
          "type": "uint256"
        }
      ],
      "name": "ownerOf",
      "outputs": [
        {
          "internalType": "address",
          "name": "",
          "type": "address"
        }
      ],
      "stateMutability": "view",
      "type": "function"
    },
    {
      "inputs": [],
      "name": "renounceOwnership",
      "outputs": [],
      "stateMutability": "nonpayable",
      "type": "function"
    },
    {
      "inputs": [
        {
          "internalType": "address",
          "name": "admin",
          "type": "address"
        }
      ],
      "name": "revokeAdmin",
      "outputs": [],
      "stateMutability": "nonpayable",
      "type": "function"
    },
    {
      "inputs": [
        {
          "internalType": "uint256",
          "name": "tokenId",
          "type": "uint256"
        },
        {
          "internalType": "uint256",
          "name": "value",
          "type": "uint256"
        }
      ],
      "name": "royaltyInfo",
      "outputs": [
        {
          "internalType": "address",
          "name": "",
          "type": "address"
        },
        {
          "internalType": "uint256",
          "name": "",
          "type": "uint256"
        }
      ],
      "stateMutability": "view",
      "type": "function"
    },
    {
      "inputs": [
        {
          "internalType": "address",
          "name": "from",
          "type": "address"
        },
        {
          "internalType": "address",
          "name": "to",
          "type": "address"
        },
        {
          "internalType": "uint256",
          "name": "tokenId",
          "type": "uint256"
        }
      ],
      "name": "safeTransferFrom",
      "outputs": [],
      "stateMutability": "nonpayable",
      "type": "function"
    },
    {
      "inputs": [
        {
          "internalType": "address",
          "name": "from",
          "type": "address"
        },
        {
          "internalType": "address",
          "name": "to",
          "type": "address"
        },
        {
          "internalType": "uint256",
          "name": "tokenId",
          "type": "uint256"
        },
        {
          "internalType": "bytes",
          "name": "data",
          "type": "bytes"
        }
      ],
      "name": "safeTransferFrom",
      "outputs": [],
      "stateMutability": "nonpayable",
      "type": "function"
    },
    {
      "inputs": [
        {
          "internalType": "address",
          "name": "operator",
          "type": "address"
        },
        {
          "internalType": "bool",
          "name": "approved",
          "type": "bool"
        }
      ],
      "name": "setApprovalForAll",
      "outputs": [],
      "stateMutability": "nonpayable",
      "type": "function"
    },
    {
      "inputs": [
        {
          "internalType": "uint256",
          "name": "tokenId",
          "type": "uint256"
        },
        {
          "internalType": "address payable[]",
          "name": "receivers",
          "type": "address[]"
        },
        {
          "internalType": "uint256[]",
          "name": "basisPoints",
          "type": "uint256[]"
        }
      ],
      "name": "setRoyalties",
      "outputs": [],
      "stateMutability": "nonpayable",
      "type": "function"
    },
    {
      "inputs": [
        {
          "internalType": "address payable[]",
          "name": "receivers",
          "type": "address[]"
        },
        {
          "internalType": "uint256[]",
          "name": "basisPoints",
          "type": "uint256[]"
        }
      ],
      "name": "setRoyalties",
      "outputs": [],
      "stateMutability": "nonpayable",
      "type": "function"
    },
    {
      "inputs": [
        {
          "internalType": "bytes4",
          "name": "interfaceId",
          "type": "bytes4"
        }
      ],
      "name": "supportsInterface",
      "outputs": [
        {
          "internalType": "bool",
          "name": "",
          "type": "bool"
        }
      ],
      "stateMutability": "view",
      "type": "function"
    },
    {
      "inputs": [],
      "name": "symbol",
      "outputs": [
        {
          "internalType": "string",
          "name": "",
          "type": "string"
        }
      ],
      "stateMutability": "view",
      "type": "function"
    },
    {
      "inputs": [
        {
          "internalType": "uint256",
          "name": "tokenId",
          "type": "uint256"
        }
      ],
      "name": "tokenData",
      "outputs": [
        {
          "internalType": "uint80",
          "name": "",
          "type": "uint80"
        }
      ],
      "stateMutability": "view",
      "type": "function"
    },
    {
      "inputs": [
        {
          "internalType": "uint256",
          "name": "tokenId",
          "type": "uint256"
        }
      ],
      "name": "tokenURI",
      "outputs": [
        {
          "internalType": "string",
          "name": "",
          "type": "string"
        }
      ],
      "stateMutability": "view",
      "type": "function"
    },
    {
      "inputs": [
        {
          "internalType": "address",
          "name": "from",
          "type": "address"
        },
        {
          "internalType": "address",
          "name": "to",
          "type": "address"
        },
        {
          "internalType": "uint256",
          "name": "tokenId",
          "type": "uint256"
        }
      ],
      "name": "transferFrom",
      "outputs": [],
      "stateMutability": "nonpayable",
      "type": "function"
    },
    {
      "inputs": [
        {
          "internalType": "address",
          "name": "newOwner",
          "type": "address"
        }
      ],
      "name": "transferOwnership",
      "outputs": [],
      "stateMutability": "nonpayable",
      "type": "function"
    }
  ],
  "bytecode": "0x60806040523480156200001157600080fd5b506200001c6200002c565b620000266200002c565b620000ed565b600054610100900460ff1615620000995760405162461bcd60e51b815260206004820152602760248201527f496e697469616c697a61626c653a20636f6e747261637420697320696e697469604482015266616c697a696e6760c81b606482015260840160405180910390fd5b60005460ff90811614620000eb576000805460ff191660ff9081179091556040519081527f7f26b83ff96e1f2b6a682f133852f6798a09c465da95921460cefb38474024989060200160405180910390a15b565b612b6480620000fd6000396000f3fe608060405234801561001057600080fd5b50600436106101e55760003560e01c80634cd88b761161010f578063b4b5b48f116100a2578063c87b56dd11610071578063c87b56dd14610497578063d5a06d4c14610476578063e985e9c5146104aa578063f2fde38b146104bd57600080fd5b8063b4b5b48f146103f2578063b88d4fde14610443578063b9c4d9fb14610456578063bb3bafd61461047657600080fd5b8063715018a6116100de578063715018a6146103be5780638da5cb5b146103c657806395d89b41146103d7578063a22cb465146103df57600080fd5b80634cd88b76146103725780636352211e146103855780636d73e6691461039857806370a08231146103ab57600080fd5b806322f374d0116101875780632d345670116101565780632d3456701461032457806331ae450b14610337578063332dd1ae1461034c57806342842e0e1461035f57600080fd5b806322f374d0146102bb57806323b872dd146102cc57806324d7806c146102df5780632a55205a146102f257600080fd5b8063095ea7b3116101c3578063095ea7b3146102525780630b994475146102675780630ebd4c7f1461028857806320e4afe2146102a857600080fd5b806301ffc9a7146101ea57806306fdde0314610212578063081812fc14610227575b600080fd5b6101fd6101f8366004611ff1565b6104d0565b60405190151581526020015b60405180910390f35b61021a6104ff565b6040516102099190612054565b61023a610235366004612067565b610591565b6040516001600160a01b039091168152602001610209565b610265610260366004612095565b6105b8565b005b61027a610275366004612106565b6106d2565b604051908152602001610209565b61029b610296366004612067565b610724565b604051610209919061221d565b6102656102b6366004612230565b610754565b606f546001600160a01b031661023a565b6102656102da3660046122aa565b6107d7565b6101fd6102ed3660046122eb565b610808565b610305610300366004612308565b610841565b604080516001600160a01b039093168352602083019190915201610209565b6102656103323660046122eb565b61087f565b61033f6108dd565b604051610209919061232a565b61026561035a366004612377565b610982565b61026561036d3660046122aa565b6109e6565b61026561038036600461248f565b610a01565b61023a610393366004612067565b610b22565b6102656103a63660046122eb565b610b82565b61027a6103b93660046122eb565b610bda565b610265610c60565b6033546001600160a01b031661023a565b61021a610c74565b6102656103ed3660046124f3565b610c83565b610428610400366004612067565b6000908152606a6020526040902054600160a01b900460101c69ffffffffffffffffffff1690565b60405169ffffffffffffffffffff9091168152602001610209565b610265610451366004612531565b610c8e565b610469610464366004612067565b610cc0565b60405161020991906125eb565b610489610484366004612067565b610cf0565b6040516102099291906125fe565b61021a6104a5366004612067565b610d2a565b6101fd6104b836600461262c565b610d5a565b6102656104cb3660046122eb565b610d88565b60006104db82610dfe565b806104ea57506104ea82610eaf565b806104f957506104f982610eea565b92915050565b60606067805461050e9061265a565b80601f016020809104026020016040519081016040528092919081815260200182805461053a9061265a565b80156105875780601f1061055c57610100808354040283529160200191610587565b820191906000526020600020905b81548152906001019060200180831161056a57829003601f168201915b5050505050905090565b600061059c82610f1f565b506000908152606c60205260409020546001600160a01b031690565b60006105c382610b22565b9050806001600160a01b0316836001600160a01b0316036106355760405162461bcd60e51b815260206004820152602160248201527f4552433732313a20617070726f76616c20746f2063757272656e74206f776e656044820152603960f91b60648201526084015b60405180910390fd5b336001600160a01b038216148061065157506106518133610d5a565b6106c35760405162461bcd60e51b815260206004820152603d60248201527f4552433732313a20617070726f76652063616c6c6572206973206e6f7420746f60448201527f6b656e206f776e6572206f7220617070726f76656420666f7220616c6c000000606482015260840161062c565b6106cd8383610f6f565b505050565b60008060695460016106e491906126aa565b6000818152606e60205260409020909150610700888a83612705565b5061070b8982610fdd565b6107188187878787610754565b98975050505050505050565b606061072f82610ff7565b61074b5760405162461bcd60e51b815260040161062c906127c5565b6104f982611014565b336107676033546001600160a01b031690565b6001600160a01b031614806107825750610782606533611026565b61079e5760405162461bcd60e51b815260040161062c906127f0565b6107a785610ff7565b6107c35760405162461bcd60e51b815260040161062c906127c5565b6107d08585858585611048565b5050505050565b6107e13382611129565b6107fd5760405162461bcd60e51b815260040161062c90612834565b6106cd838383611188565b6000816001600160a01b03166108266033546001600160a01b031690565b6001600160a01b031614806104f957506104f9606583611026565b60008061084d84610ff7565b6108695760405162461bcd60e51b815260040161062c906127c5565b6108738484611320565b915091505b9250929050565b6108876113f7565b610892606582611026565b156108da5760405133906001600160a01b038316907f7c0c3c84c67c85fcac635147348bfe374c24a1a93d0366d1cfe9d8853cbf89d590600090a36108d8606582611451565b505b50565b60606108e96065611466565b67ffffffffffffffff811115610901576109016123e3565b60405190808252806020026020018201604052801561092a578160200160208202803683370190505b50905060005b61093a6065611466565b81101561097e5761094c606582611470565b82828151811061095e5761095e612881565b6001600160a01b0390921660209283029190910190910152600101610930565b5090565b336109956033546001600160a01b031690565b6001600160a01b031614806109b057506109b0606533611026565b6109cc5760405162461bcd60e51b815260040161062c906127f0565b6109d6828261147c565b6109e08484611488565b50505050565b6106cd83838360405180602001604052806000815250610c8e565b600054610100900460ff1615808015610a215750600054600160ff909116105b80610a3b5750303b158015610a3b575060005460ff166001145b610a9e5760405162461bcd60e51b815260206004820152602e60248201527f496e697469616c697a61626c653a20636f6e747261637420697320616c72656160448201526d191e481a5b9a5d1a585b1a5e995960921b606482015260840161062c565b6000805460ff191660011790558015610ac1576000805461ff0019166101001790555b610acb8383611494565b610ad36114c5565b600060695580156106cd576000805461ff0019169055604051600181527f7f26b83ff96e1f2b6a682f133852f6798a09c465da95921460cefb38474024989060200160405180910390a1505050565b6000818152606a60205260408120546001600160a01b0316806104f95760405162461bcd60e51b8152602060048201526018602482015277115490cdcc8c4e881a5b9d985b1a59081d1bdad95b88125160421b604482015260640161062c565b610b8a6113f7565b610b95606582611026565b6108da5760405133906001600160a01b038316907f7e1a1a08d52e4ba0e21554733d66165fd5151f99460116223d9e3a608eec5cb190600090a36108d86065826114f4565b60006001600160a01b038216610c445760405162461bcd60e51b815260206004820152602960248201527f4552433732313a2061646472657373207a65726f206973206e6f7420612076616044820152683634b21037bbb732b960b91b606482015260840161062c565b506001600160a01b03166000908152606b602052604090205490565b610c686113f7565b610c726000611509565b565b60606068805461050e9061265a565b6108d833838361155b565b610c983383611129565b610cb45760405162461bcd60e51b815260040161062c90612834565b6109e084848484611629565b6060610ccb82610ff7565b610ce75760405162461bcd60e51b815260040161062c906127c5565b6104f98261165c565b606080610cfc83610ff7565b610d185760405162461bcd60e51b815260040161062c906127c5565b610d218361166e565b91509150915091565b6060610d3582610ff7565b610d515760405162461bcd60e51b815260040161062c906127c5565b6104f982611837565b6001600160a01b039182166000908152606d6020908152604080832093909416825291909152205460ff1690565b610d906113f7565b6001600160a01b038116610df55760405162461bcd60e51b815260206004820152602660248201527f4f776e61626c653a206e6577206f776e657220697320746865207a65726f206160448201526564647265737360d01b606482015260840161062c565b6108da81611509565b60006001600160e01b03198216631851afbb60e31b1480610e2f57506001600160e01b031982166328f10a2160e01b145b80610e3e5750610e3e82610eaf565b80610e5957506001600160e01b03198216635d9dd7eb60e11b145b80610e7457506001600160e01b03198216632dde656160e21b145b80610e8f57506001600160e01b031982166335681b5360e21b145b806104f957506001600160e01b0319821663152a902d60e11b1492915050565b60006001600160e01b031982166380ac58cd60e01b14806104ea57506001600160e01b03198216635b5e139f60e01b14806104f957506104f9825b60006001600160e01b03198216632a9f3abf60e11b14806104f957506301ffc9a760e01b6001600160e01b03198316146104f9565b610f2881610ff7565b6108da5760405162461bcd60e51b8152602060048201526018602482015277115490cdcc8c4e881a5b9d985b1a59081d1bdad95b88125160421b604482015260640161062c565b6000818152606c6020526040902080546001600160a01b0319166001600160a01b0384169081179091558190610fa482610b22565b6001600160a01b03167f8c5be1e5ebec7d5bd14f71427d1e84f3dd0314c0f7b2291e5b200ac8c7c3b92560405160405180910390a45050565b6108d882826040518060200160405280600081525061194a565b6000908152606a60205260409020546001600160a01b0316151590565b606061101f8261166e565b9392505050565b6001600160a01b0381166000908152600183016020526040812054151561101f565b61105484848484611a93565b600085815260726020526040812061106b91611eef565b6110e48484808060200260200160405190810160405280939291908181526020018383602002808284376000920191909152505060408051602080880282810182019093528782529093508792508691829185019084908082843760009201829052508b81526072602052604090209250611b5e915050565b847fabb46fe0761d77584bde75697647804ffd8113abd4d8d06bc664150395eccdee8585858560405161111a9493929190612897565b60405180910390a25050505050565b60008061113583610b22565b9050806001600160a01b0316846001600160a01b0316148061115c575061115c8185610d5a565b806111805750836001600160a01b031661117584610591565b6001600160a01b0316145b949350505050565b6000818152606a60209081526040918290208251808401909352546001600160a01b03808216808552600160a01b9092046bffffffffffffffffffffffff1692840192909252908516811461122d5760405162461bcd60e51b815260206004820152602560248201527f4552433732313a207472616e736665722066726f6d20696e636f72726563742060448201526437bbb732b960d91b606482015260840161062c565b6001600160a01b03841661128f5760405162461bcd60e51b8152602060048201526024808201527f4552433732313a207472616e7366657220746f20746865207a65726f206164646044820152637265737360e01b606482015260840161062c565b602082015161129f600085610f6f565b6001600160a01b038087166000818152606b60209081526040808320805460001901905593891680835284832080546001019055888352606a90915283822080546001600160a01b031916821790559251879392917fddf252ad1be2c89b69c2b068fc378daa952ba7f163c4a11628f55a4df523b3ef91a45b505050505050565b60008060008061132f8661166e565b915091506001825111156113855760405162461bcd60e51b815260206004820152601c60248201527f4d6f7265207468616e203120726f79616c747920726563656976657200000000604482015260640161062c565b815160000361139c57306000935093505050610878565b816000815181106113af576113af612881565b602002602001015161271086836000815181106113ce576113ce612881565b60200260200101516113e09190612915565b6113ea919061292c565b9350935050509250929050565b6033546001600160a01b03163314610c725760405162461bcd60e51b815260206004820181905260248201527f4f776e61626c653a2063616c6c6572206973206e6f7420746865206f776e6572604482015260640161062c565b600061101f836001600160a01b038416611c12565b60006104f9825490565b600061101f8383611d05565b6106cd60708383611f0d565b6106cd60718383611f54565b600054610100900460ff166114bb5760405162461bcd60e51b815260040161062c9061294e565b6108d88282611d2f565b600054610100900460ff166114ec5760405162461bcd60e51b815260040161062c9061294e565b610c72611d6f565b600061101f836001600160a01b038416611d9f565b603380546001600160a01b038381166001600160a01b0319831681179093556040519116919082907f8be0079c531659141344cd1fd0a4f28419497f9722a3daafe3b4186f6b6457e090600090a35050565b816001600160a01b0316836001600160a01b0316036115bc5760405162461bcd60e51b815260206004820152601960248201527f4552433732313a20617070726f766520746f2063616c6c657200000000000000604482015260640161062c565b6001600160a01b038381166000818152606d6020908152604080832094871680845294825291829020805460ff191686151590811790915591519182527f17307eab39ab6107e8899845ad3d59bd9653f200f220920489ca2b5937696c31910160405180910390a3505050565b611634848484611188565b61164084848484611dee565b6109e05760405162461bcd60e51b815260040161062c90612999565b60606116678261166e565b5092915050565b606080600060726000858152602001908152602001600020805480602002602001604051908101604052809291908181526020016000905b828210156116f057600084815260209081902060408051808201909152908401546001600160a01b0381168252600160a01b900461ffff16818301528252600190920191016116a6565b50505050905060008151111561183157805167ffffffffffffffff81111561171a5761171a6123e3565b604051908082528060200260200182016040528015611743578160200160208202803683370190505b509250805167ffffffffffffffff811115611760576117606123e3565b604051908082528060200260200182016040528015611789578160200160208202803683370190505b50915060005b815181101561182f578181815181106117aa576117aa612881565b6020026020010151600001518482815181106117c8576117c8612881565b60200260200101906001600160a01b031690816001600160a01b0316815250508181815181106117fa576117fa612881565b60200260200101516020015161ffff1683828151811061181c5761181c612881565b602090810291909101015260010161178f565b505b50915091565b606060008211801561184b57506069548211155b6118875760405162461bcd60e51b815260206004820152600d60248201526c24b73b30b634b2103a37b5b2b760991b604482015260640161062c565b6000828152606e6020526040902080546118a09061265a565b159050611945576000828152606e6020526040902080546118c09061265a565b80601f01602080910402602001604051908101604052809291908181526020018280546118ec9061265a565b80156119395780601f1061190e57610100808354040283529160200191611939565b820191906000526020600020905b81548152906001019060200180831161191c57829003601f168201915b50505050509050919050565b919050565b6001600160a01b0383166119a05760405162461bcd60e51b815260206004820181905260248201527f4552433732313a206d696e7420746f20746865207a65726f2061646472657373604482015260640161062c565b6119a982610ff7565b156119f65760405162461bcd60e51b815260206004820152601c60248201527f4552433732313a20746f6b656e20616c7265616479206d696e74656400000000604482015260640161062c565b60006001600160a01b038085166000818152606b6020908152604080832080546001019055805180820182528481526bffffffffffffffffffffffff8088168285019081528a8652606a9094528285209151935116600160a01b02929095169190911790935591518592907fddf252ad1be2c89b69c2b068fc378daa952ba7f163c4a11628f55a4df523b3ef908290a46116406000858585611dee565b828114611ad25760405162461bcd60e51b815260206004820152600d60248201526c125b9d985b1a59081a5b9c1d5d609a1b604482015260640161062c565b6000805b82811015611b0c57838382818110611af057611af0612881565b9050602002013582611b0291906126aa565b9150600101611ad6565b5061271081106107d05760405162461bcd60e51b815260206004820152601760248201527f496e76616c696420746f74616c20726f79616c74696573000000000000000000604482015260640161062c565b60005b82518110156109e057816040518060400160405280868481518110611b8857611b88612881565b60200260200101516001600160a01b03168152602001858481518110611bb057611bb0612881565b60209081029190910181015161ffff9081169092528354600181810186556000958652948290208451910180549490920151909216600160a01b026001600160b01b03199093166001600160a01b039092169190911791909117905501611b61565b60008181526001830160205260408120548015611cfb576000611c366001836129eb565b8554909150600090611c4a906001906129eb565b9050818114611caf576000866000018281548110611c6a57611c6a612881565b9060005260206000200154905080876000018481548110611c8d57611c8d612881565b6000918252602080832090910192909255918252600188019052604090208390555b8554869080611cc057611cc06129fe565b6001900381819060005260206000200160009055905585600101600086815260200190815260200160002060009055600193505050506104f9565b60009150506104f9565b6000826000018281548110611d1c57611d1c612881565b9060005260206000200154905092915050565b600054610100900460ff16611d565760405162461bcd60e51b815260040161062c9061294e565b6067611d628382612a14565b5060686106cd8282612a14565b600054610100900460ff16611d965760405162461bcd60e51b815260040161062c9061294e565b610c7233611509565b6000818152600183016020526040812054611de6575081546001818101845560008481526020808220909301849055845484825282860190935260409020919091556104f9565b5060006104f9565b60006001600160a01b0384163b15611ee457604051630a85bd0160e11b81526001600160a01b0385169063150b7a0290611e32903390899088908890600401612ad4565b6020604051808303816000875af1925050508015611e6d575060408051601f3d908101601f19168201909252611e6a91810190612b11565b60015b611eca573d808015611e9b576040519150601f19603f3d011682016040523d82523d6000602084013e611ea0565b606091505b508051600003611ec25760405162461bcd60e51b815260040161062c90612999565b805181602001fd5b6001600160e01b031916630a85bd0160e11b149050611180565b506001949350505050565b50805460008255906000526020600020908101906108da9190611fa7565b828054828255906000526020600020908101928215611f48579160200282015b82811115611f48578235825591602001919060010190611f2d565b5061097e929150611fc6565b828054828255906000526020600020908101928215611f48579160200282015b82811115611f485781546001600160a01b0319166001600160a01b03843516178255602090920191600190910190611f74565b5b8082111561097e5780546001600160b01b0319168155600101611fa8565b5b8082111561097e5760008155600101611fc7565b6001600160e01b0319811681146108da57600080fd5b60006020828403121561200357600080fd5b813561101f81611fdb565b6000815180845260005b8181101561203457602081850181015186830182015201612018565b506000602082860101526020601f19601f83011685010191505092915050565b60208152600061101f602083018461200e565b60006020828403121561207957600080fd5b5035919050565b6001600160a01b03811681146108da57600080fd5b600080604083850312156120a857600080fd5b82356120b381612080565b946020939093013593505050565b60008083601f8401126120d357600080fd5b50813567ffffffffffffffff8111156120eb57600080fd5b6020830191508360208260051b850101111561087857600080fd5b60008060008060008060006080888a03121561212157600080fd5b873561212c81612080565b9650602088013567ffffffffffffffff8082111561214957600080fd5b818a0191508a601f83011261215d57600080fd5b81358181111561216c57600080fd5b8b602082850101111561217e57600080fd5b6020830198508097505060408a013591508082111561219c57600080fd5b6121a88b838c016120c1565b909650945060608a01359150808211156121c157600080fd5b506121ce8a828b016120c1565b989b979a50959850939692959293505050565b60008151808452602080850194506020840160005b83811015612212578151875295820195908201906001016121f6565b509495945050505050565b60208152600061101f60208301846121e1565b60008060008060006060868803121561224857600080fd5b85359450602086013567ffffffffffffffff8082111561226757600080fd5b61227389838a016120c1565b9096509450604088013591508082111561228c57600080fd5b50612299888289016120c1565b969995985093965092949392505050565b6000806000606084860312156122bf57600080fd5b83356122ca81612080565b925060208401356122da81612080565b929592945050506040919091013590565b6000602082840312156122fd57600080fd5b813561101f81612080565b6000806040838503121561231b57600080fd5b50508035926020909101359150565b6020808252825182820181905260009190848201906040850190845b8181101561236b5783516001600160a01b031683529284019291840191600101612346565b50909695505050505050565b6000806000806040858703121561238d57600080fd5b843567ffffffffffffffff808211156123a557600080fd5b6123b1888389016120c1565b909650945060208701359150808211156123ca57600080fd5b506123d7878288016120c1565b95989497509550505050565b634e487b7160e01b600052604160045260246000fd5b600067ffffffffffffffff80841115612414576124146123e3565b604051601f8501601f19908116603f0116810190828211818310171561243c5761243c6123e3565b8160405280935085815286868601111561245557600080fd5b858560208301376000602087830101525050509392505050565b600082601f83011261248057600080fd5b61101f838335602085016123f9565b600080604083850312156124a257600080fd5b823567ffffffffffffffff808211156124ba57600080fd5b6124c68683870161246f565b935060208501359150808211156124dc57600080fd5b506124e98582860161246f565b9150509250929050565b6000806040838503121561250657600080fd5b823561251181612080565b91506020830135801515811461252657600080fd5b809150509250929050565b6000806000806080858703121561254757600080fd5b843561255281612080565b9350602085013561256281612080565b925060408501359150606085013567ffffffffffffffff81111561258557600080fd5b8501601f8101871361259657600080fd5b6125a5878235602084016123f9565b91505092959194509250565b60008151808452602080850194506020840160005b838110156122125781516001600160a01b0316875295820195908201906001016125c6565b60208152600061101f60208301846125b1565b60408152600061261160408301856125b1565b828103602084015261262381856121e1565b95945050505050565b6000806040838503121561263f57600080fd5b823561264a81612080565b9150602083013561252681612080565b600181811c9082168061266e57607f821691505b60208210810361268e57634e487b7160e01b600052602260045260246000fd5b50919050565b634e487b7160e01b600052601160045260246000fd5b808201808211156104f9576104f9612694565b601f8211156106cd576000816000526020600020601f850160051c810160208610156126e65750805b601f850160051c820191505b81811015611318578281556001016126f2565b67ffffffffffffffff83111561271d5761271d6123e3565b6127318361272b835461265a565b836126bd565b6000601f841160018114612765576000851561274d5750838201355b600019600387901b1c1916600186901b1783556107d0565b600083815260209020601f19861690835b828110156127965786850135825560209485019460019092019101612776565b50868210156127b35760001960f88860031b161c19848701351681555b505060018560011b0183555050505050565b6020808252601190820152702737b732bc34b9ba32b73a103a37b5b2b760791b604082015260600190565b60208082526024908201527f41646d696e436f6e74726f6c3a204d757374206265206f776e6572206f7220616040820152633236b4b760e11b606082015260800190565b6020808252602d908201527f4552433732313a2063616c6c6572206973206e6f7420746f6b656e206f776e6560408201526c1c881bdc88185c1c1c9bdd9959609a1b606082015260800190565b634e487b7160e01b600052603260045260246000fd5b6040808252810184905260008560608301825b878110156128da5782356128bd81612080565b6001600160a01b03168252602092830192909101906001016128aa565b5083810360208501528481526001600160fb1b038511156128fa57600080fd5b8460051b915081866020830137016020019695505050505050565b80820281158282048414176104f9576104f9612694565b60008261294957634e487b7160e01b600052601260045260246000fd5b500490565b6020808252602b908201527f496e697469616c697a61626c653a20636f6e7472616374206973206e6f74206960408201526a6e697469616c697a696e6760a81b606082015260800190565b60208082526032908201527f4552433732313a207472616e7366657220746f206e6f6e20455243373231526560408201527131b2b4bb32b91034b6b83632b6b2b73a32b960711b606082015260800190565b818103818111156104f9576104f9612694565b634e487b7160e01b600052603160045260246000fd5b815167ffffffffffffffff811115612a2e57612a2e6123e3565b612a4281612a3c845461265a565b846126bd565b602080601f831160018114612a775760008415612a5f5750858301515b600019600386901b1c1916600185901b178555611318565b600085815260208120601f198616915b82811015612aa657888601518255948401946001909101908401612a87565b5085821015612ac45787850151600019600388901b60f8161c191681555b5050505050600190811b01905550565b6001600160a01b0385811682528416602082015260408101839052608060608201819052600090612b079083018461200e565b9695505050505050565b600060208284031215612b2357600080fd5b815161101f81611fdb56fea26469706673582212205479b86d6710cedf79b62e852b1153efb72c0e0cbfdfa43a630ae4a82a742dfc64736f6c63430008160033",
  "linkReferences": {},
  "deployedLinkReferences": {}
}