{
  "_format": "hh-sol-artifact-1",
  "contractName": "ERC721Creator",
  "sourceName": "contracts/contract-factory/ERC721Creator.sol",
  "abi": [
    {
      "inputs": [],
      "stateMutability": "nonpayable",
      "type": "constructor"
    },
    {
      "anonymous": false,
      "inputs": [
        {
          "indexed": true,
          "internalType": "address",
          "name": "account",
          "type": "address"
        },
        {
          "indexed": true,
          "internalType": "address",
          "name": "sender",
          "type": "address"
        }
      ],
      "name": "AdminApproved",
      "type": "event"
    },
    {
      "anonymous": false,
      "inputs": [
        {
          "indexed": true,
          "internalType": "address",
          "name": "account",
          "type": "address"
        },
        {
          "indexed": true,
          "internalType": "address",
          "name": "sender",
          "type": "address"
        }
      ],
      "name": "AdminRevoked",
      "type": "event"
    },
    {
      "anonymous": false,
      "inputs": [
        {
          "indexed": true,
          "internalType": "address",
          "name": "owner",
          "type": "address"
        },
        {
          "indexed": true,
          "internalType": "address",
          "name": "approved",
          "type": "address"
        },
        {
          "indexed": true,
          "internalType": "uint256",
          "name": "tokenId",
          "type": "uint256"
        }
      ],
      "name": "Approval",
      "type": "event"
    },
    {
      "anonymous": false,
      "inputs": [
        {
          "indexed": true,
          "internalType": "address",
          "name": "owner",
          "type": "address"
        },
        {
          "indexed": true,
          "internalType": "address",
          "name": "operator",
          "type": "address"
        },
        {
          "indexed": false,
          "internalType": "bool",
          "name": "approved",
          "type": "bool"
        }
      ],
      "name": "ApprovalForAll",
      "type": "event"
    },
    {
      "anonymous": false,
      "inputs": [
        {
          "indexed": false,
          "internalType": "address payable[]",
          "name": "receivers",
          "type": "address[]"
        },
        {
          "indexed": false,
          "internalType": "uint256[]",
          "name": "basisPoints",
          "type": "uint256[]"
        }
      ],
      "name": "DefaultRoyaltiesUpdated",
      "type": "event"
    },
    {
      "anonymous": false,
      "inputs": [
        {
          "indexed": false,
          "internalType": "uint8",
          "name": "version",
          "type": "uint8"
        }
      ],
      "name": "Initialized",
      "type": "event"
    },
    {
      "anonymous": false,
      "inputs": [
        {
          "indexed": true,
          "internalType": "address",
          "name": "previousOwner",
          "type": "address"
        },
        {
          "indexed": true,
          "internalType": "address",
          "name": "newOwner",
          "type": "address"
        }
      ],
      "name": "OwnershipTransferred",
      "type": "event"
    },
    {
      "anonymous": false,
      "inputs": [
        {
          "indexed": true,
          "internalType": "uint256",
          "name": "tokenId",
          "type": "uint256"
        },
        {
          "indexed": false,
          "internalType": "address payable[]",
          "name": "receivers",
          "type": "address[]"
        },
        {
          "indexed": false,
          "internalType": "uint256[]",
          "name": "basisPoints",
          "type": "uint256[]"
        }
      ],
      "name": "RoyaltiesUpdated",
      "type": "event"
    },
    {
      "anonymous": false,
      "inputs": [
        {
          "indexed": true,
          "internalType": "address",
          "name": "from",
          "type": "address"
        },
        {
          "indexed": true,
          "internalType": "address",
          "name": "to",
          "type": "address"
        },
        {
          "indexed": true,
          "internalType": "uint256",
          "name": "tokenId",
          "type": "uint256"
        }
      ],
      "name": "Transfer",
      "type": "event"
    },
    {
      "inputs": [
        {
          "internalType": "address",
          "name": "to",
          "type": "address"
        },
        {
          "internalType": "uint256",
          "name": "tokenId",
          "type": "uint256"
        }
      ],
      "name": "approve",
      "outputs": [],
      "stateMutability": "nonpayable",
      "type": "function"
    },
    {
      "inputs": [
        {
          "internalType": "address",
          "name": "admin",
          "type": "address"
        }
      ],
      "name": "approveAdmin",
      "outputs": [],
      "stateMutability": "nonpayable",
      "type": "function"
    },
    {
      "inputs": [
        {
          "internalType": "address",
          "name": "owner",
          "type": "address"
        }
      ],
      "name": "balanceOf",
      "outputs": [
        {
          "internalType": "uint256",
          "name": "",
          "type": "uint256"
        }
      ],
      "stateMutability": "view",
      "type": "function"
    },
    {
      "inputs": [],
      "name": "getAdmins",
      "outputs": [
        {
          "internalType": "address[]",
          "name": "admins",
          "type": "address[]"
        }
      ],
      "stateMutability": "view",
      "type": "function"
    },
    {
      "inputs": [],
      "name": "getApproveTransfer",
      "outputs": [
        {
          "internalType": "address",
          "name": "",
          "type": "address"
        }
      ],
      "stateMutability": "view",
      "type": "function"
    },
    {
      "inputs": [
        {
          "internalType": "uint256",
          "name": "tokenId",
          "type": "uint256"
        }
      ],
      "name": "getApproved",
      "outputs": [
        {
          "internalType": "address",
          "name": "",
          "type": "address"
        }
      ],
      "stateMutability": "view",
      "type": "function"
    },
    {
      "inputs": [
        {
          "internalType": "uint256",
          "name": "tokenId",
          "type": "uint256"
        }
      ],
      "name": "getFeeBps",
      "outputs": [
        {
          "internalType": "uint256[]",
          "name": "",
          "type": "uint256[]"
        }
      ],
      "stateMutability": "view",
      "type": "function"
    },
    {
      "inputs": [
        {
          "internalType": "uint256",
          "name": "tokenId",
          "type": "uint256"
        }
      ],
      "name": "getFeeRecipients",
      "outputs": [
        {
          "internalType": "address payable[]",
          "name": "",
          "type": "address[]"
        }
      ],
      "stateMutability": "view",
      "type": "function"
    },
    {
      "inputs": [
        {
          "internalType": "uint256",
          "name": "tokenId",
          "type": "uint256"
        }
      ],
      "name": "getFees",
      "outputs": [
        {
          "internalType": "address payable[]",
          "name": "",
          "type": "address[]"
        },
        {
          "internalType": "uint256[]",
          "name": "",
          "type": "uint256[]"
        }
      ],
      "stateMutability": "view",
      "type": "function"
    },
    {
      "inputs": [
        {
          "internalType": "uint256",
          "name": "tokenId",
          "type": "uint256"
        }
      ],
      "name": "getRoyalties",
      "outputs": [
        {
          "internalType": "address payable[]",
          "name": "",
          "type": "address[]"
        },
        {
          "internalType": "uint256[]",
          "name": "",
          "type": "uint256[]"
        }
      ],
      "stateMutability": "view",
      "type": "function"
    },
    {
      "inputs": [
        {
          "internalType": "string",
          "name": "_name",
          "type": "string"
        },
        {
          "internalType": "string",
          "name": "_symbol",
          "type": "string"
        }
      ],
      "name": "initialize",
      "outputs": [],
      "stateMutability": "nonpayable",
      "type": "function"
    },
    {
      "inputs": [
        {
          "internalType": "address",
          "name": "admin",
          "type": "address"
        }
      ],
      "name": "isAdmin",
      "outputs": [
        {
          "internalType": "bool",
          "name": "",
          "type": "bool"
        }
      ],
      "stateMutability": "view",
      "type": "function"
    },
    {
      "inputs": [
        {
          "internalType": "address",
          "name": "owner",
          "type": "address"
        },
        {
          "internalType": "address",
          "name": "operator",
          "type": "address"
        }
      ],
      "name": "isApprovedForAll",
      "outputs": [
        {
          "internalType": "bool",
          "name": "",
          "type": "bool"
        }
      ],
      "stateMutability": "view",
      "type": "function"
    },
    {
      "inputs": [],
      "name": "name",
      "outputs": [
        {
          "internalType": "string",
          "name": "",
          "type": "string"
        }
      ],
      "stateMutability": "view",
      "type": "function"
    },
    {
      "inputs": [],
      "name": "owner",
      "outputs": [
        {
          "internalType": "address",
          "name": "",
          "type": "address"
        }
      ],
      "stateMutability": "view",
      "type": "function"
    },
    {
      "inputs": [
        {
          "internalType": "uint256",
          "name": "tokenId",
          "type": "uint256"
        }
      ],
      "name": "ownerOf",
      "outputs": [
        {
          "internalType": "address",
          "name": "",
          "type": "address"
        }
      ],
      "stateMutability": "view",
      "type": "function"
    },
    {
      "inputs": [],
      "name": "renounceOwnership",
      "outputs": [],
      "stateMutability": "nonpayable",
      "type": "function"
    },
    {
      "inputs": [
        {
          "internalType": "address",
          "name": "admin",
          "type": "address"
        }
      ],
      "name": "revokeAdmin",
      "outputs": [],
      "stateMutability": "nonpayable",
      "type": "function"
    },
    {
      "inputs": [
        {
          "internalType": "uint256",
          "name": "tokenId",
          "type": "uint256"
        },
        {
          "internalType": "uint256",
          "name": "value",
          "type": "uint256"
        }
      ],
      "name": "royaltyInfo",
      "outputs": [
        {
          "internalType": "address",
          "name": "",
          "type": "address"
        },
        {
          "internalType": "uint256",
          "name": "",
          "type": "uint256"
        }
      ],
      "stateMutability": "view",
      "type": "function"
    },
    {
      "inputs": [
        {
          "internalType": "address",
          "name": "from",
          "type": "address"
        },
        {
          "internalType": "address",
          "name": "to",
          "type": "address"
        },
        {
          "internalType": "uint256",
          "name": "tokenId",
          "type": "uint256"
        }
      ],
      "name": "safeTransferFrom",
      "outputs": [],
      "stateMutability": "nonpayable",
      "type": "function"
    },
    {
      "inputs": [
        {
          "internalType": "address",
          "name": "from",
          "type": "address"
        },
        {
          "internalType": "address",
          "name": "to",
          "type": "address"
        },
        {
          "internalType": "uint256",
          "name": "tokenId",
          "type": "uint256"
        },
        {
          "internalType": "bytes",
          "name": "data",
          "type": "bytes"
        }
      ],
      "name": "safeTransferFrom",
      "outputs": [],
      "stateMutability": "nonpayable",
      "type": "function"
    },
    {
      "inputs": [
        {
          "internalType": "address",
          "name": "operator",
          "type": "address"
        },
        {
          "internalType": "bool",
          "name": "approved",
          "type": "bool"
        }
      ],
      "name": "setApprovalForAll",
      "outputs": [],
      "stateMutability": "nonpayable",
      "type": "function"
    },
    {
      "inputs": [
        {
          "internalType": "uint256",
          "name": "tokenId",
          "type": "uint256"
        },
        {
          "internalType": "address payable[]",
          "name": "receivers",
          "type": "address[]"
        },
        {
          "internalType": "uint256[]",
          "name": "basisPoints",
          "type": "uint256[]"
        }
      ],
      "name": "setRoyalties",
      "outputs": [],
      "stateMutability": "nonpayable",
      "type": "function"
    },
    {
      "inputs": [
        {
          "internalType": "address payable[]",
          "name": "receivers",
          "type": "address[]"
        },
        {
          "internalType": "uint256[]",
          "name": "basisPoints",
          "type": "uint256[]"
        }
      ],
      "name": "setRoyalties",
      "outputs": [],
      "stateMutability": "view",
      "type": "function"
    },
    {
      "inputs": [
        {
          "internalType": "bytes4",
          "name": "interfaceId",
          "type": "bytes4"
        }
      ],
      "name": "supportsInterface",
      "outputs": [
        {
          "internalType": "bool",
          "name": "",
          "type": "bool"
        }
      ],
      "stateMutability": "view",
      "type": "function"
    },
    {
      "inputs": [],
      "name": "symbol",
      "outputs": [
        {
          "internalType": "string",
          "name": "",
          "type": "string"
        }
      ],
      "stateMutability": "view",
      "type": "function"
    },
    {
      "inputs": [
        {
          "internalType": "uint256",
          "name": "tokenId",
          "type": "uint256"
        }
      ],
      "name": "tokenData",
      "outputs": [
        {
          "internalType": "uint80",
          "name": "",
          "type": "uint80"
        }
      ],
      "stateMutability": "view",
      "type": "function"
    },
    {
      "inputs": [
        {
          "internalType": "uint256",
          "name": "tokenId",
          "type": "uint256"
        }
      ],
      "name": "tokenURI",
      "outputs": [
        {
          "internalType": "string",
          "name": "",
          "type": "string"
        }
      ],
      "stateMutability": "view",
      "type": "function"
    },
    {
      "inputs": [
        {
          "internalType": "address",
          "name": "from",
          "type": "address"
        },
        {
          "internalType": "address",
          "name": "to",
          "type": "address"
        },
        {
          "internalType": "uint256",
          "name": "tokenId",
          "type": "uint256"
        }
      ],
      "name": "transferFrom",
      "outputs": [],
      "stateMutability": "nonpayable",
      "type": "function"
    },
    {
      "inputs": [
        {
          "internalType": "address",
          "name": "newOwner",
          "type": "address"
        }
      ],
      "name": "transferOwnership",
      "outputs": [],
      "stateMutability": "nonpayable",
      "type": "function"
    }
  ],
  "bytecode": "0x60806040523480156200001157600080fd5b506200001c6200002c565b620000266200002c565b620000ed565b600054610100900460ff1615620000995760405162461bcd60e51b815260206004820152602760248201527f496e697469616c697a61626c653a20636f6e747261637420697320696e697469604482015266616c697a696e6760c81b606482015260840160405180910390fd5b60005460ff90811614620000eb576000805460ff191660ff9081179091556040519081527f7f26b83ff96e1f2b6a682f133852f6798a09c465da95921460cefb38474024989060200160405180910390a15b565b6126fd80620000fd6000396000f3fe608060405234801561001057600080fd5b50600436106101da5760003560e01c80636352211e11610104578063b4b5b48f116100a2578063c87b56dd11610071578063c87b56dd14610479578063d5a06d4c14610458578063e985e9c51461048c578063f2fde38b1461049f57600080fd5b8063b4b5b48f146103d4578063b88d4fde14610425578063b9c4d9fb14610438578063bb3bafd61461045857600080fd5b8063715018a6116100de578063715018a6146103a05780638da5cb5b146103a857806395d89b41146103b9578063a22cb465146103c157600080fd5b80636352211e146103595780636d73e6691461036c57806370a082311461037f57600080fd5b806323b872dd1161017c57806331ae450b1161014b57806331ae450b1461030b578063332dd1ae1461032057806342842e0e146103335780634cd88b761461034657600080fd5b806323b872dd146102a057806324d7806c146102b35780632a55205a146102c65780632d345670146102f857600080fd5b8063095ea7b3116101b8578063095ea7b3146102475780630ebd4c7f1461025c57806320e4afe21461027c57806322f374d01461028f57600080fd5b806301ffc9a7146101df57806306fdde0314610207578063081812fc1461021c575b600080fd5b6101f26101ed366004611d25565b6104b2565b60405190151581526020015b60405180910390f35b61020f6104e1565b6040516101fe9190611d88565b61022f61022a366004611d9b565b610573565b6040516001600160a01b0390911681526020016101fe565b61025a610255366004611dc9565b61059a565b005b61026f61026a366004611d9b565b6106b4565b6040516101fe9190611e31565b61025a61028a366004611e89565b6106e4565b606e546001600160a01b031661022f565b61025a6102ae366004611f03565b610767565b6101f26102c1366004611f44565b610798565b6102d96102d4366004611f61565b6107d1565b604080516001600160a01b0390931683526020830191909152016101fe565b61025a610306366004611f44565b61080f565b61031361086d565b6040516101fe9190611f83565b61025a61032e366004611fd0565b610912565b61025a610341366004611f03565b61099c565b61025a6103543660046120e8565b6109b7565b61022f610367366004611d9b565b610ad8565b61025a61037a366004611f44565b610b38565b61039261038d366004611f44565b610b90565b6040519081526020016101fe565b61025a610c16565b6033546001600160a01b031661022f565b61020f610c2a565b61025a6103cf36600461214c565b610c39565b61040a6103e2366004611d9b565b600090815260696020526040902054600160a01b900460101c69ffffffffffffffffffff1690565b60405169ffffffffffffffffffff90911681526020016101fe565b61025a61043336600461218a565b610c44565b61044b610446366004611d9b565b610c76565b6040516101fe9190612244565b61046b610466366004611d9b565b610ca6565b6040516101fe929190612257565b61020f610487366004611d9b565b610ce0565b6101f261049a366004612285565b610d10565b61025a6104ad366004611f44565b610d3e565b60006104bd82610db4565b806104cc57506104cc82610e65565b806104db57506104db82610ea0565b92915050565b6060606780546104f0906122b3565b80601f016020809104026020016040519081016040528092919081815260200182805461051c906122b3565b80156105695780601f1061053e57610100808354040283529160200191610569565b820191906000526020600020905b81548152906001019060200180831161054c57829003601f168201915b5050505050905090565b600061057e82610ed5565b506000908152606b60205260409020546001600160a01b031690565b60006105a582610ad8565b9050806001600160a01b0316836001600160a01b0316036106175760405162461bcd60e51b815260206004820152602160248201527f4552433732313a20617070726f76616c20746f2063757272656e74206f776e656044820152603960f91b60648201526084015b60405180910390fd5b336001600160a01b038216148061063357506106338133610d10565b6106a55760405162461bcd60e51b815260206004820152603d60248201527f4552433732313a20617070726f76652063616c6c6572206973206e6f7420746f60448201527f6b656e206f776e6572206f7220617070726f76656420666f7220616c6c000000606482015260840161060e565b6106af8383610f25565b505050565b60606106bf82610f93565b6106db5760405162461bcd60e51b815260040161060e906122ed565b6104db82610fb0565b336106f76033546001600160a01b031690565b6001600160a01b031614806107125750610712606533610fc2565b61072e5760405162461bcd60e51b815260040161060e90612318565b61073785610f93565b6107535760405162461bcd60e51b815260040161060e906122ed565b6107608585858585610fe4565b5050505050565b610771338261106b565b61078d5760405162461bcd60e51b815260040161060e9061235c565b6106af8383836110ca565b6000816001600160a01b03166107b66033546001600160a01b031690565b6001600160a01b031614806104db57506104db606583610fc2565b6000806107dd84610f93565b6107f95760405162461bcd60e51b815260040161060e906122ed565b6108038484611262565b915091505b9250929050565b610817611339565b610822606582610fc2565b1561086a5760405133906001600160a01b038316907f7c0c3c84c67c85fcac635147348bfe374c24a1a93d0366d1cfe9d8853cbf89d590600090a3610868606582611393565b505b50565b606061087960656113a8565b67ffffffffffffffff8111156108915761089161203c565b6040519080825280602002602001820160405280156108ba578160200160208202803683370190505b50905060005b6108ca60656113a8565b81101561090e576108dc6065826113b2565b8282815181106108ee576108ee6123a9565b6001600160a01b03909216602092830291909101909101526001016108c0565b5090565b336109256033546001600160a01b031690565b6001600160a01b031614806109405750610940606533610fc2565b61095c5760405162461bcd60e51b815260040161060e90612318565b60405162461bcd60e51b815260206004820152600f60248201526e139bdd08125b5c1b195b595b9d1959608a1b604482015260640161060e565b50505050565b6106af83838360405180602001604052806000815250610c44565b600054610100900460ff16158080156109d75750600054600160ff909116105b806109f15750303b1580156109f1575060005460ff166001145b610a545760405162461bcd60e51b815260206004820152602e60248201527f496e697469616c697a61626c653a20636f6e747261637420697320616c72656160448201526d191e481a5b9a5d1a585b1a5e995960921b606482015260840161060e565b6000805460ff191660011790558015610a77576000805461ff0019166101001790555b610a8183836113be565b610a896113ef565b6000606d5580156106af576000805461ff0019169055604051600181527f7f26b83ff96e1f2b6a682f133852f6798a09c465da95921460cefb38474024989060200160405180910390a1505050565b6000818152606960205260408120546001600160a01b0316806104db5760405162461bcd60e51b8152602060048201526018602482015277115490cdcc8c4e881a5b9d985b1a59081d1bdad95b88125160421b604482015260640161060e565b610b40611339565b610b4b606582610fc2565b61086a5760405133906001600160a01b038316907f7e1a1a08d52e4ba0e21554733d66165fd5151f99460116223d9e3a608eec5cb190600090a361086860658261141e565b60006001600160a01b038216610bfa5760405162461bcd60e51b815260206004820152602960248201527f4552433732313a2061646472657373207a65726f206973206e6f7420612076616044820152683634b21037bbb732b960b91b606482015260840161060e565b506001600160a01b03166000908152606a602052604090205490565b610c1e611339565b610c286000611433565b565b6060606880546104f0906122b3565b610868338383611485565b610c4e338361106b565b610c6a5760405162461bcd60e51b815260040161060e9061235c565b61099684848484611553565b6060610c8182610f93565b610c9d5760405162461bcd60e51b815260040161060e906122ed565b6104db82611586565b606080610cb283610f93565b610cce5760405162461bcd60e51b815260040161060e906122ed565b610cd783611598565b91509150915091565b6060610ceb82610f93565b610d075760405162461bcd60e51b815260040161060e906122ed565b6104db82611761565b6001600160a01b039182166000908152606c6020908152604080832093909416825291909152205460ff1690565b610d46611339565b6001600160a01b038116610dab5760405162461bcd60e51b815260206004820152602660248201527f4f776e61626c653a206e6577206f776e657220697320746865207a65726f206160448201526564647265737360d01b606482015260840161060e565b61086a81611433565b60006001600160e01b03198216631851afbb60e31b1480610de557506001600160e01b031982166328f10a2160e01b145b80610df45750610df482610e65565b80610e0f57506001600160e01b03198216635d9dd7eb60e11b145b80610e2a57506001600160e01b03198216632dde656160e21b145b80610e4557506001600160e01b031982166335681b5360e21b145b806104db57506001600160e01b0319821663152a902d60e11b1492915050565b60006001600160e01b031982166380ac58cd60e01b14806104cc57506001600160e01b03198216635b5e139f60e01b14806104db57506104db825b60006001600160e01b03198216632a9f3abf60e11b14806104db57506301ffc9a760e01b6001600160e01b03198316146104db565b610ede81610f93565b61086a5760405162461bcd60e51b8152602060048201526018602482015277115490cdcc8c4e881a5b9d985b1a59081d1bdad95b88125160421b604482015260640161060e565b6000818152606b6020526040902080546001600160a01b0319166001600160a01b0384169081179091558190610f5a82610ad8565b6001600160a01b03167f8c5be1e5ebec7d5bd14f71427d1e84f3dd0314c0f7b2291e5b200ac8c7c3b92560405160405180910390a45050565b6000908152606960205260409020546001600160a01b0316151590565b6060610fbb82611598565b9392505050565b6001600160a01b03811660009081526001830160205260408120541515610fbb565b610ff084848484611874565b600085815260706020526040812061100791611cd7565b61102684848484607060008b815260200190815260200160002061193f565b847fabb46fe0761d77584bde75697647804ffd8113abd4d8d06bc664150395eccdee8585858560405161105c94939291906123bf565b60405180910390a25050505050565b60008061107783610ad8565b9050806001600160a01b0316846001600160a01b0316148061109e575061109e8185610d10565b806110c25750836001600160a01b03166110b784610573565b6001600160a01b0316145b949350505050565b6000818152606960209081526040918290208251808401909352546001600160a01b03808216808552600160a01b9092046bffffffffffffffffffffffff1692840192909252908516811461116f5760405162461bcd60e51b815260206004820152602560248201527f4552433732313a207472616e736665722066726f6d20696e636f72726563742060448201526437bbb732b960d91b606482015260840161060e565b6001600160a01b0384166111d15760405162461bcd60e51b8152602060048201526024808201527f4552433732313a207472616e7366657220746f20746865207a65726f206164646044820152637265737360e01b606482015260840161060e565b60208201516111e1600085610f25565b6001600160a01b038087166000818152606a60209081526040808320805460001901905593891680835284832080546001019055888352606990915283822080546001600160a01b031916821790559251879392917fddf252ad1be2c89b69c2b068fc378daa952ba7f163c4a11628f55a4df523b3ef91a45b505050505050565b60008060008061127186611598565b915091506001825111156112c75760405162461bcd60e51b815260206004820152601c60248201527f4d6f7265207468616e203120726f79616c747920726563656976657200000000604482015260640161060e565b81516000036112de57306000935093505050610808565b816000815181106112f1576112f16123a9565b60200260200101516127108683600081518110611310576113106123a9565b60200260200101516113229190612453565b61132c919061246a565b9350935050509250929050565b6033546001600160a01b03163314610c285760405162461bcd60e51b815260206004820181905260248201527f4f776e61626c653a2063616c6c6572206973206e6f7420746865206f776e6572604482015260640161060e565b6000610fbb836001600160a01b0384166119fa565b60006104db825490565b6000610fbb8383611aed565b600054610100900460ff166113e55760405162461bcd60e51b815260040161060e9061248c565b6108688282611b17565b600054610100900460ff166114165760405162461bcd60e51b815260040161060e9061248c565b610c28611b57565b6000610fbb836001600160a01b038416611b87565b603380546001600160a01b038381166001600160a01b0319831681179093556040519116919082907f8be0079c531659141344cd1fd0a4f28419497f9722a3daafe3b4186f6b6457e090600090a35050565b816001600160a01b0316836001600160a01b0316036114e65760405162461bcd60e51b815260206004820152601960248201527f4552433732313a20617070726f766520746f2063616c6c657200000000000000604482015260640161060e565b6001600160a01b038381166000818152606c6020908152604080832094871680845294825291829020805460ff191686151590811790915591519182527f17307eab39ab6107e8899845ad3d59bd9653f200f220920489ca2b5937696c31910160405180910390a3505050565b61155e8484846110ca565b61156a84848484611bd6565b6109965760405162461bcd60e51b815260040161060e906124d7565b606061159182611598565b5092915050565b606080600060706000858152602001908152602001600020805480602002602001604051908101604052809291908181526020016000905b8282101561161a57600084815260209081902060408051808201909152908401546001600160a01b0381168252600160a01b900461ffff16818301528252600190920191016115d0565b50505050905060008151111561175b57805167ffffffffffffffff8111156116445761164461203c565b60405190808252806020026020018201604052801561166d578160200160208202803683370190505b509250805167ffffffffffffffff81111561168a5761168a61203c565b6040519080825280602002602001820160405280156116b3578160200160208202803683370190505b50915060005b8151811015611759578181815181106116d4576116d46123a9565b6020026020010151600001518482815181106116f2576116f26123a9565b60200260200101906001600160a01b031690816001600160a01b031681525050818181518110611724576117246123a9565b60200260200101516020015161ffff16838281518110611746576117466123a9565b60209081029190910101526001016116b9565b505b50915091565b60606000821180156117755750606d548211155b6117b15760405162461bcd60e51b815260206004820152600d60248201526c24b73b30b634b2103a37b5b2b760991b604482015260640161060e565b6000828152606f6020526040902080546117ca906122b3565b15905061186f576000828152606f6020526040902080546117ea906122b3565b80601f0160208091040260200160405190810160405280929190818152602001828054611816906122b3565b80156118635780601f1061183857610100808354040283529160200191611863565b820191906000526020600020905b81548152906001019060200180831161184657829003601f168201915b50505050509050919050565b919050565b8281146118b35760405162461bcd60e51b815260206004820152600d60248201526c125b9d985b1a59081a5b9c1d5d609a1b604482015260640161060e565b6000805b828110156118ed578383828181106118d1576118d16123a9565b90506020020135826118e39190612529565b91506001016118b7565b5061271081106107605760405162461bcd60e51b815260206004820152601760248201527f496e76616c696420746f74616c20726f79616c74696573000000000000000000604482015260640161060e565b60005b8281101561125a57816040518060400160405280888885818110611968576119686123a9565b905060200201602081019061197d9190611f44565b6001600160a01b0316815260200186868581811061199d5761199d6123a9565b61ffff602091820293909301358316909352508354600181810186556000958652948390208451910180549490930151909116600160a01b026001600160b01b03199093166001600160a01b039091161791909117905501611942565b60008181526001830160205260408120548015611ae3576000611a1e60018361253c565b8554909150600090611a329060019061253c565b9050818114611a97576000866000018281548110611a5257611a526123a9565b9060005260206000200154905080876000018481548110611a7557611a756123a9565b6000918252602080832090910192909255918252600188019052604090208390555b8554869080611aa857611aa861254f565b6001900381819060005260206000200160009055905585600101600086815260200190815260200160002060009055600193505050506104db565b60009150506104db565b6000826000018281548110611b0457611b046123a9565b9060005260206000200154905092915050565b600054610100900460ff16611b3e5760405162461bcd60e51b815260040161060e9061248c565b6067611b4a83826125ad565b5060686106af82826125ad565b600054610100900460ff16611b7e5760405162461bcd60e51b815260040161060e9061248c565b610c2833611433565b6000818152600183016020526040812054611bce575081546001818101845560008481526020808220909301849055845484825282860190935260409020919091556104db565b5060006104db565b60006001600160a01b0384163b15611ccc57604051630a85bd0160e11b81526001600160a01b0385169063150b7a0290611c1a90339089908890889060040161266d565b6020604051808303816000875af1925050508015611c55575060408051601f3d908101601f19168201909252611c52918101906126aa565b60015b611cb2573d808015611c83576040519150601f19603f3d011682016040523d82523d6000602084013e611c88565b606091505b508051600003611caa5760405162461bcd60e51b815260040161060e906124d7565b805181602001fd5b6001600160e01b031916630a85bd0160e11b1490506110c2565b506001949350505050565b508054600082559060005260206000209081019061086a91905b8082111561090e5780546001600160b01b0319168155600101611cf1565b6001600160e01b03198116811461086a57600080fd5b600060208284031215611d3757600080fd5b8135610fbb81611d0f565b6000815180845260005b81811015611d6857602081850181015186830182015201611d4c565b506000602082860101526020601f19601f83011685010191505092915050565b602081526000610fbb6020830184611d42565b600060208284031215611dad57600080fd5b5035919050565b6001600160a01b038116811461086a57600080fd5b60008060408385031215611ddc57600080fd5b8235611de781611db4565b946020939093013593505050565b60008151808452602080850194506020840160005b83811015611e2657815187529582019590820190600101611e0a565b509495945050505050565b602081526000610fbb6020830184611df5565b60008083601f840112611e5657600080fd5b50813567ffffffffffffffff811115611e6e57600080fd5b6020830191508360208260051b850101111561080857600080fd5b600080600080600060608688031215611ea157600080fd5b85359450602086013567ffffffffffffffff80821115611ec057600080fd5b611ecc89838a01611e44565b90965094506040880135915080821115611ee557600080fd5b50611ef288828901611e44565b969995985093965092949392505050565b600080600060608486031215611f1857600080fd5b8335611f2381611db4565b92506020840135611f3381611db4565b929592945050506040919091013590565b600060208284031215611f5657600080fd5b8135610fbb81611db4565b60008060408385031215611f7457600080fd5b50508035926020909101359150565b6020808252825182820181905260009190848201906040850190845b81811015611fc45783516001600160a01b031683529284019291840191600101611f9f565b50909695505050505050565b60008060008060408587031215611fe657600080fd5b843567ffffffffffffffff80821115611ffe57600080fd5b61200a88838901611e44565b9096509450602087013591508082111561202357600080fd5b5061203087828801611e44565b95989497509550505050565b634e487b7160e01b600052604160045260246000fd5b600067ffffffffffffffff8084111561206d5761206d61203c565b604051601f8501601f19908116603f011681019082821181831017156120955761209561203c565b816040528093508581528686860111156120ae57600080fd5b858560208301376000602087830101525050509392505050565b600082601f8301126120d957600080fd5b610fbb83833560208501612052565b600080604083850312156120fb57600080fd5b823567ffffffffffffffff8082111561211357600080fd5b61211f868387016120c8565b9350602085013591508082111561213557600080fd5b50612142858286016120c8565b9150509250929050565b6000806040838503121561215f57600080fd5b823561216a81611db4565b91506020830135801515811461217f57600080fd5b809150509250929050565b600080600080608085870312156121a057600080fd5b84356121ab81611db4565b935060208501356121bb81611db4565b925060408501359150606085013567ffffffffffffffff8111156121de57600080fd5b8501601f810187136121ef57600080fd5b6121fe87823560208401612052565b91505092959194509250565b60008151808452602080850194506020840160005b83811015611e265781516001600160a01b03168752958201959082019060010161221f565b602081526000610fbb602083018461220a565b60408152600061226a604083018561220a565b828103602084015261227c8185611df5565b95945050505050565b6000806040838503121561229857600080fd5b82356122a381611db4565b9150602083013561217f81611db4565b600181811c908216806122c757607f821691505b6020821081036122e757634e487b7160e01b600052602260045260246000fd5b50919050565b6020808252601190820152702737b732bc34b9ba32b73a103a37b5b2b760791b604082015260600190565b60208082526024908201527f41646d696e436f6e74726f6c3a204d757374206265206f776e6572206f7220616040820152633236b4b760e11b606082015260800190565b6020808252602d908201527f4552433732313a2063616c6c6572206973206e6f7420746f6b656e206f776e6560408201526c1c881bdc88185c1c1c9bdd9959609a1b606082015260800190565b634e487b7160e01b600052603260045260246000fd5b6040808252810184905260008560608301825b878110156124025782356123e581611db4565b6001600160a01b03168252602092830192909101906001016123d2565b5083810360208501528481526001600160fb1b0385111561242257600080fd5b8460051b915081866020830137016020019695505050505050565b634e487b7160e01b600052601160045260246000fd5b80820281158282048414176104db576104db61243d565b60008261248757634e487b7160e01b600052601260045260246000fd5b500490565b6020808252602b908201527f496e697469616c697a61626c653a20636f6e7472616374206973206e6f74206960408201526a6e697469616c697a696e6760a81b606082015260800190565b60208082526032908201527f4552433732313a207472616e7366657220746f206e6f6e20455243373231526560408201527131b2b4bb32b91034b6b83632b6b2b73a32b960711b606082015260800190565b808201808211156104db576104db61243d565b818103818111156104db576104db61243d565b634e487b7160e01b600052603160045260246000fd5b601f8211156106af576000816000526020600020601f850160051c8101602086101561258e5750805b601f850160051c820191505b8181101561125a5782815560010161259a565b815167ffffffffffffffff8111156125c7576125c761203c565b6125db816125d584546122b3565b84612565565b602080601f83116001811461261057600084156125f85750858301515b600019600386901b1c1916600185901b17855561125a565b600085815260208120601f198616915b8281101561263f57888601518255948401946001909101908401612620565b508582101561265d5787850151600019600388901b60f8161c191681555b5050505050600190811b01905550565b6001600160a01b03858116825284166020820152604081018390526080606082018190526000906126a090830184611d42565b9695505050505050565b6000602082840312156126bc57600080fd5b8151610fbb81611d0f56fea264697066735822122072f894cff712a72344961839cdd51e75dc54ad65a016462448fdf6172af1b4a164736f6c63430008160033",
  "linkReferences": {},
  "deployedLinkReferences": {}
}